:020000041000EA
:1000000000B5324B212058609868022188439860DF
:10001000D860186158612E4B002199600221596106
:100020000121F02299502B49196001219960352056
:1000300000F044F80222904214D00621196600F024
:1000400034F8196E01211966002018661A6600F04E
:100050002CF8196E196E196E052000F02FF8012189
:100060000842F9D1002199601B49196000215960AB
:100070001A491B48016001219960EB211966A021F2
:10008000196600F012F800219960164914480160C1
:100090000121996001BC002800D000471248134993
:1000A000086003C880F30888084703B5996A0420EC
:1000B0000142FBD001200142F8D103BD02B5186610
:1000C0001866FFF7F2FF186E186E02BD00000240BE
:1000D000000000180000070000035F00212200005C
:1000E000F4000018222000A00001001008ED00E03C
:1000F00000000000000000000000000074B24E7A12
:1001000000200420F7010010C3010010C5010010F9
:10011000C1010010C1010010C1010010C101001097
:10012000C1010010C1010010C1010010C701001081
:10013000C1010010C1010010C9010010CB01001065
:10014000CD010010CD010010CD010010CD01001037
:10015000CD010010CD010010CD010010CD01001027
:10016000CD010010CD010010CD010010CD01001017
:10017000CD010010CD010010CD010010CD01001007
:10018000CD010010CD010010CD010010CD010010F7
:10019000CD010010CD010010CD010010CD010010E7
:1001A000CD010010CD010010CD010010CD010010D7
:1001B000CD010010CD010010CD010010CD010010C7
:1001C00000BE00BE00BE00BE00BE00BEEFF3058054
:1001D000103800BEF2EB8871A0780110C4780110CD
:1001E0003802001090A31AE71E481F49086006C88D
:1001F00081F3088810471D480068002801D019487D
:10020000F3E70DA40ECC002902D000F012F8F9E7B4
:100210001749184A002000E001C19142FCD116495B
:100220008847164988471649884700BEFDE701C937
:1002300001C29A42FBD37047C4780110C00000206D
:10024000A0300220A4A80310000004200000042015
:10025000A4A80310001004200010042000000000D7
:10026000704700000000000008ED00E0000000D032
:10027000A0300220D462032035970010C104001082
:10028000F5960010F8B5C0460448054B10B58342FA
:1002900003D0044B002B00D0984710BDA0300220A3
:1002A000A03002200000000006480749091A8B1000
:1002B000C90FC91810B5491003D0044B002B00D04A
:1002C000984710BDA0300220A0300220000000009E
:1002D00010B5074C2378002B09D1FFF7D5FF054B4C
:1002E000002B02D0044800E000BF0123237010BDA2
:1002F0002848022000000000004A0110054B10B5FC
:10030000002B03D00449054800E000BFFFF7CCFFF5
:1003100010BDC046000000002C480220004A011019
:100320007047C046D0238022F0B51B06120285B06C
:100330009A610023FA220093009B9200934205DA0F
:10034000009B01330093009B9342F9DB8023D02173
:100350008026FA2280271B02102500249C460906CD
:10036000F60492003F058E610394039B934205DAE5
:10037000039B01330393039B9342F9DB63461842CB
:1003800020D04F610194019B934205DA019B013318
:100390000193019B9342F9DB4E610294029B400062
:1003A000934205DA029B01330293029B9342F9DBED
:1003B000013D002DD7D1D02380221B0612025A61A5
:1003C00005B0F0BD8F61DDE77047C046054A10B546
:1003D000138803439BB21380108880B2FFF7A2FFFB
:1003E00010BDC046C4620320044B10B51A88824376
:1003F0001A80188880B2FFF795FF10BDC4620320F1
:1004000001238340F0B5CE4647469946D02380B5B8
:1004100017004A461B0685B09A610023FA22009312
:10042000009B9200934205DA009B01330093009BEE
:100430009342F9DB002F37DD01227B1E9A40802397
:10044000D0248026FA201B059446002500229846D9
:100450002406F6048000A6610192019B834205DA1E
:10046000019B01330193019B8342F9DB63461942EF
:1004700023D0434663610392039B834205DA039BC7
:1004800001330393039B8342F9DB66610292029B73
:100490004900834205DA029B01330293029B8342A7
:1004A000F9DB0135AF42D6D1D0234A461B065A614B
:1004B00005B0C0BCB946B046F0BD4346A361DAE71B
:1004C000F0B5DE4657464E464546E0B50B2083B0B4
:1004D00004F038FFD024802324061B016362072028
:1004E000636104F02FFF1B2004F02CFF0F2004F0A9
:1004F00029FF0E2004F026FF112004F023FF1A200C
:1005000004F020FF0C2004F01DFF0D2004F01AFF62
:10051000072004F017FF072004F014FF072004F061
:1005200011FF072004F00EFF072004F00BFF072047
:1005300004F008FF072004F005FF072004F002FF85
:10054000072004F0FFFE01220021072004F0E6FE50
:1005500001220021072004F0E1FE012200210720F2
:1005600004F0DCFE01220021072004F0D7FE012266
:100570000021072004F0D2FE01220021072004F010
:10058000CDFE01220021072004F0C8FE0021012237
:10059000072004F0C3FE072004F0D4FE072004F077
:1005A000D1FE072004F0CEFE062004F0CBFE05208D
:1005B00004F0C8FE042004F0C5FE032004F0C2FECF
:1005C000022004F0BFFE10250823042265620A20E1
:1005D00063626262A261A361656105F08FFC0A201B
:1005E000A56105F08BFC002201210520656104F066
:1005F00095FE01210620002204F090FE4023802277
:100600006362203B6362120560336262A3626262CE
:100610008022120262628022D201626280229202F1
:10062000A2628022D204626280225201626280222F
:1006300092016262636263626362636262610CF090
:100640006DF90BF0CBFD00F0DFF801F0D5FD09F0FE
:10065000AFF9FA20C00005F051FC02F0EDFE0220D7
:1006600004F002FE04F0E2FD022004F0FDFD2E4B3A
:1006700000259A462D4B2E4E99462E4B2E4F9B46CB
:100680002E4B0193FA23DB00984602F071FE02F034
:10069000E5FE01200021404209F008FEAF21346848
:1006A0008900200006F014F8002935D0AF2101346C
:1006B00034603C688900200006F00AF800291CD04C
:1006C0000120013401353C6005F018FC4545DCD1C2
:1006D00014240A20013C09F0BBF9002CF9D1FA25B9
:1006E000584609F083FA019809F080FA0A2009F0C7
:1006F000AFF9ED0002F0B2FFC7E701224846023130
:1007000003F088FD3B680120013301353B6005F0B3
:10071000F5FB4545B9D1DBE701225046033103F033
:1007200079FD3468C2E7C046F8160020EC170020B7
:100730009C600320004A01103C600220144A011012
:100740000EB410B5B5B037AA02CA040002A80192CF
:100750000CF016FE02A80CF057FFE4B2020002A94A
:1007600020000AF077FC20000AF036FC35B010BCFF
:1007700008BC03B01847C04608B4F0B50E0004002A
:100780001500B6B03BAB80CB1B220F49023603935A
:10079000FFF7D6FFAB1C20001B220C490096FFF789
:1007A000CFFF039A390004A80CF0EAFD200004A949
:1007B000FFF7C6FF1B2220000549FFF7C1FF36B037
:1007C000F0BC08BC01B01847384A01103C4A01107F
:1007D000484A011010B51B220149FFF7B1FF10BDB7
:1007E0004C4A01100122034B1A60034A1368002B84
:1007F000FCD0704744540220485402200122014B8F
:100800001A6070474054022010B502480CF054F8AA
:1008100010BDC0466D01002000487047985A011075
:10082000004870477059011030B583B0002807D1D7
:10083000344B35484380063BFF3B038003B030BD5B
:100840000A281BD803281BD0304B8000C0583049E1
:100850000123013804E001330A800231142B09D04E
:10086000C25C002AF7D1C022DBB25B0092002648AE
:100870001343E2E7CA2324489B00DEE70020DDE7BC
:100880006C46684609F0D6FA2178224B0A091E48C0
:100890009A5C42800F221140595C818061780D0979
:1008A00011405D5D595CC5800181A1780D09114041
:1008B0005D5D595C45818181E1780D0911405D5D87
:1008C000595CC581018221790D0911405D5D595C3A
:1008D0004582818261790D0911405D5D595CC58257
:1008E0000183A1790D091140595C5D5D81834583C8
:1008F000E1790C090A401C5D9B5CC4830384064BB0
:100900009BE7C0460904000098570220AC5A01102A
:100910009A570220544A011022030000022241008B
:1009200003000A4041100120014011439A10490080
:1009300002400A43D9105200014011431A114900E4
:1009400002400A4359115200014011439A114900D3
:1009500002400A43DB115200184010437047C04662
:100960000023094A094913600B68581C032804DC5A
:1009700000230860064A136070471321033B11608F
:100980005A425341F6E7C046BC600320C0600320D2
:10099000B860032070B516000C008300164A5B187F
:1009A0009B009E501549164A431C05000C601360BD
:1009B000142B13DC092E11D0132B16D00023114A4F
:1009C000280013602100F2B203F08CFB32002800F3
:1009D000210004F05BFC04F095FC70BD0023136063
:1009E000631C032B05DD13231360E31E5A4253419E
:1009F000E5E70B60E2E7C04674610320C0600320B6
:100A0000BC600320B8600320F8B505000C00160098
:100A1000D7B23A0003F066FBAB00164A1B199B00E5
:100A20009E501549154A6B1C0C601360142B13DC87
:100A3000092E11D0132B16D00023114A2800136061
:100A400021003A0003F04EFB32002800210004F0A0
:100A50001DFC04F057FCF8BD00231360631C032B3E
:100A600005DD13231360E31E5A425341E5E70B6093
:100A7000E2E7C04674610320C0600320BC6003202D
:100A8000B8600320F0B54E46DE4645465746E0B511
:100A90001600364B83B0364C18609846354B1960BB
:100AA000994613000A000100200009F09FF83378EE
:100AB000002B43D043461C682F4B01932F4B9B4682
:100AC0002F4B9A462F4B00934346621C1A604B46AD
:100AD0001D68A300377801995B199B00CF505B46D6
:100AE0001D6053461A60142A36DC092F34D0132AAD
:100AF0002ED00023009A2000136029003A0003F052
:100B0000F1FA20003A00290004F0C0FB04F0FAFBDF
:100B100043461C68142C0DDD002119604B46032050
:100B20001B6800240133DA0F98424A4152421340B5
:100B30004A46136073780136002BC5D103B0F0BC70
:100B4000BB46B246A946A046F0BD132352461360E9
:100B5000EB1E5A425341CDE7534600221A606B1CEC
:100B6000032BF2DC5A461360C3E7C04668540220E8
:100B7000A84A01106C54022074610320C060032055
:100B8000BC600320B860032010B5FFF77BFF10BDE9
:100B90000022024B1A60024B1A6070476854022010
:100BA0006C540220044B10B51968044B02001868FD
:100BB000FFF768FF10BDC0466C5402206854022045
:100BC00010B50CF021FD084B1A688018142807D9BD
:100BD0000021064A196013680133032B01DD1160FF
:100BE00010BD1360FCE7C046685402206C5402201C
:100BF00070B5114D114C124E02F0BAFB02F0B8FB69
:100C00002A6823689A42F7D02368F35CFF2BF3D05D
:100C10002A6823689A420CD00F222368F05C23686C
:100C200040B20133D917090F5B1813405B1A2360D8
:100C300070BD01204042FBE7886002208C600220EA
:100C40007860022010B502F093FB074B1968074B40
:100C50001A68914205D01B68054AD05CC0B240B208
:100C600010BDFF20FBE7C046886002208C60022098
:100C700078600220F8B5114F05003E68C821701C4D
:100C800005F026FD481C0C00C82105F021FD0C4B89
:100C90001B6899420AD09C4208D00A4B1A68AA42A3
:100CA00005D0094AB60095513C601D60F8BD002092
:100CB000054AB600905126000C00F3E7705402205C
:100CC0007454022050600220785402207047C046BD
:100CD000F0B5DE4657464E464546E0B597B005AB03
:100CE00098460F000400010018000CF023FC0322BA
:100CF000774907F029F8424639000020FFF7C2FE85
:100D000040460CF081FC060020000CF07DFC152E06
:100D10004DD8012399466F4B002201936E4B9346A9
:100D20000293152383429B419A4602F021FB4B46D6
:100D30005246134099465D4600242022AE4205DD0E
:100D40003100280005F0C4FC43465A5C20003900FD
:100D50000134FFF71FFE0135152CEED1FFF772FFAE
:100D6000013000D17EE0FFF743FF01990500040048
:100D70000200029808F03AFF052D00D197E0062DF9
:100D800008D0013561D1CB445B46002B0ADA731ED3
:100D90009B46CAE74B46013300D195E001239C46B0
:100DA0009946E3445E45C0DC00239B46BDE7002333
:100DB0009B4601339A46474B0193474B02931523B9
:100DC00083429B41039302F0D3FA5346039A5D4654
:100DD00013409A46002300249946B54214DB4B4643
:100DE000310001334846009305F072FC4346200071
:100DF0005A5C01343900FFF7CDFD0135152C11D0B7
:100E0000009B9946B542EADA2800310005F060FC03
:100E1000434620005A5C01343900FFF7BBFD013521
:100E2000152CDAD1FFF70EFF013020D0FFF7E0FEDE
:100E30000199050004000200029808F0D7FE052D74
:100E40002BD0062D1DD0013514D04246390000208C
:100E5000FFF718FE200017B0F0BCBB46B246A9460B
:100E6000A046F0BDC82005F049F8CB448CE7C82067
:100E700005F044F8D3445B46013309D1731E9B4609
:100E8000A1E7534601331CD001239C469A46E34414
:100E9000B34598DB00239B4695E75346013B5A1E1A
:100EA00093415A4292465A46D31A9B46E3E74B4631
:100EB000013B5A1E93415A4291465A46D31A9B46C9
:100EC00062E700239A46E3E7002399465CE7C046C1
:100ED000C44A0110D85A0110C84A0110002105481F
:100EE0000160054801600548016005490A60054A3E
:100EF00013607047BC600320C0600320B86003200B
:100F00005C54022058540220F0B5C6460C4D0D4EDC
:100F100028680D4C3368804600B52768002B09D13E
:100F2000390001E0286821682022FFF733FD33688B
:100F3000002BF7D0434627602B6080BCB846F0BD3D
:100F4000BC600320B8600320C060032070B500259A
:100F500000242100202228000134FFF71BFD042C6F
:100F6000F7D10135152DF3D1FFF712FE70BDC04644
:100F7000F0B5C64600B502780700002A25D0144E09
:100F8000144D05E00137FFF705FD3A78002A1CD023
:100F900033682C68984621001800092AF2D12022D3
:100FA000FFF7F8FC2968A14206D120223068FFF73C
:100FB000F1FC2968A142F8D04346013733602C6028
:100FC000FFF7CEFC3A78002AE2D180BCB846F0BDEB
:100FD000BC600320C0600320F0B557464E4645462E
:100FE000DE46E0B587B000236A4600259382574B62
:100FF000574E1F689946574B574C1F60574BBB467F
:1010000001931B68B0469A4627002E005449009071
:101010000B603000152105F05BFB30000D00152141
:1010200005F056FB4346AD002D18AD005B59BC19C9
:1010300001362370542EECD15346580050443C00E6
:10104000C1005F46091A00206118C8550121454BAF
:10105000454E19609B46454B454898461F60534690
:101060003360444B01601A00039302231370FFF7AF
:101070006DFF220000210020FFF704FD0098FFF71C
:1010800077FFFFF741FF4B4642461B681360002283
:101090001500019B1B683360002D07D0029807B034
:1010A000F0BCBB46B246A946A046F0BD02F060F9CE
:1010B000FFF7C8FD0130F9D00027FFF799FD0121A6
:1010C0002D4B02001F602D4B02901960039B1B7873
:1010D000022B10D0220000210020FFF7D3FC009843
:1010E000FFF746FFFFF710FF4B4642461B681360B1
:1010F000019B1B68CFE7082817D00BDC012821D003
:1011000004280BD109236A46009805A913750CF031
:10111000B7F9DFE70D2801D10125DBE76B46009821
:1011200005A91A750CF0ACF9D4E7009A1378002BD6
:10113000D0D0924610000CF067FA52461318013BCB
:101140001F70C7E75B4601251F60C3E7BC60032033
:10115000746103201C5C0220C85B0220C060032075
:10116000205C02205C5402206454022018250020D8
:1011700058540220F524002060540220305C0220E4
:10118000F0B54746CE46202380B583B001AF40225C
:101190003B800023314E0400B3544032B3544032FC
:1011A000B3544032B3544032B3544032B35440325B
:1011B0003370B35403788846002B16D0002506E020
:1011C0000135072D44DC63780134002B0DD01A0063
:1011D000093A012AF4D9A8013900301801343B70CA
:1011E0000CF04EF92378002BF1D11D4808F07AFC61
:1011F0001C4B37003500002499462A002100484640
:10120000013408F0F3FC4035082CF6D10A2008F030
:101210001FFC00243A00210000200134FFF732FCBB
:101220004037042CF6D143460F4C9B01F61802F0D0
:101230009FF841463000FFF74BFDC3B20D2BF6D8A7
:101240008300E3589F4603B0C0BCB946B046F0BD2A
:101250000649074808F0CAFCC7E7C04648430220D1
:10126000D44A0110E44A0110E05A0110185B011041
:10127000F04A0110F8B506001C00012932D00329FC
:1012800022D1244B1B68002B32D00A2000F0DCFD59
:1012900000F0D4FD070000F093FD050000F090FD84
:1012A000002D30D0802815D0FF2817D0069BA61C13
:1012B0001F6025706070002400F082FD30550134FD
:1012C000AC42F9DB0120F8BD0229E1D1006800F051
:1012D000BBFDF7E700F08AFD00F0A8FDFF2D0BD065
:1012E0000020F0E70B4B196000F0A8FD3060E9E743
:1012F000094808F07BFCFEE7084B1868023800F04C
:10130000A3FD0020DFE7306800F09EFDF62040429C
:10131000D9E7C046946002200C4B0110A460032062
:10132000F0B5CE46474680B59946C5B0431E040089
:10133000904604AE012B4DD9032C35D000F07EFD34
:1013400000F03EFD070000F03BFD002F56D0802846
:1013500032D0FF2834D000253770707000F030FD97
:10136000731901359870AF42F8DC01253378092BE9
:10137000E2D17378812BDFD14B46002B02D04A4655
:10138000B37A13704346002B08D01221082240463E
:10139000694406F0D9FC002342461372280045B088
:1013A000C0BCB946B046F0BD174B1B68002B1BD024
:1013B0000A2000F049FDC1E700F018FD00F036FDFD
:1013C0003478FF2F14D00025092CE7D17378812BB6
:1013D000E4D1D1E702AB0A0000930100330003A877
:1013E000FFF748FF0125D9E7084808F0FFFBFEE7B3
:1013F000074B1868023800F027FDE4E7F6250020C7
:1014000000F022FD6D42B1E7946002200C4B011008
:10141000A4600320F0B5DE4657464E464546894651
:10142000E0B57C4B7C4C1900A54407007B481400B8
:101430009B4608F0DBFB7A4D0A942B680B950393CF
:10144000784B04931B789A46774B0693774B079318
:10145000774B0893774B02934B460993039C534673
:1014600022005946069808F0C1FB002C00DCBEE0C3
:101470000122714BB9461A6000F0E0FC00226F4E69
:1014800003003700032116004EAC0CAD0022C9B298
:10149000BA560DA80D9300952300FFF7EBFE0D9BA8
:1014A000002800D1A0E0049962780978914201D027
:1014B0000421EBE703990136B142F9D118009246B5
:1014C00026780C9D00F0C0FC00F0B8FC05902800C8
:1014D000B51C00F0B9FC0EAC2A005946079808F07C
:1014E00085FB2100280000F047FC594608984F462C
:1014F00008F07CFB002E00D17FE0514B0025984680
:10150000682399464346B8461F0005E008000135A8
:1015100008F09EFAB5420BDA4A462B1999787B5CA3
:101520009343F3D10298013508F060FBB542F3DB39
:101530003B0047460598984600F086FC33003A0089
:101540005946404808F052FB682399464346002517
:10155000B8461F0005E00800013508F079FAB542E9
:101560000BDA4A462B1999787B5C9343F3D10298A6
:10157000013508F03BFBB542F3DB474638000CF081
:1015800043F8B0460025060006E03B78002B0AD061
:1015900001350134454539DA3200390020000BF0BD
:1015A00095FF0028F1D1099B5946274899460A9C86
:1015B0000B9D08F01BFB0AAB46469C4612213200ED
:1015C0004846614406F0C0FB00234A46012093557B
:1015D000039B26602B608F239B009D44F0BCBB4681
:1015E000B246A946A046F0BD180000F02DFC5946B1
:1015F000164808F0FBFA0020EDE7059800F024FCFF
:1016000000233A0059460F4808F0F0FA039B0133D3
:10161000039323E7305B0110C4FDFFFF244B01104F
:101620002C5C0220CE620320784B0110904B0110FD
:10163000A84B0110044B011094600220D1620320DA
:10164000156F0110304B01105C4B01106C4B0110F9
:10165000F0B557464E464546DE46E0B504000E005E
:1016600017009846C5B0002850DD0123334A150005
:10167000136000F0E3FB2B688246002B4ED00A205B
:1016800000F0E2FB002302932D4B019300F0D6FB08
:10169000009000F095FB814600F092FB4B46002B3A
:1016A00046D0802828D0FF282AD004AB4A469B4643
:1016B00000251A70587000F083FB5B465B190135FA
:1016C0009870A945F7DC009B03935B465A78019B11
:1016D0001B789342DAD1029A013202929442D5D118
:1016E000039A504632603B705B4642461B7813605B
:1016F00000F0AAFB01200AE000F078FB00F096FB66
:101700004B46FF2B0ED0504600F09EFB002045B00C
:10171000F0BCBB46B246A946A046F0BD094808F059
:1017200065FAFEE7084B1868023800F08DFBEAE71F
:10173000504600F089FB04AB9B46C6E7946002204C
:10174000CE6203200C4B0110A460032030B585B09D
:1017500000F074FB6B469C1C21000290012000F0FD
:101760000BFB2278224C2348210008F03FFA21008D
:10177000214808F03BFA6A46204B0332186802A958
:1017800003ABFFF765FF029D002804D1280000F09D
:101790005BFB05B030BD2A002100194808F026FA8D
:1017A00001AC280000F050FB2100022000F0E4FA18
:1017B000144808F097F90221200000F065FB0A2088
:1017C00008F046F97F23627828001340637000F028
:1017D0003BFB2100022000F0A9FA0B4808F082F937
:1017E0002000022100F050FB0A2008F031F9CDE77B
:1017F000385B0110B84B0110C84B01102C5C022063
:10180000D84B0110E84B0110F44B0110F0B54746DE
:10181000CE4680B5154B85B099461C686B46144A78
:10182000DD1D90462B78134F134E04E042462B7873
:1018300012789A420DD0013C22003900300008F0A5
:10184000D5F92A00200003AB02A9FFF701FF002809
:10185000ECD1002C06D04B461C6005B0C0BCB9468C
:10186000B046F0BD054800F005FBF4E72C5C022013
:10187000CE620320485B0110784B0110044C01102C
:10188000F0B54746CE4680B5154B85B099461C68E5
:101890006B46144ADD1D90462B78134F134E04E01F
:1018A00042462B7812789A420DD00134220039003A
:1018B000300008F09BF92A00200003AB02A9FFF7D3
:1018C000C7FE0028ECD1002C06D04B461C6005B0AA
:1018D000C0BCB946B046F0BD054800F0CBFAF4E70D
:1018E0002C5C0220CE620320285B0110784B011093
:1018F000044C011070B584B06A46104B05000732E5
:10190000186802A903ABFFF7A3FE041E02D1200052
:1019100004B070BD0298023000F096FA039E2900D0
:10192000300000F029FA064808F0DCF82800310001
:1019300000F0AAFA0A2008F08BF8E8E72C5C0220F5
:10194000E84B0110014B18707047C046CE6203206F
:1019500010B5041E02D0034B1C6010BD024800F0FD
:1019600089FAF8E72C5C0220044C0110F0B5DE4641
:1019700057464E4645460123E0B5354CC7B00700F3
:1019800023608846914600F059FA23680190002BA5
:1019900050D00A2000F058FA00239B462D4B9A465F
:1019A00000F04CFA00F00CFA050000F009FA002DE6
:1019B00049D0802813D0FF2815D0002406AE7070BF
:1019C00000F0FEF9331901349870AC42F8DB52464E
:1019D000737812789B1A5A4253419B44E0E700F017
:1019E00005FA00F023FA1C4CFF2D27D000F026FA50
:1019F0000500002000F028FA03AB9A4619000A20DF
:101A000000F0BAF9280000F01FFA53465B7822680C
:101A10005B039B1A3B604B461A6043465A4601984B
:101A20001A6000F011FA47B0F0BCBB46B246A946B6
:101A3000A046F0BD094808F0D9F8FEE72068023852
:101A400000F002FAD2E7019800F0FEF906AEBEE718
:101A500094600220CE620320A46003200C4B01108E
:101A6000F0B5DE4657464E464546E0B5714C6F220E
:101A7000A54406AB0190009118000021994606F09C
:101A80005DF96D496D4808F0B1F86D4808F0AEF8A1
:101A900000206C4B0024185600F034F901226A4BE8
:101AA00062AE1A6000F0CAF9684B694F9B46012389
:101AB0009A46002398462200584622A908F096F834
:101AC00053464C44903C237000F0B8F900F078F98C
:101AD000050000F075F9002D00D19EE0802832D07D
:101AE000FF2834D000243570707000F069F9331984
:101AF00001349870A542F8DC01223378092BE3D138
:101B00007378812BE0D102A9C3238C465B00634428
:101B100019885B88C1201B040B43614640000918EB
:101B2000C225088861466D0049190988B47A0904FC
:101B3000014322912393882163465B184146197023
:101B4000012AB8D008E000F051F900F06FF93478BC
:101B5000FF2D5DD0092C56D0802502AB9C469024E9
:101B60006D423C4F654421002A5D3800013408F085
:101B70003DF8FF2CF7D1384808F038F800249123BD
:101B8000EA5C002A00D11C000133FF2BF8D1002CA5
:101B90004BD1324808F02AF8009B002B43D1E3B226
:101BA00000932F4D2100280008F020F80A2007F0AC
:101BB0004FFF2C4B02A83380C12384465B00634453
:101BC00001990822180006F0BFF8009B03AAB3721F
:101BD00005A904A8FFF7CAFE039800F035F9310003
:101BE0000B2000F0A3F82100280007F0FFFF0A20D7
:101BF00007F02EFFA3239B009D44F0BCBB46B246DA
:101C0000A946A046F0BD7378812BA5D100227AE7C2
:101C10003868023800F018F99CE7002000F014F949
:101C2000F622524269E71C00BBE721000E4807F08C
:101C3000DDFFB1E774FDFFFF405B0110144C0110A4
:101C40001C4C0110D162032094600220344C01101E
:101C5000A4600320484C0110544C0110604C01104A
:101C60009C4C01100981FFFF7C4C011070B50500F0
:101C70000C0084B0FE2900DDFE246E460A4B01AA4A
:101C80001B7802A903A873703470FFF76FFE0198E8
:101C900000F0DAF86946022000F048F82900200038
:101CA00000F044F804B070BDCE620320F0B5782493
:101CB0000470CC17E404E40C6118059CDBB2E6B2B6
:101CC000069CD2B2E5B2079C4571E7B287713F022C
:101CD000ED19F027FF01BC4624126544E4B2C4713B
:101CE0006419C37006711B1936029B19827049135F
:101CF0001202C9B29B184170C91889B20172090A4F
:101D00004172F0BDC3B210B5012B03D9044800F0F5
:101D1000B1F810BD0022034B1870034B1A60F8E7AE
:101D2000B44C0110D1620320A4600320F8B5040074
:101D30000F000C4E230032680B490C4807F056FF89
:101D40000B4A0C4B1278306852B25500AD18AD00FA
:101D50005B193A0021005B68984733681B193360B0
:101D6000F8BDC046A4600320505B0110BC4C0110BC
:101D7000D1620320F8240020F0B5C64600B5002843
:101D800014DD0C4B0C0098460B4F0C4D0E18002226
:101D9000BA56286853009B1842469B00D358421CF1
:101DA0002A60984720700134A642F0D180BCB84622
:101DB000F0BDC046F8240020D1620320A4600320B7
:101DC000002110B5064B074A59564B005B189B0083
:101DD0009A58054B1868411C1960904710BDC046C1
:101DE000D1620320F8240020A4600320002270B5F3
:101DF0000B4E0C4CB256206853000B4D9B189B00A9
:101E0000421C5B59226098470022B256206853005A
:101E10009B189B00421C5B592260984770BDC046CE
:101E2000D1620320A4600320F8240020024A136832
:101E30001B1813607047C046A4600320014B18684C
:101E40007047C046A4600320014B18607047C0462D
:101E5000A4600320002110B5044A054B51564A00E6
:101E6000521892009B189B68984710BDD1620320BE
:101E7000F824002010B5034B0100180007F0B6FE4F
:101E800010BDC046C84C0110F0B5DE4657464E4660
:101E90004546E0B5814695B00A20884607F0D8FD52
:101EA000002306AF3B704346002B4CD000240F2686
:101EB000264B0293264B9B46264B9A46264B039372
:101EC000264B019335002540264232D04B461D5DFE
:101ED0005846290007F08AFE534668225B5D93430B
:101EE00019D02A00019904A807F088FB01343800B2
:101EF00004A90BF0C5FA4445E4D13900029807F073
:101F000075FE0A2007F0A4FD15B0F0BCBB46B24632
:101F1000A946A046F0BD2E2304AA110038000134C2
:101F200013800BF0ADFA4445E7D03500254026423A
:101F3000CCD13900029807F059FE210003983D707A
:101F400007F054FEC2E7014B0293D6E7D84C0110CC
:101F5000E84C0110156F0110E04C0110F04C01101D
:101F6000014B1B68185C704714250020F0B5DE4655
:101F700057464E4645468024E0B5451E640016008F
:101F80006D18020AA31A2D0AED18FF230F00C5B021
:101F90000340984604AB94469946BA465A4B02927F
:101FA00019682200484661449B46002705F0CCFE94
:101FB0002D0AB2440194002D4AD054464246AA4606
:101FC000531CB4424BD8019A934254D055461C003E
:101FD000BD423DD980235B00984601E0BD4237D920
:101FE00001344445FAD1494807F000FEFEF7FAFBF8
:101FF000FA20800003F082FF454807F0F7FDEFF379
:10200000108A72B6434B3E021868029B22009C461F
:1020100060444946801912F087FC3F4807F0E6FD0E
:102020008AF31088FEF7EAFB3C4807F0DFFD44A97D
:10203000081B5946029A0B689119C91801372200EA
:10204000091905F081FEBD4202D90224BD42C7D85C
:1020500045B0F0BCBB46B246A946A046F0BD4846D6
:102060003178751C8154019A934205D0BA45EFD955
:102070001A002E00A4E73500244807F0B7FDFEF74C
:10208000B1FBFA20800003F039FF214807F0AEFDD4
:10209000EFF3108872B61F4B3A021868029B039246
:1020A0009C4660449446802260444946520012F0A7
:1020B0003BFC194807F09AFD88F31088FEF79EFB59
:1020C000164807F093FD029A5846944680220399D9
:1020D00003686144C918013101374846FF31520095
:1020E00005F032FEBA45B3D9B44207D9AC4208D99B
:1020F0004A462B78013513700123B9E75546002471
:1021000068E75546012465E714250020F44C0110CA
:10211000044D0110102500201C4D01102C4D011004
:10212000802330B5184C89B0226818491B03184821
:1021300007F05CFDFEF756FBFA20800003F0DEFEA0
:10214000EFF3108572B680212068090312F004FCB9
:1021500085F31088FEF752FB0E4B80219B6A05A881
:102160000293082301930D33009318220D3B0903BA
:10217000FFF79CFD0A2105AA0020FFF7F7FE06489D
:1021800007F034FD09B030BD10250020585B011068
:10219000404D011000400540604D011010B582B067
:1021A0006B46DC1D010023000122A32001F0E8FFA3
:1021B000207802B010BDC046080010B51300034AD5
:1021C00011680200A22001F0FBFF10BDA4600320F3
:1021D00010B584B001AB1900064A11CA11C11288AA
:1021E000A2200A8080220021520201F0E9FF04B0FF
:1021F00010BDC046684D011010B503F069F810BD60
:1022000010B503F065F810BDF0B54E464546DE4604
:102210005746E0B50C000500160083B07F2801D8B2
:102220001F2906D903B0F0BCBB46B246A946A0465A
:10223000F0BD7F2707223B1A9A46CB1713405B1845
:10224000DB105B4203339946802390464A469B4607
:1022500001AF3B70D03B13437B703A0002217820E2
:1022600000F0E2FA53465A4610210433DBB23A70CA
:102270001A090A437A705A46BA70713A1340FB70D1
:102280003A000421782000F0CFFA00F08FF978208E
:1022900000F0C8F9402000F0C5F94B46DB0153447B
:1022A0001F00154B9A46DB5D9946002E1CD0012E6F
:1022B00010D0F2B22100280001F038FF4846FEF7A6
:1022C0002DFBC0B200F0AEF953464A46DA5500F095
:1022D00089F9A7E74346320023409A4013004A4653
:1022E0001A43D3B29946E4E74346012223409A4079
:1022F0004B4693439946DCE7C0570220F8B5744B30
:102300001B68002B00D1F8BD03F0FEFE04000D0099
:1023100026002F006F4B18685968361A8F4130001D
:102320006D4E7268BA4239D26C4A00211C605D6001
:102330006B4B11601A6851424A411A60694A1B6826
:102340001568694A1068694A1168002B30D0002D61
:1023500073D18300664A5B189B009B58654C9A00BA
:10236000D218654B9D182E001C192643B60700D0C5
:1023700096E0624EB61A022E00D891E02E68604AAE
:1023800032435C4E9A55160A66701602360E120ECD
:10239000A670E27080242A79224349E0BA4202D131
:1023A00032688242C0D34D4A11680029ABD0BCE7E5
:1023B00083004F4A5B189B009A584F4B9400A41817
:1023C0001E19002D1BD037004A4D5D192F43BF0742
:1023D00038D14A4F3F1B022F34D93768484C3C4311
:1023E000444FDC55270A6F7027023F0E240EAF7052
:1023F000EC70802534792C43424D5C551FE03D4AFA
:102400009D1832002A43920733D13C4A121B022AFC
:102410002FD934683A4A2243364C1A55140A6C7044
:102420001402240EAC708024120EEA70327922431A
:10243000344C1A550222FF3201E080225200FEF78E
:10244000E3FA60E780251E5D6D422A4F2E43DE557C
:102450001C1966782C4F2E43DE55A6782B4F2E4341
:10246000DE55E67801372E43DE5524792C43E4B25D
:10247000C2E780221D5D52421E4E15439D551C1918
:102480006578214E15439D55A578204E15439D55E1
:10249000E578013615439D5524792243D2B2C7E72A
:1024A00080259C5C6D42134E2C439C559C18627891
:1024B000154E2A439A55A278144E2A439A55E2782B
:1024C00001362A439A5522792A43D2B2B0E7C04650
:1024D0005C540220C041022020250020305C0220F4
:1024E0006054022058540220182500206454022011
:1024F0007461032005050000E018002004050000B9
:1025000080808080090500000605000007050000A6
:1025100070B51D4E1D4D04003068296883001C4AAB
:102520005B189B009A58FEF76FFA0022194B1A604D
:10253000052C23D00CDD062C1AD0422C04D1164ACF
:10254000136859424B4113600122144B1A6070BD4D
:10255000032C07D0042CF7D12B68022BF4DC0133B9
:102560002B60F1E72B68002BEEDD013B2B60EBE7E6
:102570003368132BE8DC01333360E5E73368002B65
:10258000E2DD013B3360DFE71825002064540220C0
:10259000746103206054022058540220305C0220F1
:1025A000014B18607047C0462825002070B50124F3
:1025B00022000A4BD0251B682D069A400A206A6229
:1025C0000021AA6103F024FC054B0A201B680021AE
:1025D0009C406C62AC6103F01BFC70BD6C59011037
:1025E0006859011070B501252E000C4BD0241B68D2
:1025F00024069E400A2066620021A66103F008FCC2
:10260000074B0A201B6800219D40A56203F000FCD7
:10261000A6620A20002103F0FBFB70BD6C5901107B
:10262000685901100122F0B51700264BC6461B68F9
:10263000D0259F40244B04001B6808269A4000B513
:1026400090462D0616E043466B62AB610A200021DE
:1026500003F0DEFB0A200021AF6203F0D9FB640027
:102660006F620A200021AF61013E03F0D1FBE4B2AA
:10267000002E05D063B2002BE5DA4346AB62E5E7F6
:10268000D02443462406A3620A200021A76203F057
:10269000BFFB424663681A4211D043466468234038
:1026A0001C0063425C41D0231B065F620A209F61CD
:1026B000002103F0ADFB200080BCB846F0BD012432
:1026C000F1E7C046685901106C590110F0B54F464A
:1026D0004646D6460125C0B52F00224BD0241B68A4
:1026E00080469F40204B89461B6808269D4000235A
:1026F0009A462406A7620A20002103F089FB0021E4
:102700000A20A56203F084FB53465A0063680A203E
:102710003B40591E8B419A4665620021A561013EEE
:10272000924403F075FB002EE5D14B46002B16D0EA
:102730006762A761D0242406A5620A20002103F065
:1027400067FB65620A20A561002103F061FB434637
:1027500052461A70E0BCBA46B146A846F0BDA76220
:10276000E8E7C0466C59011068590110F0B5DE4623
:1027700057464E464546E0B517000122284BD02467
:102780001B6891469A40240683B0050062620A20C5
:10279000A2610E000021924603F03AFB4A46214B0B
:1027A0000A201B6800219A406262A261914603F0F0
:1027B0002FFB2800FFF736FF8346002814D0002E99
:1027C00010DD731E98466B460024DD1D4346191B21
:1027D0004B1E99412800FFF779FF2B783B550134B8
:1027E000A642F3D1D024240653460A206362002176
:1027F000A36103F00DFB4B460A20A362002103F006
:1028000007FB53460A200021A36203F001FB584650
:1028100003B0F0BCBB46B246A946A046F0BDC046D8
:102820006C59011068590110F8B5CE46474601268B
:1028300080B537001C4BD0241B6824069F4081467E
:102840000D000A2000216762A761904603F0E0FABC
:10285000164B0A201B6800219E406662A66103F0A9
:10286000D7FA4846FFF7DEFE002D07DD444665191E
:1028700020780134FFF7D6FEAC42F9D1D0242406EB
:1028800067620A20A761002103F0C2FAA6620A204B
:10289000002103F0BDFAA7620A20002103F0B8FA74
:1028A000C0BCB946B046F8BD6C590110685901105A
:1028B0007047C0460120034A13681968024B116033
:1028C0001860704780260020706002200122034BB0
:1028D0001A60034B034A1A607047C04670600220BA
:1028E00080260020D42500200122034B1A60034BD0
:1028F000034A1A607047C04670600220802600209C
:102900005C2500200122034B1A60034B034A1A6026
:102910007047C04670600220802600202C250020D1
:1029200000B5002391B0002200210020FEF7D6FA66
:102930000948FEF71DFB6846084B1E211A680092E5
:102940001B79002203710023FEF746FB0122044B92
:102950001A6011B000BDC046744D0110804D0110C9
:102960007060022000B591B00923092268460A4927
:1029700006F044FE0023002200210020FEF7AEFAFC
:102980006846FEF7F5FAFEF7BFFAFEF731F90122C5
:10299000024B1A6011B000BD884D0110706002201A
:1029A00010B5FEF7D3FA0023002200210020FEF725
:1029B00095FA0648FEF7DCFAFFF74CFA0120044AC4
:1029C00013681968034B1160186010BDA04D011009
:1029D000802600207060022070B501240F4D210078
:1029E0002868FEF7CDFB0300032804D0042806D096
:1029F000012BF4D170BD002CF1D0013CEFE7022C8B
:102A000003DC0134EBE70428F2D121002868FEF74B
:102A1000B7FB03000328F6D1EFE7C0467C26002071
:102A2000F0B5DE464E46574645460023E0B5CDB0EC
:102A300004AD2B70FEF78AFA584B00211A000020D3
:102A40009B46FEF7A1F82800FEF7ACF80022012310
:102A50009246534A534E9146534A33700192012B8A
:102A60002FD0022B00D184E0032B00D0FEE703AB74
:102A700098460CAF9020FEF765FF424639002800CB
:102A8000FEF7C8FC041E53D04C464849226848480B
:102A900007F0ACF8FEF75AFA5A4600210020FEF77C
:102AA00073F851463800FEF76BFBC3B20D2B05D807
:102AB000404B80001B589F46FEF748FE3378012BA1
:102AC000CFD10023002240212800FEF785FA0128FB
:102AD0003CD00D28F2D10223337003AB9846304C22
:102AE0000CAF1DE0FEF7CCFE3378B8E752465446F3
:102AF00002210020D20FA142424133789244AEE736
:102B000052465146D217521AD20F8A1A9246337839
:102B1000A5E72B78002B33D000232B7002333370C2
:102B2000254807F063F80123236002333370A1E7DF
:102B3000019807F05BF80123002233704021002345
:102B400028002C70FEF748FA0128C2D12B78002B00
:102B500014D000232B70FEF7F9F95A46002100200B
:102B6000FEF712F82A0000210520FEF70DF8337851
:102B700075E703AB4C4698460CAFD1E70F4B186096
:102B80000023002200210020FEF7A8F94DB0F0BC80
:102B9000BB46B246A946A046F0BDC046B04D0110A6
:102BA0002C5C0220D0620320E84D0110C45C0110AF
:102BB000D04D0110705B0110B84D01107060022003
:102BC00010B50B4807F012F832240420FDF7FEFB85
:102BD000012003F093F90420FDF706FC013C0120DD
:102BE00003F08CF9002CF0D1024806F0FFFF10BD75
:102BF000FC4D0110044E01107047C0467047C0469E
:102C00007047C0467047C04610B5FEF79FF90021D7
:102C10000020124AFDF736FF01210020104AFDF77F
:102C200031FF01230F4C236001200021404207F0B7
:102C30003DFBFFF763FB01F06FF9FEF703F801308E
:102C4000F2D0FDF7D5FF012802D0FFF761FCEBE7DA
:102C500000232360044B186010BDC046104E0110C5
:102C6000244E01105C5402207060022030B589B0FF
:102C7000FEF76CF900210020154AFDF785FF154D80
:102C800001200021404207F011FBFFF737FB01F064
:102C900043F9FDF7D7FF0130F2D0FDF7A9FF04009B
:102CA000020003002900009003A806F0A7FCE0B290
:102CB000FEF70CF8FDF7DEFF0121002003AAFDF767
:102CC000E1FE012CDCD1044B1C6009B030BDC046D4
:102CD000344E0110444E01107060022070B5094856
:102CE00006F084FF01221500074BD0241B68FA2050
:102CF0009D402406054BA56140001A6003F0FEF8D4
:102D0000A56170BD584E011050590110CC600320D0
:102D100030B589B000236C462370FEF717F91E4DBD
:102D200000202A000021FDF72FFF6846FDF73AFF3B
:102D300001200021404207F0B9FAFFF7DFFA01F065
:102D4000EBF80023002240212000FEF745F901287E
:102D50001AD00D28ECD19020FEF7F4FD20000AF0E7
:102D600053FC01002000FEF781FF00232370FEF7D3
:102D7000EDF82A0000210020FDF706FF22000021C7
:102D80000520FDF701FFD3E72378002BEDD1034B9E
:102D9000186009B030BDC046684E01107060022056
:102DA000F0B5DE46454657464E46E0B583B0FFF7E0
:102DB00027FA002500242000012229000134FFF712
:102DC00023FA792CF7D10A35282DF3D100250024D8
:102DD0002100012228000134FFF716FA1F2CF7D139
:102DE0000A35822DF3D1FA20C00003F087F8FFF7EF
:102DF00007FA00239B46009301339A46023B0122C7
:102E0000984601935B467D4E9D259146B3461F0033
:102E10007B4C6D00380000220099FFF7F5F9019F07
:102E2000504639000022FFF7EFF94946504600228C
:102E3000FFF7EAF9390040460022FFF7E5F9AB4415
:102E4000002249464046FFF7DFF96421584603F067
:102E50003FFC361907006421300003F039FC80463E
:102E6000010001223800FFF7CFF943467A1C924651
:102E70000093013B1900012250460193FFF7C4F96A
:102E8000009A50460132914601224946FFF7BCF9AB
:102E90007A1E9046019901224046FFF7B5F90122BA
:102EA00049464046FFF7B0F9564B9B453EDDE804E6
:102EB000401B8000401BC00040198001401B800067
:102EC000401B514903F004FCC82305001B019E422E
:102ED00056DDE004001B8000001BC000001900014B
:102EE000001BC00000194849400003F0F1FB454BAE
:102EF000C82604009B46360101200021404207F00D
:102F0000D5F9FFF7FBF901F007F8FDF79BFE01305B
:102F100080D0FDF76DFE012865D006285FD005281A
:102F20005FD0032800D075E7643473E7C8231B0122
:102F30009E423DDDE004001B8000001BC000001924
:102F40000001001BC00000192F49400003F0C0FB26
:102F5000962604007600B3454CDAE804401B800056
:102F6000401BC00040194001401B80004019264909
:102F7000400003F0ADFBB346C82605003601BBE7B1
:102F8000204B9B4696235B009E42B5DAE004001B73
:102F90008000001BC00000190001001BC0000019C8
:102FA0001949400003F094FB962604007600A3E73D
:102FB00096235B009B45E5DAE804401B8000401B3C
:102FC000C00040194001401B800040190E494000DC
:102FD00003F07EFB96235B0005009B46D2E7643539
:102FE00018E7643D16E703B0F0BCBB46B246A946FD
:102FF000A046F0BDC82636017EE7C0468813000013
:1030000041020000D430000010270000F0B5DE4679
:103010004E4657464546E0B5BB4895B006F0E6FD3E
:103020000A2006F015FDB94806F0E0FD0A2006F07A
:103030000FFDB74806F0DAFDB64806F0D7FDB648F2
:1030400006F0D4FDB54806F0D1FDB54CFFF7D8F831
:10305000B44B00260E930F940023B34C0C930D94A5
:103060000023B24C029303940523B14C0993B14B56
:1030700010931194002401200021404207F016F91A
:10308000FFF73CF900F048FF099B002B00DC9FE0B4
:1030900010981199A84B002203F0B9FD00230A9063
:1030A0000B91089312961394089803F027FE0C9E38
:1030B0000D9F32003B0004000D0003F081FD9F4A8C
:1030C000049005919E4B2000290003F0A0FD3B00D9
:1030D000320003F075FD002600230027994698462C
:1030E00034003D0006900791049A059B20002900BA
:1030F00003F066FD32003B0004000D0006980799BE
:1031000003F05EFD009001912000290003F0AEFE67
:1031100006000F000098019903F0A8FE02000B00C2
:103120003000390003F04CFD06000F00200029009C
:1031300003F086FE04000D000098019903F080FE64
:1031400002000B002000290003F03AFD040048466D
:103150000D0003F0D3FD0A9A0B9B03F0B9FD431E4B
:10316000984100228346774B2000290003F04FFD51
:103170000022754B03F04BFD0022734B03F020FD42
:1031800003F0D4FD824600226E4B3000390003F07C
:103190003EFD029A039B03F03AFD029A039B03F063
:1031A0000FFD03F0C3FD5A46514602F09FF801237C
:1031B0009C46089BE0449C46099BE144984593D17A
:1031C000634601330893642B00D06DE7129E139C75
:1031D00002F098F80C980D990E9A0F9B03F0F0FCF2
:1031E0000C900D91FDF72EFD013009D0FDF700FD8B
:1031F000012814D0062809D0052831D0032815D17C
:10320000002E00D137E7FEF7FBFF34E70298039961
:1032100002000B0003F0D4FC02900391F0E715B01C
:10322000F0BCBB46B246A946A046F0BD4E2804D12C
:10323000464806F0DBFC0024E2E748283AD0542850
:1032400033D02B283BD1012C21D0022C11D0099B4B
:10325000013319003E480993002406F0C7FCCFE76C
:10326000029803990022374B03F0D1FC029003919E
:10327000C6E7384A384B1098119903F0A1FC0200B8
:103280000B0036481092119306F0B0FCB8E70E9888
:103290000F99304A324B03F093FC0C9A0D9B0E9021
:1032A0000F91304806F0A2FCAAE72F4806F09EFCDA
:1032B0000124A5E72D4806F099FC0224A0E72D285B
:1032C0001BD1012C04D0022C10D0099B013BC0E77C
:1032D0000E980F991F4A224B03F069FC0C9A0D9B24
:1032E0000E900F911F4806F081FC89E7194A1A4B8E
:1032F0001098119903F05BFCC1E7202800D07FE70C
:1033000001235E407CE7C046704E0110904E0110D4
:10331000B44E0110F44E0110144F01102C4F011047
:103320009999993F9A99999900003440000050402A
:103330006666E63F6666666600407F409A4B2352AB
:10334000916305400000E03F00004040504F0110F5
:10335000744F01107B14AE47E17A943F844F011003
:10336000E17A743F7C4F0110684F01105C4F0110EF
:10337000012010B50021404206F098FFFEF7BEFF85
:1033800000F0CAFD10BDC046F0B5C646274F00B5D7
:103390003B68002B23D1FDF755FC013002D180BCE6
:1033A000B846F0BDFDF724FC214B1C68237B262B7F
:1033B000F5D022000021183206E00C3213000C3B3D
:1033C0001B780131262BEAD08342F6D14B005B18E3
:1033D0009B00E4186369984701233B60DFE7002303
:1033E0003B60FDF7B3FD124D2A68137B262B1AD0E4
:1033F000104B00240021984609198E00921910697B
:10340000FDF7DEFB2B6801349B191869FDF7CAFB39
:103410004046FDF7C7FB61002A680B199B00D318D3
:103420001B7B262BE8D193689847B4E77060022095
:10343000802600208C4F01100022044B1A60044BA0
:1034400001321A60034B044A1A6070476C60022014
:1034500070600220802600201026002010B5FFF7A3
:1034600093FF10BD70B594B0160005000C00FDF779
:103470006DFD002E17D00D4B2A001D001900684667
:1034800006F0BCF86A4600210020FDF77DFB220013
:103490002900684606F0B2F86A4601210020FDF7CF
:1034A00073FB14B070BD024BE6E7C046904F0110AD
:1034B000984F0110F0B595B0FDF748FD3A4C002249
:1034C0002100684606F09AF86A4600210020FDF7C0
:1034D0005BFB00272100012500240022684606F03E
:1034E0008DF86A4601210020FDF74EFB2F4E01208A
:1034F0000021404206F0DAFEFEF700FF00F00CFD6E
:10350000FDF7A0FB0130F2D0FDF772FBC3B2462BF2
:1035100004D88300F3589F4601235D402A003900F8
:103520002000FFF79FFFE2E7002D0DD03F0130386C
:1035300003E0002D0DD03F013738C71901223900B3
:103540002000FFF78FFFD2E7BB00DB195B003038AC
:10355000C718002239002000FFF784FFC7E7E71BE8
:103560002A0039000020FFF77DFF0024BFE7390063
:10357000200003F0ADF80700F2E700220C4B390001
:103580001A6020002A00FFF76DFF15B0F0BD6743F9
:10359000E6E73F19E4E738002A0000213C00FFF786
:1035A00061FF0027A3E7C046904F0110A85B011000
:1035B0005C5402200022014B1A607047A060032077
:1035C0007047C046064B1B6819003039392B01DDA6
:1035D000573B1900034A13681B010B4313607047E4
:1035E0004C600220A06003200122014B1A6070474A
:1035F000406002200021002010B502F053FFC046B9
:103600000021002010B502F04DFFC04610B50A2081
:1036100006F01EFA10BDC04610B5034B010018009D
:1036200006F0E4FA10BDC046C050011070B50A2083
:1036300006F00EFA074C084D2600FC366268216839
:1036400028000C3406F0D2FAB442F7D10A2006F072
:10365000FFF970BD84260020D450011070B50A20F7
:1036600006F0F6F90B4C0C4E2500A535FF356268C7
:1036700013782A2B03D03000217806F0B7FA0C34E7
:10368000AC42F4D1054806F0B1FA0A2006F0E0F9A0
:1036900070BDC04680270020E0500110EC500110A2
:1036A000F0B5DE464E46574645468022E0B52D4CE5
:1036B0000021A54410ABD200A32000F061FD0A2038
:1036C00006F0C6F9002302AE3370274B002498465B
:1036D000264B9946264B9B46264B9A460CE049467C
:1036E000684605F08BFF6946300009F0C9FE80236B
:1036F0000134DB009C4229D01F4BE5180F231F002B
:103700002740234209D0434668212A789B5C8B439B
:10371000E5D12E236A461380E5E73100584606F0CE
:1037200065FA21005046377006F060FA434668217A
:103730002A789B5C8B43ECD00C49684605F05EFF11
:103740006946300009F09CFE0134D5E70A2006F0F6
:103750007FF90A4B9D44F0BCBB46B246A946A04641
:10376000F0BDC046BCEFFFFF156F0110F04C01101B
:10377000D84C011010510110000018104410000026
:10378000F0B5DE4657464E464546E0B50A2093B0B2
:1037900006F05EF9002304AE33708023244F9B00B3
:1037A0003C68E3189C4239D2224B9946224B9846FA
:1037B000224B9B46224B0193224B9A4610E05146E6
:1037C0002A0002A805F01AFF02A9300009F058FEED
:1037D0008022920094463B6801346344A3421DD981
:1037E0000F231D00254023420ED02578484629008E
:1037F00006F0FCF9434668225B5D9343DFD12E233C
:1038000002AA11001380E0E73100584606F0EEF9F5
:1038100021000198357006F0E9F9E6E70A2006F084
:1038200017F913B0F0BCBB46B246A946A046F0BD9E
:10383000A0600320E84C0110156F0110D84C011056
:10384000E04C0110F04C011010B5034B034A1A6014
:10385000FFF796FF10BDC046A060032000001810BF
:1038600010B584B001AB1900074A11CA11C1108804
:1038700008809278A3208A70044A11680A2200F016
:103880009FFC04B010BDC04618510110A060032079
:1038900010B5044806F0AAF9FEF7DCFA024806F073
:1038A000A5F910BD24510110544C0110002110B590
:1038B000034B0448595606F099F9FEF7CBFA10BDB0
:1038C000D162032034510110002170B5214D8CB01C
:1038D00069562148413106F089F903AA02A901A8D5
:1038E000FEF744F8039A01991C4806F07FF96B46ED
:1038F0000021DC1C2300695604AA0120FDF710FDFD
:10390000002123000320695604AAFDF709FD0028C1
:1039100017D0134E2078FEF715F803AA02A901A8C4
:10392000FEF724F8029B227804A9300006F05EF925
:10393000002123000420695604AAFDF7F1FC0028A9
:10394000E8D100212300695604AA0220FDF7E8FC13
:103950000CB070BDD16203204451011058510110C8
:103960008051011010B5FFF7AFFF10BD70B51B21DE
:103970001D4806F03BF91D4806F0B4F81B211C4811
:1039800006F034F91B4C1C4D236828005A42534161
:10399000236006F02BF90A2006F05AF82368002B62
:1039A0001FD01649164806F021F90A2006F050F8F3
:1039B000144806F01BF9144806F018F9134806F0ED
:1039C00015F9134806F012F9124806F00FF90A200B
:1039D00006F03EF8280006F009F90A2006F038F84B
:1039E00070BD0D49DEE7C0464C4A0110A8510110D8
:1039F000B451011058610320BC5101109C510110B9
:103A0000E85101100052011014520110245201100B
:103A10003852011050520110A051011070B51B21F5
:103A20001F4806F0E3F81F4806F05CF81B211E480B
:103A300006F0DCF81D4C1E4D236828005A42534105
:103A40001C4A2360136859424B41136006F0CEF8BC
:103A50000A2005F0FDFF2368002B1FD016491748E8
:103A600006F0C4F80A2005F0F3FF154806F0BEF88A
:103A7000144806F0BBF8144806F0B8F8134806F0EE
:103A8000B5F8134806F0B2F80A2005F0E1FF280067
:103A900006F0ACF80A2005F0DBFF70BD0D49DEE74B
:103AA0004C4A0110A85101106852011058610320BE
:103AB000BC510110546103209C510110E8510110C8
:103AC00000520110145201102452011038520110FA
:103AD00050520110A051011010B590210148FDF77E
:103AE000BFFF10BD7452011010B500240A2005F06C
:103AF000AFFF074B1C57FEF7A1F9064B0200210050
:103B0000180006F073F80A2005F0A2FF10BDC046A9
:103B1000D16203207C520110F0B5C64600B51A4BA5
:103B200084B01968194806F061F8012008F0F0FE29
:103B3000174B0100180006F059F8164D00212A68AD
:103B40006B68154806F052F8144B01249846AA6891
:103B5000EB6803CD16001F00361A8F413000390084
:103B600002900391611E01910094210040460134AE
:103B700006F03CF8072CEAD10A2005F069FF04B0F2
:103B800080BCB846F0BDC0464C5402209C52011087
:103B9000B452011090450220C8520110DC520110AD
:103BA00010B50420FDF766F810BDC04600B587B01B
:103BB00001AA09F0B9FB002101A8FDF751FF07B0E8
:103BC00000BDC04600B583B001AA09F0ADFB019865
:103BD000C0B2FDF7B7FE03B000BDC04610B5044B40
:103BE0000448196806F002F8FDF7B0FD10BDC046A4
:103BF0002C5C02200453011000B5C3B002AB01AA33
:103C00000A4909F091FB019A02A9094805F0EEFF63
:103C10000198C0B2FDF796FE02A809F0F5FC01007C
:103C200002A8FEF723F843B000BDC04610530110B0
:103C30002053011000B5C3B06A4601AB074909F033
:103C400073FB074B07481A78074B196805F0CEFF3E
:103C500002A8FDF74FFE43B000BDC046405301101F
:103C6000CE620320485301102C5C022010B5FDF7F2
:103C700007FE10BD70B5D2B000236A46137202AAC7
:103C800009F052FB0B4E0C4D0AE03468FEF7D6F8F3
:103C90002100020012AB280005F0A8FFFDF7F0FD9F
:103CA00001AA12A902A8FDF7B5FB0028EDD152B078
:103CB00070BDC0462C5C02206C53011000B583B06F
:103CC00001AA09F031FB019840B2FEF71BF8002170
:103CD000034B0448595605F089FF03B000BDC046A8
:103CE000D16203208053011000B583B001AA09F00E
:103CF0001BFB0198FDF72CFE03B000BD10B5FDF7CE
:103D000085FD10BD002310B50B2488B00593013349
:103D100006931333079306AB05AA009307AB09F08C
:103D200003FB07986C44C0B22070FDF70BFE0598AA
:103D300040B2FDF7E7FF2200069804AB03A9FDF7A8
:103D400087FC002813D007990B4805F04FFF039913
:103D50000A4805F04BFF0499094805F047FF002188
:103D6000084B0948595605F041FF08B010BD0748F7
:103D700005F03CFFF9E7C04690530110A053011035
:103D8000B0530110D162032080530110C0530110C1
:103D90007047C04610B50A2005F05AFE10BDC04657
:103DA000394BF0B5DE469B4657464E464546002306
:103DB0005A46E0B589B01360344B354F9A46354BBF
:103DC000354C0393354B0493354B0593354B99464E
:103DD00007AB98463B005F469B46484653460499CE
:103DE00000680978039A49B21B6812784131009043
:103DF000059805F0FBFE434620221A80002323701D
:103E0000642005F0D9FD0500831CF9D00D2D10D0DC
:103E10001B2D0ED0280005F01BFE200009F0F4FB3E
:103E20008028EDD04346414620181D7009F0E4FB80
:103E3000E6E75E460025029703E001350C36152DB6
:103E40001DD03768380009F0DFFB21000200380080
:103E500009F03CFB0028F0D16B005B199B00029F2E
:103E60005B44596820009B6898473B68002BB4D09E
:103E700009B0F0BCBB46B246A946A046F0BD029FC1
:103E80003B68002BA9D0F3E7406002202C5C0220A5
:103E900084260020CE620320D0600320D16203205C
:103EA000D4530110A460032030B5174883B005F047
:103EB00019FE164805F09AFE20236A4693800023D7
:103EC000134D2B70642005F077FD0400831CF9D09E
:103ED0000D2C10D01B2C0ED0200005F0B9FD2800B1
:103EE00009F092FB8028EDD06B46281801A91C71BF
:103EF00009F082FBE6E700212800FDF7B1FD054847
:103F000005F074FE03B030BDF453011008540110E5
:103F1000D0600320544C011070B5694D00202C680E
:103F2000002C1AD005F048FD0400831C14D0654E07
:103F30003368012B40D0022B2BD0002B0CD11B2837
:103F40005BD0614D44B22C70013405D0FFF710FAFC
:103F50000023EB560133F9D170BD05F02DFD831C14
:103F6000FAD05A490B0003E001340C33232CF3D070
:103F70001A788242F8D1564B186063001B199B00D7
:103F8000C9188B689847534B5348196805F02EFEA3
:103F9000E2E7432868D019DC412851D042282FD1CC
:103FA0000423494D2B70FFF7E3F90023EB5601334F
:103FB000F9D100233360CFE76D284BD012DC1B28EA
:103FC00072D05B285AD102233360C5E7442817D149
:103FD00005233D4D2B70FFF7CBF90023EB56013342
:103FE000F9D1E6E76F2849D1374D2B70FFF7C0F9BB
:103FF0000023EB560133F9D1DBE701333360ABE744
:104000000023314D2B70013305D0FFF7B1F90023A8
:10401000EB560133F9D100232B70013305D0FFF7A4
:10402000A7F90023EB560133F9D164B22C700134A7
:10403000BFD0FFF79DF90023EB560133F9D1B8E764
:104040000323214D2B70FFF793F90023EB56013327
:10405000F9D1AEE702231C4D2B70FFF789F900233D
:10406000EB560133F9D1A4E70623174D2B70FFF768
:104070007FF90023EB560133F9D19AE70023124D63
:104080002B70013305D0FFF773F90023EB56013392
:10409000F9D164B22C7001348BD0FFF769F9002399
:1040A000EB560133F9D184E700231B210B482B6029
:1040B000336005F09BFD0A4805F098FD4CE7C046CB
:1040C0005861032064610320F4240020802700202D
:1040D0004C600220A0600320385401101C540110D1
:1040E00024540110F0B50D4C060024680D00170093
:1040F00083B0002C01D103B0F0BD1B21084805F0AE
:1041000075FD1B21B31CAA1C0097064805F06EFD27
:104110001B21054805F06AFDEDE7C0465861032004
:10412000384A011044540110484A011070B5104B30
:1041300006001B680D00140082B0002B01D102B0F4
:1041400070BD1B2163425C410A4805F04FFD1F23EF
:1041500064429C43403433001B21EA1D009406480E
:1041600005F044FD1B21054805F040FDE7E7C0468A
:1041700058610320384A011044540110484A011084
:10418000F0B5040083B00D4816001F000D0005F0C7
:104190002DFD0F20FEF704FAFE206B46204001AAF9
:1041A00002216DBA9D80FEF73FFB01231C433A00BC
:1041B0003100E0B2FEF7DAFA03B0F0BD4856011064
:1041C000F8B5070012480E0015001C0005F00EFDA2
:1041D0000F20FEF7E5F9FEF7E9F9FE203840FEF77B
:1041E00021FA3012C0B2FEF71DFAF0B2FEF71AFA49
:1041F000002D06DD651920780134FEF713FAAC4274
:10420000F9D1FEF7EFF9042001F078FEF8BDC046C1
:1042100048560110F0B54546DE4657464E46E0B5D5
:104220000400884685B0002A4AD12368002B00D0BC
:104230009847A369002B3CD0234B04349B46234B67
:104240009A46234B9946234B039307E0022B01D157
:1042500063699847E36A1834002B2AD0E06809F0B4
:10426000D3F95346276866680193A3683200C318E0
:1042700002333900009305005B464046FCF77CFAA8
:10428000E3683200009339004B464046FCF774FA6D
:10429000237C012BDAD16369E9191B683200009392
:1042A0004046039B02311834FCF766FA6369002B21
:1042B000D4D105B0F0BCBB46B246A946A046F0BD7D
:1042C0000800FCF787FAB0E760560110545101105E
:1042D00064560110B0520110F0B5C64600B588B062
:1042E0008C4602A998460B000E4C170024CC24C320
:1042F0001D000D4C45CC45C3227860461A700B4B0F
:104300000722019303F020FD29000C22380003F05E
:104310001BFD0322404601A903F016FD08B080BC36
:10432000B846F0BD6856011070560110312E3000AD
:10433000074B10B51B7804000120002B00D110BDE5
:1043400000233A220221200007F060FA0020F6E75D
:10435000CD62032080235B000B60DB181380704765
:10436000002B01D0002A01D001207047014B0132FF
:104370001A70F9E7CD620320180010B5FF2908D89C
:10438000054B49028918C918029A03F0DDFC02980E
:1043900010BD01204042FBE7242900200120704786
:1043A000F8B5CE464746994680B5FF2926D84D0236
:1043B000AD18A84613491448884405F017FC089B1B
:1043C000002B11D01E004C466827104D4E4402E0D1
:1043D0000134A64208D020782A5CBA43F8D00134D0
:1043E00005F036FBA642F6D149464046089A03F04E
:1043F000ABFC0898C0BCB946B046F8BD01204042AD
:10440000F8E7C0462429002080560110156F0110DE
:1044100010B500232022052107F0F8F901204042C1
:1044200010BDC04601210A00764B10B51B689A40AA
:104430001300754A1268914042B2002A00DACEE0B9
:10444000D02212069161D02212069361936193618A
:1044500093619361936193619361936193615361FC
:1044600053615361536153615361536153615361AC
:104470005361440600D5C2E09161D02212069361D7
:10448000936193619361936193619361936193618C
:10449000936153615361536153615361536153613C
:1044A000536153615361840600D5A6E09161D02227
:1044B0001206936193619361936193619361936138
:1044C000936193619361536153615361536153618C
:1044D00053615361536153615361C40600D58AE04F
:1044E0009161D0221206936193619361936193610C
:1044F00093619361936193619361536153615361DC
:1045000053615361536153615361536153610407B4
:1045100000D56EE09161D0221206936193619361A0
:10452000936193619361936193619361936153612B
:1045300053615361536153615361536153615361DB
:104540005361440753D49161D022800112069361D4
:10455000C4B2936193619361936193619361936139
:10456000936193615361536153615361536153612B
:104570005361536153615361000636D49161D02277
:104580001206936193619361936193619361936167
:1045900093619361936153615361536153615361BB
:1045A0005361536153615361536164061BD491613C
:1045B000D022120693619361936193619361936139
:1045C000936193619361936153615361536153614B
:1045D00053615361536153615361536110BDD022E4
:1045E000120651612FE75161E2E75161C7E751615E
:1045F000AAE751618FE7516173E7516157E7516154
:104600003BE7C046685901106C59011070B501268E
:1046100032003500464BD0241B6824069A40454B97
:1046200062611B68AE209D40434B65611B689E40E4
:104630006661A661A561FFF7F5FE6561D520A661FB
:10464000A561FFF7EFFE65618020A661A561FFF718
:10465000E9FE6561A820A661A561FFF7E3FE65613B
:104660003F20A661A561FFF7DDFE6561D320A6614D
:10467000A561FFF7D7FE65610020A661A561FFF780
:10468000D1FE65614020A661A561FFF7CBFE6561A3
:10469000A620A661A561FFF7C5FE6561A420A661FD
:1046A000A561FFF7BFFE6561A120A661A561FFF7C7
:1046B000B9FE6561C820A661A561FFF7B3FE65611B
:1046C000DA20A661A561FFF7ADFE65611220A66143
:1046D000A561FFF7A7FE65618120A661A561FFF7CF
:1046E000A1FE65618F20A661A561FFF79BFE656154
:1046F000D920A661A561FFF795FE65612520A66119
:10470000A561FFF78FFE6561DB20A661A561FFF75C
:1047100089FE65613420A661A561FFF783FE6561AE
:10472000AF20A661A561FFF77DFE656170BDC04643
:10473000645901105C59011060590110802210B5B4
:1047400000210248D20003F0F9FA10BD0C500220FB
:1047500070B5802811DC40290FDC0724CB172340DB
:104760005B18DB10DB0118180123064E0C40A34038
:10477000355C002A02D01D43355470BD9D4335542D
:10478000FBE7C0460C500220F0B5454657464E4662
:10479000DE46E0B5050085B01E00203A0EAB0C00E9
:1047A0001F78BE48D3B20A002900984605F01EFAC9
:1047B000002E00D149E143460C2E00D15CE2B84AFC
:1047C0001B019B18029300239C467B1E9F417B424A
:1047D0000393B44B22009846634600950193FCE096
:1047E0000098802800D937E1402A12D80500072711
:1047F000A946D0101740C0014844B94601274D468C
:10480000AF404546BA462D5C2F005546AF4345465E
:104810002F54664500D10DE1580600D544E1901CA7
:10482000C0B28446001B8146402900DD20E2009D85
:10483000C810AA4607252F000F400121B940C0012A
:1048400050448A4641465546095CA9434546295489
:10485000B14500D1EEE0990600D543E1D01CC0B2CD
:10486000011B89466146402914DC009D6746AA4623
:1048700007252F40BC46063D2F006546AF40C910B6
:104880004546C9015144BA466D5C2F005546AF43B9
:1048900045466F544E4500D1CCE0D90600D549E1DC
:1048A000111DC9B28C46091B8946402810DC009DA9
:1048B000C110AA4607252F0007400120B840C901B2
:1048C0005144824640465546405CA843454668549C
:1048D000B14500D1AEE0190700D549E1501DC0B285
:1048E000011B89466146402914DC009D6746AA46A3
:1048F00007252F40BC46063D2F006546AF40C91036
:104900004546C9015144BA466D5C2F005546AF4338
:1049100045466F54B14500D18CE0590700D54FE1B1
:10492000911DC9B28C46091B8946402810DC009DA8
:10493000C110AA4607252F0007400120B840C90131
:104940005144824640465546405CA843454668541B
:10495000B1456FD0990700D550E1D01DC0B2011B01
:104960008A466146402916DCC910C901894600996A
:10497000072567468B462F40D944BB46063D2F008E
:104980005D46AF404D46BC4646494D5D2F006546ED
:10499000AF434D464F5556454CD0DB0700D556E149
:1049A00040280FDC07252F00C11007400120009B85
:1049B000B8409C46C901614484466546394B585C01
:1049C000A84358540832D2B2131BB34232D0019BD1
:1049D00001330193DBB29E4237D9029B0199585CA7
:1049E000039B511C5840C043C9B20F1BBC4643B285
:1049F000000600D4F4E6009880282DDC402A00DD73
:104A000007E70500A94607251540AA460125574690
:104A1000BD40D010C0014844A94645462D5CAA4679
:104A20004D4657463D43A94645464F462F54664599
:104A300000D0F1E6009D22000135EBB20093019B0E
:104A400001330193DBB29E42C7D805B0F0BCBB4630
:104A5000B246A946A046F0BD6645EBD0911CC9B24E
:104A6000091B8E42E6D0D11CC9B2091BB142E1D06C
:104A7000111DC9B2091BB142DCD0511DC9B2091BBD
:104A8000B142D7D0911DC9B2091BB142D2D0D31DBA
:104A9000DBB21B1BB34295D1CCE7C0469856011040
:104AA000D45C01100C500220901CC0B28446001B44
:104AB0008246402900DDF3E20725C810C001814687
:104AC000009829408346063D8D40D94429004D4633
:104AD0007148455D29434D464155B245AAD09906D6
:104AE00000D4BBE6D01CC0B2011B8A4661464029F7
:104AF0001ADCC910C9018946009907258B46D9449B
:104B0000AB4665465F463D40AB4601255F46BD402E
:104B1000AC464D4660494D5DAB4665465F463D43FC
:104B2000AC464D4667464F55B24500D182E7D9069F
:104B300000D4B5E6111DC9B28C46091B8A4640282F
:104B400010DC0725C110C9018946009928408B4611
:104B5000063D8540D94428004D464F494D5D2843C8
:104B60004D464855B24500D164E7190700D4B5E673
:104B7000501DC0B2011B8A46614640291ADCC9108B
:104B8000C9018946009907258B46D944AB4665463D
:104B90005F463D40AB4601255F46BD40AC464D46B5
:104BA0003D494D5DAB4665465F463D43AC464D468F
:104BB00067464F55B24500D13CE7590700D4AFE6F0
:104BC000911DC9B28C46091B8A46402810DC072576
:104BD000C110C9018946009928408B46063D854091
:104BE000D94428004D462C494D5D28434D46485533
:104BF000B24500D11EE7990700D4AEE6D01DC0B281
:104C0000011B8A466146402900DDC4E6C910C9017E
:104C10008946009907258B46D944AB4665465F46D1
:104C20003D40AB4601255F46BD40AC464D461A4966
:104C30004D5DAB4665465F463D43AC464D466746D7
:104C40004F55B24500D1F5E6DB0700D4A8E6402871
:104C500000DDB7E60725C11005400120009BA840F4
:104C60009C46C9010C4B61445D5C28435854A9E63D
:104C7000B04200D0EFE5DDE65B0043449B00984680
:104C8000064A002090447A1E97417A420192024AD5
:104C9000230094460090E0E00C500220C462011012
:104CA000802D00D907E1402B00D9FCE007201840F7
:104CB0008346DF10FF017F19029701205F46B8404D
:104CC0008246029F8D4EF05D5746B843029FF055D5
:104CD00048460C2800D1EAE0560600D510E19E1C9B
:104CE000F6B2301B8146402900DDC1E10720CF101C
:104CF0000840012181408A4661465046FF017F19E4
:104D0000C95D81436046C15549460C2900D1CEE0BA
:104D1000910600D510E1DF1CFFB2391B8946402EF9
:104D200000DDA9E10720F1103040012686406046F1
:104D3000B246C9014919465C50468643604646540E
:104D400049460C2900D1B2E0D10600D510E11E1D64
:104D5000F6B2311B8946402F00DD91E10720F910A2
:104D60003840012787406046BA46C9014919475C67
:104D7000504687436046475449460C2900D196E087
:104D8000110700D510E15F1DFFB2391B8946402E87
:104D900000DD79E10720F1103040012686406046B1
:104DA000B246C9014919465C50468643604646549E
:104DB00049460C297BD0510700D512E19E1DF6B261
:104DC000311B8946402F00DD62E10720F910384091
:104DD000012787406046BA46C9014919475C5046D9
:104DE00087436046475449460C2960D0910700D557
:104DF00013E1DF1DFFB2391B8946402E00DD4BE178
:104E00000720F1103040012686406046B246C901B5
:104E10004919465C504686436046465449460C292B
:104E200045D0D20700D514E1402F0BDC0721012625
:104E300039408E4061466046FA10D2015219895CB1
:104E4000B14381540833DBB21A1B0C2A2FD0009ACD
:104E5000013200920C2A00D1F7E542460099565CD7
:104E6000019A591C5640F643C9B20F1BB94672B29B
:104E7000360600D414E7802D1DDC402B13DC072000
:104E800018408346DF10FF017F19029701205F461B
:104E9000B8401A4E029F8246F05D834650465F46F8
:104EA0003843029FF05548460C2800D014E70135DE
:104EB0002300EDB2CBE749460C29F8D0991CC9B2C2
:104EC000091B0C29F3D0D91CC9B2091B0C29EED03F
:104ED000191DC9B2091B0C29E9D0591DC9B2091BFA
:104EE0000C29E4D0991DC9B2091B0C29DFD0DA1DA9
:104EF000D2B2121B0C2AA5D1D9E7C0460C50022011
:104F00009E1CF6B2301B8246402900DDCDE0072012
:104F1000CF10FF010140B94606388840A94401007E
:104F200048466E4F385C01434846395451460C2977
:104F3000BDD0910600D4EEE6DF1CFFB2391B8A46D5
:104F4000402E00DDB5E00720F110C901064089467A
:104F50000638B040A944060048466049085C06434C
:104F600048460E5451460C29A1D0D10600D4EEE695
:104F70001E1DF6B2311B8A46402F00DD9DE0072042
:104F8000F910C901074089460638B840A94407000E
:104F900048465249085C074348460F5451460C297D
:104FA00085D0110700D4EEE65F1DFFB2391B8A469B
:104FB000402E00DD85E00720F110C901064089463A
:104FC0000638B040A944060048464449085C0643F8
:104FD00048460E5451460C2900D168E7510700D4C9
:104FE000ECE69E1DF6B2311B8A46402F6DDC072091
:104FF000F910C901074089460638B840A94407009E
:1050000048463649085C074348460F5451460C2928
:1050100000D14CE7910700D4EBE6DF1DFFB2391B4E
:105020008A46402E55DC0720F110C901064089460A
:105030000638B040A944060048462849085C0643A3
:1050400048460E5451460C2900D130E7D20700D40F
:10505000EAE6402F00DDF5E60726F9103740063E68
:10506000BE401E4AC9014919575C3E435654E9E601
:105070000C2800D04CE61AE70C2900D064E616E7AD
:105080000C2900D07CE612E70C2900D093E60EE74D
:105090000C2900D0AAE60AE70C2900D0C1E606E7F1
:1050A000B04201D0FFF7D7FBC4E40C2800D02FE6B4
:1050B000FDE60C2900D047E6F9E60C2900D05FE6B2
:1050C000F5E60C2900D076E6F1E60C2900D08DE655
:1050D000EDE60C2900D0A4E6E9E6C0460C5002201B
:1050E000F0B5DE4657464E464546E0B587B00592D8
:1050F00010AA127804909346DA1DD21003925A46F1
:10510000002A45D0002B43D000228C460021914636
:10511000234A0C008027904619006346402B2DDC63
:105120006546EE10F5010195664607252E40063DC1
:10513000B540059BA2464B4400221C0004980295F2
:1051400004E00132D2B20130914216D0D308E65CBD
:1051500007233D0013401D413542F2D08028F0DC8A
:10516000019B029D1E1843469B5D01322B43454621
:10517000D2B2AB5501309142E8D1544601239A4650
:10518000039BD4449A460134E4B2D144A345C4D12C
:1051900007B0F0BCBB46B246A946A046F0BDC0462B
:1051A0000C500220F8B54746CE46012680B53700A0
:1051B0001B4BD0251B682D069F401A4B1B689E4039
:1051C000194B984600239946484644465038AF61EB
:1051D000C0B2AE61FFF726F96E610020AF61AE612B
:1051E000FFF720F96E611020AF61AE61FFF71AF989
:1051F000803C6E6120786F610134AE61FFF712F977
:105200006E614445F6D101239C467F33E1449846C4
:105210004B46A044082BD7D1C0BCB946B046F8BD18
:10522000605901105C5901108C50022000B50B48E8
:1052300083B004F057FCFFF7E9F9094804F052FC89
:10524000402300210020074A00934033FFF748FF26
:10525000FFF7A8FF002003B000BDC046AC56011008
:10526000B85601103867011010B50400054804F065
:10527000BDFC054B1C70022C00D010BDFFF7C6F919
:10528000FBE7C046C8560110CC620320F0B50E4FB4
:1052900004000D000D48397883B0160004F0A6FC18
:1052A0003B78022B01D003B0F0BD0C235D430123FA
:1052B0006000201840000093F2B2E9B2C0B20B3394
:1052C000FFF762FAEFE7C046CC620320D456011024
:1052D00010B5054B1B78022B00D010BDFFF72EFA3E
:1052E000FFF760FFF9E7C046CC62032010B5044B1E
:1052F0001B78022B00D010BDD2B2FFF729FAFAE7D3
:10530000CC62032010B5044B1B78022B00D010BDDB
:10531000FFF748FFFBE7C046CC620320074B800045
:10532000C3181B68C90092000A435A400C2313405B
:10533000034A9446604403607047C04604C001407D
:1053400004D001400123D02283401206936293616E
:10535000094A83009A1811684022514080320A405D
:105360000649C0008C4663441A60054B9C460523E1
:10537000604443607047C04604C0014004D001400F
:10538000004001408023DB051868000F7047C046CD
:105390000FB400B5084883B004F0A4FB049B002BB5
:1053A00007D005A91800019104F070F9034804F032
:1053B00099FB012004F082F9E0560110B051011070
:1053C00070B5EFF3108C72B60D4D2B68002BFCD02E
:1053D000BFF35F8F0724CB08C618C05C01230C40C5
:1053E000A3401C000440034207D118433070BFF3B0
:1053F0005F8F2C608CF3108870BD1000FFF7C8FF22
:105400002C0100D0F8B54746CE46884680B5EFF36C
:10541000108C72B61C4D2C68002CFCD0BFF35F8F33
:105420009A4222D807210126894602E0013293429E
:1054300018D34D4637001540AF40D4080119045D1C
:105440002742F3D110003C430C70BFF35F8F002262
:105450000D4B1A608CF3108800280EDBC0BCB946D7
:10546000B046F8BD01204042EFE7BFF35F8F002355
:105470002B608CF31088012040424346002BEDD076
:105480000898FFF785FFC0462C0100D0044A107829
:10549000431CDBB2172B00D9102313707047C04692
:1054A0002429022010B5064B064C82B0010000935F
:1054B00018221F232000FFF7A5FF02B010BDC04631
:1054C000F0560110105402200021044B044ABFF38F
:1054D0005F8F02C39342FAD17047C046000100D0EB
:1054E000800100D0054B064A1360064A13605360E2
:1054F0009360D360136153619361704780808080B3
:1055000000E400E004E400E01F2318401E3B834059
:10551000002905D0C021044A490053501360704748
:10552000802201498B50FAE700E100E0012282402D
:10553000034B1B6813405A1E9341D8B27047C046B4
:1055400000E100E070B50D00EFF3108672B60F4A6F
:105550001368002BFCD0BFF35F8F0D4B10309B689E
:1055600084001B590B4A934203D09D4201D000F0A6
:10557000BDFF074B9B681D51BFF35F8FBFF35F8F6C
:105580000022024B1A6086F3108870BD240100D0FF
:1055900000ED00E0CD010010F0B557464E46DE4666
:1055A0004546E0B585B0060000911700EFF3108B7B
:1055B00072B66A4A1368002BFCD0BFF35F8F0025D8
:1055C000674B5D579A46002D00DAA9E06B00654CE9
:1055D00001935B199B009846A146C1444B46524635
:1055E0009B7910361370604BB6009B6899590B1B62
:1055F0002F2B33D95D4B994200D0ACE0019B424642
:105600009C465B4B6544AD0063535A4B0232A21873
:10561000043B9B1A1B05584A5B0D651913436B80AD
:10562000564B0121AB80FF23AB71009BEF71AB6048
:105630004B460B4319004C4B9B689951BFF35F8F4E
:10564000BFF35F8F0022454B1A608BF3108805B0C3
:10565000F0BCBB46B246A946A046F0BD01200A00F8
:105660008243D3798C46BB4231D845461300444926
:105670001B1B5B415943090D3D4B63533D4B0235A9
:105680006519043B5B1B1B053B4D5B0D2B43AA4679
:105690004D466B800425AC465546E044131F4444F8
:1056A0001B1B1B055B0D1D434B46997100999D808B
:1056B00099604946DF71334B01431360BBE75800E3
:1056C000C01880002018C179B9422FD902000623E2
:1056D000D356002BF3DA02932B4B61460393131D31
:1056E0009A4604235B429C46E14450464B461B1AB3
:1056F0001B055B0D9C46204B9571984663464046C2
:1057000003439380019B5A199200039BA418A38022
:10571000029B1C4AA371009B2260E771A3608AE789
:1057200000F0E4FE002553465D574FE79088029352
:105730004005131D9A46031561469C464046D444D5
:10574000634604302018181AE0230005400D1B02A0
:1057500018430390C5E700F0C9FE4FE7240100D0CD
:10576000CF6203202829022000ED00E0CD010010C7
:1057700000A1FFFF5829022000E0FFFF01BDFFFF4D
:10578000AAAA00000148804701BD000070B50124AD
:105790000443EFF30581EFF3108C72B6214A1368CE
:1057A000002BFCD0BFF35F8F1F4B05001F4AED1A83
:1057B0006D416A43120D1E4D8900AE6852B2765893
:1057C000A6421CD00621595691421CD0122159568E
:1057D000914222D01E215956914220D02A21595659
:1057E0000324914210D0134B19781A708171BFF3C2
:1057F0005F8F00220B4B1A608CF3108870BDAB6872
:105800000D4C5C50EFE700246100091989005B181A
:10581000FF21997109499980E5E70124F4E7022401
:10582000F2E7C046240100D028290220AAAA0000DD
:1058300000ED00E0CF620320CD01001001BDFFFFAD
:10584000024B9C466144890001607047400000346F
:1058500070B5114C114DAC420FD2FF262368002BBE
:105860000CD0FFF713FE01002000FFF7E9FFA68030
:10587000BFF35F8F0834AC42F0D370BDFFF706FE74
:1058800001002000FFF7DCFF2671BFF35F8F0834B3
:10589000AC42E3D3F1E7C04690300220A0300220B2
:1058A00010B50400FFF7F2FD01002000FFF7C8FF6C
:1058B000FF232371BFF35F8F10BDC04610B50400F6
:1058C0000120FFF7EFFD034BC3189B002360BFF3DC
:1058D0005F8F10BD400000340A4B1968EFF3108051
:1058E00072B60A68002AFCD0BFF35F8F1B68BFF353
:1058F0005F8F00221A6080F3108840BF00200021D3
:105900007047C04668610320F0B5DE4657464E46F4
:105910004546E0B587B0EFF3058203230125134028
:105920009D409900B34AB44B54581D60B34B884610
:10593000A946049329E0A3881BB2002B00DBA5E055
:10594000A379002B00D0E6E00823E05E002800DA0F
:105950000FE1430062691B18DB00D3189E68DD6805
:10596000731C00D111E1A64B190041449A6A0B69DE
:10597000B01A9B1A984200D20E61A14800F0BCFBFD
:105980008D4200DDF5E000D12BE14B469C4843639E
:105990000823E55E002DCEDB62696B0092465B1941
:1059A000DB009A4453469E68DF6800F0A5FB8F42F7
:1059B000C1DC00D10BE1002F00DAF0E05246534683
:1059C00052691B699346049A934200D1E1E0524622
:1059D0000821605E5288000459461043984702909F
:1059E00003910299039A0B001000134300D1D6E0F3
:1059F00013000A00B61A9F41002806DB804800F019
:105A00007BFB029E039F36184F4153469E60DF602A
:105A100000229A5E002A8EDB530099186069C90043
:105A2000411801938B68C9689B46B94200DD82E743
:105A300002D1B34200D97EE708239C46A4440595D1
:105A400065462281A446019B2C0006E0530099186C
:105A5000C90041188D68C968AB469B18DB00C318A4
:105A6000B94206DC00D1C0E01C000023E25E002A3F
:105A7000ECDA230064469C4653461A806346059D33
:105A80001D80A3881BB2002B00DA59E72269EFF3CF
:105A9000108172B61368002BFCD0BFF35F8F012317
:105AA000A7885B42A3803FB22369BFF35F8F0022C8
:105AB0001A6081F31088002F00DA41E723000833D1
:105AC00022009A4666697B00DB19DB00F3189968AF
:105AD00050468C460824115FDD68002910DB0193D5
