:020000041000EA
:1000000000B5324B212058609868022188439860DF
:10001000D860186158612E4B002199600221596106
:100020000121F02299502B49196001219960352056
:1000300000F044F80222904214D00621196600F024
:1000400034F8196E01211966002018661A6600F04E
:100050002CF8196E196E196E052000F02FF8012189
:100060000842F9D1002199601B49196000215960AB
:100070001A491B48016001219960EB211966A021F2
:10008000196600F012F800219960164914480160C1
:100090000121996001BC002800D000471248134993
:1000A000086003C880F30888084703B5996A0420EC
:1000B0000142FBD001200142F8D103BD02B5186610
:1000C0001866FFF7F2FF186E186E02BD00000240BE
:1000D000000000180000070000035F00212200005C
:1000E000F4000018222000A00001001008ED00E03C
:1000F00000000000000000000000000074B24E7A12
:1001000000200420F7010010C3010010C5010010F9
:10011000C1010010C1010010C1010010C101001097
:10012000C1010010C1010010C1010010C701001081
:10013000C1010010C1010010C9010010CB01001065
:10014000CD010010CD010010CD010010CD01001037
:10015000CD010010CD010010CD010010CD01001027
:10016000CD010010CD010010CD010010CD01001017
:10017000CD010010CD010010CD010010CD01001007
:10018000CD010010CD010010CD010010CD010010F7
:10019000CD010010CD010010CD010010CD010010E7
:1001A000CD010010CD010010CD010010CD010010D7
:1001B000CD010010CD010010CD010010CD010010C7
:1001C00000BE00BE00BE00BE00BE00BEEFF3058054
:1001D000103800BEF2EB8871107A0110347A0110E9
:1001E0003802001090A31AE71E481F49086006C88D
:1001F00081F3088810471D480068002801D019487D
:10020000F3E70DA40ECC002902D000F012F8F9E7B4
:100210001749184A002000E001C19142FCD116495B
:100220008847164988471649884700BEFDE701C937
:1002300001C29A42FBD37047347A0110C0000020FB
:100240009030022004AA03100000042000000420C3
:1002500004AA031000100420001004200000000075
:10026000704700000000000008ED00E0000000D032
:1002700090300220C462032069980010C10400106D
:1002800029980010F8B5C0460448054B10B58342C4
:1002900003D0044B002B00D0984710BD90300220B3
:1002A000903002200000000006480749091A8B1010
:1002B000C90FC91810B5491003D0044B002B00D04A
:1002C000984710BD903002209030022000000000BE
:1002D00010B5074C2378002B09D1FFF7D5FF054B4C
:1002E000002B02D0044800E000BF0123237010BDA2
:1002F0001848022000000000384B0110054B10B5D3
:10030000002B03D00449054800E000BFFFF7CCFFF5
:1003100010BDC046000000001C480220384B0110F0
:100320007047C046D0238022F0B51B06120285B06C
:100330009A610023FA220093009B9200934205DA0F
:10034000009B01330093009B9342F9DB8023D02173
:100350008026FA2280271B02102500249C460906CD
:10036000F60492003F058E610394039B934205DAE5
:10037000039B01330393039B9342F9DB63461842CB
:1003800020D04F610194019B934205DA019B013318
:100390000193019B9342F9DB4E610294029B400062
:1003A000934205DA029B01330293029B9342F9DBED
:1003B000013D002DD7D1D02380221B0612025A61A5
:1003C00005B0F0BD8F61DDE77047C046054A10B546
:1003D000138803439BB21380108880B2FFF7A2FFFB
:1003E00010BDC046B4620320044B10B51A88824386
:1003F0001A80188880B2FFF795FF10BDB462032001
:1004000001238340F0B5CE4647469946D02380B5B8
:1004100017004A461B0685B09A610023FA22009312
:10042000009B9200934205DA009B01330093009BEE
:100430009342F9DB002F37DD01227B1E9A40802397
:10044000D0248026FA201B059446002500229846D9
:100450002406F6048000A6610192019B834205DA1E
:10046000019B01330193019B8342F9DB63461942EF
:1004700023D0434663610392039B834205DA039BC7
:1004800001330393039B8342F9DB66610292029B73
:100490004900834205DA029B01330293029B8342A7
:1004A000F9DB0135AF42D6D1D0234A461B065A614B
:1004B00005B0C0BCB946B046F0BD4346A361DAE71B
:1004C000F0B5DE4657464E464546E0B50B2083B0B4
:1004D00004F0D2FFD024802324061B01636207208E
:1004E000636104F0C9FF1B2004F0C6FF0F2004F075
:1004F000C3FF0E2004F0C0FF112004F0BDFF1A203E
:1005000004F0BAFF0C2004F0B7FF0D2004F0B4FF94
:10051000072004F0B1FF072004F0AEFF072004F02D
:10052000ABFF072004F0A8FF072004F0A5FF072079
:1005300004F0A2FF072004F09FFF072004F09CFFB7
:10054000072004F099FF01220021072004F080FF1A
:1005500001220021072004F07BFF01220021072057
:1005600004F076FF01220021072004F071FF012230
:100570000021072004F06CFF01220021072004F075
:1005800067FF01220021072004F062FF0021012201
:10059000072004F05DFF072004F06EFF072004F041
:1005A0006BFF072004F068FF062004F065FF0520BC
:1005B00004F062FF042004F05FFF032004F05CFFFE
:1005C000022004F059FF10250823042265620A2046
:1005D00063626262A261A361656105F029FD0A2080
:1005E000A56105F025FD002201210520656104F0CB
:1005F0002FFF01210620002204F02AFF4023802241
:100600006362203B6362120560336262A3626262CE
:100610008022120262628022D201626280229202F1
:10062000A2628022D204626280225201626280222F
:1006300092016262636263626362636262610CF090
:1006400007FA0BF065FE00F0E3F801F02BFE09F06D
:1006500049FAFA20C00005F0EBFC02F079FF022015
:1006600004F08EFE04F06EFE304805F0E1FC04F06C
:1006700099FE2F4B00259A462E4B2F4E99462F4B15
:100680002F4F9B462F4B0193FA23DB00984602F035
:10069000FBFE02F06FFF01200021404209F0A0FEA6
:1006A000AF2134688900200006F0ACF8002935D06D
:1006B000AF21013434603C688900200006F0A2F8C4
:1006C00000291CD00120013401353C6005F0B0FC4C
:1006D0004545DCD114240A20013C09F053FA002CD2
:1006E000F9D1FA25584609F01BFB019809F018FBCF
:1006F0000A2009F047FAED0003F03AF8C7E70122B3
:100700004846023103F012FE3B68012001330135F7
:100710003B6005F08DFC4545B9D1DBE70122504631
:10072000033103F003FE3468C2E7C046B80B000093
:10073000F8160020EC1700208C600320384B0110C5
:100740002C6002204C4B01100EB410B5B5B037AA86
:1007500002CA040002A801920CF0ACFE02A80CF040
:10076000EDFFE4B2020002A920000AF00DFD200016
:100770000AF0CCFC35B010BC08BC03B01847C0462A
:1007800008B4F0B50E0004001500B6B03BAB80CB4A
:100790001B220F4902360393FFF7D6FFAB1C200044
:1007A0001B220C490096FFF7CFFF039A390004A8DB
:1007B0000CF080FE200004A9FFF7C6FF1B222000DA
:1007C0000549FFF7C1FF36B0F0BC08BC01B01847BF
:1007D000704B0110744B0110804B011010B51B229F
:1007E0000149FFF7B1FF10BD844B01100122034BFB
:1007F0001A60034A1368002BFCD07047345402205F
:10080000385402200122014B1A60704730540220F4
:1008100010B502480CF0EAF810BDC0466D0100208A
:1008200000487047045C011000487047DC5A011012
:1008300030B583B0002807D1344B35484380063BA0
:10084000FF3B038003B030BD0A281BD803281BD010
:10085000304B8000C05830490123013804E0013397
:100860000A800231142B09D0C25C002AF7D1C022C1
:10087000DBB25B00920026481343E2E7CA23244818
:100880009B00DEE70020DDE76C46684609F06CFB64
:100890002178224B0A091E489A5C42800F2211409F
:1008A000595C818061780D0911405D5D595CC5809E
:1008B0000181A1780D0911405D5D595C45818181FF
:1008C000E1780D0911405D5D595CC5810182217996
:1008D0000D0911405D5D595C4582818261790D0988
:1008E00011405D5D595CC5820183A1790D091140FC
:1008F000595C5D5D81834583E1790C090A401C5D8B
:100900009B5CC4830384064B9BE7C046090400003C
:1009100088570220185C01108A5702208C4B011066
:10092000220300000222410003000A40411001207E
:10093000014011439A10490002400A43D910520065
:10094000014011431A11490002400A435911520053
:10095000014011439A11490002400A43DB11520041
:10096000184010437047C0460023094A09491360E4
:100970000B68581C032804DC00230860064A136037
:1009800070471321033B11605A425341F6E7C046BA
:10099000AC600320B0600320A860032070B516008F
:1009A0000C008300164A5B189B009E501549164A9E
:1009B000431C05000C601360142B13DC092E11D0AE
:1009C000132B16D00023114A280013602100F2B225
:1009D00003F014FC32002800210004F0F1FC04F0C4
:1009E0002BFD70BD00231360631C032B05DD132357
:1009F0001360E31E5A425341E5E70B60E2E7C0464D
:100A000064610320B0600320AC600320A860032071
:100A1000F8B505000C001600D7B23A0003F0EEFB63
:100A2000AB00164A1B199B009E501549154A6B1CBA
:100A30000C601360142B13DC092E11D0132B16D06D
:100A40000023114A2800136021003A0003F0D6FB6E
:100A500032002800210004F0B3FC04F0EDFCF8BDE6
:100A600000231360631C032B05DD13231360E31EB7
:100A70005A425341E5E70B60E2E7C0466461032058
:100A8000B0600320AC600320A8600320F0B54E46A0
:100A9000DE4645465746E0B51600364B83B0364C29
:100AA00018609846354B1960994613000A000100FA
:100AB000200009F035F93378002B43D043461C68F9
:100AC0002F4B01932F4B9B462F4B9A462F4B009356
:100AD0004346621C1A604B461D68A3003778019993
:100AE0005B199B00CF505B461D6053461A60142A69
:100AF00036DC092F34D0132A2ED00023009A200090
:100B0000136029003A0003F079FB20003A00290025
:100B100004F056FC04F090FC43461C68142C0DDDD8
:100B2000002119604B4603201B6800240133DA0FB3
:100B300098424A41524213404A4613607378013644
:100B4000002BC5D103B0F0BCBB46B246A946A046B7
:100B5000F0BD132352461360EB1E5A425341CDE7BA
:100B6000534600221A606B1C032BF2DC5A461360BA
:100B7000C3E7C04658540220E04B01105C540220E9
:100B800064610320B0600320AC600320A8600320F0
:100B900010B5FFF77BFF10BD0022024B1A60024B1D
:100BA0001A607047585402205C540220044B10B560
:100BB0001968044B02001868FFF768FF10BDC046B3
:100BC0005C5402205854022010B50CF0B7FD084BBD
:100BD0001A688018142807D90021064A196013687A
:100BE0000133032B01DD116010BD1360FCE7C0462B
:100BF000585402205C54022070B5114D114C124E15
:100C000002F042FC02F040FC2A6823689A42F7D0C6
:100C10002368F35CFF2BF3D02A6823689A420CD038
:100C20000F222368F05C236840B20133D917090F03
:100C30005B1813405B1A236070BD01204042FBE744
:100C4000786002207C6002206860022010B502F00B
:100C50001BFC074B1968074B1A68914205D01B68AB
:100C6000054AD05CC0B240B210BDFF20FBE7C046D1
:100C7000786002207C60022068600220F8B5114F85
:100C800005003E68C821701C05F0BCFD481C0C0026
:100C9000C82105F0B7FD0C4B1B6899420AD09C4255
:100CA00008D00A4B1A68AA4205D0094AB6009551E5
:100CB0003C601D60F8BD0020054AB600905126003A
:100CC0000C00F3E7605402206454022040600220CC
:100CD000685402207047C046F0B5DE4657464E467F
:100CE0004546E0B597B005AB98460F0004000100FB
:100CF00018000CF0B9FC0322774907F0BFF8424610
:100D000039000020FFF7C2FE40460CF017FD060038
:100D100020000CF013FD152E4DD8012399466F4B82
:100D2000002201936E4B93460293152383429B410D
:100D30009A4602F0A9FB4B465246134099465D463F
:100D400000242022AE4205DD3100280005F05AFDC6
:100D500043465A5C200039000134FFF71FFE01357D
:100D6000152CEED1FFF772FF013000D17EE0FFF7C6
:100D700043FF0199050004000200029808F0D0FF2B
:100D8000052D00D197E0062D08D0013561D1CB4467
:100D90005B46002B0ADA731E9B46CAE74B460133BB
:100DA00000D195E001239C469946E3445E45C0DCB2
:100DB00000239B46BDE700239B4601339A46474BE1
:100DC0000193474B0293152383429B41039302F007
:100DD0005BFB5346039A5D4613409A46002300246A
:100DE0009946B54214DB4B46310001334846009327
:100DF00005F008FD434620005A5C01343900FFF736
:100E0000CDFD0135152C11D0009B9946B542EADA8B
:100E10002800310005F0F6FC434620005A5C0134FE
:100E20003900FFF7BBFD0135152CDAD1FFF70EFFB6
:100E3000013020D0FFF7E0FE019905000400020018
:100E4000029808F06DFF052D2BD0062D1DD0013521
:100E500014D0424639000020FFF718FE200017B0DA
:100E6000F0BCBB46B246A946A046F0BDC82005F07E
:100E7000DFF8CB448CE7C82005F0DAF8D3445B46B2
:100E8000013309D1731E9B46A1E7534601331CD0A1
:100E900001239C469A46E344B34598DB00239B46D6
:100EA00095E75346013B5A1E93415A4292465A4691
:100EB000D31A9B46E3E74B46013B5A1E93415A42E5
:100EC00091465A46D31A9B4662E700239A46E3E7C7
:100ED000002399465CE7C046FC4B0110445C0110BE
:100EE000004C0110002105480160054801600548DB
:100EF000016005490A60054A13607047AC60032031
:100F0000B0600320A86003204C5402204854022003
:100F1000F0B5C6460C4D0D4E28680D4C3368804622
:100F200000B52768002B09D1390001E02868216845
:100F30002022FFF733FD3368002BF7D043462760AC
:100F40002B6080BCB846F0BDAC600320A8600320D5
:100F5000B060032070B50025002421002022280065
:100F60000134FFF71BFD042CF7D10135152DF3D10A
:100F7000FFF712FE70BDC046F0B5C64600B5027858
:100F80000700002A25D0144E144D05E00137FFF765
:100F900005FD3A78002A1CD033682C689846210059
:100FA0001800092AF2D12022FFF7F8FC2968A14293
:100FB00006D120223068FFF7F1FC2968A142F8D061
:100FC0004346013733602C60FFF7CEFC3A78002AA5
:100FD000E2D180BCB846F0BDAC600320B060032015
:100FE000F0B557464E464546DE46E0B587B000238D
:100FF0006A4600259382574B574E1F689946574BB8
:10100000574C1F60574BBB4601931B68B0469A462E
:1010100027002E00544900900B603000152105F088
:10102000F1FB30000D00152105F0ECFB4346AD004F
:101030002D18AD005B59BC1901362370542EECD12C
:101040005346580050443C00C1005F46091A002036
:101050006118C8550121454B454E19609B46454BCB
:10106000454898461F6053463360444B01601A0060
:10107000039302231370FFF76DFF2200002100206D
:10108000FFF704FD0098FFF777FFFFF741FF4B469E
:1010900042461B68136000221500019B1B683360E9
:1010A000002D07D0029807B0F0BCBB46B246A94657
:1010B000A046F0BD02F0E8F9FFF7C8FD0130F9D015
:1010C0000027FFF799FD01212D4B02001F602D4BDA
:1010D00002901960039B1B78022B10D02200002184
:1010E0000020FFF7D3FC0098FFF746FFFFF710FF43
:1010F0004B4642461B681360019B1B68CFE70828DC
:1011000017D00BDC012821D004280BD109236A4613
:10111000009805A913750CF04DFADFE70D2801D1F1
:101120000125DBE76B46009805A91A750CF042FA19
:10113000D4E7009A1378002BD0D0924610000CF020
:10114000FDFA52461318013B1F70C7E75B460125A5
:101150001F60C3E7AC600320646103200C5C0220C5
:10116000B85B0220B0600320105C02204C540220C7
:10117000545402201825002048540220F524002051
:1011800050540220205C0220F0B54746CE46202372
:1011900080B583B001AF40223B800023314E040074
:1011A000B3544032B3544032B3544032B35440325B
:1011B000B3544032B35440323370B354037888464A
:1011C000002B16D0002506E00135072D44DC63789E
:1011D0000134002B0DD01A00093A012AF4D9A801D4
:1011E0003900301801343B700CF0E4F92378002BFF
:1011F000F1D11D4808F010FD1C4B370035000024CC
:1012000099462A0021004846013408F089FD4035FE
:10121000082CF6D10A2008F0B5FC00243A00210081
:1012200000200134FFF732FC4037042CF6D143464E
:101230000F4C9B01F61802F027F941463000FFF7EA
:101240004BFDC3B20D2BF6D88300E3589F4603B085
:10125000C0BCB946B046F0BD0649074808F060FD7D
:10126000C7E7C046384302200C4C01101C4C01104B
:101270004C5C0110845C0110284C0110F8B506008C
:101280001C00012932D0032922D1244B1B68002BDA
:1012900032D00A2000F02EFE00F026FE070000F0FB
:1012A000E5FD050000F0E2FD002D30D0802815D0CE
:1012B000FF2817D0069BA61C1F60257060700024B5
:1012C00000F0D4FD30550134AC42F9DB0120F8BD0B
:1012D0000229E1D1006800F00DFEF7E700F0DCFD27
:1012E00000F0FAFDFF2D0BD00020F0E70B4B19604A
:1012F00000F0FAFD3060E9E7094808F011FDFEE76B
:10130000084B1868023800F0F5FD0020DFE7306870
:1013100000F0F0FDF6204042D9E7C046846002208C
:10132000444C011094600320F0B5CE46474680B58A
:101330009946C5B0431E0400904604AE012B4DD91A
:10134000032C35D000F0D0FD00F090FD070000F038
:101350008DFD002F56D0802832D0FF2834D00025B4
:101360003770707000F082FD731901359870AF42CC
:10137000F8DC01253378092BE2D17378812BDFD19A
:101380004B46002B02D04A46B37A13704346002BDB
:1013900008D0122108224046694406F06FFD002360
:1013A00042461372280045B0C0BCB946B046F0BDF5
:1013B000174B1B68002B1BD00A2000F09BFDC1E7D8
:1013C00000F06AFD00F088FD3478FF2F14D000256E
:1013D000092CE7D17378812BE4D1D1E702AB0A0065
:1013E00000930100330003A8FFF748FF0125D9E768
:1013F000084808F095FCFEE7074B1868023800F033
:1014000079FDE4E7F625002000F074FD6D42B1E7B8
:1014100084600220444C011094600320F0B5DE4645
:1014200057464E4645468946E0B57C4B7C4C1900F4
:10143000A54407007B4814009B4608F071FC7A4DD8
:101440000A942B680B950393784B04931B789A4668
:10145000774B0693774B0793774B0893774B029321
:101460004B460993039C534622005946069808F0C0
:1014700057FC002C00DCBEE00122714BB9461A601B
:1014800000F032FD00226F4E0300370003211600EA
:101490004EAC0CAD0022C9B2BA560DA80D93009502
:1014A0002300FFF7EBFE0D9B002800D1A0E004997C
:1014B00062780978914201D00421EBE70399013663
:1014C000B142F9D11800924626780C9D00F012FD29
:1014D00000F00AFD05902800B51C00F00BFD0EACD5
:1014E0002A005946079808F01BFC2100280000F04C
:1014F00099FC594608984F4608F012FC002E00D17E
:101500007FE0514B00259846682399464346B846EC
:101510001F0005E00800013508F034FBB5420BDA86
:101520004A462B1999787B5C9343F3D10298013595
:1015300008F0F6FBB542F3DB3B00474605989846BA
:1015400000F0D8FC33003A005946404808F0E8FB68
:101550006823994643460025B8461F0005E0080069
:10156000013508F00FFBB5420BDA4A462B19997882
:101570007B5C9343F3D10298013508F0D1FBB5426F
:10158000F3DB474638000CF0D9F8B04600250600DA
:1015900006E03B78002B0AD001350134454539DAA5
:1015A0003200390020000CF02BF80028F1D1099B03
:1015B0005946274899460A9C0B9D08F0B1FB0AAB97
:1015C00046469C46122132004846614406F056FCCD
:1015D00000234A4601209355039B26602B608F23EE
:1015E0009B009D44F0BCBB46B246A946A046F0BD58
:1015F000180000F07FFC5946164808F091FB0020C7
:10160000EDE7059800F076FC00233A0059460F48B4
:1016100008F086FB039B0133039323E79C5C0110D6
:10162000C4FDFFFF5C4C01101C5C0220BE62032065
:10163000B04C0110C84C0110E04C01103C4C0110A2
:1016400084600220C162032085700110684C011083
:10165000944C0110A44C0110F0B557464E46454637
:10166000DE46E0B504000E0017009846C5B000281D
:1016700050DD0123334A1500136000F035FC2B6860
:101680008246002B4ED00A2000F034FC0023029347
:101690002D4B019300F028FC009000F0E7FB814601
:1016A00000F0E4FB4B46002B46D0802828D0FF28D2
:1016B0002AD004AB4A469B4600251A70587000F0A9
:1016C000D5FB5B465B1901359870A945F7DC009B9B
:1016D00003935B465A78019B1B789342DAD1029AB6
:1016E000013202929442D5D1039A504632603B7047
:1016F0005B4642461B78136000F0FCFB01200AE0C9
:1017000000F0CAFB00F0E8FB4B46FF2B0ED0504622
:1017100000F0F0FB002045B0F0BCBB46B246A94645
:10172000A046F0BD094808F0FBFAFEE7084B186830
:10173000023800F0DFFBEAE7504600F0DBFB04ABC9
:101740009B46C6E784600220BE620320444C011021
:101750009460032030B585B000F0C6FB6B469C1C3E
:1017600021000290012000F05DFB2278224C2348EA
:10177000210008F0D5FA2100214808F0D1FA6A4684
:10178000204B0332186802A903ABFFF765FF029DE7
:10179000002804D1280000F0ADFB05B030BD2A00C0
:1017A0002100194808F0BCFA01AC280000F0A2FBA7
:1017B0002100022000F036FB144808F02DFA022127
:1017C000200000F0B7FB0A2008F0DCF97F236278E4
:1017D00028001340637000F08DFB2100022000F010
:1017E000FBFA0B4808F018FA2000022100F0A2FBD7
:1017F0000A2008F0C7F9CDE7A45C0110F04C0110F5
:10180000004D01101C5C0220104D0110204D0110F4
:101810002C4D0110F0B54746CE4680B5154B85B02E
:1018200099461C686B46144ADD1D90462B78134F71
:10183000134E04E042462B7812789A420DD0013CB8
:1018400022003900300008F06BFA2A00200003ABB8
:1018500002A9FFF701FF0028ECD1002C06D04B466F
:101860001C6005B0C0BCB946B046F0BD054800F0EC
:1018700057FBF4E71C5C0220BE620320B45C01103D
:10188000B04C01103C4D0110F0B54746CE4680B536
:10189000154B85B099461C686B46144ADD1D904671
:1018A0002B78134F134E04E042462B7812789A425D
:1018B0000DD0013422003900300008F031FA2A003E
:1018C000200003AB02A9FFF7C7FE0028ECD1002CD3
:1018D00006D04B461C6005B0C0BCB946B046F0BD52
:1018E000054800F01DFBF4E71C5C0220BE620320EB
:1018F000945C0110B04C01103C4D011070B584B0E7
:101900006A46104B05000732186802A903ABFFF7BF
:10191000A3FE041E02D1200004B070BD0298023064
:1019200000F0E8FA039E2900300000F07BFA064838
:1019300008F072F92800310000F0FCFA0A2008F0E3
:1019400021F9E8E71C5C0220204D0110014B1870C2
:101950007047C046BE62032010B5041E02D0034B80
:101960001C6010BD024800F0DBFAF8E71C5C0220A6
:101970003C4D0110F0B5DE4657464E464546012324
:10198000E0B5354CC7B0070023608846914600F0AB
:10199000ABFA23680190002B50D00A2000F0AAFA7D
:1019A00000239B462D4B9A4600F09EFA00F05EFA0B
:1019B000050000F05BFA002D49D0802813D0FF28E5
:1019C00015D0002406AE707000F050FA33190134BF
:1019D0009870AC42F8DB5246737812789B1A5A42E0
:1019E00053419B44E0E700F057FA00F075FA1C4CB5
:1019F000FF2D27D000F078FA0500002000F07AFAD9
:101A000003AB9A4619000A2000F00CFA280000F0F7
:101A100071FA53465B7822685B039B1A3B604B4626
:101A20001A6043465A4601981A6000F063FA47B0BC
:101A3000F0BCBB46B246A946A046F0BD094808F036
:101A40006FF9FEE72068023800F054FAD2E70198F7
:101A500000F050FA06AEBEE784600220BE620320AA
:101A600094600320444C0110F0B5DE4657464E46C4
:101A70004546E0B5714C6F22A54406AB019000913C
:101A800018000021994606F0F3F96D496D4808F0F9
:101A900047F96D4808F044F900206C4B00241856B3
:101AA00000F086F901226A4B62AE1A6000F01CFA5F
:101AB000684B694F9B4601239A46002398462200B3
:101AC000584622A908F02CF953464C44903C237008
:101AD00000F00AFA00F0CAF9050000F0C7F9002D7D
:101AE00000D19EE0802832D0FF2834D00024357009
:101AF000707000F0BBF9331901349870A542F8DC1E
:101B000001223378092BE3D17378812BE0D102A92C
:101B1000C3238C465B00634419885B88C1201B0487
:101B20000B43614640000918C225088861466D00D4
:101B300049190988B47A0904014322912393882121
:101B400063465B1841461970012AB8D008E000F0DE
:101B5000A3F900F0C1F93478FF2D5DD0092C56D0DF
:101B6000802502AB9C4690246D423C4F6544210089
:101B70002A5D3800013408F0D3F8FF2CF7D138483B
:101B800008F0CEF800249123EA5C002A00D11C0062
:101B90000133FF2BF8D1002C4BD1324808F0C0F8AC
:101BA000009B002B43D1E3B200932F4D210028006E
:101BB00008F0B6F80A2007F0E5FF2C4B02A83380A6
:101BC000C12384465B00634401990822180006F093
:101BD00055F9009B03AAB37205A904A8FFF7CAFE32
:101BE000039800F087F931000B2000F0F5F8210090
:101BF000280008F095F80A2007F0C4FFA3239B00F3
:101C00009D44F0BCBB46B246A946A046F0BD7378E1
:101C1000812BA5D100227AE73868023800F06AF9F2
:101C20009CE7002000F066F9F622524269E71C00AA
:101C3000BBE721000E4808F073F8B1E774FDFFFF21
:101C4000AC5C01104C4D0110544D0110C1620320D9
:101C5000846002206C4D011094600320804D0110BF
:101C60008C4D0110984D0110D44D01100981FFFFDA
:101C7000B44D011070B505000C0084B0FE2900DDE4
:101C8000FE246E460A4B01AA1B7802A903A87370B2
:101C90003470FFF76FFE019800F02CF969460220BE
:101CA00000F09AF82900200000F096F804B070BD0A
:101CB000BE620320F0B557464E46DE464546214BF0
:101CC000E0B51A682023C3B001AE33801300977AC1
:101CD0000B33FF2F29D01C4A93461C4A9246002200
:101CE00091461B4A90466A46494611725846390049
:101CF0001A785D1C08F014F8002F0ED000242B5D1C
:101D0000310002A833700BF055FC295D40460134C8
:101D100008F006F8A742F2DCED19504602A907F0D8
:101D2000FFFF2F786B1CFF2FDDD10A4807F0F8FF6B
:101D30000A2007F027FF43B0F0BCBB46B246A946D5
:101D4000A046F0BD14250020EC4D0110885601106E
:101D5000FC4D0110044E0110F0B578240470CC172E
:101D6000E404E40C6118059CDBB2E6B2069CD2B236
:101D7000E5B2079C4571E7B287713F02ED19F02784
:101D8000FF01BC4624126544E4B2C4716419C370F7
:101D900006711B1936029B19827049131202C9B2CF
:101DA0009B184170C91889B20172090A4172F0BDCD
:101DB000C3B210B5012B03D9044800F0B1F810BD2F
:101DC0000022034B1870034B1A60F8E7144E011001
:101DD000C162032094600320F8B504000F000C4E8C
:101DE000230032680B490C4807F09AFF0B4A0C4B52
:101DF0001278306852B25500AD18AD005B193A0048
:101E000021005B68984733681B193360F8BDC046F2
:101E100094600320BC5C01101C4E0110C1620320C1
:101E2000F8240020F0B5C64600B5002814DD0C4BA0
:101E30000C0098460B4F0C4D0E180022BA5628681D
:101E400053009B1842469B00D358421C2A60984777
:101E500020700134A642F0D180BCB846F0BDC04627
:101E6000F8240020C162032094600320002110B5F3
:101E7000064B074A59564B005B189B009A58054B76
:101E80001868411C1960904710BDC046C16203200C
:101E9000F824002094600320002270B50B4E0C4CF7
:101EA000B256206853000B4D9B189B00421C5B5997
:101EB000226098470022B256206853009B189B006E
:101EC000421C5B592260984770BDC046C162032026
:101ED00094600320F8240020024A13681B18136042
:101EE0007047C04694600320014B18687047C04695
:101EF00094600320014B18607047C0469460032033
:101F0000002110B5044A054B51564A005218920060
:101F10009B189B68984710BDC1620320F8240020DD
:101F200010B5034B0100180007F0FAFE10BDC046C3
:101F3000284E0110F0B5DE4657464E464546E0B500
:101F4000814695B00A20884607F01CFE002306AFA4
:101F50003B704346002B4CD000240F26264B0293A7
:101F6000264B9B46264B9A46264B0393264B0193C2
:101F700035002540264232D04B461D5D584629008B
:101F800007F0CEFE534668225B5D934319D02A00CA
:101F9000019904A807F0CCFB0134380004A90BF028
:101FA00009FB4445E4D13900029807F0B9FE0A2044
:101FB00007F0E8FD15B0F0BCBB46B246A946A04606
:101FC000F0BD2E2304AA11003800013413800BF059
:101FD000F1FA4445E7D0350025402642CCD13900FE
:101FE000029807F09DFE210003983D7007F098FECF
:101FF000C2E7014B0293D6E7384E0110FC4D0110A9
:1020000085700110404E0110484E0110014B1B68B5
:10201000185C704714250020F0B5DE4657464E4642
:1020200045468024E0B5451E640016006D18020A7E
:10203000A31A2D0AED18FF230F00C5B003409846E0
:1020400004AB94469946BA465A4B0292196822004C
:10205000484661449B46002705F010FF2D0AB24414
:102060000194002D4AD054464246AA46531CB4421D
:102070004BD8019A934254D055461C00BD423DD9DD
:1020800080235B00984601E0BD4237D901344445C6
:10209000FAD1494807F044FEFEF7A8FBFA20800079
:1020A00003F0C6FF454807F03BFEEFF3108A72B617
:1020B000434B3E021868029B22009C4660444946FE
:1020C000801912F0D5FC3F4807F02AFE8AF31088E9
:1020D000FEF798FB3C4807F023FE44A9081B59462D
:1020E000029A0B689119C91801372200091905F0E5
:1020F000C5FEBD4202D90224BD42C7D845B0F0BCDE
:10210000BB46B246A946A046F0BD48463178751C8C
:102110008154019A934205D0BA45EFD91A002E0096
:10212000A4E73500244807F0FBFDFEF75FFBFA202B
:10213000800003F07DFF214807F0F2FDEFF31088E7
:1021400072B61F4B3A021868029B03929C46604489
:102150009446802260444946520012F089FC194896
:1021600007F0DEFD88F31088FEF74CFB164807F0F9
:10217000D7FD029A58469446802203990368614429
:10218000C918013101374846FF31520005F076FE8B
:10219000BA45B3D9B44207D9AC4208D94A462B78DC
:1021A000013513700123B9E75546002468E7554609
:1021B000012465E7142500204C4E01105C4E0110EF
:1021C00010250020744E0110844E0110802330B57C
:1021D000184C89B0226818491B03184807F0A0FD65
:1021E000FEF704FBFA20800003F022FFEFF31085D6
:1021F00072B680212068090312F04AFC85F310882A
:10220000FEF700FB0E4B80219B6A05A80293082372
:1022100001930D33009318220D3B0903FFF79CFD3A
:102220000A2105AA0020FFF7F7FE064807F078FD0F
:1022300009B030BD10250020C45C0110984E01107B
:1022400000400540B84E011010B582B06B46DC1D51
:10225000010023000122A32002F01EF8207802B022
:1022600010BDC046080010B51300034A11680200F3
:10227000A22002F031F810BD9460032010B584B0A4
:1022800001AB1900064A11CA11C11288A2200A80A6
:1022900080220021520202F01FF804B010BDC04697
:1022A000C04E011010B503F0ADF810BD10B503F02D
:1022B000A9F810BDF0B54E464546DE465746E0B596
:1022C0000C000500160083B07F2801D81F2906D90D
:1022D00003B0F0BCBB46B246A946A046F0BD7F277E
:1022E00007223B1A9A46CB1713405B18DB105B4260
:1022F00003339946802390464A469B4601AF3B7084
:10230000D03B13437B703A000221782000F0E2FAC0
:1023100053465A4610210433DBB23A701A090A4375
:102320007A705A46BA70713A1340FB703A00042131
:10233000782000F0CFFA00F08FF9782000F0C8F98B
:10234000402000F0C5F94B46DB0153441F00154BFC
:102350009A46DB5D9946002E1CD0012E10D0F2B2B9
:102360002100280001F06EFF4846FEF7DBFAC0B2FC
:1023700000F0AEF953464A46DA5500F089F9A7E76E
:102380004346320023409A4013004A461A43D3B2D0
:102390009946E4E74346012223409A404B46934343
:1023A0009946DCE7B0570220F8B5744B1B68002B48
:1023B00000D1F8BD03F042FF04000D0026002F00FD
:1023C0006F4B18685968361A8F4130006D4E72682D
:1023D000BA4239D26C4A00211C605D606B4B1160BF
:1023E0001A6851424A411A60694A1B681568694A6D
:1023F0001068694A1168002B30D0002D73D183001A
:10240000664A5B189B009B58654C9A00D218654B36
:102410009D182E001C192643B60700D096E0624E88
:10242000B61A022E00D891E02E68604A32435C4E04
:102430009A55160A66701602360E120EA670E270D3
:1024400080242A79224349E0BA4202D1326882428A
:10245000C0D34D4A11680029ABD0BCE783004F4A76
:102460005B189B009A584F4B9400A4181E19002D1E
:102470001BD037004A4D5D192F43BF0738D14A4F53
:102480003F1B022F34D93768484C3C43444FDC553E
:10249000270A6F7027023F0E240EAF70EC70802564
:1024A00034792C43424D5C551FE03D4A9D18320063
:1024B0002A43920733D13C4A121B022A2FD934688F
:1024C0003A4A2243364C1A55140A6C701402240EF0
:1024D000AC708024120EEA7032792243344C1A55C3
:1024E0000222FF3201E080225200FEF791FA60E7FB
:1024F00080251E5D6D422A4F2E43DE551C196678DD
:102500002C4F2E43DE55A6782B4F2E43DE55E67812
:1025100001372E43DE5524792C43E4B2C2E78022F2
:102520001D5D52421E4E15439D551C196578214E66
:1025300015439D55A578204E15439D55E5780136E8
:1025400015439D5524792243D2B2C7E780259C5C70
:102550006D42134E2C439C559C186278154E2A43AD
:102560009A55A278144E2A439A55E27801362A43A6
:102570009A5522792A43D2B2B0E7C0464C54022081
:10258000B041022020250020205C0220505402206F
:10259000485402201825002054540220646103206E
:1025A00005050000E0180020040500008080808000
:1025B00009050000060500000705000070B51D4E66
:1025C0001D4D04003068296883001C4A5B189B007D
:1025D0009A58FEF71DFA0022194B1A60052C23D0D9
:1025E0000CDD062C1AD0422C04D1164A136859422D
:1025F0004B4113600122144B1A6070BD032C07D0AD
:10260000042CF7D12B68022BF4DC01332B60F1E7AB
:102610002B68002BEEDD013B2B60EBE73368132BBF
:10262000E8DC01333360E5E73368002BE2DD013B92
:102630003360DFE718250020545402206461032032
:102640005054022048540220205C0220014B1860A4
:102650007047C0462825002070B5012422000A4B8F
:10266000D0251B682D069A400A206A620021AA61C3
:1026700003F068FC054B0A201B6800219C406C623B
:10268000AC6103F05FFC70BDD85A0110D45A011040
:1026900070B501252E000C4BD0241B6824069E40EB
:1026A0000A2066620021A66103F04CFC074B0A2059
:1026B0001B6800219D40A56203F044FCA6620A202D
:1026C000002103F03FFC70BDD85A0110D45A01100C
:1026D0000122F0B51700264BC6461B68D0259F4047
:1026E000244B04001B6808269A4000B590462D062E
:1026F00016E043466B62AB610A20002103F022FC26
:102700000A200021AF6203F01DFC64006F620A2002
:102710000021AF61013E03F015FCE4B2002E05D0AC
:1027200063B2002BE5DA4346AB62E5E7D0244346CB
:102730002406A3620A200021A76203F003FC42469C
:1027400063681A4211D04346646823401C00634208
:102750005C41D0231B065F620A209F61002103F0C9
:10276000F1FB200080BCB846F0BD0124F1E7C04673
:10277000D45A0110D85A0110F0B54F464646D646F5
:102780000125C0B52F00224BD0241B6880469F40F6
:10279000204B89461B6808269D4000239A46240644
:1027A000A7620A20002103F0CDFB00210A20A562C8
:1027B00003F0C8FB53465A0063680A203B40591E89
:1027C0008B419A4665620021A561013E924403F067
:1027D000B9FB002EE5D14B46002B16D06762A761EE
:1027E000D0242406A5620A20002103F0ABFB656219
:1027F0000A20A561002103F0A5FB434652461A704A
:10280000E0BCBA46B146A846F0BDA762E8E7C046BC
:10281000D85A0110D45A0110F0B5DE4657464E463C
:102820004546E0B517000122284BD0241B6891468D
:102830009A40240683B0050062620A20A2610E005D
:102840000021924603F07EFB4A46214B0A201B687A
:1028500000219A406262A261914603F073FB280056
:10286000FFF736FF8346002814D0002E10DD731EBC
:1028700098466B460024DD1D4346191B4B1E9941AB
:102880002800FFF779FF2B783B550134A642F3D19E
:10289000D024240653460A2063620021A36103F07A
:1028A00051FB4B460A20A362002103F04BFB534629
:1028B0000A200021A36203F045FB584603B0F0BC98
:1028C000BB46B246A946A046F0BDC046D85A011044
:1028D000D45A0110F8B5CE464746012680B53700D8
:1028E0001C4BD0241B6824069F4081460D000A2003
:1028F00000216762A761904603F024FB164B0A2073
:102900001B6800219E406662A66103F01BFB4846DF
:10291000FFF7DEFE002D07DD4446651920780134FF
:10292000FFF7D6FEAC42F9D1D024240667620A2014
:10293000A761002103F006FBA6620A20002103F034
:1029400001FBA7620A20002103F0FCFAC0BCB946D3
:10295000B046F8BDD85A0110D45A01107047C0468D
:102960000120034A13681968024B11601860704710
:1029700080260020606002200122034B1A60034B76
:10298000034A1A607047C04660600220802600201B
:10299000D42500200122034B1A60034B034A1A601E
:1029A0007047C04660600220802600205C25002021
:1029B0000122034B1A60034B034A1A607047C0465A
:1029C00060600220802600202C25002000B5002316
:1029D00091B0002200210020FEF784FA0948FEF79A
:1029E000CBFA6846084B1E211A6800921B79002218
:1029F00003710023FEF7F4FA0122044B1A6011B0B0
:102A000000BDC046CC4E0110D84E011060600220BF
:102A100000B591B00923092268460A4906F088FEEC
:102A20000023002200210020FEF75CFA6846FEF732
:102A3000A3FAFEF76DFAFEF7DFF80122024B1A60E7
:102A400011B000BDE04E01106060022010B5FEF72D
:102A500081FA0023002200210020FEF743FA0648F5
:102A6000FEF78AFAFFF74CFA0120044A1368196846
:102A7000034B1160186010BDF84E01108026002035
:102A80006060022070B501240F4D21002868FEF718
:102A90007BFB0300032804D0042806D0012BF4D1CB
:102AA00070BD002CF1D0013CEFE7022C03DC0134B7
:102AB000EBE70428F2D121002868FEF765FB03004C
:102AC0000328F6D1EFE7C0467C260020F0B5DE46AD
:102AD0004E46574645460023E0B5CDB004AD2B70B9
:102AE000FEF738FA584B00211A0000209B46FEF7EB
:102AF0004FF82800FEF75AF8002201239246534A65
:102B0000534E9146534A33700192012B2FD0022B22
:102B100000D184E0032B00D0FEE703AB98460CAF56
:102B20009020FEF713FF424639002800FEF776FC9E
:102B3000041E53D04C4648492268484807F0F0F834
:102B4000FEF708FA5A4600210020FEF721F8514608
:102B50003800FEF719FBC3B20D2B05D8404B80009F
:102B60001B589F46FEF7F6FD3378012BCFD100238B
:102B7000002240212800FEF733FA01283CD00D281E
:102B8000F2D10223337003AB9846304C0CAF1DE0FA
:102B9000FEF77AFE3378B8E7524654460221002009
:102BA000D20FA142424133789244AEE75246514699
:102BB000D217521AD20F8A1A92463378A5E72B7889
:102BC000002B33D000232B7002333370254807F0DD
:102BD000A7F80123236002333370A1E7019807F0BF
:102BE0009FF80123002233704021002328002C701D
:102BF000FEF7F6F90128C2D12B78002B14D0002360
:102C00002B70FEF7A7F95A4600210020FDF7C0FF00
:102C10002A0000210520FDF7BBFF337875E703ABE1
:102C20004C4698460CAFD1E70F4B186000230022AA
:102C300000210020FEF756F94DB0F0BCBB46B2466D
:102C4000A946A046F0BDC046084F01101C5C0220FA
:102C5000C0620320404F0110305E0110284F011068
:102C6000DC5C0110104F01106060022010B50B48B1
:102C700007F056F832240420FDF7A8FB012003F0EA
:102C8000D7F90420FDF7B0FB013C012003F0D0F997
:102C9000002CF0D1024807F043F810BD544F01104A
:102CA0005C4F01107047C0467047C0467047C04631
:102CB0007047C04610B5FEF74DF900210020124ABA
:102CC000FDF7E4FE01210020104AFDF7DFFE01239D
:102CD0000F4C236001200021404207F081FBFFF7E9
:102CE00063FB01F0A5F9FDF7B1FF0130F2D0FDF76C
:102CF00083FF012802D0FFF761FCEBE7002323608C
:102D0000044B186010BDC046684F01107C4F011085
:102D10004C5402206060022030B589B0FEF71AF9E9
:102D200000210020154AFDF733FF154D0120002139
:102D3000404207F055FBFFF737FB01F079F9FDF74B
:102D400085FF0130F2D0FDF757FF040002000300B9
:102D50002900009003A806F0EBFCE0B2FDF7BAFFF3
:102D6000FDF78CFF0121002003AAFDF78FFE012C47
:102D7000DCD1044B1C6009B030BDC0468C4F011043
:102D80009C4F01106060022070B5094806F0C8FF32
:102D900001221500074BD0241B68FA209D40240611
:102DA000054BA56140001A6003F042F9A56170BDB2
:102DB000B04F0110BC5A0110BC60032030B589B07F
:102DC00000236C462370FEF7C5F81E4D00202A0034
:102DD0000021FDF7DDFE6846FDF7E8FE0120002139
:102DE000404207F0FDFAFFF7DFFA01F021F9002376
:102DF000002240212000FEF7F3F801281AD00D2808
:102E0000ECD19020FEF7A2FD20000AF097FC010013
:102E10002000FEF72FFF00232370FEF79BF82A0007
:102E200000210020FDF7B4FE220000210520FDF75F
:102E3000AFFED3E72378002BEDD1034B186009B028
:102E400030BDC046C04F011060600220F0B5DE46C4
:102E5000454657464E46E0B583B0FFF727FA0025B2
:102E600000242000012229000134FFF723FA792CE5
:102E7000F7D10A35282DF3D10025002421000122A5
:102E800028000134FFF716FA1F2CF7D10A35822DDE
:102E9000F3D1FA20C00003F0CBF8FFF707FA0023C4
:102EA0009B46009301339A46023B012298460193C8
:102EB0005B467D4E9D259146B3461F007B4C6D00C1
:102EC000380000220099FFF7F5F9019F50463900BC
:102ED0000022FFF7EFF9494650460022FFF7EAF9D2
:102EE000390040460022FFF7E5F9AB44002249468D
:102EF0004046FFF7DFF96421584603F083FC36199A
:102F000007006421300003F07DFC804601000122AF
:102F10003800FFF7CFF943467A1C92460093013BF5
:102F20001900012250460193FFF7C4F9009A504658
:102F30000132914601224946FFF7BCF97A1E9046BC
:102F4000019901224046FFF7B5F901224946404662
:102F5000FFF7B0F9564B9B453EDDE804401B80006F
:102F6000401BC00040198001401B8000401B51499C
:102F700003F048FCC82305001B019E4256DDE00417
:102F8000001B8000001BC00000190001001BC000D6
:102F900000194849400003F035FC454BC8260400A1
:102FA0009B46360101200021404207F019FAFFF745
:102FB000FBF901F03DF8FDF749FE013080D0FDF747
:102FC0001BFE012865D006285FD005285FD00328A6
:102FD00000D075E7643473E7C8231B019E423DDDD2
:102FE000E004001B8000001BC00000190001001B52
:102FF000C00000192F49400003F004FC962604008D
:103000007600B3454CDAE804401B8000401BC0004A
:1030100040194001401B800040192649400003F040
:10302000F1FBB346C82605003601BBE7204B9B46A3
:1030300096235B009E42B5DAE004001B8000001B73
:10304000C00000190001001BC00000191949400010
:1030500003F0D8FB962604007600A3E796235B00D6
:103060009B45E5DAE804401B8000401BC000401986
:103070004001401B800040190E49400003F0C2FB94
:1030800096235B0005009B46D2E7643518E7643D54
:1030900016E703B0F0BCBB46B246A946A046F0BD59
:1030A000C82636017EE7C0468813000041020000B2
:1030B000D430000010270000F0B5DE4645465746E4
:1030C0004E46E0B5C94893B006F02AFE0A2006F045
:1030D00059FDC74806F024FE0A2006F053FDC548F6
:1030E00006F01EFEC44806F01BFEC44806F018FE9B
:1030F000C34806F015FEC34CFFF7D8F8C24B0E9339
:103100000F94002398460023C04C0A930B9400238D
:10311000BF4C089309940523BE4C9B46BE4B0C93B1
:103120000D94002401200021404207F059F9FFF7D7
:103130003BF900F07DFF0A980B990022002303F071
:10314000D9FD0B00020006920793049205935B469B
:10315000002B00DCA4E000239A4643461094119310
:10316000AE4B00220C980D9903F0EBFD00230024D8
:103170009946984600232500009301941C00029074
:1031800003910698079922002B0003F0B3FD049ADF
:10319000059B04000D000098019903F0ABFD0600AB
:1031A0000F002000290003F0FBFE00900191300089
:1031B000390003F0F5FE02000B000098019903F0BE
:1031C00099FD009001912000290003F0D3FE040036
:1031D0000D003000390003F0CDFE02000B0020008E
:1031E000290003F087FD002204000D0000980199DA
:1031F0008B4B03F0A6FD089E099F32003B0003F0B5
:10320000A0FD32003B0003F075FD03F029FE002213
:103210000700834B2000290003F093FD0022814B1F
:1032200003F08FFD00227F4B03F064FD03F018FED6
:103230000600484603F0FCFD029A039B03F0E2FD02
:1032400002003100531E9A41380002F0E9F80123D0
:103250009C46E044D144D84593D1E2445346642B84
:103260001BD0504603F0E4FD0A9E0B9F02000B00AA
:1032700004000D003000390003F03CFD6A4A06905E
:1032800007916A4B2000290003F05BFD32003B00F0
:1032900003F030FD0490059162E7119B109C984665
:1032A00002F0CAF80E9A0F9B0A980B9903F022FDC0
:1032B0005F4A604B0A900B9103F0A4FD002807D0F1
:1032C0000A980B995A4A5B4B03F00BFD0A900B913D
:1032D000FDF7BCFC013009D0FDF78EFC012815D0AC
:1032E00006280AD0052832D0032816D14346002BE1
:1032F00000D117E7FEF7DAFF14E7089809990200F2
:103300000B0003F0F7FC08900991EFE713B0F0BC55
:10331000BB46B246A946A046F0BD4E2804D1464859
:1033200006F0FEFC0024E1E748283AD0542833D0C8
:103330002B283BD1012C21D00123022C10D09C46FC
:10334000E34459463D4806F0EBFC0024CEE70898DC
:1033500009990022324B03F0F4FC08900991C5E76B
:10336000374A384B0C980D9903F0C4FC02000B004F
:1033700035480C920D9306F0D3FCB7E70E980F99E1
:103380002F4A324B03F0B6FC0A9A0B9B0E900F911A
:103390002F4806F0C5FCA9E72E4806F0C1FC012421
:1033A000A4E72D4806F0BCFC02249FE72D2806D197
:1033B000012C55D0022C12D001235B42BFE72028FC
:1033C00004D1424601235A4090468FE7492800D055
:1033D0008CE732003900214806F0A2FC86E7184A43
:1033E000184B0C980D9903F07CFCBFE7C84F0110F7
:1033F000E84F01100C5001104C5001106C5001109E
:10340000845001109999993F9A99999900003440F4
:10341000000050406666E63F6666666600407F4094
:103420000000E03F000040409A4B2352916305406A
:10343000F4D64354FB211940A8500110CC50011080
:103440007B14AE47E17A943FDC500110E17A743F7F
:10345000D4500110C0500110B4500110E4500110BC
:103460000E980F99054A064B03F03BFC0A9A0B9BFA
:103470000E900F91034806F053FC37E77B14AE47DC
:10348000E17A743FD4500110012010B50021404270
:1034900006F0A6FFFEF788FF00F0CAFD10BDC0468B
:1034A000F0B5C646274F00B53B68002B23D1FDF78A
:1034B000CDFB013002D180BCB846F0BDFDF79CFBCE
:1034C000214B1C68237B262BF5D0220000211832CB
:1034D00006E00C3213000C3B1B780131262BEAD09E
:1034E0008342F6D14B005B189B00E4186369984750
:1034F00001233B60DFE700233B60FDF72BFD124D0E
:103500002A68137B262B1AD0104B002400219846E2
:1035100009198E0092191069FDF756FB2B680134CA
:103520009B191869FDF742FB4046FDF73FFB610020
:103530002A680B199B00D3181B7B262BE8D19368B4
:103540009847B4E76060022080260020F84D011003
:103550000022044B1A60044B01321A60034B044AE8
:103560001A6070475C6002206060022080260020A4
:103570001026002010B5FFF793FF10BD70B594B072
:10358000160005000C00FDF7E5FC002E17D00D4BD2
:103590002A001D001900684606F0CAF86A46002194
:1035A0000020FDF7F5FA22002900684606F0C0F871
:1035B0006A4601210020FDF7EBFA14B070BD024B02
:1035C000E6E7C046F4500110FC500110F0B595B08C
:1035D000FDF7C0FC3A4C00222100684606F0A8F82E
:1035E0006A4600210020FDF7D3FA002721000125BB
:1035F00000240022684606F09BF86A46012100205C
:10360000FDF7C6FA2F4E01200021404206F0E8FEE9
:10361000FEF7CAFE00F00CFDFDF718FB0130F2D0FA
:10362000FDF7EAFAC3B2462B04D88300F3589F464D
:1036300001235D402A0039002000FFF79FFFE2E7E9
:10364000002D0DD03F01303803E0002D0DD03F019B
:103650003738C719012239002000FFF78FFFD2E762
:10366000BB00DB195B003038C7180022390020008E
:10367000FFF784FFC7E7E71B2A0039000020FFF7A8
:103680007DFF0024BFE73900200003F0BBF80700EE
:10369000F2E700220C4B39001A6020002A00FFF7E5
:1036A0006DFF15B0F0BD6743E6E73F19E4E738006A
:1036B0002A0000213C00FFF761FF0027A3E7C04676
:1036C000F4500110145D01104C5402200022014BF3
:1036D0001A607047906003207047C046064B1B6815
:1036E00019003039392B01DD573B1900034A1368A3
:1036F0001B010B43136070473C6002209060032065
:103700000122014B1A607047306002200021002026
:1037100010B502F061FFC0460021002010B502F094
:103720005BFFC04610B5FEF7C5FA10BD10B5034BE0
:103730000100180006F0F4FA10BDC0462452011032
:1037400070B50A2006F01EFA074C084D2600FC361C
:103750006268216828000C3406F0E2FAB442F7D11E
:103760000A2006F00FFA70BD84260020385201109E
:1037700070B50A2006F006FA0B4C0C4E2500993560
:10378000FF35626813782A2B03D03000217806F0C9
:10379000C7FA0C34AC42F4D1054806F0C1FA0A204D
:1037A00006F0F0F970BDC046802700204452011099
:1037B00050520110F0B5DE464E465746454680222F
:1037C000E0B52D4C0021A54410ABD200A32000F0A1
:1037D00063FD0A2006F0D6F9002302AE3370274BB2
:1037E00000249846264B9946264B9B46264B9A46E4
:1037F0000CE04946684605F09BFF6946300009F039
:10380000D9FE80230134DB009C4229D01F4BE518F0
:103810000F231F002740234209D0434668212A78FE
:103820009B5C8B43E5D12E236A461380E5E731008C
:10383000584606F075FA21005046377006F070FAC7
:10384000434668212A789B5C8B43ECD00C49684640
:1038500005F06EFF6946300009F0ACFE0134D5E793
:103860000A2006F08FF90A4B9D44F0BCBB46B246D5
:10387000A946A046F0BDC046BCEFFFFF8570011011
:10388000484E0110384E01107452011000001810FB
:1038900044100000F0B5DE4657464E464546E0B5BA
:1038A0000A2093B006F06EF9002304AE3370802333
:1038B000244F9B003C68E3189C4239D2224B994626
:1038C000224B9846224B9B46224B0193224B9A4611
:1038D00010E051462A0002A805F02AFF02A9300094
:1038E00009F068FE8022920094463B6801346344EC
:1038F000A3421DD90F231D00254023420ED0257859
:103900004846290006F00CFA434668225B5D934363
:10391000DFD12E2302AA11001380E0E731005846C0
:1039200006F0FEF921000198357006F0F9F9E6E796
:103930000A2006F027F913B0F0BCBB46B246A946F0
:10394000A046F0BD90600320FC4D01108570011071
:10395000384E0110404E0110484E011010B5034B77
:10396000034A1A60FFF796FF10BDC046906003201F
:103970000000181010B584B001AB1900074A11CA35
:1039800011C1108808809278A3208A70044A1168B7
:103990000A2200F0A1FC04B010BDC0467C52011008
:1039A0009060032010B5044806F0BAF9FEF7A8FAB3
:1039B000024806F0B5F910BD885201108C4D011077
:1039C000002110B5034B0448595606F0A9F9FEF73B
:1039D00097FA10BDC162032098520110002170B502
:1039E000214D8CB069562148413106F099F903AA5E
:1039F00002A901A8FDF7BEFF039A01991C4806F031
:103A00008FF96B460021DC1C2300695604AA0120B3
:103A1000FDF78AFC002123000320695604AAFDF764
:103A200083FC002817D0134E2078FDF78FFF03AAE0
:103A300002A901A8FDF79EFF029B227804A930008D
:103A400006F06EF9002123000420695604AAFDF750
:103A50006BFC0028E8D100212300695604AA02204B
:103A6000FDF762FC0CB070BDC1620320A8520110CA
:103A7000BC520110E452011010B5FFF7AFFF10BDAA
:103A800070B51B211D4806F04BF91D4806F0C4F81F
:103A90001B211C4806F044F91B4C1C4D23682800D0
:103AA0005A425341236006F03BF90A2006F06AF8B7
:103AB0002368002B1FD01649164806F031F90A205A
:103AC00006F060F8144806F02BF9144806F028F9BF
:103AD000134806F025F9134806F022F9124806F0BB
:103AE0001FF90A2006F04EF8280006F019F90A20FE
:103AF00006F048F870BD0D49DEE7C046844B011062
:103B00000C53011018530110486103202053011079
:103B1000005301104C5301106453011078530110ED
:103B2000885301109C530110B45301100453011029
:103B300070B51B211F4806F0F3F81F4806F06CF81B
:103B40001B211E4806F0ECF81D4C1E4D2368280072
:103B50005A4253411C4A2360136859424B41136037
:103B600006F0DEF80A2006F00DF82368002B1FD0BF
:103B70001649174806F0D4F80A2006F003F815484D
:103B800006F0CEF8144806F0CBF8144806F0C8F852
:103B9000134806F0C5F8134806F0C2F80A2005F0ED
:103BA000F1FF280006F0BCF80A2005F0EBFF70BD1D
:103BB0000D49DEE7844B01100C530110CC5301106A
:103BC0004861032020530110446103200053011079
:103BD0004C530110645301107853011088530110A5
:103BE0009C530110B45301100453011010B59021DF
:103BF0000148FDF739FF10BDD853011010B500245E
:103C00000A2005F0BFFF074B1C57FEF76DF9064B66
:103C100002002100180006F083F80A2005F0B2FF28
:103C200010BDC046C1620320E0530110F0B5C64686
:103C300000B51C4B84B019681B4806F071F81B4B8B
:103C40001B48196806F06CF8012008F0FBFE194BC0
:103C50000100180006F064F8174D00212A686B680F
:103C6000164806F05DF8164B01249846AA68EB68E2
:103C700003CD16001F00361A8F4130003900029024
:103C80000391611E0191009421004046013406F029
:103C900047F8072CEAD10A2005F074FF04B080BC75
:103CA000B846F0BD14250020005401103C540220F9
:103CB0001854011030540110804502204454011062
:103CC0005854011010B50420FCF7D8FF10BDC046B1
:103CD00000B587B001AA09F0C1FB002101A8FDF7DA
:103CE000C3FE07B000BDC04600B583B001AA09F00D
:103CF000B5FB0198C0B2FDF729FE03B000BDC04678
:103D000010B5044B0448196806F00AF8FDF722FDC7
:103D100010BDC0461C5C02208054011000B5C3B029
:103D200002AB01AA0A4909F099FB019A02A90948C4
:103D300005F0F6FF0198C0B2FDF708FE02A809F0F1
:103D4000FDFC010002A8FDF795FF43B000BDC04691
:103D50008C5401109C54011000B5C3B06A4601ABED
:103D6000074909F07BFB074B07481A78074B19688E
:103D700005F0D6FF02A8FDF7C1FD43B000BDC04667
:103D8000BC540110BE620320C45401101C5C02200C
:103D900010B5FDF779FD10BD70B5D2B000236A46AD
:103DA000137202AA09F05AFB0B4E0C4D0AE034685C
:103DB000FEF79AF82100020012AB280005F0B0FFD0
:103DC000FDF762FD01AA12A902A8FDF727FB002852
:103DD000EDD152B070BDC0461C5C0220E854011009
:103DE00000B583B001AA09F039FB019840B2FDF794
:103DF000DFFF0021034B0448595605F091FF03B043
:103E000000BDC046C1620320FC54011000B583B060
:103E100001AA09F023FB0198FDF79EFD03B000BD48
:103E200010B5FDF7F7FC10BD002310B50B2488B0CA
:103E30000593013306931333079306AB05AA00934A
:103E400007AB09F00BFB07986C44C0B22070FDF77C
:103E50007DFD059840B2FDF7ABFF2200069804AB4C
:103E600003A9FDF7F9FB002813D007990B4805F0CB
:103E700057FF03990A4805F053FF0499094805F0D4
:103E80004FFF0021084B0948595605F049FF08B07B
:103E900010BD074805F044FFF9E7C0460C55011076
:103EA0001C5501102C550110C1620320FC54011057
:103EB0003C5501107047C046394BF0B5DE469B4675
:103EC00057464E46454600235A46E0B589B0136032
:103ED000344B354F9A46354B354C0493354B05934F
:103EE000354B0393354B994607AB98463B005F46ED
:103EF0009B4648465346059900680978049A49B29A
:103F00001B68127841310090039805F009FF434681
:103F100020221A8000232370642005F0E7FD0500AD
:103F2000831CF9D00D2D10D01B2D0ED0280005F0CC
:103F300029FE200009F002FC8028EDD043464146CE
:103F400020181D7009F0F2FBE6E75E460025029797
:103F500003E001350C36152D1DD03768380009F007
:103F6000EDFB21000200380009F04AFB0028F0D1E7
:103F70006B005B199B00029F5B44596820009B68A3
:103F800098473B68002BB4D009B0F0BCBB46B246A2
:103F9000A946A046F0BD029F3B68002BA9D0F3E7DD
:103FA000306002201C5C022084260020BE620320B8
:103FB000C0600320C16203205055011094600320AB
:103FC00030B5174883B005F027FE164805F0A8FE67
:103FD00020236A4693800023134D2B70642005F044
:103FE00085FD0400831CF9D00D2C10D01B2C0ED0A5
:103FF000200005F0C7FD280009F0A0FB8028EDD0C7
:104000006B46281801A91C7109F090FBE6E7002116
:104010002800FDF729FD054805F082FE03B030BDFC
:104020007055011084550110C06003208C4D0110A3
:1040300070B5694D00202C68002C1AD005F056FD93
:104040000400831C14D0654E3368012B40D0022B32
:104050002BD0002B0CD11B285BD0614D44B22C70AF
:10406000013405D0FFF710FA0023EB560133F9D1E4
:1040700070BD05F03BFD831CFAD05A490B0003E0EC
:1040800001340C33222CF3D01A788242F8D1564BEB
:10409000186063001B199B00C9188B689847534B25
:1040A0005348196805F03CFEE2E7432868D019DC64
:1040B000412851D042282FD10423494D2B70FFF7BE
:1040C000E3F90023EB560133F9D100233360CFE746
:1040D0006D284BD012DC1B2872D05B285AD10223EA
:1040E0003360C5E7442817D105233D4D2B70FFF7FA
:1040F000CBF90023EB560133F9D1E6E76F2849D11C
:10410000374D2B70FFF7C0F90023EB560133F9D17F
:10411000DBE701333360ABE70023314D2B70013314
:1041200005D0FFF7B1F90023EB560133F9D1002395
:104130002B70013305D0FFF7A7F90023EB560133AD
:10414000F9D164B22C700134BFD0FFF79DF9002380
:10415000EB560133F9D1B8E70323214D2B70FFF75C
:1041600093F90023EB560133F9D1AEE702231C4D3E
:104170002B70FFF789F90023EB560133F9D1A4E73F
:104180000623174D2B70FFF77FF90023EB56013301
:10419000F9D19AE70023124D2B70013305D0FFF7B8
:1041A00073F90023EB560133F9D164B22C7001345A
:1041B0008BD0FFF769F90023EB560133F9D184E77F
:1041C00000231B210B482B60336005F0A9FD0A4832
:1041D00005F0A6FD4CE7C04648610320546103206A
:1041E000F4240020802700203C60022090600320FF
:1041F000B455011098550110A0550110F0B50D4CA3
:10420000060024680D00170083B0002C01D103B014
:10421000F0BD1B21084805F083FD1B21B31CAA1C1F
:104220000097064805F07CFD1B21054805F078FD48
:10423000EDE7C04648610320704B0110C0550110E6
:10424000804B011070B5104B06001B680D00140068
:1042500082B0002B01D102B070BD1B2163425C41D2
:104260000A4805F05DFD1F2364429C43403433003F
:104270001B21EA1D0094064805F052FD1B2105484C
:1042800005F04EFDE7E7C04648610320704B011082
:10429000C0550110804B0110F0B5040083B00D48EB
:1042A00016001F000D0005F03BFD0F20FEF7CEF9B4
:1042B000FE206B46204001AA02216DBA9D80FEF7C8
:1042C00009FB01231C433A003100E0B2FEF7A4FAD7
:1042D00003B0F0BDB4570110F8B5070012480E0046
:1042E00015001C0005F01CFD0F20FEF7AFF9FEF7CE
:1042F000B3F9FE203840FEF7EBF93012C0B2FEF7FA
:10430000E7F9F0B2FEF7E4F9002D06DD6519207833
:104310000134FEF7DDF9AC42F9D1FEF7B9F904201A
:1043200001F086FEF8BDC046B4570110F0B5454611
:10433000DE4657464E46E0B50400884685B0002A62
:104340004AD12368002B00D09847A369002B3CD0AA
:10435000234B04349B46234B9A46234B9946234BCD
:10436000039307E0022B01D163699847E36A18348D
:10437000002B2AD0E06809F0E1F953462768666807
:104380000193A3683200C31802333900009305007B
:104390005B464046FCF7F4F9E368320000933900CD
:1043A0004B464046FCF7ECF9237C012BDAD16369DC
:1043B000E9191B68320000934046039B0231183410
:1043C000FCF7DEF96369002BD4D105B0F0BCBB4625
:1043D000B246A946A046F0BD0800FCF7FFF9B0E7D9
:1043E000CC570110B8520110D05701102C540110B5
:1043F000F0B5C64600B588B08C4602A998460B00B9
:104400000E4C170024CC24C31D000D4C45CC45C3D5
:10441000227860461A700B4B0722019303F02EFDA1
:1044200029000C22380003F029FD0322404601A98F
:1044300003F024FD08B080BCB846F0BDD45701108D
:10444000DC570110312E3000074B10B51B780400EB
:104450000120002B00D110BD00233A2202212000B0
:1044600007F06EFA0020F6E7BD62032080235B00B0
:104470000B60DB1813807047002B01D0002A01D09D
:1044800001207047014B01321A70F9E7BD62032029
:10449000180010B5FF2908D8054B49028918C9181A
:1044A000029A03F0EBFC029810BD01204042FBE7AA
:1044B0001829002001207047F8B5CE464746994696
:1044C00080B5FF2926D84D02AD18A84613491448D7
:1044D000884405F025FC089B002B11D01E004C469B
:1044E0006827104D4E4402E00134A64208D02078DF
:1044F0002A5CBA43F8D0013405F044FBA642F6D159
:1045000049464046089A03F0B9FC0898C0BCB94631
:10451000B046F8BD01204042F8E7C0461829002007
:10452000EC5701108570011010B5002320220521E1
:1045300007F006FA0120404210BDC04601210A00E2
:10454000764B10B51B689A401300754A126891406B
:1045500042B2002A00DACEE0D02212069161D022C7
:104560001206936193619361936193619361936187
:1045700093619361936153615361536153615361DB
:1045800053615361536153615361440600D5C2E0E6
:104590009161D0221206936193619361936193615B
:1045A000936193619361936193615361536153612B
:1045B0005361536153615361536153615361840685
:1045C00000D5A6E09161D0221206936193619361B8
:1045D000936193619361936193619361936153617B
:1045E000536153615361536153615361536153612B
:1045F0005361C40600D58AE09161D022120693610E
:10460000936193619361936193619361936193610A
:1046100093615361536153615361536153615361BA
:10462000536153615361040700D56EE09161D0225C
:1046300012069361936193619361936193619361B6
:10464000936193619361536153615361536153610A
:1046500053615361536153615361440753D4916172
:10466000D022800112069361C4B293619361936179
:10467000936193619361936193619361536153611A
:10468000536153615361536153615361536153618A
:10469000000636D49161D022120693619361936132
:1046A00093619361936193619361936193615361AA
:1046B000536153615361536153615361536153615A
:1046C000536164061BD49161D022120693619361F9
:1046D000936193619361936193619361936193613A
:1046E000536153615361536153615361536153612A
:1046F0005361536110BDD022120651612FE7516101
:10470000E2E75161C7E75161AAE751618FE7516163
:1047100073E7516157E751613BE7C046D45A011036
:10472000D85A011070B5012632003500464BD0240E
:104730001B6824069A40454B62611B68AE209D4071
:10474000434B65611B689E406661A661A561FFF7EA
:10475000F5FE6561D520A661A561FFF7EFFE6561F5
:104760008020A661A561FFF7E9FE6561A820A6612A
:10477000A561FFF7E3FE65613F20A661A561FFF734
:10478000DDFE6561D320A661A561FFF7D7FE6561F7
:104790000020A661A561FFF7D1FE65614020A661FA
:1047A000A561FFF7CBFE6561A620A661A561FFF7B5
:1047B000C5FE6561A420A661A561FFF7BFFE656126
:1047C000A120A661A561FFF7B9FE6561C820A661B9
:1047D000A561FFF7B3FE6561DA20A661A561FFF769
:1047E000ADFE65611220A661A561FFF7A7FE6561B8
:1047F0008120A661A561FFF7A1FE65618F20A661FA
:10480000A561FFF79BFE6561D920A661A561FFF751
:1048100095FE65612520A661A561FFF78FFE6561A4
:10482000DB20A661A561FFF789FE65613420A661E2
:10483000A561FFF783FE6561AF20A661A561FFF763
:104840007DFE656170BDC046D05A0110C85A011086
:10485000CC5A0110802210B500210248D20003F08A
:1048600007FB10BDFC4F022070B5802811DC4029E9
:104870000FDC0724CB1723405B18DB10DB01181873
:104880000123064E0C40A340355C002A02D01D4394
:10489000355470BD9D433554FBE7C046FC4F0220A4
:1048A000F0B5454657464E46DE46E0B5050085B0B4
:1048B0001E00203A0EAB0C001F78BE48D3B20A008F
:1048C0002900984605F02CFA002E00D149E1434614
:1048D0000C2E00D15CE2B84A1B019B180293002306
:1048E0009C467B1E9F417B420393B44B220098461B
:1048F000634600950193FCE00098802800D937E1D9
:10490000402A12D805000727A946D0101740C00139
:104910004844B94601274D46AF404546BA462D5C4E
:104920002F005546AF4345462F54664500D10DE153
:10493000580600D544E1901CC0B28446001B814655
:10494000402900DD20E2009DC810AA4607252F005F
:104950000F400121B940C00150448A4641465546A6
:10496000095CA94345462954B14500D1EEE09906BA
:1049700000D543E1D01CC0B2011B894661464029E5
:1049800014DC009D6746AA4607252F40BC46063D1D
:104990002F006546AF40C9104546C9015144BA468B
:1049A0006D5C2F005546AF4345466F544E4500D1D0
:1049B000CCE0D90600D549E1111DC9B28C46091BCE
:1049C0008946402810DC009DC110AA4607252F000B
:1049D00007400120B840C90151448246404655462F
:1049E000405CA84345466854B14500D1AEE0190784
:1049F00000D549E1501DC0B2011B894661464029DE
:104A000014DC009D6746AA4607252F40BC46063D9C
:104A10002F006546AF40C9104546C9015144BA460A
:104A20006D5C2F005546AF4345466F54B14500D1EC
:104A30008CE0590700D54FE1911DC9B28C46091B86
:104A40008946402810DC009DC110AA4607252F008A
:104A500007400120B840C9015144824640465546AE
:104A6000405CA84345466854B1456FD0990700D5CE
:104A700050E1D01DC0B2011B8A466146402916DCB8
:104A8000C910C90189460099072567468B462F4002
:104A9000D944BB46063D2F005D46AF404D46BC465F
:104AA00046494D5D2F006546AF434D464F5556452F
:104AB0004CD0DB0700D556E140280FDC07252F003E
:104AC000C11007400120009BB8409C46C9016144C9
:104AD00084466546394B585CA84358540832D2B2D4
:104AE000131BB34232D0019B01330193DBB29E42D0
:104AF00037D9029B0199585C039B511C5840C04315
:104B0000C9B20F1BBC4643B2000600D4F4E60098BD
:104B100080282DDC402A00DD07E70500A94607258F
:104B20001540AA4601255746BD40D010C001484453
:104B3000A94645462D5CAA464D4657463D43A946E3
:104B400045464F462F54664500D0F1E6009D2200B1
:104B50000135EBB20093019B01330193DBB29E421E
:104B6000C7D805B0F0BCBB46B246A946A046F0BDCA
:104B70006645EBD0911CC9B2091B8E42E6D0D11C10
:104B8000C9B2091BB142E1D0111DC9B2091BB14222
:104B9000DCD0511DC9B2091BB142D7D0911DC9B299
:104BA000091BB142D2D0D31DDBB21B1BB34295D13E
:104BB000CCE7C04604580110405E0110FC4F0220B3
:104BC000901CC0B28446001B8246402900DDF3E2FF
:104BD0000725C810C0018146009829408346063D3C
:104BE0008D40D94429004D467148455D29434D46C5
:104BF0004155B245AAD0990600D4BBE6D01CC0B23C
:104C0000011B8A46614640291ADCC910C901894640
:104C1000009907258B46D944AB4665465F463D4023
:104C2000AB4601255F46BD40AC464D4660494D5DF3
:104C3000AB4665465F463D43AC464D4667464F55DD
:104C4000B24500D182E7D90600D4B5E6111DC9B23C
:104C50008C46091B8A46402810DC0725C110C90173
:104C60008946009928408B46063D8540D944280056
:104C70004D464F494D5D28434D464855B24500D1FC
:104C800064E7190700D4B5E6501DC0B2011B8A467F
:104C9000614640291ADCC910C901894600990725D7
:104CA0008B46D944AB4665465F463D40AB46012541
:104CB0005F46BD40AC464D463D494D5DAB46654601
:104CC0005F463D43AC464D4667464F55B24500D121
:104CD0003CE7590700D4AFE6911DC9B28C46091BC9
:104CE0008A46402810DC0725C110C9018946009971
:104CF00028408B46063D8540D94428004D462C4926
:104D00004D5D28434D464855B24500D11EE79907F1
:104D100000D4AEE6D01DC0B2011B8A4661464029D0
:104D200000DDC4E6C910C9018946009907258B46F4
:104D3000D944AB4665465F463D40AB4601255F46DC
:104D4000BD40AC464D461A494D5DAB4665465F4693
:104D50003D43AC464D4667464F55B24500D1F5E65A
:104D6000DB0700D4A8E6402800DDB7E60725C11020
:104D700005400120009BA8409C46C9010C4B6144A2
:104D80005D5C28435854A9E6B04200D0EFE5DDE66B
:104D90005B0043449B009846064A002090447A1EDC
:104DA00097417A420192024A230094460090E0E043
:104DB000FC4F022030640110802D00D907E1402B08
:104DC00000D9FCE0072018408346DF10FF017F195F
:104DD000029701205F46B8408246029F8D4EF05DEB
:104DE0005746B843029FF05548460C2800D1EAE0E8
:104DF000560600D510E19E1CF6B2301B81464029B4
:104E000000DDC1E10720CF100840012181408A4622
:104E100061465046FF017F19C95D81436046C15517
:104E200049460C2900D1CEE0910600D510E1DF1CE7
:104E3000FFB2391B8946402E00DDA9E10720F110A1
:104E40003040012686406046B246C9014919465C99
:104E5000504686436046465449460C2900D1B2E08C
:104E6000D10600D510E11E1DF6B2311B8946402F38
:104E700000DD91E10720F9103840012787406046A6
:104E8000BA46C9014919475C5046874360464754B2
:104E900049460C2900D196E0110700D510E15F1DAD
:104EA000FFB2391B8946402E00DD79E10720F11061
:104EB0003040012686406046B246C9014919465C29
:104EC000504686436046465449460C297BD05107DC
:104ED00000D512E19E1DF6B2311B8946402F00DD40
:104EE00062E10720F9103840012787406046BA4642
:104EF000C9014919475C50468743604647544946B3
:104F00000C2960D0910700D513E1DF1DFFB2391BDA
:104F10008946402E00DD4BE10720F110304001268C
:104F200086406046B246C9014919465C50468643F0
:104F30006046465449460C2945D0D20700D514E1B5
:104F4000402F0BDC0721012639408E406146604628
:104F5000FA10D2015219895CB14381540833DBB293
:104F60001A1B0C2A2FD0009A013200920C2A00D171
:104F7000F7E542460099565C019A591C5640F643A3
:104F8000C9B20F1BB94672B2360600D414E7802DA1
:104F90001DDC402B13DC072018408346DF10FF0187
:104FA0007F19029701205F46B8401A4E029F824641
:104FB000F05D834650465F463843029FF0554846B1
:104FC0000C2800D014E701352300EDB2CBE74946A9
:104FD0000C29F8D0991CC9B2091B0C29F3D0D91C93
:104FE000C9B2091B0C29EED0191DC9B2091B0C2925
:104FF000E9D0591DC9B2091B0C29E4D0991DC9B2C9
:10500000091B0C29DFD0DA1DD2B2121B0C2AA5D144
:10501000D9E7C046FC4F02209E1CF6B2301B8246E8
:10502000402900DDCDE00720CF10FF010140B94647
:1050300006388840A944010048466E4F385C014359
:105040004846395451460C29BDD0910600D4EEE6AD
:10505000DF1CFFB2391B8A46402E00DDB5E0072079
:10506000F110C901064089460638B040A94406003F
:1050700048466049085C064348460E5451460C2990
:10508000A1D0D10600D4EEE61E1DF6B2311B8A4631
:10509000402F00DD9DE00720F910C9010740894637
:1050A0000638B840A944070048465249085C0743FF
:1050B00048460F5451460C2985D0110700D4EEE61E
:1050C0005F1DFFB2391B8A46402E00DD85E00720B8
:1050D000F110C901064089460638B040A9440600CF
:1050E00048464449085C064348460E5451460C293C
:1050F00000D168E7510700D4ECE69E1DF6B2311BE3
:105100008A46402F6DDC0720F910C9010740894607
:105110000638B840A944070048463649085C0743AA
:1051200048460F5451460C2900D14CE7910700D452
:10513000EBE6DF1DFFB2391B8A46402E55DC072007
:10514000F110C901064089460638B040A94406005E
:1051500048462849085C064348460E5451460C29E7
:1051600000D130E7D20700D4EAE6402F00DDF5E6B3
:105170000726F9103740063EBE401E4AC9014919AC
:10518000575C3E435654E9E60C2800D04CE61AE73B
:105190000C2900D064E616E70C2900D07CE612E763
:1051A0000C2900D093E60EE70C2900D0AAE60AE706
:1051B0000C2900D0C1E606E7B04201D0FFF7D7FBCB
:1051C000C4E40C2800D02FE6FDE60C2900D047E609
:1051D000F9E60C2900D05FE6F5E60C2900D076E66A
:1051E000F1E60C2900D08DE6EDE60C2900D0A4E60E
:1051F000E9E6C046FC4F0220F0B5DE4657464E4673
:105200004546E0B587B0059210AA127804909346FF
:10521000DA1DD21003925A46002A45D0002B43D003
:1052200000228C4600219146234A0C00802790469C
:1052300019006346402B2DDC6546EE10F501019503
:10524000664607252E40063DB540059BA2464B44C9
:1052500000221C000498029504E00132D2B2013011
:10526000914216D0D308E65C07233D0013401D4150
:105270003542F2D08028F0DC019B029D1E18434687
:105280009B5D01322B434546D2B2AB550130914272
:10529000E8D1544601239A46039BD4449A460134EC
:1052A000E4B2D144A345C4D107B0F0BCBB46B2467A
:1052B000A946A046F0BDC046FC4F0220F8B54746BF
:1052C000CE46012680B537001B4BD0251B682D0626
:1052D0009F401A4B1B689E40194B984600239946E5
:1052E000484644465038AF61C0B2AE61FFF726F978
:1052F0006E610020AF61AE61FFF720F96E61102092
:10530000AF61AE61FFF71AF9803C6E6120786F6182
:105310000134AE61FFF712F96E614445F6D1012305
:105320009C467F33E14498464B46A044082BD7D196
:10533000C0BCB946B046F8BDCC5A0110C85A0110DD
:105340007C50022000B50B4883B004F065FCFFF7E9
:10535000E9F9094804F060FC402300210020074AD5
:1053600000934033FFF748FFFFF7A8FF002003B08A
:1053700000BDC0461858011024580110A46801103F
:1053800010B50400054804F0CBFC054B1C70022C42
:1053900000D010BDFFF7C6F9FBE7C0463458011036
:1053A000BC62032010B5054B1B78022B00D010BD4A
:1053B000FFF750FAFFF782FFF9E7C046BC6203200F
:1053C000F0B50E4F04000D000D48397883B016007B
:1053D00004F0A6FC3B78022B01D003B0F0BD0C23F7
:1053E0005D4301236000201840000093F2B2E9B24F
:1053F000C0B20B33FFF754FAEFE7C046BC6203209C
:105400004058011010B5054B1B78022B00D010BD81
:10541000FFF720FAFFF752FFF9E7C046BC6203200E
:1054200010B5044B1B78022B00D010BDD2B2FFF791
:105430001BFAFAE7BC62032010B5044B1B78022B61
:1054400000D010BDFFF73AFFFBE7C046BC62032067
:10545000074B8000C3181B68C90092000A435A40DA
:105460000C231340034A9446604403607047C046CF
:1054700004C0014004D001400123D0228340120621
:1054800093629361094A83009A181168402251403F
:1054900080320A400649C0008C4663441A60054BBE
:1054A0009C460523604443607047C04604C00140E9
:1054B00004D00140004001408023DB051868000F44
:1054C0007047C0460FB400B5084883B004F0A4FB91
:1054D000049B002B07D005A91800019104F070F976
:1054E000034804F099FB012004F082F94C580110A4
:1054F0001453011070B5EFF3108C72B60D4D2B687C
:10550000002BFCD0BFF35F8F0724CB08C618C05C0C
:1055100001230C40A3401C000440034207D1184360
:105520003070BFF35F8F2C608CF3108870BD10005B
:10553000FFF7C8FF2C0100D0F8B54746CE46884695
:1055400080B5EFF3108C72B61C4D2C68002CFCD08B
:10555000BFF35F8F9A4222D807210126894602E0D5
:105560000132934218D34D4637001540AF40D4085E
:105570000119045D2742F3D110003C430C70BFF3C6
:105580005F8F00220D4B1A608CF3108800280EDB11
:10559000C0BCB946B046F8BD01204042EFE7BFF3BA
:1055A0005F8F00232B608CF310880120404243461C
:1055B000002BEDD00898FFF785FFC0462C0100D0E6
:1055C000044A1078431CDBB2172B00D91023137048
:1055D0007047C0461829022010B5064B064C82B011
:1055E0000100009318221F232000FFF7A5FF02B03F
:1055F00010BDC0465C580110005402200021044B2D
:10560000044ABFF35F8F02C39342FAD17047C0468A
:10561000000100D0800100D0054B064A1360064A05
:10562000136053609360D36013615361936170475B
:105630008080808000E400E004E400E01F23184044
:105640001E3B8340002905D0C021044A4900535025
:1056500013607047802201498B50FAE700E100E0B7
:1056600001228240034B1B6813405A1E9341D8B25B
:105670007047C04600E100E070B50D00EFF3108602
:1056800072B60F4A1368002BFCD0BFF35F8F0D4B2F
:1056900010309B6884001B590B4A934203D09D42F3
:1056A00001D000F0BDFF074B9B681D51BFF35F8F1A
:1056B000BFF35F8F0022024B1A6086F3108870BD23
:1056C000240100D000ED00E0CD010010F0B55746F8
:1056D0004E46DE464546E0B585B00600009117000F
:1056E000EFF3108B72B66A4A1368002BFCD0BFF33D
:1056F0005F8F0025674B5D579A46002D00DAA9E0C1
:105700006B00654C01935B199B009846A146C14410
:105710004B4652469B7910361370604BB6009B681F
:1057200099590B1B2F2B33D95D4B994200D0ACE01C
:10573000019B42469C465B4B6544AD0063535A4B0C
:105740000232A218043B9B1A1B05584A5B0D6519CF
:1057500013436B80564B0121AB80FF23AB71009B41
:10576000EF71AB604B460B4319004C4B9B68995152
:10577000BFF35F8FBFF35F8F0022454B1A608BF33F
:10578000108805B0F0BCBB46B246A946A046F0BDA5
:1057900001200A008243D3798C46BB4231D845466A
:1057A000130044491B1B5B415943090D3D4B635397
:1057B0003D4B02356519043B5B1B1B053B4D5B0DE7
:1057C0002B43AA464D466B800425AC465546E04423
:1057D000131F44441B1B1B055B0D1D434B46997156
:1057E00000999D8099604946DF71334B01431360F6
:1057F000BBE75800C01880002018C179B9422FD9E2
:1058000002000623D356002BF3DA02932B4B61469A
:105810000393131D9A4604235B429C46E144504681
:105820004B461B1A1B055B0D9C46204B95719846F9
:105830006346404603439380019B5A199200039BA1
:10584000A418A380029B1C4AA371009B2260E771ED
:10585000A3608AE700F0E4FE002553465D574FE75A
:10586000908802934005131D9A46031561469C4695
:105870004046D444634604302018181AE02300053B
:10588000400D1B0218430390C5E700F0C9FE4FE727
:10589000240100D0BF6203201C29022000ED00E09B
:1058A000CD01001000A1FFFF4C29022000E0FFFF06
:1058B00001BDFFFFAAAA00000148804701BD00000A
:1058C00070B501240443EFF30581EFF3108C72B639
:1058D000214A1368002BFCD0BFF35F8F1F4B0500DC
:1058E0001F4AED1A6D416A43120D1E4D8900AE68C4
:1058F00052B27658A6421CD00621595691421CD06D
:1059000012215956914222D01E215956914220D03F
:105910002A2159560324914210D0134B19781A703A
:105920008171BFF35F8F00220B4B1A608CF31088DC
:1059300070BDAB680D4C5C50EFE7002461000919A5
:1059400089005B18FF21997109499980E5E70124D5
:10595000F4E70224F2E7C046240100D01C2902200B
:10596000AAAA000000ED00E0BF620320CD010010F4
:1059700001BDFFFF024B9C466144890001607047F6
:105980004000003470B5114C114DAC420FD2FF26CF
:105990002368002B0CD0FFF713FE01002000FFF757
:1059A000E9FFA680BFF35F8F0834AC42F0D370BD2F
:1059B000FFF706FE01002000FFF7DCFF2671BFF3B2
:1059C0005F8F0834AC42E3D3F1E7C0468030022059
:1059D0009030022010B50400FFF7F2FD0100200016
:1059E000FFF7C8FFFF232371BFF35F8F10BDC046D1
:1059F00010B504000120FFF7EFFD034BC3189B0017
:105A00002360BFF35F8F10BD400000340A4B19685C
:105A1000EFF3108072B60A68002AFCD0BFF35F8FE4
:105A20001B68BFF35F8F00221A6080F3108840BFAD
:105A3000002000217047C04658610320F0B5DE46C3
:105A400057464E464546E0B587B0EFF3058203233F
:105A5000012513409D409900B34AB44B54581D6032
:105A6000B34B8846A946049329E0A3881BB2002BB8
:105A700000DBA5E0A379002B00D0E6E00823E05E80
:105A8000002800DA0FE1430062691B18DB00D3181D
:105A90009E68DD68731C00D111E1A64B19004144DA
:105AA0009A6A0B69B01A9B1A984200D20E61A148FB
:105AB00000F0BCFB8D4200DDF5E000D12BE14B4650
:105AC0009C4843630823E55E002DCEDB62696B00D2
:105AD00092465B19DB009A4453469E68DF6800F0EB
