:020000041000EA
:1000000000B5324B212058609868022188439860DF
:10001000D860186158612E4B002199600221596106
:100020000121F02299502B49196001219960352056
:1000300000F044F80222904214D00621196600F024
:1000400034F8196E01211966002018661A6600F04E
:100050002CF8196E196E196E052000F02FF8012189
:100060000842F9D1002199601B49196000215960AB
:100070001A491B48016001219960EB211966A021F2
:10008000196600F012F800219960164914480160C1
:100090000121996001BC002800D000471248134993
:1000A000086003C880F30888084703B5996A0420EC
:1000B0000142FBD001200142F8D103BD02B5186610
:1000C0001866FFF7F2FF186E186E02BD00000240BE
:1000D000000000180000070000035F00212200005C
:1000E000F4000018222000A00001001008ED00E03C
:1000F00000000000000000000000000074B24E7A12
:1001000000200420F7010010C3010010C5010010F9
:10011000C1010010C1010010C1010010C101001097
:10012000C1010010C1010010C1010010C701001081
:10013000C1010010C1010010C9010010CB01001065
:10014000CD010010CD010010CD010010CD01001037
:10015000CD010010CD010010CD010010CD01001027
:10016000CD010010CD010010CD010010CD01001017
:10017000CD010010CD010010CD010010CD01001007
:10018000CD010010CD010010CD010010CD010010F7
:10019000CD010010CD010010CD010010CD010010E7
:1001A000CD010010CD010010CD010010CD010010D7
:1001B000CD010010CD010010CD010010CD010010C7
:1001C00000BE00BE00BE00BE00BE00BEEFF3058054
:1001D000103800BEF2EB8871407C0110647C011085
:1001E0003802001090A31AE71E481F49086006C88D
:1001F00081F3088810471D480068002801D019487D
:10020000F3E70DA40ECC002902D000F012F8F9E7B4
:100210001749184A002000E001C19142FCD116495B
:100220008847164988471649884700BEFDE701C937
:1002300001C29A42FBD37047647C0110C0000020C9
:1002400040230220E49E031000000420000004204C
:10025000E49E0310001004200010042000000000A1
:10026000704700000000000008ED00E0000000D032
:1002700040230220A4540320199C00100104001004
:10028000D99B0010F8B5C0460448054B10B5834211
:1002900003D0044B002B00D0984710BD4023022010
:1002A000402302200000000006480749091A8B106D
:1002B000C90FC91810B5491003D0044B002B00D04A
:1002C000984710BD40230220402302200000000078
:1002D00010B5074C2378002B09D1FFF7D5FF054B4C
:1002E000002B02D0044800E000BF0123237010BDA2
:1002F000283A022000000000F04D0110054B10B517
:10030000002B03D00449054800E000BFFFF7CCFFF5
:1003100010BDC046000000002C3A0220F04D011034
:100320007047C046D0238022F0B51B06120285B06C
:100330009A610023FA220093009B9200934205DA0F
:10034000009B01330093009B9342F9DB8023D02173
:100350008026FA2280271B02102500249C460906CD
:10036000F60492003F058E610394039B934205DAE5
:10037000039B01330393039B9342F9DB63461842CB
:1003800020D04F610194019B934205DA019B013318
:100390000193019B9342F9DB4E610294029B400062
:1003A000934205DA029B01330293029B9342F9DBED
:1003B000013D002DD7D1D02380221B0612025A61A5
:1003C00005B0F0BD8F61DDE77047C046054A10B546
:1003D000138803439BB21380108880B2FFF7A2FFFB
:1003E00010BDC04698540320044B10B51A888243B0
:1003F0001A80188880B2FFF795FF10BD985403202B
:10040000F0B5DE4657464E464546E0B50B2083B074
:1004100005F02AFAD024802324061B0163620720FA
:10042000636105F021FA1B2005F01EFA0F2005F08C
:100430001BFA0E2005F018FA112005F015FA1A2003
:1004400005F012FA0C2005F00FFA0D2005F00CFA59
:10045000072005F009FA072005F006FA072005F045
:1004600003FA072005F000FA072005F0FDF9072040
:1004700005F0FAF9072005F0F7F9072005F0F4F97F
:10048000072005F0F1F901220021072005F0D8F935
:1004900001220021072005F0D3F9012200210720C5
:1004A00005F0CEF901220021072005F0C9F901224B
:1004B0000021072005F0C4F901220021072005F0E2
:1004C000BFF901220021072005F0BAF9002101221D
:1004D000072005F0B5F9072005F0C6F9072005F05B
:1004E000C3F9072005F0C0F9062005F0BDF9052085
:1004F00005F0BAF9042005F0B7F9032005F0B4F9C6
:10050000022005F0B1F910250823042265620A20B3
:1005100063626262A261A361656105F075FF0A20F2
:10052000A56105F071FF002201210520656105F03C
:1005300087F901210620002205F082F9402380225C
:100540006362203B6362120560336262A36262628F
:100550008022120262628022D201626280229202B2
:10056000A2628022D20462628022520162628022F0
:1005700092016262636263626362636262610CF051
:10058000C5FB0CF09DF809F085FCFA20C00005F0D1
:100590003BFF03F027F805F035F92E4B00259A466E
:1005A0002D4B2E4E99462E4B2E4F9B462E4B019394
:1005B000FA23DB00984602F0B1FF03F025F8012092
:1005C000002140420AF0E4F8AF213468890020009D
:1005D00006F0F0FA002935D0AF21013434603C68D0
:1005E0008900200006F0E6FA00291CD00120013421
:1005F00001353C6005F008FF4545DCD114240A2094
:10060000013C09F097FC002CF9D1FA25584609F075
:100610005FFD019809F05CFD0A2009F08BFCED00FC
:1006200003F0F2F8C7E701224846023103F09EFECC
:100630003B680120013301353B6005F0E5FE45458F
:10064000B9D1DBE701225046033103F08FFE346855
:10065000C2E7C046A81000209C110020745203205D
:10066000F04D011030520220044E01100EB410B5AE
:10067000B5B037AA02CA040002A801920DF078F8BA
:1006800002A80DF0B9F9E4B2020002A920000AF0B4
:1006900053FF20000AF012FF35B010BC08BC03B0B5
:1006A0001847C04608B4F0B50E0004001500B6B0F7
:1006B0003BAB80CB1B220F4902360393FFF7D6FFDB
:1006C000AB1C20001B220C490096FFF7CFFF039ABA
:1006D000390004A80DF04CF8200004A9FFF7C6FF6C
:1006E0001B2220000549FFF7C1FF36B0F0BC08BC53
:1006F00001B01847284E01102C4E0110384E011041
:1007000010B51B220149FFF7B1FF10BD3C4E01108F
:100710000122034B1A60034A1368002BFCD0704778
:1007200040460220444602200122014B1A607047D5
:100730003C46022000487047385E01100048704770
:10074000105D011030B583B0002807D1344B354817
:100750004380063BFF3B038003B030BD0A281BD813
:1007600003281BD0304B8000C0583049012301388A
:1007700004E001330A800231142B09D0C25C002A44
:10078000F7D1C022DBB25B00920026481343E2E7B8
:10079000CA2324489B00DEE70020DDE76C4668465C
:1007A00009F0BAFD2178224B0A091E489A5C428062
:1007B0000F221140595C818061780D0911405D5D07
:1007C000595CC5800181A1780D0911405D5D595CBE
:1007D00045818181E1780D0911405D5D595CC581DC
:1007E000018221790D0911405D5D595C458281824C
:1007F00061790D0911405D5D595CC5820183A17964
:100800000D091140595C5D5D81834583E1790C09D7
:100810000A401C5D9B5CC4830384064B9BE7C04677
:1008200009040000904902204C5E01109249022008
:10083000444E0110220300000023094A09491360B5
:100840000B68581C032804DC00230860064A136068
:1008500070471321033B11605A425341F6E7C046EB
:1008600094520320985203209052032070B50D003B
:100870000400830019495B199B0082B018485A5044
:100880001849631C05600B60142B1ADC092A18D068
:10089000132B1DD000231449D6B2320020000B6068
:1008A000290003F0F5FC0C235C4301233200E9B27C
:1008B000E0B200930B3304F0E1F904F0DDFE02B086
:1008C00070BD00230B606B1C032B05DD13230B6035
:1008D000EB1E59424B41DEE70360DBE74853032040
:1008E00098520320945203209052032070B51500B3
:1008F000D2B20E00040003F0CBFC0320801BC0B278
:1009000001F064FDAE00A000201A7619012405252F
:1009100040007F30C0B201F06BFD01F01FFF782076
:1009200001F058FF402001F055FF154BF61821004B
:10093000705D013D01404210490022400A43811090
:10094000520021401143C210490022400A430111C4
:100950005200214011434211490022400A438111B3
:100960005200214011434900C009084301F032FF01
:10097000002DDCD1002001F02DFF01F00BFF70BD38
:100980008F120020F0B557464546DE464E46E0B58C
:10099000157804008A4687B0002D46D00B00C9B2F6
:1009A00001330391032B47DD8700404B5744BF00C1
:1009B000FF1853460C26033B594259413C4B4643D2
:1009C00099463C4BF6B298463B4B05919B46131A11
:1009D00004931BE0092D23D00023132C23D05A4667
:1009E000514613602A0003F053FC01232A00300013
:1009F000039900930B3304F041F904F03DFE049B8E
:100A00000C361D5D1037F6B2002D0ED04B46524607
:100A10001A604346200001343D601C60142CD9DD6F
:100A2000434613221A60059BD9E707B0F0BCBB46CA
:100A3000B246A946A046F0BD1D49860089461D491B
:100A40001A48884656441C49B600121B8B4600279C
:100A500036180492059319E0092D21D05B462A002F
:100A600051461F6003F014FC0C20012360430C3836
:100A70002A000399C0B200930B3304F0FFF804F08E
:100A8000FBFD049B10361D5D002DCED04B4652461B
:100A90001A6043462000013435601C60142CDBDDF5
:100AA00043461F604B46059A1A60D7E74853032018
:100AB000985203209452032090520320F0B55746D9
:100AC0004546DE464E46E0B5157804008A4687B0B6
:100AD000002D46D00B00C9B201330391032B47DD33
:100AE0008700404B5744BF00FF1853460C26033B7A
:100AF000594259413C4B464399463C4BF6B29846C5
:100B00003B4B05919B46131A04931BE0092D23D000
:100B10000023132C23D05A46514613602A0003F0B9
:100B2000B7FB01232A003000039900930B3304F034
:100B3000A5F804F0A1FD049B0C361D5D1037F6B23C
:100B4000002D0ED04B4652461A6043462000013419
:100B50003D601C60142CD9DD434613221A60059BAE
:100B6000D9E707B0F0BCBB46B246A946A046F0BDE7
:100B70001D49860089461D491A48884656441C4925
:100B8000B600121B8B46002736180492059319E015
:100B9000092D21D05B462A0051461F6003F078FBE7
:100BA0000C20012360430C382A000399C0B2009343
:100BB0000B3304F063F804F05FFD049B10361D5DF9
:100BC000002DCED04B4652461A60434620000134D9
:100BD00035601C60142CDBDD43461F604B46059AD4
:100BE0001A60D7E7485303209852032094520320F9
:100BF000905203200022024B1A60024B1A60704789
:100C00006046022064460220F0B557464546DE465F
:100C10004E46E0B5594A89B014680492584A05789E
:100C20000692126803009246002D4DD051460132C3
:100C3000C9B20291032A60DDA20052449200934699
:100C40005246033A514251410C264E4A4E4F90466D
:100C50004E4A079391461A1B3B0066434C48F6B236
:100C600083445F4605919B4603921BE0092D23D0E8
:100C70000023132C23D04A46514613602A0003F068
:100C800007FB01232A003000029900930B3303F085
:100C9000F5FF04F0F1FC039B0C361D5D1037F6B236
:100CA000002D0ED0434652461A605B4620000134A8
:100CB0003D601C60142CD9DD5B4613221A60059B35
:100CC000D9E7049A079B146818000CF095FE2418C5
:100CD000142C08DC049B1C6009B0F0BCBB46B24677
:100CE000A946A046F0BD0022049B06991A600B6835
:100CF0000133032B40DD0A60EEE72249224F88468C
:100D0000224907938946191B03913B000021A60045
:100D100056441F48B60057468B469A4636180592E9
:100D20001AE0092D21D04B465A4639001A602A0094
:100D300003F0AEFA0C20012360430C382A0002991C
:100D4000C0B200930B3303F099FF04F095FC039BB2
:100D500010361D5D002DB4D043461F605346200061
:100D6000013435601C60142CDBDD53465A461A6092
:100D70004346059A1A60D6E70B60ADE7604602204D
:100D8000644602209852032094520320905203207C
:100D90004853032010B50CF02FFE084B1A6880183A
:100DA000142807D90021064A196013680133032B60
:100DB00001DD116010BD1360FCE7C04660460220F3
:100DC0006446022070B5114D114C124E02F0A6FB84
:100DD00002F0A4FB2A6823689A42F7D02368F35CE8
:100DE000FF2BF3D02A6823689A420CD00F22236885
:100DF000F05C236840B20133D917090F5B18134028
:100E00005B1A236070BD01204042FBE76452022060
:100E1000685202205452022010B502F07FFB074BAB
:100E20001968074B1A68914205D01B68054AD05CC7
:100E3000C0B240B210BDFF20FBE7C04664520220A2
:100E40006852022054520220F8B5114F05003E6846
:100E5000C821701C05F0AEFE481C0C00C82105F02E
:100E6000A9FE0C4B1B6899420AD09C4208D00A4B41
:100E70001A68AA4205D0094AB60095513C601D6027
:100E8000F8BD0020054AB600905126000C00F3E79B
:100E9000684602206C4602203C5202207046022026
:100EA0007047C046F0B5DE4657464E464546E0B56B
:100EB00097B005AB98460F000400010018000CF035
:100EC00031FD0322774907F0B1F94246390000208D
:100ED000FFF758FD40460CF08FFD060020000CF097
:100EE0008BFD152E4DD8012399466F4B002201939F
:100EF0006E4B93460293152383429B419A4602F020
:100F00000DFB4B465246134099465D460024202275
:100F1000AE4205DD3100280005F04CFE43465A5C28
:100F2000200039000134FFF7A1FC0135152CEED16A
:100F3000FFF772FF013000D17EE0FFF743FF019918
:100F4000050004000200029809F0C2F8052D00D146
:100F500097E0062D08D0013561D1CB445B46002BCC
:100F60000ADA731E9B46CAE74B46013300D195E06F
:100F700001239C469946E3445E45C0DC00239B4622
:100F8000BDE700239B4601339A46474B0193474BED
:100F90000293152383429B41039302F0BFFA534609
:100FA000039A5D4613409A46002300249946B542B1
:100FB00014DB4B46310001334846009305F0FAFD3F
:100FC000434620005A5C01343900FFF74FFC0135DD
:100FD000152C11D0009B9946B542EADA2800310061
:100FE00005F0E8FD434620005A5C01343900FFF764
:100FF0003DFC0135152CDAD1FFF70EFF013020D072
:10100000FFF7E0FE0199050004000200029809F0D4
:101010005FF8052D2BD0062D1DD0013514D042468A
:1010200039000020FFF7AEFC200017B0F0BCBB4633
:10103000B246A946A046F0BDC82005F0E5F9CB446C
:101040008CE7C82005F0E0F9D3445B46013309D1B1
:10105000731E9B46A1E7534601331CD001239C46D7
:101060009A46E344B34598DB00239B4695E75346F5
:10107000013B5A1E93415A4292465A46D31A9B4606
:10108000E3E74B46013B5A1E93415A4291465A466A
:10109000D31A9B4662E700239A46E3E7002399466A
:1010A0005CE7C046984E0110785E01109C4E01101E
:1010B00000210548016005480160054801600549B7
:1010C0000A60054A13607047945203209852032027
:1010D000905203205446022050460220F0B5C646E6
:1010E0000C4D0D4E28680D4C3368804600B52768BE
:1010F000002B09D1390001E0286821682022FFF780
:10110000B5FB3368002BF7D0434627602B6080BCCB
:10111000B846F0BD94520320905203209852032009
:1011200070B5002500242100202228000134FFF79B
:101130009DFB042CF7D10135152DF3D1FFF75AFD96
:1011400070BDC046F0B5C64600B502780700002A5B
:1011500025D0144E144D05E00137FFF787FB3A7890
:10116000002A1CD033682C68984621001800092AF0
:10117000F2D12022FFF77AFB2968A14206D1202272
:101180003068FFF773FB2968A142F8D04346013766
:1011900033602C60FFF750FB3A78002AE2D180BC24
:1011A000B846F0BD9452032098520320F0B557463C
:1011B0004E464546DE46E0B587B000236A46002528
:1011C0009382574B574E1F689946574B574C1F6099
:1011D000574BBB4601931B68B0469A4627002E002A
:1011E000544900900B603000152105F0E3FC3000FD
:1011F0000D00152105F0DEFC4346AD002D18AD00B5
:101200005B59BC1901362370542EECD1534658005B
:1012100050443C00C1005F46091A00206118C855BF
:101220000121454B454E19609B46454B4548984624
:101230001F6053463360444B01601A00039302233E
:101240001370FFF76DFF220000210020FFF79AFBCB
:101250000098FFF777FFFFF741FF4B4642461B68B8
:10126000136000221500019B1B683360002D07D01E
:10127000029807B0F0BCBB46B246A946A046F0BDF6
:1012800002F04CF9FFF7C8FD0130F9D00027FFF755
:1012900099FD01212D4B02001F602D4B029019601A
:1012A000039B1B78022B10D0220000210020FFF7A7
:1012B00069FB0098FFF746FFFFF710FF4B464246D9
:1012C0001B681360019B1B68CFE7082817D00BDC55
:1012D000012821D004280BD109236A46009805A9CA
:1012E00013750CF0C5FADFE70D2801D10125DBE706
:1012F0006B46009805A91A750CF0BAFAD4E7009A63
:101300001378002BD0D0924610000CF075FB52469B
:101310001318013B1F70C7E75B4601251F60C3E739
:101320009452032048530320144E0220C04D022043
:1013300098520320184E0220544602205C46022098
:10134000BC170020504602209B1700205846022060
:10135000284E0220F0B54746CE46202380B583B004
:1013600001AF40223B800023314E0400B354403291
:10137000B3544032B3544032B3544032B354403289
:10138000B35440323370B35403788846002B16D0E0
:10139000002506E00135072D44DC63780134002B7D
:1013A0000DD01A00093A012AF4D9A80139003018E1
:1013B00001343B700CF05CFA2378002BF1D11D480E
:1013C00008F002FE1C4B37003500002499462A0025
:1013D00021004846013408F07BFE4035082CF6D148
:1013E0000A2008F0A7FD00243A0021000020013463
:1013F000FFF7C8FA4037042CF6D143460F4C9B0147
:10140000F61802F08BF841463000FFF74BFDC3B2EF
:101410000D2BF6D88300E3589F4603B0C0BCB946F5
:10142000B046F0BD0649074808F052FEC7E7C0467F
:10143000E8350220A84E0110B84E0110805E011060
:10144000B85E0110C44E0110F8B506001C00012959
:1014500032D0032922D1244B1B68002B32D00A2022
:1014600000F0DCFD00F0D4FD070000F093FD050066
:1014700000F090FD002D30D0802815D0FF2817D027
:10148000069BA61C1F6025706070002400F082FD82
:1014900030550134AC42F9DB0120F8BD0229E1D11D
:1014A000006800F0BBFDF7E700F08AFD00F0A8FD42
:1014B000FF2D0BD00020F0E70B4B196000F0A8FDCA
:1014C0003060E9E7094808F003FEFEE7084B1868BA
:1014D000023800F0A3FD0020DFE7306800F09EFD39
:1014E000F6204042D9E7C0466C520220E04E01107F
:1014F0007C520320F0B5CE46474680B59946C5B02C
:10150000431E0400904604AE012B4DD9032C35D068
:1015100000F07EFD00F03EFD070000F03BFD002FD7
:1015200056D0802832D0FF2834D000253770707014
:1015300000F030FD731901359870AF42F8DC0125D9
:101540003378092BE2D17378812BDFD14B46002B06
:1015500002D04A46B37A13704346002B08D01221BA
:1015600008224046694406F061FE00234246137299
:10157000280045B0C0BCB946B046F0BD174B1B684B
:10158000002B1BD00A2000F049FDC1E700F018FD38
:1015900000F036FD3478FF2F14D00025092CE7D158
:1015A0007378812BE4D1D1E702AB0A0000930100EC
:1015B000330003A8FFF748FF0125D9E7084808F0E2
:1015C00087FDFEE7074B1868023800F027FDE4E7C7
:1015D000F625002000F022FD6D42B1E76C5202209A
:1015E000E04E01107C520320F0B5DE4657464E46D1
:1015F00045468946E0B57C4B7C4C1900A544070064
:101600007B4814009B4608F063FD7A4D0A942B68D2
:101610000B950393784B04931B789A46774B06936C
:10162000774B0793774B0893774B02934B4609937D
:10163000039C534622005946069808F049FD002CA9
:1016400000DCBEE00122714BB9461A6000F0E0FCFC
:1016500000226F4E03003700032116004EAC0CAD84
:101660000022C9B2BA560DA80D9300952300FFF7CA
:10167000EBFE0D9B002800D1A0E004996278097868
:10168000914201D00421EBE703990136B142F9D12F
:101690001800924626780C9D00F0C0FC00F0B8FCC3
:1016A00005902800B51C00F0B9FC0EAC2A00594684
:1016B000079808F00DFD2100280000F047FC59466E
:1016C00008984F4608F004FD002E00D17FE0514BF2
:1016D00000259846682399464346B8461F0005E012
:1016E0000800013508F026FCB5420BDA4A462B19F2
:1016F00099787B5C9343F3D10298013508F0E8FCBC
:10170000B542F3DB3B0047460598984600F086FC5F
:1017100033003A005946404808F0DAFC68239946FD
:1017200043460025B8461F0005E00800013508F0D3
:1017300001FCB5420BDA4A462B1999787B5C93433E
:10174000F3D10298013508F0C3FCB542F3DB4746FC
:1017500038000CF051F9B0460025060006E03B7851
:10176000002B0AD001350134454539DA3200390001
:1017700020000CF0A3F80028F1D1099B5946274816
:1017800099460A9C0B9D08F0A3FC0AAB46469C4672
:10179000122132004846614406F048FD00234A46C3
:1017A00001209355039B26602B608F239B009D4453
:1017B000F0BCBB46B246A946A046F0BD180000F0FA
:1017C0002DFC5946164808F083FC0020EDE70598EB
:1017D00000F024FC00233A0059460F4808F078FC3A
:1017E000039B0133039323E7D05E0110C4FDFFFF89
:1017F000F84E0110244E02209F5403204C4F01103C
:10180000644F01107C4F0110D84E01106C52022021
:10181000A2540320B5720110044F0110304F011083
:10182000404F0110F0B557464E464546DE46E0B5FE
:1018300004000E0017009846C5B0002850DD0123B3
:10184000334A1500136000F0E3FB2B688246002B3F
:101850004ED00A2000F0E2FB002302932D4B0193AF
:1018600000F0D6FB009000F095FB814600F092FB63
:101870004B46002B46D0802828D0FF282AD004AB26
:101880004A469B4600251A70587000F083FB5B4661
:101890005B1901359870A945F7DC009B03935B4603
:1018A0005A78019B1B789342DAD1029A0132029254
:1018B0009442D5D1039A504632603B705B46424613
:1018C0001B78136000F0AAFB01200AE000F078FB0F
:1018D00000F096FB4B46FF2B0ED0504600F09EFBCF
:1018E000002045B0F0BCBB46B246A946A046F0BDBC
:1018F000094808F0EDFBFEE7084B1868023800F0D5
:101900008DFBEAE7504600F089FB04AB9B46C6E737
:101910006C5202209F540320E04E01107C520320A1
:1019200030B585B000F074FB6B469C1C2100029022
:10193000012000F00BFB2278224C2348210008F004
:10194000C7FB2100214808F0C3FB6A46204B033245
:10195000186802A903ABFFF765FF029D002804D1B8
:10196000280000F05BFB05B030BD2A0021001948BB
:1019700008F0AEFB01AC280000F050FB2100022073
:1019800000F0E4FA144808F01FFB0221200000F0E8
:1019900065FB0A2008F0CEFA7F2362782800134006
:1019A000637000F03BFB2100022000F0A9FA0B4815
:1019B00008F00AFB2000022100F050FB0A2008F08A
:1019C000B9FACDE7D85E01108C4F01109C4F011081
:1019D000244E0220AC4F0110BC4F0110C84F011023
:1019E000F0B54746CE4680B5154B85B099461C6884
:1019F0006B46144ADD1D90462B78134F134E04E0BE
:101A000042462B7812789A420DD0013C22003900D0
:101A1000300008F05DFB2A00200003AB02A9FFF7AD
:101A200001FF0028ECD1002C06D04B461C6005B00D
:101A3000C0BCB946B046F0BD054800F005FBF4E770
:101A4000244E02209F540320E85E01104C4F0110E9
:101A5000D84F0110F0B54746CE4680B5154B85B03E
:101A600099461C686B46144ADD1D90462B78134F2F
:101A7000134E04E042462B7812789A420DD001347E
:101A800022003900300008F023FB2A00200003ABBD
:101A900002A9FFF7C7FE0028ECD1002C06D04B4668
:101AA0001C6005B0C0BCB946B046F0BD054800F0AA
:101AB000CBFAF4E7244E02209F540320C85E0110A5
:101AC0004C4F0110D84F011070B584B06A46104BCE
:101AD00005000732186802A903ABFFF7A3FE041E36
:101AE00002D1200004B070BD0298023000F096FAD6
:101AF000039E2900300000F029FA064808F064FA35
:101B00002800310000F0AAFA0A2008F013FAE8E7EA
:101B1000244E0220BC4F0110014B18707047C04684
:101B20009F54032010B5041E02D0034B1C6010BD4F
:101B3000024800F089FAF8E7244E0220D84F01103D
:101B4000F0B5DE4657464E4645460123E0B5354CD6
:101B5000C7B0070023608846914600F059FA236811
:101B60000190002B50D00A2000F058FA00239B4629
:101B70002D4B9A4600F04CFA00F00CFA050000F0EC
:101B800009FA002D49D0802813D0FF2815D0002451
:101B900006AE707000F0FEF9331901349870AC4253
:101BA000F8DB5246737812789B1A5A4253419B4491
:101BB000E0E700F005FA00F023FA1C4CFF2D27D0D7
:101BC00000F026FA0500002000F028FA03AB9A4640
:101BD00019000A2000F0BAF9280000F01FFA534655
:101BE0005B7822685B039B1A3B604B461A60434656
:101BF0005A4601981A6000F011FA47B0F0BCBB4693
:101C0000B246A946A046F0BD094808F061FAFEE7D1
:101C10002068023800F002FAD2E7019800F0FEF9DD
:101C200006AEBEE76C5202209F5403207C52032074
:101C3000E04E0110F0B5DE4657464E464546E0B54B
:101C4000714C6F22A54406AB019000911800002151
:101C5000994606F0E5FA6D496D4808F039FA6D4885
:101C600008F036FA00206C4B0024185600F034F9C6
:101C700001226A4B62AE1A6000F0CAF9684B694FE4
:101C80009B4601239A46002398462200584622A9E3
:101C900008F01EFA53464C44903C237000F0B8F90B
:101CA00000F078F9050000F075F9002D00D19EE0F4
:101CB000802832D0FF2834D000243570707000F0B6
:101CC00069F9331901349870A542F8DC01223378A0
:101CD000092BE3D17378812BE0D102A9C3238C4671
:101CE0005B00634419885B88C1201B040B43614679
:101CF00040000918C225088861466D004919098805
:101D0000B47A0904014322912393882163465B1826
:101D100041461970012AB8D008E000F051F900F0EE
:101D20006FF93478FF2D5DD0092C56D0802502AB99
:101D30009C4690246D423C4F654421002A5D38004A
:101D4000013408F0C5F9FF2CF7D1384808F0C0F984
:101D500000249123EA5C002A00D11C000133FF2BF0
:101D6000F8D1002C4BD1324808F0B2F9009B002B7F
:101D700043D1E3B200932F4D2100280008F0A8F9C9
:101D80000A2008F0D7F82C4B02A83380C1238446E0
:101D90005B00634401990822180006F047FA009B93
:101DA00003AAB37205A904A8FFF7CAFE039800F0BE
:101DB00035F931000B2000F0A3F82100280008F0CD
:101DC00087F90A2008F0B6F8A3239B009D44F0BCD5
:101DD000BB46B246A946A046F0BD7378812BA5D17B
:101DE00000227AE73868023800F018F99CE70020F2
:101DF00000F014F9F622524269E71C00BBE721000B
:101E00000E4808F065F9B1E774FDFFFFE05E0110D0
:101E1000E84F0110F04F0110A25403206C52022031
:101E2000085001107C5203201C5001102850011052
:101E300034500110705001100981FFFF5050011003
:101E400070B505000C0084B0FE2900DDFE246E464E
:101E50000A4B01AA1B7802A903A873703470FFF71C
:101E60006FFE019800F0DAF86946022000F048F8A9
:101E70002900200000F044F804B070BD9F540320F6
:101E8000F0B578240470CC17E404E40C6118059CC8
:101E9000DBB2E6B2069CD2B2E5B2079C4571E7B26E
:101EA00087713F02ED19F027FF01BC4624126544FB
:101EB000E4B2C4716419C37006711B1936029B1910
:101EC000827049131202C9B29B184170C91889B2B5
:101ED0000172090A4172F0BDC3B210B5012B03D9DA
:101EE000044800F0B1F810BD0022034B1870034BFA
:101EF0001A60F8E788500110A25403207C52032096
:101F0000F8B504000F000C4E230032680B490C4852
:101F100008F0DEF80B4A0C4B1278306852B25500CC
:101F2000AD18AD005B193A0021005B689847336833
:101F30001B193360F8BDC0467C520320F05E0110CF
:101F400090500110A25403209C170020F0B5C64603
:101F500000B5002814DD0C4B0C0098460B4F0C4DBF
:101F60000E180022BA56286853009B1842469B0060
:101F7000D358421C2A60984720700134A642F0D101
:101F800080BCB846F0BDC0469C170020A254032078
:101F90007C520320002110B5064B074A59564B00CE
:101FA0005B189B009A58054B1868411C19609047B4
:101FB00010BDC046A25403209C1700207C52032071
:101FC000002270B50B4E0C4CB256206853000B4DDE
:101FD0009B189B00421C5B59226098470022B25616
:101FE000206853009B189B00421C5B592260984755
:101FF00070BDC046A25403207C5203209C170020D1
:10200000024A13681B1813607047C0467C520320B5
:10201000014B18687047C0467C520320014B186082
:102020007047C0467C520320002110B5044A054B7E
:1020300051564A00521892009B189B68984710BD51
:10204000A25403209C17002010B5034B0100180078
:1020500008F03EF810BDC0469C500110F0B5DE46B9
:1020600057464E464546E0B5814695B00A2088461B
:1020700007F060FF002306AF3B704346002B4CD0B7
:1020800000240F26264B0293264B9B46264B9A464E
:10209000264B0393264B019335002540264232D030
:1020A0004B461D5D5846290008F012F85346682239
:1020B0005B5D934319D02A00019904A807F010FD35
:1020C0000134380004A90BF0D3FB4445E4D13900B6
:1020D000029807F0FDFF0A2007F02CFF15B0F0BCB6
:1020E000BB46B246A946A046F0BD2E2304AA110065
:1020F0003800013413800BF0BBFB4445E7D03500BA
:1021000025402642CCD13900029807F0E1FF21009A
:1021100003983D7007F0DCFFC2E7014B0293D6E75E
:10212000AC500110BC500110B5720110B450011038
:10213000C4500110014B1B68185C7047B817002091
:10214000F0B5DE4657464E4645468024E0B5451E6E
:10215000640016006D18020AA31A2D0AED18FF2359
:102160000F00C5B00340984604AB94469946BA4662
:102170005A4B029219682200484661449B46002748
:1021800006F054F82D0AB2440194002D4AD054466A
:102190004246AA46531CB4424BD8019A934254D0AB
:1021A00055461C00BD423DD980235B00984601E0A6
:1021B000BD4237D901344445FAD1494807F088FF78
:1021C000FEF7A6FAFA20800004F01EF9454807F051
:1021D0007FFFEFF3108A72B6434B3E021868029BF2
:1021E00022009C4660444946801912F085FD3F4814
:1021F00007F06EFF8AF31088FEF796FA3C4807F066
:1022000067FF44A9081B5946029A0B689119C9181F
:1022100001372200091906F009F8BD4202D902244B
:10222000BD42C7D845B0F0BCBB46B246A946A046A1
:10223000F0BD48463178751C8154019A934205D00F
:10224000BA45EFD91A002E00A4E73500244807F05C
:102250003FFFFEF75DFAFA20800004F0D5F8214830
:1022600007F036FFEFF3108872B61F4B3A0218687A
:10227000029B03929C4660449446802260444946F7
:10228000520012F039FD194807F022FF88F3108838
:10229000FEF74AFA164807F01BFF029A5846944682
:1022A0008022039903686144C91801310137484607
:1022B000FF31520005F0BAFFBA45B3D9B44207D98D
:1022C000AC4208D94A462B78013513700123B9E78F
:1022D0005546002468E75546012465E7B8170020F5
:1022E000C8500110D8500110B4170020F050011050
:1022F00000510110802330B5184C89B0226818496C
:102300001B03184807F0E4FEFEF702FAFA208000EB
:1023100004F07AF8EFF3108572B680212068090383
:1023200012F002FD85F31088FEF7FEF90E4B8021B6
:102330009B6A05A80293082301930D33009318228A
:102340000D3B0903FFF79CFD0A2105AA0020FFF7BA
:10235000F7FE064807F0BCFE09B030BDB4170020F8
:10236000F85E011014510110004005403451011075
:1023700010B582B06B46DC1D010023000122A320B2
:1023800001F0AAFF207802B010BDC046080010B5C9
:102390001300034A11680200A22001F0BDFF10BD26
:1023A0007C52032010B584B001AB1900064A11CA53
:1023B00011C11288A2200A8080220021520201F05D
:1023C000ABFF04B010BDC0463C510110802300B5E6
:1023D00083B001AA1370793B034050204042184358
:1023E00050700221782000F0F7FA03B000BDC0461B
:1023F00010B5102482B0030901AA23438021537031
:102400000F2311700340917078207C39D37000F055
:10241000E3FA02B010BDC046204BF0B54746CE46A9
:102420009946002380B5502700259846802683B022
:1024300001AC7F424B4642465B191A70EB113B439D
:102440002200022178206370267000F0C5FA7F23F5
:1024500010212B401A090A4362700F221340E370C7
:102460002200042178202670A67000F0B5FA00F052
:1024700075F9782000F0AEF9402000F0ABF90020AB
:1024800000F0A8F900F086F980230135DB009D42B9
:10249000D0D103B0C0BCB946B046F0BDB8490220A7
:1024A00010B5D2B202F0CEFB10BDC046F8B5744BE9
:1024B0001B68002B00D1F8BD04F0ACF804000D003F
:1024C00026002F006F4B18685968361A8F4130006C
:1024D0006D4E7268BA4239D26C4A00211C605D6050
:1024E0006B4B11601A6851424A411A60694A1B6875
:1024F0001568694A1068694A1168002B30D0002DB0
:1025000073D18300664A5B189B009B58654C9A0008
:10251000D218654B9D182E001C192643B60700D013
:1025200096E0624EB61A022E00D891E02E68604AFC
:1025300032435C4E9A55160A66701602360E120E1B
:10254000A670E27080242A79224349E0BA4202D17F
:1025500032688242C0D34D4A11680029ABD0BCE733
:1025600083004F4A5B189B009A584F4B9400A41865
:102570001E19002D1BD037004A4D5D192F43BF0790
:1025800038D14A4F3F1B022F34D93768484C3C435F
:10259000444FDC55270A6F7027023F0E240EAF70A0
:1025A000EC70802534792C43424D5C551FE03D4A48
:1025B0009D1832002A43920733D13C4A121B022A4B
:1025C0002FD934683A4A2243364C1A55140A6C7093
:1025D0001402240EAC708024120EEA703279224369
:1025E000344C1A550222FF3201E080225200FEF7DD
:1025F0007DF960E780251E5D6D422A4F2E43DE5532
:102600001C1966782C4F2E43DE55A6782B4F2E438F
:10261000DE55E67801372E43DE5524792C43E4B2AB
:10262000C2E780221D5D52421E4E15439D551C1966
:102630006578214E15439D55A578204E15439D552F
:10264000E578013615439D5524792243D2B2C7E778
:1026500080259C5C6D42134E2C439C559C186278DF
:10266000154E2A439A55A278144E2A439A55E27879
:1026700001362A439A5522792A43D2B2B0E7C0469E
:102680005446022060340220C0170020284E022049
:102690005846022050460220BC1700205C4602200B
:1026A0004853032005050000901200200405000097
:1026B00080808080090500000605000007050000F5
:1026C00070B51D4E1D4D04003068296883001C4AFA
:1026D0005B189B009A58FEF709F90022194B1A6003
:1026E000052C23D00CDD062C1AD0422C04D1164A1E
:1026F000136859424B4113600122144B1A6070BD9C
:10270000032C07D0042CF7D12B68022BF4DC013307
:102710002B60F1E72B68002BEEDD013B2B60EBE734
:102720003368132BE8DC01333360E5E73368002BB3
:10273000E2DD013B3360DFE7BC1700205C4602208E
:10274000485303205846022050460220284E0220BB
:10275000014B18607047C046C817002070B50124AF
:1027600022000A4BD0251B682D069A400A206A6277
:102770000021AA6103F0D2FD054B0A201B6800214D
:102780009C406C62AC6103F0C9FD70BD0C5D011032
:10279000085D011070B501252E000C4BD0241B687C
:1027A00024069E400A2066620021A66103F0B6FD61
:1027B000074B0A201B6800219D40A56203F0AEFD77
:1027C000A6620A20002103F0A9FD70BD0C5D011076
:1027D000085D01100122F0B51700264BC6461B68A4
:1027E000D0259F40244B04001B6808269A4000B562
:1027F00090462D0616E043466B62AB610A2000212D
:1028000003F08CFD0A200021AF6203F087FD640015
:102810006F620A200021AF61013E03F07FFDE4B248
:10282000002E05D063B2002BE5DA4346AB62E5E744
:10283000D02443462406A3620A200021A76203F0A5
:102840006DFD424663681A4211D0434664682340D6
:102850001C0063425C41D0231B065F620A209F611B
:10286000002103F05BFD200080BCB846F0BD0124D0
:10287000F1E7C046085D01100C5D0110F0B54F4650
:102880004646D6460125C0B52F00224BD0241B68F2
:1028900080469F40204B89461B6808269D400023A8
:1028A0009A462406A7620A20002103F037FD002182
:1028B0000A20A56203F032FD53465A0063680A20DD
:1028C0003B40591E8B419A4665620021A561013E3D
:1028D000924403F023FD002EE5D14B46002B16D089
:1028E0006762A761D0242406A5620A20002103F0B4
:1028F00015FD65620A20A561002103F00FFD434626
:1029000052461A70E0BCBA46B146A846F0BDA7626E
:10291000E8E7C0460C5D0110085D0110F0B5DE4629
:1029200057464E464546E0B517000122284BD024B5
:102930001B6891469A40240683B0050062620A2013
:10294000A2610E000021924603F0E8FC4A46214BAA
:102950000A201B6800219A406262A261914603F03E
:10296000DDFC2800FFF736FF8346002814D0002E38
:1029700010DD731E98466B460024DD1D4346191B6F
:102980004B1E99412800FFF779FF2B783B55013406
:10299000A642F3D1D024240653460A2063620021C4
:1029A000A36103F0BBFC4B460A20A362002103F0A5
:1029B000B5FC53460A200021A36203F0AFFC584641
:1029C00003B0F0BCBB46B246A946A046F0BDC04627
:1029D0000C5D0110085D0110F8B5CE464746012692
:1029E00080B537001C4BD0241B6824069F408146CD
:1029F0000D000A2000216762A761904603F08EFC5B
:102A0000164B0A201B6800219E406662A66103F0F7
:102A100085FC4846FFF7DEFE002D07DD44466519BC
:102A200020780134FFF7D6FEAC42F9D1D024240639
:102A300067620A20A761002103F070FCA6620A20E9
:102A4000002103F06BFCA7620A20002103F066FC62
:102A5000C0BCB946B046F8BD0C5D0110085D011060
:102A60007047C0460120034A13681968024B116081
:102A700018607047201900204C5202200122034B9D
:102A80001A60034B034A1A607047C0464C5202203A
:102A900020190020741800200122034B1A60034BF8
:102AA000034A1A607047C0464C5202202019002089
:102AB000FC1700200122034B1A60034B034A1A60E3
:102AC0007047C0464C52022020190020CC1700202D
:102AD00000B5002391B0002200210020FEF7E8FAA3
:102AE0000948FEF72FFB6846084B1E211A68009222
:102AF0001B79002203710023FEF758FB0122044BCF
:102B00001A6011B000BDC046485101105451011067
:102B10004C52022000B591B00923092268460A49A7
:102B200006F0DEFF0023002200210020FEF7C0FA9D
:102B30006846FEF707FBFEF7D1FAFEF743F90122DC
:102B4000024B1A6011B000BD5C5101104C520220C2
:102B500010B5FEF7E5FA0023002200210020FEF761
:102B6000A7FA0648FEF7EEFAFFF75EFA0120044ADC
:102B700013681968034B1160186010BD745101107F
:102B8000201900204C52022070B501240F4D210065
:102B90002868FEF7DFFB0300032804D0042806D0D2
:102BA000012BF4D170BD002CF1D0013CEFE7022CD9
:102BB00003DC0134EBE70428F2D121002868FEF79A
:102BC000C9FB03000328F6D1EFE7C0461C1900201B
:102BD000F0B5DE464E46574645460023E0B5CDB03B
:102BE00004AD2B70FEF79CFA584B00211A00002010
:102BF0009B46FDF763FF2800FEF706F8002201233D
:102C00009246534A534E9146534A33700192012BD8
:102C10002FD0022B00D184E0032B00D0FEE703ABC2
:102C200098460CAF9020FEF777FF42463900280007
:102C3000FEF7DAFC041E53D04C4648492268484847
:102C400007F046FAFEF76CFA5A4600210020FDF71D
:102C500035FF51463800FEF77DFBC3B20D2B05D87A
:102C6000404B80001B589F46FEF75AFE3378012BDD
:102C7000CFD10023002240212800FEF797FA012837
:102C80003CD00D28F2D10223337003AB9846304C70
:102C90000CAF1DE0FEF7DEFE3378B8E7524654462F
:102CA00002210020D20FA142424133789244AEE784
:102CB00052465146D217521AD20F8A1A9246337888
:102CC000A5E72B78002B33D000232B700233337011
:102CD000254807F0FDF90123236002333370A1E793
:102CE000019807F0F5F901230022337040210023F9
:102CF00028002C70FEF75AFA0128C2D12B78002B3D
:102D000014D000232B70FEF70BFA5A460021002046
:102D1000FDF7D4FE2A0000210520FDF7CFFE337811
:102D200075E703AB4C4698460CAFD1E70F4B1860E4
:102D30000023002200210020FEF7BAF94DB0F0BCBC
:102D4000BB46B246A946A046F0BDC046845101101C
:102D5000244E0220A1540320BC51011064600110D4
:102D6000A4510110105F01108C5101104C5202202F
:102D700010B50B4807F0ACF932240420FDF726FB10
:102D8000012003F041FB0420FDF72EFB013C012054
:102D900003F03AFB002CF0D1024807F099F910BD7E
:102DA000D0510110D85101107047C0467047C0463D
:102DB0007047C0467047C04610B5FEF7B1F9002114
:102DC0000020124AFDF7DEFD01210020104AFDF728
:102DD000D9FD01230F4C236001200021404207F060
:102DE000D7FCFFF763FB01F06DF9FEF715F8013032
:102DF000F2D0FDF7E7FF012802D0FFF761FCEBE717
:102E000000232360044B186010BDC046E45101103C
:102E1000F8510110544602204C52022030B589B0BE
:102E2000FEF77EF900210020154AFDF747FE154DFB
:102E300001200021404207F0ABFCFFF737FB01F017
:102E400041F9FDF7E9FF0130F2D0FDF7BBFF0400C7
:102E5000020003002900009003A806F041FEE0B242
:102E6000FEF71EF8FDF7F0FF0121002003AAFDF791
:102E700089FD012CDCD1044B1C6009B030BDC0467B
:102E800008520110185201104C52022070B5094826
:102E900007F01EF901221500074BD0241B68FA2009
:102EA0009D402406054BA56140001A6003F0ACFA72
:102EB000A56170BD2C520110F85C0110A4520320D2
:102EC00030B589B000236C462370FEF729F91E4DFA
:102ED00000202A000021FDF7F1FD6846FDF794FE71
:102EE00001200021404207F053FCFFF7DFFA01F018
:102EF000E9F80023002240212000FEF757F90128BD
:102F00001AD00D28ECD19020FEF706FE20000AF022
:102F100073FD01002000FEF793FF00232370FEF7EE
:102F2000FFF82A0000210020FDF7C8FD2200002143
:102F30000520FDF7C3FDD3E72378002BEDD1034B2C
:102F4000186009B030BDC0463C5201104C520220FE
:102F5000F0B5DE46454657464E46E0B583B0FFF72E
:102F60005BFA002500242000012229000134FFF72C
:102F700097FA792CF7D10A35282DF3D100250024B2
:102F80002100012228000134FFF78AFA1F2CF7D113
:102F90000A35822DF3D1FA20C00003F035FAFFF78D
:102FA0003BFA00239B46009301339A46023B0122E1
:102FB000984601935B467D4E9D259146B3461F0082
:102FC0007B4C6D00380000220099FFF769FA019FE1
:102FD000504639000022FFF763FA49465046002266
:102FE000FFF75EFA390040460022FFF759FAAB447A
:102FF000002249464046FFF753FA6421584603F041
:10300000D9FD361907006421300003F0D3FD804656
:10301000010001223800FFF743FA43467A1C92462A
:103020000093013B1900012250460193FFF738FA43
:10303000009A50460132914601224946FFF730FA84
:103040007A1E9046019901224046FFF729FA012293
:1030500049464046FFF724FA564B9B453EDDE804BF
:10306000401B8000401BC00040198001401B8000B5
:10307000401B514903F09EFDC82305001B019E42E1
:1030800056DDE004001B8000001BC0000019000199
:10309000001BC00000194849400003F08BFD454B60
:1030A000C82604009B46360101200021404207F05B
:1030B0006FFBFFF7FBF901F005F8FDF7ADFE0130FE
:1030C00080D0FDF77FFE012865D006285FD0052857
:1030D0005FD0032800D075E7643473E7C8231B0171
:1030E0009E423DDDE004001B8000001BC000001973
:1030F0000001001BC00000192F49400003F05AFDD9
:10310000962604007600B3454CDAE804401B8000A4
:10311000401BC00040194001401B80004019264957
:10312000400003F047FDB346C82605003601BBE763
:10313000204B9B4696235B009E42B5DAE004001BC1
:103140008000001BC00000190001001BC000001916
:103150001949400003F02EFD962604007600A3E7EF
:1031600096235B009B45E5DAE804401B8000401B8A
:10317000C00040194001401B800040190E4940002A
:1031800003F018FD96235B0005009B46D2E76435EB
:1031900018E7643D16E703B0F0BCBB46B246A9464B
:1031A000A046F0BDC82636017EE7C0468813000061
:1031B00041020000D430000010270000F0B5DE46C8
:1031C0004E4657464546E0B5BA4895B006F080FFF2
:1031D0000A2006F0AFFEB84806F07AFF0A2006F093
:1031E000A9FEB64806F074FFB54806F071FFB54871
:1031F00006F06EFFB44806F06BFFB44CFFF70CF915
:10320000B34B00260E930F940023B24C0C930D94F5
:103210000023B14C029303940523B04C0993B04BA7
:1032200010931194002401200021404207F0B0FACD
:10323000FFF73CF900F046FF099B002B00DC9FE004
:1032400010981199A74B002203F053FF00230A9016
:103250000B91089312961394089803F0C1FF0C9EEB
:103260000D9F32003B0004000D0003F01BFF9E4A3F
:10327000049005919D4B2000290003F03AFF3B008C
:10328000320003F00FFF00260023002799469846DE
:1032900034003D0006900791049A059B2000290008
:1032A00003F000FF32003B0004000D000698079970
:1032B00003F0F8FE009001912000290004F048F886
:1032C00006000F000098019904F042F802000B007C
:1032D0003000390003F0E6FE06000F002000290050
:1032E00004F020F804000D000098019904F01AF889
:1032F00002000B002000290003F0D4FE0400484621
:103300000D0003F06DFF0A9A0B9B03F053FF431E61
:10331000984100228346764B2000290003F0E9FE05
:103320000022744B03F0E5FE0022724B03F0BAFE5C
:1033300003F06EFF824600226D4B3000390003F02F
:10334000D8FE029A039B03F0D4FE029A039B03F07B
:10335000A9FE03F05DFF5A465146FFF7A1F801238D
:103360009C46089BE0449C46099BE144984593D1C8
:10337000634601330893642B00D06DE7129E139CC3
:103380000C980D990E9A0F9B03F08CFE0C900D91EA
:10339000FDF742FD013009D0FDF714FD012814D0DE
:1033A000062809D0052831D0032815D1002E00D1D8
:1033B00039E7FFF731F836E70298039902000B006E
:1033C00003F070FE02900391F0E715B0F0BCBB462D
:1033D000B246A946A046F0BD4E2804D1464806F0A4
:1033E00077FE0024E2E748283AD0542833D02B282F
:1033F0003BD1012C21D0022C11D0099B01331900A3
:103400003E480993002406F063FECFE70298039933
:103410000022374B03F06DFE02900391C6E7384A55
:10342000384B1098119903F03DFE02000B0036480E
:103430001092119306F04CFEB8E70E980F99304A9F
:10344000324B03F02FFE0C9A0D9B0E900F913048DB
:1034500006F03EFEAAE72F4806F03AFE0124A5E753
:103460002D4806F035FE0224A0E72D281BD1012CA3
:1034700004D0022C10D0099B013BC0E70E980F9995
:103480001F4A224B03F005FE0C9A0D9B0E900F91E4
:103490001F4806F01DFE89E7194A1A4B109811992A
:1034A00003F0F7FDC1E7202800D07FE701235E404D
:1034B0007CE7C0464452011064520110885201104A
:1034C000C8520110E8520110005301109999993F18
:1034D0009A99999900003440000050406666E63F92
:1034E0006666666600407F409A4B235291630540B2
:1034F0000000E03F00003040245301104853011009
:103500007B14AE47E17A943F58530110E17A743F3F
:10351000505301103C53011030530110012010B5DD
:103520000021404207F034F9FEF7C0FF00F0CAFD69
:1035300010BDC046F0B5C646274F00B53B68002B0E
:1035400023D1FDF769FC013002D180BCB846F0BD43
:10355000FDF738FC214B1C68237B262BF5D022007D
:103560000021183206E00C3213000C3B1B780131AD
:10357000262BEAD08342F6D14B005B189B00E4185F
:103580006369984701233B60DFE700233B60FDF759
:10359000C7FD124D2A68137B262B1AD0104B00242E
:1035A0000021984609198E0092191069FDF7F2FB67
:1035B0002B6801349B191869FDF726FB4046FDF77F
:1035C00023FB61002A680B199B00D3181B7B262B59
:1035D000E8D193689847B4E74C52022020190020A4
:1035E000605301100022044B1A60044B01321A6030
:1035F000034B044A1A607047485202204C52022082
:1036000020190020B018002010B5FFF793FF10BD5F
:1036100070B594B0160005000C00FDF781FD002E7A
:1036200017D00D4B2A001D001900684606F058FA05
:103630006A4600210020FDF741FA22002900684671
:1036400006F04EFA6A4601210020FDF737FA14B061
:1036500070BD024BE6E7C046645301106C53011085
:10366000F0B595B0FDF75CFD3A4C002221006846AC
:1036700006F036FA6A4600210020FDF71FFA0027FF
:103680002100012500240022684606F029FA6A4636
:1036900001210020FDF712FA2F4E012000214042A7
:1036A00007F076F8FEF702FF00F00CFDFDF7B4FB23
:1036B0000130F2D0FDF786FBC3B2462B04D883005D
:1036C000F3589F4601235D402A0039002000FFF790
:1036D0009FFFE2E7002D0DD03F01303803E0002DC1
:1036E0000DD03F013738C719012239002000FFF7FC
:1036F0008FFFD2E7BB00DB195B003038C718002210
:1037000039002000FFF784FFC7E7E71B2A003900D4
:103710000020FFF77DFF0024BFE73900200003F001
:1037200049FA0700F2E700220C4B39001A6020002A
:103730002A00FFF76DFF15B0F0BD6743E6E73F19BC
:10374000E4E738002A0000213C00FFF761FF002772
:10375000A3E7C04664530110485F0110544602209D
:103760000022014B1A607047785203207047C04610
:10377000064B1B6819003039392B01DD573B190006
:10378000034A13681B010B43136070473852022031
:10379000785203200122014B1A60704734520220F4
:1037A0000021002010B503F003F9C04600210020DD
:1037B00010B503F0FDF8C04610B50A2006F0BAFBBC
:1037C00010BDC04610B5034B0100180006F080FC88
:1037D00010BDC0469454011070B50A2006F0AAFB33
:1037E000074C084D2600FC366268216828000C341E
:1037F00006F06EFCB442F7D10A2006F09BFB70BDC8
:1038000024190020A854011070B50A2006F092FB7C
:103810000B4C0C4E2500A535FF35626813782A2B1A
:1038200003D03000217806F053FC0C34AC42F4D1C4
:10383000054806F04DFC0A2006F07CFB70BDC04632
:10384000201A0020B4540110C0540110F0B5DE4617
:103850004E46574645468022E0B52D4C0021A544F2
:1038600010ABD200A32000F037FD0A2006F062FB67
:10387000002302AE3370274B00249846264B99460E
:10388000264B9B46264B9A460CE04946684606F076
:1038900027F96946300009F0EBFF80230134DB0093
:1038A0009C4229D01F4BE5180F231F0027402342BD
:1038B00009D0434668212A789B5C8B43E5D12E23AF
:1038C0006A461380E5E73100584606F001FC210006
:1038D0005046377006F0FCFB434668212A789B5C13
:1038E0008B43ECD00C49684606F0FAF86946300084
:1038F00009F0BEFF0134D5E70A2006F01BFB0A4B96
:103900009D44F0BCBB46B246A946A046F0BDC046A9
:10391000BCEFFFFFB5720110C4500110AC50011094
:10392000E45401100000181044100000F0B5DE4609
:1039300057464E464546E0B50A2093B006F0FAFADF
:10394000002304AE33708023244F9B003C68E318AF
:103950009C4239D2224B9946224B9846224B9B4699
:10396000224B0193224B9A4610E051462A0002A8AE
:1039700006F0B6F802A9300009F07AFF8022920022
:1039800094463B6801346344A3421DD90F231D00B4
:10399000254023420ED025784846290006F098FBA2
:1039A000434668225B5D9343DFD12E2302AA1100B8
:1039B0001380E0E73100584606F08AFB21000198A9
:1039C000357006F085FBE6E70A2006F0B3FA13B07F
:1039D000F0BCBB46B246A946A046F0BD78520320D3
:1039E000BC500110B5720110AC500110B450011060
:1039F000C450011010B5034B034A1A60FFF796FF3D
:103A000010BDC046785203200000181010B584B0D5
:103A100001AB1900074A11CA11C1108808809278B9
:103A2000A3208A70044A11680A2200F075FC04B0D1
:103A300010BDC046EC5401107852032010B5044864
:103A400006F046FBFEF7F0FA024806F041FB10BD17
:103A5000F854011028500110002110B5034B044800
:103A6000595606F035FBFEF7DFFA10BDA2540320CD
:103A700008550110002170B5214D8CB069562148C0
:103A8000413106F025FB03AA02A901A8FEF758F868
:103A9000039A01991C4806F01BFB6B460021DC1CB5
:103AA0002300695604AA0120FDF724FD002123000C
:103AB0000320695604AAFDF71DFD002817D0134EF8
:103AC0002078FEF729F803AA02A901A8FEF738F822
:103AD000029B227804A9300006F0FAFA00212300A4
:103AE0000420695604AAFDF705FD0028E8D100214D
:103AF0002300695604AA0220FDF7FCFC0CB070BD3F
:103B0000A2540320185501102C55011054550110D2
:103B100010B5FFF7AFFF10BD70B51B211D4806F0B3
:103B2000D7FA1D4806F050FA1B211C4806F0D0FABF
:103B30001B4C1C4D236828005A425341236006F059
:103B4000C7FA0A2006F0F6F92368002B1FD01649A1
:103B5000164806F0BDFA0A2006F0ECF9144806F003
:103B6000B7FA144806F0B4FA134806F0B1FA13484D
:103B700006F0AEFA124806F0ABFA0A2006F0DAF9BF
:103B8000280006F0A5FA0A2006F0D4F970BD0D4908
:103B9000DEE7C0463C4E01107C55011088550110EF
:103BA000305303209055011070550110BC55011081
:103BB000D4550110E8550110F85501100C560110AC
:103BC000245601107455011070B51B211F4806F0D2
:103BD0007FFA1F4806F0F8F91B211E4806F078FA14
:103BE0001D4C1E4D236828005A4253411C4A236035
:103BF000136859424B41136006F06AFA0A2006F036
:103C000099F92368002B1FD01649174806F060FA6F
:103C10000A2006F08FF9154806F05AFA144806F003
:103C200057FA144806F054FA134806F051FA1348AC
:103C300006F04EFA0A2006F07DF9280006F048FA50
:103C40000A2006F077F970BD0D49DEE73C4E011001
:103C50007C5501103C560110305303209055011043
:103C60002C53032070550110BC550110D455011080
:103C7000E8550110F85501100C560110245601109A
:103C80007455011010B590210148FDF7D3FF10BD08
:103C90004856011010B500240A2006F04BF9074BD6
:103CA0001C57FEF7B5F9064B02002100180006F07C
:103CB0000FFA0A2006F03EF910BDC046A2540320B8
:103CC00050560110F0B5C64600B51A4B84B01968BD
:103CD000194806F0FDF9012009F012F8174B010010
:103CE000180006F0F5F9164D00212A686B68154892
:103CF00006F0EEF9144B01249846AA68EB6803CD50
:103D000016001F00361A8F413000390002900391CF
:103D1000611E0191009421004046013406F0D8F95B
:103D2000072CEAD10A2006F005F904B080BCB84699
:103D3000F0BDC0464846022070560110885601105A
:103D4000F03702209C560110B056011010B5042027
:103D5000FDF77AF810BDC04600B587B001AA09F09A
:103D6000DBFC002101A8FDF765FF07B000BDC046E0
:103D700000B583B001AA09F0CFFC0198C0B2FDF7ED
:103D8000CBFE03B000BDC04610B5044B0448196813
:103D900006F09EF9FDF7C4FD10BDC046244E02207A
:103DA000D856011000B5C3B002AB01AA0A4909F008
:103DB000B3FC019A02A9094806F08AF90198C0B239
:103DC000FDF7AAFE02A809F017FE010002A8FEF7FF
:103DD00037F843B000BDC046E4560110F456011058
:103DE00000B5C3B06A4601AB074909F095FC074B23
:103DF00007481A78074B196806F06AF902A8FDF718
:103E000063FE43B000BDC046145701109F54032009
:103E10001C570110244E022010B5FDF71BFE10BDEB
:103E200070B5D2B000236A46137202AA09F074FC7E
:103E30000B4E0C4D0AE03468FEF7EAF82100020050
:103E400012AB280006F044F9FDF704FE01AA12A9FE
:103E500002A8FDF7C9FB0028EDD152B070BDC046E5
:103E6000244E02204057011000B583B001AA09F08A
:103E700053FC019840B2FEF72FF80021034B044891
:103E8000595606F025F903B000BDC046A2540320E0
:103E90005457011000B583B001AA09F03DFC019808
:103EA000FDF740FE03B000BD10B5FDF799FD10BD54
:103EB000002310B50B2488B0059301330693133308
:103EC000079306AB05AA009307AB09F025FC0798FA
:103ED0006C44C0B22070FDF71FFE059840B2FDF79C
:103EE000FBFF2200069804AB03A9FDF79BFC00280A
:103EF00013D007990B4806F0EBF803990A4806F02F
:103F0000E7F80499094806F0E3F80021084B09484E
:103F1000595606F0DDF808B010BD074806F0D8F88D
:103F2000F9E7C04664570110745701108457011017
:103F3000A254032054570110945701107047C046F3
:103F400010B50A2005F0F6FF10BDC046394BF0B59C
:103F5000DE469B4657464E46454600235A46E0B548
:103F600089B01360344B354F9A46354B354C03932B
:103F7000354B0493354B0593354B994607AB984623
:103F80003B005F469B4648465346049900680978C3
:103F9000039A49B21B68127841310090059806F0E7
:103FA00097F8434620221A8000232370642005F0EE
:103FB00075FF0500831CF9D00D2D10D01B2D0ED0E0
:103FC000280005F0B7FF200009F016FD8028EDD08D
:103FD0004346414620181D7009F006FDE6E75E469F
:103FE0000025029703E001350C36152D1DD03768EA
:103FF000380009F001FD21000200380009F05EFCE4
:104000000028F0D16B005B199B00029F5B4459684C
:1040100020009B6898473B68002BB4D009B0F0BCE7
:10402000BB46B246A946A046F0BD029F3B68002BA6
:10403000A9D0F3E734520220244E02202419002094
:104040009F540320A8520320A2540320A857011014
:104050007C52032030B5174883B005F0B5FF1648F1
:1040600006F036F820236A4693800023134D2B7008
:10407000642005F013FF0400831CF9D00D2C10D030
:104080001B2C0ED0200005F055FF280009F0B4FCD1
:104090008028EDD06B46281801A91C7109F0A4FCFA
:1040A000E6E700212800FDF7C5FD054806F010F8F9
:1040B00003B030BDC8570110DC570110A8520320CF
:1040C0002850011070B5694D00202C68002C1AD0C2
:1040D00005F0E4FE0400831C14D0654E3368012B08
:1040E00040D0022B2BD0002B0CD11B285BD0614D74
:1040F00044B22C70013405D0FFF710FA0023EB56C0
:104100000133F9D170BD05F0C9FE831CFAD05A49BC
:104110000B0003E001340C33232CF3D01A788242D5
:10412000F8D1564B186063001B199B00C9188B68A7
:104130009847534B5348196805F0CAFFE2E74328F4
:1041400068D019DC412851D042282FD10423494D91
:104150002B70FFF7E3F90023EB560133F9D100236D
:104160003360CFE76D284BD012DC1B2872D05B2860
:104170005AD102233360C5E7442817D105233D4DAA
:104180002B70FFF7CBF90023EB560133F9D1E6E7AB
:104190006F2849D1374D2B70FFF7C0F90023EB563C
:1041A0000133F9D1DBE701333360ABE70023314D55
:1041B0002B70013305D0FFF7B1F90023EB56013323
:1041C000F9D100232B70013305D0FFF7A7F90023A5
:1041D000EB560133F9D164B22C700134BFD0FFF734
:1041E0009DF90023EB560133F9D1B8E70323214DA4
:1041F0002B70FFF793F90023EB560133F9D1AEE7AB
:1042000002231C4D2B70FFF789F90023EB56013375
:10421000F9D1A4E70623174D2B70FFF77FF9002390
:10422000EB560133F9D19AE70023124D2B7001337D
:1042300005D0FFF773F90023EB560133F9D164B2CF
:104240002C7001348BD0FFF769F90023EB56013352
:10425000F9D184E700231B210B482B60336005F064
:1042600037FF0A4805F034FF4CE7C04630530320BF
:10427000385303209A170020201A002038520220B9
:10428000785203200C580110F0570110F857011014
:10429000F0B50D4C060024680D00170083B0002C0B
:1042A00001D103B0F0BD1B21084805F011FF1B210F
:1042B000B31CAA1C0097064805F00AFF1B210548FD
:1042C00005F006FFEDE7C04630530320284E0110ED
:1042D00018580110384E0110F0B5040083B00D4895
:1042E00016001F000D0005F0F3FE0F20FEF730FA58
:1042F000FE206B46204001AA02216DBA9D80FEF788
:104300006BFB01231C433A003100E0B2FEF706FBD1
:1043100003B0F0BD1C5A0110F8B5070012480E009A
:1043200015001C0005F0D4FE0F20FEF711FAFEF771
:1043300015FAFE203840FEF74DFA3012C0B2FEF7F3
:1043400049FAF0B2FEF746FA002D06DD651920782D
:104350000134FEF73FFAAC42F9D1FEF71BFA042014
:1043600002F052F8F8BDC0461C5A0110F0B545469F
:10437000DE4657464E46E0B50400884685B0002A22
:104380004AD12368002B00D09847A369002B3CD06A
:10439000234B04349B46234B9A46234B9946234B8D
:1043A000039307E0022B01D163699847E36A18344D
:1043B000002B2AD0E06809F01FFB53462768666887
:1043C0000193A3683200C31802333900009305003B
:1043D0005B464046FCF766F9E3683200009339001B
:1043E0004B464046FCF75EF9237C012BDAD163692A
:1043F000E9191B68320000934046039B02311834D0
:10440000FCF750F96369002BD4D105B0F0BCBB4672
:10441000B246A946A046F0BD0800FCF771F9B0E726
:10442000345A011028550110385A011084560110D1
:10443000F0B5C64600B588B08C4602A998460B0078
:104440000E4C170024CC24C31D000D4C45CC45C395
:10445000227860461A700B4B0722019303F0E6FEA8
:1044600029000C22380003F0E1FE0322404601A996
:1044700003F0DCFE08B080BCB846F0BD3C5A011029
:10448000445A0110312E3000074B10B51B78040040
:104490000120002B00D110BD00233A220221200070
:1044A00007F026FC0020F6E79E54032080235B00E3
:1044B0000B60DB1813807047002B01D0002A01D05D
:1044C00001207047014B01321A70F9E79E54032016
:1044D000180010B5FF2908D8054B49028918C918DA
:1044E000029A03F0A3FE029810BD01204042FBE7B0
:1044F000C41B002001207047F8B5CE4647469946B8
:1045000080B5FF2926D84D02AD18A8461349144896
:10451000884405F0DDFD089B002B11D01E004C46A1
:104520006827104D4E4402E00134A64208D020789E
:104530002A5CBA43F8D0013405F0FCFCA642F6D15F
:1045400049464046089A03F071FE0898C0BCB94637
:10455000B046F8BD01204042F8E7C046C41B002029
:10456000545A0110B572011010B500232022052104
:1045700007F0BEFB0120404210BDC046F0B501254A
:104580002A00D64B4F461B6846469A40D646130033
:10459000D022C0B52E0012065361D14B90461B6845
:1045A0002C009E4056612A00CE4BAE271B689A40D5
:1045B00043465A619A619E61CB4B92461B689C4070
:1045C000CA4B1B689D400823994615E043469D61F0
:1045D000012000219C6101F0A1FE434601205C61A5
:1045E000002101F09BFE01235B429C46E1444B46C7
:1045F0007F00FFB2002B05D07BB2002BE6DA4346EA
:104600005D61E5E7D02352461B065E6198469A61DC
:104610009E610823D527994615E043469D610120F8
:1046200000219C6101F07AFE434601205C6100217B
:1046300001F074FE01235B429C46E1444B467F003F
:10464000FFB2002B05D07BB2002BE6DA43465D615A
:10465000E5E7D02753463F067E610120BB6100217C
:10466000BE617D61BC6101F059FE012000217C61C9
:1046700001F054FE0723984601200021BD61BC6172
:1046800001F04CFE012000217C6101F047FE012376
:104690005B429C46E0444346002BEDD153467E618D
:1046A000BB6108239946D0231B06BE619846A82704
:1046B00015E043469D61012000219C6101F02EFE22
:1046C000434601205C61002101F028FE01235B428A
:1046D0009C46E1444B467F00FFB2002B05D07BB2E5
:1046E000002BE6DA43465D61E5E7D02352461B0620
:1046F0005E6198469A619E6108233F27994615E0BE
:1047000043469D61012000219C6101F007FE434664
:1047100001205C61002101F001FE01235B429C4607
:10472000E1444B467F00FFB2002B05D07BB2002B4B
:10473000E6DA43465D61E5E7D02352461B065E613B
:1047400098469A619E610823D327994615E043460F
:104750009D61012000219C6101F0E0FD43460120A4
:104760005C61002101F0DAFD01235B429C46E144DB
:104770004B467F00FFB2002B05D07BB2002BE6DA60
:1047800043465D61E5E7D02753463F067E61BB6146
:1047900008239846BE6101200021BD61BC6101F083
:1047A000BDFD012000217C6101F0B8FD01235B42C9
:1047B0009C46E0444346002BEDD153467E61BB61ED
:1047C00008239946D0231B06BE61984640277BB23A
:1047D000002B14DA434601205D6100219C6101F049
:1047E0009DFD434601205C61002101F097FD0123FE
:1047F0005B429C46E1444B46002B16D000274346C3
:1048000001209D6100219C6101F088FD434601204B
:104810005C61002101F082FD01235B429C46E14482
:104820004B467F00FFB2002BD1D1D02352461B064E
:104830005E6198469A619E610823A627994615E015
:1048400043469D61012000219C6101F067FD4346C4
:1048500001205C61002101F061FD01235B429C4667
:10486000E1444B467F00FFB2002B05D07BB2002B0A
:10487000E6DA43465D61E5E7D02352461B065E61FA
:1048800098469A619E610823A427994615E04346FD
:104890009D61012000219C6101F040FD4346012003
:1048A0005C61002101F03AFD01235B429C46E1443A
:1048B0004B467F00FFB2002B05D07BB2002BE6DA1F
:1048C00043465D61E5E7D02352461B065E6198468C
:1048D0009A619E610823A12799461FE0045D01109B
:1048E000FC5C0110005D0110085D01100C5D011001
:1048F00043469D61012000219C6101F00FFD43466C
:1049000001205C61002101F009FD01235B429C460E
:10491000E1444B467F00FFB2002B05D07BB2002B59
:10492000E6DA43465D61E5E7D02352461B065E6149
:1049300098469A619E610823C827994615E0434628
:104940009D61012000219C6101F0E8FC43460120AB
:104950005C61002101F0E2FC01235B429C46E144E2
:104960004B467F00FFB2002B05D07BB2002BE6DA6E
:1049700043465D61E5E7D02352461B065E619846DB
:104980009A619E610823DA27994615E043469D61A6
:10499000012000219C6101F0C1FC434601205C61C3
:1049A000002101F0BBFC01235B429C46E1444B46E5
:1049B0007F00FFB2002B05D07BB2002BE6DA434626
:1049C0005D61E5E7D02352461B065E6198469A6119
:1049D0009E6108231227994615E043469D610120F8
:1049E00000219C6101F09AFC434601205C6100219A
:1049F00001F094FC01235B429C46E1444B467F005E
:104A0000FFB2002B05D07BB2002BE6DA43465D6196
:104A1000E5E7D02352461B065E6198469A619E6187
:104A200008238127994615E043469D610120002116
:104A30009C6101F073FC434601205C61002101F0A0
:104A40006DFC01235B429C46E1444B467F00FFB274
:104A5000002B05D07BB2002BE6DA43465D61E5E72B
:104A6000D02352461B065E6198469A619E610823D8
:104A70008F27994615E043469D61012000219C61E6
:104A800001F04CFC434601205C61002101F046FC32
:104A900001235B429C46E1444B467F00FFB2002B62
:104AA00005D07BB2002BE6DA43465D61E5E7D02313
:104AB00052461B065E6198469A619E610823D9277B
:104AC000994615E043469D61012000219C6101F05B
:104AD00025FC434601205C61002101F01FFC0123FD
:104AE0005B429C46E1444B467F00FFB2002B05D061
:104AF0007BB2002BE6DA43465D61E5E7D023524600
:104B00001B065E6198469A619E6108232527994697
:104B100015E043469D61012000219C6101F0FEFBF0
:104B2000434601205C61002101F0F8FB01235B4258
:104B30009C46E1444B467F00FFB2002B05D07BB280
:104B4000002BE6DA43465D61E5E7D02352461B06BB
:104B50005E6198469A619E610823DB27994615E0BD
:104B600043469D61012000219C6101F0D7FB434633
:104B700001205C61002101F0D1FB01235B429C46D6
:104B8000E1444B467F00FFB2002B05D07BB2002BE7
:104B9000E6DA43465D61E5E7D02352461B065E61D7
:104BA00098469A619E6108233427994615E043464A
:104BB0009D61012000219C6101F0B0FB4346012072
:104BC0005C61002101F0AAFB01235B429C46E144A9
:104BD0004B467F00FFB2002B05D07BB2002BE6DAFC
:104BE00043465D61E5E7D02352461B065E61984669
:104BF0009A619E610823AF27994615E043469D615F
:104C0000012000219C6101F089FB434601205C6189
:104C1000002101F083FB01235B429C46E1444B46AB
:104C20007F00FFB2002B05D07BB2002BE6DA4346B3
:104C30005D61E5E7D0231B065E61E0BCBA46B14684
:104C4000A846F0BD70B5802811DC40290FDC072490
:104C5000CB1723405B18DB10DB0118180123064E2D
:104C60000C40A340355C002A02D01D43355470BD72
:104C70009D433554FBE7C0460C420220F0B5DE46AA
:104C800057464E464546E0B585B00EAC203A2478EE
:104C9000D2B2002B00D144E10C2B00D156E2B54D2D
:104CA00012015219651EAC41002764420394B24CB4
:104CB0000292A0460A0001970090FBE0009880282D
:104CC00000D935E1402A11D807278146D610174070
:104CD000F6014E44B9460127484687404046BA4649
:104CE000805D07005046874340468755634500D1A5
:104CF0000CE1660600D541E1961CF6B2B446761A80
:104D0000B146402D00DD1DE20098EE1082460720DE
:104D100007002F400125BD40F60156444046AA46F3
:104D2000855D50468543404685554B4500D1EDE0B5
:104D3000A50600D540E1D61CF6B2751AA94665460F
:104D4000402D14DC00986746824607200740BC4689
:104D50000638070060468740ED104046ED01554497
:104D6000BA46405D0700504687434046475599453F
:104D700000D1CBE0E50600D546E1151DEDB2AC460D
:104D80006D1AA946402E10DC0098F51082460720C7
:104D9000070037400126BE40ED0155444046B2466B
:104DA000465D5046864340464655994500D1ADE0A4
:104DB000250700D546E1561DF6B2751AA946654687
:104DC000402D14DC00986746824607200740BC4609
:104DD0000638070060468740ED104046ED01554417
:104DE000BA46405D070050468743404647559945BF
:104DF00000D18BE0650700D54CE1951DEDB2AC46C6
:104E00006D1AA946402E10DC0098F5108246072046
:104E1000070037400126BE40ED0155444046B246EA
:104E2000465D50468643404646554B456ED0A507E5
:104E300000D54DE1D61DF6B2751AAA466546402D3D
:104E400016DC0098ED10834667460720ED01A94661
:104E50000740D944BB4606380700584687404846B5
:104E6000BC46454D285C07006046874348462F54A2
:104E70009A454BD0E40700D553E1402E0FDC009853
:104E8000F51084460720070037400126BE40ED019B
:104E90006544B4466046384C665D864366550832C4
:104EA000D2B2541A9C4231D001980130C4B2019060
:104EB000A34236D9029C0198551C265C039CEDB296
:104EC0006640F6436F1ABC4674B2360600D4F5E667
:104ED000009880282CDC402A00DD07E78146072067
:104EE0001040824601205746B840D610F6014E4485
:104EF00081464046805D8246484657463843814653
:104F000040464F468755634500D0F2E60098013091
:104F1000C2B2019800920130C4B20A000190A342CB
:104F2000C8D805B0F0BCBB46B246A946A046F0BD05
:104F30006345EBD0951CEDB26D1AAB42E6D0D51CA3
:104F4000EDB26D1A9D42E1D0151DEDB26D1A9D4274
:104F5000DCD0551DEDB26D1A9D42D7D0951DEDB236
:104F60006D1A9D42D2D0D41DE4B2641A9C4296D1EF
:104F7000CCE7C046746001100C420220961CF0B2CF
:104F80008446401A8246402D00DDF3E20098EE1080
:104F900083460720F6010540B1460638A840D944AB
:104FA00005004846714E305C0543484635549A45E5
:104FB000ACD0A50600D4BEE6D61CF6B2701A824666
:104FC000604640281ADCC5100098ED018346A946CA
:104FD0000720D944834660465F4638408346012017
:104FE0005F46B84084464846604D285C834660462C
:104FF0005F4638438446484667462F54534500D1A0
:1050000084E7E50600D4B8E6151DE8B28446401AE8
:105010008246402E10DC0098F51083460720ED01F3
:105020000640A9460638B040D944060048464F4DD0
:10503000285C064348462E549A4500D166E725076A
:1050400000D4B8E6561DF6B2701A82466046402873
:105050001ADCC5100098ED018346A9460720D94403
:10506000834660465F463840834601205F46B8402D
:10507000844648463D4D285C834660465F4638433B
:105080008446484667462F549A4500D13EE7650757
:1050900000D4B2E6951DE8B28446401A8246402EFE
:1050A00010DC0098F51083460720ED010640A94664
:1050B0000638B040D944060048462C4D285C0643CB
:1050C00048462E549A4500D120E7A50700D4B1E602
:1050D000D61DF6B2701A82466046402800DDC7E64B
:1050E000C5100098ED018346A9460720D9448346A0
:1050F00060465F463840834601205F46B84084469C
:1051000048461A4D285C834660465F4638438446CD
:10511000484667462F549A4500D1F7E6E40700D485
:10512000ABE6402E00DDBAE60098F5108446072075
:105130003040012686400D4CED016544605D06431C
:105140006655ACE6B34200D0F2E5DFE653009B18AB
:105150009B009846064A00259044621E9441624294
:105160000192024A0B0094460095E0E00C420220B6
:1051700064660110802800D907E1402B00D9FCE0CB
:1051800007251D40AB46DF10FF013F1802970125A0
:105190005F46BD40AA46029F8D4EF55D5746BD4312
:1051A000029FF5554D460C2D00D1EAE0560600D57C
:1051B00010E19E1CF6B2751AA946402C00DDC1E133
:1051C0000725E71025400124AC40A2466446554619
:1051D000FF013F18E45DAC436546EC554C460C2C92
:1051E00000D1CEE0940600D510E1DF1CFFB27C1A9E
:1051F000A146402E00DDA9E10725F4103540012627
:10520000AE406546B246E40124182E5D5546AE43D5
:1052100065462E554C460C2C00D1B2E0D40600D584
:1052200010E11E1DF6B2741AA146402F00DD91E177
:105230000725FC103D400127AF406546BA46E40112
:1052400024182F5D5546AF4365462F554C460C2C10
:1052500000D196E0140700D510E15F1DFFB27C1A63
:10526000A146402E00DD79E10725F41035400126E6
:10527000AE406546B246E40124182E5D5546AE4365
:1052800065462E554C460C2C7BD0540700D512E1B8
:105290009E1DF6B2741AA146402F00DD62E107257B
:1052A000FC103D400127AF406546BA46E401241892
:1052B0002F5D5546AF4365462F554C460C2C60D0AC
:1052C000940700D513E1DF1DFFB27C1AA146402EE2
:1052D00000DD4BE10725F41035400126AE40654660
:1052E000B246E40124182E5D5546AE4365462E5560
:1052F0004C460C2C45D0D20700D514E1402F0BDCD6
:10530000072401263C40A64064466546FA10D201B7
:105310001218A45CB443AC540833DBB25A1A0C2AFA
:105320002FD0009A013200920C2A00D1F9E54246B2
:10533000009C165D019A5C1C5640F643E4B2671A65
:10534000B94672B2360600D414E780281DDC402B23
:1053500013DC07251D40AB46DF10FF013F18029705
:1053600001255F46BD401A4E029FAA46F55DAB4639
:1053700055465F463D43029FF5554D460C2D00D0E6
:1053800014E701300B00C0B2CBE74C460C2CF8D030
:105390009C1CE4B2641A0C2CF3D0DC1CE4B2641A3A
:1053A0000C2CEED01C1DE4B2641A0C2CE9D05C1D50
:1053B000E4B2641A0C2CE4D09C1DE4B2641A0C2CE8
:1053C000DFD0DA1DD2B2521A0C2AA5D1D9E7C046D5
:1053D0000C4202209E1CF6B2751AAA46402C00DD33
:1053E000CDE00725E710FF012C40B946063DA5405A
:1053F00081442C004D466E4F7D5D2C434D467C55BF
:1054000054460C2CBDD0940600D4EEE6DF1CFFB24F
:105410007C1AA246402E00DDB5E00725F410E40119
:105420002E40A146063DB54081442E004D46604CBD
:10543000655D2E434D46665554460C2CA1D0D406CE
:1054400000D4EEE61E1DF6B2741AA246402F00DD0F
:105450009DE00725FC10E4012F40A146063DBD401C
:1054600081442F004D46524C655D2F434D46675594
:1054700054460C2C85D0140700D4EEE65F1DFFB215
:105480007C1AA246402E00DD85E00725F410E401D9
:105490002E40A146063DB54081442E004D46444C69
:1054A000655D2E434D46665554460C2C00D168E789
:1054B000540700D4ECE69E1DF6B2741AA246402FA3
:1054C0006DDC0725FC10E4012F40A146063DBD40E0
:1054D00081442F004D46364C655D2F434D46675540
:1054E00054460C2C00D14CE7940700D4EBE6DF1DAA
:1054F000FFB27C1AA246402E55DC0725F410E401C9
:105500002E40A146063DB54081442E004D46284C14
:10551000655D2E434D46665554460C2C00D130E750
:10552000D20700D4EAE6402F00DDF5E60726FC109E
:105530003740063EBE401E4AE4012418175D3E4334
:105540001655E9E60C2D00D04CE61AE70C2C00D0DD
:1055500064E616E70C2C00D07CE612E70C2C00D099
:1055600093E60EE70C2C00D0AAE60AE70C2C00D03C
:10557000C1E606E7984201D0FFF7DAFBC6E40C2D3E
:1055800000D02FE6FDE60C2C00D047E6F9E60C2C07
:1055900000D05FE6F5E60C2C00D076E6F1E60C2CA8
:1055A00000D08DE6EDE60C2C00D0A4E6E9E6C0467E
:1055B0000C420220F0B5DE4657464E464546E0B561
:1055C00087B0059210AA127804909346DA1DD21083
:1055D00003925A46002A45D0002B43D000228C4625
:1055E00000219146234A0C0080279046190063460B
:1055F000402B2DDC6546EE10F5010195664607252A
:105600002E40063DB540059BA2464B4400221C009F
:105610000498029504E00132D2B20130914216D0D2
:10562000D308E65C07233D0013401D413542F2D00C
:105630008028F0DC019B029D1E1843469B5D0132D1
:105640002B434546D2B2AB5501309142E8D1544686
:1056500001239A46039BD4449A460134E4B2D144D0
:10566000A345C4D107B0F0BCBB46B246A946A0468C
:10567000F0BDC0460C420220F0B557464546DE4616
:105680004E46E0B501273A00594B85B01B68D0253E
:105690009A4093463A00574B2D061B689A40924613
:1056A0003A00554B03931B689A40544B90461B6835
:1056B0009F40534B0193002302935B46029CAB61D6
:1056C0005346AB610123503C08269946E4B210E0F2
:1056D0004346AB6101200021AF6100F01FFE640072
:1056E000012000216F61013E00F018FEE4B2002E9F
:1056F00008D063B2002BEBDA4A46039B1B689A4042
:105700006A61E7E753466B615B46AB615346082429
:105710004646AB6101200021AE61AF6100F0FEFDA5
:10572000013C012000216F6100F0F8FD002CF1D157
:1057300053466B615B46AB615346B046AB6108268E
:10574000103410E04346AB6101200021AF6100F04E
:10575000E5FD6400012000216F61013E00F0DEFDE7
:10576000E4B2002E05D063B2002BEBDA43466B6146
:10577000EAE780225346524294466B61019B6344A0
:1057800099464B461C785B466B6153460826AB61D5
:1057900010E04346AB6101200021AF6100F0BEFD87
:1057A0006400012000216F61013E00F0B7FDE4B20A
:1057B000002E05D063B2002BEBDA43466B61EAE7BB
:1057C00053466B6101239C46019BE1444B45D8D174
:1057D0001A00029B8032013302930192082B00D001
:1057E0006BE705B0F0BCBB46B246A946A046F0BD8B
:1057F000005D0110FC5C01100C5D0110085D0110E2
:105800008C42022000B50B4883B004F0DDFBFEF7AC
:10581000B5FE094804F0D8FB402300210020074AC8
:1058200000934033FFF7C6FEFFF726FF002003B0CA
:1058300000BDC0466C5A0110785A0110D86A011098
:10584000074B8000C3181B68C90092000A435A40E6
:105850000C231340034A9446604403607047C046DB
:1058600004C0014004D001400123D022834012062D
:1058700093629361094A83009A181168402251404B
:1058800080320A400649C0008C4663441A60054BCA
:105890009C460523604443607047C04604C00140F5
:1058A00004D00140004001408023DB051868000F50
:1058B0007047C0460FB400B5084883B004F084FBBD
:1058C000049B002B07D005A91800019104F050F9A2
:1058D000034804F079FB012004F062F9885A0110B2
:1058E0008455011070B5EFF3108C72B60D4D2B6816
:1058F000002BFCD0BFF35F8F0724CB08C618C05C19
:1059000001230C40A3401C000440034207D118436C
:105910003070BFF35F8F2C608CF3108870BD100067
:10592000FFF7C8FF2C0100D0F8B54746CE468846A1
:1059300080B5EFF3108C72B61C4D2C68002CFCD097
:10594000BFF35F8F9A4222D807210126894602E0E1
:105950000132934218D34D4637001540AF40D4086A
:105960000119045D2742F3D110003C430C70BFF3D2
:105970005F8F00220D4B1A608CF3108800280EDB1D
:10598000C0BCB946B046F8BD01204042EFE7BFF3C6
:105990005F8F00232B608CF3108801204042434628
:1059A000002BEDD00898FFF785FFC0462C0100D0F2
:1059B000044A1078431CDBB2172B00D91023137054
:1059C0007047C046C41B022010B5064B064C82B07F
:1059D0000100009318221F232000FFF7A5FF02B04B
:1059E00010BDC046985A01100C4602200021044BFD
:1059F000044ABFF35F8F02C39342FAD17047C04697
:105A0000000100D0800100D0054B064A1360064A11
:105A1000136053609360D360136153619361704767
:105A20008080808000E400E004E400E01F23184050
:105A30001E3B8340002905D0C021044A4900535031
:105A400013607047802201498B50FAE700E100E0C3
:105A500070B50D00EFF3108672B60F4A1368002B75
:105A6000FCD0BFF35F8F0D4B10309B6884001B5937
:105A70000B4A934203D09D4201D000F0BDFF074B7B
:105A80009B681D51BFF35F8FBFF35F8F0022024BF6
:105A90001A6086F3108870BD240100D000ED00E08C
:105AA000CD010010F0B557464E46DE464546E0B5FE
:105AB00085B0060000911700EFF3108B72B66A4AAA
:105AC0001368002BFCD0BFF35F8F0025674B5D5739
:105AD0009A46002D00DAA9E06B00654C01935B1932
