:020000041000EA
:1000000000B5324B212058609868022188439860DF
:10001000D860186158612E4B002199600221596106
:100020000121F02299502B49196001219960352056
:1000300000F044F80222904214D00621196600F024
:1000400034F8196E01211966002018661A6600F04E
:100050002CF8196E196E196E052000F02FF8012189
:100060000842F9D1002199601B49196000215960AB
:100070001A491B48016001219960EB211966A021F2
:10008000196600F012F800219960164914480160C1
:100090000121996001BC002800D000471248134993
:1000A000086003C880F30888084703B5996A0420EC
:1000B0000142FBD001200142F8D103BD02B5186610
:1000C0001866FFF7F2FF186E186E02BD00000240BE
:1000D000000000180000070000035F00212200005C
:1000E000F4000018222000A00001001008ED00E03C
:1000F00000000000000000000000000074B24E7A12
:1001000000200420F7010010C3010010C5010010F9
:10011000C1010010C1010010C1010010C101001097
:10012000C1010010C1010010C1010010C701001081
:10013000C1010010C1010010C9010010CB01001065
:10014000CD010010CD010010CD010010CD01001037
:10015000CD010010CD010010CD010010CD01001027
:10016000CD010010CD010010CD010010CD01001017
:10017000CD010010CD010010CD010010CD01001007
:10018000CD010010CD010010CD010010CD010010F7
:10019000CD010010CD010010CD010010CD010010E7
:1001A000CD010010CD010010CD010010CD010010D7
:1001B000CD010010CD010010CD010010CD010010C7
:1001C00000BE00BE00BE00BE00BE00BEEFF3058054
:1001D000103800BEF2EB887100710110247101101B
:1001E0003802001090A31AE71E481F49086006C88D
:1001F00081F3088810471D480068002801D019487D
:10020000F3E70DA40ECC002902D000F012F8F9E7B4
:100210001749184A002000E001C19142FCD116495B
:100220008847164988471649884700BEFDE701C937
:1002300001C29A42FBD3704724710110C000002014
:1002400080300220E4A003100000042000000420FD
:10025000E4A003100010042000100420000000009F
:10026000704700000000000008ED00E0000000D032
:1002700080300220B4E2032071940010BD0400100D
:1002800031940010F8B5C0460448054B10B58342C0
:1002900003D0044B002B00D0984710BD80300220C3
:1002A000803002200000000006480749091A8B1020
:1002B000C90FC91810B5491003D0044B002B00D04A
:1002C000984710BD803002208030022000000000DE
:1002D00010B5074C2378002B09D1FFF7D5FF054B4C
:1002E000002B02D0044800E000BF0123237010BDA2
:1002F0000848022000000000A8460110054B10B578
:10030000002B03D00449054800E000BFFFF7CCFFF5
:1003100010BDC046000000000C480220A846011095
:100320007047C046D0238022F0B51B06120285B06C
:100330009A610023FA220093009B9200934205DA0F
:10034000009B01330093009B9342F9DB8023D02173
:100350008026FA2280271B02102500249C460906CD
:10036000F60492003F058E610394039B934205DAE5
:10037000039B01330393039B9342F9DB63461842CB
:1003800020D04F610194019B934205DA019B013318
:100390000193019B9342F9DB4E610294029B400062
:1003A000934205DA029B01330293029B9342F9DBED
:1003B000013D002DD7D1D02380221B0612025A61A5
:1003C00005B0F0BD8F61DDE77047C046044B10B546
:1003D0001A8802431A80188880B2FFF7A3FF10BD65
:1003E000A4E20320044B10B51A8882431A801888AF
:1003F00080B2FFF797FF10BDA4E203200123F0B500
:100400008340CE464746994680B517001A00D02350
:100410001B0685B09A610023FA220093009B92008C
:10042000934205DA009B01330093009B9342F9DB72
:10043000002F37DD01227B1E9A408023D0248026A6
:10044000FA201B0594460025002298462406F6044F
:100450008000A6610192019B834205DA019B013372
:100460000193019B8342F9DB6346194223D0434643
:1004700063610392039B834205DA039B0133039379
:10048000039B8342F9DB66610292029B490083422F
:1004900005DA029B01330293029B8342F9DB0135AB
:1004A000AF42D6D1D0234A461B065A6105B0C0BC24
:1004B000B946B046F0BD4346A361DAE7F0B5DE4683
:1004C00057464E464546E0B50B2083B004F0E8FEA3
:1004D000D024802324061B0163620720636104F09B
:1004E000DFFE1B2004F0DCFE0F2004F0D9FE0E20FE
:1004F00004F0D6FE112004F0D3FE1A2004F0D0FE42
:100500000C2004F0CDFE0D2004F0CAFE072004F0FC
:10051000C7FE072004F0C4FE072004F0C1FE072038
:1005200004F0BEFE072004F0BBFE072004F0B8FE76
:10053000072004F0B5FE072004F0B2FE072004F007
:10054000AFFE01220021072004F098FE01220021C5
:10055000072004F093FE01220021072004F08EFE04
:1005600001220021072004F089FE0122002107203A
:1005700004F084FE01220021072004F07FFE012206
:100580000021072004F07AFE00210122072004F058
:1005900075FE072004F084FE072004F081FE07208A
:1005A00004F07EFE062004F07BFE052004F078FEB9
:1005B000042004F075FE032004F072FE022004F013
:1005C0006FFE10250823042265620A2063626262BE
:1005D000A261A361656105F0C9FB0A20A56105F070
:1005E000C5FB002201210520656104F047FE0121C1
:1005F0000620002204F042FE402380226362203B5A
:100600006362120560336262A36262628022120238
:1006100062628022D201626280229202A262802201
:10062000D20462628022520162628022920162627E
:10063000636263626362636262610BF0C5FF0BF029
:100640002DFC00F0DFF801F059FE09F03BF803F053
:100650003FF8334809F052F9022004F045FD3148D3
:1006600009F04CF904F06CFD2F4B00259A462F4BF6
:100670002F4E99462F4B304F9B46304B0193FA2318
:10068000DB00984602F0C0FF03F034F8012000219F
:10069000404209F08FFCAF2134688900200005F04A
:1006A00055FF002935D0AF21013434603C68890002
:1006B000200005F04BFF00291CD00120013401353A
:1006C0003C6005F053FB4545DCD114240A20013C75
:1006D00009F048F8002CF9D1FA25584609F00EF92E
:1006E000019809F00BF90A2009F03CF8ED0003F03D
:1006F00037F9C7E701224846023103F0A1FE3B6803
:100700000120013301353B6005F030FB4545B9D18F
:10071000DBE701225046033103F092FE3468C2E762
:10072000A8460110BC460110C8160020BC170020C6
:100730007CE00320C84601101CE00220DC460110CA
:100740000EB410B5B5B037AA02CAC4B202A801925D
:100750000CF06AFC02A80CF0ABFD02A9020020001C
:100760000AF0F6FA20000AF0B3FA35B010BC08BC63
:1007700003B0184708B4F0B50F0004001600B6B077
:100780003BAB20CB1B220F490393FFF7D9FFBA1CC9
:10079000B31C200000920C491B22FFF7D1FF039AE3
:1007A000290004A80CF040FC200004A9FFF7C8FFB2
:1007B0001B2220000549FFF7C3FF36B0F0BC08BC80
:1007C00001B01847004701100447011010470110FD
:1007D00010B51B220149FFF7B3FF10BD14470110EC
:1007E0000122034B1A60034A1368002BFCD07047A8
:1007F00024D4022028D402200122014B1A60704721
:1008000020D4022010B502480BF0AAFE10BDC0464D
:100810006D010020004870471457011000487047D0
:10082000EC55011010B582B0002807D1384B39487B
:100830004380063BFF3B038002B010BD0A281CD852
:1008400003281CD0344B8000C2583248013A01239F
:100850009446811C04E001330A800231142B09D034
:100860006246D25C002AF6D1C022DBB25B00920065
:100870001343E0E7CA239B00DDE70020DCE768467E
:1008800009F05CF96B461978244B0A0921489A5CF7
:1008900042800F221140595C8180694649780C09D9
:1008A0001140595C1C5D01816946C48089780C093E
:1008B0001140595C1C5D818169464481C9780C09ED
:1008C0001140595C1C5D01826946C48109790C099B
:1008D0001140595C1C5D81826946448249790C094A
:1008E0001140595C1C5D01836946C48289790C09F9
:1008F0001140595C1C5D818369464483C9790C09A8
:100900000A401C5D9B5CC4830384054B93E7C0468F
:100910000904000078D70220285701101C47011055
:10092000220300000023094A094913600B68581C80
:10093000032804DC00230860064A13607047132173
:10094000033B11605A425341F6E7C0469CE0032046
:10095000A0E0032098E00320F8B54746CE46060005
:100960000D00904680B57F2801D81F2903D9C0BC4F
:10097000B946B046F8BD7F231F1ACB1707210B409D
:100980005B19DC1064420334E0B201F0CFFB381D88
:10099000C0B201F0DDFB01F03BFE782001F0A0FECB
:1009A000402001F09DFEBC46E401A444634642465B
:1009B0001F491F008946CC5C002A32D0012A2AD068
:1009C000434629003000DAB203F0C6FC022163007E
:1009D0001940012362101A400A43A1105200194025
:1009E0001143E21049001A400A43211152001940F4
:1009F0001143621149001A400A43A11152000B40F1
:100A000013435B00E009184301F06AFE4B46DC55D6
:100A100001F02CFEABE707232B409A401443E4B2CD
:100A2000CEE7072301222B409A409443C8E7C046F3
:100A3000A0D7022070B516000C008300164A5B1880
:100A40009B009E501549164A431C05000C6013601C
:100A5000142B13DC092E11D0132B16D00023114AAE
:100A6000280013602100F2B203F052FC320028008B
:100A7000210004F07DFB04F0DFFB70BD0023136058
:100A8000631C032B05DD13231360E31E5A425341FD
:100A9000E5E70B60E2E7C04654E10320A0E0032055
:100AA0009CE0032098E0032070B515000400AE0020
:100AB000C8B201F03BFB7619E0B20525012401F034
:100AC00047FB01F0A5FD782001F00AFE402001F06F
:100AD00007FE154BF6182200705D013D02404110E3
:100AE0005200214011438210490022400A43C110A4
:100AF0005200214011430211490022400A43411192
:100B00005200214011438211490022400A43520001
:100B1000C009104301F0E4FD002DDCD1002001F0FC
:100B2000DFFD01F0A3FD70BDAF18002070B50025FA
:100B3000280001F0FBFA002001F00AFB01F068FD3B
:100B4000782001F0CDFD402001F0CAFD8424013C55
:100B50000020E4B201F0C4FD002CF8D10135EDB263
:100B600001F084FD042DE3D170BDC046F8B5050049
:100B70000C001600D7B23A0003F0CAFBAB00164ACD
:100B80001B199B009E501549154A6B1C0C60136085
:100B9000142B13DC092E11D0132B16D00023114A6D
:100BA0002800136021003A0003F0B2FB3200280055
:100BB000210004F0DDFA04F03FFBF8BD00231360D0
:100BC000631C032B05DD13231360E31E5A425341BC
:100BD000E5E70B60E2E7C04654E10320A0E0032014
:100BE0009CE0032098E00320F0B5DE4657464E46D1
:100BF0004546E0B51700354B83B098461860344B36
:100C00001960994613000A000100324808F076FE88
:100C10003B78002B43D043461C682F4B00932F4B4F
:100C20009B462F4B9A462F4B01934346621C1A60FA
:100C30004B461D68A3003E7800995B199B00CE507F
:100C40005B461D6053461A60142A36DC092E34D0E8
:100C5000132A2ED00023019A2000136029003200AD
:100C600003F056FB20003200290004F081FA04F062
:100C7000E3FA43461C68142C0DDD002119604B4635
:100C800003201B6800240133DA0F98424A41524284
:100C900013404A4613607B780137002BC5D103B05F
:100CA000F0BCBB46B246A946A046F0BD132352464F
:100CB0001360EB1E5A425341CDE7534600221A609F
:100CC0006B1C032BF2DC5A461360C3E748D40220A6
:100CD0004CD402207047011054E10320A0E003200F
:100CE0009CE0032098E0032010B5FFF77DFF10BDC6
:100CF0000022024B1A60024B1A60704748D402204F
:100D00004CD40220044B10B51968044B020018683B
:100D1000FFF76AFF10BDC0464CD4022048D4022021
:100D200010B50CF0C5FA084B1A688018142807D9BA
:100D30000021064A196013680133032B01DD11609D
:100D400010BD1360FCE7C04648D402204CD40220FA
:100D500070B5114D114C124E02F056FC02F054FCCD
:100D60002A6823689A42F7D02368F35CFF2BF3D0FC
:100D70002A6823689A420CD00F222368F05C23680B
:100D800040B20133D917090F5B1813405B1A236077
:100D900070BD01204042FBE768E002206CE00220C9
:100DA00058E0022010B502F02FFC064B1968064BE4
:100DB0001A68914204D01B68044AD05C40B210BD4E
:100DC000FF20FBE768E002206CE0022058E00220F0
:100DD000F8B5114F06003D68C821681C05F0B6FB48
:100DE000481C0C00C82105F0B1FB0C4B1B68994254
:100DF0000AD09C4208D00A4B1A68B24205D0094A70
:100E0000AD0056513C601E60F8BD0020054AAD00A3
:100E1000505125000C00F3E750D4022054D4022096
:100E200030E0022058D402207047C046F0B5DE46BC
:100E300057464E464546E0B597B005AB98460F007D
:100E40000400010018000CF0C9F90322754906F0EE
:100E5000D5FE424639000020FFF7C6FE40460CF0A2
:100E600027FA060020000CF023FA0023152E00D9E3
:100E700070E0994601339A466B4B01936B4B02939A
:100E8000152383429B419B4602F0BEFB53465A46C4
:100E900013409A464D46002400E001352022B54219
:100EA00005DA3100280005F051FB43465A5C20006A
:100EB00039000134FFF7BEFD152CEED1FFF772FFAC
:100EC000013042D0FFF744FF019905000400020001
:100ED000029808F013FD052D00D192E0062D08D0F0
:100EE000013525D1D1444B46002B09DA731E9946B2
:100EF000CAE75346013300D190E001239A46994452
:100F00004E45C1DC00239946BEE7FFF74BFF013099
:100F100058D0FFF71DFF0199050004000200029858
:100F200008F0ECFC052D62D0062D55D001354CD0D3
:100F3000424639000020FFF757FE200017B0F0BCF2
:100F4000BB46B246A946A046F0BDC82004F00EFF3D
:100F5000D144C8E79A4601339946334B0193334B4A
:100F60000293152383429B41039302F04DFB4B46B2
:100F7000039A554613409946002300249B463100AE
:100F8000B54211DB584605F0E1FA434620005A5CB1
:100F900001343900FFF74EFD152CB6D00123013581
:100FA00031009B44B542EDDA280005F0CFFA434604
:100FB00020005A5C01343900FFF73CFD152CA4D009
:100FC0000135DCE7C82004F0D1FECA4453460133A2
:100FD00008D1731E9A46C8E74B4601331BD0012344
:100FE00099469A44B245C0DB00239A46BDE74B467A
:100FF000013B5A1E93415A4291465246D31A9A4691
:10100000E4E75346013B5A1E93415A4292464A46F0
:10101000D31A994667E700239946E3E700239A46E7
:1010200061E7C0468C4701105457011090470110EA
:101030000021054801600548016005480160054937
:101040000A60054A136070479CE00320A0E003207B
:1010500098E003203CD4022038D40220F0B5C646E4
:101060000C4D0D4E28680D4C3368804600B527683E
:10107000002B09D1390001E0286821682022FFF700
:10108000D9FC3368002BF7D0434627602B6080BC27
:10109000B846F0BD9CE0032098E00320A0E00320C8
:1010A00070B5002500242100202228000134FFF71C
:1010B000C1FC042CF7D10135152DF3D1FFF718FE33
:1010C00070BDC046F0B5C64600B502780700002ADC
:1010D00022D0134E134D07E0210018000137FFF70F
:1010E000A9FC3A78002A17D033682C689846092A58
:1010F000F2D11800210000E030682022FFF79AFCAE
:101100002968A142F8D04346013733602C60FFF7CD
:1011100009FC3A78002AE7D180BCB846F0BDC04649
:101120009CE00320A0E00320F0B557464E4645461C
:10113000DE46E0B587B000236A469382544B554E95
:101140001A689A46544B554C1A60336800259946E4
:10115000B346A0465249534F01900B6003922800BA
:10116000152105F0F3F928008C00152105F0EEF9A2
:1011700043462418A4001B597B550135542DEED14C
:101180004B465800C018C100091A0020039A79186C
:1011900088544549454C8846012140462360022336
:1011A000434D01602A604348434A01601370039233
:1011B000FFF776FF3A0000210020FFF715FD0198A8
:1011C000FFF780FFFFF74AFF002253465E46D146F5
:1011D00093461B682B60336823605B46002B07D067
:1011E000029807B0F0BCBB46B246A946A046F0BD87
:1011F00002F00AFAFFF7D6FD0130F9D0FFF7A8FD9B
:1012000000212E4B020019602D4B01311960039B08
:1012100002901B78022B0ED03A0000210020FFF72D
:10122000E3FC0198FFF74EFFFFF718FF4B461B68E2
:101230002B603368D0E7082811D00BDC012823D0BD
:1012400004281AD109236A46019805A913750BF0E1
:101250006BFFE1E70D2810D101239B46DCE7019AE3
:101260001378002BD8D0924610000CF021F852468B
:1012700013180022013B1A70CEE76B46019805A9AE
:101280001A750BF051FFC7E7434600221A60E3E7E7
:101290009CE00320A0E00320FCDB022054E10320BB
:1012A00000DC0220A8DB02203CD4022044D402202F
:1012B000EC24002038D40220C524002040D4022091
:1012C00010DC0220F0B54746CE46202380B583B01F
:1012D00001AF40223B800023314E0400B354403222
:1012E000B3544032B3544032B3544032B35440321A
:1012F000B35440323370B35403788846002B16D071
:10130000002506E00135072D44DC63780134002B0D
:101310000DD01A00093A012AF4D9A8013900301871
:1013200001343B700BF000FF2378002BF1D11D48F6
:1013300008F062FA1C4B37003500002499462A0059
:1013400021004846013408F0D9FA4035082CF6D17E
:101350000A2008F007FA00243A0021000020013496
:10136000FFF742FC4037042CF6D143460F4C9B015B
:10137000F61802F049F941463000FFF757FDC3B2B5
:101380000D2BF6D88300E3589F4603B0C0BCB94686
:10139000B046F0BD0649074808F0B0FAC7E7C046B6
:1013A000284302209C470110AC4701105C570110F4
:1013B00094570110B8470110F8B504001E00012928
:1013C00033D0032923D1244B1B68002B33D00A20B0
:1013D00000F030FD00F028FD070000F0E7FC0500FC
:1013E00000F0E4FC002D31D0802816D0FF2818D062
:1013F000069B00241F60330035700236587000F0E1
:10140000D5FC30550134AC42F9DB0120F8BD02298E
:10141000E0D1006800F00EFDF7E700F0DDFC00F021
:10142000FBFCFF2D0BD00020F0E70B4B196000F008
:10143000FBFC2060E9E7094808F060FAFEE7084B8A
:101440001868023800F0F6FC0020DFE7206800F0A2
:10145000F1FCF6204042D9E774E00220CC470110AD
:1014600084E00320F0B5CE46474680B59946C5B026
:10147000431E0600904604AD012B49D9032E2FD000
:1014800000F0D2FC00F092FC070000F08FFC002F6F
:1014900057D080282CD0FF282ED000242F706870C1
:1014A00000F084FC2B1901349870A742F8DC012469
:1014B0002B78092BE2D16B78812BDFD14A46002AA9
:1014C00001D0AB7A13704346002B1BD012210822A7
:1014D0004046694406F092FB00234246137211E035
:1014E0001B4B1B68002B22D00A2000F0A3FCC7E78F
:1014F00000F072FC00F090FC2C78FF2F1BD0092C20
:1015000010D00024200045B0C0BCB946B046F0BDA4
:1015100002AB0A00009301002B0003A8FFF74CFF69
:101520000124EFE76B780024812BEAD1C6E7094854
:1015300008F0E4F9FEE7084B1868023800F07AFC7E
:10154000DDE7F624002000F075FC6442B0E7C046F9
:1015500074E00220CC47011084E00320F0B5574628
:101560004E46DE464546E0B5424C0600A544424C98
:10157000039123689A46002B00DC78E03F4B0494EB
:1015800006934AAB99463E4B05929B463D4B0793CB
:101590000123069A0024136000F046FC5D46030018
:1015A0000321079F0022AA56099308AB0093C9B2F2
:1015B0004B4609A8FFF700FF099B002854D04A4674
:1015C00051783A78914201D00421EBE70134A245E9
:1015D000FAD14A4618001778AB46089D00F02AFC5D
:1015E00000F022FC0400280000F024FCB81C0AA92A
:1015F00000F0B8FB200000F01DFC002F31D03000BF
:101600000BF056FEB846002507000AAC06E033781A
:10161000002B0AD001350134454522DA3A00310069
:1016200020000BF0A7FD0028F1D147461221059BB1
:10163000039D984606ABC9183A002800049C06F0A2
:10164000DDFA0023EB5543461F605346012023601B
:101650008B239B009D44F0BCBB46B246A946A046E6
:10166000F0BD01239A4493E7180000F0E3FB00204B
:10167000EEE7C046D4FDFFFF0CDC022074E0022040
:10168000B1E20320AEE20320F0B5454657464E4690
:10169000DE46E0B58846050091469A46C5B000286A
:1016A00049DD01232F4C236000F0BEFB23688346F5
:1016B000002B48D00A2000F0BDFB002302932A4BE8
:1016C000019300F0B1FB040000F070FB060000F095
:1016D0006DFB002E41D0802824D0FF2826D0039413
:1016E000002404AF3E70787000F060FB3B190134B9
:1016F0009870A642F8DC019B7A781B789342E0D17F
:10170000029A013202929542DBD142460399584631
:1017100011604A46137052463B78136000F08AFB12
:10172000012009E000F058FB00F076FBFF2E0ED000
:10173000584600F07FFB002045B0F0BCBB46B246E7
:10174000A946A046F0BD094808F0D8F8FEE7084BC6
:101750001868023800F06EFBEAE7584600F06AFBB2
:1017600004AFC8E774E00220AEE20320CC470110CA
:1017700084E0032010B584B000F056FB6B46029065
:10178000991C012000F0EEFA6A46124B03321868E9
:1017900002A903ABFFF778FF029C002804D12000C8
:1017A00000F048FB04B010BD200000F043FB01A98D
:1017B000022000F0D7FA6B465A797F2313406A461D
:1017C0002000537100F036FB022001A900F0A4FABA
:1017D000E5E7C0460CDC0220F0B585B06B460D4F46
:1017E0000D4E3C68DD1D03E02A7833789A4208D01C
:1017F000013C2A00200003AB02A9FFF745FF0028A7
:10180000F2D1002C02D03C6005B0F0BD034800F0DE
:1018100027FBF8E70CDC0220AEE20320E4470110CE
:10182000F0B585B06B460D4F0D4E3C68DD1D03E0F5
:101830002A7833789A4208D001342A00200003AB7A
:1018400002A9FFF721FF0028F2D1002C02D03C6052
:1018500005B0F0BD034800F003FBF8E70CDC022004
:10186000AEE20320E447011030B585B06A460B4B69
:1018700005000732186802A903ABFFF705FF041E35
:1018800002D1200005B030BD0298023000F0D2FA3B
:101890002900039800F066FAF3E7C0460CDC02204A
:1018A000014B18707047C046AEE2032010B5041E0D
:1018B00002D0034B1C6010BD024800F0D1FAF8E7DB
:1018C0000CDC0220E4470110F0B5DE4657464E46D8
:1018D00045460123E0B5344CC7B0814623608A46B3
:1018E000934600F0A1FA23688046002B4DD00027D4
:1018F0000A2000F09FFA2D4B019300F095FA00F0BA
:1019000055FA050000F052FA002D47D0802813D078
:10191000FF2815D0002406AE707000F047FA331986
:1019200001349870AC42F8DB019A737812789B1AF4
:101930005A425341FF18E0E700F04EFA00F06CFA0B
:101940001B4CFF2D25D000F06FFA060003AD0020E0
:1019500000F070FA29000A2000F004FA300000F0CC
:1019600069FA49466B7822685B039B1A0B605B46F9
:101970001A60534640461F6000F05CFA47B0F0BC66
:10198000BB46B246A946A046F0BD0A4807F0B6FFDE
:10199000FEE72068023800F04DFAD4E7404600F038
:1019A00049FA06AEC0E7C04674E00220AEE203206A
:1019B00084E00320CC470110F0B5DE4657464E4682
:1019C0004546E0B56E4C6F22A54406AB01900091F0
:1019D00018000021994606F00BF96A496A4807F099
:1019E0008DFF6A4807F08AFF0020694B00241856D3
:1019F00000F07EF90122674B62AE1A6000F014FA23
:101A0000654B664F9B4601239A4600239846220069
:101A1000584622A907F072FF53464C44903C23706D
:101A200000F002FA00F0C2F9050000F0BFF9002D45
:101A300000D198E080282FD0FF2831D000243570C5
:101A4000707000F0B3F9331901349870A542F8DCD6
:101A500001223378092BE3D17378812BE0D102A9DD
:101A6000C3238C465B00634419885B88B47A1B04EB
:101A70000B4361468331FF31088861468531FF3170
:101A80000988239309040143634622914146883320
:101A90001970012ABBD008E000F09EF900F0BCF9F3
:101AA0003478FF2D5AD0092C53D0802590246D42D4
:101AB00002AB3B4FED1821002A5D3800013407F0DE
:101AC0001DFFFF2CF7D1374807F018FF00249123A2
:101AD000EA5C002A00D11C000133FF2BF8D1002C56
:101AE00049D1314807F00AFF009B002B41D10094F7
:101AF0002E4B21001800984607F000FF0A2007F03F
:101B000031FE2B4B02A83380C1235B0001990822D0
:101B1000181806F073F8009B03AAB37205A904A86D
:101B2000FFF7D2FE039800F085F931000B2000F09A
:101B3000F3F82100404607F0E1FE0A2007F012FE0C
:101B4000A3239B009D44F0BCBB46B246A946A046D9
:101B5000F0BD7378812BA8D1002280E73868023865
:101B600000F068F99FE7002000F064F9F622524285
:101B70006FE71C00BCE721000E4807F0BFFEB3E78B
:101B800074FDFFFFA4570110F4470110FC4701103A
:101B9000B1E2032074E002201448011084E0032025
:101BA0002848011034480110404801107C480110B9
:101BB0000981FFFF5C48011070B506000C0084B07D
:101BC000FE2900DDFE246D460A4B01AA1B7802A9FE
:101BD00003A86B702C70FFF777FE019800F02AF9CC
:101BE0006946022000F098F83100200000F094F8D7
:101BF00004B070BDAEE20320F0B557464E46DE4657
:101C000045462022E0B5204BC3B01B6801AE9F7A49
:101C10003280FF2F2AD01D4A0B3393461C4A92462E
:101C2000002291461B4A90466A4649461172584620
:101C300039001A785D1C07F061FE002F0ED00024D9
:101C40002B5D310002A833700BF06EFA295D40461F
:101C5000013407F053FEA742F2DCED19504602A909
:101C600007F04CFE2F786B1CFF2FDDD10A4807F0E0
:101C700045FE0A2007F076FD43B0F0BCBB46B246F5
:101C8000A946A046F0BDC046E424002094480110B7
:101C9000AC480110A4480110B8480110F0B50C0080
:101CA00078210170E117C904C90C0919069CF027B5
:101CB000E4B2A446079E4471867134123602FF01D5
:101CC0006644F619059DE4B2DBB2C471A419C37071
:101CD00005711B192D025B19827049131202C9B2DA
:101CE0009B184170C9180172090A4172F0BDC046C3
:101CF000C3B210B5012B03D9044800F0B1F810BDF0
:101D00000022034B1870034B1A60F8E7C848011013
:101D1000B1E2032084E0032070B505000C4C0E00F6
:101D20002B0022680B490C4807F0E8FD00210B4B03
:101D30000B4A595620684B005B189B00D2182900AB
:101D400053683200984723685B19236070BDC04612
:101D500084E00320AC570110D0480110B1E2032009
:101D6000C8240020F0B5C64600B5002814DD0C4B91
:101D70000C0098460B4F0C4D0E180022BA562868DE
:101D800053009B1842469B00D358421C2A60984738
:101D900020700134B442F0D180BCB846F0BDC046DA
:101DA000C8240020B1E2032084E00320002110B504
:101DB000064B074A59564B005B189B009A58054B37
:101DC0001868411C1960904710BDC046B1E203205D
:101DD000C824002084E00320002270B50B4E0C4C78
:101DE000B256206853000B4D9B189B00421C5B5958
:101DF000226098470022B256206853009B189B002F
:101E0000421C5B592260984770BDC046B1E2032076
:101E100084E00320C8240020024A13681B181360C2
:101E20007047C04684E00320014B18687047C046E5
:101E300084E00320014B18607047C04684E0032013
:101E4000002110B5044A054B51564A005218920021
:101E50009B189B68984710BDB1E20320C82400205E
:101E600010B50100014807F049FD10BDE848011018
:101E7000014B1B68185C7047E4240020F0B5DE4677
:101E800057464E4645468A46E0B58027FF25431E05
:101E90007F0014005344020AB91A1B0A5B181D4044
:101EA000691E8D41AB46C5B01B0A9B44130204AAB0
:101EB0009146614A060011689046C9183A004846A2
:101EC000009305F09BFE5B46002B4CD0FF235B4A42
:101ED000A2443340029200265246B24616005D1CD0
:101EE000A64247D8BD4256D05646D3453BDD802753
:101EF0007F0001E0B34536DD0135BD42FAD15048DF
:101F000007F0FCFCFEF76CFCFA20800003F02EFFCB
:101F10004C4807F0F3FCEFF3108A72B64A4B3402D8
:101F20001868009B2A00C0184946001912F050FB9F
:101F3000464807F0E3FC8AF31088FEF75DFC44484E
:101F400007F0DCFC44A9481B4146009A0B681119B4
:101F5000C91801362A00491905F050FEB34502DDC3
:101F60000225B345C8DC45B0F0BCBB46B246A94625
:101F7000A046F0BD621C01924A4621780298D154D5
:101F800007F0BCFCBD4207D0DA45ECDAA6423FD9E7
:101F90002B00019CA3E70194294807F0AFFCFEF752
:101FA0001FFCFA20800003F0E1FE264807F0A6FCA3
:101FB000EFF3108572B653461A02234B039218684A
:101FC000009B4946C01880188022520012F000FB86
:101FD0001E4807F093FC85F31088FEF70DFC1C48A3
:101FE00007F08CFC012082444046009A0399036864
:101FF00089188022C91801314846FF31520005F086
:10200000FDFDD345AFDDA64204D8564600256EE758
:1020100056466CE7019B9E4202D85646012566E76C
:1020200019781C004B460548197007F067FC631CC3
:1020300001250193A8E7C046E4240020F8480110D8
:102040001049011020490110E024002038490110F6
:1020500048490110802330B5184C89B022681849CE
:102060001B03184807F04AFCFEF7BAFBFA20800071
:1020700003F07CFEEFF3108572B68021206809031F
:1020800012F0BEFA85F31088FEF7B6FB0E4B8021E6
:102090009B6A05A80293082301930D33009318222D
:1020A0000D3B0903FFF7FAFD0A2105AA0020FFF7FF
:1020B000E5FE064807F022FC09B030BDE024002010
:1020C000B45701105C490110004005407C490110E3
:1020D00010B582B06B46DC1D010023000122A32055
:1020E00002F064F9207802B010BDC046080010B5B7
:1020F0001300034A11680200A22002F077F910BD14
:1021000084E0032010B584B001AB1900064A11CA5F
:1021100011C11288A2200A8080220021520202F0FE
:1021200065F904B010BDC04684490110802300B594
:1021300083B001AA1370793B0340502040421843FA
:1021400050700221782000F057FC03B000BDC0465B
:1021500010B51024A446644682B0030901AA2343A3
:10216000802153700F2311700340917078207C39C7
:10217000D37000F041FC02B010BDC046FA2300B598
:10218000DB0083B0019300F043FA782000F0A8FA56
:10219000002000F0A5FAAE2000F0A2FA002000F026
:1021A0009FFAD52000F09CFA002000F099FAA020B8
:1021B00000F096FA002000F093FAA82000F090FAC0
:1021C000002000F08DFA1F2000F08AFA002000F0B5
:1021D00087FAD32000F084FA002000F081FA002072
:1021E00000F07EFA002000F07BFAAD2000F078FAD3
:1021F000002000F075FA8E2000F072FA002000F046
:102200006FFAD82000F06CFA002000F069FA05207F
:1022100000F066FA002000F063FAA12000F060FAF6
:10222000002000F05DFAC82000F05AFA002000F00B
:1022300057FADA2000F054FA002000F051FA122088
:1022400000F04EFA002000F04BFA912000F048FA1E
:10225000002000F045FA3F2000F042FA002000F094
:102260003FFA3F2000F03CFA002000F039FA3F200E
:1022700000F036FA002000F033FA3F2000F030FA88
:10228000002000F02DFA812000F02AFA002000F052
:1022900027FA194B187800F023FA002000F020FAF2
:1022A000D92000F01DFA002000F01AFAD22000F028
:1022B00017FA002000F014FADB2000F011FA0020D9
:1022C00000F00EFA342000F00BFA002000F008FABB
:1022D000A62000F005FA002000F002FAA42000F089
:1022E000FFF9002000F0FCF9AF2000F0F9F900F050
:1022F000BDF903B000BDC046E824002010B502F0CF
:102300006DFF10BD10B502F069FF10BDF0B5C646F7
:10231000874B00B51B68002B02D180BCB846F0BDCE
:1023200003F030FE834B844A1C685D6826002F0052
:1023300004000D00A41BBD4194465268AA4244D239
:102340007E4A0024146003C37D4B1A6851424A41FF
:102350001A607C4A1B6814687B4A10687B4A1168C3
:10236000002B3DD0002C00D08EE08300784A5B1813
:102370009B009B589A00D218764B9C18A446654641
:10238000754C2C43A40700D0B5E0744CA046904493
:102390004446022C00D8AEE02A686F4D1400704A03
:1023A0002243704C1A55140A6C701402120EEA7013
:1023B0006246240EAC7012791400802252422243ED
:1023C000694C1A550222FF3260E0AA4203D16246EC
:1023D0001268A242B4D3594A1468002C9DD0B0E7C9
:1023E00083005B4A5B189B009B589C469A006244A2
:1023F000584B002C20D0584D9C182543AD0748D190
:10240000564DA84690444546022D42D92268524E68
:102410001500534A2A43534D5A55150A7570150233
:10242000120EF27080222D0EB57024795242224392
:102430004D4C1A55624629E09C18A4466546464C08
:102440002C43A4073BD1454CA04690444446022C63
:1024500035D92A68404D1400414A2243414C1A554F
:10246000140A6C701402120EEA706246240EAC70EC
:10247000127914008022524222433B4C1A55022307
:10248000FF339C46624601E080225200FEF76EFB5D
:1024900043E780249D5C6442324E25439D559A1843
:1024A0005578324E25439D559578314E25439D559F
:1024B000D578013625439D5512792243B8E780250A
:1024C0006D42AC469C5C9A182C43264D5C55654683
:1024D00054782C43254D5C55654694782C43244D07
:1024E0005C556546D4782C43A125ED005C556446C7
:1024F00012792243C1E780256D42AC469C5C9A1854
:102500002C43184D5C55654654782C43174D5C554B
:10251000654694782C43164D5C556546D4782C431B
:10252000A125ED005C5564461279224348E7C04678
:102530003CD40220A0410220F024002010DC022024
:1025400040D4022038D40220EC24002044D40220BD
:1025500054E10320B0180020B51D0020FEFAFFFF53
:102560008080808005050000090500000605000048
:102570000705000070B51D4E1D4D04003068296828
:1025800083001C4A5B189B009A58FEF7EFFA002262
:10259000194B1A60052C23D00CDD062C1AD0422CC6
:1025A00004D1164A136859424B4113600122144B5F
:1025B0001A6070BD032C07D0042CF7D12B68022BB6
:1025C000F4DC01332B60F1E72B68002BEEDD013BDF
:1025D0002B60EBE73368132BE8DC01333360E5E76E
:1025E0003368002BE2DD013B3360DFE7EC240020A1
:1025F00044D4022054E1032040D4022038D40220E5
:1026000010DC0220014B18607047C046F8240020FF
:10261000144B82B01A6801239340D02212065362F1
:10262000936100230193019B022B05DC019B013385
:102630000193019B022BF9DD0B4B1A680123934098
:10264000D02212065362936100230093009B022B59
:1026500005DC009B01330093009B022BF9DD02B0E7
:102660007047C046E8550110E455011001221A4B8D
:1026700084B01B689A40D0231B065A629A610023DB
:102680000393039B022B05DC039B01330393039B02
:10269000022BF9DD114B196801238B40D02109066B
:1026A0008B6200230293029B022B05DC029B013309
:1026B0000293029B022BF9DDD0231B069A620023B2
:1026C0000193019B022B05DC019B01330193019BCC
:1026D000022BF9DD04B07047E8550110E4550110F4
:1026E00070B5012631002F4BD0221B680824994079
:1026F0002D4B00251B6886B09E40120603064FD462
:10270000566296610395039B022B05DC039B013304
:102710000393039B022BF9DD91620295029B022B2E
:1027200005DC029B01330293029B022BF9DD51620F
:1027300091610195019B022B05DC019B0133019303
:10274000019B022BF9DD013C4000002CD6D1D023A7
:102750001B069E6299620494049B022B05DC049B79
:1027600001330493049B022BF9DDD0231B065A6826
:102770000120324203D05868304043425841D023B0
:102780001B065962996100230593059B022B05DC0A
:10279000059B01330593059B022BF9DD06B070BD47
:1027A0009662AFE7E4550110E85501108446012018
:1027B000F0B50600334BC6461B6888469E40324B38
:1027C000D0211B68082598400022002400B5090686
:1027D00086B08E620394039B022B05DC039B0133BE
:1027E0000393039B022BF9DD88620294029B022B68
:1027F00005DC029B01330293029B022BF9DD4B683F
:10280000520033405F1EBB414862886101949A18B0
:10281000019B022B05DC019B01330193019B022BE1
:10282000F9DD013D002DD5D14346002B26D0D02324
:102830001B065E629E61D0231B06986200230593EF
:10284000059B022B05DC059B01330593059B022BA1
:10285000F9DDD0231B065862986100230493049B82
:10286000022B05DC049B01330493049B022BF9DD4E
:1028700063461A7006B080BCB846F0BDD0231B0674
:102880009E62D8E7E8550110E4550110F0B54E46B8
:1028900057464546DE46E0B50126554B89B01B68D4
:1028A0000D009E40D0231B065E629E6100230093B4
:1028B000009B1700B146022B05DC009B01330093FF
:1028C000009B022BF9DD01224A4B1B689A40D02362
:1028D0001B065A629A6100230193019B9346022BC7
:1028E00005DC019B01330193019B022BF9DDFFF70E
:1028F000F7FE8246002847D0002D0FDD04AB0024F0
:1029000098466E1E311B4B1E99414046FFF74EFF05
:1029100043461B783B550134A542F3D1D0234A46A8
:102920001B065A629A6100230593059B022B05DC66
:10293000059B01330593059B022BF9DDD0235A46F5
:102940001B069A6200230693069B022B05DC069B5E
:1029500001330693069B022BF9DDD0234A461B0662
:102960009A6200230793079B022B05DC079B013328
:102970000793079B022BF9DD504609B0F0BCBB461C
:10298000B246A946A046F0BDD0234A461B065A626D
:102990009A610290029B022B05DC029B0133029399
:1029A000029B022BF9DDD0235A461B069A620023B4
:1029B0000393039B022B05DC039B01330393039BCF
:1029C000022BF9DDD0234A461B069A6200230493AA
:1029D000049B022BD0DC049B01330493049B022B49
:1029E000CADC049B01330493049B022BF3DDC3E791
:1029F000E8550110E4550110F0B501252F4B87B0C3
:102A00001B680F009D40D0231B065D629D61002363
:102A10000193019B1400022B05DC019B0133019300
:102A2000019B022BF9DD0126254B1B689E40D0231C
:102A30001B065E629E6100230293029B022B05DC53
:102A4000029B01330293029B022BF9DDFFF748FE44
:102A5000002F06DDE71920780134FFF741FEA74279
:102A6000F9D1D0231B065D629D6100230393039B74
:102A7000022B05DC039B01330393039B022BF9DD3F
:102A8000D0231B069E6200230493049B022B05DCCB
:102A9000049B01330493049B022BF9DDD0231B0616
:102AA0009D6200230593059B022B05DC059B0133EA
:102AB0000593059B022BF9DD07B0F0BDE855011029
:102AC000E45501107047C0460120034A1368196895
:102AD000024B1160186070475026002050E0022021
:102AE0000122034B1A60034B034A1A607047C04629
:102AF00050E0022050260020A42500200122034B94
:102B00001A60034B034A1A607047C04650E0022027
:102B1000502600202C2500200122034B1A60034B75
:102B2000034A1A607047C04650E002205026002039
:102B3000FC24002000B5002391B0002200210020D9
:102B4000FEF776FA0948FEF7BDFA6846084B1E21E3
:102B50001A6800921B79002203710023FEF7E4FA41
:102B60000122044B1A6011B000BDC046904901100B
:102B70009C49011050E0022000B591B009230922C0
:102B800068460A4906F0DCFB0023002200210020F1
:102B9000FEF74EFA6846FEF795FAFEF75FFAFEF783
:102BA000D7F80122024B1A6011B000BDA4490110F0
:102BB00050E0022010B5FEF773FA00230022002136
:102BC0000020FEF735FA0648FEF77CFAFFF738F9E1
:102BD0000120044A13681968034B1160186010BD86
:102BE000BC4901105026002050E0022070B501249D
:102BF0000F4D21002868FEF765FB0300032804D071
:102C0000042806D0012BF4D170BD002CF1D0013C7A
:102C1000EFE7022C03DC0134EBE70428F2D12100BA
:102C20002868FEF74FFB03000328F6D1EFE7C04604
:102C30004C260020F0B5DE4657464E46454600235A
:102C4000E0B5CDB004AC2370FEF72AFA584B002152
:102C50001A0000209B46FEF747F82000FEF752F8C6
:102C6000002201239246534A534D9146534A2B70FA
:102C70000192012B2FD0022B00D184E0032B00D036
:102C8000FEE703AB98460CAF9020FEF709FE4246E4
:102C900039002000FEF762FC061E53D04E4648491C
:102CA0003268484806F02AFEFEF7FAF95A46002133
:102CB0000020FEF719F851463800FEF703FBC3B2B7
:102CC0000D2B05D8404B80001B589F46FEF752FD48
:102CD0002B78012BCFD10023002240212000FEF7CA
:102CE00023FA01283CD00D28F2D102232B7003AB2C
:102CF0009846304E0CAF1DE0FEF792FD2B78B8E7FA
:102D00005246564602210020D20FB14242412B7852
:102D10009244AEE752465146D217521AD20F8A1A3F
:102D200092462B78A5E72378002B33D0002323701D
:102D300002332B70254806F0E1FD01233360023396
:102D40002B70A1E7019806F0D9FD012300222B701A
:102D50004021002320002670FEF7E6F90128C2D1A9
:102D60002378002B14D000232370FEF799F95A46DC
:102D700000210020FDF7B8FF220000210520FDF70B
:102D8000B3FF2B7875E703AB4E4698460CAFD1E7FF
:102D90000F4B18600023002200210020FEF748F9A5
:102DA0004DB0F0BCBB46B246A946A046F0BDC046F9
:102DB000CC4901100CDC0220B0E20320044A0110CF
:102DC00020590110EC490110CC570110D4490110D1
:102DD00050E0022010B50B4806F090FD322404208C
:102DE000FDF7F4FA012002F0C1FF0420FDF7FAFA22
:102DF000013C012002F0BAFF002CF0D1024806F09D
:102E00007DFD10BD184A0110204A01107047C046D0
:102E10007047C0467047C0467047C04610B5FEF7C1
:102E20003FF900210020124AFDF7DEFE01210020BB
:102E3000104AFDF7D9FE01230F4C23600120002129
:102E4000404207F0B7F8FFF761FA01F07BF9FDF7B0
:102E5000A9FF0130F2D0FDF77BFF012802D0FFF778
:102E600089FBEBE700232360044B186010BDC046CC
:102E70002C4A0110404A01103CD4022050E00220AC
:102E800030B589B0FEF70CF900210020154AFDF796
:102E90002BFF154D01200021404207F08BF8FFF772
:102EA00035FA01F04FF9FDF77DFF0130F2D0FDF763
:102EB0004FFF0400020003002900009003A806F061
:102EC0003FFAE0B2FDF7B0FFFDF782FF01210020DD
:102ED00003AAFDF789FE012CDCD1044B1C6009B06C
:102EE00030BDC046504A0110604A011050E0022037
:102EF00070B5094806F002FD01221500074BD024E9
:102F00001B68FA209D402406054BA56140001A600D
:102F100002F02CFFA56170BD744A0110D855011054
:102F2000ACE0032030B589B000236C462370FEF777
:102F3000B7F81E4D00202A000021FDF7D5FE684697
:102F4000FDF7E0FE01200021404207F033F8FFF7D3
:102F5000DDF901F0F7F80023002240212000FEF700
:102F6000E3F801281AD00D28ECD19020FEF798FC48
:102F700020000AF09DF901002000FEF71DFE00234D
:102F80002370FEF78DF82A0000210020FDF7ACFE2B
:102F9000220000210520FDF7A7FED3E72378002BB0
:102FA000EDD1034B186009B030BDC046844A011012
:102FB00050E00220F0B5DE46454657464E46E0B5A5
:102FC00083B0FFF79FF902F049F900250138A842C4
:102FD00012DD002405E020000122290002F016F98C
:102FE000013402F039F90138A042F4DC02F036F97C
:102FF0000A350138A842ECDC02F02EF90025013830
:10300000A84212DD002405E021000122280002F080
:10301000FDF8013402F022F90138A042F4DC02F09C
:103020001BF90A350138A842ECDC02F005F9FA2058
:10303000C00002F09BFEFFF765F900230122854ED8
:10304000009301339D259A46023B0027B3469146E3
:103050009846814C6D00019301200021404206F00A
:10306000A9FFFFF753F901F06DF802F0E5F8380019
:103070000022009902F0CAF8019F50463900002250
:1030800002F0C4F849465046002202F0BFF8390069
:103090004046002202F0BAF8AB44002249464046BE
:1030A00002F0B4F86421584603F050FA36190700CC
:1030B0006421300003F04AFA804601000122380002
:1030C00002F0A4F87A1C43469246591E012250464B
:1030D0000093019102F09AF8009A5046013291460D
:1030E0000122494602F092F87A1E90460199012287
:1030F000404602F08BF801224946404602F086F82D
:10310000564B9B453FDDE804401B8000401BC00040
:1031100040198001401B8000401B514903F016FA02
:10312000C82305005B019E4257DDE004001B8000C0
:10313000001BC00000190001001BC0000019484915
:10314000400003F003FA454BC82604009B463601B5
:1031500001200021404206F02DFFFFF7D7F800F0D4
:10316000F1FFFDF71FFE013000D175E7FDF7F0FD1F
:10317000012865D006285FD005285FD0032800D03D
:103180006AE7643468E7C8235B019E423DDDE004E2
:10319000001B8000001BC00000190001001BC000C4
:1031A00000192F49400003F0D1F99626040076005B
:1031B000B3454CDAE804401B8000401BC0004019B6
:1031C0004001401B800040192549400003F0BEF932
:1031D000B346C82605003601BAE7204B9B46962326
:1031E0005B009E42B4DAE004001B8000001BC000BC
:1031F00000190001001BC00000191949400003F02C
:10320000A5F9962604007600A2E796235B009B456D
:10321000E5DAE804401B8000401BC0004019400173
:10322000401B800040190E49400003F08FF996239F
:103230005B0005009B46D2E764350DE7643D0BE774
:1032400003B0F0BCBB46B246A946A046F0BDC826B6
:1032500036017DE78813000041020000D4300000F1
:1032600010270000F0B5DE46454657464E46E0B50D
:10327000C84893B006F042FB0A2006F073FAC6482D
:1032800006F03CFB0A2006F06DFAC44806F036FB57
:10329000C34806F033FBC34806F030FBC24806F0D3
:1032A0002DFBC24CFFF72EF8C14B0E930F94002359
:1032B00098460023BF4C0A930B940023BE4C0893FE
:1032C00009940523BD4C9B46BD4B0C930D940024E3
:1032D00001200021404206F06DFEFFF717F800F0D4
:1032E00031FF5B46002B00DCA1E000239A464346F9
:1032F00011941093504603F03FFC0A9E0B9F32003E
:103300003B0004000D0003F099FBAE4A04900591C8
:10331000AD4B2000290003F0B8FB32003B0003F066
:103320008DFBAA4B069007910C980D99002203F093
:10333000ACFB002300249946984600232500009307
:1033400001941C00029003910498059922002B001F
:1033500003F074FB069A079B04000D000098019986
:1033600003F06CFB06000F002000290003F0BCFCFA
:10337000009001913000390003F0B6FC02000B0010
:103380000098019903F05AFB009001912000290058
:1033900003F094FC04000D003000390003F08EFCB3
:1033A00002000B002000290003F048FB002204006B
:1033B0000D0000980199864B03F067FB089E099F5A
:1033C00032003B0003F061FB32003B0003F036FBB0
:1033D00003F0EAFB002207007D4B2000290003F0E8
:1033E00054FB00227B4B03F050FB0022794B03F08F
:1033F00025FB03F0D9FB0600484603F0BDFB029A0B
:10340000039B03F0A3FB02003100531E9A413800D6
:1034100001F0FCFE01239844D144C34594D19A4461
:103420005346642B00D065E7109B119C984601F031
:1034300003FF0E9A0F9B0A980B9903F0FFFA664A56
:10344000664B0A900B9103F081FB002807D00A9885
:103450000B99614A614B03F0E8FA0A900B91FDF772
:10346000A1FC013009D0FDF773FC012815D0062816
:103470000AD0052831D0032816D14346002B00D1AD
:1034800026E7FEF73FFF23E70898099902000B00A3
:1034900003F0D4FA08900991EFE713B0F0BCBB46F3
:1034A000B246A946A046F0BD4E2804D14C4806F0CD
:1034B00025FA0024E1E7482839D0542832D02B28B7
:1034C0003AD1012C20D00123022C0FD09B44594625
:1034D000444806F013FA0024CFE70898099900221F
:1034E0003B4B03F0D2FA08900991C6E73E4A3F4BA6
:1034F0000C980D9903F0A2FA02000B003C480C92C4
:103500000D9306F0FBF9B8E70E980F99364A394B40
:1035100003F094FA0A9A0B9B0E900F91364806F02E
:10352000EDF9AAE7354806F0E9F90124A5E73448A2
:1035300006F0E4F90224A0E72D2806D1012C1BD0C7
:10354000022C12D001235B42C0E7202804D142465E
:1035500001235A40904690E7492800D08DE7320079
:103560003900284806F0CAF987E71F4A1F4B0C9814
:103570000D9903F05AFABFE70E980F991A4A1D4B9E
:1035800003F053FA0A9A0B9B0E900F911A4806F01B
:10359000B5F972E78C4A0110AC4A0110D04A01100B
:1035A000104B0110304B0110484B01109999993F75
:1035B0009A99999900003440000050406666E63FB1
:1035C000666666669A4B23529163054000407F40D1
:1035D0000000E03F00004040F4D64354FB21194076
:1035E0006C4B0110904B01107B14AE47E17A943F75
:1035F000A04B0110E17A743F984B0110844B0110ED
:10360000784B0110A84B0110012010B50021404259
:1036100006F0D0FCFEF77AFE00F094FD10BDC04627
:10362000F0B5C646274F00B53B68002B23D1FDF708
:10363000B9FB013002D180BCB846F0BDFDF788FB74
:10364000214B1C68237B262BF5D022000021183249
:1036500006E00C3213000C3B1B780131262BEAD01C
:103660008342F6D14B005B189B00E41863699847CE
:1036700001233B60DFE700233B60FDF711FD124DA6
:103680002A68137B262B1AD0104B00240021984661
:1036900009198E0092191069FDF742FB2B6801345D
:1036A0009B191869FDF72EFB4046FDF72BFB6100C7
:1036B0002A680B199B00D3181B7B262BE8D1936833
:1036C0009847B4E750E0022050260020A04801109F
:1036D0000022044B1A60044B01321A60034B044A67
:1036E0001A6070474CE0022050E002205026002073
:1036F000E025002010B5FFF793FF10BDF0B50500E1
:1037000095B016000C000F00FDF7CAFC2A00002E31
:1037100015D0114D6846290005F012FE6A460021B9
:103720000020FDF7E1FA22002900684605F008FEB6
:103730006A4601210020FDF7D7FA15B0F0BD074C0D
:103740006846210005F0FCFD6A4600210020FDF7D7
:10375000CBFA3A002100E8E7B84B0110C04B01104A
:10376000F0B595B0FDF79CFC3D4C00222100684669
:1037700005F0E6FD6A4600210020FDF7B5FA0025B8
:103780002100012600240022684605F0D9FD6A4682
:1037900001210020FDF7A8FA324F0120002140420C
:1037A00006F008FCFEF7B2FD00F0CCFCFDF7FAFADB
:1037B0000130F2D0FDF7CCFAC3B2462B02D8830019
:1037C000FB589F46320021002800FFF797FFE4E7EF
:1037D000002E0DD02401303803E0002E0DD024013E
:1037E00037380419012221002800FFF787FFD4E7AA
:1037F000A3001B195B003038C418002221002800E8
:10380000FFF77CFFC9E72C1B320021000020FFF7E7
:1038100075FF0025C1E72100280002F097FE040093
:10382000F2E70022104B21001A6028003200FFF757
:1038300065FF15B0F0BD0123320021005A40280079
:103840001600FFF75BFFA8E76C43DDE76419DBE7D1
:103850002000320000212500FFF750FF00249CE7E4
:10386000B84B0110045801103CD402200022014B37
:103870001A60704780E00320014B024A1A607047CB
:1038800080E00320000018107047C046064B1B68FC
:1038900019003039392B01DD573B1900034A1368F1
:1038A0001B010B43136070472CE0022080E00320D3
:1038B0000122014B1A60704720E002200021002005
:1038C00010B502F02DFDC0460021002010B502F019
:1038D00027FDC04610B5FEF78FF910BD70B50E4D2F
:1038E000C0B02B68002B14DD00240C4E22003100E8
:1038F000684605F025FD9020FDF7D2FF684609F0E7
:10390000D7FC01006846FEF757F92B680134A34243
:10391000ECDC40B070BDC04680E00320E84C0110F4
:1039200010B50100014805F0E9FF10BDF04C011091
:1039300070B50A2005F016FF074C084D2600FC362E
:103940006268216828000C3405F0D8FFB442F7D132
:103950000A2005F007FF70BD54260020044D011019
:1039600070B50A2005F0FEFE0B4C0C4E2500993573
:10397000FF35626813782A2B03D03000217805F0D8
:10398000BDFF0C34AC42F4D1054805F0B7FF0A2066
:1039900005F0E8FE70BDC04650270020104D011014
:1039A0001C4D0110F0B5DE4657464E464546E0B583
:1039B0000A2093B005F0D6FE002304AE33708023B6
:1039C000244F9B003C68E3189C4238D2224B994616
:1039D000224B9846224B9B46224B0193224B9A4600
:1039E0000FE051462A0002A805F0AAFC02A9300007
:1039F00009F09AFB80223B68920001349B18A34295
:103A00001DD90F231D00254023420ED0257848469E
:103A1000290005F073FF434668225B5D9343E0D1C4
:103A20002E2302AA11001380E1E73100584605F069
:103A300065FF21000198357005F060FFE6E70A2078
:103A400005F090FE13B0F0BCBB46B246A946A046B6
:103A5000F0BDC04680E00320A44801107567011046
:103A6000404D0110484D0110504D011010B5034B51
:103A7000034A1A60FFF796FF10BDC04680E003209E
:103A80000000181010B5044805F038FFFEF7D8F90B
:103A9000024805F033FF10BD544D011034480110A9
:103AA000002110B5034B0448595605F027FFFEF7D7
:103AB000C7F910BDB1E20320644D0110002170B5BB
:103AC000214D8CB069562148413105F017FF03AAFA
:103AD00002A901A8FDF7F8FE039A01991C4805F018
:103AE0000DFF6B460021DC1C2300695604AA01204F
:103AF000FDF7B8FC002123000320695604AAFDF756
:103B0000B1FC002817D0134E2078FDF7C9FE03AA98
:103B100002A901A8FDF7D8FE029B227804A9300073
:103B200005F0ECFE002123000420695604AAFDF7ED
:103B300099FC0028E8D100212300695604AA02203C
:103B4000FDF790FC0CB070BDB1E20320744D011084
:103B5000884D0110B04D011010B5FFF7AFFF10BD3B
:103B600070B51B211D4805F0C9FE1D4805F044FE37
:103B70001B211C4805F0C2FE1B4C1C4D236828006D
:103B80005A425341236005F0B9FE0A2005F0EAFDD0
:103B90002368002B1FD01649164805F0AFFE0A20F7
:103BA00005F0E0FD144805F0A9FE144805F0A6FE56
:103BB000134805F0A3FE134805F0A0FE124805F0D7
:103BC0009DFE0A2005F0CEFD280005F097FE0A2094
:103BD00005F0C8FD70BD0D49DEE7C0461447011071
:103BE000D84D0110E44D011038E10320EC4D0110D7
:103BF000CC4D0110184E0110304E0110444E0110F2
:103C0000544E0110684E0110804E0110D04D01102D
:103C100070B51B211F4805F071FE1F4805F0ECFD33
:103C20001B211E4805F06AFE1D4C1E4D236828000E
:103C30005A4253411C4A2360136859424B41136056
:103C400005F05CFE0A2005F08DFD2368002B1FD0D7
:103C50001649174805F052FE0A2005F083FD154865
:103C600005F04CFE144805F049FE144805F046FEE8
:103C7000134805F043FE134805F040FE0A2005F006
:103C800071FD280005F03AFE0A2005F06BFD70BDBD
:103C90000D49DEE714470110D84D0110984E011070
:103CA00038E10320EC4D011034E10320CC4D01102C
:103CB000184E0110304E0110444E0110544E0110A8
:103CC000684E0110804E0110D04D011010B59021AA
:103CD0000148FDF771FE10BDA44E011010B500247F
:103CE0000A2005F03FFD064B1C57FEF79DF821000A
:103CF0000200044805F002FE0A2005F033FD10BD65
:103D0000B1E20320AC4E0110F0B5C64600B5214B20
:103D100084B01978204805F0F1FD204B204819683F
:103D200005F0ECFD1F4B2048196805F0E7FD1F4B1F
:103D30001F48196805F0E2FD012008F03FFC010072
:103D40001C4805F0DBFD1C4D00212A686B681B48F0
:103D500005F0D4FD1A4B01249846AA68EB6803CD00
:103D600016001F00361A8F4130003900029003916F
:103D7000611E0191009421004046013405F0BEFD12
:103D8000072CEAD10A2005F0EDFC04B080BCB8464F
:103D9000F0BDC046ACE20320CC4E0110E42400206C
:103DA000E04E01102CD40220F84E011084E00320D4
:103DB000104F01101C4F011070450220304F0110B0
:103DC000444F011010B50420FDF702F810BDC046A5
:103DD00000B587B001AA09F0FBF8002101A8FDF7A2
:103DE000EBFD07B000BDC04600B5C3B002AB01AAF1
:103DF0000A4909F0EDF8019A02A9094805F07EFD8B
:103E00000198C0B2FDF74CFD02A809F051FA01007B
:103E100002A8FDF7D1FE43B000BDC0466C4F0110B3
:103E20007C4F011000B583B001AA09F0D1F80198C8
:103E3000C0B2FDF735FD03B000BDC04610B5044B60
:103E40000448196805F05AFDFDF794FC10BDC04602
:103E50000CDC02209C4F011000B5C3B06A4601ABD8
:103E6000074909F0B5F8074B07481A78074B196856
:103E700005F044FD02A8FDF7F7FC43B000BDC046C5
:103E8000A84F0110AEE20320B04F01100CDC02205D
:103E900010B5FDF7C5FC10BD70B5D2B000236A4661
:103EA000137202AA09F094F80B4E0C4D0AE0346824
:103EB000FDF7BAFF2100020012AB280005F01EFD3D
:103EC000FDF7AEFC01AA12A902A8FDF747FB0028E6
:103ED000EDD152B070BDC0460CDC0220D44F0110B1
:103EE00000B583B001AA09F073F8019840B2FDF75C
:103EF000FFFE0021034B0448595605F0FFFC03B0B8
:103F000000BDC046B1E20320E84F011000B583B008
:103F100001AA09F05DF80198FDF7C8FC03B000BDE7
:103F200010B5FDF759FC10BD002310B50B2488B067
:103F30000593013306931333079306AB05AA009349
:103F400007AB09F045F807986C44C0B22070FDF744
:103F5000A7FC059840B2FDF7CBFE2200069804AB03
:103F600003A9FDF791FB002813D007990B4805F032
:103F7000C5FC03990A4805F0C1FC0499094805F0FD
:103F8000BDFC0021084B0948595605F0B7FC08B0A4
:103F900010BD074805F0B2FCF9E7C046F84F011024
:103FA0000850011018500110B1E20320E84F011031
:103FB000285001107047C0463E4BF0B5DE469B4688
:103FC00057464E4645465A460023E0B589B0136031
:103FD000394B3A4F9A463A4BBB460393394B17003D
:103FE0000493394B394C0593394B994607AB9846A6
:103FF00048465346049900680978039A49B21B68F9
:10400000127841310090059805F078FC4346202253
:104010001A8000232370642005F058FB0500831CE0
:10402000F9D00D2D10D01B2D0ED0280005F09AFBD5
:10403000200009F03DF98028EDD043464146201884
:104040001D7009F02DF9E6E75E46BB4635002700F6
:104050000296002403E001340C35152C21D02E6883
:10406000300009F025F939000200300009F082F82B
:104070000028F0D12500029B3C005F469B466B0068
:104080005B199B005B44596820009B6898473B681C
:10409000002BADD009B0F0BCBB46B246A946A04645
:1040A000F0BD3C005F46029B9B463B68002B9FD0C7
:1040B000F0E7C04620E002200CDC0220542600205D
:1040C000AEE20320B1E203203C500110B0E0032037
:1040D00084E0032030B5174883B005F08DFB164807
:1040E00005F00CFC20236A4693800023134D2B70AF
:1040F000642005F0EBFA0400831CF9D00D2C10D0DD
:104100001B2C0ED0200005F02DFB280009F0D0F864
:104110008028EDD06B46281801A91C7109F0C0F861
:10412000E6E700212800FDF747FC054805F0E6FB1F
:1041300003B030BD5C50011070500110B0E003209E
:1041400034480110F8B5694D00202C68002C1BD0B4
:1041500005F0BCFA0600831C15D0654B1F001B68D8
:10416000012B40D0022B2BD0002B0CD11B285BD075
:10417000604C43B22370013305D0FFF745FA0023AA
:10418000E3560133F9D1F8BD05F0A0FA831CFAD04B
:1041900059490B0003E001340C33222CF3D01A7878
:1041A0008242F8D1554B186063001B199B00C91857
:1041B0008B689847524B5348196805F09FFBE2E71C
:1041C000432868D019DC412851D042282FD104233C
:1041D000484C2370FFF718FA0023E3560133F9D156
:1041E00000233B60CFE76D284BD012DC1B2872D038
:1041F0005B285AD102233B60C5E7442817D1052329
:104200003C4C2370FFF700FA0023E3560133F9D149
:10421000E6E76F2849D1374C2370FFF7F5F9002303
:10422000E3560133F9D1DBE701333B60ABE7002311
:10423000304C2370013305D0FFF7E6F90023E35635
:104240000133F9D100232370013305D0FFF7DCF9E6
:104250000023E3560133F9D173B223700133BFD089
:10426000FFF7D2F90023E3560133F9D1B8E703236E
:10427000204C2370FFF7C8F90023E3560133F9D12E
:10428000AEE702231B4C2370FFF7BEF90023E35671
:104290000133F9D1A4E70623164C2370FFF7B4F9D4
:1042A0000023E3560133F9D19AE70023114C237020
:1042B000013305D0FFF7A8F90023E3560133F9D104
:1042C00073B2237001338BD0FFF79EF90023E356BE
:1042D0000133F9D184E700231B210B482B603B609D
:1042E00005F00CFB094805F009FB4CE738E1032019
:1042F00044E10320C4240020502700202CE00220A9
:1043000080E00320A0500110845001108C50011057
:1043100070B50D000C4904000968160082B0002930
:1043200001D102B070BD1B21084805F0E7FA1B213E
:10433000A31CAA1C0096064805F0E0FA1B210548BC
:1043400005F0DCFAEDE7C04638E103200047011034
:10435000AC5001101047011070B5104B04001B68E1
:104360000D00160082B0002B01D102B070BD1B21E0
:104370000B4805F0C3FA734273411F215B428B4324
:1043800040330093EA1D23000439064805F0B6FACD
:104390001B21054805F0B2FAE7E7C04638E10320E3
:1043A00000470110AC50011010470110F0B5040097
:1043B00083B00D481F0016000D0005F09FFA0F2076
:1043C000FEF720F96946FE206DBA8D80204001AAD3
:1043D0000221FEF711FB01231C433A003100E0B239
:1043E000FEF754FA03B0F0BDBC520110F8B5070057
:1043F00012480E0015001C0005F080FA0F20FEF791
:1044000001F9FEF705F9FE203840FEF769F9301290
:10441000C0B2FEF765F9F0B2FEF762F9002D06DDD5
:10442000651920780134FEF75BF9AC42F9D1FEF74B
:104430001DF9042001F09AFCF8BDC046BC520110E1
:10444000F0B54546DE4657464E46E0B50400884680
:1044500085B0002A4AD12368002B00D09847A36971
:10446000002B3CD0234B04349B46234B9A46234BD2
:104470009946234B039307E0022B01D163699847C8
:10448000E36A1834002B2AD0E06808F011FF534685
:10449000276866680193A3683200C31802333900A5
:1044A000009305005B464046FCF764F9E368320080
:1044B000009339004B464046FCF75CF9237C012B06
:1044C000DAD16369E9191B68320000934046039B07
:1044D00002311834FCF74EF96369002BD4D105B0D2
:1044E000F0BCBB46B246A946A046F0BD0800FCF7AA
:1044F0006FF9B0E7D4520110844D0110D852011069
:104500000C4F0110F0B5CE46474680B589B0080083
:1045100002A991460A0098460E4B30CB30C21400D7
:104520000D4BE0CBE0C21B7813700C4B07220193BC
:1045300003F064FB21000C22484603F05FFB0322DA
:10454000404601A903F05AFB09B0C0BCB946B046C9
:10455000F0BDC046DC520110E4520110312E300093
:10456000074B10B51A780123002A01D1180010BD9D
:1045700000233A22022106F0B5FF0023F6E7C046E9
:10458000ADE2032080235B000B60DB1813807047D3
:10459000002B01D0002A01D001207047014B0132CD
:1045A0001A70F9E7ADE2032010B5FF2909D84902D6
:1045B0008918054A18008918029A03F01FFB02980F
:1045C00010BD01204042FBE7E82800200120704791
:1045D000F8B54746CE46984680B51F00FF2925D836
:1045E00049028A18134914485218914605F086F971
:1045F000089A002A10D03C006825104EBF1802E02F
:104600000134A74208D02078335CAB43F8D00134A2
:1046100005F0A8F8A742F6D141464846089A03F0AB
:10462000EDFA0898C0BCB946B046F8BD012040423A
:10463000F8E7C046E8280020F45201107567011021
:1046400010B500232022052106F04CFF0120404236
:1046500010BDC04601210A00764B10B51B689A4078
:104660001300754A1268914042B2002A00DACFE086
:10467000D02212069161D022120693619361936158
:1046800093619361936193619361936193615361CA
:10469000536153615361536153615361536153617A
:1046A0005361440600D5C3E09161D02212069361A4
:1046B000936193619361936193619361936193615A
:1046C000936153615361536153615361536153610A
:1046D000536153615361840600D5A7E09161D022F4
:1046E0001206936193619361936193619361936106
:1046F000936193619361536153615361536153615A
:1047000053615361536153615361C40600D58BE01B
:104710009161D022120693619361936193619361D9
:1047200093619361936193619361536153615361A9
:104730005361536153615361536153615361040782
:1047400000D56FE09161D02212069361936193616D
:1047500093619361936193619361936193615361F9
:1047600053615361536153615361536153615361A9
:104770005361440754D49161D0228401120693619D
:10478000A446936193619361936193619361936193
:1047900093619361536153615361536153615361F9
:1047A0005361536153615361800737D49161D022C3
:1047B0006046120693619361936193619361936183
:1047C0009361936193619361536153615361536149
:1047D00053615361536153615361536140061BD46C
:1047E0009161D02212069361936193619361936109
:1047F00093619361936193619361536153615361D9
:10480000536153615361536153615361536110BDEF
:10481000D022120651612EE75161E2E75161C6E7ED
:104820005161A9E751618EE7516172E7516156E725
:1048300051613AE7E4550110E855011070B50124C3
:104840002200074BD0251B682D069A40054BAA6114
:104850001B689C40AC61FFF7FDFE6C6170BDC046FB
:10486000D0550110CC55011070B501242200074B22
:10487000D0251B682D069A40054B6A611B689C4039
:10488000AC61FFF7E7FE6C6170BDC046D05501100A
:10489000CC55011070B5012632003500464BD024AE
:1048A0001B6824069A40454B62611B68AE209D4000
:1048B000434B65611B689E406661A661A561FFF779
:1048C000C9FE6561D520A661A561FFF7C3FE6561DC
:1048D0008020A661A561FFF7BDFE6561A820A661E5
:1048E000A561FFF7B7FE65613F20A661A561FFF7EF
:1048F000B1FE6561D320A661A561FFF7ABFE6561DE
:104900000020A661A561FFF7A5FE65614020A661B4
:10491000A561FFF79FFE6561A620A661A561FFF76F
:1049200099FE6561A420A661A561FFF793FE65610C
:10493000A120A661A561FFF78DFE6561C820A66173
:10494000A561FFF787FE6561DA20A661A561FFF723
:1049500081FE65611220A661A561FFF77BFE65619E
:104960008120A661A561FFF775FE65618F20A661B4
:10497000A561FFF76FFE6561D920A661A561FFF70C
:1049800069FE65612520A661A561FFF763FE65618B
:10499000DB20A661A561FFF75DFE65613420A6619D
:1049A000A561FFF757FE6561AF20A661A561FFF71E
:1049B00051FE656170BDC046D4550110CC55011043
:1049C000D0550110802210B500210248D20003F01A
:1049D0000FF910BDEC4F022030B5802812DC4029C1
:1049E00010DC07242500CB1723405B180D40012164
:1049F000DB10DB01054C1818A940235C002A02D00B
:104A00000B43235430BD8B432354FBE7EC4F022070
:104A1000F0B5454657464E46DE46E0B5060085B041
:104A20001C000D0090460EAB0A00D54831001F78DF
:104A300004F064FF002C00D154E14246203AD2B287
:104A4000D04B1101CB18019353009B18CE4A9B0009
:104A50009B1803937B1E9F410021CC487B422A0078
:104A60009C468A46834604E151466746019B5B5C4F
:104A70007B40DBB2DB43802E00DD07E11F0600D563
:104A800037E1402A12D80720D710FF01B94610405D
:104A900001000120B14488404946BC4F795C02972F
:104AA0000F00874338004946029F7854571CFFB2D5
:104AB000B9467F1BA74200D10BE15F0600D52CE170
:104AC0004846402812D80721C710FF01B8460840C1
:104AD00001000120B04488404146AC4F795C029708
:104AE0000F00874338004146029F7854971CFFB25D
:104AF000B8467F1BBC4200D1EBE09F0600D523E106
:104B00004046402812D80721C71008400639894678
:104B10000100484688405946FF01BF19C95D8946D2
:104B200001004846884301005846C155D71CFFB2D2
:104B3000B8467F1BBC4200D1CBE0DF0600D527E1A1
:104B40004046402812D80721C71008400639894638
:104B50000100484688405946FF01BF19C95D894692
:104B600001004846884301005846C155171DFFB251
:104B7000B8467F1BBC4200D1ABE01F0700D523E144
:104B80004046402812D80721C710084006398946F8
:104B90000100484688405946FF01BF19C95D894652
:104BA00001004846884301005846C155571DFFB2D1
:104BB000B8467F1BBC4200D18BE05F0700D51FE1E8
:104BC0004046402812D80721C710084006398946B8
:104BD0000100484688405946FF01BF19C95D894612
:104BE00001004846884301005846C155971DFFB251
:104BF000B8467F1BBC426CD09F0700D51CE14046E5
:104C0000402812D80721C7100840063989460100FC
:104C1000484688405946FF01BF19C95D89460100D1
:104C20004846884301005846C155D71DFFB2781B3E
:104C300084424ED0DB0700D51AE1402F0ED8072161
:104C40000800FB103840012787405946B946DB0170
:104C50009B19CF5C49468F435946CF540832D2B294
:104C6000531BA34235D001239A445346DBB29C42E6
:104C700038D90C2C00D0F7E651466046039B5B5CAC
:104C80004340DBB2DB43802E00DCF7E6531CDBB293
:104C90005B1B9C421DD0931CDBB25B1B9C4218D05B
:104CA000D31CDBB25B1B9C4213D0131DDBB25B1B1E
:104CB0009C420ED0531DDBB25B1B9C4209D0931D5E
:104CC000DBB25B1B9C4204D0D31DDBB25B1B9C425E
:104CD000C4D101239A4453460136DBB22A00F6B20E
:104CE0009C42C6D805B0F0BCBB46B246A946A04619
:104CF000F0BD402A00DDD9E60721D710FF01B946F3
:104D0000114008000121B144814048461F4F385CE2
:104D10000143080049467854C8E64946402900DD69
:104D2000E4E60720CF10014008000121FF01B8464A
:104D30008140B04489464146144F785C494601435E
:104D4000080041467854D1E64146402900DDEDE6B1
:104D50000720CF10FF01B919029101004046084019
:104D6000063989460100484688408146074F029926
:104D70000297785C070048463843029F7854D5E68E
:104D80000C53011030590110205F0110EC4F02202C
:104D90004146402900DDE9E60720CF10FF01B9199F
:104DA0000291010040460840063989460100484604
:104DB00088408146384F02990297785C0700484640
:104DC0003843029F7854D1E64146402900DDEDE6A4
:104DD0000720CF10FF01B919029101004046084099
:104DE0000639894601004846884081462A4F029983
:104DF0000297785C070048463843029F7854D5E60E
:104E00004146402900DDF1E60720CF10FF01B91926
:104E10000291010040460840063989460100484693
:104E2000884081461C4F02990297785C07004846EB
:104E30003843029F7854D9E64146402900DDF4E624
:104E40000720CF10FF01B919029101004046084028
:104E50000639894601004846884081460E4F02992E
:104E60000297785C070048463843029F7854DCE696
:104E7000402F00DDF2E60721FB10DB010F409946D1
:104E80000639B940B1440F004946034B595C0F4302
:104E900049465F54E2E6C046EC4F0220F8B50126D1
:104EA00032001E4B47461B68CE469A401C4BD0250D
:104EB0001B6890469E400023994680B5194F2D06E9
:104EC000484643465038AB61C0B2AE61FFF7C2FB03
:104ED00043466E610020AB61AE61FFF7BBFB43460A
:104EE0003C006E611020AB61AE61FFF7B3FB803C0C
:104EF0006E61434620786B610134AE61FFF7AAFB17
:104F00006E61A742F5D1012399444B468037082BA7
:104F1000D6D1C0BCB946B046F8BDC046D055011088
:104F2000CC5501106C50022010B5FD20FFF786FC17
:104F30001220FFF799FCFD20FFF780FCB120FFF75E
:104F400093FCAE20FFF77AFCA420FFF777FC152036
:104F5000FFF774FC0020FFF787FC7F20FFF784FC3D
:104F60007520FFF76BFC0020FFF77EFC7F20FFF72A
:104F70007BFCB320FFF762FCF120FFF775FCCA2031
:104F8000FFF75CFC7F20FFF76FFCA020FFF756FCCB
:104F90006520FFF769FCA120FFF750FC0020FFF718
:104FA00063FCA220FFF74AFC0020FFF75DFCAB206A
:104FB000FFF744FC0120FFF741FCB420FFF73EFC63
:104FC000A020FFF751FCB520FFF74EFC5520FFF75E
:104FD0004BFCC120FFF732FCC820FFF745FC8020C6
:104FE000FFF742FCC020FFF73FFCC720FFF726FC7D
:104FF0000F20FFF739FCB120FFF720FC3220FFF72C
:1050000033FCB220FFF71AFCA420FFF72DFC002090
:10501000FFF72AFC0020FFF727FCBB20FFF70EFC60
:105020001720FFF721FCB620FFF708FC0120FFF74F
:105030001BFCB520FFF702FC0B20FFF715FCBE2080
:10504000FFF7FCFB0520FFF70FFCA620FFF7F6FBA0
:10505000802200211202034802F0CAFDAF20FFF7B0
:10506000EDFB10BDEC530220802210B50021024858
:10507000120202F0BDFD10BDEC5302207F2809DCB6
:105080007F2907DCC901044B09184900100A58544C
:105090005B185A707047C046EC5302207047C046F8
:1050A00070B51520FFF7CAFB0020FFF7C7FB7F2074
:1050B000FFF7C4FB7520FFF7C1FB0020FFF7BEFB25
:1050C0007F20FFF7BBFB5C20FFF7B8FB8023054C7C
:1050D0001B02E51820780134FFF7C6FBAC42F9D17A
:1050E00070BDC046EC53022010B504000F4804F018
:1050F00005FC0F4B1C70022C12D0032C0AD0012C83
:1051000007D10C4804F0FAFB0A2000F02FFEFDF74F
:1051100035F810BD084804F0F1FBFFF705FFF8E78C
:10512000064804F0EBFBFFF7B5FBF2E72053011054
:10513000ACE203202C5301104C5301103C530110DE
:1051400010B50A4B1B78022B0BD0032B04D0012B7C
:1051500001D1FBF7EBFC10BDFFF786FFFFF7A0FFC7
:10516000F9E7FFF72FFCFFF799FEF4E7ACE2032025
:1051700000B5194B83B01B78022B1ED0032B0BD02C
:10518000012B07D10233591A8300C01A40007F3027
:10519000FBF78AFC03B000BD0C2359434300C01841
:1051A000FF231B020193012340000093D2B2C9B236
:1051B000C0B20B33FFF772FFECE70C2359434300F7
:1051C000C018012340000093D2B2C9B2C0B20B3361
:1051D000FFF71EFCDEE7C046ACE2032010B50A4B29
:1051E0001B78022B0BD0032B04D0012B01D1FBF732
:1051F0009DFC10BDFFF738FFFFF752FFF9E7FFF7FF
:10520000E1FBFFF74BFEF4E7ACE2032010B5094BDE
:105210001B78022B0AD0032B04D0012B01D1FBF702
:105220009BFB10BD92B2FFF729FFFAE7D2B2FFF75E
:10523000D3FBF6E7ACE2032010B5064B1B78022B3C
:1052400005D0032B00D010BDFFF72AFFFBE7FFF7C7
:1052500025FEF8E7ACE2032080207047064B1B7860
:10526000022B04D002229343012B02D0704740202E
:10527000FCE72020FAE7C046ACE20320064B8000A2
:10528000C3181B68C90092000A435A400C231340FC
:10529000024A80180360704704C0014004D00140F6
:1052A0000123D0228340120693629361084A83004F
:1052B0009A1811684022514080320A400549C000C6
:1052C0005B181A60044BC018052343607047C04642
:1052D00004C0014004D00140004001408023DB05B0
:1052E0001868000F7047C0460FB400B5084883B077
:1052F00004F082FA049B002B07D005A91800019145
:1053000004F062F8034804F077FA012004F074F81E
:105310005C530110E04D011070B58C461600EFF3A0
:10532000108472B60F490B68002BFCD0BFF35F8F5F
:105330006346DB08C5180722C05C63461A40012398
:1053400093401A000240034207D118432870BFF36C
:105350005F8F0A6084F3108870BD61463000FFF7EC
:10536000C3FFC0462C0100D0F8B5CE4647468C4658
:1053700080B51C00EFF3108872B61C490B68002B37
:10538000FCD0BFF35F8FA24221D80723994602E0E9
:105390000132944218D34946012611408E40D30869
:1053A000C718C35C1E42F3D1100033433B70BFF3F8
:1053B0005F8F00220D4B1A6088F3108800280EDBE7
:1053C000C0BCB946B046F8BD01204042EFE7BFF38C
:1053D0005F8F00230B6088F31088012040426346F2
:1053E000002BEDD00898FFF77FFFC0462C0100D0BE
:1053F000044A1078431CDBB2172B00D9102313701A
:105400007047C046E828022000B5054B83B0010074
:10541000009318221F230348FFF7A6FF03B000BD27
:105420006C530110F0D302200021044B044ABFF357
:105430005F8F02C39342FAD17047C046000100D08B
:10544000800100D0084B094A1360094A1360094AD9
:105450001360094A1360094A1360094A1360094A34
:105460001360094A136070478080808000E400E088
:1054700004E400E008E400E00CE400E010E400E0F4
:1054800014E400E018E400E01CE400E01F231840EE
:105490001E3B8340002905D0C021044A49005350D7
:1054A00013607047802201498B50FAE700E100E069
:1054B00001228240034B1B6813405A1E9341D8B20D
:1054C0007047C04600E100E070B50D00EFF31086B4
:1054D00072B60F4A1368002BFCD0BFF35F8F0D4BE1
:1054E00010309B6884001B590B4A934203D09D42A5
:1054F00001D000F039FF074B9B681D51BFF35F8F50
:10550000BFF35F8F0022024B1A6086F3108870BDD4
:10551000240100D000ED00E0CD010010F0B5DE4622
:1055200057464E464546E0B5824683B08B46170047
:10553000EFF3108872B6604A1368002BFCD0BFF3FB
:105540005F8F00255D4B5D579946002D00DA9AE08C
:105550004A466B005A4C5E19B6000193A31900939A
:105560009B791370574B9A68534610339B00D15860
:1055700099460B1B2F2B32D9534B994200D098E000
:10558000019B0236ED18514BAD006353504BA619E9
:10559000043B9B1B4F4A1B055B0D651913436B8036
:1055A0004D4B0121AB80FF23AB715B46AB60009B91
:1055B000EF710B4319004A46424B9B689950BFF369
:1055C0005F8FBFF35F8F00223B4B1A6088F3108818
:1055D00003B0F0BCBB46B246A946A046F0BD0120D0
:1055E0000A008243D379B446BB422DD83B4BB51C4D
:1055F000190013001B1B5B415943090D8C46334BAB
:105600006519A353324B0099043B5B1B1B05314DBD
:105610005B0D2B4304364B80A619131F9B1B1B05E8
:105620005B0D1D4363468B715B468B602C4B8D80FD
:10563000CF7113600143BEE75800C01880002018E6
:10564000C679BE4225D902000623D356002BF3DAD1
:105650009A46131D9C4623486346009E9571043E5E
:10566000F61A36051B4B760D1E43019B96805A1980
:1056700053469200A418A3715B46194AA080226089
:10568000E771A36097E700F06FFE00254B465D577A
:105690005EE766469A46131D9C4690880436400590
:1056A0000015A6196044801B00050A4E400D3043CA
:1056B000D2E700F059FE63E7240100D0AFE20320F7
:1056C000EC28022000ED00E0CD01001000A1FFFF5A
:1056D0001C29022000E0FFFF01BDFFFFAAAA000075
:1056E0000148804701BD00000123034370B59C467B
:1056F000EFF30581EFF3108572B6214A1368002B92
:10570000FCD0BFF35F8F1F4B04001F4AE41A6441B3
:105710006243120D1D4C8900A66852B27658664548
:105720001CD00621595691421CD012215956914243
:1057300022D01E215956914220D02A2159560324A5
:10574000914210D0124B19781A708171BFF35F8F9C
:1057500000220B4B1A6085F3108870BDA3680D4CB6
:105760005C50EFE700246100091989005B18FF21F4
:10577000997109499980E5E70124F4E70224F2E7E9
:10578000240100D0EC280220AAAA000000ED00E0CD
:10579000AFE20320CD01001001BDFFFF024BC9188D
:1057A000890001607047C0464000003470B5114C5C
:1057B000114DAC420FD2FF262368002B0CD0FFF70F
:1057C00017FE01002000FFF7E9FFA680BFF35F8FFF
:1057D0000834AC42F0D370BDFFF70AFE0100200090
:1057E000FFF7DCFF2671BFF35F8F0834AC42E3D3D1
:1057F000F1E7C046703002208030022010B504006E
:10580000FFF7F6FD01002000FFF7C8FFFF2323711B
:10581000BFF35F8F10BDC04610B504000120FFF735
:10582000F3FD034BC01880002060BFF35F8F10BDF5
:10583000400000340A4B1968EFF3108072B60A6812
:10584000002AFCD0BFF35F8F1B68BFF35F8F00227D
:105850001A6080F3108840BF002000217047C046C6
:1058600048E10320F0B5DE4657464E464546E0B5D2
:1058700085B0EFF3058203231340B34A99005758CC
:1058800001229A40B14B88461A60B14B934603936C
:105890002AE0BB881BB2002B00DB9CE0BB79002B0D
:1058A00000D0DDE00823F95E002900DA0DE14B00AD
:1058B0007A695B18DB00D3189D68DC686B1C00D12B
:1058C000FAE0A44B190041449A6A0B69A81A9B1A82
:1058D000984200D20D619F4800F04CFB8C4200DDE5
:1058E000F3E08C4200D127E15B469A4843630823EA
:1058F000FE5E002ECDDB7A69730091469B19DB00BA
:1059000099444B469C68DD6800F034FB8D42C0DC56
:1059100000D100E1002D00DAE5E04A464B4652692D
:105920001B699246039A934200D1D6E04A46082169
:10593000785E5288000451461043984700900191C8
:105940000099019A0B00134300D1CCE013000A0028
:10595000002B00DBE3E020002900801A99414B4630
:105960009860D96000229B5E002B92DB5D007C6911
:10597000EA18D200A21800949468D268A2468A421B
:1059800087DC02D1844200D983E70824A4463B8106
:10599000BC44009C00972F006546B4463E0006E0DC
:1059A0005E00F218D200A2189768D268BA468A42FE
:1059B00007DC00D1C4E0F318DB00E518E35E002B40
:1059C000EEDA66464A46009F13802E80BB881BB2E3
:1059D000002B00DA62E73A69EFF3108172B61368C0
:1059E000002BFCD0BFF35F8F0123BE885B42BB80DE
:1059F00036B23B69BFF35F8F00221A6081F31088D3
:105A0000002E00DA4AE73B0008333A0099467D69E8
:105A100073009B190824115FDB004846EB1800292E
:105A200013DB9C680093A446DC6806E0A3423FD0E9
:105A30000023F95E3800002906DB4F007F18FF00C5
:105A4000EF19FB68A342F1DD009B068000201E5E7B
:105A50001980002EDCDA1700BB79002B00D121E77A
:105A60000023BB710823F95E4B1C2ED03D00083586
:105A7000AC467C6903E084464B1C00D112E74B0026
:105A80005B18DB00E0180A00E15E43881BB2002BC4
:105A9000F1DA01256D42EE178560C66008257B5F4F
:105AA0009342E9D0634619803B8903803A81E3E75A
:105AB000BB686345BCD9C7E7631C00D001E7254834
:105AC00000F058FA8C4200DC0BE740BF05B0F0BC98
:105AD000BB46B246A946A046F0BD534650461B6998
