:020000041000EA
:1000000000B5324B212058609868022188439860DF
:10001000D860186158612E4B002199600221596106
:100020000121F02299502B49196001219960352056
:1000300000F044F80222904214D00621196600F024
:1000400034F8196E01211966002018661A6600F04E
:100050002CF8196E196E196E052000F02FF8012189
:100060000842F9D1002199601B49196000215960AB
:100070001A491B48016001219960EB211966A021F2
:10008000196600F012F800219960164914480160C1
:100090000121996001BC002800D000471248134993
:1000A000086003C880F30888084703B5996A0420EC
:1000B0000142FBD001200142F8D103BD02B5186610
:1000C0001866FFF7F2FF186E186E02BD00000240BE
:1000D000000000180000070000035F00212200005C
:1000E000F4000018222000A00001001008ED00E03C
:1000F00000000000000000000000000074B24E7A12
:1001000000200420F7010010C3010010C5010010F9
:10011000C1010010C1010010C1010010C101001097
:10012000C1010010C1010010C1010010C701001081
:10013000C1010010C1010010C9010010CB01001065
:10014000CD010010CD010010CD010010CD01001037
:10015000CD010010CD010010CD010010CD01001027
:10016000CD010010CD010010CD010010CD01001017
:10017000CD010010CD010010CD010010CD01001007
:10018000CD010010CD010010CD010010CD010010F7
:10019000CD010010CD010010CD010010CD010010E7
:1001A000CD010010CD010010CD010010CD010010D7
:1001B000CD010010CD010010CD010010CD010010C7
:1001C00000BE00BE00BE00BE00BE00BEEFF3058054
:1001D000103800BEF2EB8871787801109C7801101D
:1001E0003802001090A31AE71E481F49086006C88D
:1001F00081F3088810471D480068002801D019487D
:10020000F3E70DA40ECC002902D000F012F8F9E7B4
:100210001749184A002000E001C19142FCD116495B
:100220008847164988471649884700BEFDE701C937
:1002300001C29A42FBD370479C780110C000002095
:10024000903002206CA8031000000420000004205D
:100250006CA803100010042000100420000000000F
:10026000704700000000000008ED00E0000000D032
:1002700090300220C4E20320519B0010C104001002
:10028000119B0010F8B5C0460448054B10B58342D9
:1002900003D0044B002B00D0984710BD90300220B3
:1002A000903002200000000006480749091A8B1010
:1002B000C90FC91810B5491003D0044B002B00D04A
:1002C000984710BD903002209030022000000000BE
:1002D00010B5074C2378002B09D1FFF7D5FF054B4C
:1002E000002B02D0044800E000BF0123237010BDA2
:1002F0001848022000000000204E0110054B10B5E8
:10030000002B03D00449054800E000BFFFF7CCFFF5
:1003100010BDC046000000001C480220204E011005
:100320007047C046D0238022F0B51B06120285B06C
:100330009A610023FA220093009B9200934205DA0F
:10034000009B01330093009B9342F9DB8023D02173
:100350008026FA2280271B02102500249C460906CD
:10036000F60492003F058E610394039B934205DAE5
:10037000039B01330393039B9342F9DB63461842CB
:1003800020D04F610194019B934205DA019B013318
:100390000193019B9342F9DB4E610294029B400062
:1003A000934205DA029B01330293029B9342F9DBED
:1003B000013D002DD7D1D02380221B0612025A61A5
:1003C00005B0F0BD8F61DDE77047C046054A10B546
:1003D000138803439BB21380108880B2FFF7A2FFFB
:1003E00010BDC046B4E20320044B10B51A88824306
:1003F0001A80188880B2FFF795FF10BDB4E2032081
:1004000001238340F0B5CE4647469946D02380B5B8
:1004100017004A461B0685B09A610023FA22009312
:10042000009B9200934205DA009B01330093009BEE
:100430009342F9DB002F37DD01227B1E9A40802397
:10044000D0248026FA201B059446002500229846D9
:100450002406F6048000A6610192019B834205DA1E
:10046000019B01330193019B8342F9DB63461942EF
:1004700023D0434663610392039B834205DA039BC7
:1004800001330393039B8342F9DB66610292029B73
:100490004900834205DA029B01330293029B8342A7
:1004A000F9DB0135AF42D6D1D0234A461B065A614B
:1004B00005B0C0BCB946B046F0BD4346A361DAE71B
:1004C000F0B5DE4657464E464546E0B50B2083B0B4
:1004D00005F0BCF9D024802324061B0163620720A9
:1004E000636105F0B3F91B2005F0B0F90F2005F0AA
:1004F000ADF90E2005F0AAF9112005F0A7F91A2090
:1005000005F0A4F90C2005F0A1F90D2005F09EF9E5
:10051000072005F09BF9072005F098F9072005F062
:1005200095F9072005F092F9072005F08FF90720CB
:1005300005F08CF9072005F089F9072005F086F908
:10054000072005F083F901220021072005F06AF950
:1005500001220021072005F065F901220021072072
:1005600005F060F901220021072005F05BF9012266
:100570000021072005F056F901220021072005F08F
:1005800051F901220021072005F04CF90021012238
:10059000072005F047F9072005F058F9072005F076
:1005A00055F9072005F052F9062005F04FF905200E
:1005B00005F04CF9042005F049F9032005F046F94F
:1005C000022005F043F910250823042265620A2061
:1005D00063626262A261A361656105F09DFE0A200B
:1005E000A56105F099FE002201210520656105F055
:1005F00019F901210620002205F014F94023802278
:100600006362203B6362120560336262A3626262CE
:100610008022120262628022D201626280229202F1
:10062000A2628022D204626280225201626280222F
:1006300092016262636263626362636262610CF090
:100640007BFB0BF0D9FF00F0E5F801F0A3FE09F009
:10065000BDFBFA20000105F05FFE03F0C9F8334846
:1006600009F0D2FC022005F025F8314809F0CCFC55
:1006700005F04CF82F4B00259A462F4B2F4E9946EC
:100680002F4B304F9B46304B0193FA23DB009846AB
:1006900003F04AF803F0BEF80120002140420AF0BE
:1006A00013F8AF2134688900200006F01FFA0029F2
:1006B00035D0AF21013434603C688900200006F059
:1006C00015FA00291CD00120013401353C6005F0E9
:1006D00023FE4545DCD114240A20013C09F0C6FB69
:1006E000002CF9D1FA25584609F08EFC019809F042
:1006F0008BFC0A2009F0BAFBED0003F0B3F9C7E761
:1007000001224846023103F01FFF3B6801200133FC
:1007100001353B6005F000FE4545B9D1DBE701221C
:100720005046033103F010FF3468C2E7204E011039
:10073000344E0110F8160020EC1700208CE0032046
:10074000404E01102CE00220544E01100EB410B5A2
:10075000B5B037AA02CA040002A801920DF01EF833
:1007600002A80DF05FF9E4B2020002A920000AF02D
:100770007FFE20000AF03EFE35B010BC08BC03B07E
:100780001847C04608B4F0B50E0004001500B6B016
:100790003BAB80CB1B220F4902360393FFF7D6FFFA
:1007A000AB1C20001B220C490096FFF7CFFF039AD9
:1007B000390004A80CF0F2FF200004A9FFF7C6FFDF
:1007C0001B2220000549FFF7C1FF36B0F0BC08BC72
:1007D00001B01847784E01107C4E0110884E011070
:1007E00010B51B220149FFF7B1FF10BD8C4E01105F
:1007F0000122034B1A60034A1368002BFCD0704798
:1008000034D4022038D402200122014B1A607047F0
:1008100030D4022010B502480CF05CFA10BDC0467E
:100820006D010020004870478C5E01100048704741
:10083000645D011030B583B0002807D1344B3548D2
:100840004380063BFF3B038003B030BD0A281BD822
:1008500003281BD0304B8000C05830490123013899
:1008600004E001330A800231142B09D0C25C002A53
:10087000F7D1C022DBB25B00920026481343E2E7C7
:10088000CA2324489B00DEE70020DDE76C4668466B
:1008900009F0DEFC2178224B0A091E489A5C42804E
:1008A0000F221140595C818061780D0911405D5D16
:1008B000595CC5800181A1780D0911405D5D595CCD
:1008C00045818181E1780D0911405D5D595CC581EB
:1008D000018221790D0911405D5D595C458281825B
:1008E00061790D0911405D5D595CC5820183A17973
:1008F0000D091140595C5D5D81834583E1790C09E7
:100900000A401C5D9B5CC4830384064B9BE7C04686
:100910000904000088D70220A05E01108AD70220B7
:10092000944E0110220300000222410003000A40FD
:1009300041100120014011439A10490002400A432E
:10094000D9105200014011431A11490002400A43D4
:1009500059115200014011439A11490002400A43C3
:10096000DB115200184010437047C0460023094A6B
:10097000094913600B68581C032804DC0023086035
:10098000064A136070471321033B11605A425341DA
:10099000F6E7C046ACE00320B0E00320A8E0032067
:1009A000F0B54F464646D6460C00C0B59146060007
:1009B0007F2801D81F2904D9E0BCBA46B146A84611
:1009C000F0BD07227F27CB1713405B18DD106D4267
:1009D00003353F1AE8B2924601F0F6FB381DC0B26B
:1009E00001F004FC01F0B0FE782001F015FF40207A
:1009F00001F012FFED01204BED1998465F5D4B466B
:100A0000002B33D0012B2AD04B4621003000DAB224
:100A100003F026FD02217B00194001237A101A40C1
:100A20000A43B910520019401143FA1049001A4004
:100A30000A4339115200194011437A1149001A40F2
:100A40000A43B91152000B4013435B00F8091843E5
:100A500001F0E2FE43465F5501F0A4FEACE75346C9
:100A60004A4623409A401743FFB2CDE7534601223E
:100A700023409A409743C7E7B0D7022070B51600CD
:100A80000C008300164A5B189B009E501549164ABD
:100A9000431C05000C601360142B13DC092E11D0CD
:100AA000132B16D00023114A280013602100F2B244
:100AB00003F0B2FC32002800210004F03FFE04F0F5
:100AC000A1FE70BD00231360631C032B05DD1323FF
:100AD0001360E31E5A425341E5E70B60E2E7C0466C
:100AE00064E10320B0E00320ACE00320A8E0032091
:100AF00070B515000400AE00C8B201F065FB7619B0
:100B0000E0B20525012401F071FB01F01DFE782003
:100B100001F082FE402001F07FFE154BF618220006
:100B2000705D013D0240411052002140114382108E
:100B3000490022400A43C1105200214011430211D2
:100B4000490022400A4341115200214011438211C1
:100B5000490022400A435200C009104301F05CFEE4
:100B6000002DDCD1002001F057FE01F01BFE70BD0E
:100B7000DF18002070B50025280001F025FB0020BB
:100B800001F034FB01F0E0FD782001F045FE40204B
:100B900001F042FE8424013C0020E4B201F03CFE5E
:100BA000002CF8D10135EDB201F0FCFD042DE3D1AC
:100BB00070BDC046F8B505000C001600D7B23A006B
:100BC00003F02AFCAB00164A1B199B009E501549E6
:100BD000154A6B1C0C601360142B13DC092E11D00A
:100BE000132B16D00023114A2800136021003A006D
:100BF00003F012FC32002800210004F09FFD04F0F5
:100C000001FEF8BD00231360631C032B05DD1323D5
:100C10001360E31E5A425341E5E70B60E2E7C0462A
:100C200064E10320B0E00320ACE00320A8E003204F
:100C3000F0B54E46DE4645465746E0B51600364B03
:100C400083B0364C18609846354B196099461300AE
:100C50000A000100200009F0D7F93378002B43D0B7
:100C600043461C682F4B00932F4B9B462F4B9A46B5
:100C70002F4B01934346621C1A604B461D68A3002C
:100C8000377800995B199B00CF505B461D60534637
:100C90001A60142A36DC092F34D0132A2ED00023F0
:100CA000019A2000136029003A0003F0B5FB2000F0
:100CB0003A00290004F042FD04F0A4FD43461C68FC
:100CC000142C0DDD002119604B4603201B68002405
:100CD0000133DA0F98424A41524213404A461360A8
:100CE00073780136002BC5D103B0F0BCBB46B246C9
:100CF000A946A046F0BD132352461360EB1E5A428C
:100D00005341CDE7534600221A606B1C032BF2DCE3
:100D10005A461360C3E7C04658D40220E84E01107B
:100D20005CD4022064E10320B0E00320ACE00320A7
:100D3000A8E0032010B5FFF77BFF10BD0022024B97
:100D40001A60024B1A60704758D402205CD402200B
:100D5000044B10B51968044B02001868FFF768FFD0
:100D600010BDC0465CD4022058D4022010B50CF04F
:100D700059FE084B1A688018142807D90021064A22
:100D8000196013680133032B01DD116010BD13607E
:100D9000FCE7C04658D402205CD4022070B5114D47
:100DA000114C124E02F0C0FC02F0BEFC2A6823680F
:100DB0009A42F7D02368F35CFF2BF3D02A682368AC
:100DC0009A420CD00F222368F05C236840B20133B2
:100DD000D917090F5B1813405B1A236070BD0120FF
:100DE0004042FBE778E002207CE0022068E002203D
:100DF00010B502F099FC074B1968074B1A6891422D
:100E000005D01B68054AD05CC0B240B210BDFF20BF
:100E1000FBE7C04678E002207CE0022068E0022088
:100E2000F8B5114F05003E68C821701C05F05EFE44
:100E3000481C0C00C82105F059FE0C4B1B68994258
:100E40000AD09C4208D00A4B1A68AA4205D0094A27
:100E5000B60095513C601D60F8BD0020054AB60003
:100E6000905126000C00F3E760D4022064D40220E5
:100E700040E0022068D402207047C046F0B5DE464C
:100E800057464E464546E0B597B005AB98460F002D
:100E90000400010018000CF05BFD0322774907F005
:100EA00061F9424639000020FFF7C2FE40460CF0CF
:100EB000B9FD060020000CF0B5FD152E4DD801231C
:100EC00099466F4B002201936E4B93460293152374
:100ED00083429B419A4602F027FC4B465246134000
:100EE00099465D4600242022AE4205DD31002800EF
:100EF00005F0FCFD43465A5C200039000134FFF741
:100F0000BDFD0135152CEED1FFF772FF013000D188
:100F10007EE0FFF743FF01990500040002000298FC
:100F200009F072F8052D00D197E0062D08D00135A3
:100F300061D1CB445B46002B0ADA731E9B46CAE79D
:100F40004B46013300D195E001239C469946E3448A
:100F50005E45C0DC00239B46BDE700239B46013372
:100F60009A46474B0193474B0293152383429B417B
:100F7000039302F0D9FB5346039A5D4613409A4609
:100F8000002300249946B54214DB4B46310001335F
:100F90004846009305F0AAFD434620005A5C013400
:100FA0003900FFF76BFD0135152C11D0009B9946D8
:100FB000B542EADA2800310005F098FD43462000EA
:100FC0005A5C01343900FFF759FD0135152CDAD18F
:100FD000FFF70EFF013020D0FFF7E0FE019905007A
:100FE00004000200029809F00FF8052D2BD0062D01
:100FF0001DD0013514D0424639000020FFF718FEFD
:10100000200017B0F0BCBB46B246A946A046F0BDD2
:10101000C82005F081F9CB448CE7C82005F07CF9A5
:10102000D3445B46013309D1731E9B46A1E7534667
:1010300001331CD001239C469A46E344B34598DB18
:1010400000239B4695E75346013B5A1E93415A4263
:1010500092465A46D31A9B46E3E74B46013B5A1E3B
:1010600093415A4291465A46D31A9B4662E700235F
:101070009A46E3E7002399465CE7C046044F011017
:10108000CC5E0110084F01100021054801600548A1
:1010900001600548016005490A60054A1360704710
:1010A000ACE00320B0E00320A8E003204CD40220F1
:1010B00048D40220F0B5C6460C4D0D4E28680D4CA4
:1010C0003368804600B52768002B09D1390001E05C
:1010D000286821682022FFF7D1FC3368002BF7D065
:1010E000434627602B6080BCB846F0BDACE00320CF
:1010F000A8E00320B0E0032070B500250024210003
:10110000202228000134FFF7B9FC042CF7D1013567
:10111000152DF3D1FFF712FE70BDC046F0B5C646DF
:1011200000B502780700002A25D0144E144D05E0C2
:101130000137FFF7A3FC3A78002A1CD033682C68EB
:10114000984621001800092AF2D12022FFF796FCC8
:101150002968A14206D120223068FFF78FFC296858
:10116000A142F8D04346013733602C60FFF7FEFB05
:101170003A78002AE2D180BCB846F0BDACE003204A
:10118000B0E00320F0B557464E464546DE46E0B592
:1011900087B000236A4600259382574B574E1F683D
:1011A0009946574B574C1F60574BBB4601931B68E2
:1011B000B0469A4627002E00544900900B6030003C
:1011C000152105F093FC30000D00152105F08EFC73
:1011D0004346AD002D18AD005B59BC190136237094
:1011E000542EECD15346580050443C00C1005F4699
:1011F000091A00206118C8550121454B454E196058
:101200009B46454B454898461F6053463360444BC8
:1012100001601A00039302231370FFF76DFF220091
:1012200000210020FFF704FD0098FFF777FFFFF78C
:1012300041FF4B4642461B68136000221500019B8C
:101240001B683360002D07D0029807B0F0BCBB4686
:10125000B246A946A046F0BD02F066FAFFF7C8FD07
:101260000130F9D00027FFF799FD01212D4B020035
:101270001F602D4B02901960039B1B78022B10D02E
:10128000220000210020FFF7D3FC0098FFF746FF63
:10129000FFF710FF4B4642461B681360019B1B681B
:1012A000CFE7082817D00BDC012821D004280BD168
:1012B00009236A46009805A913750CF0EFFADFE7D9
:1012C0000D2801D10125DBE76B46009805A91A75A9
:1012D0000CF0E4FAD4E7009A1378002BD0D09246B1
:1012E00010000CF09FFB52461318013B1F70C7E71C
:1012F0005B4601251F60C3E7ACE0032064E10320E7
:101300000CDC0220B8DB0220B0E0032010DC02205D
:101310004CD4022054D402201C25002048D40220A2
:10132000F524002050D4022020DC0220F0B54746EE
:10133000CE46202380B583B001AF40223B800023FE
:10134000314E0400B3544032B3544032B3544032AF
:10135000B3544032B3544032B35440323370B35478
:1013600003788846002B16D0002506E00135072DAE
:1013700044DC63780134002B0DD01A00093A012AAD
:10138000F4D9A8013900301801343B700CF086FA0A
:101390002378002BF1D11D4808F0B2FD1C4B37001B
:1013A0003500002499462A0021004846013408F0FF
:1013B0002BFE4035082CF6D10A2008F057FD0024FA
:1013C0003A00210000200134FFF732FC4037042CA2
:1013D000F6D143460F4C9B01F61802F0A5F94146A1
:1013E0003000FFF74BFDC3B20D2BF6D88300E35856
:1013F0009F4603B0C0BCB946B046F0BD0649074899
:1014000008F002FEC7E7C04638430220144F01101F
:10141000244F0110D45E01100C5F0110304F0110F9
:10142000F8B506001C00012932D0032922D1244B33
:101430001B68002B32D00A2000F042FD00F03AFD7C
:10144000070000F0F9FC050000F0F6FC002D30D09C
:10145000802815D0FF2817D0069BA61C1F6025707A
:101460006070002400F0E8FC30550134AC42F9DB38
:101470000120F8BD0229E1D1006800F021FDF7E765
:1014800000F0F0FC00F00EFDFF2D0BD00020F0E787
:101490000B4B196000F00EFD3060E9E7094808F0D9
:1014A000B3FDFEE7084B1868023800F009FD002084
:1014B000DFE7306800F004FDF6204042D9E7C0467F
:1014C00084E00220444F011094E00320F0B5CE46A2
:1014D000474680B59946C5B0431E0400904604AE09
:1014E000012B4DD9032C35D000F0E4FC00F0A4FC16
:1014F000070000F0A1FC002F56D0802832D0FF2832
:1015000034D000253770707000F096FC73190135E7
:101510009870AF42F8DC01253378092BE2D173785B
:10152000812BDFD14B46002B02D04A46B37A137091
:101530004346002B08D0122108224046694406F099
:1015400011FE002342461372280045B0C0BCB946C4
:10155000B046F0BD174B1B68002B1BD00A2000F0D3
:10156000AFFCC1E700F07EFC00F09CFC3478FF2F5C
:1015700014D00025092CE7D17378812BE4D1D1E771
:1015800002AB0A0000930100330003A8FFF748FFF5
:101590000125D9E7084808F037FDFEE7074B186832
:1015A000023800F08DFCE4E7F625002000F088FC0E
:1015B0006D42B1E784E00220444F011094E0032023
:1015C000F0B557464E46DE464546E0B5444C06006B
:1015D000A544444C23689A46002B00DC7DE0424B36
:1015E000039106934AAB9946404B04929B46404B6D
:1015F000059407930123069A0024136000F05AFC17
:101600005D4603000321079F0022AA56099308ABF9
:101610000093C9B24B4609A8FFF702FF099B0028B7
:1016200058D04A4651783A78914201D00421EBE7EC
:101630000134A245FAD14A46127818009046AB46CA
:10164000089D00F03DFC00F035FC0400280000F08F
:1016500037FC43460AA9981C00F0CAFB200000F0A2
:101660002FFC4346002B31D030000CF0DBF9002575
:1016700007000AAC06E03378002B0AD001350134AC
:10168000454523DA3A00310020000CF02DF90028FE
:10169000F1D1039B4746984606AB9C4612213A007F
:1016A00040466144049D059C06F05CFD00234246D3
:1016B000D355534601202F6023608B239B009D440C
:1016C000F0BCBB46B246A946A046F0BD01239C46ED
:1016D000E2448FE7180000F0F3FB0020EDE7C0467E
:1016E000D4FDFFFF1CDC022084E00220C1E20320C5
:1016F000BEE20320F0B557464E464546DE46E0B50D
:1017000004000E0017009846C5B0002850DD0123E4
:10171000334A1500136000F0CDFB2B688246002B86
:101720004ED00A2000F0CCFB002302932D4B0193F6
:1017300000F0C0FB009000F07FFB814600F07CFBD6
:101740004B46002B46D0802828D0FF282AD004AB57
:101750004A469B4600251A70587000F06DFB5B46A8
:101760005B1901359870A945F7DC009B03935B4634
:101770005A78019B1B789342DAD1029A0132029285
:101780009442D5D1039A504632603B705B46424644
:101790001B78136000F094FB01200AE000F062FB6C
:1017A00000F080FB4B46FF2B0ED0504600F088FB2C
:1017B000002045B0F0BCBB46B246A946A046F0BDED
:1017C000094808F021FCFEE7084B1868023800F0D1
:1017D00077FBEAE7504600F073FB04AB9B46C6E795
:1017E00084E00220BEE20320444F011094E0032075
:1017F00030B585B000F05EFB6B460290991C01206D
:1018000000F0F6FA6A46114B0332186802A903ABDE
:10181000FFF770FF029C002804D1200000F050FB6D
:1018200005B030BD01AD200000F04AFB29000220C8
:1018300000F0DEFA7F236A78200013406B7000F01E
:101840003FFB2900022000F0ADFAE6E71CDC022095
:10185000F0B585B06B460D4F0D4E3C68DD1D03E0C5
:101860002A7833789A4208D0013C2A00200003AB42
:1018700002A9FFF73FFF0028F2D1002C02D03C6004
:1018800005B0F0BD034800F031FBF8E71CDC022096
:10189000BEE203205C4F0110F0B585B06B460D4FE2
:1018A0000D4E3C68DD1D03E02A7833789A4208D05B
:1018B00001342A00200003AB02A9FFF71BFF002818
:1018C000F2D1002C02D03C6005B0F0BD034800F01E
:1018D0000DFBF8E71CDC0220BEE203205C4F011088
:1018E00030B585B06A460B4B05000732186802A96F
:1018F00003ABFFF7FFFE041E02D1200005B030BD90
:101900000298023000F0DCFA2900039800F070FA27
:10191000F3E7C0461CDC0220014B18707047C0463C
:10192000BEE2032010B5041E02D0034B1C6010BDA4
:10193000024800F0DBFAF8E71CDC02205C4F0110E3
:10194000F0B5DE4657464E4645460123E0B5354CD8
:10195000C7B0070023608846914600F0ABFA2368C1
:101960000190002B50D00A2000F0AAFA00239B46D9
:101970002D4B9A4600F09EFA00F05EFA050000F04A
:101980005BFA002D49D0802813D0FF2815D0002401
:1019900006AE707000F050FA331901349870AC4202
:1019A000F8DB5246737812789B1A5A4253419B4493
:1019B000E0E700F057FA00F075FA1C4CFF2D27D035
:1019C00000F078FA0500002000F07AFA03AB9A469E
:1019D00019000A2000F00CFA280000F071FA5346B2
:1019E0005B7822685B039B1A3B604B461A60434658
:1019F0005A4601981A6000F063FA47B0F0BCBB4643
:101A0000B246A946A046F0BD094808F0FDFAFEE737
:101A10002068023800F054FAD2E7019800F050FA3A
:101A200006AEBEE784E00220BEE2032094E003207D
:101A3000444F0110F0B5DE4657464E464546E0B5E8
:101A4000714C6F22A54406AB019000911800002153
:101A5000994606F081FB6D496D4808F0D5FA6D484E
:101A600008F0D2FA00206C4B0024185600F086F9DA
:101A700001226A4B62AE1A6000F01CFA684B694F93
:101A80009B4601239A46002398462200584622A9E5
:101A900008F0BAFA53464C44903C237000F00AFA1E
:101AA00000F0CAF9050000F0C7F9002D00D19EE052
:101AB000802832D0FF2834D000243570707000F0B8
:101AC000BBF9331901349870A542F8DC0122337850
:101AD000092BE3D17378812BE0D102A9C3238C4673
:101AE0005B00634419885B88C1201B040B4361467B
:101AF00040000918C225088861466D004919098807
:101B0000B47A0904014322912393882163465B1828
:101B100041461970012AB8D008E000F0A3F900F09E
:101B2000C1F93478FF2D5DD0092C56D0802502AB49
:101B30009C4690246D423C4F654421002A5D38004C
:101B4000013408F061FAFF2CF7D1384808F05CFA4C
:101B500000249123EA5C002A00D11C000133FF2BF2
:101B6000F8D1002C4BD1324808F04EFA009B002BE4
:101B700043D1E3B200932F4D2100280008F044FA2E
:101B80000A2008F073F92C4B02A83380C123844645
:101B90005B00634401990822180006F0E3FA009BF9
:101BA00003AAB37205A904A8FFF7CAFE039800F0C0
:101BB00087F931000B2000F0F5F82100280008F02B
:101BC00023FA0A2008F052F9A3239B009D44F0BC9D
:101BD000BB46B246A946A046F0BD7378812BA5D17D
:101BE00000227AE73868023800F06AF99CE70020A2
:101BF00000F066F9F622524269E71C00BBE72100BB
:101C00000E4808F001FAB1E774FDFFFF1C5F0110F8
:101C10006C4F0110744F0110C1E2032084E00220D8
:101C20008C4F011094E00320A04F0110AC4F011025
:101C3000B84F0110F44F01100981FFFFD44F01107C
:101C400070B505000C0084B0FE2900DDFE246E4650
:101C50000A4B01AA1B7802A903A873703470FFF71E
:101C60006FFE019800F02CF96946022000F09AF806
:101C70002900200000F096F804B070BDBEE20320F9
:101C8000F0B557464E46DE464546214BE0B51A684C
:101C90002023C3B001AE33801300977A0B33FF2F9C
:101CA00029D01C4A93461C4A9246002291461B4A60
:101CB00090466A4649461172584639001A785D1CAA
:101CC00008F0A2F9002F0ED000242B5D310002A8ED
:101CD00033700BF0E3FD295D4046013408F094F9C0
:101CE000A742F2DCED19504602A908F08DF92F78D1
:101CF0006B1CFF2FDDD10A4808F086F90A2008F096
:101D0000B5F843B0F0BCBB46B246A946A046F0BD0C
:101D1000142500200C500110245001101C500110FB
:101D200030500110F0B578240470CC17E404E40CB2
:101D30006118059CDBB2E6B2069CD2B2E5B2079C04
:101D40004571E7B287713F02ED19F027FF01BC46EC
:101D500024126544E4B2C4716419C37006711B197E
:101D600036029B19827049131202C9B29B18417046
:101D7000C91889B20172090A4172F0BDC3B210B527
:101D8000012B03D9044800F0B1F810BD0022034B29
:101D90001870034B1A60F8E740500110C1E20320AD
:101DA00094E00320F8B504000F000C4E23003268C5
:101DB0000B490C4808F028F90B4A0C4B1278306894
:101DC00052B25500AD18AD005B193A0021005B68B6
:101DD000984733681B193360F8BDC04694E0032070
:101DE000245F011048500110C1E20320F8240020B4
:101DF000F0B5C64600B5002814DD0C4B0C00984623
:101E00000B4F0C4D0E180022BA56286853009B1831
:101E100042469B00D358421C2A60984720700134E8
:101E2000A642F0D180BCB846F0BDC046F8240020E0
:101E3000C1E2032094E00320002110B5064B074ABD
:101E400059564B005B189B009A58054B1868411C6B
:101E50001960904710BDC046C1E20320F82400205D
:101E600094E00320002270B50B4E0C4CB256206853
:101E700053000B4D9B189B00421C5B5922609847F6
:101E80000022B256206853009B189B00421C5B59ED
:101E90002260984770BDC046C1E2032094E0032051
:101EA000F8240020024A13681B1813607047C046CC
:101EB00094E00320014B18687047C04694E003206B
:101EC000014B18607047C04694E00320002110B514
:101ED000044A054B51564A00521892009B189B68C1
:101EE000984710BDC1E20320F824002010B5034B31
:101EF0000100180008F088F810BDC04660500110BD
:101F0000014B1B68185C704714250020F0B557463C
:101F10004E464546DE468024431EE0B55B1815005C
:101F20006400020AA21A1B0A9B18FF2216001E4018
:101F30000F00711E8E411B0AF618130003409946CC
:101F40000300C5B0934304AA9C469046614A4046AC
:101F50001168924661442200019306F003F9EB19DF
:101F600000930027002E4BD05B4BA34602934B46B9
:101F70005A1C9146009AAA4249D8D94558D04C4695
:101F8000BE423DDD80235B00994601E0BE4237DD65
:101F900001344C45FAD1514808F036F8FEF728FCD8
:101FA000FA20800004F0B8F94D4808F02DF8EFF35E
:101FB000108B72B64B4B3D021868019B22009C4669
:101FC00060444146401912F0BFFE474808F01CF833
:101FD0008BF31088FEF718FC444808F015F844A964
:101FE000081B5146019A0B685119C9180137220084
:101FF000091906F0B7F8BE4202DD0224BE42C7DC72
:1020000045B0F0BCBB46B246A946A046F0BD42462C
:10201000297802986C1CD15407F0F6FFD94508D0F6
:10202000B742EDDA009BAB4240D94B4625009FE713
:102030002C002A4807F0E8FFFEF7DAFBFA208000C0
:1020400004F06AF9264807F0DFFFEFF3108972B653
:10205000244B3A021868019B03929C4660449446C4
:10206000802260444146520012F06EFE1E4807F086
:10207000CBFF89F31088FEF7C7FB1C4807F0C4FFAD
:10208000019A504694468022039903686144C91816
:10209000013101374046FF31520006F063F8BE427D
:1020A000AEDD009BAB4203D800246BE74C4669E7EA
:1020B000A34201D8012465E7631C99464346217871
:1020C0000548197007F0A0FF012325004C469946EA
:1020D000A6E7C0461425002070500110885001105A
:1020E0009850011010250020B0500110C050011070
:1020F000802330B5184C89B0226818491B03184852
:1021000007F082FFFEF774FBFA20800004F004F968
:10211000EFF3108572B680212068090312F024FEC7
:1021200085F31088FEF770FB0E4B80219B6A05A893
:102130000293082301930D33009318220D3B0903EA
:10214000FFF7F0FD0A2105AA0020FFF7DFFE064891
:1021500007F05AFF09B030BD102500202C5F011098
:10216000D450011000400540F450011010B582B069
:102170006B46DC1D010023000122A32002F09AF926
:10218000207802B010BDC046080010B51300034A05
:1021900011680200A22002F0ADF910BD94E0032006
:1021A00010B584B001AB1900064A11CA11C11288DA
:1021B000A2200A8080220021520202F09BF904B082
:1021C00010BDC046FC500110802300B583B001AAA9
:1021D0001370793B03405020404218435070022155
:1021E000782000F0A5FC03B000BDC04610B5102457
:1021F00082B0030901AA2343802153700F23117079
:102200000340917078207C39D37000F091FC02B0CB
:1022100010BDC046FA2300B5DB0083B0019300F087
:1022200093FA782000F0F8FA002000F0F5FAAE20DA
:1022300000F0F2FA002000F0EFFAD52000F0ECFAFE
:10224000002000F0E9FAA02000F0E6FA002000F0FB
:10225000E3FAA82000F0E0FA002000F0DDFA1F20E9
:1022600000F0DAFA002000F0D7FAD32000F0D4FA18
:10227000002000F0D1FA002000F0CEFA002000F09B
:10228000CBFAAD2000F0C8FA002000F0C5FA8E208D
:1022900000F0C2FA002000F0BFFAD82000F0BCFA2B
:1022A000002000F0B9FA052000F0B6FA002000F096
:1022B000B3FAA12000F0B0FA002000F0ADFAC82077
:1022C00000F0AAFA002000F0A7FADA2000F0A4FA41
:1022D000002000F0A1FA122000F09EFA002000F089
:1022E0009BFA912000F098FA002000F095FA3F2028
:1022F00000F092FA002000F08FFA3F2000F08CFAF4
:10230000002000F089FA3F2000F086FA002000F05B
:1023100083FA3F2000F080FA002000F07DFA81204F
:1023200000F07AFA002000F077FA194B187800F0E4
:1023300073FA002000F070FAD92000F06DFA002046
:1023400000F06AFAD22000F067FA002000F064FA88
:10235000DB2000F061FA002000F05EFA342000F08B
:102360005BFA002000F058FAA62000F055FA002091
:1023700000F052FAA42000F04FFA002000F04CFACE
:10238000AF2000F049FA00F00DFA03B000BDC046DE
:102390001825002010B503F007FA10BD10B503F0A2
:1023A00003FA10BDF0B54E464546DE465746E0B549
:1023B0000C000500160083B07F2801D81F2906D91C
:1023C00003B0F0BCBB46B246A946A046F0BD7F278D
:1023D00007223B1A9A46CB1713405B18DB105B426F
:1023E00003339946802390464A469B4601AF3B7093
:1023F000D03B13437B703A000221782000F098FB19
:1024000053465A4610210433DBB23A701A090A4384
:102410007A705A46BA70713A1340FB703A00042140
:10242000782000F085FB00F08FF9782000F0F4F9B7
:10243000402000F0F1F94B46DB0153441F00154BDF
:102440009A46DB5D9946002E1CD0012E10D0F2B2C8
:102450002100280002F004F84846FEF765FAC0B2F1
:1024600000F0DAF953464A46DA5500F09BF9A7E73F
:102470004346320023409A4013004A461A43D3B2DF
:102480009946E4E74346012223409A404B46934352
:102490009946DCE7B0D70220F8B5744B1B68002BD7
:1024A00000D1F8BD04F03EF804000D0026002F0016
:1024B0006F4B18685968361A8F4130006D4E72683C
:1024C000BA4239D26C4A00211C605D606B4B1160CE
:1024D0001A6851424A411A60694A1B681568694A7C
:1024E0001068694A1168002B30D0002D73D1830029
:1024F000664A5B189B009B58654C9A00D218654B46
:102500009D182E001C192643B60700D096E0624E97
:10251000B61A022E00D891E02E68604A32435C4E13
:102520009A55160A66701602360E120EA670E270E2
:1025300080242A79224349E0BA4202D13268824299
:10254000C0D34D4A11680029ABD0BCE783004F4A85
:102550005B189B009A584F4B9400A4181E19002D2D
:102560001BD037004A4D5D192F43BF0738D14A4F62
:102570003F1B022F34D93768484C3C43444FDC554D
:10258000270A6F7027023F0E240EAF70EC70802573
:1025900034792C43424D5C551FE03D4A9D18320072
:1025A0002A43920733D13C4A121B022A2FD934689E
:1025B0003A4A2243364C1A55140A6C701402240EFF
:1025C000AC708024120EEA7032792243344C1A55D2
:1025D0000222FF3201E080225200FEF7EBFA60E7B0
:1025E00080251E5D6D422A4F2E43DE551C196678EC
:1025F0002C4F2E43DE55A6782B4F2E43DE55E67822
:1026000001372E43DE5524792C43E4B2C2E7802201
:102610001D5D52421E4E15439D551C196578214E75
:1026200015439D55A578204E15439D55E5780136F7
:1026300015439D5524792243D2B2C7E780259C5C7F
:102640006D42134E2C439C559C186278154E2A43BC
:102650009A55A278144E2A439A55E27801362A43B5
:102660009A5522792A43D2B2B0E7C0464CD4022010
:10267000B04102202025002020DC022050D402207E
:1026800048D402201C25002054D4022064E10320F9
:1026900005050000E018002004050000808080800F
:1026A00009050000060500000705000070B51D4E75
:1026B0001D4D04003068296883001C4A5B189B008C
:1026C0009A58FEF777FA0022194B1A60052C23D08E
:1026D0000CDD062C1AD0422C04D1164A136859423C
:1026E0004B4113600122144B1A6070BD032C07D0BC
:1026F000042CF7D12B68022BF4DC01332B60F1E7BB
:102700002B68002BEEDD013B2B60EBE73368132BCE
:10271000E8DC01333360E5E73368002BE2DD013BA1
:102720003360DFE71C25002054D4022064E103203D
:1027300050D4022048D4022020DC0220014B186033
:102740007047C04628250020144B82B01A68012328
:102750009340D02212065362936100230193019BA0
:10276000022B05DC019B01330193019B022BF9DD58
:102770000B4B1A6801239340D022120653629361D7
:1027800000230093009B022B05DC009B0133009388
:10279000009B022BF9DD02B07047C046605D01105E
:1027A0005C5D011001221A4B84B01B689A40D02353
:1027B0001B065A629A6100230393039B022B05DCDC
:1027C000039B01330393039B022BF9DD114B196823
:1027D00001238B40D02109068B6200230293029BC8
:1027E000022B05DC029B01330293029B022BF9DDD5
:1027F000D0231B069A6200230193019B022B05DC68
:10280000019B01330193019B022BF9DD04B070475A
:10281000605D01105C5D011070B501263100304B28
:10282000D0221B68082499402E4B00251B6886B0D7
:102830009E40120643B2002B50DB56629661039510
:10284000039B022B05DC039B01330393039B022BA9
:10285000F9DD91620295029B022B05DC029B01339C
:102860000293029B022BF9DD516291610195019B5C
:10287000022B05DC019B01330193019B022BF9DD47
:102880004000013CC0B2002CD4D1D0231B069E6274
:1028900099620494049B022B05DC049B013304938E
:1028A000049B022BF9DDD0231B065A68012032421B
:1028B00003D05868304043425841D0231B06596228
:1028C000996100230593059B022B05DC059B0133D1
:1028D0000593059B022BF9DD06B070BD9662AEE74D
:1028E0005C5D0110605D0110F0B5C64680460120B8
:1028F0000600334B8C461B68D0219E40314B082587
:102900001B6800229840002400B5090686B08E623C
:102910000394039B022B05DC039B01330393039B6E
:10292000022BF9DD88620294029B022B05DC029BDC
:1029300001330293029B022BF9DD4B6852003340B6
:102940005F1EBB414862886101949A18019B022B6B
:1029500005DC019B01330193019B022BF9DD013D55
:10296000002DD5D16346002B26D0D0231B065E62F6
:102970009E61D0231B06986200230593059B022BC2
:1029800005DC059B01330593059B022BF9DDD02364
:102990001B065862986100230493049B022B05DCFC
:1029A000049B01330493049B022BF9DD43461A7008
:1029B00006B080BCB846F0BDD0231B069E62D8E7A7
:1029C000605D01105C5D0110F0B557464E4645460E
:1029D000DE46E0B50126544B89B01B680D009E40D1
:1029E000D0231B065E629E6100230093009B1700AC
:1029F000022B05DC009B01330093009B022BF9DDC9
:102A000001224A4B1B689A40D0231B065A629A61E6
:102A100000230193019B9146022B05DC019B0133AE
:102A20000193019B022BF9DDFFF7F6FE804600289B
:102A300047D0002D11DD6B1E9B4604AB00249A4647
:102A40005B46191B4B1E99415046FFF74DFF5346FD
:102A50001B783B550134A542F2D1D0231B065E62A0
:102A60009E6100230593059B022B05DC059B01332A
:102A70000593059B022BF9DDD0234A461B069A627B
:102A800000230693069B022B05DC069B013306936D
:102A9000069B022BF9DDD0231B069E6200230793C1
:102AA000079B022B05DC079B01330793079B022B37
:102AB000F9DD404609B0F0BCBB46B246A946A04687
:102AC000F0BDD0231B065E629E610290029B022B2A
:102AD00005DC029B01330293029B022BF9DDD0231C
:102AE0004A461B069A6200230393039B022B05DCD4
:102AF000039B01330393039B022BF9DDD0231B06B9
:102B00009E6200230493049B022BD2DC049B0133BE
:102B10000493049B022BCCDC049B01330493049BA1
:102B2000022BF3DDC5E7C046605D01105C5D01105E
:102B3000F0B501252F4B87B01B680F009D40D023B7
:102B40001B065D629D6100230193019B1400022B13
:102B500005DC019B01330193019B022BF9DD01266A
:102B6000254B1B689E40D0231B065E629E6100239E
:102B70000293029B022B05DC029B01330293029B12
:102B8000022BF9DDFFF748FE002F06DDE71920785C
:102B90000134FFF741FEA742F9D1D0231B065D6245
:102BA0009D6100230393039B022B05DC039B0133F0
:102BB0000393039B022BF9DDD0231B069E620023A7
:102BC0000493049B022B05DC049B01330493049BB8
:102BD000022BF9DDD0231B069D6200230593059B84
:102BE000022B05DC059B01330593059B022BF9DDC8
:102BF00007B0F0BD605D01105C5D01107047C0461C
:102C00000120034A13681968024B1160186070476D
:102C10008026002060E002200122034B1A60034B53
:102C2000034A1A607047C04660E0022080260020F8
:102C3000D42500200122034B1A60034B034A1A607B
:102C40007047C04660E00220802600205C250020FE
:102C50000122034B1A60034B034A1A607047C046B7
:102C600060E00220802600202C25002000B50023F3
:102C700091B0002200210020FEF706FA0948FEF775
:102C80004DFA6846084B1E211A6800921B790022F3
:102C900003710023FEF776FA0122044B1A6011B08B
:102CA00000BDC046085101101451011060E002201F
:102CB00000B591B00923092268460A4906F0ACFE26
:102CC0000023002200210020FEF7DEF96846FEF70F
:102CD00025FAFEF7EFF9FEF761F80122024B1A60C0
:102CE00011B000BD1C51011060E0022010B5FEF7CC
:102CF00003FA0023002200210020FEF7C5F9064850
:102D0000FEF70CFAFFF7E2F80120044A136819688D
:102D1000034B1160186010BD345101108026002053
:102D200060E0022070B501240F4D21002868FEF7F5
:102D3000FDFA0300032804D0042806D0012BF4D1A7
:102D400070BD002CF1D0013CEFE7022C03DC013414
:102D5000EBE70428F2D121002868FEF7E7FA030028
:102D60000328F6D1EFE7C0467C260020F0B5DE460A
:102D70004E46574645460023E0B5CDB004AD2B7016
:102D8000FEF7BAF9584B00211A0000209B46FDF7C8
:102D9000D1FF2800FDF7DCFF002201239246534AB1
:102DA000534E9146534A33700192012B2FD0022B80
:102DB00000D184E0032B00D0FEE703AB98460CAFB4
:102DC0009020FEF7A9FD424639002800FEF7F8FBE7
:102DD000041E53D04C4648492268484807F014F96D
:102DE000FEF78AF95A4600210020FDF7A3FF51465D
:102DF0003800FEF79BFAC3B20D2B05D8404B80007C
:102E00001B589F46FEF7F4FC3378012BCFD10023EB
:102E1000002240212800FEF7B5F901283CD00D28FA
:102E2000F2D10223337003AB9846304C0CAF1DE057
:102E3000FEF732FD3378B8E75246544602210020AF
:102E4000D20FA142424133789244AEE752465146F6
:102E5000D217521AD20F8A1A92463378A5E72B78E6
:102E6000002B33D000232B7002333370254807F03A
:102E7000CBF80123236002333370A1E7019807F0F8
:102E8000C3F80123002233704021002328002C7056
:102E9000FEF778F90128C2D12B78002B14D000233B
:102EA0002B70FEF729F95A4600210020FDF742FF5A
:102EB0002A0000210520FDF73DFF337875E703ABBD
:102EC0004C4698460CAFD1E70F4B18600023002208
:102ED00000210020FEF7D8F84DB0F0BCBB46B2464A
:102EE000A946A046F0BDC046445101101CDC02209A
:102EF000C0E203207C510110986001106451011060
:102F0000445F01104C51011060E0022010B50B48E5
:102F100007F07AF832240420FDF758FA012003F074
:102F2000FBF90420FDF760FA013C012003F0F4F9FD
:102F3000002CF0D1024807F067F810BD9051011045
:102F4000985101107047C0467047C0467047C04650
:102F50007047C04610B5FEF7CFF800210020124A96
:102F6000FDF766FE01210020104AFDF761FE0123F6
:102F70000F4C236001200021404207F0A5FBFFF722
:102F80008BFA01F063F9FDF733FF0130F2D0FDF762
:102F900005FF012802D0FFF789FBEBE70023236040
:102FA000044B186010BDC046A4510110B851011067
:102FB0004CD4022060E0022030B589B0FEF79CF8C6
:102FC00000210020154AFDF7B5FE154D0120002116
:102FD000404207F079FBFFF75FFA01F037F9FDF7A0
:102FE00007FF0130F2D0FDF7D9FE04000200030014
:102FF0002900009003A806F00FFDE0B2FDF73CFFAA
:10300000FDF70EFF0121002003AAFDF711FE012CA0
:10301000DCD1044B1C6009B030BDC046C851011062
:10302000D851011060E0022070B5094806F0ECFFAD
:1030300001221500074BD0241B68FA209D4024066E
:10304000054BA56140001A6003F066F9A56170BDEB
:10305000EC510110505D0110BCE0032030B589B087
:1030600000236C462370FEF747F81E4D00202A000F
:103070000021FDF75FFE6846FDF76AFE0120002192
:10308000404207F021FBFFF707FA01F0DFF80023C9
:10309000002240212000FEF775F801281AD00D28E3
:1030A000ECD19020FEF738FC20000AF0BBFC0100B8
:1030B0002000FEF7C5FD00232370FEF71DF82A004F
:1030C00000210020FDF736FE220000210520FDF73B
:1030D00031FED3E72378002BEDD1034B186009B004
:1030E00030BDC046FC51011060E00220F0B5DE4664
:1030F000454657464E46E0B583B0FFF74FF90025E9
:1031000000242000012229000134FFF74BF9792C1B
:10311000F7D10A35282DF3D1002500242100012202
:1031200028000134FFF73EF91F2CF7D10A35822D14
:10313000F3D1FA20C00003F0EFF8FFF72FF90023D6
:103140009B46009301339A46023B01229846019325
:103150005B467D4E9D259146B3461F007B4C6D001E
:10316000380000220099FFF71DF9019F50463900F1
:103170000022FFF717F9494650460022FFF712F9DF
:10318000390040460022FFF70DF9AB4400224946C2
:103190004046FFF707F96421584603F0A7FC3619AB
:1031A00007006421300003F0A1FC804601000122E9
:1031B0003800FFF7F7F843467A1C92460093013B2C
:1031C0001900012250460193FFF7ECF8009A50468F
:1031D0000132914601224946FFF7E4F87A1E9046F3
:1031E000019901224046FFF7DDF801224946404699
:1031F000FFF7D8F8564B9B453EDDE804401B8000A6
:10320000401BC00040198001401B8000401B5149F9
:1032100003F06CFCC82305001B019E4256DDE00450
:10322000001B8000001BC00000190001001BC00033
:1032300000194849400003F059FC454BC8260400DA
:103240009B46360101200021404207F03DFAFFF77E
:1032500023F900F0FBFFFDF7CBFD013080D0FDF737
:103260009DFD012865D006285FD005285FD0032882
:1032700000D075E7643473E7C8231B019E423DDD2F
:10328000E004001B8000001BC00000190001001BAF
:10329000C00000192F49400003F028FC96260400C6
:1032A0007600B3454CDAE804401B8000401BC000A8
:1032B00040194001401B800040192649400003F09E
:1032C00015FCB346C82605003601BBE7204B9B46DC
:1032D00096235B009E42B5DAE004001B8000001BD1
:1032E000C00000190001001BC0000019194940006E
:1032F00003F0FCFB962604007600A3E796235B0010
:103300009B45E5DAE804401B8000401BC0004019E3
:103310004001401B800040190E49400003F0E6FBCD
:1033200096235B0005009B46D2E7643518E7643DB1
:1033300016E703B0F0BCBB46B246A946A046F0BDB6
:10334000C82636017EE7C04688130000410200000F
:10335000D430000010270000F0B5DE464546574641
:103360004E46E0B5C94893B006F04EFE0A2006F07E
:103370007DFDC74806F048FE0A2006F077FDC548E7
:1033800006F042FEC44806F03FFEC44806F03CFE8C
:10339000C34806F039FEC34CFFF700F8C24B0E934A
:1033A0000F94002398460023C04C0A930B940023EB
:1033B000BF4C089309940523BE4C9B46BE4B0C930F
:1033C0000D94002401200021404207F07DF9FFF711
:1033D00063F800F03BFF0A980B990022002303F0EA
:1033E000FDFD0B00020006920793049205935B46D5
:1033F000002B00DCA4E000239A464346109411936E
:10340000AE4B00220C980D9903F00FFE0023002410
:103410009946984600232500009301941C000290D1
:1034200003910698079922002B0003F0D7FD049A18
:10343000059B04000D000098019903F0CFFD0600E4
:103440000F002000290003F01FFF009001913000C1
:10345000390003F019FF02000B000098019903F0F6
:10346000BDFD009001912000290003F0F7FE04004B
:103470000D003000390003F0F1FE02000B002000C7
:10348000290003F0ABFD002204000D000098019913
:103490008B4B03F0CAFD089E099F32003B0003F0EE
:1034A000C4FD32003B0003F099FD03F04DFE002205
:1034B0000700834B2000290003F0B7FD0022814B59
:1034C00003F0B3FD00227F4B03F088FD03F03CFEC8
:1034D0000600484603F020FE029A039B03F006FE16
:1034E00002003100531E9A41380002F075F90123A1
:1034F0009C46E044D144D84593D1E2445346642BE2
:103500001BD0504603F008FE0A9E0B9F02000B00E2
:1035100004000D003000390003F060FD6A4A069097
:1035200007916A4B2000290003F07FFD32003B0029
:1035300003F054FD0490059162E7119B109C98469E
:1035400002F060F90E9A0F9B0A980B9903F046FD62
:103550005F4A604B0A900B9103F0C8FD002807D02A
:103560000A980B995A4A5B4B03F02FFD0A900B9176
:10357000FDF73EFC013009D0FDF710FC012815D005
:1035800006280AD0052832D0032816D14346002B3E
:1035900000D117E7FEF702FF14E708980999020027
:1035A0000B0003F01BFD08900991EFE713B0F0BC8E
:1035B000BB46B246A946A046F0BD4E2804D14648B7
:1035C00006F022FD0024E1E748283AD0542833D001
:1035D0002B283BD1012C21D00123022C10D09C465A
:1035E000E34459463D4806F00FFD0024CEE7089815
:1035F00009990022324B03F018FD08900991C5E7A4
:10360000374A384B0C980D9903F0E8FC02000B0088
:1036100035480C920D9306F0F7FCB7E70E980F991A
:103620002F4A324B03F0DAFC0A9A0B9B0E900F9153
:103630002F4806F0E9FCA9E72E4806F0E5FC012436
:10364000A4E72D4806F0E0FC02249FE72D2806D1D0
:10365000012C55D0022C12D001235B42BFE7202859
:1036600004D1424601235A4090468FE7492800D0B2
:103670008CE732003900214806F0C6FC86E7184A7C
:10368000184B0C980D9903F0A0FCBFE704520110F1
:10369000245201104852011088520110A852011002
:1036A000C05201109999993F9A9999990000344014
:1036B000000050406666E63F6666666600407F40F2
:1036C0000000E03F000040409A4B235291630540C8
:1036D000F4D64354FB211940E45201100853011061
:1036E0007B14AE47E17A943F18530110E17A743F9E
:1036F00010530110FC520110F05201102053011020
:103700000E980F99054A064B03F05FFC0A9A0B9B33
:103710000E900F91034806F077FC37E77B14AE4715
:10372000E17A743F10530110012010B5002140428E
:1037300006F0CAFFFEF7B0FE00F088FD10BDC046DF
:10374000F0B5C646274F00B53B68002B23D1FDF7E7
:103750004FFB013002D180BCB846F0BDFDF71EFB27
:10376000214B1C68237B262BF5D022000021183228
:1037700006E00C3213000C3B1B780131262BEAD0FB
:103780008342F6D14B005B189B00E41863699847AD
:1037900001233B60DFE700233B60FDF7ADFC124DEA
:1037A0002A68137B262B1AD0104B00240021984640
:1037B00009198E0092191069FDF7D8FA2B680134A7
:1037C0009B191869FDF7C4FA4046FDF7C1FA61007C
:1037D0002A680B199B00D3181B7B262BE8D1936812
:1037E0009847B4E760E002208026002018500110BE
:1037F0000022044B1A60044B01321A60034B044A46
:103800001A6070475CE0022060E002208026002001
:103810001026002010B5FFF793FF10BD70B594B0CF
:10382000160005000C00FDF767FC002E17D00D4BAD
:103830002A001D001900684606F0EEF86A460021CD
:103840000020FDF777FA22002900684606F0E4F828
:103850006A4601210020FDF76DFA14B070BD024BDD
:10386000E6E7C0463053011038530110F0B595B06B
:10387000FDF742FC3A4C00222100684606F0CCF8E5
:103880006A4600210020FDF755FA00272100012596
:1038900000240022684606F0BFF86A460121002095
:1038A000FDF748FA2F4E01200021404206F00CFFA0
:1038B000FEF7F2FD00F0CAFCFDF79AFA0130F2D0F3
:1038C000FDF76CFAC3B2462B04D88300F3589F4629
:1038D00001235D402A0039002000FFF79FFFE2E747
:1038E000002D0DD03F01303803E0002D0DD03F01F9
:1038F0003738C719012239002000FFF78FFFD2E7C0
:10390000BB00DB195B003038C718002239002000EB
:10391000FFF784FFC7E7E71B2A0039000020FFF705
:103920007DFF0024BFE73900200003F0DFF8070027
:10393000F2E700220C4B39001A6020002A00FFF742
:103940006DFF15B0F0BD6743E6E73F19E4E73800C7
:103950002A0000213C00FFF761FF0027A3E7C046D3
:10396000305301107C5F01104CD402200022014B27
:103970001A60704790E00320014B024A1A607047BA
:1039800090E00320000018107047C046064B1B68EB
:1039900019003039392B01DD573B1900034A1368F0
:1039A0001B010B43136070473CE0022090E00320B2
:1039B0000122014B1A60704730E0022000210020F4
:1039C00010B502F07DFFC0460021002010B502F0C6
:1039D00077FFC04610B5FEF753F910BD70B50E4D18
:1039E000C0B02B68002B14DD00240C4E22003100E7
:1039F000684606F011F89020FDF78EFF68460AF041
:103A000011F801006846FEF71BF92B680134A34248
:103A1000ECDC40B070BDC04690E003206054011063
:103A200010B5034B0100180006F0EEFA10BDC046B9
:103A30006854011070B50A2006F018FA074C084DBA
:103A40002600FC366268216828000C3406F0DCFA97
:103A5000B442F7D10A2006F009FA70BD842600208E
:103A60007C54011070B50A2006F000FA0B4C0C4E85
:103A700025009935FF35626813782A2B03D0300072
:103A8000217806F0C1FA0C34AC42F4D1054806F0B6
:103A9000BBFA0A2006F0EAF970BDC0468027002074
:103AA0008854011094540110F0B5DE4657464E4636
:103AB0004546E0B50A2093B006F0D8F9002304AEDD
:103AC00033708023244F9B003C68E3189C4239D21A
:103AD000224B9946224B9846224B9B46224B019300
:103AE000224B9A4610E051462A0002A805F094FFA6
:103AF00002A9300009F0D2FE8022920094463B6871
:103B000001346344A3421DD90F231D0025402342E5
:103B10000ED025784846290006F076FA43466822FA
:103B20005B5D9343DFD12E2302AA11001380E0E7EF
:103B30003100584606F068FA21000198357006F009
:103B400063FAE6E70A2006F091F913B0F0BCBB4631
:103B5000B246A946A046F0BD90E003201C500110DB
:103B6000ED6E0110B8540110C0540110C85401107A
:103B700010B5034B034A1A60FFF796FF10BDC0460D
:103B800090E003200000181010B5044806F03CFA3D
:103B9000FEF79CF9024806F037FA10BDCC5401102C
:103BA000AC4F0110002110B5034B0448595606F0E4
:103BB0002BFAFEF78BF910BDC1E20320DC54011093
:103BC000002170B5214D8CB069562148413106F075
:103BD0001BFA03AA02A901A8FDF7B2FE039A0199F4
:103BE0001C4806F011FA6B460021DC1C23006956C4
:103BF00004AA0120FDF76AFC002123000320695676
:103C000004AAFDF763FC002817D0134E2078FDF7B7
:103C100083FE03AA02A901A8FDF792FE029B227867
:103C200004A9300006F0F0F90021230004206956B1
:103C300004AAFDF74BFC0028E8D1002123006956B7
:103C400004AA0220FDF742FC0CB070BDC1E20320C3
:103C5000EC540110005501102855011010B5FFF764
:103C6000AFFF10BD70B51B211D4806F0CDF91D48F2
:103C700006F046F91B211C4806F0C6F91B4C1C4DEA
:103C8000236828005A425341236006F0BDF90A20F8
:103C900006F0ECF82368002B1FD01649164806F0F2
:103CA000B3F90A2006F0E2F8144806F0ADF914481A
:103CB00006F0AAF9134806F0A7F9134806F0A4F98C
:103CC000124806F0A1F90A2006F0D0F8280006F004
:103CD0009BF90A2006F0CAF870BD0D49DEE7C04620
:103CE0008C4E0110505501105C55011048E1032025
:103CF000645501104455011090550110A85501104C
:103D0000BC550110CC550110E0550110F8550110BB
:103D10004855011070B51B211F4806F075F91F4862
:103D200006F0EEF81B211E4806F06EF91D4C1E4DE4
:103D3000236828005A4253411C4A236013685942A1
:103D40004B41136006F060F90A2006F08FF82368F3
:103D5000002B1FD01649174806F056F90A2006F026
:103D600085F8154806F050F9144806F04DF9144846
:103D700006F04AF9134806F047F9134806F044F9EB
:103D80000A2006F073F8280006F03EF90A2006F033
:103D90006DF870BD0D49DEE78C4E011050550110D5
:103DA0001056011048E103206455011044E103203E
:103DB0004455011090550110A8550110BC55011033
:103DC000CC550110E0550110F8550110485501106F
:103DD00010B590210148FDF72DFE10BD1C560110B5
:103DE00010B500240A2006F041F8074B1C57FEF7D7
:103DF00061F8064B02002100180006F005F90A20C0
:103E000006F034F810BDC046C1E20320245601106C
:103E1000F0B5C64600B5214B84B01978204806F0AD
:103E2000F3F8204B2048196806F0EEF81F4B2048A5
:103E3000196806F0E9F81F4B1F48196806F0E4F806
:103E4000012008F073FF1D4B0100180006F0DCF89C
:103E50001B4D00212A686B681A4806F0D5F81A4BEA
:103E600001249846AA68EB6803CD16001F00361A95
:103E70008F413000390002900391611E019100943E
:103E800021004046013406F0BFF8072CEAD10A2091
:103E900005F0ECFF04B080BCB846F0BDBCE20320E6
:103EA0004456011014250020585601103CD402201D
:103EB0007056011094E003208856011094560110AA
:103EC00080450220A8560110BC56011010B50420F0
:103ED000FCF7A6FF10BDC04600B587B001AA09F0E7
:103EE00031FC002101A8FDF7A5FD07B000BDC046CB
:103EF00000B5C3B002AB01AA0A4909F023FC019A3C
:103F000002A9094806F080F80198C0B2FDF704FD47
:103F100002A809F087FD010002A8FDF791FE43B059
:103F200000BDC046E4560110F456011000B583B040
:103F300001AA09F007FC0198C0B2FDF7EDFC03B03F
:103F400000BDC04610B5044B0448196806F05CF883
:103F5000FDF74EFC10BDC0461CDC022014570110BA
:103F600000B5C3B06A4601AB074909F0EBFB074B4C
:103F700007481A78074B196806F046F802A8FDF7BB
:103F8000AFFC43B000BDC04620570110BEE2032085
:103F9000285701101CDC022010B5FDF77DFC10BD78
:103FA00070B5D2B000236A46137202AA09F0CAFBA8
:103FB0000B4E0C4D0AE03468FDF77CFF2100020037
:103FC00012AB280006F020F8FDF766FC01AA12A942
:103FD00002A8FDF7F5FA0028EDD152B070BDC04639
:103FE0001CDC02204C57011000B583B001AA09F077
:103FF000A9FB019840B2FDF7C1FE0021034B044824
:10400000595606F001F803B000BDC046C1E20320D6
:104010006057011000B583B001AA09F093FB019825
:10402000FDF780FC03B000BD10B5FDF711FC10BD1D
:10403000002310B50B2488B0059301330693133386
:10404000079306AB05AA009307AB09F07BFB079823
:104050006C44C0B22070FDF75FFC059840B2FDF7DC
:104060008DFE2200069804AB03A9FDF743FB002850
:1040700013D007990B4805F0C7FF03990A4805F0CC
:10408000C3FF0499094805F0BFFF0021084B094808
:10409000595605F0B9FF08B010BD074805F0B4FF48
:1040A000F9E7C04670570110805701109057011072
:1040B000C1E2032060570110A05701107047C046AD
:1040C0003E4BF0B5DE469B4657464E4645465A4661
:1040D0000023E0B589B01360394B3A4F9A463A4B0A
:1040E000BB460393394B17000493394B394C059366
:1040F000394B994607AB98464846534604990068A1
:104100000978039A49B21B681278413100900598EA
:1041100005F07AFF434620221A8000232370642092
:1041200005F058FE0500831CF9D00D2D10D01B2D75
:104130000ED0280005F09AFE200009F073FC8028BC
:10414000EDD04346414620181D7009F063FCE6E7B8
:104150005E460025BB46029627002C00350003E092
:1041600001340C35152C21D02E68300009F05AFC92
:1041700039000200300009F0B7FB0028F0D125001B
:10418000029B3C005F469B466B005B199B005B44B7
:10419000596820009B6898473B68002BACD009B059
:1041A000F0BCBB46B246A946A046F0BD3C005F4607
:1041B000029B9B463B68002B9ED0F0E730E002203C
:1041C0001CDC022084260020BEE20320C1E2032082
:1041D000B4570110C0E0032094E0032030B5174825
:1041E00083B005F08DFE164805F00EFF20236A46C9
:1041F00093800023134D2B70642005F0EBFD040029
:10420000831CF9D00D2C10D01B2C0ED0200005F0F3
:104210002DFE280009F006FC8028EDD06B462818FA
:1042200001A91C7109F0F6FBE6E700212800FDF763
:1042300001FC054805F0E8FE03B030BDD45701107D
:10424000E8570110C0E00320AC4F011070B5694D74
:1042500000202C68002C1AD005F0BCFD0400831C43
:1042600014D0654E3368012B40D0022B2BD0002B8D
:104270000CD11B285BD0614D44B22C70013405D0A9
:10428000FFF752FA0023EB560133F9D170BD05F068
:10429000A1FD831CFAD05A490B0003E001340C3312
:1042A000222CF3D01A788242F8D1564B1860630062
:1042B0001B199B00C9188B689847534B53481968C2
:1042C00005F0A2FEE2E7432868D019DC412851D06E
:1042D00042282FD10423494D2B70FFF725FA0023E4
:1042E000EB560133F9D100233360CFE76D284BD073
:1042F00012DC1B2872D05B285AD102233360C5E739
:10430000442817D105233D4D2B70FFF70DFA0023EC
:10431000EB560133F9D1E6E76F2849D1374D2B70C1
:10432000FFF702FA0023EB560133F9D1DBE7013343
:104330003360ABE70023314D2B70013305D0FFF71D
:10434000F3F90023EB560133F9D100232B7001332D
:1043500005D0FFF7E9F90023EB560133F9D164B238
:104360002C700134BFD0FFF7DFF90023EB56013387
:10437000F9D1B8E70323214D2B70FFF7D5F90023BE
:10438000EB560133F9D1AEE702231C4D2B70FFF73A
:10439000CBF90023EB560133F9D1A4E70623174DDF
:1043A0002B70FFF7C1F90023EB560133F9D19AE7DF
:1043B0000023124D2B70013305D0FFF7B5F9002310
:1043C000EB560133F9D164B22C7001348BD0FFF776
:1043D000ABF90023EB560133F9D184E700231B210D
:1043E0000B482B60336005F00FFE0A4805F00CFE09
:1043F0004CE7C04648E1032054E10320F4240020A8
:10440000802700203CE0022090E003201858011093
:10441000FC57011004580110F0B50D4C060024683B
:104420000D00170083B0002C01D103B0F0BD1B219B
:10443000084805F0E9FD1B21B31CAA1C009706489B
:1044400005F0E2FD1B21054805F0DEFDEDE7C04665
:1044500048E10320784E011024580110884E0110C5
:1044600070B5104B06001B680D00140082B0002BC5
:1044700001D102B070BD1B2163425C410A4805F0C6
:10448000C3FD1F2364429C43403433001B21EA1DBB
:104490000094064805F0B8FD1B21054805F0B4FD61
:1044A000E7E7C04648E10320784E01102458011088
:1044B000884E0110F0B5040083B00D4816001F00AF
:1044C0000D0005F0A1FD0F20FEF738F9FE206B4628
:1044D000204001AA02216DBA9D80FEF729FB01232D
:1044E0001C433A003100E0B2FEF76EFA03B0F0BDB3
:1044F000345A0110F8B5070012480E0015001C00D0
:1045000005F082FD0F20FEF719F9FEF71DF9FE20D8
:104510003840FEF781F93012C0B2FEF77DF9F0B2F3
:10452000FEF77AF9002D06DD651920780134FEF7D3
:1045300073F9AC42F9D1FEF735F9042001F0ECFE35
:10454000F8BDC046345A0110F0B54546DE46574620
:104550004E46E0B50400884685B0002A4AD123685B
:10456000002B00D09847A369002B3CD0234B043488
:104570009B46234B9A46234B9946234B039307E0D4
:10458000022B01D163699847E36A1834002B2AD0C3
:10459000E06809F047FA5346276866680193A36804
:1045A0003200C31802333900009305005B464046D1
:1045B000FCF7E8F8E3683200009339004B464046C8
:1045C000FCF7E0F8237C012BDAD16369E9191B6859
:1045D000320000934046039B02311834FCF7D2F8B6
:1045E0006369002BD4D105B0F0BCBB46B246A946E6
:1045F000A046F0BD0800FCF7F3F8B0E74C5A0110F4
:10460000FC540110505A011084560110F0B5C646F2
:1046100000B588B08C4602A998460B000E4C1700D6
:1046200024CC24C31D000D4C45CC45C322786046E4
:104630001A700B4B0722019303F094FD29000C2202
:10464000380003F08FFD0322404601A903F08AFDE4
:1046500008B080BCB846F0BD545A01105C5A011035
:10466000312E3000074B10B51B7804000120002BC1
:1046700000D110BD00233A220221200007F0D4FA15
:104680000020F6E7BDE2032080235B000B60DB180F
:1046900013807047002B01D0002A01D00120704701
:1046A000014B01321A70F9E7BDE20320180010B582
:1046B000FF2908D8054B49028918C918029A03F046
:1046C00051FD029810BD01204042FBE7182900204F
:1046D00001207047F8B5CE464746994680B5FF2978
:1046E00026D84D02AD18A84613491448884405F051
:1046F0008BFC089B002B11D01E004C466827104DE8
:104700004E4402E00134A64208D020782A5CBA4325
:10471000F8D0013405F0AAFBA642F6D1494640463E
:10472000089A03F01FFD0898C0BCB946B046F8BD12
:1047300001204042F8E7C046182900206C5A0110B9
:10474000ED6E011010B500232022052107F06CFA50
:104750000120404210BDC04601210A00764B10B531
:104760001B689A401300754A1268914042B2002AB1
:1047700000DACEE0D02212069161D02212069361B7
:104780009361936193619361936193619361936189
:104790009361536153615361536153615361536139
:1047A000536153615361440600D5C2E09161D02248
:1047B0001206936193619361936193619361936135
:1047C0009361936193615361536153615361536189
:1047D00053615361536153615361840600D5A6E070
:1047E0009161D02212069361936193619361936109
:1047F00093619361936193619361536153615361D9
:104800005361536153615361536153615361C406F2
:1048100000D58AE09161D022120693619361936181
:104820009361936193619361936193619361536128
:1048300053615361536153615361536153615361D8
:104840005361040700D56EE09161D0221206936196
:1048500093619361936193619361936193619361B8
:104860009361536153615361536153615361536168
:10487000536153615361440753D49161D022800145
:1048800012069361C4B293619361936193619361E2
:104890009361936193619361536153615361536178
:1048A000536153615361536153615361000636D4C0
:1048B0009161D02212069361936193619361936138
:1048C0009361936193619361936153615361536108
:1048D0005361536153615361536153615361640682
:1048E0001BD49161D022120693619361936193610D
:1048F0009361936193619361936193615361536198
:104900005361536153615361536153615361536107
:1049100010BDD022120651612FE75161E2E75161CB
:10492000C7E75161AAE751618FE7516173E75161B0
:1049300057E751613BE7C0465C5D0110605D0110C7
:1049400070B501242200074BD0251B682D069A4024
:10495000054BAA611B689C40AC61FFF7FDFE6C61D2
:1049600070BDC046485D0110445D011070B5012462
:104970002200074BD0251B682D069A40054B6A6123
:104980001B689C40AC61FFF7E7FE6C6170BDC046E0
:10499000485D0110445D011070B5012632003500FC
:1049A000464BD0241B6824069A40454B62611B6825
:1049B000AE209D40434B65611B689E406661A661C9
:1049C000A561FFF7C9FE6561D520A661A561FFF766
:1049D000C3FE65618020A661A561FFF7BDFE65612C
:1049E000A820A661A561FFF7B7FE65613F20A6611B
:1049F000A561FFF7B1FE6561D320A661A561FFF750
:104A0000ABFE65610020A661A561FFF7A5FE6561AB
:104A10004020A661A561FFF79FFE6561A620A66103
:104A2000A561FFF799FE6561A420A661A561FFF766
:104A300093FE6561A120A661A561FFF78DFE65610A
:104A4000C820A661A561FFF787FE6561DA20A6612F
:104A5000A561FFF781FE65611220A661A561FFF7E0
:104A60007BFE65618120A661A561FFF775FE65612A
:104A70008F20A661A561FFF76FFE6561D920A66151
:104A8000A561FFF769FE65612520A661A561FFF7B5
:104A900063FE6561DB20A661A561FFF75DFE6561D0
:104AA0003420A661A561FFF757FE6561AF20A661BE
:104AB000A561FFF751FE656170BDC0464C5D0110F8
:104AC000445D0110485D0110802210B500210248AC
:104AD000D20003F041FB10BDFC4F022070B58028CE
:104AE00011DC40290FDC0724CB1723405B18DB10B7
:104AF000DB0118180123064E0C40A340355C002A48
:104B000002D01D43355470BD9D433554FBE7C0466C
:104B1000FC4F0220F0B5454657464E46DE46E0B50E
:104B2000050085B01E00203A0EAB0C001F78BE4871
:104B3000D3B20A002900984605F066FA002E00D18B
:104B400049E143460C2E00D15CE2B84A1B019B1898
:104B5000029300239C467B1E9F417B420393B44BF0
:104B600022009846634600950193FCE00098802857
:104B700000D937E1402A12D805000727A946D010EE
:104B80001740C0014844B94601274D46AF4045464D
:104B9000BA462D5C2F005546AF4345462F54664517
:104BA00000D10DE1580600D544E1901CC0B2844606
:104BB000001B8146402900DD20E2009DC810AA4666
:104BC00007252F000F400121B940C00150448A46FB
:104BD00041465546095CA94345462954B14500D193
:104BE000EEE0990600D543E1D01CC0B2011B894616
:104BF0006146402914DC009D6746AA4607252F40E0
:104C0000BC46063D2F006546AF40C9104546C90168
:104C10005144BA466D5C2F005546AF4345466F542C
:104C20004E4500D1CCE0D90600D549E1111DC9B2ED
:104C30008C46091B8946402810DC009DC110AA46FD
:104C400007252F0007400120B840C9015144824682
:104C500040465546405CA84345466854B14500D19E
:104C6000AEE0190700D549E1501DC0B2011B8946CD
:104C70006146402914DC009D6746AA4607252F405F
:104C8000BC46063D2F006546AF40C9104546C901E8
:104C90005144BA466D5C2F005546AF4345466F54AC
:104CA000B14500D18CE0590700D54FE1911DC9B243
:104CB0008C46091B8946402810DC009DC110AA467D
:104CC00007252F0007400120B840C9015144824602
:104CD00040465546405CA84345466854B1456FD0B0
:104CE000990700D550E1D01DC0B2011B8A4661462C
:104CF000402916DCC910C901894600990725674675
:104D00008B462F40D944BB46063D2F005D46AF4041
:104D10004D46BC4646494D5D2F006546AF434D4666
:104D20004F5556454CD0DB0700D556E140280FDCE7
:104D300007252F00C11007400120009BB8409C466A
:104D4000C901614484466546394B585CA8435854B0
:104D50000832D2B2131BB34232D0019B013301930C
:104D6000DBB29E4237D9029B0199585C039B511CD0
:104D70005840C043C9B20F1BBC4643B2000600D422
:104D8000F4E6009880282DDC402A00DD07E70500C6
:104D9000A94607251540AA4601255746BD40D01013
:104DA000C0014844A94645462D5CAA464D46574693
:104DB0003D43A94645464F462F54664500D0F1E68F
:104DC000009D22000135EBB20093019B013301935A
:104DD000DBB29E42C7D805B0F0BCBB46B246A9467E
:104DE000A046F0BD6645EBD0911CC9B2091B8E42AE
:104DF000E6D0D11CC9B2091BB142E1D0111DC9B224
:104E0000091BB142DCD0511DC9B2091BB142D7D038
:104E1000911DC9B2091BB142D2D0D31DDBB21B1BFD
:104E2000B34295D1CCE7C046845A0110A860011066
:104E3000FC4F0220901CC0B28446001B82464029D1
:104E400000DDF3E20725C810C00181460098294023
:104E50008346063D8D40D94429004D467148455D45
:104E600029434D464155B245AAD0990600D4BBE628
:104E7000D01CC0B2011B8A46614640291ADCC91009
:104E8000C9018946009907258B46D944AB4665463A
:104E90005F463D40AB4601255F46BD40AC464D46B2
:104EA00060494D5DAB4665465F463D43AC464D4669
:104EB00067464F55B24500D182E7D90600D4B5E622
:104EC000111DC9B28C46091B8A46402810DC0725F3
:104ED000C110C9018946009928408B46063D85408E
:104EE000D94428004D464F494D5D28434D4648550D
:104EF000B24500D164E7190700D4B5E6501DC0B231
:104F0000011B8A46614640291ADCC910C90189463D
:104F1000009907258B46D944AB4665465F463D4020
:104F2000AB4601255F46BD40AC464D463D494D5D13
:104F3000AB4665465F463D43AC464D4667464F55DA
:104F4000B24500D13CE7590700D4AFE6911DC9B284
:104F50008C46091B8A46402810DC0725C110C90170
:104F60008946009928408B46063D8540D944280053
:104F70004D462C494D5D28434D464855B24500D11C
:104F80001EE7990700D4AEE6D01DC0B2011B8A46C9
:104F90006146402900DDC4E6C910C901894600996F
:104FA00007258B46D944AB4665465F463D40AB4638
:104FB00001255F46BD40AC464D461A494D5DAB46A6
:104FC00065465F463D43AC464D4667464F55B24544
:104FD00000D1F5E6DB0700D4A8E6402800DDB7E6FF
:104FE0000725C11005400120009BA8409C46C9012F
:104FF0000C4B61445D5C28435854A9E6B04200D094
:10500000EFE5DDE65B0043449B009846064A00203E
:1050100090447A1E97417A420192024A23009446B4
:105020000090E0E0FC4F022098660110802D00D92E
:1050300007E1402B00D9FCE0072018408346DF1031
:10504000FF017F19029701205F46B8408246029F08
:105050008D4EF05D5746B843029FF05548460C28E8
:1050600000D1EAE0560600D510E19E1CF6B2301BD6
:105070008146402900DDC1E10720CF100840012111
:1050800081408A4661465046FF017F19C95D8143D0
:105090006046C15549460C2900D1CEE0910600D5A5
:1050A00010E1DF1CFFB2391B8946402E00DDA9E16B
:1050B0000720F1103040012686406046B246C90103
:1050C0004919465C504686436046465449460C2979
:1050D00000D1B2E0D10600D510E11E1DF6B2311BA1
:1050E0008946402F00DD91E10720F9103840012763
:1050F00087406046BA46C9014919475C5046874314
:105100006046475449460C2900D196E0110700D566
:1051100010E15F1DFFB2391B8946402E00DD79E1A9
:105120000720F1103040012686406046B246C90192
:105130004919465C504686436046465449460C2908
:105140007BD0510700D512E19E1DF6B2311B894676
:10515000402F00DD62E10720F91038400127874029
:105160006046BA46C9014919475C504687436046C4
:10517000475449460C2960D0910700D513E1DF1D43
:10518000FFB2391B8946402E00DD4BE10720F110AC
:105190003040012686406046B246C9014919465C46
:1051A000504686436046465449460C2945D0D207AE
:1051B00000D514E1402F0BDC0721012639408E4039
:1051C00061466046FA10D2015219895CB14381549C
:1051D0000833DBB21A1B0C2A2FD0009A013200923E
:1051E0000C2A00D1F7E542460099565C019A591CF9
:1051F0005640F643C9B20F1BB94672B2360600D408
:1052000014E7802D1DDC402B13DC0720184083465B
:10521000DF10FF017F19029701205F46B8401A4E48
:10522000029F8246F05D834650465F463843029FA8
:10523000F05548460C2800D014E701352300EDB2A4
:10524000CBE749460C29F8D0991CC9B2091B0C2997
:10525000F3D0D91CC9B2091B0C29EED0191DC9B253
:10526000091B0C29E9D0591DC9B2091B0C29E4D02E
:10527000991DC9B2091B0C29DFD0DA1DD2B2121B4D
:105280000C2AA5D1D9E7C046FC4F02209E1CF6B2DD
:10529000301B8246402900DDCDE00720CF10FF0102
:1052A0000140B94606388840A944010048466E4F7F
:1052B000385C01434846395451460C29BDD091060B
:1052C00000D4EEE6DF1CFFB2391B8A46402E00DD1B
:1052D000B5E00720F110C901064089460638B04004
:1052E000A944060048466049085C064348460E54F7
:1052F00051460C29A1D0D10600D4EEE61E1DF6B20F
:10530000311B8A46402F00DD9DE00720F910C901BE
:10531000074089460638B840A94407004846524924
:10532000085C074348460F5451460C2985D01107A5
:1053300000D4EEE65F1DFFB2391B8A46402E00DD29
:1053400085E00720F110C901064089460638B040C3
:10535000A944060048464449085C064348460E54A2
:1053600051460C2900D168E7510700D4ECE69E1D98
:10537000F6B2311B8A46402F6DDC0720F910C901B7
:10538000074089460638B840A944070048463649D0
:10539000085C074348460F5451460C2900D14CE79E
:1053A000910700D4EBE6DF1DFFB2391B8A46402E81
:1053B00055DC0720F110C901064089460638B04087
:1053C000A944060048462849085C064348460E544E
:1053D00051460C2900D130E7D20700D4EAE6402F2D
:1053E00000DDF5E60726F9103740063EBE401E4AAE
:1053F000C9014919575C3E435654E9E60C2800D0D0
:105400004CE61AE70C2900D064E616E70C2900D018
:105410007CE612E70C2900D093E60EE70C2900D0B9
:10542000AAE60AE70C2900D0C1E606E7B04201D09F
:10543000FFF7D7FBC4E40C2800D02FE6FDE60C29CB
:1054400000D047E6F9E60C2900D05FE6F5E60C2926
:1054500000D076E6F1E60C2900D08DE6EDE60C29C9
:1054600000D0A4E6E9E6C046FC4F0220F8B5474666
:10547000CE46012680B537001B4BD0251B682D0674
:105480009F401A4B1B689E40194B98460023994633
:10549000484644465038AF61C0B2AE61FFF75CF990
:1054A0006E610020AF61AE61FFF756F96E611020AA
:1054B000AF61AE61FFF750F9803C6E6120786F619B
:1054C0000134AE61FFF748F96E614445F6D101231E
:1054D0009C467F33E14498464B46A044082BD7D1E5
:1054E000C0BCB946B046F8BD485D0110445D01102E
:1054F0007C50022010B5FD20FFF722FA1220FFF7A2
:1055000035FAFD20FFF71CFAB120FFF72FFAAE2085
:10551000FFF716FAA420FFF713FA1520FFF710FA89
:105520000020FFF723FA7F20FFF720FA7520FFF70E
:1055300007FA0020FFF71AFA7F20FFF717FAB320C7
:10554000FFF7FEF9F120FFF711FACA20FFF7F8F98B
:105550007F20FFF70BFAA020FFF7F2F96520FFF795
:1055600005FAA120FFF7ECF90020FFF7FFF9A220D0
:10557000FFF7E6F90020FFF7F9F9AB20FFF7E0F9B4
:105580000120FFF7DDF9B420FFF7DAF9A020FFF7DB
:10559000EDF9B520FFF7EAF95520FFF7E7F9C1204B
:1055A000FFF7CEF9C820FFF7E1F98020FFF7DEF919
:1055B000C020FFF7DBF9C720FFF7C2F90F20FFF784
:1055C000D5F9B120FFF7BCF93220FFF7CFF9B220AF
:1055D000FFF7B6F9A420FFF7C9F90020FFF7C6F9D5
:1055E0000020FFF7C3F9BB20FFF7AAF91720FFF748
:1055F000BDF9B620FFF7A4F90120FFF7B7F9B520F0
:10560000FFF79EF90B20FFF7B1F9BE20FFF798F9DD
:105610000520FFF7ABF9A620FFF792F980220021C1
:105620001202034802F098FDAF20FFF789F910BD80
:10563000FC530220802210B500210248120202F021
:105640008BFD10BDFC5302207F2809DC7F2907DC7D
:10565000C901044B08184000110A19541B185A704C
:105660007047C046FC5302207047C04670B51520F5
:10567000FFF766F90020FFF763F97F20FFF760F975
:105680007520FFF75DF90020FFF75AF97F20FFF73B
:1056900057F95C20FFF754F98023054C1B02E518ED
:1056A00020780134FFF762F9AC42F9D170BDC046F1
:1056B000FC53022010B504000F4804F0A5FC0F4B6A
:1056C0001C70022C12D0032C0AD0012C07D10C48DC
:1056D00004F09AFC0A2000F01FFEFCF79BFD10BDB1
:1056E000084804F091FCFFF705FFF8E7064804F0CE
:1056F0008BFCFFF751F9F2E7985A0110BCE2032046
:10570000A45A0110C45A0110B45A011010B50A4B22
:105710001B78022B0BD0032B04D0012B01D1FBF7FC
:1057200029FA10BDFFF786FFFFF7A0FFF9E7FFF7A3
:10573000CBF9FFF79BFEF4E7BCE2032000B5194B61
:1057400083B01B78022B1ED0032B0BD0012B07D16B
:105750000233591A8300C01A40007F30FBF7C8F9A2
:1057600003B000BD0C2359434300C018FF231B02A4
:105770000193012340000093D2B2C9B2C0B20B33EF
:10578000FFF772FFECE70C2359434300C0180123D5
:1057900040000093D2B2C9B2C0B20B33FFF7BAF9DE
:1057A000DEE7C046BCE2032010B50A4B1B78022B93
:1057B0000BD0032B04D0012B01D1FBF7DBF910BD7B
:1057C000FFF738FFFFF752FFF9E7FFF77DF9FFF723
:1057D0004DFEF4E7BCE2032010B5094B1B78022B09
:1057E0000AD0032B04D0012B01D1FBF7D9F810BD4F
:1057F00092B2FFF729FFFAE7D2B2FFF76FF9F6E7A7
:10580000BCE2032010B5064B1B78022B05D0032BFE
:1058100000D010BDFFF72AFFFBE7FFF727FEF8E7F0
:10582000BCE20320074B8000C3181B68C90092002C
:105830000A435A400C231340034A944660440360D1
:105840007047C04604C0014004D001400123D0226B
:105850008340120693629361094A83009A18116883
:105860004022514080320A400649C0008C466344C1
:105870001A60054B9C460523604443607047C04650
:1058800004C0014004D00140004001408023DB05FA
:105890001868000F7047C0460FB400B5084883B0C1
:1058A00004F02EFB049B002B07D005A918000191E2
:1058B00004F0FAF8034804F023FB012004F00CF98B
:1058C000D45A01105855011070B5EFF3108C72B610
:1058D0000D4D2B68002BFCD0BFF35F8F0724CB0846
:1058E000C618C05C01230C40A3401C0004400342C6
:1058F00007D118433070BFF35F8F2C608CF3108892
:1059000070BD1000FFF7C8FF2C0100D0F8B5474666
:10591000CE46884680B5EFF3108C72B61C4D2C68CD
:10592000002CFCD0BFF35F8F9A4222D807210126BA
:10593000894602E00132934218D34D4637001540A4
:10594000AF40D4080119045D2742F3D110003C4355
:105950000C70BFF35F8F00220D4B1A608CF3108820
:1059600000280EDBC0BCB946B046F8BD012040425D
:10597000EFE7BFF35F8F00232B608CF310880120CB
:1059800040424346002BEDD00898FFF785FFC04604
:105990002C0100D0044A1078431CDBB2172B00D92D
:1059A000102313707047C0461829022010B5064B0B
:1059B000064C82B00100009318221F232000FFF73D
:1059C000A5FF02B010BDC046E45A011000D4022069
:1059D0000021044B044ABFF35F8F02C39342FAD104
:1059E0007047C046000100D0800100D0054B064A38
:1059F0001360064A136053609360D3601361536170
:105A0000936170478080808000E400E004E400E05F
:105A10001F2318401E3B8340002905D0C021044AA3
:105A20004900535013607047802201498B50FAE7B8
:105A300000E100E001228240034B1B6813405A1E24
:105A40009341D8B27047C04600E100E070B50D0048
:105A5000EFF3108672B60F4A1368002BFCD0BFF329
:105A60005F8F0D4B10309B6884001B590B4A93428B
:105A700003D09D4201D000F047FF074B9B681D51AA
:105A8000BFF35F8FBFF35F8F0022024B1A6086F374
:105A9000108870BD240100D000ED00E0CD010010A1
:105AA000F0B557464E46DE464546E0B585B00600A1
:105AB00000911700EFF3108B72B66A4A1368002B3F
:105AC000FCD0BFF35F8F0025674B5D579A46002DD2
:105AD00000DAA9E06B00654C01935B199B009846C6
