:020000041000EA
:1000000000B5324B212058609868022188439860DF
:10001000D860186158612E4B002199600221596106
:100020000121F02299502B49196001219960352056
:1000300000F044F80222904214D00621196600F024
:1000400034F8196E01211966002018661A6600F04E
:100050002CF8196E196E196E052000F02FF8012189
:100060000842F9D1002199601B49196000215960AB
:100070001A491B48016001219960EB211966A021F2
:10008000196600F012F800219960164914480160C1
:100090000121996001BC002800D000471248134993
:1000A000086003C880F30888084703B5996A0420EC
:1000B0000142FBD001200142F8D103BD02B5186610
:1000C0001866FFF7F2FF186E186E02BD00000240BE
:1000D000000000180000070000035F00212200005C
:1000E000F4000018222000A00001001008ED00E03C
:1000F00000000000000000000000000074B24E7A12
:1001000000200420F7010010C3010010C5010010F9
:10011000C1010010C1010010C1010010C101001097
:10012000C1010010C1010010C1010010C701001081
:10013000C1010010C1010010C9010010CB01001065
:10014000CD010010CD010010CD010010CD01001037
:10015000CD010010CD010010CD010010CD01001027
:10016000CD010010CD010010CD010010CD01001017
:10017000CD010010CD010010CD010010CD01001007
:10018000CD010010CD010010CD010010CD010010F7
:10019000CD010010CD010010CD010010CD010010E7
:1001A000CD010010CD010010CD010010CD010010D7
:1001B000CD010010CD010010CD010010CD010010C7
:1001C00000BE00BE00BE00BE00BE00BEEFF3058054
:1001D000103800BEF2EB8871C0720110E472011099
:1001E0003802001090A31AE71E481F49086006C88D
:1001F00081F3088810471D480068002801D019487D
:10020000F3E70DA40ECC002902D000F012F8F9E7B4
:100210001749184A002000E001C19142FCD116495B
:100220008847164988471649884700BEFDE701C937
:1002300001C29A42FBD37047E4720110C000002053
:1002400090300220B4A2031000000420000004201B
:10025000B4A20310001004200010042000000000CD
:10026000704700000000000008ED00E0000000D032
:1002700090300220C462032009960010C1040010CF
:10028000C9950010F8B5C0460448054B10B5834227
:1002900003D0044B002B00D0984710BD90300220B3
:1002A000903002200000000006480749091A8B1010
:1002B000C90FC91810B5491003D0044B002B00D04A
:1002C000984710BD903002209030022000000000BE
:1002D00010B5074C2378002B09D1FFF7D5FF054B4C
:1002E000002B02D0044800E000BF0123237010BDA2
:1002F0001848022000000000D8480110054B10B536
:10030000002B03D00449054800E000BFFFF7CCFFF5
:1003100010BDC046000000001C480220D848011053
:100320007047C046D0238022F0B51B06120285B06C
:100330009A610023FA220093009B9200934205DA0F
:10034000009B01330093009B9342F9DB8023D02173
:100350008026FA2280271B02102500249C460906CD
:10036000F6049200FF018E610394039B934205DA29
:10037000039B01330393039B9342F9DB63461842CB
:1003800020D04F610194019B934205DA019B013318
:100390000193019B9342F9DB4E610294029B400062
:1003A000934205DA029B01330293029B9342F9DBED
:1003B000013D002DD7D1D02380221B0612025A61A5
:1003C00005B0F0BD8F61DDE77047C046054A10B546
:1003D000138803439BB21380108880B2FFF7A2FFFB
:1003E00010BDC046B4620320044B10B51A88824386
:1003F0001A80188880B2FFF795FF10BDB462032001
:1004000001238340F0B5CE4647469946D02380B5B8
:1004100017004A461B0685B09A610023FA22009312
:10042000009B9200934205DA009B01330093009BEE
:100430009342F9DB002F37DD01227B1E9A40802397
:10044000D0248026FA20DB0194460025002298461D
:100450002406F6048000A6610192019B834205DA1E
:10046000019B01330193019B8342F9DB63461942EF
:1004700023D0434663610392039B834205DA039BC7
:1004800001330393039B8342F9DB66610292029B73
:100490004900834205DA029B01330293029B8342A7
:1004A000F9DB0135AF42D6D1D0234A461B065A614B
:1004B00005B0C0BCB946B046F0BD4346A361DAE71B
:1004C000F0B5DE4657464E464546E0B51B2083B0A4
:1004D00004F018FFD024802324061B0563620D203E
:1004E000636104F00FFF0E2004F00CFF0F2004F0F6
:1004F00009FF162004F006FF152004F003FF1A2060
:1005000004F000FF132004F0FDFE142004F0FAFEB6
:10051000122004F0F7FE002004F0F4FE012004F0A5
:10052000F1FE022004F0EEFE032004F0EBFE0420B6
:1005300004F0E8FE052004F0E5FE062004F0E2FEEB
:10054000072004F0DFFE01220021002004F0C6FE97
:1005500001220021012004F0C1FE0122002102201D
:1005600004F0BCFE01220021032004F0B7FE0122AA
:100570000021042004F0B2FE01220021052004F035
:10058000ADFE01220021062004F0A8FE0122002178
:10059000072004F0A3FE0A2004F0B4FE0B2004F0B0
:1005A000B1FE0C2004F0AEFE112004F0ABFE1020D2
:1005B00004F0A8FE00220121102004F08FFE01218A
:1005C0000022112004F08AFE80239B0263628023B4
:1005D0005B026362802280239201DB016362A2627C
:1005E000636280231B0263628023DB0363628023D8
:1005F0009B03A3628023DB04636280231B0363628B
:1006000080228023D2025B03636262628022D20076
:1006100062628022120162628022520162620A20BA
:10062000636105F0D5FB01F0E7FD0CF0E1F80BF09C
:100630003FFD00F0E1F801F0C7FE09F023F9FA20D0
:10064000C00005F0C5FB03F063F9012004F0D8FDFC
:10065000304805F0BDFB04F0EDFD2F4B00259A4618
:100660002E4B2F4E99462F4B2F4F9B462F4B0193CE
:10067000FA23DB00984603F0E7F803F05BF901206A
:100680000021404209F07CFDAF2134688900200040
:1006900005F088FF002935D0AF21013434603C6873
:1006A0008900200005F07EFF00291CD001200134C4
:1006B00001353C6005F08CFB4545DCD114240A2053
:1006C000013C09F02FF9002CF9D1FA25584609F020
:1006D000F7F9019809F0F4F90A2009F023F9ED007F
:1006E00003F050FAC7E701224846023103F0AAFF9F
:1006F0003B680120013301353B6005F069FB45454E
:10070000B9D1DBE701225046033103F09BFF346887
:10071000C2E7C046B80B0000F8160020EC17002016
:100720008C600320D84801102C600220EC48011096
:100730000EB410B5B5B037AA02CA040002A80192DF
:100740000CF088FD02A80CF0C9FEE4B2020002A978
:1007500020000AF0E9FB20000AF0A8FB35B010BC2D
:1007600008BC03B01847C04608B4F0B50E0004003A
:100770001500B6B03BAB80CB1B220F49023603936A
:10078000FFF7D6FFAB1C20001B220C490096FFF799
:10079000CFFF039A390004A80CF05CFD200004A9E7
:1007A000FFF7C6FF1B2220000549FFF7C1FF36B047
:1007B000F0BC08BC01B018471049011014490110E1
:1007C0002049011010B51B220149FFF7B1FF10BDF0
:1007D000244901100122034B1A60034A1368002BBD
:1007E000FCD0704734540220385402200122014BBF
:1007F0001A6070473054022010B502480BF0C6FF53
:1008000010BDC0466D01002000487047D45801104B
:1008100000487047AC57011030B583B0002807D1AD
:10082000344B35484380063BFF3B038003B030BD6B
:100830000A281BD803281BD0304B8000C0583049F1
:100840000123013804E001330A800231142B09D05E
:10085000C25C002AF7D1C022DBB25B0092002648BE
:100860001343E2E7CA2324489B00DEE70020DDE7CC
:100870006C46684609F048FA2178224B0A091E485E
:100880009A5C42800F221140595C818061780D0989
:1008900011405D5D595CC5800181A1780D09114051
:1008A0005D5D595C45818181E1780D0911405D5D97
:1008B000595CC581018221790D0911405D5D595C4A
:1008C0004582818261790D0911405D5D595CC58267
:1008D0000183A1790D091140595C5D5D81834583D8
:1008E000E1790C090A401C5D9B5CC4830384064BC0
:1008F0009BE7C0460904000088570220E858011011
:100900008A5702202C4901102203000002224100D4
:1009100003000A4041100120014011439A10490090
:1009200002400A43D9105200014011431A114900F4
:1009300002400A4359115200014011439A114900E3
:1009400002400A43DB115200184010437047C04672
:100950000023094A094913600B68581C032804DC6A
:1009600000230860064A136070471321033B11609F
:100970005A425341F6E7C046AC600320B060032002
:10098000A8600320F0B54F464646D6460C00C0B5D9
:10099000914606007F2801D81F2904D9E0BCBA4639
:1009A000B146A846F0BD07227F27CB1713405B183E
:1009B000DD106D4203353F1AE8B2924601F0F6FBB6
:1009C000381DC0B201F004FC01F04EFF782001F0A8
:1009D000B3FF402001F0B0FFED01204BED19984628
:1009E0005F5D4B46002B33D0012B2AD04B462100B4
:1009F0003000DAB203F0B2FD02217B00194001237E
:100A00007A101A400A43B910520019401143FA10E3
:100A100049001A400A4339115200194011437A1112
:100A200049001A400A43B91152000B4013435B00BE
:100A3000F809184301F080FF43465F5501F042FF7B
:100A4000ACE753464A4623409A401743FFB2CDE7EE
:100A50005346012223409A409743C7E7B0570220EC
:100A600070B516000C008300164A5B189B009E5060
:100A70001549164A431C05000C601360142B13DC47
:100A8000092E11D0132B16D00023114A2800136011
:100A90002100F2B203F03EFD32002800210004F0F4
:100AA000DBFB04F00FFC70BD00231360631C032B01
:100AB00005DD13231360E31E5A425341E5E70B6043
:100AC000E2E7C04664610320B0600320AC6003200D
:100AD000A860032070B515000400AE00C8B201F094
:100AE00065FB7619E0B20525012401F071FB01F0E8
:100AF000BBFE782001F020FF402001F01DFF154BC8
:100B0000F6182200705D013D024041105200214064
:100B100011438210490022400A43C1105200214073
:100B200011430211490022400A4341115200214061
:100B300011438211490022400A435200C009104368
:100B400001F0FAFE002DDCD1002001F0F5FE01F0ED
:100B5000B9FE70BDDF18002070B50025280001F037
:100B600025FB002001F034FB01F07EFE782001F02F
:100B7000E3FE402001F0E0FE8424013C0020E4B2CA
:100B800001F0DAFE002CF8D10135EDB201F09AFE49
:100B9000042DE3D170BDC046F8B505000C00160069
:100BA000D7B23A0003F0B6FCAB00164A1B199B0003
:100BB0009E501549154A6B1C0C601360142B13DCF6
:100BC000092E11D0132B16D00023114A28001360D0
:100BD00021003A0003F09EFC32002800210004F0BE
:100BE0003BFB04F06FFBF8BD00231360631C032B79
:100BF00005DD13231360E31E5A425341E5E70B6002
:100C0000E2E7C04664610320B0600320AC600320CB
:100C1000A8600320F0B54E46DE4645465746E0B58F
:100C20001600364B83B0364C18609846354B196029
:100C3000994613000A000100200008F041FF3378B4
:100C4000002B43D043461C682F4B00932F4B9B46F1
:100C50002F4B9A462F4B01934346621C1A604B461A
:100C60001D68A300377800995B199B00CF505B4645
:100C70001D6053461A60142A36DC092F34D0132A1B
:100C80002ED00023019A2000136029003A0003F0BF
:100C900041FC20003A00290004F0DEFA04F012FBC7
:100CA00043461C68142C0DDD002119604B460320BF
:100CB0001B6800240133DA0F98424A415242134024
:100CC0004A46136073780136002BC5D103B0F0BCDF
:100CD000BB46B246A946A046F0BD13235246136058
:100CE000EB1E5A425341CDE7534600221A606B1C5B
:100CF000032BF2DC5A461360C3E7C0465854022067
:100D0000804901105C54022064610320B06003201C
:100D1000AC600320A860032010B5FFF77BFF10BD77
:100D20000022024B1A60024B1A607047585402208E
:100D30005C540220044B10B51968044B020018687B
:100D4000FFF768FF10BDC0465C54022058540220D3
:100D500010B50CF0C3FB084B1A688018142807D98B
:100D60000021064A196013680133032B01DD11606D
:100D700010BD1360FCE7C046585402205C540220AA
:100D800070B5114D114C124E02F05EFD02F05CFD8B
:100D90002A6823689A42F7D02368F35CFF2BF3D0CC
:100DA0002A6823689A420CD00F222368F05C2368DB
:100DB00040B20133D917090F5B1813405B1A236047
:100DC00070BD01204042FBE7786002207C60022079
:100DD0006860022010B502F037FD074B1968074B19
:100DE0001A68914205D01B68054AD05CC0B240B277
:100DF00010BDFF20FBE7C046786002207C60022027
:100E000068600220F8B5114F05003E68C821701CCB
:100E100005F0C8FB481C0C00C82105F0C3FB0C4BB7
:100E20001B6899420AD09C4208D00A4B1A68AA4211
:100E300005D0094AB60095513C601D60F8BD002000
:100E4000054AB600905126000C00F3E760540220DA
:100E50006454022040600220685402207047C0465B
:100E6000F0B5DE4657464E464546E0B597B005AB71
:100E700098460F000400010018000CF0C5FA032288
:100E8000774906F0CBFE424639000020FFF7C2FE4C
:100E900040460CF023FB060020000CF01FFB152E33
:100EA0004DD8012399466F4B002201936E4B934618
:100EB0000293152383429B419A4602F0C5FC4B46A0
:100EC0005246134099465D4600242022AE4205DD7D
:100ED0003100280005F066FB43465A5C20003900CB
:100EE0000134FFF7BDFD0135152CEED1FFF772FF80
:100EF000013000D17EE0FFF743FF019905000400B7
:100F00000200029808F0DCFD052D00D197E0062DC7
:100F100008D0013561D1CB445B46002B0ADA731E41
:100F20009B46CAE74B46013300D195E001239C461E
:100F30009946E3445E45C0DC00239B46BDE70023A1
:100F40009B4601339A46474B0193474B0293152327
:100F500083429B41039302F077FC5346039A5D461C
:100F600013409A46002300249946B54214DB4B46B1
:100F7000310001334846009305F014FB434620003E
:100F80005A5C01343900FFF76BFD0135152C11D087
:100F9000009B9946B542EADA2800310005F002FBD1
:100FA000434620005A5C01343900FFF759FD0135F2
:100FB000152CDAD1FFF70EFF013020D0FFF7E0FE4D
:100FC0000199050004000200029808F079FD052D42
:100FD0002BD0062D1DD0013514D0424639000020FB
:100FE000FFF718FE200017B0F0BCBB46B246A9467A
:100FF000A046F0BDC82004F0EBFECB448CE7C8202F
:1010000004F0E6FED3445B46013309D1731E9B46D0
:10101000A1E7534601331CD001239C469A46E34482
:10102000B34598DB00239B4695E75346013B5A1E88
:1010300093415A4292465A46D31A9B46E3E74B469F
:10104000013B5A1E93415A4291465A46D31A9B4637
:1010500062E700239A46E3E7002399465CE7C0462F
:101060009C49011014590110A049011000210548A4
:101070000160054801600548016005490A60054AAC
:1010800013607047AC600320B0600320A8600320A9
:101090004C54022048540220F0B5C6460C4D0D4E6B
:1010A00028680D4C3368804600B52768002B09D1AD
:1010B000390001E0286821682022FFF7D1FC33685D
:1010C000002BF7D0434627602B6080BCB846F0BDAC
:1010D000AC600320A8600320B060032070B5002539
:1010E00000242100202228000134FFF7B9FC042C41
:1010F000F7D10135152DF3D1FFF712FE70BDC046B3
:10110000F0B5C64600B502780700002A25D0144E77
:10111000144D05E00137FFF7A3FC3A78002A1CD0F4
:1011200033682C68984621001800092AF2D1202241
:10113000FFF796FC2968A14206D120223068FFF70C
:101140008FFC2968A142F8D04346013733602C60F8
:10115000FFF7FEFB3A78002AE2D180BCB846F0BD2A
:10116000AC600320B0600320F0B557464E464546BC
:10117000DE46E0B587B000236A4600259382574BD0
:10118000574E1F689946574B574C1F60574BBB46ED
:1011900001931B68B0469A4627002E0054490090E0
:1011A0000B603000152105F0FDF930000D00152110
:1011B00005F0F8F94346AD002D18AD005B59BC1998
:1011C00001362370542EECD15346580050443C0055
:1011D000C1005F46091A00206118C8550121454B1E
:1011E000454E19609B46454B454898461F605346FF
:1011F0003360444B01601A00039302231370FFF71E
:101200006DFF220000210020FFF704FD0098FFF78A
:1012100077FFFFF741FF4B4642461B6813600022F1
:101220001500019B1B683360002D07D0029807B0A2
:10123000F0BCBB46B246A946A046F0BD02F004FB96
:10124000FFF7C8FD0130F9D00027FFF799FD012114
:101250002D4B02001F602D4B02901960039B1B78E1
:10126000022B10D0220000210020FFF7D3FC0098B1
:10127000FFF746FFFFF710FF4B4642461B6813601F
:10128000019B1B68CFE7082817D00BDC012821D071
:1012900004280BD109236A46009805A913750CF0A0
:1012A00059F8DFE70D2801D10125DBE76B460098EF
:1012B00005A91A750CF04EF8D4E7009A1378002BA4
:1012C000D0D0924610000CF009F952461318013B99
:1012D0001F70C7E75B4601251F60C3E7AC600320B2
:1012E000646103200C5C0220B85B0220B060032024
:1012F000105C02204C540220545402201C25002073
:1013000048540220F524002050540220205C022082
:10131000F0B54746CE46202380B583B001AF4022CA
:101320003B800023314E0400B3544032B35440326A
:10133000B3544032B3544032B3544032B3544032C9
:101340003370B35403788846002B16D0002506E08E
:101350000135072D44DC63780134002B0DD01A00D1
:10136000093A012AF4D9A8013900301801343B7038
:101370000BF0F0FF2378002BF1D11D4808F01CFB87
:101380001C4B37003500002499462A0021004846AE
:10139000013408F095FB4035082CF6D10A2008F0FE
:1013A000C1FA00243A00210000200134FFF732FC8A
:1013B0004037042CF6D143460F4C9B01F61802F03F
:1013C00043FA41463000FFF74BFDC3B20D2BF6D870
:1013D0008300E3589F4603B0C0BCB946B046F0BD99
:1013E0000649074808F06CFBC7E7C04638430220AF
:1013F000AC490110BC4901101C590110545901108D
:10140000C8490110F8B506001C00012932D0032993
:1014100022D1244B1B68002B32D00A2000F042FD61
:1014200000F03AFD070000F0F9FC050000F0F6FCC2
:10143000002D30D0802815D0FF2817D0069BA61C81
:101440001F6025706070002400F0E8FC3055013406
:10145000AC42F9DB0120F8BD0229E1D1006800F0BF
:1014600021FDF7E700F0F0FC00F00EFDFF2D0BD0A2
:101470000020F0E70B4B196000F00EFD3060E9E74B
:10148000094808F01DFBFEE7084B1868023800F019
:1014900009FD0020DFE7306800F004FDF62040423F
:1014A000D9E7C04684600220DC4901109460032023
:1014B000F0B5CE46474680B59946C5B0431E0400F8
:1014C000904604AE012B4DD9032C35D000F0E4FC3E
:1014D00000F0A4FC070000F0A1FC002F56D08028EB
:1014E00032D0FF2834D000253770707000F096FCA1
:1014F000731901359870AF42F8DC01253378092B58
:10150000E2D17378812BDFD14B46002B02D04A46C3
:10151000B37A13704346002B08D0122108224046AC
:10152000694406F07BFB002342461372280045B055
:10153000C0BCB946B046F0BD174B1B68002B1BD092
:101540000A2000F0AFFCC1E700F07EFC00F09CFC3C
:101550003478FF2F14D00025092CE7D17378812B24
:10156000E4D1D1E702AB0A0000930100330003A8E5
:10157000FFF748FF0125D9E7084808F0A1FAFEE780
:10158000074B1868023800F08DFCE4E7F6250020D0
:1015900000F088FC6D42B1E784600220DC49011054
:1015A00094600320F0B557464E46DE464546E0B50A
:1015B000444C0600A544444C23689A46002B00DCAA
:1015C0007DE0424B039106934AAB9946404B04920F
:1015D0009B46404B059407930123069A0024136011
:1015E00000F05AFC5D4603000321079F0022AA5623
:1015F000099308AB0093C9B24B4609A8FFF702FF55
:10160000099B002858D04A4651783A78914201D037
:101610000421EBE70134A245FAD14A4612781800BA
:101620009046AB46089D00F03DFC00F035FC040000
:10163000280000F037FC43460AA9981C00F0CAFBBA
:10164000200000F02FFC4346002B31D030000BF07F
:1016500045FF002507000AAC06E03378002B0AD0CE
:1016600001350134454523DA3A00310020000BF002
:1016700097FE0028F1D1039B4746984606AB9C464F
:1016800012213A0040466144049D059C06F0C6FACA
:1016900000234246D355534601202F6023608B23FD
:1016A0009B009D44F0BCBB46B246A946A046F0BD97
:1016B00001239C46E2448FE7180000F0F3FB002072
:1016C000EDE7C046D4FDFFFF1C5C022084600220D1
:1016D000C1620320BE620320F0B557464E46454620
:1016E000DE46E0B504000E0017009846C5B000289D
:1016F00050DD0123334A1500136000F0CDFB2B6849
:101700008246002B4ED00A2000F0CCFB002302932F
:101710002D4B019300F0C0FB009000F07FFB814651
:1017200000F07CFB4B46002B46D0802828D0FF28B9
:101730002AD004AB4A469B4600251A70587000F028
:101740006DFB5B465B1901359870A945F7DC009B82
:1017500003935B465A78019B1B789342DAD1029A35
:10176000013202929442D5D1039A504632603B70C6
:101770005B4642461B78136000F094FB01200AE0B0
:1017800000F062FB00F080FB4B46FF2B0ED0504672
:1017900000F088FB002045B0F0BCBB46B246A9462D
:1017A000A046F0BD094808F08BF9FEE7084B186821
:1017B000023800F077FBEAE7504600F073FB04AB19
:1017C0009B46C6E784600220BE620320DC4901100C
:1017D0009460032030B585B000F05EFB6B4602904C
:1017E000991C012000F0F6FA6A46114B0332186882
:1017F00002A903ABFFF770FF029C002804D1200070
:1018000000F050FB05B030BD01AD200000F04AFBF8
:101810002900022000F0DEFA7F236A7820001340BE
:101820006B7000F03FFB2900022000F0ADFAE6E704
:101830001C5C0220F0B585B06B460D4F0D4E3C6828
:10184000DD1D03E02A7833789A4208D0013C2A0053
:10185000200003AB02A9FFF73FFF0028F2D1002CC4
:1018600002D03C6005B0F0BD034800F031FBF8E762
:101870001C5C0220BE620320F4490110F0B585B063
:101880006B460D4F0D4E3C68DD1D03E02A78337822
:101890009A4208D001342A00200003AB02A9FFF7C6
:1018A0001BFF0028F2D1002C02D03C6005B0F0BD37
:1018B000034800F00DFBF8E71C5C0220BE62032029
:1018C000F449011030B585B06A460B4B050007326C
:1018D000186802A903ABFFF7FFFE041E02D1200027
:1018E00005B030BD0298023000F0DCFA2900039800
:1018F00000F070FAF3E7C0461C5C0220014B187040
:101900007047C046BE62032010B5041E02D0034BD0
:101910001C6010BD024800F0DBFAF8E71C5C0220F6
:10192000F4490110F0B5DE4657464E4645460123C0
:10193000E0B5354CC7B0070023608846914600F0FB
:10194000ABFA23680190002B50D00A2000F0AAFACD
:1019500000239B462D4B9A4600F09EFA00F05EFA5B
:10196000050000F05BFA002D49D0802813D0FF2835
:1019700015D0002406AE707000F050FA331901340F
:101980009870AC42F8DB5246737812789B1A5A4230
:1019900053419B44E0E700F057FA00F075FA1C4C05
:1019A000FF2D27D000F078FA0500002000F07AFA29
:1019B00003AB9A4619000A2000F00CFA280000F048
:1019C00071FA53465B7822685B039B1A3B604B4677
:1019D0001A6043465A4601981A6000F063FA47B00D
:1019E000F0BCBB46B246A946A046F0BD094808F087
:1019F00067F8FEE72068023800F054FAD2E7019851
:101A000000F050FA06AEBEE784600220BE620320FA
:101A100094600320DC490110F0B5DE4657464E467F
:101A20004546E0B5714C6F22A54406AB019000918C
:101A300018000021994606F0EBF86D496D4808F052
:101A40003FF86D4808F03CF800206C4B0024185615
:101A500000F086F901226A4B62AE1A6000F01CFAAF
:101A6000684B694F9B4601239A4600239846220003
:101A7000584622A908F024F853464C44903C237061
:101A800000F00AFA00F0CAF9050000F0C7F9002DCD
:101A900000D19EE0802832D0FF2834D00024357059
:101AA000707000F0BBF9331901349870A542F8DC6E
:101AB00001223378092BE3D17378812BE0D102A97D
:101AC000C3238C465B00634419885B88C1201B04D8
:101AD0000B43614640000918C225088861466D0025
:101AE00049190988B47A0904014322912393882172
:101AF00063465B1841461970012AB8D008E000F02F
:101B0000A3F900F0C1F93478FF2D5DD0092C56D02F
:101B1000802502AB9C4690246D423C4F65442100D9
:101B20002A5D3800013407F0CBFFFF2CF7D138488D
:101B300007F0C6FF00249123EA5C002A00D11C00B4
:101B40000133FF2BF8D1002C4BD1324807F0B8FFFE
:101B5000009B002B43D1E3B200932F4D21002800BE
:101B600007F0AEFF0A2007F0DDFE2C4B02A8338001
:101B7000C12384465B00634401990822180006F0E3
:101B80004DF8009B03AAB37205A904A8FFF7CAFE8B
:101B9000039800F087F931000B2000F0F5F82100E0
:101BA000280007F08DFF0A2007F0BCFEA3239B004E
:101BB0009D44F0BCBB46B246A946A046F0BD737832
:101BC000812BA5D100227AE73868023800F06AF943
:101BD0009CE7002000F066F9F622524269E71C00FB
:101BE000BBE721000E4807F06BFFB1E774FDFFFF74
:101BF00064590110044A01100C4A0110C16203200B
:101C000084600220244A011094600320384A0110A5
:101C1000444A0110504A01108C4A01100981FFFF0B
:101C20006C4A011070B505000C0084B0FE2900DD7F
:101C3000FE246E460A4B01AA1B7802A903A8737002
:101C40003470FFF76FFE019800F02CF9694602200E
:101C500000F09AF82900200000F096F804B070BD5A
:101C6000BE620320F0B557464E46DE464546214B40
:101C7000E0B51A682023C3B001AE33801300977A11
:101C80000B33FF2F29D01C4A93461C4A9246002250
:101C900091461B4A90466A46494611725846390099
:101CA0001A785D1C07F00CFF002F0ED000242B5D6E
:101CB000310002A833700BF04DFB295D4046013422
:101CC00007F0FEFEA742F2DCED19504602A907F02C
:101CD000F7FE2F786B1CFF2FDDD10A4807F0F0FECE
:101CE0000A2007F01FFE43B0F0BCBB46B246A9462F
:101CF000A046F0BD14250020A44A0110BC4A0110E2
:101D0000B44A0110C84A0110F0B578240470CC1709
:101D1000E404E40C6118059CDBB2E6B2069CD2B286
:101D2000E5B2079C4571E7B287713F02ED19F027D4
:101D3000FF01BC4624126544E4B2C4716419C37047
:101D400006711B1936029B19827049131202C9B21F
:101D50009B184170C91889B20172090A4172F0BD1D
:101D6000C3B210B5012B03D9044800F0B1F810BD7F
:101D70000022034B1870034B1A60F8E7D84A011091
:101D8000C162032094600320F8B504000F000C4EDC
:101D9000230032680B490C4807F092FE0B4A0C4BAB
:101DA0001278306852B25500AD18AD005B193A0098
:101DB00021005B68984733681B193360F8BDC04643
:101DC000946003206C590110E04A0110C1620320A5
:101DD000F8240020F0B5C64600B5002814DD0C4BF1
:101DE0000C0098460B4F0C4D0E180022BA5628686E
:101DF00053009B1842469B00D358421C2A609847C8
:101E000020700134A642F0D180BCB846F0BDC04677
:101E1000F8240020C162032094600320002110B543
:101E2000064B074A59564B005B189B009A58054BC6
:101E30001868411C1960904710BDC046C16203205C
:101E4000F824002094600320002270B50B4E0C4C47
:101E5000B256206853000B4D9B189B00421C5B59E7
:101E6000226098470022B256206853009B189B00BE
:101E7000421C5B592260984770BDC046C162032076
:101E800094600320F8240020024A13681B18136092
:101E90007047C04694600320014B18687047C046E5
:101EA00094600320014B18607047C0469460032083
:101EB000002110B5044A054B51564A0052189200B1
:101EC0009B189B68984710BDC1620320F82400202E
:101ED00010B5034B0100180007F0F2FD10BDC0461D
:101EE000F84A0110014B1B68185C7047142500204C
:101EF000F0B557464E464546DE468024431EE0B5C3
:101F00005B1815006400020AA21A1B0A9B18FF2224
:101F100016001E400F00711E8E411B0AF61813009A
:101F2000034099460300C5B0934304AA9C469046DB
:101F3000614A40461168924661442200019305F0CF
:101F40006DFEEB1900930027002E4BD05B4BA34690
:101F500002934B465A1C9146009AAA4249D8D94549
:101F600058D04C46BE423DDD80235B00994601E0DF
:101F7000BE4237DD01344C45FAD1514807F0A0FD8F
:101F8000FEF728FCFA20800003F022FF4D4807F0FE
:101F900097FDEFF3108B72B64B4B3D021868019B17
:101FA00022009C4660444146401912F021FC4748FB
:101FB00007F086FD8BF31088FEF718FC444807F005
:101FC0007FFD44A9081B5146019A0B685119C91895
:101FD00001372200091905F021FEBE4202DD02246C
:101FE000BE42C7DC45B0F0BCBB46B246A946A046DF
:101FF000F0BD4246297802986C1CD15407F060FD70
:10200000D94508D0B742EDDA009BAB4240D94B46E8
:1020100025009FE72C002A4807F052FDFEF7DAFB67
:10202000FA20800003F0D4FE264807F049FDEFF3C4
:10203000108972B6244B3A021868019B03929C46A1
:1020400060449446802260444146520012F0D0FB26
:102050001E4807F035FD89F31088FEF7C7FB1C48C2
:1020600007F02EFD019A504694468022039903689A
:102070006144C918013101374046FF31520005F073
:10208000CDFDBE42AEDD009BAB4203D800246BE722
:102090004C4669E7A34201D8012465E7631C9946D1
:1020A000434621780548197007F00AFD01232500F1
:1020B0004C469946A6E7C04614250020084B01105F
:1020C000204B0110304B011010250020484B01100F
:1020D000584B0110802330B5184C89B0226818493C
:1020E0001B03184807F0ECFCFEF774FBFA20800095
:1020F00003F06EFEEFF3108572B6802120680903AD
:1021000012F096FB85F31088FEF770FB0E4B8021D2
:102110009B6A05A80293082301930D3300931822AC
:102120000D3B0903FFF7F0FD0A2105AA0020FFF788
:10213000DFFE064807F0C4FC09B030BD10250020C2
:10214000745901106C4B0110004005408C4B01107C
:1021500010B582B06B46DC1D010023000122A320D4
:1021600002F026FA207802B010BDC046080010B573
:102170001300034A11680200A22002F039FA10BDD0
:102180009460032010B584B001AB1900064A11CA4F
:1021900011C11288A2200A8080220021520202F07E
:1021A00027FA04B010BDC046944B0110802300B53F
:1021B00083B001AA1370793B03405020404218437A
:1021C00050700221782000F043FD03B000BDC046EE
:1021D00010B5102482B0030901AA23438021537053
:1021E0000F2311700340917078207C39D37000F078
:1021F0002FFD02B010BDC046F0B580276F4C85B0F2
:102200002388FA253B439BB223806D4B21881E68AF
:102210000822300089B2FEF7F3F87F23ED00039522
:1022200022883000134023802188082289B2FEF7DB
:10223000E7F80295238808223B439BB2238021883C
:10224000300089B2FEF7DCF8019500F00DFB782034
:1022500000F072FB802000F06FFBAE2000F06CFB02
:10226000802000F069FBD52000F066FB802000F0A4
:1022700063FBA02000F060FB802000F05DFBA82045
:1022800000F05AFB802000F057FB1F2000F054FBA9
:10229000802000F051FBD32000F04EFB802000F0A6
:1022A0004BFB002000F048FB802000F045FBAD20F8
:1022B00000F042FB802000F03FFB8E2000F03CFB52
:1022C000802000F039FBD82000F036FB802000F0A1
:1022D00033FB052000F030FB802000F02DFBA12017
:1022E00000F02AFB802000F027FBC82000F024FB30
:1022F000802000F021FBDA2000F01EFB802000F09F
:102300001BFB122000F018FB802000F015FB912031
:1023100000F012FB802000F00FFB3F2000F00CFBD0
:10232000802000F009FB3F2000F006FB802000F039
:1023300003FB3F2000F000FB802000F0FDFA3F206F
:1023400000F0FAFA802000F0F7FA812000F0F4FAA9
:10235000802000F0F1FA1B4B187800F0EDFA802095
:1023600000F0EAFAD92000F0E7FA802000F0E4FA61
:10237000D22000F0E1FA802000F0DEFADB2000F04D
:10238000DBFA802000F0D8FA342000F0D5FA802063
:1023900000F0D2FAA62000F0CFFA802000F0CCFAAC
:1023A000A42000F0C9FA802000F0C6FAAF2000F0A7
:1023B000C3FA00F087FA05B0F0BDC046B66203204C
:1023C0009C570110182500208023F0B54746CE46C3
:1023D0009946D03B0025984680B5174F83B001AE93
:1023E0004B46337043462B437370320002217820F2
:1023F00000F02EFC320004217820019700F028FC28
:1024000000F032FA782000F097FA402000F094FAB9
:102410008424013C0020E4B200F08EFA002CF8D1B4
:102420000135EDB200F04EFA042DD9D103B0C0BC95
:10243000B946B046F0BDC04680108000204BF0B5D4
:102440004746CE469946002380B55027002598463A
:10245000802683B001AC7F424B4642465B191A701E
:10246000EB113B432200022178206370267000F0BC
:10247000EFFB7F2310212B401A090A4362700F22C1
:102480001340E3702200042178202670A67000F02B
:10249000DFFB00F0E9F9782000F04EFA402000F070
:1024A0004BFA002000F048FA00F00CFA80230135C6
:1024B000DB009D42D0D103B0C0BCB946B046F0BDF0
:1024C000B0570220F0B54E464546DE465746E0B5C9
:1024D0000C000500160083B07F2801D81F2906D9FB
:1024E00003B0F0BCBB46B246A946A046F0BD7F276C
:1024F00007223B1A9A46CB1713405B18DB105B424E
:1025000003339946802390464A469B4601AF3B7071
:10251000D03B13437B703A000221782000F098FBF7
:1025200053465A4610210433DBB23A701A090A4363
:102530007A705A46BA70713A1340FB703A0004211F
:10254000782000F085FB00F08FF9782000F0F4F996
:10255000402000F0F1F94B46DB0153441F00154BBE
:102560009A46DB5D9946002E1CD0012E10D0F2B2A7
:102570002100280001F0F2FF4846FEF7C7F9C0B27B
:1025800000F0DAF953464A46DA5500F09BF9A7E71E
:102590004346320023409A4013004A461A43D3B2BE
:1025A0009946E4E74346012223409A404B46934331
:1025B0009946DCE7B0570220F8B5744B1B68002B36
:1025C00000D1F8BD03F00AFD04000D0026002F0025
:1025D0006F4B18685968361A8F4130006D4E72681B
:1025E000BA4239D26C4A00211C605D606B4B1160AD
:1025F0001A6851424A411A60694A1B681568694A5B
:102600001068694A1168002B30D0002D73D1830007
:10261000664A5B189B009B58654C9A00D218654B24
:102620009D182E001C192643B60700D096E0624E76
:10263000B61A022E00D891E02E68604A32435C4EF2
:102640009A55160A66701602360E120EA670E270C1
:1026500080242A79224349E0BA4202D13268824278
:10266000C0D34D4A11680029ABD0BCE783004F4A64
:102670005B189B009A584F4B9400A4181E19002D0C
:102680001BD037004A4D5D192F43BF0738D14A4F41
:102690003F1B022F34D93768484C3C43444FDC552C
:1026A000270A6F7027023F0E240EAF70EC70802552
:1026B00034792C43424D5C551FE03D4A9D18320051
:1026C0002A43920733D13C4A121B022A2FD934687D
:1026D0003A4A2243364C1A55140A6C701402240EDE
:1026E000AC708024120EEA7032792243344C1A55B1
:1026F0000222FF3201E080225200FEF74DFA60E72D
:1027000080251E5D6D422A4F2E43DE551C196678CA
:102710002C4F2E43DE55A6782B4F2E43DE55E67800
:1027200001372E43DE5524792C43E4B2C2E78022E0
:102730001D5D52421E4E15439D551C196578214E54
:1027400015439D55A578204E15439D55E5780136D6
:1027500015439D5524792243D2B2C7E780259C5C5E
:102760006D42134E2C439C559C186278154E2A439B
:102770009A55A278144E2A439A55E27801362A4394
:102780009A5522792A43D2B2B0E7C0464C5402206F
:10279000B041022020250020205C0220505402205D
:1027A000485402201C250020545402206461032058
:1027B00005050000E01800200405000080808080EE
:1027C00009050000060500000705000070B51D4E54
:1027D0001D4D04003068296883001C4A5B189B006B
:1027E0009A58FEF7D9F90022194B1A60052C23D00C
:1027F0000CDD062C1AD0422C04D1164A136859421B
:102800004B4113600122144B1A6070BD032C07D09A
:10281000042CF7D12B68022BF4DC01332B60F1E799
:102820002B68002BEEDD013B2B60EBE73368132BAD
:10283000E8DC01333360E5E73368002BE2DD013B80
:102840003360DFE71C25002054540220646103201C
:102850005054022048540220205C0220014B186092
:102860007047C04628250020144B82B01A68012307
:102870009340D02212065362936100230193019B7F
:10288000022B05DC019B01330193019B022BF9DD37
:102890000B4B1A6801239340D022120653629361B6
:1028A00000230093009B022B05DC009B0133009367
:1028B000009B022BF9DD02B07047C046A8570110FB
:1028C000A457011001221A4B84B01B689A40D023F0
:1028D0001B065A629A6100230393039B022B05DCBB
:1028E000039B01330393039B022BF9DD114B196802
:1028F00001238B40D02109068B6200230293029BA7
:10290000022B05DC029B01330293029B022BF9DDB3
:10291000D0231B069A6200230193019B022B05DC46
:10292000019B01330193019B022BF9DD04B0704739
:10293000A8570110A457011070B501263100304B83
:10294000D0221B68082499402E4B00251B6886B0B6
:102950009E40120643B2002B50DB566296610395EF
:10296000039B022B05DC039B01330393039B022B88
:10297000F9DD91620295029B022B05DC029B01337B
:102980000293029B022BF9DD516291610195019B3B
:10299000022B05DC019B01330193019B022BF9DD26
:1029A0004000013CC0B2002CD4D1D0231B069E6253
:1029B00099620494049B022B05DC049B013304936D
:1029C000049B022BF9DDD0231B065A6801203242FA
:1029D00003D05868304043425841D0231B06596207
:1029E000996100230593059B022B05DC059B0133B0
:1029F0000593059B022BF9DD06B070BD9662AEE72C
:102A0000A4570110A8570110F0B5C6468046012012
:102A10000600334B8C461B68D0219E40314B082565
:102A20001B6800229840002400B5090686B08E621B
:102A30000394039B022B05DC039B01330393039B4D
:102A4000022BF9DD88620294029B022B05DC029BBB
:102A500001330293029B022BF9DD4B685200334095
:102A60005F1EBB414862886101949A18019B022B4A
:102A700005DC019B01330193019B022BF9DD013D34
:102A8000002DD5D16346002B26D0D0231B065E62D5
:102A90009E61D0231B06986200230593059B022BA1
:102AA00005DC059B01330593059B022BF9DDD02343
:102AB0001B065862986100230493049B022B05DCDB
:102AC000049B01330493049B022BF9DD43461A70E7
:102AD00006B080BCB846F0BDD0231B069E62D8E786
:102AE000A8570110A4570110F0B557464E46454669
:102AF000DE46E0B50126544B89B01B680D009E40B0
:102B0000D0231B065E629E6100230093009B17008A
:102B1000022B05DC009B01330093009B022BF9DDA7
:102B200001224A4B1B689A40D0231B065A629A61C5
:102B300000230193019B9146022B05DC019B01338D
:102B40000193019B022BF9DDFFF7F6FE804600287A
:102B500047D0002D11DD6B1E9B4604AB00249A4626
:102B60005B46191B4B1E99415046FFF74DFF5346DC
:102B70001B783B550134A542F2D1D0231B065E627F
:102B80009E6100230593059B022B05DC059B013309
:102B90000593059B022BF9DDD0234A461B069A625A
:102BA00000230693069B022B05DC069B013306934C
:102BB000069B022BF9DDD0231B069E6200230793A0
:102BC000079B022B05DC079B01330793079B022B16
:102BD000F9DD404609B0F0BCBB46B246A946A04666
:102BE000F0BDD0231B065E629E610290029B022B09
:102BF00005DC029B01330293029B022BF9DDD023FB
:102C00004A461B069A6200230393039B022B05DCB2
:102C1000039B01330393039B022BF9DDD0231B0697
:102C20009E6200230493049B022BD2DC049B01339D
:102C30000493049B022BCCDC049B01330493049B80
:102C4000022BF3DDC5E7C046A8570110A4570110B9
:102C5000F0B501252F4B87B01B680F009D40D02396
:102C60001B065D629D6100230193019B1400022BF2
:102C700005DC019B01330193019B022BF9DD012649
:102C8000254B1B689E40D0231B065E629E6100237D
:102C90000293029B022B05DC029B01330293029BF1
:102CA000022BF9DDFFF748FE002F06DDE71920783B
:102CB0000134FFF741FEA742F9D1D0231B065D6224
:102CC0009D6100230393039B022B05DC039B0133CF
:102CD0000393039B022BF9DDD0231B069E62002386
:102CE0000493049B022B05DC049B01330493049B97
:102CF000022BF9DDD0231B069D6200230593059B63
:102D0000022B05DC059B01330593059B022BF9DDA6
:102D100007B0F0BDA8570110A45701107047C04676
:102D20000120034A13681968024B1160186070474C
:102D300080260020606002200122034B1A60034BB2
:102D4000034A1A607047C046606002208026002057
:102D5000D42500200122034B1A60034B034A1A605A
:102D60007047C04660600220802600205C2500205D
:102D70000122034B1A60034B034A1A607047C04696
:102D800060600220802600202C25002000B5002352
:102D900091B0002200210020FEF768F90948FEF7F3
:102DA000AFF96846084B1E211A6800921B79002271
:102DB00003710023FEF7D8F90122044B1A6011B009
:102DC00000BDC046A04B0110AC4B0110606002205A
:102DD00000B591B00923092268460A4906F078FB3C
:102DE0000023002200210020FEF740F96846FEF78C
:102DF00087F9FEF751F9FDF7C3FF0122024B1A6074
:102E000011B000BDB44B01106060022010B5FEF798
:102E100065F90023002200210020FEF727F906486B
:102E2000FEF76EF9FFF744F80120044A13681968A9
:102E3000034B1160186010BDCC4B011080260020A0
:102E40006060022070B501240F4D21002868FEF754
:102E50005FFA0300032804D0042806D0012BF4D124
:102E600070BD002CF1D0013CEFE7022C03DC0134F3
:102E7000EBE70428F2D121002868FEF749FA0300A5
:102E80000328F6D1EFE7C0467C260020F0B5DE46E9
:102E90004E46574645460023E0B5CDB004AD2B70F5
:102EA000FEF71CF9584B00211A0000209B46FDF745
:102EB00033FF2800FDF73EFF002201239246534ACC
:102EC000534E9146534A33700192012B2FD0022B5F
:102ED00000D184E0032B00D0FEE703AB98460CAF93
:102EE0009020FEF70BFD424639002800FEF75AFB02
:102EF000041E53D04C4648492268484806F0E0FD7D
:102F0000FEF7ECF85A4600210020FDF705FF514678
:102F10003800FEF7FDF9C3B20D2B05D8404B8000F9
:102F20001B589F46FEF756FC3378012BCFD1002368
:102F3000002240212800FEF717F901283CD00D2877
:102F4000F2D10223337003AB9846304C0CAF1DE036
:102F5000FEF794FC3378B8E752465446022100202D
:102F6000D20FA142424133789244AEE752465146D5
:102F7000D217521AD20F8A1A92463378A5E72B78C5
:102F8000002B33D000232B7002333370254806F01A
:102F900097FD0123236002333370A1E7019806F007
:102FA0008FFD0123002233704021002328002C7064
:102FB000FEF7DAF80128C2D12B78002B14D00023B9
:102FC0002B70FEF78BF85A4600210020FDF7A4FE77
:102FD0002A0000210520FDF79FFE337875E703AB3B
:102FE0004C4698460CAFD1E70F4B186000230022E7
:102FF00000210020FEF73AF84DB0F0BCBB46B246C7
:10300000A946A046F0BDC046DC4B01101C5C022066
:10301000C0620320144C0110E05A0110FC4B011057
:103020008C590110E44B01106060022010B50B4870
:1030300006F046FD32240420FDF7C8F9012002F015
:10304000C7FE0420FDF7D0F9013C012002F0C0FECC
:10305000002CF0D1024806F033FD10BD284C0110C1
:10306000304C01107047C0467047C0467047C0469C
:103070007047C04610B5FEF731F800210020124A13
:10308000FDF7C8FD01210020104AFDF7C3FD012313
:103090000F4C236001200021404207F071F8FFF738
:1030A0008BFA01F051F9FDF795FE0130F2D0FDF7F2
:1030B00067FE012802D0FFF789FBEBE700232360BE
:1030C000044B186010BDC0463C4C0110504C011020
:1030D0004C5402206060022030B589B0FDF7FEFF3D
:1030E00000210020154AFDF717FE154D0120002193
:1030F000404207F045F8FFF75FFA01F025F9FDF7C8
:1031000069FE0130F2D0FDF73BFE0400020003002F
:103110002900009003A806F0DBF9E0B2FDF79EFE5F
:10312000FDF770FE0121002003AAFDF773FD012CBD
:10313000DCD1044B1C6009B030BDC046604C0110AE
:10314000704C01106060022070B5094806F0B8FCB0
:1031500001221500074BD0241B68FA209D4024064D
:10316000054BA56140001A6002F032FEA56170BDFA
:10317000844C011098570110BC60032030B589B011
:1031800000236C462370FDF7A9FF1E4D00202A0086
:103190000021FDF7C1FD6846FDF7CCFD01200021AF
:1031A000404206F0EDFFFFF707FA01F0CDF80023EB
:1031B000002240212000FDF7D7FF01281AD00D285A
:1031C000ECD19020FEF79AFB20000AF087F901006D
:1031D0002000FEF727FD00232370FDF77FFF2A0064
:1031E00000210020FDF798FD220000210520FDF7B9
:1031F00093FDD3E72378002BEDD1034B186009B082
:1032000030BDC046944C011060600220F0B5DE462F
:10321000454657464E46E0B583B0FFF70FF9002507
:1032200000242000012229000134FFF74BF9792CFA
:10323000F7D10A35282DF3D10025002421000122E1
:1032400028000134FFF73EF91F2CF7D10A35822DF3
:10325000F3D1FA20C00002F0BBFDFFF7EFF8002326
:103260009B46009301339A46023B01229846019304
:103270005B467D4E9D259146B3461F007B4C6D00FD
:10328000380000220099FFF71DF9019F50463900D0
:103290000022FFF717F9494650460022FFF712F9BE
:1032A000390040460022FFF70DF9AB4400224946A1
:1032B0004046FFF707F96421584603F073F93619C1
:1032C00007006421300003F06DF9804601000122FF
:1032D0003800FFF7F7F843467A1C92460093013B0B
:1032E0001900012250460193FFF7ECF8009A50466E
:1032F0000132914601224946FFF7E4F87A1E9046D2
:10330000019901224046FFF7DDF801224946404677
:10331000FFF7D8F8564B9B453EDDE804401B800084
:10332000401BC00040198001401B8000401B5149D8
:1033300003F038F9C82305001B019E4256DDE00466
:10334000001B8000001BC00000190001001BC00012
:1033500000194849400003F025F9454BC8260400F0
:103360009B46360101200021404206F009FFFFF78D
:1033700023F900F0E9FFFDF72DFD013080D0FDF7C6
:10338000FFFC012865D006285FD005285FD0032800
:1033900000D075E7643473E7C8231B019E423DDD0E
:1033A000E004001B8000001BC00000190001001B8E
:1033B000C00000192F49400003F0F4F896260400DD
:1033C0007600B3454CDAE804401B8000401BC00087
:1033D00040194001401B800040192649400003F07D
:1033E000E1F8B346C82605003601BBE7204B9B46F3
:1033F00096235B009E42B5DAE004001B8000001BB0
:10340000C00000190001001BC0000019194940004C
:1034100003F0C8F8962604007600A3E796235B0025
:103420009B45E5DAE804401B8000401BC0004019C2
:103430004001401B800040190E49400003F0B2F8E3
:1034400096235B0005009B46D2E7643518E7643D90
:1034500016E703B0F0BCBB46B246A946A046F0BD95
:10346000C82636017EE7C0468813000041020000EE
:10347000D430000010270000F0B5DE464546574620
:103480004E46E0B5C94893B006F01AFB0A2006F094
:1034900049FAC74806F014FB0A2006F043FAC5486B
:1034A00006F00EFBC44806F00BFBC44806F008FB10
:1034B000C34806F005FBC34CFEF7C0FFC24B0E939A
:1034C0000F94002398460023C04C0A930B940023CA
:1034D000BF4C089309940523BE4C9B46BE4B0C93EE
:1034E0000D94002401200021404206F049FEFFF720
:1034F00063F800F029FF0A980B990022002303F0DB
:10350000C9FA0B00020006920793049205935B46EA
:10351000002B00DCA4E000239A464346109411934C
:10352000AE4B00220C980D9903F0DBFA0023002427
:103530009946984600232500009301941C000290B0
:1035400003910698079922002B0003F0A3FA049A2E
:10355000059B04000D000098019903F09BFA0600FA
:103560000F002000290003F0EBFB009001913000D8
:10357000390003F0E5FB02000B000098019903F00D
:1035800089FA009001912000290003F0C3FB040098
:103590000D003000390003F0BDFB02000B002000DD
:1035A000290003F077FA002204000D000098019929
:1035B0008B4B03F096FA089E099F32003B0003F004
:1035C00090FA32003B0003F065FA03F019FB002289
:1035D0000700834B2000290003F083FA0022814B6F
:1035E00003F07FFA00227F4B03F054FA03F008FB4C
:1035F0000600484603F0ECFA029A039B03F0D2FA65
:1036000002003100531E9A41380001F049FE0123A7
:103610009C46E044D144D84593D1E2445346642BC0
:103620001BD0504603F0D4FA0A9E0B9F02000B00F9
:1036300004000D003000390003F02CFA6A4A0690AD
:1036400007916A4B2000290003F04BFA32003B003F
:1036500003F020FA0490059162E7119B109C9846B4
:1036600001F030FE0E9A0F9B0A980B9903F012FAA4
:103670005F4A604B0A900B9103F094FA002807D040
:103680000A980B995A4A5B4B03F0FBF90A900B918D
:10369000FDF7A0FB013009D0FDF772FB012815D022
:1036A00006280AD0052832D0032816D14346002B1D
:1036B00000D117E7FEF7C2FE14E708980999020047
:1036C0000B0003F0E7F908900991EFE713B0F0BCA5
:1036D000BB46B246A946A046F0BD4E2804D1464896
:1036E00006F0EEF90024E1E748283AD0542833D018
:1036F0002B283BD1012C21D00123022C10D09C4639
:10370000E34459463D4806F0DBF90024CEE708982B
:1037100009990022324B03F0E4F908900991C5E7BA
:10372000374A384B0C980D9903F0B4F902000B009E
:1037300035480C920D9306F0C3F9B7E70E980F9930
:103740002F4A324B03F0A6F90A9A0B9B0E900F9169
:103750002F4806F0B5F9A9E72E4806F0B1F9012483
:10376000A4E72D4806F0ACF902249FE72D2806D1E6
:10377000012C55D0022C12D001235B42BFE7202838
:1037800004D1424601235A4090468FE7492800D091
:103790008CE732003900214806F092F986E7184A92
:1037A000184B0C980D9903F06CF9BFE79C4C011075
:1037B000BC4C0110E04C0110204D0110404D011097
:1037C000584D01109999993F9A9999990000344060
:1037D000000050406666E63F6666666600407F40D1
:1037E0000000E03F000030409A4B235291630540B7
:1037F000F4D64354FB2119407C4D0110A04D01101B
:103800007B14AE47E17A943FB04D0110E17A743FEA
:10381000A84D0110944D0110884D0110B84D0110B4
:103820000E980F99054A064B03F02BF90A9A0B9B49
:103830000E900F91034806F043F937E77B14AE472B
:10384000E17A743FA84D0110012010B500214042DB
:1038500006F096FCFEF7B0FE00F076FD10BDC04607
:10386000F0B5C646274F00B53B68002B23D1FDF7C6
:10387000B1FA013002D180BCB846F0BDFDF780FA44
:10388000214B1C68237B262BF5D022000021183207
:1038900006E00C3213000C3B1B780131262BEAD0DA
:1038A0008342F6D14B005B189B00E418636998478C
:1038B00001233B60DFE700233B60FDF70FFC124D67
:1038C0002A68137B262B1AD0104B0024002198461F
:1038D00009198E0092191069FDF73AFA2B68013424
:1038E0009B191869FDF726FA4046FDF723FA610097
:1038F0002A680B199B00D3181B7B262BE8D19368F1
:103900009847B4E76060022080260020B04A01108A
:103910000022044B1A60044B01321A60034B044A24
:103920001A6070475C6002206060022080260020E0
:103930001026002010B5FFF793FF10BD70B594B0AE
:10394000160005000C00FDF7C9FB002E17D00D4B2B
:103950002A001D001900684605F0BAFD6A460021DC
:103960000020FDF7D9F922002900684605F0B0FDD6
:103970006A4601210020FDF7CFF914B070BD024B5B
:10398000E6E7C046C84D0110D04D0110F0B595B026
:10399000FDF7A4FB3A4C00222100684605F098FD93
:1039A0006A4600210020FDF7B7F900272100012514
:1039B00000240022684605F08BFD6A4601210020A4
:1039C000FDF7AAF92F4E01200021404206F0D8FB56
:1039D000FEF7F2FD00F0B8FCFDF7FCF90130F2D083
:1039E000FDF7CEF9C3B2462B04D88300F3589F46A7
:1039F00001235D402A0039002000FFF79FFFE2E726
:103A0000002D0DD03F01303803E0002D0DD03F01D7
:103A10003738C719012239002000FFF78FFFD2E79E
:103A2000BB00DB195B003038C718002239002000CA
:103A3000FFF784FFC7E7E71B2A0039000020FFF7E4
:103A40007DFF0024BFE73900200002F0ABFD070036
:103A5000F2E700220C4B39001A6020002A00FFF721
:103A60006DFF15B0F0BD6743E6E73F19E4E73800A6
:103A70002A0000213C00FFF761FF0027A3E7C046B2
:103A8000C84D0110C45901104C5402200022014BB2
:103A90001A60704790600320014B024A1A60704719
:103AA00090600320000018107047C046064B1B684A
:103AB00019003039392B01DD573B1900034A1368CF
:103AC0001B010B43136070473C6002209060032091
:103AD0000122014B1A607047306002200021002053
:103AE00010B502F049FCC0460021002010B502F0DC
:103AF00043FCC04610B5FEF7B5F810BD70B50E4DCD
:103B0000C0B02B68002B14DD00240C4E22003100C5
:103B1000684605F0DDFC9020FDF7F0FE684609F0F0
:103B2000DDFC01006846FEF77DF82B680134A342F6
:103B3000ECDC40B070BDC04690600320F84E011030
:103B400010B5034B0100180005F0BAFF10BDC046C8
:103B5000004F011070B50A2005F0E4FE074C084D37
:103B60002600FC366268216828000C3405F0A8FFA6
:103B7000B442F7D10A2005F0D5FE70BD842600209E
:103B8000144F011070B50A2005F0CCFE0B4C0C4E02
:103B900025009935FF35626813782A2B03D0300051
:103BA000217805F08DFF0C34AC42F4D1054805F0C6
:103BB00087FF0A2005F0B6FE70BDC04680270020B2
:103BC000204F01102C4F0110F0B5DE4657464E46EF
:103BD0004546E0B50A2093B005F0A4FE002304AEEC
:103BE00033708023244F9B003C68E3189C4239D2F9
:103BF000224B9946224B9846224B9B46224B0193DF
:103C0000224B9A4610E051462A0002A805F060FCBB
:103C100002A9300009F09EFB8022920094463B6886
:103C200001346344A3421DD90F231D0025402342C4
:103C30000ED025784846290005F042FF4346682209
:103C40005B5D9343DFD12E2302AA11001380E0E7CE
:103C50003100584605F034FF21000198357005F019
:103C60002FFFE6E70A2005F05DFE13B0F0BCBB466F
:103C7000B246A946A046F0BD90600320B44A0110A8
:103C800035690110504F0110584F0110604F01105D
:103C900010B5034B034A1A60FFF796FF10BDC046EC
:103CA000906003200000181010B5044805F008FFCC
:103CB000FEF7FEF8024805F003FF10BD644F011047
:103CC000444A0110002110B5034B0448595605F031
:103CD000F7FEFEF7EDF810BDC1620320744F01102E
:103CE000002170B5214D8CB069562148413105F055
:103CF000E7FE03AA02A901A8FDF714FE039A0199A1
:103D00001C4805F0DDFE6B460021DC1C23006956D3
:103D100004AA0120FDF7CCFB0021230003206956F3
:103D200004AAFDF7C5FB002817D0134E2078FDF735
:103D3000E5FD03AA02A901A8FDF7F4FD029B227884
:103D400004A9300005F0BCFE0021230004206956C0
:103D500004AAFDF7ADFB0028E8D100212300695635
:103D600004AA0220FDF7A4FB0CB070BDC1620320C1
:103D7000844F0110984F0110C04F011010B5FFF78C
:103D8000AFFF10BD70B51B211D4805F099FE1D4801
:103D900005F012FE1B211C4805F092FE1B4C1C4D29
:103DA000236828005A425341236005F089FE0A2007
:103DB00005F0B8FD2368002B1FD01649164805F002
:103DC0007FFE0A2005F0AEFD144805F079FE144888
:103DD00005F076FE134805F073FE134805F070FEFB
:103DE000124805F06DFE0A2005F09CFD280005F044
:103DF00067FE0A2005F096FD70BD0D49DEE7C0465E
:103E000024490110E84F0110F44F011048610320CC
:103E1000FC4F0110DC4F01102850011040500110E0
:103E2000545001106450011078500110905001104E
:103E3000E04F011070B51B211F4805F041FE1F48DF
:103E400005F0BAFD1B211E4805F03AFE1D4C1E4D23
:103E5000236828005A4253411C4A23601368594280
:103E60004B41136005F02CFE0A2005F05BFD236832
:103E7000002B1FD01649174805F022FE0A2005F036
:103E800051FD154805F01CFE144805F019FE1448B4
:103E900005F016FE134805F013FE134805F010FE5A
:103EA0000A2005F03FFD280005F00AFE0A2005F073
:103EB00039FD70BD0D49DEE724490110E84F0110BE
:103EC000A850011048610320FC4F011044610320F9
:103ED000DC4F0110285001104050011054500110C7
:103EE000645001107850011090500110E04F011003
:103EF00010B590210148FDF78FFD10BDB4500110A1
:103F000010B500240A2005F00DFD074B1C57FDF7E6
:103F1000C3FF064B02002100180005F0D1FD0A2066
:103F200005F000FD10BDC046C1620320BC50011069
:103F3000F0B5C64600B51F4B84B019681E4805F0A1
:103F4000BFFD1E4B1E48196805F0BAFD1D4B1E48EB
:103F5000196805F0B5FD012008F044FC1B4B010079
:103F6000180005F0ADFD1A4D00212A686B6819484C
:103F700005F0A6FD184B01249846AA68EB6803CD0E
:103F800016001F00361A8F4130003900029003914D
:103F9000611E0191009421004046013405F090FD1E
:103FA000072CEAD10A2005F0BDFC04B080BCB8465D
:103FB000F0BDC04614250020DC5001103C54022006
:103FC000F4500110946003200C510110185101109D
:103FD000804502202C5101104051011010B50420E1
:103FE000FCF710FF10BDC04600B587B001AA09F06C
:103FF00005F9002101A8FDF70FFD07B000BDC0467F
:1040000000B5C3B002AB01AA0A4909F0F7F8019A5A
:1040100002A9094805F054FD0198C0B2FDF76EFCF5
:1040200002A809F05BFA010002A8FDF7FBFD43B00E
:1040300000BDC046685101107851011000B583B031
:1040400001AA09F0DBF80198C0B2FDF757FC03B0F4
:1040500000BDC04610B5044B0448196805F030FD9A
:10406000FDF7B8FB10BDC0461C5C02209851011042
:1040700000B5C3B06A4601AB074909F0BFF8074B6A
:1040800007481A78074B196805F01AFD02A8FDF7D2
:1040900019FC43B000BDC046A4510110BE6203200C
:1040A000AC5101101C5C022010B5FDF7E7FB10BD00
:1040B00070B5D2B000236A46137202AA09F09EF8C6
:1040C0000B4E0C4D0AE03468FDF7E6FE21000200BD
:1040D00012AB280005F0F4FCFDF7D0FB01AA12A9F1
:1040E00002A8FDF75FFA0028EDD152B070BDC046BE
:1040F0001C5C0220D051011000B583B001AA09F068
:104100007DF8019840B2FDF72BFE0021034B0448D7
:10411000595605F0D5FC03B000BDC046C16203206E
:10412000E451011000B583B001AA09F067F80198C5
:10413000FDF7EAFB03B000BD10B5FDF77BFB10BD3A
:10414000002310B50B2488B0059301330693133375
:10415000079306AB05AA009307AB09F04FF8079841
:104160006C44C0B22070FDF7C9FB059840B2FDF762
:10417000F7FD2200069804AB03A9FDF7ADFA00286D
:1041800013D007990B4805F09BFC03990A4805F0EA
:1041900097FC0499094805F093FC0021084B094855
:1041A000595605F08DFC08B010BD074805F088FC95
:1041B000F9E7C046F45101100452011014520110E5
:1041C000C1620320E4510110245201107047C0461F
:1041D000394BF0B5DE469B4657464E4645460023D2
:1041E0005A46E0B589B01360344B354F9A46354B8B
:1041F000354C0493354B0593354B0393354B99461A
:1042000007AB98463B005F469B4648465346059998
:1042100000680978049A49B21B681278413100900D
:10422000039805F04DFC434620221A80002323709A
:10423000642005F02BFB0500831CF9D00D2D10D058
:104240001B2D0ED0280005F06DFB200009F046F96B
:104250008028EDD04346414620181D7009F036F9FC
:10426000E6E75E460025029703E001350C36152D82
:104270001DD03768380009F031F9210002003800FC
:1042800009F08EF80028F0D16B005B199B00029FAB
:104290005B44596820009B6898473B68002BB4D06A
:1042A00009B0F0BCBB46B246A946A046F0BD029F8D
:1042B0003B68002BA9D0F3E7306002201C5C022091
:1042C00084260020BE620320C0600320C162032058
:1042D000385201109460032030B5174883B005F0C0
:1042E0006BFB164805F0ECFB20236A469380002305
:1042F000134D2B70642005F0C9FA0400831CF9D01B
:104300000D2C10D01B2C0ED0200005F00BFB28002C
:1043100009F0E4F88028EDD06B46281801A91C713B
:1043200009F0D4F8E6E700212800FDF775FB054801
:1043300005F0C6FB03B030BD585201106C5201109D
:10434000C0600320444A011070B5694D00202C68FC
:10435000002C1AD005F09AFA0400831C14D0654E84
:104360003368012B40D0022B2BD0002B0CD11B2803
:104370005BD0614D44B22C70013405D0FFF764FA74
:104380000023EB560133F9D170BD05F07FFA831C91
:10439000FAD05A490B0003E001340C33222CF3D03D
:1043A0001A788242F8D1564B186063001B199B00A3
:1043B000C9188B689847534B5348196805F080FB20
:1043C000E2E7432868D019DC412851D042282FD198
:1043D0000423494D2B70FFF737FA0023EB560133C6
:1043E000F9D100233360CFE76D284BD012DC1B28B6
:1043F00072D05B285AD102233360C5E7442817D115
:1044000005233D4D2B70FFF71FFA0023EB560133B8
:10441000F9D1E6E76F2849D1374D2B70FFF714FA31
:104420000023EB560133F9D1DBE701333360ABE70F
:104430000023314D2B70013305D0FFF705FA00231F
:10444000EB560133F9D100232B70013305D0FFF770
:10445000FBF90023EB560133F9D164B22C7001341F
:10446000BFD0FFF7F1F90023EB560133F9D1B8E7DC
:104470000323214D2B70FFF7E7F90023EB5601339F
:10448000F9D1AEE702231C4D2B70FFF7DDF90023B5
:10449000EB560133F9D1A4E70623174D2B70FFF734
:1044A000D3F90023EB560133F9D19AE70023124DDB
:1044B0002B70013305D0FFF7C7F90023EB5601330A
:1044C000F9D164B22C7001348BD0FFF7BDF9002311
:1044D000EB560133F9D184E700231B210B482B60F5
:1044E000336005F0EDFA0A4805F0EAFA4CE7C046F9
:1044F0004861032054610320F42400208027002019
:104500003C600220906003209C52011080520110F8
:1045100088520110F0B50D4C060024680D001700FC
:1045200083B0002C01D103B0F0BD1B21084805F079
:10453000C7FA1B21B31CAA1C0097064805F0C0FA55
:104540001B21054805F0BCFAEDE7C0464861032091
:1045500010490110A85201102049011070B5104BEC
:1045600006001B680D00140082B0002B01D102B0C0
:1045700070BD1B2163425C410A4805F0A1FA1F236C
:1045800064429C43403433001B21EA1D00940648DA
:1045900005F096FA1B21054805F092FAE7E7C046B8
:1045A0004861032010490110A85201102049011050
:1045B000F0B5040083B00D4816001F000D0005F093
:1045C0007FFA0F20FEF74AF9FE206B46204001AA31
:1045D00002216DBA9D80FEF73BFB01231C433A008C
:1045E0003100E0B2FEF780FA03B0F0BDB85401101C
:1045F000F8B5070012480E0015001C0005F060FA1F
:104600000F20FEF72BF9FEF72FF9FE203840FEF7BA
:1046100093F93012C0B2FEF78FF9F0B2FEF78CF9C1
:10462000002D06DD651920780134FEF785F9AC42CE
:10463000F9D1FEF747F9042001F0CAFBF8BDC046E6
:10464000B8540110F0B54546DE4657464E46E0B533
:104650000400884685B0002A4AD12368002B00D088
:104660009847A369002B3CD0234B04349B46234B33
:104670009A46234B9946234B039307E0022B01D123
:1046800063699847E36A1834002B2AD0E06808F081
:1046900025FF5346276866680193A3683200C31854
:1046A00002333900009305005B464046FCF75CF896
:1046B000E3683200009339004B464046FCF754F85B
:1046C000237C012BDAD16369E9191B68320000935E
:1046D0004046039B02311834FCF746F86369002B0F
:1046E000D4D105B0F0BCBB46B246A946A046F0BD49
:1046F0000800FCF767F8B0E7D0540110944F0110A0
:10470000D454011008510110F0B5C64600B588B068
:104710008C4602A998460B000E4C170024CC24C3EB
:104720001D000D4C45CC45C3227860461A700B4BDA
:104730000722019303F072FA29000C22380003F0DB
:104740006DFA0322404601A903F068FA08B080BC64
:10475000B846F0BDD8540110E0540110312E30009D
:10476000074B10B51B7804000120002B00D110BDB1
:1047700000233A220221200006F0B2FF0020F6E7D3
:10478000BD62032080235B000B60DB181380704741
:10479000002B01D0002A01D001207047014B0132CB
:1047A0001A70F9E7BD620320180010B5FF2908D878
:1047B000054B49028918C918029A03F02FFA02988A
:1047C00010BD01204042FBE718290020012070475E
:1047D000F8B5CE464746994680B5FF2926D84D0202
:1047E000AD18A84613491448884405F069F9089B98
:1047F000002B11D01E004C466827104D4E4402E09D
:104800000134A64208D020782A5CBA43F8D001349B
:1048100005F088F8A642F6D149464046089A03F0CA
:10482000FDF90898C0BCB946B046F8BD0120404229
:10483000F8E7C04618290020F0540110356901102E
:1048400010B500232022052106F04AFF0120404236
:1048500010BDC0467047C046802210B500210248F6
:10486000D20003F0D5F910BDFC4F022070B58028AE
:1048700011DC40290FDC0724CB1723405B18DB1029
:10488000DB0118180123064E0C40A340355C002ABA
:1048900002D01D43355470BD9D433554FBE7C046DF
:1048A000FC4F0220F0B5454657464E46DE46E0B581
:1048B000050085B01E00203A0EAB0C001F78BE48E4
:1048C000D3B20A002900984605F0FAF8002E00D16C
:1048D00049E143460C2E00D15CE2B84A1B019B180B
:1048E000029300239C467B1E9F417B420393B44B63
:1048F00022009846634600950193FCE000988028CA
:1049000000D937E1402A12D805000727A946D01060
:104910001740C0014844B94601274D46AF404546BF
:10492000BA462D5C2F005546AF4345462F54664589
:1049300000D10DE1580600D544E1901CC0B2844678
:10494000001B8146402900DD20E2009DC810AA46D8
:1049500007252F000F400121B940C00150448A466D
:1049600041465546095CA94345462954B14500D105
:10497000EEE0990600D543E1D01CC0B2011B894688
:104980006146402914DC009D6746AA4607252F4052
:10499000BC46063D2F006546AF40C9104546C901DB
:1049A0005144BA466D5C2F005546AF4345466F549F
:1049B0004E4500D1CCE0D90600D549E1111DC9B260
:1049C0008C46091B8946402810DC009DC110AA4670
:1049D00007252F0007400120B840C90151448246F5
:1049E00040465546405CA84345466854B14500D111
:1049F000AEE0190700D549E1501DC0B2011B894640
:104A00006146402914DC009D6746AA4607252F40D1
:104A1000BC46063D2F006546AF40C9104546C9015A
:104A20005144BA466D5C2F005546AF4345466F541E
:104A3000B14500D18CE0590700D54FE1911DC9B2B5
:104A40008C46091B8946402810DC009DC110AA46EF
:104A500007252F0007400120B840C9015144824674
:104A600040465546405CA84345466854B1456FD022
:104A7000990700D550E1D01DC0B2011B8A4661469E
:104A8000402916DCC910C9018946009907256746E7
:104A90008B462F40D944BB46063D2F005D46AF40B4
:104AA0004D46BC4646494D5D2F006546AF434D46D9
:104AB0004F5556454CD0DB0700D556E140280FDC5A
:104AC00007252F00C11007400120009BB8409C46DD
:104AD000C901614484466546394B585CA843585423
:104AE0000832D2B2131BB34232D0019B013301937F
:104AF000DBB29E4237D9029B0199585C039B511C43
:104B00005840C043C9B20F1BBC4643B2000600D494
:104B1000F4E6009880282DDC402A00DD07E7050038
:104B2000A94607251540AA4601255746BD40D01085
:104B3000C0014844A94645462D5CAA464D46574605
:104B40003D43A94645464F462F54664500D0F1E601
:104B5000009D22000135EBB20093019B01330193CC
:104B6000DBB29E42C7D805B0F0BCBB46B246A946F0
:104B7000A046F0BD6645EBD0911CC9B2091B8E4220
:104B8000E6D0D11CC9B2091BB142E1D0111DC9B296
:104B9000091BB142DCD0511DC9B2091BB142D7D0AB
:104BA000911DC9B2091BB142D2D0D31DDBB21B1B70
:104BB000B34295D1CCE7C04608550110F05A011018
:104BC000FC4F0220901CC0B28446001B8246402944
:104BD00000DDF3E20725C810C00181460098294096
:104BE0008346063D8D40D94429004D467148455DB8
:104BF00029434D464155B245AAD0990600D4BBE69B
:104C0000D01CC0B2011B8A46614640291ADCC9107B
:104C1000C9018946009907258B46D944AB466546AC
:104C20005F463D40AB4601255F46BD40AC464D4624
:104C300060494D5DAB4665465F463D43AC464D46DB
:104C400067464F55B24500D182E7D90600D4B5E694
:104C5000111DC9B28C46091B8A46402810DC072565
:104C6000C110C9018946009928408B46063D854000
:104C7000D94428004D464F494D5D28434D4648557F
:104C8000B24500D164E7190700D4B5E6501DC0B2A3
:104C9000011B8A46614640291ADCC910C9018946B0
:104CA000009907258B46D944AB4665465F463D4093
:104CB000AB4601255F46BD40AC464D463D494D5D86
:104CC000AB4665465F463D43AC464D4667464F554D
:104CD000B24500D13CE7590700D4AFE6911DC9B2F7
:104CE0008C46091B8A46402810DC0725C110C901E3
:104CF0008946009928408B46063D8540D9442800C6
:104D00004D462C494D5D28434D464855B24500D18E
:104D10001EE7990700D4AEE6D01DC0B2011B8A463B
:104D20006146402900DDC4E6C910C90189460099E1
:104D300007258B46D944AB4665465F463D40AB46AA
:104D400001255F46BD40AC464D461A494D5DAB4618
:104D500065465F463D43AC464D4667464F55B245B6
:104D600000D1F5E6DB0700D4A8E6402800DDB7E671
:104D70000725C11005400120009BA8409C46C901A1
:104D80000C4B61445D5C28435854A9E6B04200D006
:104D9000EFE5DDE65B0043449B009846064A0020B1
:104DA00090447A1E97417A420192024A2300944627
:104DB0000090E0E0FC4F0220E0600110802D00D95F
:104DC00007E1402B00D9FCE0072018408346DF10A4
:104DD000FF017F19029701205F46B8408246029F7B
:104DE0008D4EF05D5746B843029FF05548460C285B
:104DF00000D1EAE0560600D510E19E1CF6B2301B49
:104E00008146402900DDC1E10720CF100840012183
:104E100081408A4661465046FF017F19C95D814342
:104E20006046C15549460C2900D1CEE0910600D517
:104E300010E1DF1CFFB2391B8946402E00DDA9E1DD
:104E40000720F1103040012686406046B246C90175
:104E50004919465C504686436046465449460C29EB
:104E600000D1B2E0D10600D510E11E1DF6B2311B13
:104E70008946402F00DD91E10720F91038400127D5
:104E800087406046BA46C9014919475C5046874386
:104E90006046475449460C2900D196E0110700D5D9
:104EA00010E15F1DFFB2391B8946402E00DD79E11C
:104EB0000720F1103040012686406046B246C90105
:104EC0004919465C504686436046465449460C297B
:104ED0007BD0510700D512E19E1DF6B2311B8946E9
:104EE000402F00DD62E10720F9103840012787409C
:104EF0006046BA46C9014919475C50468743604637
:104F0000475449460C2960D0910700D513E1DF1DB5
:104F1000FFB2391B8946402E00DD4BE10720F1101E
:104F20003040012686406046B246C9014919465CB8
:104F3000504686436046465449460C2945D0D20720
:104F400000D514E1402F0BDC0721012639408E40AB
:104F500061466046FA10D2015219895CB14381540E
:104F60000833DBB21A1B0C2A2FD0009A01320092B0
:104F70000C2A00D1F7E542460099565C019A591C6B
:104F80005640F643C9B20F1BB94672B2360600D47A
:104F900014E7802D1DDC402B13DC072018408346CE
:104FA000DF10FF017F19029701205F46B8401A4EBB
:104FB000029F8246F05D834650465F463843029F1B
:104FC000F05548460C2800D014E701352300EDB217
:104FD000CBE749460C29F8D0991CC9B2091B0C290A
:104FE000F3D0D91CC9B2091B0C29EED0191DC9B2C6
:104FF000091B0C29E9D0591DC9B2091B0C29E4D0A1
:10500000991DC9B2091B0C29DFD0DA1DD2B2121BBF
:105010000C2AA5D1D9E7C046FC4F02209E1CF6B24F
:10502000301B8246402900DDCDE00720CF10FF0174
:105030000140B94606388840A944010048466E4FF1
:10504000385C01434846395451460C29BDD091067D
:1050500000D4EEE6DF1CFFB2391B8A46402E00DD8D
:10506000B5E00720F110C901064089460638B04076
:10507000A944060048466049085C064348460E5469
:1050800051460C29A1D0D10600D4EEE61E1DF6B281
:10509000311B8A46402F00DD9DE00720F910C90131
:1050A000074089460638B840A94407004846524997
:1050B000085C074348460F5451460C2985D0110718
:1050C00000D4EEE65F1DFFB2391B8A46402E00DD9C
:1050D00085E00720F110C901064089460638B04036
:1050E000A944060048464449085C064348460E5415
:1050F00051460C2900D168E7510700D4ECE69E1D0B
:10510000F6B2311B8A46402F6DDC0720F910C90129
:10511000074089460638B840A94407004846364942
:10512000085C074348460F5451460C2900D14CE710
:10513000910700D4EBE6DF1DFFB2391B8A46402EF3
:1051400055DC0720F110C901064089460638B040F9
:10515000A944060048462849085C064348460E54C0
:1051600051460C2900D130E7D20700D4EAE6402F9F
:1051700000DDF5E60726F9103740063EBE401E4A20
:10518000C9014919575C3E435654E9E60C2800D042
:105190004CE61AE70C2900D064E616E70C2900D08B
:1051A0007CE612E70C2900D093E60EE70C2900D02C
:1051B000AAE60AE70C2900D0C1E606E7B04201D012
:1051C000FFF7D7FBC4E40C2800D02FE6FDE60C293E
:1051D00000D047E6F9E60C2900D05FE6F5E60C2999
:1051E00000D076E6F1E60C2900D08DE6EDE60C293C
:1051F00000D0A4E6E9E6C046FC4F02207047C04656
:1052000010B50400094804F05BFC094B1C70012C2C
:1052100005D0022C00D010BDFFF71CFBFBE70A20D5
:1052200000F0D6FDFCF7E8FFF5E7C0461C5501107D
:10523000BC62032010B5074B1B78012B07D0022B53
:1052400000D010BDFFF708FBFFF7D8FFF9E7FBF729
:1052500083FCF6E7BC62032000B5104B83B01B78DB
:10526000012B11D0022B01D003B000BD0C235943F8
:105270004300C018012340000093D2B2C9B2C0B2AB
:105280000B33FFF70FFBEFE70323591A8300C01A14
:1052900040007F30FBF71EFCE6E7C046BC620320FF
:1052A00010B5074B1B78012B06D0022B00D010BD88
:1052B000D2B2FFF7DBFAFAE7FBF764FBF7E7C04689
:1052C000BC62032010B5044B1B78022B00D010BD2C
:1052D000FFF794FFFBE7C046BC620320074B80004A
:1052E000C3181B68C90092000A435A400C2313409C
:1052F000034A9446604403607047C04604C00140BE
:1053000004D001400123D0228340120693629361AE
:10531000094A83009A1811684022514080320A409D
:105320000649C0008C4663441A60054B9C46052321
:10533000604443607047C04604C0014004D001404F
:10534000004001408023DB051868000F7047C0460D
:105350000FB400B5084883B004F02EFB049B002B6B
:1053600007D005A91800019104F0FAF8034804F0E9
:1053700023FB012004F00CF928550110F04F011017
:1053800070B5EFF3108C72B60D4D2B68002BFCD06E
:10539000BFF35F8F0724CB08C618C05C01230C4005
:1053A000A3401C000440034207D118433070BFF3F0
:1053B0005F8F2C608CF3108870BD1000FFF7C8FF62
:1053C0002C0100D0F8B54746CE46884680B5EFF3AD
:1053D000108C72B61C4D2C68002CFCD0BFF35F8F74
:1053E0009A4222D807210126894602E001329342DF
:1053F00018D34D4637001540AF40D4080119045D5D
:105400002742F3D110003C430C70BFF35F8F0022A2
:105410000D4B1A608CF3108800280EDBC0BCB94617
:10542000B046F8BD01204042EFE7BFF35F8F002395
:105430002B608CF31088012040424346002BEDD0B6
:105440000898FFF785FFC0462C0100D0044A107869
:10545000431CDBB2172B00D9102313707047C046D2
:105460001829022010B5064B064C82B001000093AB
:1054700018221F232000FFF7A5FF02B010BDC04671
:1054800038550110005402200021044B044ABFF398
:105490005F8F02C39342FAD17047C046000100D02B
:1054A000800100D0054B064A1360064A1360536022
:1054B0009360D360136153619361704780808080F3
:1054C00000E400E004E400E01F2318401E3B83409A
:1054D000002905D0C021044A490053501360704789
:1054E000802201498B50FAE700E100E0012282406E
:1054F000034B1B6813405A1E9341D8B27047C046F5
:1055000000E100E070B50D00EFF3108672B60F4AAF
:105510001368002BFCD0BFF35F8F0D4B10309B68DE
:1055200084001B590B4A934203D09D4201D000F0E6
:1055300047FF074B9B681D51BFF35F8FBFF35F8F22
:105540000022024B1A6086F3108870BD240100D03F
:1055500000ED00E0CD010010F0B557464E46DE46A6
:105560004546E0B585B0060000911700EFF3108BBB
:1055700072B66A4A1368002BFCD0BFF35F8F002518
:10558000674B5D579A46002D00DAA9E06B00654C29
:1055900001935B199B009846A146C1444B46524675
:1055A0009B7910361370604BB6009B6899590B1BA2
:1055B0002F2B33D95D4B994200D0ACE0019B424682
:1055C0009C465B4B6544AD0063535A4B0232A218B4
:1055D000043B9B1A1B05584A5B0D651913436B80EE
:1055E000564B0121AB80FF23AB71009BEF71AB6089
:1055F0004B460B4319004C4B9B689951BFF35F8F8F
:10560000BFF35F8F0022454B1A608BF3108805B003
:10561000F0BCBB46B246A946A046F0BD01200A0038
:105620008243D3798C46BB4231D845461300444966
:105630001B1B5B415943090D3D4B63533D4B0235E9
:105640006519043B5B1B1B053B4D5B0D2B43AA46B9
:105650004D466B800425AC465546E044131F444438
:105660001B1B1B055B0D1D434B46997100999D80CB
:1056700099604946DF71334B01431360BBE7580023
:10568000C01880002018C179B9422FD90200062322
:10569000D356002BF3DA02932B4B61460393131D71
:1056A0009A4604235B429C46E14450464B461B1AF3
:1056B0001B055B0D9C46204B957198466346404602
:1056C00003439380019B5A199200039BA418A38063
:1056D000029B1C4AA371009B2260E771A3608AE7CA
:1056E00000F06EFE002553465D574FE79088029309
:1056F0004005131D9A46031561469C464046D44416
:10570000634604302018181AE0230005400D1B02E0
:1057100018430390C5E700F053FE4FE7240100D083
:10572000BF6203201C29022000ED00E0CD01001023
:1057300000A1FFFF4C29022000E0FFFF01BDFFFF99
:10574000AAAA00000148804701BD000070B50124ED
:105750000443EFF30581EFF3108C72B6214A13680E
:10576000002BFCD0BFF35F8F1F4B05001F4AED1AC3
:105770006D416A43120D1E4D8900AE6852B27658D3
:10578000A6421CD00621595691421CD012215956CE
:10579000914222D01E215956914220D02A21595699
:1057A0000324914210D0134B19781A708171BFF302
:1057B0005F8F00220B4B1A608CF3108870BDAB68B2
:1057C0000D4C5C50EFE700246100091989005B185B
:1057D000FF21997109499980E5E70124F4E7022442
:1057E000F2E7C046240100D01C290220AAAA00002A
:1057F00000ED00E0BF620320CD01001001BDFFFFFE
:10580000024B9C46614489000160704740000034AF
:1058100070B5114C114DAC420FD2FF262368002BFE
:105820000CD0FFF713FE01002000FFF7E9FFA68070
:10583000BFF35F8F0834AC42F0D370BDFFF706FEB4
:1058400001002000FFF7DCFF2671BFF35F8F0834F3
:10585000AC42E3D3F1E7C046803002209030022012
:1058600010B50400FFF7F2FD01002000FFF7C8FFAC
:10587000FF232371BFF35F8F10BDC04610B5040036
:105880000120FFF7EFFD034BC3189B002360BFF31C
:105890005F8F10BD400000340A4B1968EFF3108091
:1058A00072B60A68002AFCD0BFF35F8F1B68BFF393
:1058B0005F8F00221A6080F3108840BF0020002113
:1058C0007047C04658610320F0B5DE4657464E4645
:1058D0004546E0B587B0EFF3058203230125134069
:1058E0009D409900B34AB44B54581D60B34B884651
:1058F000A946049329E0A3881BB2002B00DBA5E096
:10590000A379002B00D0E6E00823E05E002800DA4F
:105910000FE1430062691B18DB00D3189E68DD6845
:10592000731C00D111E1A64B190041449A6A0B691E
:10593000B01A9B1A984200D20E61A14800F046FBB3
:105940008D4200DDF5E000D12BE14B469C484363DE
:105950000823E55E002DCEDB62696B0092465B1981
:10596000DB009A4453469E68DF6800F02FFB8F42AD
:10597000C1DC00D10BE1002F00DAF0E052465346C3
:1059800052691B699346049A934200D1E1E0524662
:105990000821605E528800045946104398470290DF
:1059A00003910299039A0B001000134300D1D6E033
:1059B00013000A00B61A9F41002806DB804800F059
:1059C00005FB029E039F36184F4153469E60DF60E1
:1059D00000229A5E002A8EDB530099186069C90084
:1059E000411801938B68C9689B46B94200DD82E784
:1059F00002D1B34200D97EE708239C46A444059512
:105A000065462281A446019B2C0006E053009918AC
:105A1000C90041188D68C968AB469B18DB00C318E4
:105A2000B94206DC00D1C0E01C000023E25E002A7F
:105A3000ECDA230064469C4653461A806346059D73
:105A40001D80A3881BB2002B00DA59E72269EFF30F
:105A5000108172B61368002BFCD0BFF35F8F012357
:105A6000A7885B42A3803FB22369BFF35F8F002208
:105A70001A6081F31088002F00DA41E72300083311
:105A800022009A4666697B00DB19DB00F3189968EF
:105A900050468C460824115FDD68002910DB019315
:105AA00006E0AB424DD00023E15E2000002906DB7A
:105AB0004C006418E4003419E368AB42F1DD019B4B
:105AC000078000201F5E1980002FDCDA1400A37904
:105AD000002B00D118E70023A37126000823E15E04
