:020000041000EA
:10000000403004205D010010130100104DC80210A3
:100010001101001011010010110100101101001058
:100020001101001011010010110100101701001042
:100030001101001011010010190100101B01001026
:100040001D0100101D0100101D0100101D010010F8
:100050001D0100101D0100101D0100101D010010E8
:100060001D0100101D0100101D0100101D010010D8
:100070001D0100101D0100101D0100101D010010C8
:100080001D0100101D0100101D0100101D010010B8
:100090001D0100101D0100101D0100101D010010A8
:1000A0001D0100101D0100101D0100101D01001098
:1000B0001D0100101D0100101D0100101D01001088
:1000C0001D0100101D0100101D0100101D01001078
:1000D0001D0100101D0100101D0100101D01001068
:1000E0001D0100101D0100101D0100101D01001058
:1000F0001D0100101D0100101D0100101D01001048
:100100001D0100101D0100101D0100101D01001037
:1001100000BE00BE00BE00BE00BE00BEEFF3058004
:10012000103800BEF2EB887138DF04105CDF041079
:10013000A801001090A31AE7D3DEFFFF42012110AF
:10014000FF0100006C1D0700793512AB4FF0000075
:100150002049086006C881F3088810474FF05040D6
:10016000006810B14FF00000F2E70FA40ECC002998
:1001700002D000F015F8F9E71749184A002000E00E
:1001800001C19142FCD1002080F30A8814498847BC
:10019000144988471449884700BEFDE701C901C2D8
:1001A0009A42FBD3704700BF5CDF0410A801002017
:1001B000F0400220A41E07100000082000000820C4
:1001C000A41E0710001008200010082000000000E6
:1001D0007047000008ED00E0F040022040300320AE
:1001E000110D0210F5030010D10C0210F8B500BF7C
:1001F0000348044B834202D0034B03B118477047B6
:10020000F0400220F040022000000000064B0749A9
:10021000C91A891048BF0131491003D0044B0BB1F2
:1002200001481847704700BFF0400220F04002200C
:100230000000000010B5064C237843B9FFF7D8FF43
:10024000044B13B10448AFF300800123237010BDA9
:100250000845022000000000D887031008B5044BB1
:100260001BB104490448AFF30080BDE80840CDE766
:10027000000000000C450220D8870310704770472B
:1002800000B585B04FF0000343EC4000002300931D
:1002900002E0009B01330093009BB3F57A7FF8DB0B
:1002A0004FF0000C33E0019B01330193019BB3F548
:1002B0007A7FF8DB531E41FA03F313F0010F07D0E6
:1002C0001B234FF0010E4EEC40300023039308E057
:1002D0001B234FF0000E4EEC4030F6E7039B01333A
:1002E0000393039BB3F57A7FF8DB49001A234FF0A1
:1002F000010E4EEC40300023029302E0029B0133DA
:100300000293029BB3F57A7FF8DB0CF1010C944564
:1003100007DA1A234FF0000E4EEC40300023019311
:10032000C4E74FF0010343EC400005B000BD0000FE
:1003300008B5064A13889BB203439BB21380118809
:10034000102289B20F20FFF79BFF08BD2230032047
:1003500008B5C04300B2064A13889BB2034013801D
:100360001188102289B20F20FFF78AFF08BD00BF55
:100370002230032008B50C4B1A680C4981FB02316E
:10038000D317C3EB21234FF42F7101FB132323B1A8
:10039000054A13680133136008BD01220221044895
:1003A00004F0B6FEF4E700BFA4FA022091739F5D4B
:1003B000641D002008B50C4B1A680C4981FB023102
:1003C000D317C3EB21234FF42F7101FB132323B168
:1003D000054A13680133136008BD01220321044854
:1003E00004F096FEF4E700BF7C20032091739F5D2C
:1003F000701C00202DE9F04383B064201CF062FFE4
:100400009C4B01AA1A600B201CF080F80B250126DA
:100410004FF0010444EC445028461CF077F844ECBB
:10042000445044EC405007201CF070F81B201CF096
:100430006DF80F201CF06AF80E201CF067F81120F0
:100440001CF064F81A201CF061F80C201CF05EF817
:100450000D201CF05BF807201CF058F807201CF05A
:1004600055F807201CF052F807201CF04FF8072021
:100470001CF04CF807201CF049F807201CF046F847
:1004800007201CF043F807201CF040F832460021FA
:1004900007201BF0F1FF3246002107201BF0ECFF84
:1004A0003246002107201BF0E7FF324600210720DB
:1004B0001BF0E2FF3246002107201BF0DDFF324631
:1004C000002107201BF0D8FF3246002107201BF037
:1004D000D3FF3246002107201BF0CEFF07201CF07F
:1004E00015F807201CF012F807201CF00FF8062062
:1004F0001CF00CF805201CF009F804201CF006F88C
:1005000003201CF003F802201CF000F84FF0040850
:1005100044EC4480032344EC44304FF0020944ECA3
:10052000449000254FF0000747EC409047EC4030E6
:1005300044EC40800A201CF0C5FE47EC40800A20B5
:100540001CF0C0FE44EC40802A46314605201BF0DA
:1005500093FF2A46314606201BF08EFF062344EC0B
:100560004430052344EC44301B2244EC4420072350
:1005700047EC443044EC44200F2244EC44200E224B
:1005800044EC4420112247EC44201A2244EC44203D
:100590000C2244EC44200D2244EC442044EC443032
:1005A00044EC443044EC443044EC443044EC4020CF
:1005B00016201BF0ABFF162344EC443012201BF036
:1005C000A5FF122344EC443013201BF09FFF13239C
:1005D00044EC443010201BF099FF102347EC4430CA
:1005E00009212F201BF02CFF234A136843F40063DA
:1005F000136023F099FF23F0BFFA00F0B1F820F068
:10060000CFFC0DF0CBF903F041FA1C4820F032FD8D
:10061000484605F005F928F0ADFA194820F02AFD02
:1006200005F038F910E00A2020F0E6FC0134132C24
:10063000F9DD144820F01EFD134820F01BFD0A20B0
:1006400020F0DAFC03F09EFD02F0CAFC03F02AFA67
:1006500000214FF0FF3021F069FEFFF7ABFEFFF7FE
:1006600089FE01201CF02EFE0135B5F5FA6FEBD1A5
:100670000024DCE7480E032000800C40D8870310DC
:10068000EC870310F88703100C8803100EB430B504
:10069000B4B0044637AA52F8041B339201AD284681
:1006A0002EF004F9E4B228462FF008FC0246294651
:1006B000204622F07DF9204622F018F934B0BDE83A
:1006C000304003B07047000008B4F0B5B6B004463F
:1006D0000F4615463BAB53F8046B35931B2210496C
:1006E000FFF7D4FF3B4602330093AB1C1B220D499E
:1006F0002046FFF7CBFF03AD359A314628462EF052
:10070000D5F829462046FFF7C1FF1B22064920469F
:10071000FFF7BCFF36B0BDE8F04001B0704700BF46
:100720002C880310308803103C88031008B51B2266
:100730000149FFF7ABFF08BD40880310034B0122BE
:100740001A60034B1B68002BFBD0704788E802201F
:100750008CE80220014B01221A60704784E80220D5
:1007600008B5024823F012FE08BD00BF7502002044
:100770000048704740450410004870471844041072
:1007800000B583B068B9204B40F209425A8001237A
:1007900001335B009BB21C4843F44073038003B0F9
:1007A00000BD0A282DD8032804D0184A52F820008A
:1007B000002320E0684620F0B5FD00230F2BE7D88A
:1007C00002AA02EB530212F8082C110903F1010CE2
:1007D0000F4810F801E00C4921F81CE002F00F026C
:1007E0000233825C21F81320DBB2E7E701330649CC
:1007F00021F81320DBB2122BCAD8C25C002AF5D133
:10080000C6E70020CBE700BF08EC022054450410E7
:100810004888031002460023184605E002F0010153
:1008200041EA400052100133072BF7DD704700000A
:100830002DE9F843264B00221A60264A136801333B
:100840001360042B1EDC244B00221A60BDE8F883E1
:1008500004F1FF38214E07EB870505EB040956F834
:1008600029204146384605F033F856F829304544EA
:1008700046F825300134042CEADD0137142F03DC5F
:100880000124F8E70027F9E705F0ACF80024104B45
:100890001C60104B04221A600EE00E4D20222968C5
:1008A000204605F015F82A6804EB840313440B4A2C
:1008B000202142F823100134142CEEDD05F092F8CB
:1008C000034B00221A60034B04221A60BEE700BFEC
:1008D00060220320642203205C220320502E032088
:1008E00008B50D4A136801331360142B01DC092885
:1008F00001D1FFF79DFF084B1B68132B03D0074B5B
:1009000000221A6008BD064B1B68042BF7D1034B6D
:1009100001221A60F6E700BF602203205C22032058
:100920006422032005207047152070477F284ED889
:100930002DE9F04180460F4616461F2901D9BDE832
:10094000F081C0F17F031C460B46002933DBDB102E
:10095000C3F103031D46D8B201F049FB201DC0B20C
:1009600001F057FB01F0BEFD782001F0D3FD4020DF
:1009700001F0D0FD04EBC5131A461D46144B995CDB
:100980000C46D6B1012E06D107F007020123934091
:100990001943CBB21C46F2B23946404604F03AFB4A
:1009A0002046FFF737FFC0B201F0B4FD084B5C559D
:1009B00001F0A2FDC3E7CB1DC9E707F00702012341
:1009C0009340DB435BB20A461A401446E3E77047A4
:1009D00030EC022070B504460D46164600EB80034D
:1009E0000B440B4A42F823600A4B18600A4B19600B
:1009F0003046FFF775FFF2B22946204604F0E6FACA
:100A000032462946204604F063FF04F0EBFF70BD38
:100A1000502E0320602203206422032038B50446B0
:100A20001546C8B201F0E3FAE0B201F0F2FA01F0C3
:100A300059FD782001F06EFD402001F06BFD00248F
:100A40000CE005EB8503C4F104021344074AD05CB3
:100A5000FFF7E0FEC0B201F05DFD0134042CF0DDD3
:100A6000002001F057FD01F047FD38BD581E002061
:100A700038B500250AE0002001F04CFD0134E4B255
:100A8000832CF8D901F038FD0135EDB2032D0FD8D4
:100A9000284601F0ACFA002001F0BBFA01F022FD7B
:100AA000782001F037FD402001F034FD0024E7E715
:100AB00038BD08B504F00CFF04F094FF08BD000039
:100AC0000023024A1360024A13607047CCE80220F8
:100AD000D0E80220064B00221A60064A1368013350
:100AE0001360042B02DD134600221A60704700BF1A
:100AF000CCE80220D0E8022038B514460B4B186031
:100B00000B4B196023787BB1084D2868431C2B6080
:100B100014F8012B064B1968FFF75CFF2B68142BA8
:100B2000F0DDFFF7D7FFEDE738BD00BFCCE80220CE
:100B3000D0E8022008B5FFF7DFFF08BD08B5024680
:100B4000034B1968034B1868FFF7D6FF08BD00BFB9
:100B5000D0E80220CCE802200B4B1A680B4B1B6834
:100B60009A420FD0094A13680949C85CC0B2136899
:100B70000133594203F00F0301F00F0158BF4B42FC
:100B800013607047FF207047281F03202C1F03208D
:100B9000181F032008B502F023FA074B1A68074B09
:100BA0001B689A4205D0054B1B68054AD05C40B2D1
:100BB00008BD4FF0FF30FBE7281F03202C1F032048
:100BC000181F032008B502F00BFAFFF7E3FFB0F19E
:100BD000FF3FF8D0FFF7C0FF40B208BD10B51D4B76
:100BE0001C68611C1C4A82FB013CCB17C3EBAC1395
:100BF0004FF0C80E0EFB131303F1010C82FB0C2106
:100C00004FEAEC72C2EBA1120EFB12C21349096843
:100C10008A4217D08B4215D0114A1268824212D0F4
:100C20000C4C23680F4A42F8230001330A4981FB28
:100C30000321DA17C2EBA112C82101FB1232226094
:100C4000074B186010BD074A002142F82410014AE2
:100C50001360E5E7E0E802201F85EB51E4E802209D
:100C6000C8FD0220E8E8022070470000014B186030
:100C7000704700BF18E40220014B1860704700BFA6
:100C8000301F03202DE9F04792B007460E46DFF8EB
:100C900078814146584820F0EDF901AC39462046AC
:100CA0002EF0F8FF20462FF009F92218534B19882F
:100CB0009B782152937020462FF000F90546384664
:100CC0002FF0FCF882461CF0EBFB41464C4820F02C
:100CD000D1F900274FF0010902F082F9BAF1150F9E
:100CE00001DC4FF000091CF0DBFB464A1368526838
:100CF000834272EB01011BD3FFF74CFFB0F1FF3FC2
:100D0000EAD0FFF75FFF804602463F493F4820F0A8
:100D1000B1F9B8F1050F3FD0B8F1060F45D0B8F1E1
:100D2000FF3FD9D001A82FF0C9F8054600244FE0B5
:100D3000344937481B1842F100020B604A60002416
:100D4000A0460CE093FBF5F205FB123348336B44ED
:100D500013F8442C31462046FFF73CFE0134142C96
:100D600011DC3B19AB42EDDB152D0ADD98FBF5F3E9
:100D700005FB138348336B4413F8442C08F1010836
:100D8000E8E72022E6E717EB090703D4AF42B3DB1D
:100D90000027B1E76F1EF9E7B9F1000F22D0B9F1D2
:100DA000010F99D14FF0000996E7B9F1FF3F1CD030
:100DB000B9F1000F90D14FF001098DE704F148031C
:100DC0006B4413F8442C31462046FFF703FE0134F0
:100DD000142C0DDCAC42F1DB202231462046FFF71B
:100DE000F9FDF4E74FF0FF3976E74FF0000973E7BC
:100DF000404612B0BDE8F0879C880310349203107F
:100E0000A8880310E044022080450410B88803102D
:100E1000400D030010B51C46002307490B6007492D
:100E20000B6007490B6022B101F0CCF9054B1C6047
:100E300010BD01F0D5F9F9E76022032064220320F8
:100E40005C220320BCE8022038B500250FE02022F8
:100E50002146284604F03CFD05EB850323440D4A5A
:100E6000202142F823100134042CF0DD0135142D2B
:100E700001DC0024F8E704F0B5FDFFF721FE0023B4
:100E8000054A1360054A1360054A1360054A13605A
:100E900038BD00BF502E03206022032064220320AF
:100EA000A02A0020C8E8022008B5FFF7C1FC08BD51
:100EB00010B5044602E000F025F80134207800283F
:100EC000F9D110BD70B50B4C0B4D226829680B4849
:100ED00020F0D0F82D6826682C4603E00848FFF77C
:100EE000E7FF0134132CF9DD034B1D60014B1E603D
:100EF00070BD00BF6422032060220320C488031059
:100F00009CE2031008B5092807D00246054B196872
:100F1000054B1868FFF75EFD08BDFFF7D3FFFFF72D
:100F200087FCF9E7642203206022032038B5084BD0
:100F30001D68084B1C6802E00748FFF7B9FF074B24
:100F40001B68002BF8D0024B1D60024B1C6038BDA3
:100F500060220320642203209CE203105C22032011
:100F60002DE9F04F85B006460D4602929B460E9C39
:100F7000DFF81491D9F80080DFF808A1DAF8001042
:100F800003913B4F009439463A4820F073F8DAF861
:100F90000030D9F800203946374820F06BF82A464F
:100FA0003946364820F066F80A2020F025F80F9BD5
:100FB000002B58D0002304E01A19B15C304AD154F8
:100FC0000133132B02DCF25C002AF5D12C4A0021FC
:100FD000D154274D00945B46029A2946254820F0BB
:100FE00049F8284E284FDFF8B0A033683A68294600
:100FF000504620F03FF8DFF888904A4629462348BB
:1010000020F038F8C6F800B0C7F80080029B08EB63
:1010100003021F4B1A6009EB0400FFF749FFFFF7BB
:1010200051FFDFF878903368C9F8003000945B46D0
:10103000029A29460F4820F01DF833683A6829467D
:10104000504620F017F80A201FF0D6FFC9F800B06C
:10105000C7F80080039B336029460E4820F00AF849
:1010600005B0BDE8F08F314605482EF013FEB0E71D
:10107000A0450410E8880310148903103C8903106C
:10108000AC03032064220320602203207C89031028
:10109000A02A00208C89031054890310C8E802207C
:1010A0002DE9F04F87B0834602920024ADF814403A
:1010B0007F4D29467F481FF0DDFF0A201FF09CFF6F
:1010C00064201CF0FFF87C4E32687C4B1A607C4F29
:1010D0003A687C4B1A60DFF81882424629467A4803
:1010E0001FF0C8FF01F06EF8784B01221A60DFF89C
:1010F00004923368C9F80030DFF8FCA13B68CAF8F5
:10110000003040462EF0DAFE03900094109B2246F9
:1011100029466F481FF0AEFF3B68326829466D488C
:101120001FF0A8FFDAF80030D9F8002029466A48F5
:101130001FF0A0FF039A294668481FF09BFF0A2072
:101140001FF05AFF0094109B2246294660481FF06A
:1011500091FF3B68326829465E481FF08BFFDAF842
:101160000030D9F8002029465B481FF083FF0A2091
:101170001FF042FF5A4B02221A70294659481FF0AD
:1011800079FF0A201FF038FF64201CF09BF8029BB7
:1011900001930094109B224641465846FFF7E0FE1B
:1011A000274626462546002D7DD101F019FFFFF781
:1011B000F1FCB0F1FF3FF6D0FFF704FD04464A4BC7
:1011C0001D604A4B01221A60454B1B78022B0BD144
:1011D000062832D023DC042818DC032863DA904286
:1011E00023D100F0FDFF0125344B1A68324B1A6001
:1011F000344B1A68324B1A60029B01930097109B84
:1012000032463B495846FFF7ABFECCE705280CD1E8
:10121000002E00DD013EBE42E6DA3746E4E708284C
:101220001CD00D283BD007283BD05FFA84F88DF8FE
:10123000148058462EF042FE2BE058462EF03EFE1B
:10124000B04200D90136FFF76FFBC319023BB3422E
:10125000CADCFFF769FB371A0337C5E7002EC3DD89
:10126000013E58462EF02AFE411E334605E00BEBA8
:10127000030252780BF8032001338B42F7DD002381
:101280000BF80130B0E7431C1BF800200BF80320DB
:1012900001388642F7DD0BF806800136A4E7012508
:1012A000A2E70125A0E7204607B0BDE8F08F00BF08
:1012B000984504109889031060220320D4F302207B
:1012C00064220320D8F30220A4890310BCE8022082
:1012D000BC890310E4890310048A0310208A0310D8
:1012E0006D2A0020308A0310C4E8022050F5022045
:1012F00068F30220A02A0020C8E8022000B583B0CD
:101300001346054A126800920122FFF7C9FE4FF00A
:10131000FF3003B000BD00BF6422032010B50948B0
:101320001FF079FE002407E0074A02EB84122146F1
:1013300006481FF09FFE0134072CF5DD0A201FF040
:101340005BFE10BD3C8A03107CF002204C8A031027
:1013500030B583B004462023ADF80430002304E008
:101360009A011049002088540133072BF8DD00252D
:1013700008E08DF8043001A90A4800EB85102DF033
:10138000ABFB0134237853B1A3F10902012AF0D851
:101390000135072DF5DD044904481FF06BFE03B04D
:1013A00030BD00BF7CF0022088450410588A03102D
:1013B000F8B50F46FFF7CCFFFFF7B0FF002513E0AD
:1013C000194B03EB85131A5D29462046FFF702FBF4
:1013D0000134142C07DCB442F2DB202229462046DB
:1013E000FFF7F8FAF4E70135032D09DC0E4800EBAE
:1013F00085102EF063FD06460024EAE70D2812D082
:1014000001F0EEFD3946084800EB8710FFF73AFC83
:10141000082808D0F2DC012805D00028F0DDC31E22
:10142000DBB2012BECD8F8BD7CF002202DE9F041B5
:10143000044601291FD01F46032925D002292BD09D
:1014400003292ED0012919D000F02AFC804600F093
:10145000F1FB0546064600F0EDFB35B380282DD0A4
:10146000FF282FD0069BC3F800803A4602F8025BA3
:101470007870002432E01F4B01221A6000F010FC4B
:1014800020600120BDE8F0811A4B1B68002BD5D1EC
:1014900019481FF0EFFDFEE7206800F007FC01206F
:1014A000F0E70A2000F002FCCEE71449144806F0E9
:1014B00035FB206800F0FAFB0020E3E700F0DDFBDD
:1014C00000F0E6FBFF2E0DD00020DBE7154600F014
:1014D000B1FB2B4603F8010B01341A46A642F5DC9A
:1014E0000120CFE7074B1868023800F0DFFB00202F
:1014F000C8E700BF6C2003206C8A0310848A0310A5
:10150000C0450410342203202DE9F041C4B0054643
:101510000E469846431E012B1CD91746012010B3D6
:1015200004AC03AB009323463246294602A8FFF7DA
:101530007DFF9DF81140812CF1D1F0D19DF8104034
:10154000414621B1A31C04AAD35C88F8003057B1EE
:10155000022312E003AB009304AB0A46014602A843
:10156000FFF764FF012044B0BDE8F0813A4604A9CA
:10157000C95C02F8011B01331746621E9A42F5DC72
:1015800000233B70EFE700002DE9F041C4B098461E
:10159000031E4BDD0E4617461C4603AB009304ABFF
:1015A000234A92F90020012102A8FFF73FFF0321FF
:1015B00000231D46012300E004214BB303AB00933D
:1015C00004AB1B4A92F9002002A8FFF72FFF034645
:1015D000F0B19DF81110174A12789142ECD12A46C9
:1015E000013215469442E7D103AA039B336004AB52
:1015F0009DF8111039701978C8F8001000920C4A43
:1016000092F90020022102A8FFF710FF01200AE052
:1016100003AB009304AB064A92F90020022102A812
:10162000FFF704FF002044B0BDE8F0810020FAE796
:101630003C3003203830032000B585B000F030FB8B
:1016400003900DF10B01012000F00AFB01AB0DF13D
:101650000A0203A90F480068FFF796FF20B9039814
:1016600000F024FB05B000BD039800F01FFB6946A5
:10167000022000F0F5FA9DF8013003F07F038DF8A9
:101680000130039800F012FB6946022000F0B8FA1E
:10169000E5E700BF04F50220014B1868704700BF62
:1016A00004F5022008B500F007FB08BD08B500F0FE
:1016B00049FB08BD10B584B0044601AB0DF10B0227
:1016C00003A908480068FFF75FFF08B904B010BD20
:1016D0000398023000F0EAFA2146019800F0C0FABF
:1016E0000120F3E704F50220014B1870704700BF9A
:1016F0003830032010B5044610B1044B1C6010BDF7
:101700000349ED200BF0C6F9F7E700BF04F502200E
:10171000A08A031010B584B0FFF7BEFF0446013C59
:1017200001AB0DF10B0203A92046FFF72DFF48B1D5
:101730009DF80B20064B1B789A42F0D12046FFF70C
:10174000D9FF02E02046FFF7D5FF04B010BD00BF6F
:10175000383003202DE9F047C4B00646894692464A
:10176000274BD3F80080274B1B788DF80B3117E0FF
:101770000134419FA7420FDD01AD254430462EF0D4
:101780009DFB0246314628462DF02EFA08B33378E9
:10179000002BEDD1012400E00024E4B908F1010898
:1017A00041AB0DF20B1243A94046FFF7EDFE044694
:1017B00008B300F075FA0446439800F077FA01A9DF
:1017C0004198023000F04CFA204600F06FFA0024F5
:1017D000CFE70124E1E73A460DF1060148462EF035
:1017E000F7FA419B002209F80320419BCAF8003018
:1017F0004046FFF77FFF204644B0BDE8F08700BFBA
:1018000004F502203830032010B584B0FFF744FF00
:101810000446013401AB0DF10B0203A92046FFF78A
:10182000B3FE48B19DF80B20064B1B789A42F0D1CD
:101830002046FFF75FFF02E02046FFF75BFF04B0A2
:1018400010BD00BF383003202DE9F043C9B0074672
:101850008846914607AB009308AB234A92F90020D3
:10186000012103A8FFF7E2FD00240321012300E08A
:10187000042193B107AB009308AB1B4A92F90020F7
:1018800003A8FFF7D3FD034638B19DF82110174A8E
:1018900012789142ECD10134EAE700F001FA0646F1
:1018A000002000F003FA04AD29460A2000F0D8F920
:1018B000304600F0FBF99DF811100D4A1368C3EB98
:1018C00041333B601368C9F80030C8F8004007ABEB
:1018D000009308AB044A92F90020022103A8FFF705
:1018E000A5FD49B0BDE8F0833C300320383003202B
:1018F0003422032000B585B003AA02A901A8FFF78E
:10190000A3FF039800F0D2F905B000BD2DE9F04126
:10191000E4B0064688464FF41673684D03FB005545
:10192000902306E003F580726A44002102F87C1CD3
:101930000133FE2BF6DD624C6249204606F0EEF8DC
:101940006149204606F0EAF8604F97F9000000F080
:1019500041F95F49204606F0E1F8304600F0CEF943
:101960005C49204606F0DAF8304600F0FDF95A49A5
:10197000204606F0D3F80A2000F098F90DF2131370
:1019800004AA97F900100120FFF7BEFD10E09DF8B2
:10199000133103F580736B44012203F87C2C0DF2A4
:1019A000131304AA494991F900100020FFF7ACFD78
:1019B0000128ECD04949424806F0B0F890240AE0EA
:1019C00004F580736B4413F87C3C224644493C4840
:1019D00006F0A4F80134FE2CF2DD9123002400E08F
:1019E0000133FE2B08DC03F580726A4412F87C2C6C
:1019F000002AF5D11C46F3E7FCB93A49304806F015
:101A00008DF8434603B14446224637492C4806F038
:101A100085F828462EF052FA871C0B2F00D90B2789
:101A20003A463249264806F079F8BB1E8DF88431D3
:101A300081238DF8853100260CE022462C49204870
:101A400006F06CF8DDE7AA5D06F5C9736B4403F890
:101A50000C2C013628462EF031FAB042F3D8B31CD4
:101A6000E6B203F5C8736B4403F80C6C21491448C3
:101A700006F054F8002509E005F5C8736B4413F827
:101A80000C2C1D490E4806F049F80135AF42F3DC35
:101A900003AD2A4601A902A8FFF7D6FE039800F07D
:101AA00005F961A9384600F0ABF82246134904480D
:101AB00006F034F8304664B0BDE8F081E404032059
:101AC000B8450410FC310410B08A03103C300320E8
:101AD000C88A0310D88A0310E88A0310048B031005
:101AE000108B0310188B0310548B03106C8B031096
:101AF000348B0310948B03109C8B0310A48B031066
:101B000030B585B005460C46FE2900DDFE24624254
:101B1000E3B2D2B258BF53428DF80C300B4A127860
:101B20008DF80D2001920092DBB222460849094847
:101B300005F0F4FFFFF7DEFE03A9022000F060F8D5
:101B40002946204600F05CF805B030BD383003204F
:101B5000BC8B0310B045041070B5069D782404704A
:101B60008C4600292ADBCCF3473C80F801C0D2B276
:101B70008270D9B2C1709DF8104004719DF8146054
:101B800046715FFA85FE80F806E0C5F30725C5714A
:101B90000CF5F04C0CEB022311FA83F3240214FA37
:101BA00083F316FA83F34FEA0E2E1EFA83F315FA27
:101BB00083F39BB203721B0A437270BD01F5FF5C95
:101BC0000CF11F0CCFE7C0B2012801D900207047EB
:101BD0000120704710B50446FFF7F5FF28B1054B0B
:101BE0001C70054B00221A6010BD0449F0200AF059
:101BF00051FFF9E73C30032034220320E08B03102F
:101C000038B504460A46084D084B93F90030C3EB3B
:101C1000C303074800EB83035B69214628689847A4
:101C20002B6823442B6038BD342203203C30032032
:101C3000702A002008B5074B93F90030C3EBC303AB
:101C4000054A02EB83031A69044B1868411C1960AA
:101C5000904708BD3C300320702A00203422032026
:101C600070B506460C46002504E0FFF7E3FF04F8D4
:101C7000010B0135B542F8DB70BD10B5FFF7DAFF97
:101C80000402A4B2FFF7D6FF204380B210BD0000CB
:101C9000024A136803441360704700BF34220320D4
:101CA000014B1868704700BF34220320014B1860B5
:101CB000704700BF3422032038B504464FF4167332
:101CC000094D03FB00552A460849094805F026FF3F
:101CD000084B93F90030C3EBC303074A52F8233093
:101CE000A91C2046984738BDE4040320E88B031064
:101CF000D84504103C300320702A002038B5044633
:101D00004FF416730A4D03FB00552A4609490A4849
:101D100005F004FF094B93F90030C3EBC303084AF5
:101D200002EB83035B68A91C2046984738BD00BFBF
:101D3000E4040320F88B0310CC4504103C3003204E
:101D4000702A002008B5064B93F90030C3EBC3039B
:101D5000044A02EB8303DB680230984708BD00BFEA
:101D60003C300320702A002008B5054B93F9003061
:101D7000C3EBC303034A02EB83039B69984708BD87
:101D80003C300320702A00207047704770470120C4
:101D900070470000014B1B68C05C7047902A002010
:101DA0002DE9F04FC5B005468846914601EB000B82
:101DB0000BF1FF3B4FEA1B2301934FEA102ACAEBBA
:101DC0001B2606F5807616F0FF0F14BF01270027AB
:101DD00007EB1627C4B24B494B481FF04BF9294675
:101DE0004A481FF047F9414649481FF043F9594610
:101DF00048481FF03FF9019947481FF03BF9514609
:101E000046481FF037F9314645481FF033F9394647
:101E100044481FF02FF9214643481FF02BF943484F
:101E20001FF028F94FEA0A260196414D296801EB77
:101E30000A2140481FF01EF929684FF4807231448E
:101E400004A82DF0C5FF4D460026BE4256DA09EB28
:101E50000803AB4247D80134FF2CF6DD36481FF0AB
:101E600009F933020293019B03EB062B334C2168E3
:101E7000594433481FF0FEF832481FF0FBF8FEF7D4
:101E80005DFC0A201BF01EFA2F481FF0F3F8EFF359
:101E9000108172B6039121685144029A11442B4873
:101EA0001FF0E8F8206804AC4FF4807221465844D3
:101EB00036F0E2FB26481FF0DDF8039981F3108825
:101EC000FEF748FC23481FF0D5F80136019B03EBD1
:101ED0000621174B1B684FF48072194420462DF0E1
:101EE00077FF0024B1E704F1010B15F8011B04ABE7
:101EF000195519481FF0BEF85C46ADE745B0BDE87E
:101F0000F08F00BFF8450410088C03100C8C0310F0
:101F1000288C0310448C0310608C03107C8C0310FD
:101F2000988C0310B48C0310D08C0310EC8C03102D
:101F3000902A0020F88C0310248D03108C2A002096
:101F4000348D0310448D0310548D03106C8D0310D9
:101F5000908D0310A08D03100C8D031030B589B047
:101F6000184C4FF400232268174918481FF082F8D4
:101F7000FEF7E4FB0A201BF0A5F9EFF3108572B61B
:101F80004FF40021206836F0CBFB85F31088FEF774
:101F9000E1FB0F4B9B6A05AC0293082301931522CA
:101FA000009218224FF400212046FFF7D5FD22466B
:101FB0000A210020FFF7F4FE06481FF05BF809B085
:101FC00030BD00BF8C2A0020E0450410B48D031002
:101FD00000000B40D48D031082B00190642303FBFA
:101FE00000F000E001380028FCD102B0704700B5D5
:101FF00083B080238DF8043000F0070060F04F00BC
:102000008DF8050001AA0221782000F005FB03B03D
:1020100000BD00B583B080228DF80420030943F091
:1020200010038DF805308DF8062000F00F008DF8B4
:10203000070001AA0421782000F0EEFA03B000BDE9
:1020400008B54FF4FA60FFF7C7FF00F04BFA7820AD
:1020500000F060FA002000F05DFAAE2000F05AFABD
:10206000002000F057FAD52000F054FA002000F0CC
:1020700051FAA02000F04EFA002000F04BFAA82000
:1020800000F048FA002000F045FA1F2000F042FA64
:10209000002000F03FFAD32000F03CFA002000F0CE
:1020A00039FA002000F036FA002000F033FAAD20B3
:1020B00000F030FA002000F02DFA8E2000F02AFA0D
:1020C000002000F027FAD82000F024FA002000F0C9
:1020D00021FA052000F01EFA002000F01BFAA120D2
:1020E00000F018FA002000F015FAC82000F012FAEB
:1020F000002000F00FFADA2000F00CFA002000F0C7
:1021000009FA122000F006FA002000F003FA9120EC
:1021100000F000FA002000F0FDF93F2000F0FAF98D
:10212000002000F0F7F93F2000F0F4F9002000F063
:10213000F1F93F2000F0EEF9002000F0EBF93F202C
:1021400000F0E8F9002000F0E5F9812000F0E2F964
:10215000002000F0DFF9184B187800F0DBF90020C0
:1021600000F0D8F9D92000F0D5F9002000F0D2F91C
:10217000D22000F0CFF9002000F0CCF9DB2000F0F5
:10218000C9F9002000F0C6F9342000F0C3F900209E
:1021900000F0C0F9A62000F0BDF9002000F0BAF967
:1021A000A42000F0B7F9002000F0B4F9AF2000F04F
:1021B000B1F900F0A1F908BD942A002008B503F098
:1021C000D7FB08BD0123034A1360034A1360034A87
:1021D00013607047C0E80220C4E8022050F50220D6
:1021E000014B00221A607047C0E8022010B5044677
:1021F000214B1868214B196800EB80030B44204ADF
:1022000052F82320FEF755FC1E4B00221A60052CC5
:102210001AD00DDD062C27D0422C05D11A4A13689E
:10222000B3FA83F35B091360184B01221A6010BDE7
:10223000032C11D0042CF7D1104B1B68032BF3DCBB
:1022400001330E4A1360EFE70B4B1B68002BEBDDED
:10225000013B094A1360E7E7084B1B68002BE3DDED
:10226000013B064A1360DFE7034B1B68132BDBDCE3
:102270000133014A1360D7E7A02A0020C8E80220F2
:10228000502E0320C4E80220BCE8022050F50220B2
:1022900000B58E4600230DE000EB80021A4407498A
:1022A00011F802C00EEB8E021A446CF07F0C01F89C
:1022B00002C00133042BEFDD00BD00BF581E00201B
:1022C0004C4B1B68002B00F0938070B54A4B18688C
:1022D000B0F1FF3F18D0494B1B68984205D1484BDD
:1022E0001A68484B1B689A420ED0464B196800EB9F
:1022F00080030B44444A52F82320FEF7DAFB012303
:10230000424A1360424A13601BF0CAF8414A1368FC
:102310005268C31A61EB0202DFF800C1DCF800E08A
:10232000DCF804C09E457CEB020C02D3384B1B68E2
:10233000D3B1374B00221A60364B18605960334BCB
:102340001B68002B2AD0344B1B68B3B14FF480724A
:102350002B4B1968294B1868FEF7ABFB2B4A136807
:10236000B3FA83F35B091360244B1A68224B1A609B
:10237000234B1A68234B1A6070BD204B1B6803EB7C
:1023800083031F4A1268134440F201111E4A52F897
:102390002300FFF77DFF40F20112D9E71E4B1B68B7
:1023A00083B1164B1B68164A126803EB8303134470
:1023B000154A52F82320124B1968104B1868FEF783
:1023C00078FBCBE70D4C236803EB83030C4D2A68A5
:1023D000134440F201110C4E56F82300FFF758FF4A
:1023E00023682A6803EB8303134456F82320E2E7AB
:1023F000704700BFC0E802209C2A0020A02A0020CD
:10240000C8E80220982A0020502E0320C4E80220A9
:1024100050F50220F0400220BCE80220A82A00204B
:102420001F2809D84FF050435A68012383401A42AD
:1024300014BF0120002070474FF050439A682038A5
:10244000012383401A4214BF01200020704700007E
:10245000014B1860704700BFB02A002082B00023F3
:10246000019302E0019B01330193019B022BF9DDF3
:1024700002B07047054B1B684FF0010242EC44303C
:102480004FF0000242EC4030704700BF144404108B
:10249000034B1B684FF0000242EC4430704700BF12
:1024A00014440410054B1B684FF0010242EC443009
:1024B0004FF0000242EC4030704700BF104404105F
:1024C000034B1B684FF0000242EC4430704700BFE2
:1024D0001044041008B5024B1868FFF7A1FF08BDAF
:1024E0001444041008B5FFF7C5FFFFF7B7FFFFF767
:1024F000D9FFFFF7B3FF08BD08B5FFF7BBFFFFF734
:10250000ADFFFFF7DDFFFFF7A9FFFFF7C1FFFFF703
:10251000A5FF08BD38B5044600250EE0FFF7B8FF5B
:10252000FFF79CFFFFF7CCFFFFF798FFFFF7BAFF1D
:10253000FFF794FF6400E4B20135072D05DC14F0C9
:10254000800FEBD1FFF796FFEAE7FFF7A1FFFFF758
:10255000B7FFFFF783FF0224FFF7BCFF38B1013C50
:10256000FAD1FFF79FFFFFF779FF204638BD01241E
:10257000F7E7F8B506460F46FFF78AFF0024254621
:1025800010E0FFF76BFFFFF79BFFFFF767FF6400AB
:10259000FFF7A0FF00F001000444FFF783FFFFF7FF
:1025A0005DFF0135072DECDD5FB1FFF763FFFFF73E
:1025B00087FFFFF753FFFFF775FFFFF74FFF3470FB
:1025C000F8BDFFF765FFF2E770B582B004460D462F
:1025D0001646FFF787FF2046FFF79CFF08B100244F
:1025E00012E00446FFF788FF13E0691E091B18BFBD
:1025F00001210DF10700FFF7BCFF32469DF80730BF
:1026000002F8013B01341646AC42EEDBFFF774FFE3
:102610000124204602B070BD70B505460E46144632
:10262000FFF760FF2846FFF775FF002504E014F868
:10263000010BFFF76FFF0135B542F8DBFFF75CFFD9
:1026400070BD70477047704770477047704770475C
:102650007047704703490A68486800F10043C1E9C0
:1026600000237047E8440220044BD3E9000193EDB6
:10267000027B83ED007BC3E902017047E84402203E
:102680007047000000B583B02023ADF804308DF80A
:10269000040001A902482CF01FFA03B000BD00BFDE
:1026A0008C2B032000B583B02023ADF804308DF8C7
:1026B000040001A902482CF00FFA03B000BD00BFCE
:1026C000702003200C4B1B7803B9704700B583B012
:1026D0000DF10703094A0A4907482CF06FF807492A
:1026E00008482CF0F9F907482DF0E8FB064B1B8849
:1026F000044A135203B000BD44200320081F0320E6
:10270000DC8D0310000000119CE2031008B507499E
:1027100007481EF0AFFC074B00200021C3E9000171
:102720000023054A1370054A137008BD3046041093
:10273000E48D031080430220702003208C2B0320A3
:1027400010B5054C214605481EF094FC214604486E
:102750001EF090FC10BD00BF24460410E48D031051
:10276000F08D031010B5054C214605481EF082FC83
:10277000214604481EF07EFC10BD00BF1846041020
:10278000E48D0310F08D031010B5054C214605486B
:102790001EF070FC214604481EF06CFC10BD00BF0A
:1027A0000C460410E48D0310F08D03101A4B1B78B7
:1027B00003B9704710B582B00DF10703174A1849E5
:1027C00015482BF0FBFF9DF80730144A12491548B5
:1027D0001EF050FC144B1A68144B1B689A4201D02F
:1027E00002B010BD1249002018F0D8F90B490A4870
:1027F0002DF050FA08482DF061FB0346064C0119F4
:102800000C4A1068E05013790B71FEF71DFB20464F
:102810000BF0CCF8E4E700BF44200320081F03209E
:10282000DC8D0310FC8D03109C2A0320C42603209A
:10283000DC5E02200C8E031030B583B02023ADF88F
:1028400004308DF80400084C01A920462CF044F90E
:10285000064D2246064928461EF0A6F9294620467E
:102860002DF018FA03B030BD8C2B03209C2B0320D5
:10287000148E031008B502480AF0DEF908BD00BF47
:10288000188E031008B502480AF0D6F908BD00BF3B
:102890003C8E0310F0B583B000231A461946184643
:1028A000FEF7B8FAFEF7D0FA1648FEF701FB164F0E
:1028B00000240094234622461E213846FEF7F0FBF2
:1028C000124B01221A60124E3146204618F066F96A
:1028D000104D394628462DF0DDF928462DF0EEFA48
:1028E000034641190C4A1068E85013790B71FEF742
:1028F000ABFA28460BF05AF83146204618F05EFA3B
:1029000003B0F0BD248F03103CF00220EC1E032026
:10291000DC5E022008F502200C8E031000B593B097
:1029200000231A4619461846FEF774FA0A48FEF7BD
:10293000BFFA0A4B93E8030002908DF80C100022B6
:10294000009213461E2102A8FEF7AAFB044B0122A7
:102950001A6013B000BD00BF2C8F0310388F031016
:10296000EC1E0320F0B583B000231A461946184622
:10297000FEF750FAFEF768FA1548FEF799FA154F78
:1029800000240094234622461E213846FEF788FB89
:10299000114B01221A60114E3146204618F0FEF804
:1029A0000F4D394628462DF075F928462DF086FA48
:1029B000034641190B4A1068E85013790B712846F9
:1029C00017F060FF3146204618F0F8F903B0F0BD6B
:1029D000408F03103CF00220EC1E0320DC5E02203E
:1029E00008F50220488F0310F0B583B000231A4683
:1029F00019461846FEF70EFAFEF726FA1548FEF7B6
:102A000057FA154F00240094234622461E213846CB
:102A1000FEF746FB114B01221A60114E314620464B
:102A200018F0BCF80F4D394628462DF033F92846EA
:102A30002DF044FA034641190B4A1068E850137907
:102A40000B7128460BF090FA3146204618F0B6F983
:102A500003B0F0BD508F03103CF00220EC1E0320A9
:102A6000DC5E022008F502205C8F031010B590B0E8
:102A700009231A460A4968461EF096F800231A46AA
:102A800019461846FEF7C6F96846FEF711FAFEF732
:102A90004DFAFEF797F8034B01221A6010B010BDF3
:102AA000648F0310EC1E032008B5002108461AF0BD
:102AB0005CFE000010B501242146094B1868FEF7A2
:102AC00077FC032804D0042806D00128F4D110BDD7
:102AD000002CF1DD013CEFE7032CEDDC0134EBE7EA
:102AE000002D002030B5CDB000248DF81041474BAB
:102AF00001221A7026E09DF810317BB100258DF877
:102B00001051FEF7A1F9424A29462846FEF712F86D
:102B100044AA29460520FEF70DF813E03D4B01229B
:102B20001A6000231A4619461846FEF773F94DB08D
:102B300030BD39481EF09EFA384B01221A60334BE3
:102B400003221A70314B1B78022BF2D0032B17D0C3
:102B5000012BF7D1FEF778F92D4A00210846FDF741
:102B6000CBFF002200921346402144A8FEF798FABA
:102B70000128C0D00D28E5D1244B02221A70E1E7CC
:102B80009020FEF7B1FD43AA03A944A8FEF7E2FD99
:102B9000A0B3224B1A68224922481EF06BFAFEF7B6
:102BA00053F91B4A00210846FDF7C4FF214603A83C
:102BB000FEF7FEFB042812D006DD08280CD00D28F5
:102BC000C0D1FEF721FEBDE701280CD00328B9D102
:102BD000002CB7DD013CB5E7FEF72EFDB2E7032C74
:102BE000B0DC0134AEE79DF81031002B99D0002302
:102BF0008DF81031054B01221A70A3E70A481EF028
:102C000039FA024B01221A709CE700BF3A300320C8
:102C10007C8F0310EC1E0320848F031004F5022028
:102C20003C4604109C8F0310B48F031010B50F485E
:102C30001EF0F1F90E4CD4E90223D4E900011BF097
:102C4000CFFAC4E9000101230AE0591C084A02EB4B
:102C5000C10090ED007B02EBC30282ED007B0B46CE
:102C6000022BF2DD034B00221A6010BDC88F031047
:102C7000E844022054F5022010B50F481EF0CBF9AD
:102C80000E4CD4E90023D4E902011BF0F7FAC4E9A1
:102C9000000101230AE0591C084A02EBC10090ED33
:102CA000007B02EBC30282ED007B0B46022BF2DDC0
:102CB000034B00221A6010BDD08F0310E84402209D
:102CC00054F5022010B50F481EF0A5F90E4CD4E9BA
:102CD0000223D4E900011BF0ABFAC4E9000101238F
:102CE0000AE0591C084A02EBC10090ED007B02EBA0
:102CF000C30282ED007B0B46022BF2DD034B002268
:102D00001A6010BDD08F0310E844022054F5022051
:102D100010B50F481EF07FF90E4CD4E90023D4E91A
:102D200002011BF071FAC4E9000101230AE0591CF9
:102D3000084A02EBC10090ED007B02EBC30282ED7A
:102D4000007B0B46022BF2DD034B00221A6010BD04
:102D5000D08F0310E844022054F5022010B50E482D
:102D60001EF059F90D4CD4E900011BF047FDC4E9F0
:102D7000000101230AE0591C084A02EBC10090ED52
:102D8000007B02EBC30282ED007B0B46022BF2DDDF
:102D9000034B00221A6010BDD08F0310E8440220BC
:102DA00054F5022010B50E481EF035F90D4CD4E94B
:102DB00000011BF028FDC4E9000101230AE0591CB1
:102DC000084A02EBC10090ED007B02EBC30282EDEA
:102DD000007B0B46022BF2DD034B00221A6010BD74
:102DE000D08F0310E844022054F5022010B50D4C9A
:102DF000D4E900011BF024FCC4E9000101230AE02E
:102E0000591C084A02EBC10090ED007B02EBC302A3
:102E100082ED007B0B46022BF2DD034B00221A6091
:102E200010BD00BFE844022054F5022010B5044C48
:102E3000D4E900011BF070FAC4E9000110BD00BF25
:102E4000E844022010B50C481EF014F900240CE0F0
:102E50000420FDF76DFA01201AF034FA0420FDF782
:102E600077FA01201AF02EFA0134312CF0DD0348F4
:102E70001EF000F910BD00BFD88F0310E08F0310C3
:102E800008B5024818F0D6FA08BD00BFEC8F031051
:102E900000B583B0FDF7D8FF164A00210846FDF7BC
:102EA00049FE00220092134620211348FEF7F8F84D
:102EB000012806D00D2802D10F4818F0BBFA03B044
:102EC00000BD0D4B1B781BB90C4B01221A60F6E7B5
:102ED000094B4FF000021A70FDF7B6FF054A0021BA
:102EE0000846FDF727FE044A00210520FDF722FED3
:102EF000E5E700BFF48F03107CF20220EC1E0320F4
:102F000000B583B0FDF7A0FF164A00210846FDF783
:102F100011FE00220092134620211348FEF7C0F84C
:102F2000012807D00D2803D100210F4818F080F8A0
:102F300003B000BD0C4B1B781BB90C4B01221A606F
:102F4000F6E7094B4FF000021A70FDF77DFF054AC6
:102F500000210846FDF7EEFD034A00210520FDF79C
:102F6000E9FDE5E7FC8F03107CF20220EC1E032054
:102F700000B583B0FDF768FF164A00210846FDF74B
:102F8000D9FD00220092134620211348FEF788F84D
:102F9000012806D00D2802D10F4818F079FB03B0A4
:102FA00000BD0D4B1B781BB90C4B01221A60F6E7D4
:102FB000094B4FF000021A70FDF746FF054A002149
:102FC0000846FDF7B7FD044A00210520FDF7B2FDD4
:102FD000E5E700BF049003107CF20220EC1E032002
:102FE00008B50D4B1A68511C19600C4981FB023160
:102FF000D317C3EBA10303EB8303B2EB430F00D062
:1030000008BD00214FF0FF301FF090F9FFF758F98D
:1030100001F028FFF4E700BFF01E03206766666634
:1030200008B5FDF711FF104A00210846FDF764FDC1
:103030000E4A01210020FDF75FFDFFF7C3F8FFF7FF
:10304000CFFFFDF7A7FDB0F1FF3FF8D0FDF7BAFDC8
:10305000012802D0FFF7CAF8F1E7FFF7C1F8044BE7
:1030600001221A6008BD00BF0C90031020900310CD
:10307000EC1E032030B58BB000248DF80840FDF71E
:10308000E3FE244A21462046FDF754FD02A8FDF741
:1030900055FD31E09DF808307BB100248DF80840E3
:1030A000FDF7D2FE1B4A21462046FDF743FD02AA4A
:1030B00021460520FDF73EFD1EE0174B01221A6058
:1030C0000BB030BD9020FEF70FFB02AD28462CF070
:1030D000F5FE01462846FEF713FD00248DF8084052
:1030E000FDF7B2FE0B4A21462046FDF723FD2A4696
:1030F00021460520FDF71EFDFFF772FF002200921A
:103100001346402102A8FDF7CBFF0128C2D00D28AD
:10311000D8D0F1E730900310EC1E03202DE9F04FDA
:1031200083B0FFF74BF802F06DFC044602F07EFC22
:10313000824D85FB0435A5EBE47505EB45056D0077
:103140000746002803DB27F0070700260AE0C71D13
:10315000F9E701223146204602F028FC0134AC4256
:10316000F7DB0836BE4201DC0024F8E7002608E061
:1031700001222146304602F019FC0134BC42F7DB43
:103180000636AE4201DC0024F8E702F02BFC4FF4D7
:10319000FA601AF097F8FFF711F840F2412B4FF45C
:1031A0009D780024254641F28836374628E0644B56
:1031B00003FB08F3634A82FB0312DB17C3EB2233E2
:1031C00003F1020802F01EFC471E642303FB07F70D
:1031D00070E05D4B03FB0BF35A4A82FB0312DB17D3
:1031E000C3EB223303F1020B02F020FC461E6423E2
:1031F00003FB06F666E008F16408032800F09780F8
:10320000FFF7EEFE02F0EEFB00222146284602F018
:10321000CDFB05F1010A04F1FF3900224946504671
:1032200002F0C4FB013400222146504602F0BEFBEE
:10323000013D00224946284602F0B8FB0022214603
:10324000284602F0B3FB47445E44404B83FB071221
:10325000FD17C5EB621583FB0623F417C4EB63145B
:1032600001222146284602F0A1FB05F10109631E57
:10327000012201931946484602F098FB04F1010A25
:1032800001225146484602F091FB05F1FF39012227
:103290000199484602F08AFB01225146484602F055
:1032A00085FB02F0AFFB0138642303FB00F0B8425A
:1032B000FFF67DAF02F0BAFB0138642303FB00F098
:1032C000B04286DBB7F5967F0CDA214B03FB08F39F
:1032D0001C4A82FB0312DB17C3EB223303F1020803
:1032E0004FF49677B6F5967F0CDA174B03FB0BF38A
:1032F000144A82FB0312DB17C3EB223303F1020BE8
:103300004FF49676FFF76CFEFDF744FCB0F1FF3FFB
:103310003FF476AFFDF756FC01280BD006283FF4AA
:103320006AAF05287FF469AFA8F1640868E70BF17C
:10333000640B65E703B0BDE8F08F00BFABAAAA2A13
:10334000FBD8FFFFAD8BDB68F2D8FFFF1F85EB5189
:10335000FAD8FFFF000000002DE9F04F93B0BC4801
:103360001DF088FE0A201DF047FEBA481DF082FEBF
:103370000A201DF041FEB8481DF07CFEB7481DF044
:1033800079FEB7481DF076FEB6481DF073FEFEF7D5
:1033900015FF9FEDA37B8DED0E7B00259FEDA27B9E
:1033A0008DED0C7B9FEDA27B8DED087B05249FEDC1
:1033B000A27B8DED0A7BA8464F46A946ECE0FEF7BE
:1033C000FDFEEDE032463946029802F0EFFA0AF1CE
:1033D000010A039B534575DDDDE90423DDE90001A6
:1033E0001AF0FEFE06460F46DDE906234046494632
:1033F0001AF0F6FE04460D46304639461BF0FEF93B
:1034000080468946204629461BF0F8F902460B46BD
:10341000404649461AF0E4FE804689463046394621
:103420001BF0F1F906460F46204629461BF0EBF942
:1034300002460B46304639461AF0D2FECDE900016D
:103440000022894B404649461AF0F2FEDDE9084564
:1034500022462B461AF0ECFE22462B461AF0C0FEFE
:1034600006460F460022804BDDE900011AF0E0FE1F
:1034700000227E4B1AF0DCFE00227C4B1AF0B0FEDC
:1034800004460D46304639461AF0C4FF02902046E5
:1034900029461AF0BFFF07460AFB0BF60022744BC1
:1034A000DDE90A011AF0C4FE04460D4630461AF062
:1034B0008DFF012622462B461BF030F8002881D1D3
:1034C00006467FE70BF1010BBBF1630F22DC584688
:1034D0001AF07CFF04460D46DDE90C8942464B4656
:1034E0001AF07EFECDE9040155A3D3E9002320465E
:1034F00029461AF09DFE42464B461AF071FECDE970
:1035000006014FF0000A4FF000084FF00009CDE926
:1035100000895EE7DDF84080039CDDF8449002F00E
:1035200061FADDE90E23DDE90C011AF059FE0546CA
:103530000E46CDE90C5644A3D3E900231AF0EEFF62
:1035400040B141A3D3E90023284631461AF05CFE7E
:10355000CDE90C01FDF71EFBB0F1FF3F1CD0FDF7DC
:1035600031FB0546012800F0E280062822D005281C
:1035700029D0032D01D04E2D2ED0482D32D0542DE0
:1035800036D02B2D3AD02D2D00F09A80202D00F032
:10359000C580492D00F0C580B9F1000F7FF40FAF51
:1035A000FFF71EFD0025CDF840800394CDF8449030
:1035B000AB4689E7DDE9080102460B461AF010FE2A
:1035C000CDE90801D5E70022274BDDE908011AF013
:1035D0002FFECDE90801CEE726481DF04BFD4FF048
:1035E0000008CAE724481DF045FD4FF00208C6E771
:1035F00022481DF03FFD4FF00108C2E7B8F1010F6E
:1036000040D0B8F1020F4CD0B8F1000FBBD101345B
:1036100021461B481DF02EFDB5E700BFAFF300802B
:103620009A9999999999993F0000000000003440B7
:103630000000000000005040666666666666E63F71
:103640009A4B235291630540F4D64354FB21194011
:1036500038900310589003107C900310BC90031016
:10366000DC900310F49003100000E03F00004040A5
:1036700000407F40189103102491031030910310F3
:103680003C9103102EA3D3E90023DDE90E011AF0CB
:10369000A7FDCDE90E01DDE90C232B481DF0EAFC66
:1036A00071E725A3D3E90023DDE90A011AF098FDAB
:1036B00002460B46CDE90A2324481DF0DBFC62E7F5
:1036C000B8F1010F0CD0B8F1020F18D0B8F1000F0B
:1036D0007FF45CAF013C21461D481DF0CBFC55E753
:1036E00017A3D3E90023DDE90E011AF08DFDCDE922
:1036F0000E01DDE90C2314481DF0BCFC46E70EA3C7
:10370000D3E90023DDE90A011AF07EFD02460B46EB
:10371000CDE90A230D481DF0ADFC37E789F001091A
:103720003AE73A4602990B481DF0A4FC34E713B07F
:10373000BDE8F08FAFF300807B14AE47E17A943F91
:103740007B14AE47E17A743F449103104C9103100F
:103750003C91031054910310024B01221A60024B5A
:1037600018607047EC1E0320642E002008B5034B40
:103770001B681868FFF7F0FF08BD00BF642E00202B
:1037800008B5FDF761FB00231A4619461846FDF7F8
:1037900041FB0448FDF78CFB0020FEF7E5FAFFF73C
:1037A000E5FF08BD6491031008B50248FFF7D4FF98
:1037B00008BD00BF102C002008B50248FFF7CCFF61
:1037C00008BD00BF402C002008B50248FFF7C4FF29
:1037D00008BD00BF8C2B002008B50248FFF7BCFFD6
:1037E00008BD00BF502B002008B50248FFF7B4FF0A
:1037F00008BD00BF202B002008B50248FFF7ACFF32
:1038000008BD00BFD82A002008B50248FFF7A4FF72
:1038100008BD00BFB42A002070B50646244B1B68C3
:10382000244C5A68244920461DF0BEF921462348FD
:103830001DF020FC2249002017F0B0F92149204654
:1038400029F0AFFA204B00221A60044628B92DE077
:10385000B0471D4A136801331360A06BE26B216906
:1038600063699A4208BF88421DD0184D22460C2138
:10387000284629F009FBA06BE26B216963699A4233
:1038800008BF88422A460CBF0121002110481DF0C4
:10389000F1FB28462CF012FB01382B5C0A2BD7D108
:1038A00000222A54D4E7204629F0A1FA70BD00BFB7
:1038B000642E0020DC1E0320749103107C91031001
:1038C000DC5E02209CB903109C2A032044200320C4
:1038D0009091031038B500241F4B1C700FE004EBCF
:1038E000440203EB82031C4D196928462BF0F4F8BF
:1038F00028462CF0E3FA194B1B882B520134184B45
:103900001B6804EB440203EB8202127B262AE6D1F9
:10391000114D294613481DF0ADFB1348FFF77CFFFE
:10392000284609F089F958B184420CDB0C4A126828
:10393000431E03EB430302EB83035B69984738BDE7
:10394000FFF714FFFBE70134031B084A1360084824
:10395000FFF762FFF3E700BF000000119CE20310D5
:10396000642E0020A8910310C5260010C426032051
:10397000AD27001008B5FDF767FA034A0021084695
:10398000FDF7D8F808BD00BFBC91031030B589B071
:10399000FFF7F0FFFFF724FBFDF7FCF8B0F1FF3F66
:1039A000F8D0FDF70FF9044603AD00900346024638
:1039B0000A4928461DF0F8F8E0B2FDF755F9FDF781
:1039C0000DF92A4601210020FDF796F8012CE1D1DE
:1039D000034B01221A6009B030BD00BFCC91031027
:1039E000EC1E032038B509481DF044FB084B1C6849
:1039F0004FF0000545EC4040064B01221A604FF4A1
:103A0000FA7019F05FFC45EC404038BDE0910310BE
:103A100004440410D826032008B5FFF7E3FF08BDCF
:103A200008B50B4640228101A32001F01BFB08BD15
:103A300008B50B4640228101A22001F035FB08BDEC
:103A40002A3818BF0120704710B590B00024632CAD
:103A500011DC69462046FFF7E3FF9DF80000FFF701
:103A6000EFFF08B90134F2E7214606481DF002FBDA
:103A7000204610B010BD04481DF0FCFA4FF0FF3492
:103A8000F6E700BFF09103100892031008B5034B4E
:103A900000221A600248FFF75FFE08BDD81E03200F
:103AA000702C002008B5FFF715FF08BD70B594B065
:103AB00006460D461446FDF7C7F9ACB13246154926
:103AC00068461DF071F86A4600210846FDF732F895
:103AD0002A46104968461DF067F86A460121002011
:103AE000FDF728F814B070BD32460B4968461DF04A
:103AF0005BF86A4600210846FDF71CF82A4606498D
:103B000068461DF051F86A4601210020FDF712F8C1
:103B1000E8E700BF1892031020920310F8B50122C5
:103B200000210846FFF7C2FF01231F4600252E464D
:103B30002C46002C66D1FFF753FAFDF72BF8B0F1B5
:103B4000FF3FF6D0FDF73EF82D2843D01ADC2028A1
:103B500036D00EDC082850D00D2850D0012802D1D4
:103B6000FEF73EFB01243A4629463046FFF79EFF0A
:103B7000DFE72A2832D02B28F5D133462B441E46C6
:103B80001D46F0E73C2834D00DDD3E2833D0EADB7B
:103B9000A0F14103DBB2052BE5D8002FE3D0373885
:103BA00000EB0515DFE72F281ED0DCDBA0F130038A
:103BB000DBB2092BD7D83FB1303800EB0515D2E77F
:103BC00087F001031F46CEE705EB8505303800EB93
:103BD0004505C8E7731B1E461D46C4E7334605FB73
:103BE00003F31E461D46BEE796FBF5F31E461D4633
:103BF000B9E76D00B7E76D10B5E72546B3E72E4688
:103C00002546B0E7F8BD000070B594B0FDF71CF98B
:103C10001E4E314668462CF03DF868462CF04EF9B1
:103C200086460DEB000C1A4C0FCC4DF80E00CCF86C
:103C30000410CCF80820CCF80C302288A378ACF81B
:103C400010208CF8123000248DF810406A4621466E
:103C50002046FCF76FFF0F4B1C6030462CF02EF90E
:103C60000D4B18600EE00D4B03EBC403D3E90023AA
:103C70000B4968461CF098FF01346A462146002033
:103C8000FCF758FF032CEEDD14B070BDA0F202204B
:103C900024920310C8E80220A02A0020E844022051
:103CA0004C92031038B50546002400E00134092C7D
:103CB0000DD82946064B53F834002BF00DFF002891
:103CC000F4D1034B03EBC4035B689847EEE738BDC0
:103CD000142E002008B50248FFF7E4FF08BD00BF1E
:103CE0007020032008B50248FFF7DCFF08BD00BFC5
:103CF0003892031003220AE0511E064B03EBC10069
:103D000090ED007B03EBC20383ED007B0A46002AA3
:103D1000F2DC7047E844022010B5074C2246074900
:103D200007482AF04BFDFFF7E5FFD4E90001054BFA
:103D3000C3E9000110BD00BF804302203C92031084
:103D40008C2B0320E844022008B5074BD3E900235D
:103D500006481DF08FF9064906481DF08BF9064903
:103D600006481DF087F908BD8043022040920310E9
:103D70008C2B0320509203107020032064920310B8
:103D80002DE9F04780462B4D6B68002098470024B2
:103D90003FE0A14645E028481DF06CF923E0554678
:103DA000013404EB440305EB8303986803786BB399
:103DB00039462AF0B1FE0028F2D020481DF05AF909
:103DC000FFF7C2FF04EB440305EB8303DB68002B22
:103DD000E1D01B481DF04EF904EB440305EB8303CF
:103DE000DB683046984704EB440305EB8303D3F8C4
:103DF00010A05545D3D0DAF8001012481DF03AF95A
:103E0000DAF80430002098475546C9E708F1010860
:103E10004C4664B998F80060002EBAD15F264FF086
:103E200001093746314608481DF024F9B9E7BDE8D5
:103E3000F08700BF042D00209C9203108C92031089
:103E400094920310A89203107892031070B59CB05E
:103E500004462023ADF80430384939481DF00AF9EA
:103E600000258DF83C508DF808502E4611E0A3F146
:103E70003002D2B2092A43D88DF8043001A90FA824
:103E80002AF02AFE20462CF019F8012818D0012526
:103E900001342378002B4CD02E2BEDD0E7D8202BEB
:103EA0002ED1EDB9002EF3D002AE3046FFF7FAFE68
:103EB000314624481DF0DEF800268DF80860E7E75B
:103EC000FFF718FF0FAD204A204928462AF076FC5C
:103ED00029461F481DF0CEF800258DF83C50D7E745
:103EE000FFF708FF0FAD184A184928462AF066FC6C
:103EF000294617481DF0BEF800258DF83C50D1E743
:103F00008DF8043001A902A82AF0E6FD20462BF026
:103F1000D5FF012801D00126BAE702AE3046FFF7EF
:103F2000C1FE314607481DF0A5F800268DF808604F
:103F3000AEE7024B00221A701CB070BDA0F2022046
:103F4000BC920310D0920310E84402203C9203106C
:103F5000C892031030B583B005462023ADF8043075
:103F6000FEF730F9284B01221A600023274A13700C
:103F700007E0274A02EBC30200200021C2E900014A
:103F80000133032BF5DD2148FFF73EFE0024002C12
:103F900038D1FFF725F8FCF7FDFDB0F1FF3FF6D073
:103FA000FCF710FE082821D00D280FD0012806D1DB
:103FB000FEF716F901241548FFF726FEE7E78DF80E
:103FC000040001A911482AF087FDF4E7012D05D06E
:103FD000022D07D00D4B00221A70ECE70B48FFF7BB
:103FE00035FFF7E70948FFF7CBFEF3E7074B1B78F0
:103FF000002BE0D005482BF061FF431E002203494F
:10400000CA54D8E703B030BDBCE80220A0F20220B9
:10401000E844022008B50120FFF79CFF08BD08B561
:104020000220FFF797FF08BD014B00221A6070477E
:1040300018220320014B024A1A60704718220320FD
:104040000000181070477047064B1B68392B07DDBE
:10405000573B05490A6812010A6013430B60704719
:10406000303BF6E7C4FD0220182203207047000011
:10407000014B01221A607047B0FA022008B50021F6
:10408000084619F072FB08B50021084619F06DFBCF
:1040900030B5C1B000240FE022460A4968461CF042
:1040A00083FD9020FDF720FB68462BF007FF0146BB
:1040B0006846FDF725FD0134034B1B68A342EBDC8A
:1040C00041B030BD3C95031018220320F8B51648C6
:1040D0001CF0D0FF154B1C68214615481CF0CAFF88
:1040E0000A34002712E00A201CF086FFF8BD1CF0FD
:1040F00083FF01340135AE4207DD20780D4B1B5C98
:1041000013F0970FF3D12E20F1E70137234613F870
:10411000016BFF2EE7D002341B7832463946064841
:104120001CF0A8FF0025E6E744950310902A002024
:104130005495031019DB04106495031008B501466B
:1041400001481CF097FF08BD8095031010B50A20A8
:104150001CF052FF00240BE0084B04EB440103EB7E
:104160008102526853F8211005481CF083FF013486
:10417000212CF1D90A201CF03FFF10BD682E002031
:104180009495031010B50A201CF036FF002400E0BF
:104190000134282C11D804EB44020B4B03EB8203AF
:1041A0005A6813782A2BF3D004EB4403064911F81C
:1041B000231006481CF05EFFEAE705481CF05AFF92
:1041C0000A201CF019FF10BD00300020A09503103C
:1041D000AC95031030B591B00A201CF00DFF002300
:1041E0008DF808301C4B1C6813E002A91B481CF01A
:1041F00041FF00238DF80830214619481CF03AFF92
:1042000010E02E23ADF80030694602A82AF064FCC5
:104210000134114B1B6803F50073A34212D914F04B
:104220000F0FE2D0257829460E481CF023FF0E4BD5
:104230005B5D13F0970FE4D02A460C4968461CF0EA
:10424000B3FCE1E70A201CF0D7FE034A136803F52C
:104250000073136011B030BD1822032064A803104E
:10426000D095031094DF031019DB0410CCDF03108A
:1042700008B5034B034A1A60FFF7ACFF08BD00BF47
:10428000182203200000181008B505481CF0F2FEA3
:104290000020FDF769FD03481CF0ECFE08BD00BFDF
:1042A000D8950310E895031008B5054B93F9001055
:1042B00004481CF0DFFE0020FDF756FD08BD00BFDE
:1042C0003C300320F495031070B58CB0234C94F966
:1042D0000010413122481CF0CDFE08AA09A90AA805
:1042E000FDF7B2FA089A0A991E481CF0C3FE0DF1B8
:1042F0002F0633466A4694F900100120FDF704F9B1
:1043000033466A4694F900100320FDF7FDF818E0E3
:104310009DF82F00FDF7E8F908AA09A90AA8FDF7FA
:1043200093FA099B9DF82F2069460F481CF0A2FEC6
:104330000DF12F036A46094991F900100420FDF799
:10434000E3F80028E4D10DF12F036A46034991F9FF
:1043500000100220FDF7D8F80CB070BD3C300320EF
:1043600004960310189603104096031008B5FFF743
:10437000ABFF08BD10B51B211C481CF07BFE1C4880
:104380001CF049FE1B211B481CF074FE1A4C2368CC
:10439000B3FA83F35B09236018481CF06BFE0A2014
:1043A0001CF02AFE2368FBB1154916481CF062FE7A
:1043B0000A201CF021FE14481CF05CFE13481CF07F
:1043C00059FE13481CF056FE12481CF053FE1248CA
:1043D0001CF050FE0A201CF00FFE08481CF04AFE9C
:1043E0000A201CF009FE10BD0C49DEE740880310CE
:1043F0006896031074960310682B03207C960310B4
:104400005C960310A8960310C0960310D496031070
:10441000E4960310F89603101097031060960310AB
:1044200010B51B211F481CF025FE1F481CF0F3FD92
:104430001B211E481CF01EFE1D4C2368B3FA83F39B
:104440005B0923601B4A1368B3FA83F35B091360AB
:1044500019481CF00FFE0A201CF0CEFD2368FBB1AA
:10446000164917481CF006FE0A201CF0C5FD154829
:104470001CF000FE14481CF0FDFD14481CF0FAFD71
:1044800013481CF0F7FD13481CF0F4FD0A201CF043
:10449000B3FD09481CF0EEFD0A201CF0ADFD10BD77
:1044A0000D49DEE740880310689603102897031033
:1044B000682B0320642B03207C9603105C9603106A
:1044C000A8960310C0960310D4960310E496031028
:1044D000F8960310109703106096031010B50A2089
:1044E0001CF08AFD074B93F900301C46FDF7D8FB02
:1044F0000246214604481CF0BDFD0A201CF07CFD4C
:1045000010BD00BF3C3003203497031010B584B0B9
:104510002F4B19782F481CF0ADFD2F4B19682F48F1
:104520001CF0A8FD2E4B19682E481CF0A3FD2E4B45
:1045300019682E481CF09EFD2D4B1B682D4A1268F1
:104540002D4909682D481CF095FD152205212C48A0
:104550001CF090FD2B4B1A682B4B19682B481CF054
:1045600089FD01201FF024FF014629481CF082FD2F
:10457000002409E0274B03EBC403D3E900232146C1
:1045800025481CF077FD0134062C1BDC002CF1D0F3
:10459000204901EBC40351F834205B68601E01EB35
:1045A000C00C51F83010DCF804C0511A63EB0C0C4D
:1045B0000291CDF80CC001900094214617481CF0E0
:1045C00059FDE0E70A201CF017FD04B010BD00BF44
:1045D0003530032054970310902A00206897031069
:1045E00090E802208097031034220320989703104C
:1045F00098E80220301F032018E40220A49703103B
:10460000D4970310144404101044041008980310A5
:1046100028980310484302203C9803105098031038
:1046200008B50420FCF7DAFA08BD000008B5034914
:10463000034B0B60012016F0B1FA08BDB45E0220F6
:104640007898031010B509481CF0E5FC084C214689
:10465000002016F0A3FA0749074B0B60012016F063
:10466000EBFA2146002016F0A9FB10BD7C98031040
:10467000DC5E0220B45E02200C95031008B50249EE
:10468000002016F09BFB08BDDC5E022010B5094C33
:104690002146002016F082FA074B084A1A600848A3
:1046A00016F0F0F8074809F081F92146002016F0CD
:1046B00085FB10BDDC5E0220B45E02200C95031069
:1046C000909803109898031070B598B000251D2D90
:1046D00018DCFFF7B9F90446B0F1FF3F12D02A23E6
:1046E0008DF820302A46084968461CF05DFA694674
:1046F0000DF121002BF0CEFA08A92046FFF798F91A
:104700000135E4E718B070BDA098031000B587B07C
:1047100001AA2AF053F807B000BD000030B5C3B0BD
:1047200002AC01AD23462A460A492AF047F8019A0D
:10473000214609481CF09EFC9DF80400FCF7D4FFBC
:1047400020462BF0BBFB01462046FDF7D9F943B0CC
:1047500030BD00BFB4980310C4980310F0B59BB0EF
:1047600007460E46094C0A4B23602146012016F0ED
:1047700015FA01AD2A46314638462AF01FF8256061
:104780002146012016F058FA1BB0F0BDB45E02209D
:104790007898031000B583B001AA2AF00FF89DF8AD
:1047A0000400FCF7A1FF03B000BD08B59021002074
:1047B000FDF7ACF808BD000008B5044B19680448C3
:1047C0001CF058FCFCF738FF08BD00BF04F50220C0
:1047D000E498031000B5C3B06B4601AA074929F05D
:1047E000EDFF074B1A78074B196807481CF042FC8D
:1047F00002A8FCF75FFF43B000BD00BFF0980310B4
:104800003830032004F50220F898031008B5FCF7AF
:10481000FBFF08BD10B5D2B002AA0023137029F027
:10482000CDFF0BE00A4B1C68FDF73AFA024612ABCB
:10483000214608481CF01EFCFCF7E6FF01AA12A95D
:1048400002A8FCF787FF0028ECD152B010BD00BFD2
:1048500004F502201C99031000B583B001AA29F0C9
:10486000ADFF9DF90400FDF7B5F9044B93F9001075
:1048700003481CF0FFFB03B000BD00BF3C30032029
:104880003099031000B583B001AA29F097FF019871
:10489000FCF730FF03B000BDF0B59BB007460E46F5
:1048A0000B4C0C4B23602146012016F077F901AD2B
:1048B0002A463146384629F081FF256006481CF01B
:1048C000AAFB2146012016F013FA1BB0F0BD00BF71
:1048D000B45E0220789803107096031070B5B2B0E1
:1048E00004460E46014612481CF0C4FB19AD2A4688
:1048F0003146204629F062FF294668462BF0CAF966
:1049000069460C481CF0B6FB0B4D2946002016F0FA
:1049100045F90A490A4B0B60012016F0B9F96846BF
:1049200009F044F82946002016F048FA32B070BD6C
:104930004099031048990310DC5E0220B45E022007
:104940000C95031030B5B3B019AA0E4968461CF097
:104950002BF969460C481CF08DFB0C4D29460020B4
:1049600016F01CF90A490B4B0B60012016F090F968
:10497000684609F01BF82946002016F01FFA33B0EC
:1049800030BD00BF5499031048990310DC5E02202B
:10499000B45E02200C95031070B5B2B004460E460A
:1049A000014612481CF066FB19AD2A4631462046E6
:1049B00029F004FF294668462BF06CF969460C483B
:1049C0001CF058FB0B4D2946002016F0E7F80A4969
:1049D0000A4B0B60012016F05BF9684615F052FF98
:1049E0002946002016F0EAF932B070BD4099031054
:1049F00064990310DC5E0220B45E02200C95031063
:104A000070B5B2B004460E46014613481CF032FBA6
:104A100019AD2A463146204629F0D0FE2A460F49D4
:104A200068461CF0C1F869460D481CF023FB0D4D8B
:104A30002946002016F0B2F80B490C4B0B60012000
:104A400016F026F9684615F01DFF2946002016F0DD
:104A5000B5F932B070BD00BF4099031074990310CE
:104A600064990310DC5E0220B45E02200C950310F2
:104A700010B5ADF5966D6A4629F0A0FE0449C1F85F
:104A800000D0012016F004F90DF5966D10BD00BFA1
:104A9000B45E022070B5B2B004460E46014612481C
:104AA0001CF0E8FA19AD2A463146204629F086FE68
:104AB000294668462BF0EEF869460C481CF0DAFAF5
:104AC0000B4D2946002016F069F80A490A4B0B6085
:104AD000012016F0DDF8684609F046FA2946002064
:104AE00016F06CF932B070BD409903108499031030
:104AF000DC5E0220B45E02200C95031008B502496A
:104B0000002016F0A3F908BDDC5E022010B5ADF55B
:104B1000966D6A4629F052FE0449C1F800D0012082
:104B200016F0CEF80DF5966D10BD00BFB45E0220F4
:104B300008B5FCF7EFFD08BD00B589B0002305936B
:104B4000012304931423039304AB009303AB05AA3E
:104B500029F034FE9DF80C008DF80B00FCF7C4FD25
:104B60009DF91400FDF736F806AB0DF10B0207A90D
:104B70000498FCF709FD98B103990B481CF07AFAE8
:104B800007990A481CF076FA069909481CF072FA4F
:104B9000084B93F9001008481CF06CFA09B000BDEE
:104BA00006481CF067FAF9E794990310A4990310DA
:104BB000B49903103C30032030990310C4990310BA
:104BC00008B50B4B1A68511C19600A4981FB023168
:104BD000D317C3EB6113642101FB132303B108BD99
:104BE00019464FF0FF301DF0A1FBFDF769FBF6E71A
:104BF000B02C03201F85EB510148024BC01A7047AF
:104C0000000008204030032000B58BB0684628F033
:104C1000EBFFFFF7F1FF079BC01A0BB000BD0000D0
:104C200000B583B00DF1070105481CF023FAFFF72A
:104C3000EBFF014603481CF01DFA03B000BD00BFA6
:104C4000D8990310F099031008B5064B187001E0CD
:104C5000FEF7C6F9034B93F90030B3F1FF3FF7D1EC
:104C600008BD00BF6C2A002010B582B02023ADF82B
:104C70000430114B00221A70FFF7A2FF64201CF0D1
:104C800093F9044610F1020FF6D00D2C10D01B2C16
:104C90000ED020461CF0B0F907482BF00FF97F2802
:104CA000EAD88DF8044001A9034829F015FFE3E78D
:104CB000014802B010BD00BFE02A032008B5064835
:104CC0001CF0A9F905481CF0D5F9FFF7CDFF044801
:104CD0001CF0D0F908BD00BF009A0310149A03100D
:104CE000E895031070B582B01E4B00221A601E4872
:104CF0001CF091F908E01D4B04EB440203EB820227
:104D00009368516830469847164B1C6844BBFFF7C0
:104D100057FF174B93F90010164B1B680193164B66
:104D20001B680093154B1B68154A127841311548D2
:104D30001CF0A0F9FFF798FF0646212CE4D804EBFD
:104D400044030A4A52F8235028462BF0B7F802468B
:104D50003146284629F048FF0028CCD00134ECE742
:104D600002B070BDB0FA0220289A0310682E00200D
:104D70003C300320480E03203422032004F5022097
:104D8000383003203C9A031038B505460C4603E042
:104D9000294628F05BF8013420780028F8D138BD86
:104DA00030B5B3B01F481CF036F91F49002015F08C
:104DB000F5FE1E491E4827F0F4FFA0B104461D4928
:104DC000FFF7E2FF1C492046FFF7DEFF204628F0F0
:104DD0000EF81A49164827F0E4FF044680B918482F
:104DE0001CF048F91BE017481CF044F917E0224674
:104DF000C821684628F048F8694613481CF03AF97B
:104E0000A06BE26B216963699A4208BF8842EED1C8
:104E1000204627F0ECFF0449002015F0CFFF33B007
:104E200030BD00BF689A0310DC5E0220789A031040
:104E30007C9A0310AC9A0310709603109CB903106F
:104E4000B89A03108C9A0310088C031008B5034B12
:104E5000196803481CF00EF908BD00BF1822032092
:104E6000D89A031010B584B00023019302930393E2
:104E7000504B1C68002C7FD000201CF095F8044695
:104E800010F1020F00F093804B4B1B68012B0ED0EA
:104E9000022B3FD0002B40F08A801B2804D1464BC8
:104EA00001221A60019082E0FFF7CEFE7FE06D28BC
:104EB0001FD008DC1B280FD05B2821D102903E4B6D
:104EC00002221A6073E06F281AD10120FFF7BCFE9E
:104ED000394B00221A606AE00023364A1360364AD2
:104EE00013601B2135481CF0C5F835481CF0C2F88A
:104EF0005DE00220FFF7A8FE2F4B00221A6056E06B
:104F00000020FFF7A1FE2046FFF79EFE2A4B00225D
:104F10001A604CE043281BD00ADC412811D04228FB
:104F20001DD10420FFF790FE234B00221A603EE0C3
:104F3000442814D10520FFF787FE1F4B00221A607A
:104F400035E00320FFF780FE1B4B00221A602EE0A5
:104F50000620FFF779FE184B00221A6027E0002098
:104F6000FFF772FE0020FFF76FFE2046FFF76CFE92
:104F7000114B00221A601AE020461CF015F810F1BF
:104F8000020F14D0282C12D804EB44030D4A12F857
:104F90002330834201D00134F4E70B4B186004EB5B
:104FA000440402EB84039B689847FFF74FFF04B06B
:104FB00010BD00BF682B0320782B0320E49A031058
:104FC000EC9A031000300020C4FD02200D4B1B683A
:104FD00003B9704770B582B004460D4616461B21D2
:104FE00009481CF047F80096234602332A4602324D
:104FF0001B2106481CF03EF81B2105481CF03AF81E
:1050000002B070BD682B03202C880310009B031096
:105010003C88031070B582B016460E4A12680AB971
:1050200002B070BD04460D461B210B481CF022F84F
:105030002A4607325EB14023009323461B210748CE
:105040001CF018F81B2106481CF014F8E8E7202390
:10505000F2E700BF682B03202C880310009B03108D
:105060003C880310F0B583B004460D4617461E4633
:105070000C481BF0FFFF0F20FDF7EAF92B128DF80B
:1050800004308DF8055001AA022104F0FE00FDF75E
:10509000C3FA44F0010032463946C0B2FDF794FA33
:1050A00003B0F0BD209E0310F0B585B007460D4655
:1050B00016461C4615481BF0DDFF0F20FDF7C8F90A
:1050C00007F0FE030193C5F307278DF80C70EDB2CE
:1050D0008DF80D50FDF706FA0198FDF71BFA3846DA
:1050E000FDF718FA2846FDF715FA002504E014F834
:1050F000010BFDF70FFA0135B542F8DBFDF7FCF9BE
:10510000042018F0DFF8002005B0F0BD209E031049
:105110002DE9F04782B081468A462AB9D9F8003095
:1051200003B19847002513E00846FBF7FFFAF5E7BF
:1051300006EB080105EB450309EBC3039B691B68FC
:1051400000931D4B3A4602315046FBF7BDFA01353C
:1051500005EB450309EBC3039B6953B305EB45041A
:1051600009EBC40420692AF0A9FE0646E368D4F8D6
:105170000480A7680344114A019202330093104B44
:105180003A4641465046FBF79FFA236900930D4B80
:105190003A4641465046FBF797FA237D012BC7D08C
:1051A000022BD4D105EB450309EBC3039B69984758
:1051B000CDE702B0BDE8F087E8F60310FC3104103B
:1051C000389E031054E7031070B588B00C4696461D
:1051D0001D46144B06AE93E8030086E80300124B0D
:1051E0000DF1080C0FCBACE807008CF800300F4B2A
:1051F000019306982060B288B379A280A3710DF163
:10520000080CBCE80700CEF80000CEF80410CEF879
:105210000820BDF804209DF806302A80AB7008B045
:1052200070BD00BF3C9E0310449E0310312E300021
:1052300008B5064B1B780BB9012008BD00233A22A4
:1052400002211DF0B9FE0020F7E700BF3730032030
:105250004FF480730B604FF40073138070470000AD
:105260001BB112B9024B01221A700120704700BF16
:1052700037300320FF290BD808B594461846064B53
:1052800003EB4121029A61442AF0A2FD029808BD75
:105290004FF0FF30704700BFEC3100200120704715
:1052A000F8B5069DFF291FD80C461E46104901EB94
:1052B0004424A3181F460F481BF0DCFE002402E024
:1052C0001BF09AFE0134AC4207D2305D0A4A12F854
:1052D00000C01CF0970FF5D0F2E72A463146384659
:1052E0002AF076FD2846F8BD4FF0FF30FBE700BFFF
:1052F000EC310020549E031019DB041008B5002384
:10530000202205211DF058FE4FF0FF3008BD00009F
:10531000002136E0214B1B684FF0010242EC403087
:105320001F4B1B684FF0000242EC403042EC403013
:1053300042EC403042EC403042EC403042EC4030F5
:1053400042EC403042EC403042EC403042EC4030E5
:105350004FF0010242EC403042EC403042EC403031
:1053600042EC403042EC403042EC403042EC4030C5
:1053700042EC403042EC403042EC40304000C0B2A1
:105380000131072909DC10F0800FC3D1034B1B68E2
:105390004FF0000242EC4030C2E770471444041062
:1053A0001044041010B582B04FF0000300228DF8B5
:1053B00004208DF80500084A126843EC4020074A93
:1053C000146843EC4040FFF7A3FF4FF0010343ECA8
:1053D000404002B010BD00BFFC430410F84304106D
:1053E00030B583B000238DF804308DF80500094BEB
:1053F0001B684FF0010545EC4030074B1C684FF02F
:10540000000343EC4040FFF783FF45EC404003B00E
:1054100030BD00BFFC430410F843041008B5274B0F
:105420001A684FF0010343EC4020254A126843EC10
:105430004020244A126843EC4020AE20FFF7B2FF20
:10544000D520FFF7AFFF8020FFF7ACFFA820FFF7C4
:10545000A9FF3F20FFF7A6FFD320FFF7A3FF0020FF
:10546000FFF7A0FF4020FFF79DFFA620FFF79AFF60
:10547000A420FFF797FFA120FFF794FFC820FFF7B4
:1054800091FFDA20FFF78EFF1220FFF78BFF8120BC
:10549000FFF788FF8F20FFF785FFD920FFF782FFF6
:1054A0002520FFF77FFFDB20FFF77CFF3420FFF78D
:1054B00079FFAF20FFF776FF08BD00BF004404105E
:1054C000F8430410FC430410002303E0034A0021C6
:1054D000D1540133B3F5806FF8D3704718600220C0
:1054E000802829DC3C2927DC9AB10B4600290EDBF9
:1054F000DB1000EBC310DFF848C01CF8003001F0EF
:10550000070101228A4013430CF800307047CB1D7D
:10551000EEE70B46914210DBDB1000EBC310DFF827
:1055200020C01CF8002001F0070101238B40DB4361
:105530005BB213400CF800307047CB1DECE700BFA6
:10554000186002202DE9F04F83B0074688469B463D
:105550009DF830300093A2F120090C464FF0000A6C
:10556000019249E0019BB3F5807F0FD040F2011119
:105570008B4201D14FF06009009B53B109EB490008
:10558000264901EB800111F80A5042E04FF05F0913
:10559000F2E709EB4900214901EB800111F80A50BB
:1055A00085F0FF0535E01E4901EB091111F80A509D
:1055B00085F0FF052DE0012221463846FFF790FFD8
:1055C0006D00EDB20134E4B2A4EB08035B450CD0EE
:1055D0000136F6B2072E0BD815F0800FEBD1002262
:1055E00021463846FFF77CFFEAE70137FFB2444621
:1055F0000AF101035FFA83FADA450CD2BBF10C0F12
:10560000B0D0009B002BCED0054901EB091111F859
:105610000A500026DEE703B0BDE8F08F3C4C0410D2
:105620004C46041038B5002501E00135EDB2072DD8
:1056300015D8A5F15000C0B2FFF7B4FE0020FFF767
:10564000B1FE1020FFF7AEFE00247F2CEDDC04EB52
:10565000C513034AD05CFFF7C3FE0134F5E738BD3C
:1056600018600220002303E0034A0021D1540133D3
:10567000B3F5004FF8D370471864022008B5FD2039
:10568000FFF790FE1220FFF7ABFEFD20FFF78AFE2A
:10569000B120FFF7A5FEAE20FFF784FEA420FFF7A0
:1056A00081FE1520FFF77EFE0020FFF799FE7F2088
:1056B000FFF796FE7520FFF775FE0020FFF790FEBE
:1056C0007F20FFF78DFEB320FFF76CFEF120FFF780
:1056D00087FECA20FFF766FE7F20FFF781FEA0202D
:1056E000FFF760FE6520FFF77BFEA120FFF75AFE63
:1056F0000020FFF775FEA220FFF754FE0020FFF701
:105700006FFEAB20FFF74EFE0120FFF74BFEB420EB
:10571000FFF748FEA020FFF763FEB520FFF760FE0D
:105720005520FFF75DFEC120FFF73CFEC820FFF7C4
:1057300057FE8020FFF754FEC020FFF751FEC72020
:10574000FFF730FE0F20FFF74BFEB120FFF72AFED8
:105750003220FFF745FEB220FFF724FEA420FFF71A
:105760003FFE0020FFF73CFE0020FFF739FEBB2084
:10577000FFF718FE1720FFF733FEB620FFF712FEE3
:105780000120FFF72DFEB520FFF70CFE0B20FFF7E1
:1057900027FEBE20FFF706FE0520FFF721FEA6200C
:1057A000FFF700FEFFF75EFFAF20FFF7FBFD08BD30
:1057B0007F280BDC7F2909DC00EBC1104300044982
:1057C0004FEA122C01F810C00133CA54704700BFD1
:1057D000186402207047000010B51520FFF7E2FDA5
:1057E0000020FFF7DFFD7F20FFF7DCFD7520FFF7CE
:1057F000D9FD0020FFF7D6FD7F20FFF7D3FD5C2009
:10580000FFF7D0FD002404E0044B185DFFF7E8FD2E
:105810000134B4F5004FF7D310BD00BF1864022067
:1058200010B5044615481BF025FC154B1C70032CC5
:105830001DD009D8012C11D0022C17D111481BF012
:1058400019FCFFF7EBFD11E0042C0FD10E481BF003
:1058500011FC16F0BDFD16F031FC07E00B481BF003
:1058600009FC0A2017F02EFDFCF7EAFB10BD0848E2
:105870001BF000FCFFF702FFF8E700BF6C9E03106F
:1058800035300320889E0310A89E0310789E0310D5
:10589000989E031008B50D4B1B78032B11D008D828
:1058A000012B0BD0022B0BD1FFF70EFEFFF7BAFE38
:1058B00006E0042B04D116F001FC01E0FBF7D8F858
:1058C00008BDFFF7CFFEFFF787FFF9E7353003206C
:1058D00000B583B0234B1B78032B2ED013D8012B9C
:1058E00021D0022B27D101EB4101890000EB4000C0
:1058F0004000012300930C2301F0FC0100F0FE00A6
:10590000FFF720FE17E0042B15D100EBC000164B6B
:10591000188001EB410301EB8301144B1980D0B2D5
:1059200016F09CFB07E0A0EB80004000C1F10301F2
:105930007F30FBF773F803B000BD01EB4101890034
:1059400000EB400040004FF47F430193012300939C
:105950000C23D2B201F0FC0100F0FE00FFF73AFF89
:10596000E9E700BF353003202A3003202C30032024
:1059700008B50D4B1B78032B11D008D8012B0BD089
:10598000022B0BD1FFF7A0FDFFF74CFE06E0042B26
:1059900004D116F093FB01E0FBF76AF808BDFFF7AE
:1059A00061FEFFF719FFF9E73530032008B50C4B0E
:1059B0001B78032B10D007D8012B0AD0022B0AD159
:1059C000D2B2FFF78DFD06E0042B04D116F020FDC6
:1059D00001E0FAF7ABFF08BD92B2FFF7E9FEFAE784
:1059E0003530032008B5064B1B78022B04D0032B5F
:1059F00004D1FFF7F1FE01E0FFF714FE08BD00BF80
:105A000035300320084B1B78032B04D9042B08D115
:105A10004FF4A07070475BB20BB1802070470A2032
:105A200070470A20704700BF353003200B4B1B78AE
:105A3000032B0BD005D8012B0AD0022B0AD1402012
:105A40007047042B08D14FF4A07070472020704796
:105A5000202070470A2070470A2070473530032005
:105A60000FB410B5CCB0104B1B687BB14FAA4B9252
:105A70004E99684628F01AFF69460C4B1868FFF7E4
:105A800083F94CB0BDE8104004B0704708481BF0E3
:105A9000C2FA0849084827F084F9044B1860024B01
:105AA00001221A60E2E700BFD8E80220D4E8022011
:105AB000BC9E0310CC9E0310D09E03100EB430B5D4
:105AC000E6B0054669AA52F8041B659201AC20466F
:105AD00028F0ECFE21462846FFF756F966B0BDE8EF
