:020000041000EA
:1000000000B5324B212058609868022188439860DF
:10001000D860186158612E4B002199600221596106
:100020000121F02299502B49196001219960352056
:1000300000F044F80222904214D00621196600F024
:1000400034F8196E01211966002018661A6600F04E
:100050002CF8196E196E196E052000F02FF8012189
:100060000842F9D1002199601B49196000215960AB
:100070001A491B48016001219960EB211966A021F2
:10008000196600F012F800219960164914480160C1
:100090000121996001BC002800D000471248134993
:1000A000086003C880F30888084703B5996A0420EC
:1000B0000142FBD001200142F8D103BD02B5186610
:1000C0001866FFF7F2FF186E186E02BD00000240BE
:1000D000000000180000070000035F00212200005C
:1000E000F4000018222000A00001001008ED00E03C
:1000F00000000000000000000000000074B24E7A12
:1001000000200420F7010010C3010010C5010010F9
:10011000C1010010C1010010C1010010C101001097
:10012000C1010010C1010010C1010010C701001081
:10013000C1010010C1010010C9010010CB01001065
:10014000CD010010CD010010CD010010CD01001037
:10015000CD010010CD010010CD010010CD01001027
:10016000CD010010CD010010CD010010CD01001017
:10017000CD010010CD010010CD010010CD01001007
:10018000CD010010CD010010CD010010CD010010F7
:10019000CD010010CD010010CD010010CD010010E7
:1001A000CD010010CD010010CD010010CD010010D7
:1001B000CD010010CD010010CD010010CD010010C7
:1001C00000BE00BE00BE00BE00BE00BE00F04BF888
:1001D000103800BEF2EB8871EC40011014410110A0
:1001E0003402001090A31AE700202149086006C8D5
:1001F00081F3088810471F48006800282FD10DA4FC
:100200000ECC002902D000F012F8F9E71A491B4A77
:10021000002000E001C19142FCD1194988471949E9
:1002200088471949884700BEFDE701C901C29A42C3
:10023000FBD3704714410110C0000020701E012044
:10024000C45E02100000042000000420C45E0210FE
:1002500000100420001004200000000070470B482C
:1002600007F0C4FD0047EFF30580C0B270470000FF
:1002700008ED00E0000000D0701E0120C89C0220A4
:1002800021610010CD050010456200105756000096
:1002900006005250ABB36053D832011006005250E2
:1002A000861C0302E8320110060052505422A29D1F
:1002B000F832011005005250DE65F468C45E021089
:1002C000F8B5C0460448054B10B5834203D0044B33
:1002D000002B00D0984710BD701E0120701E012019
:1002E0000000000006480749091A8B10C90FC918F9
:1002F00010B5491003D0044B002B00D0984710BD17
:10030000701E0120701E01200000000010B5074C77
:100310002378002B09D1FFF7D5FF054B002B02D026
:10032000044800E000BF0123237010BD801F01209E
:1003300000000000C81D0110054B10B5002B03D0B4
:100340000449054800E000BFFFF7CCFF10BDC046E0
:1003500000000000841F0120C81D0110F0B54746B1
:10036000CE4680B5274B83B098461C88264B9C42CE
:100370003CD043460443A4B21C80D026802380276F
:100380001B02360664200021B361FF0405F018FA51
:100390001025B9460FE08023DB0173616420002142
:1003A00005F00EFA013D64200021776105F008FA9E
:1003B0006400002D0BD04B466420B361002105F092
:1003C000FFF92304E7D48023DB01B361E6E7D02300
:1003D00080221B0612025A6142460B4B12889A4237
:1003E0000AD003B00CBC90469946F0BD00230093A0
:1003F000009B002BFCD1BCE700230193019B002B49
:10040000FCD1EEE7F62A012009200000F0B5CE4627
:10041000474680B5264B83B098423DD0254BD02629
:100420001C88984684431C80802380271B02360644
:1004300064200021B361FF0405F0C2F91025B9461C
:100440000FE08023DB0173616420002105F0B8F91F
:10045000013D64200021776105F0B2F96400002DB0
:100460000BD04B466420B361002105F0A9F92304A9
:10047000E7D48023DB01B361E6E7D02380221B06AB
:1004800012025A6142460A4B12889A420AD003B0BD
:100490000CBC90469946F0BD00230093009B002BB6
:1004A000FCD1BBE700230193019B002BFCD1EEE7BD
:1004B00009200000F62A0120F0B50124D02584404F
:1004C000C64680272D0600B56420AC610021AC61D2
:1004D00005F076F97F036C616420002105F070F966
:1004E00008260024B8466B686400E4B29B0202D57B
:1004F00001231C43E4B2434664200021AB6105F0B4
:100500005FF9013E642000216F6105F059F9002E6A
:10051000E9D122000321002000F00CFB200004BCE4
:100520009046F0BDF8B5DE4657464E464546E0B526
:1005300001263300D024834024060D0064200021CE
:10054000A36117009B4605F03BF9002F26DD7B1EBB
:100550009E408023DB04B046994600269A4610E070
:100560008023DB0163616420002105F029F94B46FB
:10057000642000216361013605F022F96D00B74265
:100580000CD053466420A361002105F019F94346BD
:100590001D42E5D18023DB01A361E4E7D0235A4665
:1005A0001B065A613CBC90469946A246AB46F8BD34
:1005B00010B503F035FE00F0E7FC02F0D9FD03F0C2
:1005C000FFFC02F061FB04F0A7F910BD10B51B2081
:1005D00004F0FAF9D024802324061B0563620D2061
:1005E000636104F0F1F90E2004F0EEF90F2004F03D
:1005F000EBF9162004F0E8F9152004F0E5F91A20CB
:1006000004F0E2F9132004F0DFF9142004F0DCF91F
:10061000122004F0D9F9002004F0D6F9012004F0EA
:10062000D3F9022004F0D0F9032004F0CDF904201E
:1006300004F0CAF9052004F0C7F9062004F0C4F953
:10064000072004F0C1F901220021002004F0A4F9E0
:1006500001220021012004F09FF901220021022043
:1006600004F09AF901220021032004F095F90122F7
:100670000021042004F090F901220021052004F05B
:100680008BF901220021062004F086F901220021C5
:10069000072004F081F90A2004F096F90B2004F0F9
:1006A00093F90C2004F090F9112004F08DF910203A
:1006B00004F08AF900220121102004F06DF90121D3
:1006C0000022112004F068F980238022DB019201CE
:1006D0006362A262636280231B0263628023DB0386
:1006E000636280239B03A3628023DB046362802315
:1006F0001B03636280228023D2025B036362626217
:100700008022D20062628022120162628022520143
:10071000626201206361FFF721FE0A2005F068F89C
:1007200000F046F800F026F908F02AFE01F0B6FBCA
:10073000FA20C00005F05CF8074808F0BFFC012172
:100740000020064A00F098F900210020044A00F039
:1007500093F903F02DFEFCE7C81D0110DC1D01100C
:10076000EC1D011000B583B06A4680231371793BFC
:10077000034050204042184350710221782001AAC2
:1007800003F06EF803B000BD10B5102482B0030969
:1007900001AA234353700F238021184011709170D8
:1007A000D0707C39782003F05BF802B010BDC046F1
:1007B000F0B580266C4C6D4B21881D68314385B0A7
:1007C000280089B208222180FA27FFF7ABFE7F219B
:1007D0002388FF0019402800082221800397FFF793
:1007E000A1FE21880822314389B228002180029786
:1007F000FFF798FE019702F009FE782002F07AFEDA
:10080000802002F077FEAE2002F074FE802002F01D
:1008100071FED52002F06EFE802002F06BFEA0205B
:1008200002F068FE802002F065FEA82002F062FE61
:10083000802002F05FFE1F2002F05CFE802002F0AC
:1008400059FED32002F056FE802002F053FE002015
:1008500002F050FE802002F04DFEAD2002F04AFE74
:10086000802002F047FE8E2002F044FE802002F03D
:1008700041FED82002F03EFE802002F03BFE052023
:1008800002F038FE802002F035FEA12002F032FE98
:10089000802002F02FFEC82002F02CFE802002F003
:1008A00029FEDA2002F026FE802002F023FE12202C
:1008B00002F020FE802002F01DFE912002F01AFEC0
:1008C000802002F017FE3F2002F014FE802002F08C
:1008D00011FE3F2002F00EFE802002F00BFE3F20B2
:1008E00002F008FE802002F005FE3F2002F002FE2A
:1008F000802002F0FFFD812002F0FCFD802002F04C
:10090000F9FD1B4B187802F0F5FD802002F0F2FD96
:10091000D92002F0EFFD802002F0ECFDD22002F0A1
:10092000E9FD802002F0E6FDDB2002F0E3FD8020FF
:1009300002F0E0FD342002F0DDFD802002F0DAFD5F
:10094000A62002F0D7FD802002F0D4FDA42002F002
:10095000D1FD802002F0CEFDAF2002F0CBFD02F0F1
:1009600089FD05B0F0BDC046F82A0120041E011023
:10097000400400208023F0B54746CE469946D03B40
:100980000025984680B5174F83B001AE4B463370B3
:10099000434632002B4302217820737002F060FF3F
:1009A000320004217820019702F05AFF02F02EFD58
:1009B000782002F09FFD402002F09CFD8424013C41
:1009C0000020E4B202F096FD002CF8D10135EDB222
:1009D00002F050FD042DD9D103B00CBC90469946CD
:1009E000F0BDC04680108000032370B504001500E0
:1009F0005B1AD8B2FFF7B6FEA000201A40007F3085
:100A0000C0B2FFF7C1FE02F001FD782002F072FDD6
:100A1000402002F06FFDAA00521901240425154E52
:100A2000B6182200735D1A4058102040520002434D
:100A30009810520020401043DA102240400010432A
:100A40001A11400022400243581120405200024334
:100A500098115200204010434000DB11184302F06F
:100A600049FD013DDDD2002002F044FD02F002FD0F
:100A700070BDC04644040020F0B54646D6464F46F9
:100A8000C0B516789046002E4DD00323591ACBB22C
:100A90009946274B01249A468500451B6D007F35FA
:100AA000EDB201239C4604274846E044FFF75AFE76
:100AB0002800FFF769FE02F0A9FC782002F01AFD79
:100AC000402002F017FDB3009E1956442200F35D4A
:100AD0001A40581020405200024398105200204003
:100AE0001043DA102240400010431A114000224007
:100AF00002435811204052000243981152002040F6
:100B000010434000DB11184302F0F4FC013FDDD23A
:100B1000002002F0EFFC02F0ADFC43461E78063DDB
:100B2000EDB2002EBDD11CBC90469946A246F0BD48
:100B300044040020F0B5D6464F464646C0B584B0C2
:100B400001AF04000D0038002D4907F0EBF83E78A6
:100B5000002E4ED00321491BCBB29946294BA5004C
:100B6000651BB8469A4601246D007F35EDB201231E
:100B70009C4604274846E044FFF7F4FD2800FFF7B1
:100B800003FE02F043FC782002F0B4FC402002F0A7
:100B9000B1FCB3009E1956442200F35D1A40581070
:100BA0002040520002439810520020401043DA10B7
:100BB0002240400010431A114000224002435811C5
:100BC0002040520002439811520020401043400040
:100BD000DB11184302F08EFC013FDDD2002002F051
:100BE00089FC02F047FC43461E78063DEDB2002E1C
:100BF000BDD104B01CBC90469946A246F0BDC0468B
:100C00000C1E01104404002010B500F09DF910BD29
:100C100070B5150012780E00002A09D004002D1AB4
:100C200020003100013400F08FF92A5D002AF7D14D
:100C300070BDC046F8B5294BCE46994605234746B8
:100C40005B424B4480B598467F2701240326F0B2CF
:100C5000FFF788FD3800FFF797FD02F0D7FB7820FB
:100C600002F048FC402002F045FC4D4622002B7863
:100C7000013D1A4058102040520002439810520083
:100C800020401043DA102240400010431A11400067
:100C90002240024358112040520002439811520052
:100CA00020401043DB114000184302F023FCA8450C
:100CB000DCD1002002F01EFC02F0DCFB013EC6D2BB
:100CC000063FFFB2012FC1D10023054A1360054A38
:100CD00013600CBC90469946F8BDC046E80400205D
:100CE000D8240120DC2401200021054B054A19608D
:100CF00013680133032B01DC136070471160FCE7BC
:100D0000D8240120DC240120F0B5DE4645465746B4
:100D10004E46E0B53C4B05789B461C683B4B83B088
:100D20001A680190002D50D003239B1ADBB299461C
:100D3000374BA600A61B80469A46012476007F36D4
:100D4000F6B201239C4604274846E044FFF70AFD1B
:100D50003000FFF719FD02F059FB782002F0CAFBC2
:100D6000402002F0C7FBAB005D1955442200EB5D4B
:100D70001A40581020405200024398105200204060
:100D80001043DA102240400010431A114000224064
:100D90000243581120405200024398115200204053
:100DA00010434000DB11184302F0A4FB013FDDD2E9
:100DB000002002F09FFB02F05DFB43461D78063EDB
:100DC000F6B2002DBDD15B461C6801980CF050FABC
:100DD0002418142C08DC5B461C6003B03CBC904615
:100DE0009946A246AB46F0BD5B4600221A60074B0F
:100DF0001B6801930133032B02DD044B1A60ECE7FF
:100E0000024A1360E9E7C046D8240120DC2401200F
:100E100044040020FA2010B50124064B40001C6059
:100E200004F0E6FC044B1B689C40D0231B069C612D
:100E300010BDC046782A0120081E0110344A10B5A2
:100E40001368040001331360B02382B09B00984202
:100E500055D024D9C0239B00984232D040339842C9
:100E60001BD180212B4A2C4C1088238801407F20E5
:100E700001339BB223804340194389B21180082279
:100E8000264B1868FFF74EFB0220254923884A7D30
:100E9000DB120340824313434B7502B010BD013B8C
:100EA000FF3B98421AD040339842F6D18020400050
:100EB000FFF754FA2000FFF751FA642004F098FC81
:100EC000EBE700238021144C2380124B1A88114039
:100ED0007F2211431980773A104BD2E703F062F872
:100EE000FA2001240F4B40001C6004F081FC0E4BE3
:100EF0001B689C400193D0231B069C61CDE780209A
:100F00004000FFF783FA80208000FFF77FFAC4E7F4
:100F1000842A0120F82A0120FA2A0120041E011047
:100F200000450120782A0120081E01108023044A70
:100F30005B42517C0B4353740122024B1A70704781
:100F400000450120BC0D0020074B10B51C684B006C
:100F50005918CB00591A6418235C0449CA54012259
:100F6000034B1A6010BDC0469C4401200846022075
:100F70004C2501200122024B1954024B1A60704784
:100F8000984401204C250120F0B5DE4657464E46D8
:100F90004546E0B5052083B002F032FA5D4B5E496C
:100FA0001A68002A03D10A68002A00D1A4E00022AE
:100FB0005A4F1A603B680A60002B00DAA2E0584BD7
:100FC00000249946574B9B46574B9846574B9A4699
:100FD0000EE0574B2000196806F036FF03002A0088
:100FE00008001900FFF700FD3B680134A34239DB1C
:100FF0004B465A461B681B5DD55C424612689342BD
:10100000E7D153461B68002BE3D04A4B1B68002BEB
:1010100007D0494B1B68002B06D0019580256D0039
:10102000D7E7454B1B6801938021AB005B19019505
:101030000225424A4942D05C414E08439055D3189C
:101040005878404E0843905598783F4E0843905545
:10105000D8780136084390551B79FF350B433B493F
:101060005354B6E71421200006F0EEFE1421824608
:10107000200006F0E9FE8946354B00269846434697
:1010800031009A5D14200136FFF7AEFC042EF6D134
:101090006A1EFF3A2B00012A26D92E4AD35C682209
:1010A00093431FD05346162058434B462A4EEDB269
:1010B00035552A4C2018C5543D6859462A00284801
:1010C00007F0A0FE00232B22A3541632A35416329D
:1010D0006375A354735503B03CBC90469946A24631
:1010E000AB46F0BD2025DDE7019D1A4A2B00D35CFD
:1010F00068229343D6D1F5E70A4B084F9B46164E1C
:10110000164CD9E7002399469A46064B00249B4685
:10111000B2E7C0464C250120D424012090090020CC
:101120009C440120084602209C290120A42901207A
:1011300094090020D0240120A0290120440400208B
:101140000505000006050000070500000905000070
:10115000984401205535011024410120A04401206C
:1011600020400120E02330B55B00040083B09842AA
:1011700000D123E10BD817281FD8022865D9C31E38
:101180009BB2142B57D8A64A9B00D3589F46D02316
:101190009B00984241D039D9E8239B00984200D166
:1011A00034E126D9F0239B00984213D101229D4BB4
:1011B0001A609D4B185D03B030BD0300813BFF3BBF
:1011C0009BB2012B41D88223FF33984200D007E124
:1011D0000020F0E7203398422DD1944A1368002B69
:1011E00000D102E18021C9018C46634400201360D4
:1011F000E1E7403B984200D10BE12033984224D1F3
:101200000022884B1A60884B185DD4E7803B9842D7
:1012100000D1CDE04033984204D12000FFF70EFE0C
:101220000020C8E7803B98420FD10420FFF796F8D2
:101230007D4B185DBFE7230400D5A8E08023DB01C8
:101240009C4202D37A4B1B68E418774B185DB2E7D7
:10125000784B1868FFF730F97F2343407E20184011
:10126000D023714C1B0660755B68734A5B0BDB0116
:101270001843022312889843D21213401843607512
:1012800003F006F9607D96E7D0226C4B1206506899
:1012900019685268C8405C680121E2400840C001FA
:1012A0004008114201D080221043D0221206526819
:1012B00099684008CA40D20703D5802252421043A1
:1012C000C0B2D02212065268D9684008CA40D2077C
:1012D00003D5802252421043C0B2D0221206526877
:1012E00019694008CA40D20703D5802252421043F0
:1012F000C0B2D0221206526859694008CA40D207CB
:1013000003D5802252421043C0B2D0221206526846
:1013100099694008CA40D20703D58022524210433F
:10132000C0B2D02212065268DB694008DA40D30707
:1013300003D580235B421843C0B29621404A49003E
:1013400013688B4200DB36E7E2253E495C006554BA
:1013500001330919487013602DE73B4B18782AE7D1
:101360003A4B187827E73A4A1378D9B2012B41D083
:10137000022900D069E7122800D066E70323137022
:101380007F22294B597C0A405A74185D13E7C02309
:101390001B029C4205D92F4B9C4664442E4B185D82
:1013A00009E72C4B9C46214B644418682418F5E748
:1013B0000420FFF72BF81C4B185DFCE602F0F2FD51
:1013C000FA200124254B40001C6004F011FA244B44
:1013D00000201B689C400193D0231B069C61EAE619
:1013E000204B18687F231840E5E680231B0200206D
:1013F0001360E0E60C4B112800D0DBE6597C7F2916
:1014000000D8D7E602211170185DD4E6084A1368A7
:10141000E8E60023064A00201360044A1360CAE687
:10142000141E01109809002000450120682A01209F
:10143000502A0120001E0110FA2A01209C0D0020D4
:10144000C42A012028420120052B0120042B012061
:10145000BC0D00200080FFFFC00D0020782A012075
:10146000081E01109C2901200B4B1A88824206D0CD
:101470001A8A82420BD01A8C82420AD0704700220C
:101480000121064812019B1801605960F6E701220C
:10149000F6E70222F4E7C046600900207429012023
:1014A000012070477047C0460022014B1A60704708
:1014B0008C2A01207323084AD15C643B0B40074906
:1014C000D3188C4606496344096819707421535C2B
:1014D000013353547047C04600450120B02000003E
:1014E000AC98022010B50349034802F02DFA431EC0
:1014F000984110BD882001100890022010B50349C2
:10150000034802F021FA431E984110BD98200110B3
:1015100008900220164AF8B5136801331360154B82
:101520009B69DB0603D5144A136801331360102549
:10153000104C124E124FA3691D4211D1A3691D42D6
:10154000FCD12368DBB2002BF5D032680D49BB54C7
:101550003068013006F078FC3160A3691D42EDD09F
:10156000A3691D4203D1084A136801331360F8BD13
:101570007C2901200080034080290120842901204A
:101580002076022088130000782901207047C04689
:10159000F8B50A4E00243500094F3800296802F0DA
:1015A000D3F9002804D101340835072CF5D1F8BD52
:1015B000E400341963689847F9E7C046FC0F01203E
:1015C000104702205F4AF0B51368DE4659424B418E
:1015D000012157464E4645465B428B431800002387
:1015E000E0B5546897B0584E02AA03AF1375A33004
:1015F000337010223B002100019002F0D7FB8023C2
:101600009B46524BA3449A460F2398460FE040391D
:1016100002AB5B181A700023013102AA521807A806
:101620000CA9013413700BF0AFFDA3452AD0454639
:1016300043462540234266D04246E3171B0FE51878
:101640001540ED1A7A5D51460CA806F06BFB300090
:101650000BF00EFE0CA930180BF072FD68217A5DBC
:101660003B4B81469B5C8B43D1D107A80BF000FE1E
:1016700007AB9C46022237496044013407F0C2FBA5
:10168000A345D4D102223449484607F0BBFB484663
:1016900007A902300BF0E4FD304B314C1A68314B96
:1016A00020001968330006F03DFB20000BF0E0FD40
:1016B0002D4E2E4B020018602D49300006F032FBF3
:1016C0003478002C18D03000002120220D26294B20
:1016D00002255D5F284B002928D1A5422DD09969AC
:1016E0000A42FCD11C60017801300D394C42614145
:1016F0000478C9B2002CEED117B03CBC9046994694
:10170000A246AB46F0BD230007AA1C490CA806F070
:1017100009FB0CA930000BF037FD02AB1D75102240
:101720003B002100019802F041FB85E799690A42DC
:10173000D8D099690A42F9D1D4E799690A42FCD113
:101740001E60CCE7AC980220C8520220C0200110D5
:1017500055350110E81D01100C2D0110E024012069
:10176000AC5E0220080E0120E4970220382A0120F6
:10177000C8200110009A022000800340B020011010
:10178000F0B5D6464F464646414BC0B51C68012CC5
:1017900008D0022C3DD0002C28D01CBC9046994685
:1017A000A246F0BD3B4B1E68002EF6DD3A4B3B4C8B
:1017B0009A4619683A4B00271B6836199846394BE8
:1017C000994606E04A462378013401275355B4422E
:1017D0005BD00D00481CFA21890006F035FB41451D
:1017E000F0D1002FD9D053461D60D6E72E4F2B4E97
:1017F0003D0003E001340835082CCED030002968C4
:1018000002F0A2F80028F5D0E4003C19636898477C
:10181000C3E7204B1D68002DBFDD7423234E1F4AF4
:10182000F15C013BF05C663B00240F279C46AD1841
:101830000FE03C000440A1461D4CB144A0464C467C
:101840004444237001240131C9B201320130AA425B
:1018500015D013780A2BF8D00D2BF6D0042BE8D135
:10186000134C3B00A04664460340F3184344013147
:1018700001321C70C9B201240130AA42E9D1002C06
:1018800000D18AE77423F15487E75346196084E74F
:101890007C230120D0290120802401201047022030
:1018A00084240120985A0220C40D01200045012003
:1018B000B0200000F0B50E4B0E4D19682B68C646DF
:1018C0005C1A631C98460C4F0C4E00B51A0089191F
:1018D000380007F097FA42463900300007F092FAD4
:1018E0000122074B2C601A6004BC9046F0BDC04634
:1018F000B429012070290120506E02200890022096
:10190000CC290120F0B5C64601221C4B00B553215D
:1019100000201A600025FFF72DFB194C194E03E03B
:1019200001350C34282D11D02378032BF8D1310048
:1019300060680BF051FC0028F2D10122124B1D60AF
:10194000124B1A60124A136801331360114D124B87
:10195000124F19682B68124E5C1A631C98461A00C5
:101960008919380007F04EFA42463900300007F076
:1019700049FA2C6004BC9046F0BDC046902A012074
:101980001C0E0120DC200110E82A0120EC2A012095
:10199000C02A012070290120B4290120506E0220A4
:1019A00008900220F8B5CE4647461A4C80B5236809
:1019B000002B1AD0184B194E19683368184F5D1A4E
:1019C0006B1C9946174B4A4698461800C91907F0F0
:1019D00019FA4A464146380007F014FA00233560E8
:1019E00023600CBC90469946F8BD0B4B0B4D196813
:1019F0002B680C4F5C1A631C9846094E1A00891913
:101A0000380007F0FFF942463900300007F0FAF9D4
:101A10002C60E6E7CC290120B4290120702901209F
:101A200008900220506E0220F0B5CE46474680B5A1
:101A30006421022085B0FFF79DFA494C49492000F6
:101A400001F082FF002804D105B00CBC90469946F5
:101A5000F0BD454B454E19683368454F5D1A6B1C08
:101A600098461A003800091907F0CCF939004246A7
:101A7000200007F0C7F93F4F35603B6899461D2BA2
:101A8000E2DC002B67DD3C4B2B2598461C004B46C7
:101A90005D433A4E4544310020000BF09DFB002889
:101AA000D2D02B34A542F6D12B244D464346654374
:101AB000310058190BF0D4FB2800314914304D691E
:101AC0004B680A6803950D6940440295CD680195FD
:101AD000896800912B4906F025F92B4B31001868D5
:101AE0000BF07AFB002803D03B6801333B60ABE787
:101AF0003B68264E5C4322001432300024494244A5
:101B000006F010F93478002CEED0300000212022AD
:101B10000D26204B02255D5F1F4B00290FD1A542EA
:101B200014D099690A42FCD11C60017801300D394A
:101B30004C4261410478C9B2002CEED1D4E79969D6
:101B40000A42F1D099690A42F9D1EDE799690A424E
:101B5000FCD11E60E5E7084B084E9846A4E7C04656
:101B600008900220E4200110B429012070290120EE
:101B7000506E022088240120788A0220D899022001
:101B8000AC98022044210110C00D0120E4970220EE
:101B90002C210110009A022000800340F0B5C646B7
:101BA0006321012000B5FFF7E5F90F4C0F49200034
:101BB00001F0CAFE002802D104BC9046F0BD0C4BD7
:101BC0000C4E196833680C4F5D1A6B1C98461A004E
:101BD0000919380007F016F942463900200007F0CD
:101BE00011F93560E8E7C04608900220582101103D
:101BF000B429012070290120506E0220F0B5C6469C
:101C00006321012000B5FFF7B5F90F4C0F49200003
:101C100001F09AFE002802D104BC9046F0BD0C4BA6
:101C20000C4E196833680C4F5D1A6B1C98461A00ED
:101C30000919380007F0E6F842463900200007F09D
:101C4000E1F83560E8E7C046089002206421011001
:101C5000B429012070290120506E0220F0B5C6463B
:101C600004007221012000B5FFF784F91D4824010A
:101C7000041961681C4C200001F066FE002802D1A6
:101C800004BC9046F0BD194E194B1A4F19683368C1
:101C900038005D1A6B1C98461A00091907F0B2F853
:101CA00020004246390007F0ADF83560124C00259F
:101CB000124E03E001350C34282DE1D02378032B9C
:101CC000F8D1310060680BF087FA0028F2D10122C8
:101CD0000B4B1D600B4B1A600B4A136801331360EA
:101CE000CEE7C046702A011008900220702901201A
:101CF000B4290120506E02201C0E01207421011015
:101D0000E82A0120EC2A0120C02A0120F0B5C646AD
:101D100004006921012000B5FFF72CF910482401C7
:101D2000041961680F4C200001F00EFE002802D15A
:101D300004BC9046F0BD0C4B0C4E196833680C4F38
:101D40005D1A6B1C98461A000919380007F05AF8FA
:101D500042463900200007F055F83560E8E7C046F4
:101D6000702A011008900220B42901207029012056
:101D7000506E0220F0B5C64604006E21012000B569
:101D8000FFF7F8F81248240104196168114C20008B
:101D900001F0DAFD002802D104BC9046F0BD0E4BE4
:101DA0000E4E196833680E4F5D1A6B1C98461A0068
:101DB0000919380007F026F842463900200007F0DC
:101DC00021F8084B35601A68074B1A60E4E7C046F3
:101DD000702A011008900220B429012070290120E6
:101DE000506E0220AC980220C8240120F0B5C646EF
:101DF00004004321012000B5FFF7BCF81D48240171
:101E0000041961681C4C200001F09EFD002802D1DD
:101E100004BC9046F0BD194E194B1A4F196833682F
:101E200038005D1A6B1C98461A00091906F0EAFF83
:101E300020004246390006F0E5FF3560124C0025CF
:101E4000124E03E001350C34282DE1D02378032B0A
:101E5000F8D1310060680BF0BFF90028F2D10122FF
:101E60000B4B1D600B4B1A600B4A13680133136058
:101E7000CEE7C046702A0110089002207029012088
:101E8000B4290120506E02201C0E01207C2101107B
:101E9000E82A0120EC2A0120C02A012010B50021E7
:101EA0001F4803F08DFC0221082002F05DFD022195
:101EB000092002F059FDE1211A4C4902200004F0EA
:101EC000BDF8C022236B12021340174A152013607D
:101ED0001023E26A15491340154A136002F06EFEA2
:101EE0000121152002F032FE5023A363626B183BE0
:101EF0001340104A1048136007F0E0F807F0B4F9F7
:101F00000220FEF783FA642003F072FC0220FEF741
:101F100025FA0023094A1370094A136010BDC04610
:101F200040420F0000800340309003401515001020
:101F30002C9003403490034084210110089002202B
:101F400070290120F0B557464E464546DE4600232F
:101F5000E0B5394F87B003AD2B703B18DB79824673
:101F60000222364E7F2B5BD83000354906F04AFFFF
:101F70005346013398460424324A334B91469B46DC
:101F8000B844042C11D0434649461A5D280005F098
:101F9000C9FE30000BF06CF9290030180BF0D0F8B6
:101FA000631C24D0013C042CEDD153460533FA5C6C
:101FB000594612092800019305F0B4FE30000BF0D9
:101FC00057F9290030180BF0BBF802221F4906F020
:101FD00019FF0F22019B5946FB5C28001A4005F0AF
:101FE000A1FE290030000BF0CFF8013CDBE7032213
:101FF000174906F007FF06225744BA56002A14DB99
:102000004946280005F08EFE290030000BF0BCF890
:10201000300007B03CBC90469946A246AB46F0BDA6
:1020200030000C4906F0EEFEA2E728000A495242B1
:1020300005F078FEE8E7C04600450120845E0220F6
:10204000C42001100C1E0110A4210110E81D011074
:10205000AC210110A0210110B02101100023F0B526
:102060000024324E324D334F91B03370220039008C
:1020700006A805F057FE06A930000BF085F82800E9
:10208000FFF760FF0134010030000BF07DF80835E8
:102090000A2CEBD1284B294C1A68294B1968294B7B
:1020A0000493294B180016380290180003932C381B
:1020B000423B019000932000330005F033FE2000E6
:1020C0000BF0D6F8214A224E1060224A0300126813
:1020D0003000214905F026FE3478002C18D01F4B23
:1020E000300002255D5F202100230D261C4A002BB5
:1020F00010D1A54215D093691942FCD11460037820
:1021000001300D3B5C4263410478DBB2002CEED120
:1021100011B0F0BD93691942F0D093691942F9D119
:10212000ECE793691942FCD11660E4E7C85202203B
:10213000FF200000B8210110E0240120AC5E022045
:10214000040E012008900220E2440120382A0120D8
:10215000E4970220C8240120C4210110009A022023
:1021600000800340F8B557464E464546DE463A4B9A
:10217000E0B59C461860394B04001960384B0F00DD
:102180009A46002352461360364B994601234A462D
:102190001360354B1860354B98461E68002846DDA5
:1021A000320000210023324D324807E0E95C013C57
:1021B000C154013A01210133002C1CD0002AF5DC66
:1021C000002932D05246E9181360F61A63461C60A3
:1021D000294C771C3A00200006F014FE3A0021003A
:1021E000280006F00FFE43461E603CBC9046994610
:1021F000A246AB46F8BD51460B6041460A606246B6
:10220000F61A1460721C92461B4CE918200006F066
:10221000F9FD52462100280006F0F4FD43461E60F9
:1022200000234A461360B847DFE72900D0E7731C54
:102230009B46114B0E4D9A4618005A46290006F04F
:10224000E1FD5A465146280006F0DCFD43461E607B
:10225000002CE5D0C9E7C0468C2401200490022060
:102260004C6E02209C240120D029012070290120DD
:102270000890022010470220506E0220F0B5C6469A
:102280005021022000B5FEF775FE114C11492000C7
:1022900001F05AFB002802D104BC9046F0BD0E4E5E
:1022A0000E4B0F4F1968336838005D1A6B1C984647
:1022B0001A00091906F0A6FD39004246200006F072
:1022C000A1FD084B084958683560FFF74BFFE3E76D
:1022D000089002208820011070290120B4290120D3
:1022E000506E0220AC98022091150010F0B5C64641
:1022F0005021022000B5FEF73DFE114C114920008F
:1023000001F022FB002802D104BC9046F0BD0E4E25
:102310000E4B0F4F1968336838005D1A6B1C9846D6
:102320001A00091906F06EFD39004246200006F039
:1023300069FD084B084918683560FFF713FFE3E7AC
:1023400008900220D821011070290120B429012011
:10235000506E0220AC9802208117001070B51B4807
:102360000AF086FF1A4C1B4B020018601A49200025
:1023700005F0D8FC2278002A18D0184B200002253E
:102380005D5F202400230D261549002B17D19542AF
:1023900010D08B691C42FCD10A60037801300D3BE0
:1023A0005A4253410278DBB2002AEED101220D4B92
:1023B0001A6070BD8B691C42FCD10E60E9E78B6925
:1023C0001C42E9D08B691C42F9D1E5E7AC5E0220E2
:1023D000E4970220382A0120E8210110009A022007
:1023E000008003408C2A012010B51C2203490448B8
:1023F00006F008FDFFF7B2FF10BDC046FC2101103A
:10240000AC5E022010B5064B06495A681B680648A8
:10241000CA54064905F086FCFFF7A0FF10BDC04670
:10242000AC98022000450120AC5E02201822011069
:102430004C4AF0B51368454659424B4101215B4275
:102440008B431800484BDE46984657464E46546824
:1024500000234246E0B597B0137003AF02AA13758C
:10246000A3303B0010222100019001F09FFC80234B
:102470009C46A44463460093002399463B4B9B46ED
:102480000F239A4610E0403902AB5B181A70002304
:10249000013102AA521807A80CA913700AF074FEA1
:1024A000009B0134A34229D0554653462540234280
:1024B00042D001239C464E46E144BA5D59460CA8E1
:1024C00005F030FC40460AF0D3FE0CA940440AF067
:1024D00037FE6821BA5D264B05009B5C8B43D2D149
:1024E00007A80AF0C5FE07AB9C46022221496044BA
:1024F00006F088FC009B0134A342D5D102222800BB
:102500001D4906F07FFC07A9A81C0AF019FE03224A
:102510001A49040006F076FC4346E21A41460332AB
:10252000174806F06FFCFFF719FF17B03CBC904648
:102530009946A246AB46F0BD230007AA11490CA854
:1025400005F0F0FB0CA940460AF01EFE02AB1D751B
:1025500010223B002100019801F028FC01230026F5
:102560009946AAE7AC980220C8520220C020011068
:1025700055350110E81D01100C2D0110A824011083
:10258000AC5E02202C22011000B50A4B0A4985B02E
:10259000029119002C31019119001A001631163AD6
:1025A00000910648064905F0BDFBFFF7D7FE05B0D0
:1025B00000BDC046B644012008900220AC5E022057
:1025C0003822011010B50C4C82B0A268206801AB13
:1025D0001A70424250410122404290436168A33048
:1025E00001F0FEFB236862680449054805F09AFB88
:1025F000FFF7B4FE02B010BDAC9802201822011003
:10260000AC5E0220F8B5CE46474680B56D4A1378D9
:10261000002B04D16C4B6D4A1B789B009A586C4C74
:102620006C49200005F07EFB6B4E210030000AF063
:1026300087FD050004226949200006F0E3FB04221F
:102640002100280006F0DEFB654F3B68002B17DDFC
:10265000644B00259946644B98464B461B685819B5
:1026600080B2FEF77FFD41460200200005F05AFBD4
:10267000210030000AF088FD3B680135AB42ECDCFC
:102680005A4D5B492A88200005F04CFB21003000A0
:102690000AF07AFDAA885749200005F043FB210083
:1026A00030000AF071FDAA795349200005F03AFB89
:1026B000210030000AF068FDEA795049200005F059
:1026C00031FB210030000AF05FFDEB79AA794C491B
:1026D000200005F027FB210030000AF055FD6A8834
:1026E0004849200005F01EFB210030000AF04CFD97
:1026F0004549464B08682A7A186088889880897905
:10270000997143490878FF2835D0104241D1887823
:10271000FF2830D010423FD10879FF282BD010423B
:102720003DD18879FF2826D010423BD1087AFF2876
:1027300021D0104201D0487A1871887AFF281AD027
:10274000104201D0C87A5871087BFF2813D010427C
:102750002BD1887BFF280ED0104229D1087CFF287E
:1027600009D01D00104226D0487C0135E871887CD4
:102770000231FF28F6D12000264905F0D3FA2100C6
:1027800030000AF001FDFFF7E9FD0CBC90469946C8
:10279000F8BD48781870BAE7C8785870BCE748792F
:1027A0009870BEE7C879D870C0E7487B9871D0E7C9
:1027B000C87BD871D2E7887C01350231FF28D1D19E
:1027C000D9E7C046D4290120014602209C090020F7
:1027D000C852022054220110AC5E0220582201107F
:1027E000044602200C4702205C2201108444012090
:1027F00064220110702201107C2201108822011035
:1028000094220110A4220110C4220110100E0120F4
:1028100050090020B022011070B51A480AF028FDB6
:10282000194C1A4B020018601949200005F07AFA79
:102830002278002A18D0174B200002255D5F202443
:1028400000230D261449002B14D195420DD08B691D
:102850001C42FCD10A60037801300D3B5A425341BF
:102860000278DBB2002AEED170BD8B691C42FCD12C
:102870000E60ECE78B691C42ECD08B691C42F9D1ED
:10288000E8E7C046AC5E0220E4970220382A012027
:10289000C8200110009A02200080034000B5094AB8
:1028A000094909CA094A83B01354094A09681268D8
:1028B000019000930748084B05F034FAFFF7ACFF8E
:1028C00003B000BDAC9802200C0E01200045012091
:1028D000E0240120AC5E0220CC220110F0B54E466F
:1028E000DE4657464546E0B593B000236A46384E6B
:1028F00013733370374B00249846374B9B46374B46
:102900009A46374B99460FE06B4648395B181A7068
:102910006A4600230131521803A808A90134137034
:102920000AF032FC802C26D00F231D0025402342C4
:102930003FD0434659461A5D08A81F1905F0F2F921
:1029400030000AF095FC08A930180AF0F9FB68215C
:102950003A78244B05009B5C8B43D5D103A80AF041
:1029600087FC03AB9C4602221F496044013406F0F9
:1029700049FA802CD8D1022228001C4906F042FADC
:1029800003A9A81C0AF0DCFB0322194906F03AFA55
:10299000184B19481A68194B1968330005F0C2F929
:1029A000FFF73AFF13B03CBC90469946A246AB46AF
:1029B000F0BD5346494603AA009408A805F0B2F9B1
:1029C000300008A90AF0E0FB6B461D73B1E7C04672
:1029D000C852022000450120C0200110D42201105D
:1029E000DC22011055350110E81D01100C2D0110DD
:1029F000A8240110E0240120AC5E0220080E012072
:102A000010B50F4C84B0A268206803AB1A70424224
:102A100050410122404290436168A33001F0E0F947
:102A2000084B09481A68094B196863680193A36841
:102A30000093074B05F076F9FFF7EEFE04B010BDEA
:102A4000AC980220E0240120AC5E02200C0E012094
:102A5000E8220110F0B55746DE464E4645460023B3
:102A6000E0B5354F95B002AA3B70137380339B4697
:102A7000324B04009946324B03919A460F2383440C
:102A800098460FE0483902AB5B181A7000230131F9
:102A900002AA521805A80AA9013413700AF074FB9F
:102AA0005C4526D0454643462540234235D04B461B
:102AB00051461A5D0AA81D1905F034F938000AF0CC
:102AC000D7FB0AA938180AF03BFB68212A781D4B6E
:102AD00006009B5C8B43D5D105A80AF0C9FB05AB6A
:102AE0009C46022218496044013406F08BF95C458B
:102AF000D8D102223000154906F084F905A9B01C8E
:102B00000AF01EFB0322124906F07CF915B03CBC0A
:102B100090469946A246AB46F0BD039B0D4905AAD7
:102B200000940AA805F0FEF838000AA90AF02CFB68
:102B300002AB1D73BBE7C046C8520220004501200E
:102B4000C020011055350110E81D01100C2D011099
:102B5000A8240110DC220110084B10B518680849A0
:102B6000FFF778FF074B08481A68084B1968084BAD
:102B700005F0D8F8FFF750FE10BDC046AC98022013
:102B8000D4220110E0240120AC5E0220080E0120B6
:102B9000C852022010B5064B06491868FFF75AFFC5
:102BA0000549064805F0BEF8FFF7D8FB10BDC04642
:102BB000AC980220A8240110C8520220AC5E02206A
:102BC00010B52E4B020019682D480160998881804C
:102BD0009B7983712B4B1978FF2935D00A4234D168
:102BE0009978FF2930D00A4232D11979FF292BD0A8
:102BF0000A4230D19979FF2926D00A422ED1197A7A
:102C0000FF2921D00A4201D0597A0171997AFF290E
:102C10001AD00A4201D0D97A4171197BFF2913D009
:102C20000A421ED1997BFF290ED00A421CD1197C81
:102C3000FF2909D004000A4219D0597C0134E171FE
:102C4000997C0233FF29F6D110BD59780170C7E78E
:102C5000D9784170C9E759798170CBE7D979C170CA
:102C6000CDE7597B8171DDE7D97BC171DFE7997CC5
:102C700001340233FF29DED1E6E7C046C422011049
:102C8000100E012050090020F0B5DE4657464E4692
:102C900045460023E0B587B0C64C0593C64B206877
:102CA0001B6883420BD01122C44B9A56597C002AD0
:102CB00005DBC34A157A10222A4200D1FAE0C14B43
:102CC0009A461B68012B00D1CDE0BF4B0A211A6840
:102CD00001321A60186805F0B7F800290CD1BB4C16
:102CE0002368002B00D098E020210320FEF742F952
:102CF00023685A4253412360B54DB64E2A68336863
:102D00009A421BD0B44BB54F9946B54B98462023F9
:102D100004AA13802B68B3495A1C2A60FC5C04ABDC
:102D2000E4B228681C7005F08FF82960142C79D063
:102D3000002C63D12A6833689A42E8D1AA4B1C68F8
:102D4000002C00D0C8E0A44BA84A99461B78D35C5D
:102D50001B071FD5A24B4F469A461D68A44B9846A9
:102D600001234B449B465346A2461C002A00594669
:102D7000404606F047F82A004146380006F042F87F
:102D80009A4A3B786E1ED35C0822350026601A42B0
:102D9000ECD15446974D0DE0022B07D12000AB68D3
:102DA0009847002802D02000EB689847013410357E
:102DB000262C0CD02B78012BEED14846696800F008
:102DC000C3FD0028EFD101341035262CF2D18A4BF7
:102DD0001A68002A40D0894E3268002A00D0D9E013
:102DE000874C884D2068420011188900695C0629CB
:102DF00000D9BAE0844F890079588F46484604A923
:102E00000AF0C2F9434642461B68013313602A6840
:102E100033689A4200D07AE790E703205731FEF7F3
:102E2000A9F865E753461B680321581C05F00CF808
:102E30005346764D0C0019600C222800744905F0A9
:102E4000E1FF012C00D193E0022C00D19CE0002C8A
:102E500000D193E0FFF782FA07B03CBC9046994658
:102E6000A246AB46F0BD6B4B1C68002C00D02CE793
:102E7000694B1E68694B196899468E4200D124E758
:102E8000674B7F279846614D2C70013D4346481C97
:102E90005B5CFA2101343B402B55890004F0D4FFE0
:102EA0008E42F3D14B461E60002301352B55FFF7B0
:102EB00055FA0AE70A4200D101E7FA21594A890086
:102EC000125C01309A7404F0BFFF2160FEF72EF807
:102ED0005548FEF7C9FAF2E6544B99461B68002B99
:102EE0002DDD3F4A3C4E14680293E31A0193731C94
:102EF00092469B463E4F0394002CADDD3378220072
:102F000059463800984605F07DFF22003900300010
:102F100005F078FF5346464A651E1D601368591C2C
:102F200011604146434AD154029B039A013B9B1ACC
:102F30004A461B191360019A2C00AA42DCD1002BCF
:102F400000D089E7284A13603B4B1B68984783E70A
:102F500013189B00EB189B689847206843001B18C8
:102F60009B00EB5C042B00D176E70130206073E717
:102F700010222800314905F045FF6BE7092228009F
:102F80002F4905F03FFF65E70E2228002D4905F087
:102F900039FF5FE702F01AFD2B4A53688B4200D9D4
:102FA0005AE703D11368834200D955E70023336001
:102FB00052E7C046842401208024012000450120DE
:102FC000844401207C230120E0240120180E0120EC
:102FD00088290120842901200890022020760220DF
:102FE00070290120881300009C2401205535011010
:102FF000506E0220702A0110EC2A0120E42A0120E0
:10300000E82A01201C0E01202C230110AC5E0220B6
:10301000F02201108C2A0120902401209424012008
:10302000E04E0220985A0220F0FF00008C2401207C
:103030004C6E022010470220049002200823011049
:10304000FC22011018230110781F0120414D2F7818
:10305000002F8AD0404B0D2102269E5F0023984608
:103060008C46202241463D4B00290FD1BE4214D050
:1030700099690A42FCD11F60297801350D394F4208
:1030800079412F78C9B2002FEED16EE799690A42D3
:10309000F1D099690A42F9D1EDE799690A42FCD168
:1030A00061461960E4E700221A60D5E62C4B984689
:1030B00013189B00EB1805AA4146586809F0A0FFB9
:1030C0000123336002F082FC059A53019B1A9B0096
:1030D0009B18DB001E00DF1780197941214B186017
:1030E00059604146204804F01DFE36E713181F4F73
:1030F0009B00EB183800596804F014FE3E78002E4F
:1031000000D12AE7144B380002229B5E00212022C6
:103110000D279C46114B00290FD1B44514D0996955
:103120000A42FCD11E60017801300D394E427141D6
:103130000678C9B2002EEED10FE799690A42F1D0A4
:1031400099690A42F9D1EDE799690A42FCD11F60F9
:10315000E5E7C046AC5E0220009A022000800340F2
:1031600028230110781F0120EC8F0220E497022011
:10317000F0B5C64600B5954D82B02B68002B1CD12A
:10318000934C2368002B00D07CE0924C2368002BEA
:1031900000D090E0904C2368002B00D0A2E08F4C30
:1031A0002368002B00D0B4E08D4D2B68002B00D09D
:1031B000E9E002B004BC9046F0BD002398466B469F
:1031C000424601AC1A7001216A46DE2000F048FB3D
:1031D000802622000121DF2000F080FA4246237879
:1031E00076423343227002212200DE200D276370D5
:1031F00000F036FB6B466A460121DE201F7000F0AE
:103200002FFB22000121DF2000F068FA2378220042
:1032100033430221DE206370277000F021FB6B46F0
:103220006A460121DE201F7000F01AFB22000121F6
:10323000DF2000F053FA237822001E430221DE2013
:1032400066702770072600F00BFB6B466A4601216B
:10325000DE201E7000F004FB22000121DF2000F0C0
:103260003DFA7F23227802211340DE202200637082
:10327000267000F0F5FA4346554C2B602368002B6E
:1032800000D182E76B4600256A460121DE2001AEAF
:103290001D7000F0E5FA32000121DF2000F01EFA77
:1032A0007F233278256013404A4C4E4A13602368CE
:1032B000002B00D16EE701236A460121DE2001AD1B
:1032C000137000F0CDFA2A000121DF2000F006FA89
:1032D000454B2A781A60002323603F4C2368002B5B
:1032E00000D15CE702236A460121DE2001AD1370A4
:1032F00000F0B6FA2A000121DF2000F0EFF93B4B85
:103300002A781A6000232360344C2368002B00D1F4
:103310004AE76B4600266A460121DE201E7000F057
:103320009FFA012101AADF2000F0D8F96B461A7933
:103330007F232F4D13402F4A0121AB5401236A46AE
:10334000DE20137000F08CFA012101AADF2000F0CA
:10335000C5F96B461A79284B0121EA5402236A46C3
:10336000DE20137000F07CFA01AA0121DF2000F0BA
:10337000B5F96B461A79214B2660EA54184D2B6833
:10338000002B00D115E70027194E1A4B01ACF35C56
:1033900022000221DE206370277000F061FA012212
:1033A000154B0221F35CDE2022702200637000F0D6
:1033B00057FA0222114B0221F35CDE202270220018
:1033C000637000F04DFA2F60F3E6C0467C2A0120BE
:1033D0005C2A0120582A0120542A0120802A012039
:1033E000782A0120742A0120702A01206C2A0120E9
:1033F00000450120CA200000C9200000C8200000AC
:10340000014B18607047C046341001200123164A52
:1034100084B0126893400192D022120653629361E5
:103420000023124A0393039B1268934205DA039B1D
:1034300001330393039B9342F9DB01230C49096891
:103440008B400191D02109064B628B6100230293CE
:10345000029B934205DA029B01330293029B934243
:10346000F9DB04B07047C046FC1D01103410012088
:10347000F81D011001211C4B86B01B681B4A9940A6
:103480000193D0231B065962996100230593059B84
:103490001268934205DA059B01330593059B93421D
:1034A000F9DB01231248006883400190D020000618
:1034B000836200230493049B934205DA049B013347
:1034C0000493049B9342F9DBD0231B0699620023EB
:1034D0000393039B934205DA039B01330393039BFE
:1034E0009342F9DB06B07047FC1D01103410012037
:1034F000F81D0110F0B501242500334BD0211B68C5
:1035000008269D40314B00271A68314B89B01B6853
:1035100009069C40019343B2002B51DB4D628D6143
:103520000597059B9A4205DD059B01330593059B95
:103530009342F9DB8C620497049B934205DA049B67
:1035400001330493049B9342F9DB4C628C61039733
:10355000039B9A4205DD039B01330393039B934234
:10356000F9DB4000013EC0B2002ED4D1D0231B06AF
:103570009D629C620696069B934205DA069B013388
:103580000693069B9342F9DBD0206423000602E0F9
:10359000013B002B16D041682942F9D10120D023EC
:1035A0001B065C629C6100230793079B934205DA2C
:1035B000079B01330793079B9342F9DB09B0F0BDEA
:1035C0008D62ADE70020EAE7FC1D011034100120F8
:1035D000F81D0110F0B557464E464546DE463C4BB9
:1035E000E0B51B6801269B4633005A46D024934021
:1035F0002406A3629A46374B89B01A68364B89462F
:103600001B6880469E400193012308210025002766
:103610009C460597059B9A4205DD059B0133059362
:10362000059B9342F9DBA6620497049B9A4205DD51
:10363000049B01330493049B9342F9DB584663686F
:103640006D00C340604666620340A66103975D1942
:10365000039B9A4205DD039B01330393039B934233
:10366000F9DB01390029D4D14B46002B2AD0D023D5
:1036700051461B0659629961D0231B069E620023A6
:103680000793079B934205DA079B01330793079B38
:103690009342F9DBD0231B065E629E6100230693F2
:1036A000069B934205DA069B01330693069B9342E1
:1036B000F9DB43461D7009B03CBC90469946A246D2
:1036C000AB46F0BDD02351461B069962D4E7C046F5
:1036D000FC1D011034100120F81D0110F0B55746F3
:1036E0004E464546DE460123E0B51700594A8BB0E9
:1036F00012680E0093409846D023019242461B0662
:103700005A629A610023544A02939246029B1268BD
:10371000934205DA029B01330293029B9342F9DB49
:1037200001234E4909688B409946D02301914946AF
:103730001B065962996100230393039B934205DAA8
:10374000039B01330393039B9342F9DBFFF7D2FE04
:10375000002849D0002E0FDD731E9B46002406ADC5
:103760005B46191B4B1E99412800FFF733FF2B784E
:103770003B550134A642F3D1D02342461B065A6280
:103780009A61002352460793079B12689A4205DD0F
:10379000079B01330793079B9A42F9DCD0234946E4
:1037A0001B06996200230893089B9A4205DD089B3B
:1037B00001330893089B9A42F9DCD02341461B064B
:1037C000996200230993099B9A4205DD099B013305
:1037D0000993099B9A42F9DC01200BB03CBC90464E
:1037E0009946A246AB46F0BDD02342461B065A621C
:1037F0009A6152460490049B1268934205DA049B36
:1038000001330493049B9342F9DBD02349461B0602
:10381000996200230593059B9A4205DD059B0133C0
:103820000593059B9342F9DBD02341461B06996221
:1038300000230693069B9342CFDA069B013306933F
:10384000069B9342C9DA069B01330693069B93427B
:10385000F3DBC2E7FC1D011034100120F81D01103C
:10386000F0B5C646012500B5344B88B01B6814007E
:103870009D400193D0231B065D629D610023304A69
:1038800003939046039B12680F00934205DA039B53
:1038900001330393039B9342F9DB0126294B1B68F9
:1038A0009E400193D0231B065E629E610023049319
:1038B000049B934205DA049B01330493049B9342D7
:1038C000F9DBFFF717FE002F06DDE719207801343A
:1038D000FFF710FEA742F9D1D0231B065D629D6160
:1038E000002342460593059B12689A4205DD059B1D
:1038F00001330593059B9A42F9DCD0231B069E6297
:1039000000230693069B9A4205DD069B013306932E
:10391000069B9A42F9DCD0231B069D620023079385
:10392000079B9A4205DD079B01330793079B9A4249
:10393000F9DC08B004BC9046F0BDC046FC1D011087
:1039400034100120F81D0110F0B54546DE465746FB
:103950004E460024E0B50D00BF4B93B01C60BF4B3A
:1039600001911C60BE4B07003C220021BD489846D7
:103970001C6005F041FABC4B1C701C752B78002BA9
:103980005ED000220292B94A0024002693463900F4
:10399000009709783200002918D0202B21D0252B40
:1039A00032D001360134994213D1434642461B6856
:1039B00001331360019B02941B5D002B40D0BA19A8
:1039C00011000978009232000029E6D1202B00D1A5
:1039D000B7E1002013B03CBC90469946A246AB46E6
:1039E000F0BDA34B01345B5C1B07E3D543460821C4
:1039F00018684546013683199B1A2B60BB5D9C4DA8
:103A0000EB5C1942F5D1D5E7019B621C9946180081
:103A10009B5C9144002B00D1B0E15B2B7DD011D891
:103A2000252B72D101362529D3D1434642461B6846
:103A3000023401331360019B02941B5D002BBED145
:103A40000120C7E7642B01D0782B5ED10122002032
:103A5000874D00921FE0782BBBD14421BB5DEA5C0F
:103A6000114200D175E1202206A98A800B71102233
:103A70000301002107A89A4609F0EEFD5044434691
:103A800042461B68013601331360BB5D002B00D139
:103A900036E14B461B78642BDDD1754ABB5DD15CAA
:103AA00004220A4222D12D2B00D121E1002E00D187
:103AB0008FE7BB19013B1B786D49C95C0A4202D1F3
:103AC0002D2B00D085E7644B63491B685A1C0A60A4
:103AD00000999B00414308006249C8500E2A00DD4E
:103AE00043E10234019B02941B5D66E7202206A994
:103AF0008A800B712D2B0CD083001818430007A867
:103B00009A4608F0F3F95044B9E71400009902927C
:103B10003FE701235B420093B1E7504B00221B6853
:103B200051499A469B00029353449B00CA54019BFF
:103B30001B199A78002A00D14BE70198023406A994
:103B400000230731001908E0262B00D141E701339B
:103B5000CA54C25C002A00D13BE7E5185D2AF3D1C4
:103B60000595262B00D134E7002208ACE254E31877
:103B70005A705B4620001A6009F07AFB002822D0B8
:103B8000002301250396049714E05E1CA15D2D29F6
:103B900072D05B46374F1B68B9465900C918890077
:103BA000CD5549444A608A605A4601331360330058
:103BB000834206D2E25C5E2AE7D1013302258342CA
:103BC000F8D3039E049F009B1A78002A3AD0264916
:103BD000029B894653449B0099445B461D683B0009
:103BE00007AC57469A4619E059688A4202DB996841
:103BF0008A4220DD022F00D1EBE600232100484657
:103C00006370227009F0C0FA434642461B680136D1
:103C10000133136053469A5D002A11D0002D0EDD4A
:103C20000020144B19780129DED159688A4202DB41
:103C300099688A42DEDD01300C33A842F2D1534646
:103C4000BA461F005346054A059C013313600134F0
:103C5000019B02941B5DB0E6B0290120B829012028
:103C6000B4290120AC980220D8990220BC29012057
:103C700055350110E89802209E1CA75DB946002F1B
:103C800025D15F465B463F681B68B9465B00994497
:103C90004B469B009946EAB213004F463B4ABB5441
:103CA0004A44516091605A461268384F0132914639
:103CB00052004A44B9469200D3555B464A4451608B
:103CC00091605A461B6802331360330070E759460F
:103CD0002E4F0968BC464E007618B600F55566446E
:103CE00072604A46B2605A460131116003335FE7A1
:103CF000202107AA1180137001235B420093BEE6C6
:103D0000019A029B944663449B78002B00D060E6A6
:103D10001F4B1F491B685A1C0A6000999B004143B6
:103D200008001C49C85001200E2A00DC52E61A4B3C
:103D30001A49002019606146194B1960194B1A6025
:103D400048E6029A019B944663445878434258419E
:103D500040E6002E00D13CE64422BB19013B1B7813
:103D6000EB5C1A4200D0AEE633E60B4B0B49196010
:103D70000B4B019919600B4B1A602AE6064B0A4A55
:103D80001A60074B1860002024E6C046E89802201D
:103D9000B0290120AC98022038100120D02C01104D
:103DA0003C100120AC290120DC2C0110F0B50400EE
:103DB00083B00D000F201F001600FFF721FBFE202F
:103DC00001AA6DBA158020400221FFF749FD0120AC
:103DD00020433A003100C0B2FFF780FC03B0F0BDD1
:103DE000F8B507000F200E0015001C00FFF708FBB8
:103DF000FFF70CFBFE203840FFF77CFB3012C0B20F
:103E0000FFF778FBF0B2FFF775FB002D06DD6519B3
:103E100020780134FFF76EFBAC42F9D1FFF72AFBA3
:103E2000042001F0E5FCF8BD344BF0B54646984659
:103E300084224F460023D6464146FF32C0B58B54FC
:103E4000013A8B54802344465B02C246002500277A
:103E50009946803453461A780133BF18BFB2A34243
:103E6000F9D10F20FFF7CCFAFFF7D0FAA020FFF727
:103E700041FB2812C0B2FFF73DFBE8B2FFF73AFB67
:103E8000564630780136FFF735FBA642F9D1FFF7E9
:103E9000F1FA042001F0ACFC802334009C4680350C
:103EA000E24480344D45D5D1154B8424C1251F8073
:103EB00043463A0A6D000F20FF345A551F55FFF74D
:103EC0009FFAFFF7A3FAA020FFF714FB0120FFF7EA
:103ED00011FB8220FFF70EFB4346585DFFF70AFBFC
:103EE0004346185DFFF706FBFFF7C4FA042001F014
:103EF0007FFC1CBC90469946A246F0BD00450120BF
:103F0000F02A0120244BF0B55746DE469A469B46E0
:103F100080234E4645465344E0B598461D00802315
:103F20005B0200270024994683B001AE0F20FFF703
:103F300067FA7BBA32000221A0203380FFF790FCA1
:103F40005A468021A120FFF7C9FB5A461378013257
:103F5000E418A4B29542F9D18037C34680354F4565
:103F600003D080239C46E044E0E7C12352465B0037
:103F7000D35C84225146FF32895C1A025B18E41A32
:103F80000648074B8A1802801C8003B03CBC904650
:103F90009946A246AB46F0BD00450120F42A012017
:103FA000F22A012000230121034A1360034B196008
:103FB0001368002BFCD070475C250120542501209C
:103FC00010B51C4C2368002B04D11B4C2368002B1C
:103FD00019D110BD01210120184AFCF719FEFCF788
:103FE000D3FF00232360FFF71FFF0122144B0121A1
:103FF0001A600320134AFCF70BFEFCF7C5FF0E4CBA
:104000002368002BE5D0012101200F4AFCF700FEB8
:10401000FCF7BAFF00232360FFF774FF01220B4B6C
:1040200001211A6003200A4AFCF7F2FDFCF7ACFFFD
:10403000CFE7C0465425012058250120F82C011057
:104040005C250120042D0110102D01106025012098
:10405000202D01107047C0460122014B1A607047A5
:10406000C02901200120034B03491A681268086027
:104070001A60704740100120C42901200122034B1F
:104080001A60034B034A1A607047C046C4290120D6
:1040900040100120581001200122034B1A60034BED
:1040A000034A1A607047C046C4290120401001200D
:1040B000941001200122034B1A60034B034A1A603B
:1040C0007047C046C429012040100120DC100120A7
:1040D0000122014B1A607047802A01200122014B06
:1040E0001A607047782A012070B50026FCF7A2FDFF
:1040F000002100200D4AFCF78BFD0D4C0D4DFCF707
:1041000057FA2368002BFAD03D2201210220FCF748
:104110007BFD012103202A78FCF776FD2B782660B1
:104120006F2BECD10122044B1A6070BD302D0110B1
:1041300068250120022B0120C4290120084B10B55D
:104140001A68002A08D000221A60FCF773FD0021CB
:104150000020044AFCF75CFDFCF75CFE10BDC04685
:10416000C4290120402D0110802110B55022A32028
:10417000024B4901FFF734FE10BDC046FF65012028
:104180008422112110B50E4BFF3299547231FF3148
:104190005A5CA02001325A545B180222FFF720FE1D
:1041A000FCF748FD074A00210020FCF731FDFCF731
:1041B000FFF9054801F01CFB0122044B1A6010BDF9
:1041C000004501204C2D0110B80B0000C42901202E
:1041D000802110B55022A320024B4901FFF7E6FDD4
:1041E00010BDC046FF65012000B595B06B4650225A
:1041F0000649A120FFF7DAFD80216B4650224901D4
:10420000A220FFF7EDFD15B000BDC046FF20000065
:104210007047C0467047C0467047C0467047C046AA
:1042200070B52C4D2C68002C33D0012C29D12A4B91
:104230001868FCF741F92022284B80101860130001
:10424000034002423BD1C20637D0254A0002116822
:104250000843244910600A0003E001330832232B8D
:104260002BD01468A042F8D1DB00CB181A791E4B72
:104270006B2102201A70FCF77DFE01221B4B2C687B
:104280001A6001230134E20FA4181C40A41A2C6008
:1042900070BD8021164B174C1A881140228811439B
:1042A0001980154B08221868FCF73CF923680C4A62
:1042B00013605B002360802B08D02C68E1E70A4B79
:1042C0004F321A70094B1C602C68DAE70123236017
:1042D0002C68D6E7882A0120001E01108C290120B5
:1042E000902901206C110120022B0120682501205A
:1042F000F82A012084120120041E0110274B70B5FA
:104300001A68002A20D1264B1A68002A1BD00022E6
:104310001A60244B1C68237B262B14D0224A0021D0
:1043200010782200183206E00C3213000C3B1B7888
:104330000131262B07D09842F6D14B00591889003D
:1043400064186369984770BD00221A60FCF772FC1C
:10435000144D00212B6800205A68FCF759FCFCF72B
:10436000C3FC29680B7B262B14D0002400230F4E9E
:104370001B199B00CB181869FCF7C6FC01343000F0
:10438000FCF7C2FC630029681A1992008A18127B94
:10439000262AEDD18B689847B5E7C046C42901208D
:1043A0006825012040100120022B0120C4200110AB
:1043B00070B52D4D2C68002C35D0012C29D12B4BFC
:1043C0001868FCF779F82022294B80101860130038
:1043D000034002423DD1C20639D0264A000211688C
:1043E0000843254910600A0003E001330832232BFB
:1043F0002DD01468A042F8D1DB00CB181A791F4BDE
:104400006B2102201A70FCF7B5FD01221C4B2C68B1
:104410001A6001230134E20FA4181C40A41A2C6076
:10442000FFF76CFF70BD8021164B174C1A881140A6
:10443000228811431980154B08221868FCF772F87E
:1044400023680C4A13605B002360802B08D02C6823
:10445000DFE70A4B4F321A70094B1C602C68D8E713
:10446000012323602C68D4E7882A0120001E011054
:104470008C290120902901206C110120022B0120A0
:1044800068250120F82A012084120120041E011051
:104490001A4B70B51A680A21501C186003F0D4FC3E
:1044A000174A002910D17B23D156164BC80F18602C
:1044B000154B5C689D68DE681C601C695D609E60D1
:1044C000DC601861002907DB7423D35C002B02D069
:1044D00000220E4B1A6070BD012CF5D13543F3D18B
:1044E0000A48036801330360042BEDD108490C60CE
:1044F0000B68002BFCD10360E6E7C0469C2A012034
:1045000000450120982A012044100120A02A012002
:10451000CC2401200022014B1A6070473C2A012064
:104520000E4B10B519680E4804F01EFF0D4B0E48D7
:10453000196804F019FF0D4804F016FF0C4804F048
:1045400013FF0C4C0C48218804F00EFF6388E279BD
:10455000A1790A4804F008FF10BDC046502A012086
:10456000C42D0110682A0120DC2D0110F42D01104A
:10457000082E0110844401201C2E0110282E011049
:1045800070B50D4C0D48216804F0EEFE0C4D002175
:10459000280004F0E9FE23681C00303C392B01DDC3
:1045A000573B1C002100280004F0DEFE054B1A6872
:1045B00011012143196070BD94290120482E01107A
:1045C000502E01103C2A0120A522A62170B5154BC2
:1045D00015489A5C5E5C1202B618A72202319A5CFA
:1045E0005D5C1202AD18A92202319A5C5C5C120279
:1045F000A4180E4A0E499A5C595C12028918B6B288
:1046000089B204F0B1FEADB231000A4804F0ACFE4C
:10461000A4B22900084804F0A7FE2100074804F0CE
:10462000A3FE70BD00450120582E0110652000003A
:1046300066200000682E0110782E0110882E0110CF
:1046400070B50A2004F0E8FC0B4C0C4E2500213517
:10465000FF35626813782A2B03D03000217804F0EC
:1046600083FE0C34AC42F4D1054804F07DFE0A20F0
:1046700004F0D2FC70BDC04688120120982E0110B3
:10468000A42E0110F0B5DE4657464E464546E0B52D
:104690000A208BB004F0C0FC00236A461372324B30
:1046A000324E9846324B34689B46324B324F9A46D4
:1046B000324B99461DE0C0231B029C4243DD304B28
:1046C000E318304A4046D55C290004F04DFE6822CC
:1046D0007B5D934328D02A0068462B4903F022FBD8
:1046E000694602A808F050FD33680134FF33A34245
:1046F0002FDB07231D002540234219D080231B02F6
:104700009C42D8DA80222300D201944202DB1F4B64
:104710001B68E3184A46D55C4046290004F024FE95
:1047200068227B5D9343D6D12E236A461380D7E758
:1047300002A9584604F018FE6B46210050461D722F
:1047400004F012FEDAE7124B1A680D4BE3189B18BF
:10475000B7E70A2004F060FC0BB03CBC90469946D9
:10476000A246AB46F0BDC046C02001103C2A012045
:10477000C82E0110D02E0110553501100045012022
:104780000080FFFFC00D0020D82E0110502A01200C
:10479000682A0120F0B5DE4657464E464546E0B54C
:1047A000214B89B09B461B68002B32DD1F4B002438
:1047B00099461F4B98461F4A6300D55A1E4A1F4907
:1047C000165D1F4A1F48125DADB2D2B20692CA5A98
:1047D000C75A4B461B5D91B2DBB29A464B46185DF9
:1047E0000791C0B2FEF7ECF953460799069AF6B264
:1047F000BFB2049003930191330021000092404620
:104800002A00029704F0B0FD5B461B680134A34206
:10481000D1DC0A2004F000FC09B03CBC904699466B
:10482000A246AB46F0BDC04664230120F43E012001
:10483000DC2E0110602D0120703B012094350120F9
:104840003C330120EC370120F0B545464E46DE46AC
:104850005746244BE0B51C68234B00259946234B53
:1048600089B09846224A6300D65A224A2249175DE7
:10487000224A2348125DB6B2D2B20692CA5AC35A2D
:1048800091B29BB29A464B461B5D0791DBB29B46A9
:104890004B46185DFFB2C0B2FEF792F95B46039338
:1048A00053460799069A0490029301913B00290010
:1048B00000924046320004F057FD9621601C4900EA
:1048C00003F0C2FA962301350C005B009D42C9D16A
:1048D0000A2004F0A1FB09B03CBC90469946A246D0
:1048E000AB46F0BD68230120443A0120DC2E0110C4
:1048F000E4300120683401209C3C0120B82F0120C5
:10490000082B012010B5034803F070FA00210300C2
:104910000020984755420000FA2010B5800004F0AE
:1049200035FD431C17D00C4C0023220003E001335B
:104930000C32182B0FD011788142F8D1074A106041
:104940005A00D3189B00E418A3689847044B054805
:10495000196804F009FD10BD881201209429012076
:104960003C2A01201C2F0110094A83009446402252
:10497000634410B51C68C0006240C024144080220B
:10498000520113431C60034B9C466044416010BDC0
:1049900004C00140004001400A4B80009C460423B3
:1049A0006044002901D00C230821002A00D10B000B
:1049B000026853400C221A4080235B0118430260B6
:1049C0007047C04604C001400123D0228340120634
:1049D00093629361094A83009446402263441968B4
:1049E000C0004A40C0211140802252011343196087
:1049F000034B9C46052360444360704704C001405C
:104A000000400140F8B5EFF3108772B60E4E3368E0
:104A1000002BFCD0BFF35F8FCB08C4180725A4463A
:104A2000C45C01230D40AB4018002040234208D154
:104A3000624623431370BFF35F8F306087F31088A3
:104A4000F8BD100001F01AFC2C0100D0F8B5CE46DC
:104A500047468C4680B5EFF3108872B6214D2C681E
:104A6000002CFCD0BFF35F8F9A422CD8D4080721CA
:104A7000055D0619012411408C402C421FD00721EE
:104A80008946063909E0D408055D06194C460F0031
:104A90001440A7403C002F4211D001329342F2D281
:104AA00001204042BFF35F8F00220E4B1A6088F353
:104AB000108800280FDB0CBC90469946F8BD2C43AB
:104AC00010003470EEE7BFF35F8F00232B6088F394
:104AD0001088012040426346002BECD0089801F07A
:104AE000CDFBC0462C0100D0024B18688007C00FD8
:104AF0007047C04600C006400021044B044ABFF383
:104B00005F8F02C39342FAD17047C046000100D0C4
:104B1000800100D0044A1078431CDBB2172B00D967
:104B2000102313707047C046A813012000B5054B31
:104B300083B00100009318221F230348FFF786FF6C
:104B400003B000BDB82F0110982401200123834039
:104B5000002904D0034A1360034A13607047034AD4
:104B60001360FBE780E200E000E100E080E100E0AC
:104B700001238340014A13607047C04600E200E011
:104B8000084B10309B688000C358002B07D0064AA2
:104B900000209B1A2F229A424041C0B27047002049
:104BA000FCE7C04600ED00E0AC130120024B1030E2
:104BB0009B688000C058704700ED00E070B50D00A4
:104BC000EFF3108672B60F4A1368002BFCD0BFF3C8
:104BD0005F8F0D4B10309B6884001B590B4A93422A
:104BE00003D09D4201D001F061FB074B9B681D5132
:104BF000BFF35F8FBFF35F8F0022024B1A6086F313
:104C0000108870BD240100D000ED00E0CD0100103F
:104C1000F0B557464E464546DE46E0B5894683B078
:104C200005001700EFF3108A72B65E4A1368002B76
:104C3000FCD0BFF35F8F00205B4B18569B460028CB
:104C40006DDB5A464400594E2418A4003319984687
:104C50009B7910351370564BAA009B6801929B58A4
:104C60009C469B1B2F2B29D8012261469143CB796F
:104C7000BB4208D86BE053009B189B00F318DD790A
:104C8000BD4252D9190006228A56002AF3DABD26FF
:104C90000B1D9B46360243465C46043B1B1B1B0513
:104CA000444C5B0D23438B80887141468A714A4690
:104CB000414B8E800B60CF718A601BE03F4B9C455F
:104CC00042D142463E4B023413803E4B3619043BE0
:104CD0009E1B3605374B760D1E433B4B568093800B
:104CE000FF23D771937143464A469A600123424697
:104CF0001A43944661462E4B019A9B689950BFF324
:104D00005F8FBFF35F8F0022264B1A608AF31088F3
:104D100003B03CBC90469946A246AB46F0BD01F0BC
:104D2000C5FA5B46002018568BE70B1D9B468B8807
:104D300004345B051B155B4436199E1BE0233605C6
:104D4000760D1B021E43A6E701F0B0FAB9E745460F
:104D50000B001E489B1B5B415843000D184B2B80DA
:104D6000A31C9C46B4446546164B0434043B5B1BB1
:104D70001B05104D5B0DAC462B43454636196B8029
:104D80000B1F9E1B6346A87148463605760D1E43D1
:104D9000094BAE80EF71A8600B60434613439C46FD
:104DA000A8E7C046240100D0002B0120AC1301204D
:104DB00000ED00E000E0FFFF01488047CD0100105A
:104DC00000A1FFFFDC13012000BDFFFFAAAA000025
:104DD000F0B5DE4657464E464546E0B50C0083B07A
:104DE000EFF3108A72B65A4A1368002BFCD0BFF357
:104DF0005F8F1022914681444A46564B96009B682D
:104E00009D59554B98469D4205D0A54216D0534F0B
:104E1000EB1B2F2B14D94F4B9B689D51BFF35F8F1A
:104E2000BFF35F8F00224A4B1A608AF3108803B0E9
:104E30003CBC90469946A246AB46F0BD1D00EAE751
:104E4000012383409B465A46454B1B681A400092FB
:104E50005A46444B1A60BFF35F8FFBF704FA019088
:104E6000002803D0814501D001F020FA01232A0057
:104E70009A4393689C4208D160E04B005B189B000A
:104E8000FB189968A14211D01A0006215156002939
:104E9000F3DA009B002B05D05A46334B1A60304B97
:104EA0001A60B8E75A462F4B1A60B4E706215956E4
:104EB000002922DB4A00501880003C188046A06878
:104EC0009860E079D871062020569871A0797F28E3
:104ED00024D8A488F81A6405241544440019E02451
:104EE0000005400D24022043988052181F4B920069
:104EF000BF181A781970BA71CBE70199002910D13F
:104F0000FF3191711A49918018490A789A71194AAA
:104F1000DB1B5B415A43120D0A70BAE7BD20000249
:104F2000E2E7154A1549D21A083A5002400D0143EA
:104F30009980134952080A43DA80AAE7062151569C
:104F400013000029B6DA019A002AEAD14546DBE7C8
:104F5000240100D000ED00E0CD010010AC130120D1
:104F600000E100E080E100E080E200E0002B0120B1
:104F700000BDFFFFAAAA0000E613012000F0FFFF1A
:104F800000F8FFFFF8B5012504000543FBF76BF9B6
:104F90000300EFF3108672B621490A68002AFCD09C
:104FA000BFF35F8F1F4A20001F49801A40414143D1
:104FB000090D1E489B00876849B2FF58AF421CD0BC
:104FC0000623D3568B421CD01223D3568B4222D0B9
:104FD0001E23D3568B4220D02A23D35603208B4244
:104FE00010D0134B1A781970A271BFF35F8F002293
:104FF0000B4B1A6086F31088F8BD82680D48D050BC
:10500000EFE7002043001B189B00D218FF23937189
:10501000094B9380E5E70120F4E70220F2E7C04660
:10502000240100D0AC130120AAAA000000ED00E08A
:10503000002B0120CD01001000BDFFFF054B064AEB
:105040001360064A136053609360D3601361536129
:10505000936170478080808000E400E004E400E019
:10506000D02300B51B061B680100074883B0C01899
:10507000064B002200930523FFF7E8FC002801DB24
:105080001F23181A03B000BDE02A0120D42F0110FD
:10509000024B9C4661448900016070474000003427
:1050A00083680B4810B584466144624409011201CB
:1050B0009A18591854684B6801209C4201D802D0B4
:1050C0000020C0B210BD12680B689A42F9D8F7E709
:1050D000FFFFFF0F0A4B1968EFF3108072B60A68E2
:1050E000002AFCD0BFF35F8F1B68BFF35F8F0022E5
:1050F0001A6080F3108840BF002000217047C0462E
:10510000A42A0120F8B557464E464546DE46E0B58E
:10511000434D81468A466A68EFF3108872B6136879
:10512000002BFCD0BFF35F8F2E68B47B002C3ED0E9
:10513000670033683F19033FDA195378B373002BC4
:1051400000D1F3730023937053701370A968354A2C
:105150008C464946A21812016244116051465160C2
:105160003149D36091603268D219937053701370D3
:10517000737B9B46002B35D022001900B068736802
:1051800098473268002820D05B4658465B005B4455
:10519000D719033BB870D118D35C002B00D07B70BB
:1051A0005B460C7073735C451DD0002626E06B686F
:1051B000BFF35F8F1C6088F31088012040423CBC25
:1051C00090469946A246AB46F8BD5B465B005B4401
:1051D000033BD3189C70D119D25D002A00D05A70BD
:1051E0005B460B7074734A465346287D00F078FC8A
:1051F000061EDAD02100286800F0B8FEEB686A6865
:105200001B19013B1B78BFF35F8F0021116088F3EE
:1052100010880020002ED2D118022043CFE7C046CC
:10522000F4130120FFFFFF0FD5500010F8B55746CB
:1052300045464E46DE46E0B599460CAB19780DABB7
:105240001B78050090469A460768002912D1BE7B5C
:10525000002E45D074003B68A419033C1B195A78F2
:105260003100BA73002A00D1FA7300229A705A7082
:105270001A7003E00E004C006418033C2C4B002213
:105280009C46AB6861449C464346090161440B60FF
:105290004B464B600A9B8B600B9BCB603B681B199A
:1052A0009A705A701A707B7B9B46002B2CD0320070
:1052B0005946B8687B6898473A68002817D05B461B
:1052C00058465B005B441419033BA070D118D35CB3
:1052D000002B00D063705B460E707B73B34514D017
:1052E00030003CBC90469946A246AB46F8BD5B46B2
:1052F0005B005B44033BD3189E701119125D002ABA
:1053000000D05A705B460B707E7342464B46287D38
:1053100000F0E6FB041E06D05346002B03D13100FB
:10532000286800F023FE0E9B002BD9D01C70D7E715
:10533000FFFFFF0FF0B5DE464E46574645460023B9
:10534000E0B58DB00A936B4B8200D3580B90994611
:1053500000239B464B46079300F038FB079C060052
:105360000F006268EFF3108572B61368002BFCD053
:1053700022000794BFF35F8F2468637B9946002B5C
:1053800067D092685C4B90464B441B01984443465F
:105390001A685B6810001900801BB94100295FDDA5
:1053A0000B9800F09DFB00230026984600279A46A4
:1053B000079C6368BFF35F8F5A461A6085F31088B5
:1053C0005346002B08D10028C6D10DB03CBC9046F6
:1053D0009946A246AB46F0BD0A9B414618024B4691
:1053E0001843D047089009916268EFF3108572B6B0
:1053F0001368002BFCD00794BFF35F8F0899099ABC
:10540000002A48DB114303D0079B1B69002B5DD1A9
:10541000079B1B68DA7B002A07D051008A1819689D
:105420008C4649466244033A51704A46DA734B4609
:10543000079A013BD168CA5C0132CA545B46079A9D
:1054400013615368BFF35F8F5A461A6085F3108863
:1054500082E700230026984600279A460020A7E707
:10546000002901D100289BD10021200000F0E0FCA0
:1054700043461E685F689B68079A9A464346DB6806
:105480009846D3684B44013B1B780A931B020343A5
:10549000136100208CE72369002BB9D033003C0056
:1054A0005B1A94411A002300A74219D89F421BD0CF
:1054B00059460491012103914946029141460191C7
:1054C000514607980091FFF7B1FEB7E700F07EFA6A
:1054D000089A099B06000F0092197B419942E5D971
:1054E00001225242D317E3E79642E1D90122524208
:1054F000D317DDE7402A0120FFFFFF0F10B5124C44
:105500006368002B04D00A211048FFF7C1FD10BDCD
:1055100023000F4A1021206800F0A8FB032000F0B0
:1055200049FA032000F04EFB03200A4900F092FAEA
:10553000FFF7F0FA084B9C46032360442375074BA2
:1055400080006060DC60DEE7F4130120A42A012003
:10555000A15000103553001040000034402A0120B3
:1055600000487047F4130120F0B557464546DE4623
:105570004E46E0B585B0019310AB1B78002703932E
:10558000002380469A46009243465A68EFF31089FA
:1055900072B61368002BFCD0BFF35F8F43461D68C3
:1055A000AC7B002C4FD066002B683619033E9B194C
:1055B0005A78AA73002A00D1EA7342469F705F703E
:1055C0001F709268524B94460099019AE3181B0190
:1055D000634419605A600E9A9A600F9ADA602B68D9
:1055E0009B199F705F701F706B7B9B46002B46D092
:1055F00022001900A8686B6898472A68002831D0F3
:105600005B4658465B005B449619033BB070D1186B
:10561000D35C002B00D073705B460C706B735C45E1
:105620002ED04346DB681B19013B187843465B6864
:10563000BFF35F8F1F6089F310885346002B2ED174
:105640000002204307E05B68BFF35F8F1C6089F3B3
:1056500010880120404205B03CBC90469946A246C5
:10566000AB46F0BD5B465B005B44033BD3189C70CC
:105670009119925D002A00D05A705B460B706C73D2
:105680004346187D009A019B00F02AFA82460028C2
:10569000C7D043462100186800F068FCC1E7039BAF
:1056A000002B32D00E9B00200F9998470300040076
:1056B0000D000B4329D000290DDA00980199020052
:1056C0000B00121BAB41994215D81AD000920193DE
:1056D000039B9A4658E700F079F902000B00A418E2
:1056E0005D412000290000900191AB4203D8EFD129
:1056F00000998A42ECD901235B42DC1700930194A4
:10570000E6E700999142E1D9F5E70020A3E7C0461A
:10571000FFFFFF0FF0B504000D0006267642F717D5
:10572000C64636196F4100B58F4213D810D000F02D
:105730004DF932003B00121A8B41002B14DC002B78
:1057400037D02900200000F075F904BC9046F0BD68
:105750008642ECD90026002700F038F932003B00E1
:10576000121A8B41002BEADD30003900FFF7CAFC2A
:105770000028E6DB00239846BC460F4A0F4F7B6AA1
:105780009C4504D8B96A8E42DBD99C45D9D11168B1
:10579000EFF3108072B60B68002BFCD0BFF35F8F65
:1057A0001368BFF35F8F4146196080F3108820BFF4
:1057B000E5E7002AC5D0D7E7A42A0120004005402C
:1057C00070B504000D0000F001F902000B0020008C
:1057D0002900801859418B4205D802D0FFF79AFF63
:1057E00070BD8242FAD901204042C117F6E7C04697
:1057F00070B5060000F0EAF8FA2204000D0000235C
:1058000030000021920003F051FA001969418D42E5
:1058100005D802D0FFF77EFF70BD8442FAD901207F
:105820004042C117F6E7C046F8B5CE46474680B5B8
:1058300006000C00FFF766FC00280CDC2D4B002056
:10584000596A8C4203D89B6A0130B34245D30CBCE1
:1058500090469946F8BD20BF274D6A68EFF3108740
:1058600072B61368002BFCD0BFF35F8F2B68C1B2F8
:105870009C465B7B8B4235D0FF2303405A00914608
:1058800062461268994490464A464244033A9278E6
:10589000002A1DD0EA68000A90464344013B1B7869
:1058A000C0B2834221D06B68BFF35F8F00221A60C1
:1058B00087F310880F4A0020536A9C42C7D8926A27
:1058C0000130B242C3D2E41A601E8441E0B2BEE7A6
:1058D0002B699842E7D12A61E5E7641A601E84418A
:1058E000E0B2B4E7FF230340D4E7604600F03EFB9C
:1058F000D9E7C04600400540F4130120F0B5D64674
:105900004F464646C0B5EFF305833F2213401800CB
:105910001038EFF3108C72B6204D2A68002AFCD0A4
:10592000BFF35F8F0122110081401D4C88466163E7
:105930001C4917000E788A463100C1400F400A42C8
:1059400015D019498200646A51588C4219D3174BFB
:10595000D25843469E4353461E70BFF35F8F0023C9
:105960002B608CF31088002A06D0904704E0BFF328
:105970005F8F2F608CF310881CBC90469946A2461E
:10598000F0BD0B4A9B00904643441A681A60BFF36F
:105990005F8F00232B608CF31088EDE7280100D087
:1059A00000400540062B0120B02A01206C23012075
:1059B000D03F054010B50100024A0348FFF722F826
:1059C00010BDC046F82F0110FF2A0120034B596A71
:1059D0000A00986A596A8A42FAD170470040054025
:1059E00070B504000D00124A536A1900966A536A92
:1059F0008B42FAD13000190024184D41AB4211D826
:105A00000ED02B000A494A6A9A42FCD307D1084AB1
:105A100002E0516A994202D1916AA142F9D370BD64
:105A2000A642EED9012301246442E5175B42E9E76F
:105A300000400540064A536A9942FCD807D1044BFE
:105A400002E05A6A914202D19A6A8242F9D37047BF
:105A50000040054070B504000D00EFF3108672B6EB
:105A60001A4A1368002BFCD0BFF35F8F002D1BD0A8
:105A70002000FFF79BF8164981420AD02000FFF76B
:105A80009DF801212000FFF761F80123A340114A8E
:105A90001360114BA400E550BFF35F8F00220B4B46
:105AA0001A6086F3108870BD0B4BA200D5500122FE
:105AB000A2400A4920000B7893430B700449FFF77A
:105AC00087F900212000FFF741F8E5E7280100D021
:105AD000FD580010386005406C230120062B012082
