:020000041000EA
:1000000000B5324B212058609868022188439860DF
:10001000D860186158612E4B002199600221596106
:100020000121F02299502B49196001219960352056
:1000300000F044F80222904214D00621196600F024
:1000400034F8196E01211966002018661A6600F04E
:100050002CF8196E196E196E052000F02FF8012189
:100060000842F9D1002199601B49196000215960AB
:100070001A491B48016001219960EB211966A021F2
:10008000196600F012F800219960164914480160C1
:100090000121996001BC002800D000471248134993
:1000A000086003C880F30888084703B5996A0420EC
:1000B0000142FBD001200142F8D103BD02B5186610
:1000C0001866FFF7F2FF186E186E02BD00000240BE
:1000D000000000180000070000035F00212200005C
:1000E000F4000018222000A00001001008ED00E03C
:1000F00000000000000000000000000074B24E7A12
:1001000000200420F7010010C3010010C5010010F9
:10011000C1010010C1010010C1010010C101001097
:10012000C1010010C1010010C1010010C701001081
:10013000C1010010C1010010C9010010CB01001065
:10014000CD010010CD010010CD010010CD01001037
:10015000CD010010CD010010CD010010CD01001027
:10016000CD010010CD010010CD010010CD01001017
:10017000CD010010CD010010CD010010CD01001007
:10018000CD010010CD010010CD010010CD010010F7
:10019000CD010010CD010010CD010010CD010010E7
:1001A000CD010010CD010010CD010010CD010010D7
:1001B000CD010010CD010010CD010010CD010010C7
:1001C00000BE00BE00BE00BE00BE00BE00F04BF888
:1001D000103800BEF2EB8871247501104C750110C7
:1001E0003402001090A31AE700202149086006C8D5
:1001F00081F3088810471F48006800282FD10DA4FC
:100200000ECC002902D000F012F8F9E71A491B4A77
:10021000002000E001C19142FCD1194988471949E9
:1002200088471949884700BEFDE701C901C29A42C3
:10023000FBD370474C750110C0000020B02701208F
:100240003C9C021000000420000004203C9C021092
:1002500000100420001004200000000070470B482C
:1002600009F052FF0047EFF30580C0B2704700006D
:1002700008ED00E0000000D0B0270120F0AC022023
:1002800029830010ED0500104D8400105756000022
:1002900006005250ABB36053106701100600525075
:1002A000861C030220670110060052505422A29DB2
:1002B0003067011005005250DE65F4683C9C021066
:1002C000F8B5C0460448054B10B5834203D0044B33
:1002D000002B00D0984710BDB0270120B027012087
:1002E0000000000006480749091A8B10C90FC918F9
:1002F00010B5491003D0044B002B00D0984710BD17
:10030000B0270120B02701200000000010B5074CE5
:100310002378002B09D1FFF7D5FF054B002B02D026
:10032000044800E000BF0123237010BDD028012045
:1003300000000000684B0110054B10B5002B03D0E6
:100340000449054800E000BFFFF7CCFF10BDC046E0
:1003500000000000D4280120684B011010B50648A9
:100360000BF038FD0EF0FEFB012007F045FB05F019
:1003700049FD02F0B5FCF7E7684B0110F0B54746C0
:10038000CE4680B5294B83B098461A88284B9A42AE
:1003900040D043461B88D0251843434680B218807E
:1003A0001E88802380271B022D0601200021AB61BF
:1003B000FF0407F009FB1024B946B6B20FE0802312
:1003C000DB016B610120002107F0FEFA013C0120F6
:1003D00000216F6107F0F8FA7600002C0BD04B4635
:1003E0000120AB61002107F0EFFA3304E7D480234A
:1003F000DB01AB61E6E7D02380221B0612025A61C3
:1004000043461A880A4B9A420AD003B00CBC904665
:100410009946F0BD00230093009B002BFCD1B8E768
:1004200000230193019B002BFCD1EEE772340120E5
:1004300009200000F0B5CE46474680B5284B83B072
:10044000984240D0274BD025984642461B888027AB
:1004500083431380802316881B022D060120002170
:10046000AB61FF0407F0B0FA1024B946B6B20FE052
:100470008023DB016B610120002107F0A5FA013C1C
:10048000012000216F6107F09FFA7600002C0BD04D
:100490004B460120AB61002107F096FA3304E7D404
:1004A0008023DB01AB61E6E7D02380221B0612022A
:1004B0005A6143461A880A4B9A420AD003B00CBCD0
:1004C00090469946F0BD00230093009B002BFCD181
:1004D000B8E700230193019B002BFCD1EEE7C04657
:1004E0000920000072340120F0B50124D025844099
:1004F000C64680272D0600B50120AC610021AC6105
:1005000007F062FA7F036C610120002107F05CFABA
:1005100008260024B8466B686400E4B29B0202D54A
:1005200001231C43E4B2434601200021AB6107F0E4
:100530004BFA013E012000216F6107F045FA002EC1
:10054000E9D1200004BC9046F0BDC046F8B5DE46B7
:1005500057464E464546E0B501263300D024834039
:1005600024060D0001200021A36117009B4607F01F
:100570002BFA002F26DD7B1E9E408023DB04B04635
:10058000994600269A4610E08023DB016361012032
:10059000002107F019FA4B46012000216361013662
:1005A00007F012FA6D00B7420CD053460120A36148
:1005B000002107F009FA43461D42E5D18023DB0103
:1005C000A361E4E7D0235A461B065A613CBC90461F
:1005D0009946A246AB46F8BD10B502F0F5FD03F012
:1005E00011FD02F07DFB05F01FF910BD10B51B20B9
:1005F00084B006F0CBFAD024802324061B05636266
:100600000D20636106F0C2FA0E2006F0BFFA0F203B
:1006100006F0BCFA162006F0B9FA152006F0B6FA74
:100620001A2006F0B3FA132006F0B0FA142006F0F0
:10063000ADFA122006F0AAFA002006F0A7FA01206F
:1006400006F0A4FA022006F0A1FA032006F09EFAB2
:10065000042006F09BFA052006F098FA062006F022
:1006600095FA072006F092FA01220021002006F0F8
:1006700075FA01220021012006F070FA0122002102
:10068000022006F06BFA01220021032006F066FA30
:1006900001220021042006F061FA01220021052038
:1006A00006F05CFA01220021062006F057FA01222A
:1006B0000021072006F052FA0A2006F067FA0B2004
:1006C00006F064FA0C2006F061FA112006F05EFADA
:1006D000102006F05BFA00220121102006F03EFAFD
:1006E00000220121112006F039FA80238022DB014B
:1006F00092016362A262636280231B0263628023B1
:10070000DB03636280239B03A3628023DB046362B9
:1007100080231B03636280228023D2025B03636217
:1007200062628022D20062628022120162628022B2
:10073000520162621448636102AA03AB01A906F088
:100740003FF900281AD10120FFF718FE0A2007F010
:1007500053F900F045F800F02BF90BF047FB01F0DE
:10076000C9FB0A480EF0D8F904F080FB08480BF0EA
:10077000DBF904F08DFB05F057F8FAE7039A0299CC
:10078000019806F0E1F8DEE7A0F703005D03001032
:10079000784B011000B583B06A4680231371793B12
:1007A000034050204042184350710221782001AA92
:1007B00003F05EF803B000BD10B5102482B0030949
:1007C00001AA234353700F238021184011709170A8
:1007D000D0707C39782003F04BF802B010BDC046D1
:1007E000F0B580276F4CFA25238885B03B439BB238
:1007F00023806D4B21881E680822300089B2FFF7E4
:10080000A5FE7F23ED00039522883000134023804E
:100810002188082289B2FFF799FE029523880822D1
:100820003B439BB223802188300089B2FFF78EFEC4
:10083000019502F017FE782002F080FE802002F081
:100840007DFEAE2002F07AFE802002F077FED520F9
:1008500002F074FE802002F071FEA02002F06EFE15
:10086000802002F06BFEA82002F068FE802002F0DB
:1008700065FE1F2002F062FE802002F05FFED320A2
:1008800002F05CFE802002F059FE002002F056FECD
:10089000802002F053FEAD2002F050FE802002F0D6
:1008A0004DFE8E2002F04AFE802002F047FED82046
:1008B00002F044FE802002F041FE052002F03EFEE0
:1008C000802002F03BFEA12002F038FE802002F0E2
:1008D00035FEC82002F032FE802002F02FFEDA2022
:1008E00002F02CFE802002F029FE122002F026FEEB
:1008F000802002F023FE912002F020FE802002F0F2
:100900001DFE3F2002F01AFE802002F017FE3F205D
:1009100002F014FE802002F011FE3F2002F00EFED5
:10092000802002F00BFE3F2002F008FE802002F043
:1009300005FE812002F002FE802002F0FFFD1B4B2D
:10094000187802F0FBFD802002F0F8FDD92002F0BB
:10095000F5FD802002F0F2FDD22002F0EFFD8020B4
:1009600002F0ECFDDB2002F0E9FD802002F0E6FD64
:10097000342002F0E3FD802002F0E0FDA62002F02A
:10098000DDFD802002F0DAFDA42002F0D7FD8020FA
:1009900002F0D4FDAF2002F0D1FD02F093FD05B0CE
:1009A000F0BDC04674340120984B011010060020A1
:1009B0008023F0B54746CE469946D03B0025984661
:1009C00080B5174F83B001AE4B46337043463200BB
:1009D0002B4302217820737002F04AFF3200042179
:1009E0007820019702F044FF02F03CFD782002F0ED
:1009F000A5FD402002F0A2FD8424013C0020E4B2C9
:100A000002F09CFD002CF8D10135EDB202F05AFD48
:100A1000042DD9D103B00CBC90469946F0BDC04618
:100A200080108000204BF0B54746CE469946002303
:100A300080B5502700259846802683B001AC7F42C0
:100A40004B4642465B191A70EB113B4322000221D0
:100A500078206370267002F00BFF7F2310212B405B
:100A60001A090A4362700F220421134078202200E1
:100A7000E3702670A67002F0FBFE02F0F3FC782013
:100A800002F05CFD402002F059FD002002F056FD0E
:100A900002F018FD80230135DB009D42D0D103B068
:100AA0000CBC90469946F0BD9C490120F0B54E46DD
:100AB0004546DE465746E0B50C000500160083B0FB
:100AC0007F2801D81F2906D903B03CBC904699461F
:100AD000A246AB46F0BD7F2307221B1A9846CB17D0
:100AE00013405B18DB105B4203339A468023914628
:100AF00052469B4601AF3B70D03B134302213A0064
:100B000078207B7002F0B4FE43465A46102104332D
:100B1000DBB23A701A090A437A705A46BA70713ACF
:100B2000134004213A007820FB7002F0A1FE02F08D
:100B300099FC782002F002FD402002F0FFFC5346B1
:100B4000DF01164B47449A46DB5D9846002E1CD0C9
:100B5000012E10D032002100280004F083FF40460F
:100B600000F01EF8C0B202F0E9FC53464246DA55E6
:100B700002F0A8FCA8E74B46320023409A4013003D
:100B800042461343DBB29846E4E74B46012223403A
:100B90009A40434693439846DCE7C0469C4901206F
:100BA000022101234200114042101A4011438210D9
:100BB00049001A400A43C110194052000A4301116A
:100BC00052001940114342111A4049001143821149
:100BD00049001A400A43C0115200184010437047A0
:100BE000F8B51500D2B20F00040004F017FF03207F
:100BF000C01BC0B2FFF7CEFDA000201A40007F301E
:100C0000C0B2FFF7D9FD02F02DFC782002F096FC6F
:100C1000402002F093FCAA00521901240425154E2D
:100C2000B6182200735D1A4058102040520002434B
:100C30009810520020401043DA1022404000104328
:100C40001A11400022400243581120405200024332
:100C500098115200204010434000DB11184302F06D
:100C60006DFC013DDDD2002002F068FC02F02AFCA0
:100C7000F8BDC0461406002070B5150012780E00AD
:100C8000002A09D004002D1A200031000134FFF79A
:100C9000A7FF2A5D002AF7D170BDC04670B51500C8
:100CA00012780E00002A09D004002D1A200031000D
:100CB0000134FFF795FF2A5D002AF7D170BDC046C9
:100CC00070B584B001AD04000E002800084909F099
:100CD000B7F92A78002A08D02D1B200031000134F2
:100CE000FFF77EFF2A5D002AF7D104B070BDC04631
:100CF000A04B0110F8B5002345469846314B5746A6
:100D00009A460323DE469B4605234E465B425344E8
:100D1000E0B599467F270124002620223100404675
:100D200004F07CFE5B46981BC0B2FFF733FD380031
:100D3000FFF742FD02F096FB782002F0FFFB402017
:100D400002F0FCFB554622002B78013D1A4058105A
:100D50002040520002439810520020401043DA1005
:100D60002240400010431A11400022400243581113
:100D70002040520002439811520020401043DB11E2
:100D80004000184302F0DAFBA945DCD1002001360F
:100D900002F0D4FB02F096FB042EBED101239C4648
:100DA000E0444346063FFFB2152BB5D10023064A67
:100DB0001360064A13603CBC90469946A246AB4677
:100DC000F8BDC046B80600202C2E0120302E012090
:100DD000F8B54746CE4680B5144E154F027880468A
:100DE00034683D68002A0BD0031B99462000290077
:100DF000FFF7F6FE4B4601341A5D002AF6D134683F
:100E000040460FF0EFF82418142C04DC34600CBCBE
:100E100090469946F8BD00223B6832600133032BAF
:100E200001DD3A60F3E73B60F1E7C0462C2E01207C
:100E3000302E012010B50FF0D5F8084B1A689446F3
:100E40006044142807D90021054A1960136801334A
:100E5000032B01DD116010BD1360FCE72C2E012077
:100E6000302E012070B509480AF0B4FF01231D009F
:100E7000074AD0241268FA2095402406054AA56145
:100E80004000136006F0B8FDA56170BDA84B0110CD
:100E90009C4B0110E8330120394A30B51368040037
:100EA00001331360B02383B09B0098425FD028D9F0
:100EB000C0239B00984236D0403398421FD18021F6
:100EC000304A314C1088238801407F201180013343
:100ED00011889BB2238043400B439BB2138011883F
:100EE0002A4B0822186889B2FFF730FB02202849F4
:100EF00023884A7DDB120340824313434B7503B0C2
:100F000030BD013BFF3B98421BD040339842F6D1A5
:100F100080204000FFF732FA2000FFF72FFA64200C
:100F200006F06AFDEBE700238022174C2380154B67
:100F300019880A407F211A801A880A431A80198862
:100F4000CEE703F051F813480AF044FF01231D00D7
:100F5000114AD0241268FA209540019224060F4AC3
:100F6000A5614000136006F047FDA561C7E780203A
:100F70004000FFF75FFA80208000FFF75BFABEE7D2
:100F8000F43301207434012076340120984B011091
:100F90007C520120A84B01109C4B0110E83301202A
:100FA0008023044A5B42517C0B4353740122024B61
:100FB0001A7070477C5201208C0F00200122024BD6
:100FC0001954024B1A60704714520120A02E0120C0
:100FD000F0B5DE4657464E464546E0B5012083B0A3
:100FE00002F03AFA5D4B5E491A68002A03D10A689A
:100FF000002A00D1A4E000225A4F1A603B680A6020
:10100000002B00DAA2E0584B00249946574B9B4630
:10101000574B9846574B9A460EE0574B200019689D
:1010200009F0A0F803002A0008001900FFF7D8FD16
:101030003B680134A34239DB4B465A461B681B5DB3
:10104000D55C424612689342E7D153461B68002B99
:10105000E3D04A4B1B68002B07D0494B1B68002B81
:1010600006D0019580256D00D7E7454B1B6801939D
:101070008021AB005B1901950225424A4942D05CB0
:10108000414E08439055D3185878404E0843905528
:1010900098783F4E08439055D878013608439055CC
:1010A0001B79FF350B433B495354B6E7142120000D
:1010B00009F058F814218246200009F053F88946B7
:1010C000354B00269846434631009A5D1420013680
:1010D000FFF786FD042EF6D16A1EFF3A2B00012A87
:1010E00026D92E4AD35C682293431FD0534616203C
:1010F00058434B462A4EEDB235552A4C2018C5545C
:101100003D6859462A0028480AF0B2FB00232B22EA
:10111000A3541632A35416326375A354735503B007
:101120003CBC90469946A246AB46F0BD2025DDE783
:10113000019D1A4A2B00D35C68229343D6D1F5E770
:101140000A4B084F9B46164E164CD9E7002399468A
:101150009A46064B00249B46B2E7C046A02E0120CB
:10116000282E0120600B00201852012084530220F9
:10117000E8320120F0320120640B0020242E0120EF
:10118000EC320120140600200505000006050000D1
:101190000705000009050000145201208D690110A7
:1011A000A04E01201C5201209C4D0120E02330B5AF
:1011B0005B00040083B0984200D123E10BD81728CC
:1011C0001FD8022865D9C31E9BB2142B57D8A94A31
:1011D0009B00D3589F46D0239B00984241D039D9D9
:1011E000E8239B00984200D139E126D9F0239B00E7
:1011F000984213D10122A04B1A60A04B185D03B096
:1012000030BD0300813BFF3B9BB2012B41D88223C1
:10121000FF33984200D00CE10020F0E720339842E1
:101220002DD1974A1368002B00D107E18021C90115
:101230008C46634400201360E1E7403B984200D1B4
:1012400010E12033984224D100228B4B1A608B4B43
:10125000185DD4E7803B984200D1CDE040339842FE
:1012600004D12000FFF718FE0020C8E7803B984219
:101270000FD10420FFF782F8804B185DBFE72304ED
:1012800000D5A8E08023DB019C4202D37D4B1B6884
:10129000E4187A4B185DB2E77B4B1868FFF724F926
:1012A0007F2343407E201840D023744C1B0660757A
:1012B0005B68764A5B0BDB01184302231288984374
:1012C000D21213401843607503F0E6FD607D96E787
:1012D000D0226F4B1206506819685268C8405C688B
:1012E0000121E2400840C0014008114201D08022A3
:1012F0001043D0221206526899684008CA40D207AB
:1013000003D5802252421043C0B2D0221206526846
:10131000D9684008CA40D20703D580225242104300
:10132000C0B2D0221206526819694008CA40D207DA
:1013300003D5802252421043C0B2D0221206526816
:1013400059694008CA40D20703D58022524210434F
:10135000C0B2D0221206526899694008CA40D2072A
:1013600003D5802252421043C0B2D02212065268E6
:10137000DB694008DA40D30703D580235B4218437A
:10138000C0B29621434A490013688B4200DB36E71E
:10139000E22541495C006554013309194870136026
:1013A0002DE73E4B18782AE73D4B187827E73D4A52
:1013B0001378D9B2012B46D0022900D069E7122850
:1013C00000D066E7032313707F222C4B597C0A4020
:1013D0005A74185D13E7C0231B029C4205D9324B97
:1013E0009C466444314B185D09E72F4B9C46244BC7
:1013F000644418682418F5E70420FFF71BF81F4B16
:10140000185DFCE602F0F0FD29480AF0E3FC012338
:101410001D00284AD0241268FA2095400192240623
:10142000254AA5614000136006F0E6FA0020A56198
:10143000E5E6224B18687F231840E0E680231B0274
:1014400000201360DBE60D4B112800D0D6E6597C56
:101450007F2900D8D2E602211170185DCFE6094A33
:101460001368E3E60023074A00201360044A136070
:10147000C5E6C046B84B0110680B00207C52012025
:10148000D8330120C0330120944B01107634012061
:101490006C0F002040340120A44F01208234012031
:1014A000813401208C0F00200080FFFF900F00206E
:1014B000A84B01109C4B0110E8330120E8320120B9
:1014C0000B4B1A88824206D01A8A82420BD01A8CA1
:1014D00082420AD0704700220121064812019B185F
:1014E00001605960F6E70122F6E70222F4E7C04600
:1014F000300B0020C8320120012070477047C046E1
:101500000022014B1A607047F83301207323084A08
:10151000D15C643B0B400749D3188C4606496344B1
:10152000096819707421535C013353547047C046E5
:101530007C520120B020000028A6022010B50349EB
:10154000034802F0FDF9431E984110BD2C4E0110D6
:10155000849D022010B50349034802F0F1F9431EAF
:10156000984110BD3C4E0110849D0220164AF8B5EA
:10157000136801331360154B9B69DB0603D5144ACE
:101580001368013313601025104C124E124FA369DB
:101590001D4211D1A3691D42FCD12368DBB2002B8F
:1015A000F5D032680D49BB543068013008F0DAFDDF
:1015B0003160A3691D42EDD0A3691D4203D1084AE1
:1015C000136801331360F8BDD0320120008003405E
:1015D000D4320120D83201209C83022088130000DD
:1015E000CC3201207047C046F8B50A4E00243500C1
:1015F000094F3800296802F0A3F9002804D101340A
:101600000835072CF5D1F8BDE40034196368984714
:10161000F9E7C046CC1101208C5402205F4AF0B596
:101620001368DE4659424B41012157464E46454616
:101630005B428B4318000023E0B5546897B0584EC6
:1016400002AA03AF1375A330337010223B002100B0
:10165000019002F0A7FB80239B46524BA3449A467D
:101660000F2398460FE0403902AB5B181A70002335
:10167000013102AA521807A80CA9013413700EF008
:101680003DFCA3452AD0454643462540234266D02B
:101690004246E3171B0FE5181540ED1A7A5D5146D7
:1016A0000CA808F0CDFC30000EF09CFC0CA9301802
:1016B0000EF000FC68217A5D3B4B81469B5C8B43BE
:1016C000D1D107A80EF08EFC07AB9C460222374909
:1016D000604401340AF0CCF8A345D4D10222344945
:1016E00048460AF0C5F8484607A902300EF072FCD9
:1016F000304B314C1A68314B20001968330008F028
:101700009FFC20000EF06EFC2D4E2E4B0200186048
:101710002D49300008F094FC3478002C18D03000AB
:10172000002120220D26294B02255D5F284B002930
:1017300028D1A5422DD099690A42FCD11C600178BC
:1017400001300D394C4261410478C9B2002CEED110
:1017500017B03CBC90469946A246AB46F0BD23006C
:1017600007AA1C490CA808F06BFC0CA930000EF06D
:10177000C5FB02AB1D7510223B002100019802F051
:1017800011FB85E799690A42D8D099690A42F9D1D3
:10179000D4E799690A42FCD11E60CCE728A6022052
:1017A00044600220644E01108D690110B44B011099
:1017B000C85A0110342E0120286C0220D80F0120B5
:1017C00060A50220A43301206C4E011028AA02203B
:1017D00000800340544E0110F0B5D6464F464646B1
:1017E000414BC0B51C68012C08D0022C3DD0002C08
:1017F00028D01CBC90469946A246F0BD3B4B1E68C3
:10180000002EF6DD3A4B3B4C9A4619683A4B0027BE
:101810001B6836199846394B994606E04A462378A4
:10182000013401275355B4425BD00D00481CFA2106
:10183000890008F097FC4145F0D1002FD9D05346DC
:101840001D60D6E72E4F2B4E3D0003E001340835D6
:10185000082CCED03000296802F072F80028F5D0AC
:10186000E4003C1963689847C3E7204B1D68002DCE
:10187000BFDD7423234E1F4AF15C013BF05C663BE5
:1018800000240F279C46AD180FE03C000440A14601
:101890001D4CB144A0464C46444423700124013100
:1018A000C9B201320130AA4215D013780A2BF8D000
:1018B0000D2BF6D0042BE8D1134C3B00A046644618
:1018C0000340F3184344013101321C70C9B20124B2
:1018D0000130AA42E9D1002C00D18AE77423F154E7
:1018E00087E75346196084E7CC2C01203833012068
:1018F000D02D01208C540220D42D01201468022008
:10190000940F01207C520120B0200000F0B50E4B56
:101910000E4D19682B68C6465C1A631C98460C4F1E
:101920000C4E00B51A008919380009F0A1FF424693
:101930003900300009F09CFF0122074B2C601A602F
:1019400004BC9046F0BDC04614330120C0320120D3
:10195000CC7B0220849D02202C330120F0B5C646AA
:1019600001221C4B00B5532100201A600025FFF70F
:1019700025FB194C194E03E001350C34282D11D0EC
:101980002378032BF8D1310060680EF0DFFA0028CD
:10199000F2D10122124B1D60124B1A60124A1368D9
:1019A00001331360114D124B124F19682B68124E00
:1019B0005C1A631C98461A008919380009F058FF10
:1019C00042463900300009F053FF2C6004BC9046B9
:1019D000F0BDC04604340120EC0F0120804E011000
:1019E00064340120683401203C340120C0320120DD
:1019F00014330120CC7B0220849D0220F8B5CE4612
:101A000047461A4C80B52368002B1AD0184B194E44
:101A100019683368184F5D1A6B1C9946174B4A4674
:101A200098461800C91909F023FF4A464146380074
:101A300009F01EFF0023356023600CBC90469946D8
:101A4000F8BD0B4B0B4D19682B680C4F5C1A631CCF
:101A50009846094E1A008919380009F009FF4246D4
:101A60003900300009F004FF2C60E6E72C33012038
:101A700014330120C0320120849D0220CC7B02203F
:101A8000F0B5CE46474680B56421022085B0FFF709
:101A900095FA494C4949200001F052FF002804D131
:101AA00005B00CBC90469946F0BD454B454E1968B3
:101AB0003368454F5D1A6B1C98461A0038000919A7
:101AC00009F0D6FE39004246200009F0D1FE3F4F12
:101AD00035603B6899461D2BE2DC002B67DD3C4BF3
:101AE0002B2598461C004B465D433A4E4544310039
:101AF00020000EF02BFA0028D2D02B34A542F6D1CC
:101B00002B244D4643466543310058190EF062FAC6
:101B10002800314914304D694B680A6803950D69F6
:101B200040440295CD680195896800912B4908F0E1
:101B300087FA2B4B310018680EF008FA002803D002
:101B40003B6801333B60ABE73B68264E5C432200B9
:101B5000143230002449424408F072FA3478002CE0
:101B6000EED03000002120220D26204B02255D5FA3
:101B70001F4B00290FD1A54214D099690A42FCD10C
:101B80001C60017801300D394C4261410478C9B2C2
:101B9000002CEED1D4E799690A42F1D099690A4242
:101BA000F9D1EDE799690A42FCD11E60E5E7084BDF
:101BB000084E9846A4E7C046849D0220884E011036
:101BC00014330120C0320120CC7B0220D82D01200B
:101BD000F497022054A7022028A60220E84E011004
:101BE000900F012060A50220D04E011028AA0220EB
:101BF00000800340F0B5C6466321012000B5FFF721
:101C0000DDF90F4C0F49200001F09AFE002802D1A7
:101C100004BC9046F0BD0C4B0C4E196833680C4F59
:101C20005D1A6B1C98461A000919380009F020FE4D
:101C300042463900200009F01BFE3560E8E7C04647
:101C4000849D0220FC4E011014330120C03201207B
:101C5000CC7B0220F0B5C6466321012000B5FFF71A
:101C6000ADF90F4C0F49200001F06AFE002802D1A7
:101C700004BC9046F0BD0C4B0C4E196833680C4FF9
:101C80005D1A6B1C98461A000919380009F0F0FD1E
:101C900042463900200009F0EBFD3560E8E7C04618
:101CA000849D0220084F011014330120C03201200E
:101CB000CC7B0220F0B5C64604007221012000B59D
:101CC000FFF77CF91D482401041961681C4C2000B1
:101CD00001F036FE002802D104BC9046F0BD194E3A
:101CE000194B1A4F1968336838005D1A6B1C9846F7
:101CF0001A00091909F0BCFD20004246390009F01C
:101D0000B7FD3560124C0025124E03E001350C344E
:101D1000282DE1D02378032BF8D1310060680EF034
:101D200015F90028F2D101220B4B1D600B4B1A60F4
:101D30000B4A136801331360CEE7C04614580110F4
:101D4000849D0220C032012014330120CC7B02206C
:101D5000EC0F0120184F0110643401206834012079
:101D60003C340120F0B5C64604006921012000B5CD
:101D7000FFF724F910482401041961680F4C200072
:101D800001F0DEFD002802D104BC9046F0BD0C4BF2
:101D90000C4E196833680C4F5D1A6B1C98461A007C
:101DA0000919380009F064FD42463900200009F0A5
:101DB0005FFD3560E8E7C04614580110849D02209D
:101DC00014330120C0320120CC7B0220F0B5C6467E
:101DD00004006E21012000B5FFF7F0F8124824013D
:101DE00004196168114C200001F0AAFD002802D1FD
:101DF00004BC9046F0BD0E4B0E4E196833680E4F72
:101E00005D1A6B1C98461A000919380009F030FD5C
:101E100042463900200009F02BFD084B35601A6856
:101E2000074B1A60E4E7C04614580110849D022055
:101E300014330120C0320120CC7B022028A60220CE
:101E40001C2E0120F0B5C64604004321012000B538
:101E5000FFF7B4F81D482401041961681C4C2000E8
:101E600001F06EFD002802D104BC9046F0BD194E71
:101E7000194B1A4F1968336838005D1A6B1C984665
:101E80001A00091909F0F4FC20004246390009F053
:101E9000EFFC3560124C0025124E03E001350C3486
:101EA000282DE1D02378032BF8D1310060680EF0A3
:101EB0004DF80028F2D101220B4B1D600B4B1A602C
:101EC0000B4A136801331360CEE7C0461458011063
:101ED000849D0220C032012014330120CC7B0220DB
:101EE000EC0F0120204F01106434012068340120E0
:101EF0003C34012010B500211F4805F065FD02218A
:101F0000082004F013FE0221092004F00FFEE12155
:101F10001A4C4902200006F095F9C022236B1202E8
:101F20001340174A152013601023E26A1549134025
:101F3000154A136004F046FF0121152004F0FEFE4F
:101F40005023A363626B183B1340104A1048136080
:101F500009F0EAFD09F0BEFE0220FEF76BFA6420EC
:101F600005F04AFD0220FEF709FA0023094A137022
:101F7000094A136010BDC04640420F000080034074
:101F8000309003406D1500102C90034034900340B6
:101F9000284F0110849D0220C0320120F0B5574621
:101FA0004E464546DE460023E0B5394F87B003ADC7
:101FB0002B703B18DB7982460222364E7F2B5BD892
:101FC0003000354909F054FC534601339846042447
:101FD000324A334B91469B46B844042C11D04346B9
:101FE00049461A5D280008F02BF830000DF0FAFF82
:101FF000290030180DF05EFF631C24D0013C042C36
:10200000EDD153460533FA5C594612092800019375
:1020100008F016F830000DF0E5FF290030180DF03B
:1020200049FF02221F4909F023FC0F22019B594658
:10203000FB5C28001A4008F003F8290030000DF07E
:102040005DFF013CDBE70322174909F011FC062282
:102050005744BA56002A14DB4946280007F0F0FF1F
:10206000290030000DF04AFF300007B03CBC90461C
:102070009946A246AB46F0BD30000C4909F0F8FB8A
:10208000A2E728000A49524207F0DAFFE8E7C04613
:102090007C520120006C0220684E0110A04B011000
:1020A000484F0110B44B0110504F0110444F011024
:1020B000544F01100023F0B50024324E324D334FFF
:1020C00091B033702200390006A807F0B9FF06A9C5
:1020D00030000DF013FF2800FFF760FF013401000E
:1020E00030000DF00BFF08350A2CEBD1284B294CA2
:1020F0001A68294B1968294B0493294B1800163884
:102100000290180003932C38423B0190009320006A
:10211000330007F095FF20000DF064FF214A224EA6
:102120001060224A030012683000214907F088FF3E
:102130003478002C18D01F4B300002255D5F202121
:1021400000230D261C4A002B10D1A54215D09369FF
:102150001942FCD11460037801300D3B5C426341AD
:102160000478DBB2002CEED111B0F0BD93691942B6
:10217000F0D093691942F9D1ECE793691942FCD187
:102180001660E4E744600220FF2000005C4F01106D
:10219000342E0120286C0220D40F0120849D0220BF
:1021A0005E520120A433012060A502201C2E0120D4
:1021B000684F011028AA022000800340F8B5574656
:1021C0004E464546DE463A4BE0B59C461860394BD4
:1021D00004001960384B0F009A46002352461360E2
:1021E000364B994601234A461360354B1860354BF0
:1021F00098461E68002846DD320000210023324D3B
:10220000324807E0E95C013CC154013A0121013345
:10221000002C1CD0002AF5DC002932D05246E918E7
:102220001360F61A63461C60294C771C3A002000A4
:1022300009F01EFB3A002100280009F019FB434673
:102240001E603CBC90469946A246AB46F8BD51463E
:102250000B6041460A606246F61A1460721C924690
:102260001B4CE918200009F003FB5246210028000E
:1022700009F0FEFA43461E6000234A461360B84741
:10228000DFE72900D0E7731C9B46114B0E4D9A46A1
:1022900018005A46290009F0EBFA5A465146280020
:1022A00009F0E6FA43461E60002CE5D0C9E7C046B7
:1022B000DC2D0120809D0220C87B0220F02D012012
:1022C00038330120C0320120849D02208C5402202A
:1022D000CC7B0220F0B5C6465021022000B5FEF7A7
:1022E0006DFE114C1149200001F02AFB002802D19B
:1022F00004BC9046F0BD0E4E0E4B0F4F196833686C
:1023000038005D1A6B1C98461A00091909F0B0FADA
:1023100039004246200009F0ABFA084B08495868DA
:102320003560FFF74BFFE3E7849D02202C4E011040
:10233000C032012014330120CC7B022028A60220C9
:10234000E9150010F0B5C6465021022000B5FEF791
:1023500035FE114C1149200001F0F2FA002802D19B
:1023600004BC9046F0BD0E4E0E4B0F4F19683368FB
:1023700038005D1A6B1C98461A00091909F078FAA2
:1023800039004246200009F073FA084B08491868E2
:102390003560FFF713FFE3E7849D02207C4F0110B7
:1023A000C032012014330120CC7B022028A6022059
:1023B000D917001070B51B480DF014FE1A4C1B4BBA
:1023C000020018601A49200007F03AFE2278002A1D
:1023D00018D0184B200002255D5F202400230D2615
:1023E0001549002B17D1954210D08B691C42FCD1A6
:1023F0000A60037801300D3B5A4253410278DBB248
:10240000002AEED101220D4B1A6070BD8B691C426F
:10241000FCD10E60E9E78B691C42E9D08B691C4254
:10242000F9D1E5E7286C022060A50220A433012041
:102430008C4F011028AA022000800340F8330120AD
:1024400010B51C220349044809F012FAFFF7B2FF45
:1024500010BDC046A04F0110286C022010B5064BDD
:1024600006495A681B680648CA54064907F0E8FD41
:10247000FFF7A0FF10BDC04628A602207C52012015
:10248000286C0220BC4F01104C4AF0B51368454639
:1024900059424B4101215B428B431800484BDE46B9
:1024A000984657464E46546800234246E0B597B0DA
:1024B000137003AF02AA1375A3303B001022210052
:1024C000019001F06FFC80239C46A4446346009376
:1024D000002399463B4B9B460F239A4610E0403918
:1024E00002AB5B181A700023013102AA521807A828
:1024F0000CA913700DF002FD009B0134A34229D0FA
:10250000554653462540234242D001239C464E4621
:10251000E144BA5D59460CA807F092FD40460DF023
:1025200061FD0CA940440DF0C5FC6821BA5D264B45
:1025300005009B5C8B43D2D107A80DF053FD07AB80
:102540009C4602222149604409F092F9009B013423
:10255000A342D5D1022228001D4909F089F907A913
:10256000A81C0DF0A7FC03221A49040009F080F909
:102570004346E21A41460332174809F079F9FFF75A
:1025800019FF17B03CBC90469946A246AB46F0BD39
:10259000230007AA11490CA807F052FD0CA94046D8
:1025A0000DF0ACFC02AB1D7510223B002100019820
:1025B00001F0F8FB012300269946AAE728A602208D
:1025C00044600220644E01108D690110B44B01106B
:1025D000C85A01104C520110286C0220D04F011033
:1025E00000B50A4B0A4985B0029119002C310191BE
:1025F00019001A001631163A00910648064907F0EC
:102600001FFDFFF7D7FE05B000BDC04632520120C6
:10261000849D0220286C0220DC4F011010B50C4C68
:1026200082B0A268206801AB1A7042425041012278
:10263000404290436168A33001F0D4FB2368626894
:102640000449054807F0FCFCFFF7B4FE02B010BDDA
:1026500028A60220BC4F0110286C0220F8B5CE46F7
:10266000474680B56D4A1378002B04D16C4B6D4AF8
:102670001B789B009A586C4C6C49200007F0E0FCDA
:102680006B4E210030000DF015FC05000422694955
:10269000200009F0EDF804222100280009F0E8F8F4
:1026A000654F3B68002B17DD644B00259946644B52
:1026B00098464B461B68581980B2FEF777FD414695
:1026C0000200200007F0BCFC210030000DF016FCD9
:1026D0003B680135AB42ECDC5A4D5B492A8820004F
:1026E00007F0AEFC210030000DF008FCAA88574925
:1026F000200007F0A5FC210030000DF0FFFBAA79B7
:102700005349200007F09CFC210030000DF0F6FB3F
:10271000EA795049200007F093FC210030000DF0C9
:10272000EDFBEB79AA794C49200007F089FC2100E8
:1027300030000DF0E3FB6A884849200007F080FC78
:10274000210030000DF0DAFB4549464B08682A7A33
:102750001860888898808979997143490878FF289A
:1027600035D0104241D18878FF2830D010423FD177
:102770000879FF282BD010423DD18879FF2826D038
:1027800010423BD1087AFF2821D0104201D0487A6C
:102790001871887AFF281AD0104201D0C87A58716F
:1027A000087BFF2813D010422BD1887BFF280ED046
:1027B000104229D1087CFF2809D01D00104226D0E4
:1027C000487C0135E871887C0231FF28F6D1200071
:1027D000264907F035FC210030000DF08FFBFFF794
:1027E000E9FD0CBC90469946F8BD48781870BAE7E8
:1027F000C8785870BCE748799870BEE7C879D87037
:10280000C0E7487B9871D0E7C87BD871D2E7887C55
:1028100001350231FF28D1D1D9E7C046403301202C
:102820007D5302206C0B002044600220F84F011001
:10283000286C0220FC4F0110805302208854022093
:1028400000500110005201200850011014500110D6
:10285000205001102C500110385001104850011028
:1028600068500110E00F0120200B0020545001108F
:1028700070B51A480DF0B6FB194C1A4B02001860DF
:102880001949200007F0DCFB2278002A18D0174BEA
:10289000200002255D5F202400230D261449002B13
:1028A00014D195420DD08B691C42FCD10A6003788B
:1028B00001300D3B5A4253410278DBB2002AEED17F
:1028C00070BD8B691C42FCD10E60ECE78B691C4229
:1028D000ECD08B691C42F9D1E8E7C046286C022095
:1028E00060A50220A43301206C4E011028AA02200A
:1028F0000080034000B5094A094909CA094A83B062
:102900001354094A09681268019000930748084B5C
:1029100007F096FBFFF7ACFF03B000BD28A602202E
:10292000DC0F01207C520120342E0120286C022073
:1029300070500110F0B54E46DE4657464546E0B5AC
:1029400093B000236A46384E13733370374B00241C
:102950009846374B9B46374B9A46374B99460FE084
:102960006B4648395B181A706A46002301315218C9
:1029700003A808A9013413700DF0C0FA802C26D0EA
:102980000F231D00254023423FD0434659461A5D80
:1029900008A81F1907F054FB30000DF023FB08A90D
:1029A00030180DF087FA68213A78244B05009B5CBB
:1029B0008B43D5D103A80DF015FB03AB9C46022237
:1029C0001F496044013408F053FF802CD8D1022203
:1029D00028001C4908F04CFF03A9A81C0DF06AFA56
:1029E0000322194908F044FF184B19481A68194B7B
:1029F0001968330007F024FBFFF73AFF13B03CBC23
:102A000090469946A246AB46F0BD5346494603AAB6
:102A1000009408A807F014FB300008A90DF06EFA26
:102A20006B461D73B1E7C046446002207C52012012
:102A3000644E011078500110805001108D69011012
:102A4000B44B0110C85A01104C520110342E012011
:102A5000286C0220D80F012010B50F4C84B0A2685A
:102A6000206803AB1A704242504101224042904319
:102A70006168A33001F0B6F9084B09481A68094BA0
:102A8000196863680193A3680093074B07F0D8FAAD
:102A9000FFF7EEFE04B010BD28A60220342E012060
:102AA000286C0220DC0F01208C500110F0B5574635
:102AB000DE464E4645460023E0B5354F95B002AAA6
:102AC0003B70137380339B46324B04009946324B64
:102AD00003919A460F23834498460FE0483902AB8E
:102AE0005B181A700023013102AA521805A80AA91E
:102AF000013413700DF002FA5C4526D0454643467A
:102B00002540234235D04B4651461A5D0AA81D196F
:102B100007F096FA38000DF065FA0AA938180DF09A
:102B2000C9F968212A781D4B06009B5C8B43D5D1DF
:102B300005A80DF057FA05AB9C46022218496044DF
:102B4000013408F095FE5C45D8D1022230001549C9
:102B500008F08EFE05A9B01C0DF0ACF90322124955
:102B600008F086FE15B03CBC90469946A246AB469E
:102B7000F0BD039B0D4905AA00940AA807F060FA6E
:102B800038000AA90DF0BAF902AB1D73BBE7C046C5
:102B9000446002207C520120644E01108D690110B6
:102BA000B44B0110C85A01104C5201108050011052
:102BB000084B10B518680849FFF778FF074B08481D
:102BC0001A68084B1968084B07F03AFAFFF750FEED
:102BD00010BDC04628A6022078500110342E0120D6
:102BE000286C0220D80F01204460022010B5064B4B
:102BF00006491868FFF75AFF0549064807F020FA0A
:102C0000FFF7D8FB10BDC04628A602204C52011089
:102C100044600220286C022010B52E4B0200196877
:102C20002D480160998881809B7983712B4B19789D
:102C3000FF2935D00A4234D19978FF2930D00A4291
:102C400032D11979FF292BD00A4230D19979FF2945
:102C500026D00A422ED1197AFF2921D00A4201D06A
:102C6000597A0171997AFF291AD00A4201D0D97A8A
:102C70004171197BFF2913D00A421ED1997BFF298C
:102C80000ED00A421CD1197CFF2909D004000A4247
:102C900019D0597C0134E171997C0233FF29F6D1B6
:102CA00010BD59780170C7E7D9784170C9E75979E3
:102CB0008170CBE7D979C170CDE7597B8171DDE7B0
:102CC000D97BC171DFE7997C01340233FF29DED162
:102CD000E6E7C04668500110E00F0120200B0020FD
:102CE000F0B5DE4657464E4645460023E0B587B070
:102CF000C64C0593C64B20681B6883420BD011223B
:102D0000C44B9A56597C002A05DBC34A157A102217
:102D10002A4200D1FAE0C14B9A461B68012B00D130
:102D2000CDE0BF4B0A211A6801321A60186807F01B
:102D300019FA00290CD1BB4C2368002B00D098E075
:102D400020210320FEF73AF923685A4253412360B9
:102D5000B54DB64E2A6833689A421BD0B44BB54F76
:102D60009946B54B9846202304AA13802B68B34993
:102D70005A1C2A60FC5C04ABE4B228681C7007F0A3
:102D8000F1F92960142C79D0002C63D12A683368BA
:102D90009A42E8D1AA4B1C68002C00D0C8E0A44B92
:102DA000A84A99461B78D35C1B071FD5A24B4F46F8
:102DB0009A461D68A44B984601234B449B465346B4
:102DC000A2461C002A005946404608F051FD2A0040
:102DD0004146380008F04CFD9A4A3B786E1ED35CA1
:102DE0000822350026601A42ECD15446974D0DE07A
:102DF000022B07D12000AB689847002802D02000A2
:102E0000EB68984701341035262C0CD02B78012B19
:102E1000EED14846696800F093FD0028EFD10134F7
:102E20001035262CF2D18A4B1A68002A40D0894EE0
:102E30003268002A00D0D9E0874C884D20684200D3
:102E400011188900695C062900D9BAE0844F89000D
:102E500079588F46484604A90DF050F8434642463B
:102E60001B68013313602A6833689A4200D07AE7FE
:102E700090E703205731FEF7A1F865E753461B683A
:102E80000321581C07F06EF95346764D0C0019606B
:102E90000C222800744908F0EBFC012C00D193E0CF
:102EA000022C00D19CE0002C00D193E0FFF782FAC5
:102EB00007B03CBC90469946A246AB46F0BD6B4B72
:102EC0001C68002C00D02CE7694B1E68694B196800
:102ED00099468E4200D124E7674B7F279846614D83
:102EE0002C70013D4346481C5B5CFA2101343B4099
:102EF0002B55890007F036F98E42F3D14B461E6000
:102F0000002301352B55FFF755FA0AE70A4200D195
:102F100001E7FA21594A8900125C01309A7407F0DE
:102F200021F92160FEF73CF85548FEF7C9FAF2E6B0
:102F3000544B99461B68002B2DDD3F4A3C4E1468CC
:102F40000293E31A0193731C92469B463E4F0394EF
:102F5000002CADDD3378220059463800984608F041
:102F600087FC22003900300008F082FC5346464AB4
:102F7000651E1D601368591C11604146434AD154B7
:102F8000029B039A013B9B1A4A461B191360019A44
:102F90002C00AA42DCD1002B00D089E7284A13601C
:102FA0003B4B1B68984783E713189B00EB189B6803
:102FB0009847206843001B189B00EB5C042B00D152
:102FC00076E70130206073E710222800314908F0CD
:102FD0004FFC6BE7092228002F4908F049FC65E700
:102FE0000E2228002D4908F043FC5FE704F0F2FDB3
:102FF0002B4A53688B4200D95AE703D113688342A6
:1030000000D955E70023336052E7C046D42D012094
:10301000D02D01207C52012000520120CC2C012017
:10302000342E0120E80F0120DC320120D8320120AB
:10303000849D02209C830220C0320120881300005E
:10304000F02D01208D690110CC7B02201458011055
:10305000683401206034012064340120EC0F012029
:10306000D0500110286C022094500110F833012038
:10307000E42D0120E82D01205C5C02201468022070
:10308000F0FF0000DC2D0120C87B02208C540220C0
:10309000809D0220AC500110A0500110BC500110C6
:1030A000C8280120414D2F78002F8AD0404B0D2198
:1030B00002269E5F002398468C46202241463D4BC7
:1030C00000290FD1BE4214D099690A42FCD11F6079
:1030D000297801350D394F4279412F78C9B2002F37
:1030E000EED16EE799690A42F1D099690A42F9D1A5
:1030F000EDE799690A42FCD161461960E4E70022D4
:103100001A60D5E62C4B984613189B00EB1805AABD
:10311000414658680CF02EFE0123336004F05AFD3E
:10312000059A53019B1A9B009B18DB001E00DF17BA
:1031300080197941214B186059604146204806F0BA
:103140007FFF36E713181F4F9B00EB1838005968B4
:1031500006F076FF3E78002E00D12AE7144B3800A7
:1031600002229B5E002120220D279C46114B002944
:103170000FD1B44514D099690A42FCD11E60017880
:1031800001300D394E4271410678C9B2002EEED1A0
:103190000FE799690A42F1D099690A42F9D1EDE73E
:1031A00099690A42FCD11F60E5E7C046286C0220FD
:1031B00028AA022000800340CC500110C82801201A
:1031C000689D022060A50220F0B5C64600B5954D69
:1031D00082B02B68002B1CD1934C2368002B00D0AD
:1031E0007CE0924C2368002B00D090E0904C236848
:1031F000002B00D0A2E08F4C2368002B00D0B4E05D
:103200008D4D2B68002B00D0E9E002B004BC904645
:10321000F0BD002398466B46424601AC1A7001216E
:103220006A46DE2000F024FB802622000121DF20F8
:1032300000F066FA42462378764233432270022138
:103240002200DE200D27637000F012FB6B466A46F9
:103250000121DE201F7000F00BFB22000121DF2086
:1032600000F04EFA2378220033430221DE206370FF
:10327000277000F0FDFA6B466A460121DE201F70C0
:1032800000F0F6FA22000121DF2000F039FA23785D
:1032900022001E430221DE2066702770072600F000
:1032A000E7FA6B466A460121DE201E7000F0E0FA64
:1032B00022000121DF2000F023FA7F23227802215F
:1032C0001340DE2022006370267000F0D1FA4346DE
:1032D000554C2B602368002B00D182E76B460025FC
:1032E0006A460121DE2001AE1D7000F0C1FA3200F5
:1032F0000121DF2000F004FA7F233278256013409B
:103300004A4C4E4A13602368002B00D16EE701231C
:103310006A460121DE2001AD137000F0A9FA2A00EF
:103320000121DF2000F0ECF9454B2A781A600023D8
:1033300023603F4C2368002B00D15CE702236A46E0
:103340000121DE2001AD137000F092FA2A00012164
:10335000DF2000F0D5F93B4B2A781A600023236068
:10336000344C2368002B00D14AE76B4600266A469E
:103370000121DE201E7000F07BFA012101AADF206E
:1033800000F0BEF96B461A797F232F4D13402F4A68
:103390000121AB5401236A46DE20137000F068FA65
:1033A000012101AADF2000F0ABF96B461A79284B06
:1033B0000121EA5402236A46DE20137000F058FA15
:1033C00001AA0121DF2000F09BF96B461A79214BFD
:1033D0002660EA54184D2B68002B00D115E7002712
:1033E000194E1A4B01ACF35C22000221DE206370FF
:1033F000277000F03DFA0122154B0221F35CDE201C
:1034000022702200637000F033FA0222114B022175
:10341000F35CDE2022702200637000F029FA2F6036
:10342000F3E6C046EC330120CC330120C833012041
:10343000C4330120F0330120E8330120E4330120BC
:10344000E0330120DC3301207C520120CA2000003F
:10345000C9200000C8200000014B18607047C0461A
:10346000041201200123154A84B01268934001928E
:10347000D02212065362936100230393039B042B13
:1034800005DC039B01330393039B042BF9DD01232C
:103490000B4A126893400192D02212065362936144
:1034A00000230293029B042B05DC029B0133029351
:1034B000029B042BF9DD04B07047C046904B01100D
:1034C0008C4B011001221B4B86B01B689A40019364
:1034D000D0231B065A629A6100230593059B042B97
:1034E00005DC059B01330593059B042BF9DD0123C6
:1034F000114909688B400191D02109068B62002394
:103500000493049B042B05DC049B01330493049B6C
:10351000042BF9DDD0231B069A6200230393039B3F
:10352000042B05DC039B01330393039B042BF9DD80
:1035300006B07047904B01108C4B0110012170B503
:103540000C00324BD0221B6808259C40304B0026D3
:103550001B6888B099400193120643B2002B51DBDF
:10356000546294610596059B042B05DC059B013391
:103570000593059B042BF9DD91620496049B042BB3
:1035800005DC049B01330493049B042BF9DD516299
:1035900091610396039B042B05DC039B013303938A
:1035A000039B042BF9DD4000013DC0B2002DD4D1B6
:1035B000D0231B069C6299620695069B042B05DCB2
:1035C000069B01330693069B042BF9DDD020642370
:1035D000000602E0013B002B16D042682242F9D1DE
:1035E0000120D0231B065962996100230793079B92
:1035F000042B05DC079B01330793079B042BF9DDA4
:1036000008B070BD9462ADE70020EAE7904B01106E
:103610008C4B0110F0B50125374B47468846196899
:103620002B00D0228B40CE46120680B5994693627D
:10363000324B84461B6808279D4000240026012049
:1036400089B001930596059B042B05DC059B01338E
:103650000593059B042BF9DD95620496049B042BCE
:1036600005DC049B01330493049B042BF9DD5368B0
:103670006400CB4055620340956103961C19039B7F
:10368000042B05DC039B01330393039B042BF9DD1F
:10369000013F002FD6D14346002B28D0D0234A46E5
:1036A0001B065A629A61D0231B069D620023079372
:1036B000079B042B05DC079B01330793079B042B17
:1036C000F9DDD0231B065D629D6100230693069BF6
:1036D000042B05DC069B01330693069B042BF9DDC6
:1036E00063461C7009B00CBC90469946F0BDD023CF
:1036F0004A461B069A62D6E7904B01108C4B01108C
:10370000F0B546464F46D6460123C0B51700564A87
:103710008AB012680E0093409846D0230192424628
:103720001B065A629A6100230293029B042B05DC5C
:10373000029B01330293029B042BF9DD01234B4AC8
:10374000126893409946D02301924A461B065A625A
:103750009A6100230393039B042B05DC039B013335
:103760000393039B042BF9DDFFF7E8FE002846D006
:10377000002E0FDD731E9A46002406AD5346191B1A
:103780004B1E99412800FFF745FF2B783B5501342C
:10379000A642F3D1D02342461B065A629A61002307
:1037A0000793079B042B05DC079B01330793079BBB
:1037B000042BF9DDD0234A461B069A6200230893A6
:1037C000089B042B05DC089B01330893089B042B02
:1037D000F9DDD02342461B069A6200230993099B18
:1037E000042B05DC099B01330993099B042BF9DDAC
:1037F00001200AB01CBC90469946A246F0BDD023D9
:1038000042461B065A629A610490049B042B05DC15
:10381000049B01330493049B042BF9DDD0234A4617
:103820001B069A6200230593059B042B05DC059B70
:1038300001330593059B042BF9DDD02342461B067B
:103840009A6200230693069B042BD2DC069B01336D
:103850000693069B042BCCDC069B01330693069B48
:10386000042BF3DDC5E7C046904B01108C4B0110D3
:10387000F0B50125304B89B01B680F009D400193C6
:10388000D0231B065D629D6100230393039B1400FC
:10389000042B05DC039B01330393039B042BF9DD0D
:1038A0000126264B1B689E400193D0231B065E62B7
:1038B0009E6100230493049B042B05DC049B0133CD
:1038C0000493049B042BF9DDFFF738FE002F06DD7F
:1038D000E71920780134FFF731FEA742F9D1D02350
:1038E0001B065D629D6100230593059B042B05DC8F
:1038F000059B01330593059B042BF9DDD0231B06A3
:103900009E6200230693069B042B05DC069B013375
:103910000693069B042BF9DDD0231B069D62002332
:103920000793079B042B05DC079B01330793079B39
:10393000042BF9DD09B0F0BD904B01108C4B011048
:10394000F0B54546DE4657464E460024E0B50D002C
:10395000BF4B93B01C60BF4B01911C60BE4B070076
:103960003C220021BD4898461C6007F07BFFBC4B01
:103970001C701C752B78002B5ED000220292B94A75
:103980000024002693463900009709783200002968
:1039900018D0202B21D0252B32D00136013499426A
:1039A00013D1434642461B6801331360019B0294C6
:1039B0001B5D002B40D0BA1911000978009232002B
:1039C0000029E6D1202B00D1B7E1002013B03CBC88
:1039D00090469946A246AB46F0BDA34B01345B5CD2
:1039E0001B07E3D54346082118684546013683196D
:1039F0009B1A2B60BB5D9C4DEB5C1942F5D1D5E762
:103A0000019B621C994618009B5C9144002B00D1DD
:103A1000B0E15B2B7DD011D8252B72D10136252941
:103A2000D3D1434642461B68023401331360019BE5
:103A300002941B5D002BBED10120C7E7642B01D08F
:103A4000782B5ED101220020874D00921FE0782B59
:103A5000BBD14421BB5DEA5C114200D175E120225B
:103A600006A98A800B7110220301002107A89A463B
:103A70000CF0ACFC5044434642461B68013601330F
:103A80001360BB5D002B00D136E14B461B78642BE5
:103A9000DDD1754ABB5DD15C04220A4222D12D2BB7
:103AA00000D121E1002E00D18FE7BB19013B1B782B
:103AB0006D49C95C0A4202D12D2B00D085E7644BC9
:103AC00063491B685A1C0A6000999B004143080027
:103AD0006249C8500E2A00DD43E10234019B029482
:103AE0001B5D66E7202206A98A800B712D2B0CD066
:103AF00083001818430007A89A460BF0B1F8504409
:103B0000B9E71400009902923FE701235B4200935A
:103B1000B1E7504B00221B6851499A469B00029323
:103B200053449B00CA54019B1B199A78002A00D168
:103B30004BE70198023406A900230731001908E079
:103B4000262B00D141E70133CA54C25C002A00D1C0
:103B50003BE7E5185D2AF3D10595262B00D134E724
:103B6000002208ACE254E3185A705B4620001A6049
:103B70000CF038FA002822D0002301250396049780
:103B800014E05E1CA15D2D2972D05B46374F1B6887
:103B9000B9465900C9188900CD5549444A608A6020
:103BA0005A46013313603300834206D2E25C5E2A38
:103BB000E7D1013302258342F8D3039E049F009B83
:103BC0001A78002A3AD02649029B894653449B0022
:103BD00099445B461D683B0007AC57469A4619E07E
:103BE00059688A4202DB99688A4220DD022F00D19F
:103BF000EBE6002321004846637022700CF07EF94A
:103C0000434642461B6801360133136053469A5DB2
:103C1000002A11D0002D0EDD0020144B1978012947
:103C2000DED159688A4202DB99688A42DEDD0130C2
:103C30000C33A842F2D15346BA461F005346054AF8
:103C4000059C013313600134019B02941B5DB0E6B7
:103C500010330120183301201433012028A602203C
:103C600054A702201C3301208D69011064A6022094
:103C70009E1CA75DB946002F25D15F465B463F6875
:103C80001B68B9465B0099444B469B009946EAB2D3
:103C900013004F463B4ABB544A44516091605A4618
:103CA0001268384F0132914652004A44B946920098
:103CB000D3555B464A44516091605A461B680233B3
:103CC0001360330070E759462E4F0968BC464E001A
:103CD0007618B600F555664472604A46B2605A4698
:103CE0000131116003335FE7202107AA11801370AF
:103CF00001235B420093BEE6019A029B9446634413
:103D00009B78002B00D060E61F4B1F491B685A1C94
:103D10000A6000999B00414308001C49C8500120DB
:103D20000E2A00DC52E61A4B1A490020196061463F
:103D3000194B1960194B1A6048E6029A019B944688
:103D4000634458784342584140E6002E00D13CE697
:103D50004422BB19013B1B78EB5C1A4200D0AEE653
:103D600033E60B4B0B4919600B4B019919600B4B58
:103D70001A602AE6064B0A4A1A60074B18600020B0
:103D800024E6C04664A602201033012028A60220A3
:103D900008120120745A01100C1201200C3301206A
:103DA000805A0110F0B5040083B00D481F001600C2
:103DB0000D0008F00FF80F20FFF74EFBFE2001AAC0
:103DC0006DBA158020400221FFF752FD01202043EB
:103DD0003A003100C0B2FFF793FC03B0F0BDC0461B
:103DE0009C5A0110F8B5070012480E0015001C007F
:103DF00007F0F0FF0F20FFF72FFBFFF733FBFE204C
:103E00003840FFF79BFB3012C0B2FFF797FBF0B2D0
:103E1000FFF794FB002D06DD651920780134FFF7CC
:103E20008DFBAC42F9D1FFF74DFB042003F0E4FD1C
:103E3000F8BDC0469C5A0110F8B53B4B4E4699461A
:103E40008422574645460023DE464946FF32E0B508
:103E50008B54013A8B54354B4C469A4680235B0277
:103E6000CB4600250027984680345B461A780133FC
:103E7000BF18BFB2A342F9D180222900504607F0F3
:103E8000A9FF0F20FFF7E8FAFFF7ECFAA020FFF7F1
:103E900055FB2812C0B2FFF751FBE8B2FFF74EFB0B
:103EA0005E4630780136FFF749FBA642F9D1FFF7AD
:103EB00009FB042003F0A0FD802334009C468035DC
:103EC000E34480344545D0D1194BC1241F8084255B
:103ED0004B463A0A640021001A55FF35022250462B
:103EE0005F5507F077FF0F20FFF7B6FAFFF7BAFA32
:103EF000A020FFF723FB0120FFF720FB8220FFF724
:103F00001DFB4B46185DFFF719FB4B46585DFFF74D
:103F100015FBFFF7D7FA042003F06EFD3CBC90467A
:103F20009946A246AB46F8BD7C5201209C5A01102E
:103F30006C3401208022F0B5274C9446230057466C
:103F40004E464546DE466344E0B599461E000023D2
:103F50009846224B00259B4680235B029A4683B0FD
:103F600001AF80224146584607F034FF0F20FFF78B
:103F700073FA43463A000221A0205BBA3B80FFF768
:103F800077FC22008021A120FFF7BAFB23780134BF
:103F9000ED18ADB2A642F9D180239C46E0444C46D0
:103FA0008036D04501D0E144DBE7C1230A4A5B00FB
:103FB000D35C84220849FF32895C1A025B18ED1A2F
:103FC0000748084B8A1802801D8003B03CBC90460D
:103FD0009946A246AB46F0BD7C5201209C5A011086
:103FE000703401206E34012000230121034A136044
:103FF000034B19601368002BFCD07047B02E0120D2
:10400000A82E012010B51C4C2368002B04D11B4C9A
:104010002368002B19D110BD01210120184AFCF79B
:104020003DFEFCF7D5FF00232360FFF705FF0122CB
:10403000144B01211A600320134AFCF72FFEFCF7F2
:10404000C7FF0E4C2368002BE5D0012101200F4A49
:10405000FCF724FEFCF7BCFF00232360FFF76AFF98
:1040600001220B4B01211A6003200A4AFCF716FEBD
:10407000FCF7AEFFCFE7C046A82E0120AC2E0120F2
:10408000B45A0110B02E0120C05A0110CC5A0110B0
:10409000B42E0120DC5A01107047C0460120034BAA
:1040A00003491A68126808601A60704710120120EC
:1040B000243301200122034B1A60034B034A1A6088
:1040C0007047C04624330120101201205C120120E9
:1040D0000122034B1A60034B034A1A607047C04623
:1040E00024330120101201201C1301200122034B54
:1040F0001A60034B034A1A607047C04624330120FC
:10410000101201202C1201200122034B1A60034BD4
:10411000034A1A607047C046243301201012012060
:10412000981201200122034B1A60034B034A1A60C4
:104130007047C0462433012010120120E0120120F4
:104140000122014B1A607047F03301200122014B1C
:104150001A607047E833012030B589B0FCF7CAFD1A
:10416000002100200F4AFCF799FD0F4DFCF734FAAF
:1041700001F074FF431CF9D001F046FF2900020052
:1041800004000300009003A805F05AFF012100205D
:1041900003AAFCF771FD012CE8D1044B1C6009B0A7
:1041A00030BDC046EC5A0110FC5A011024330120E6
:1041B00010B5FCF757FE10BD802110B55022A3208A
:1041C000024B4901FFF70EFE10BDC0467B73012074
:1041D0008422112110B50E4BFF3299547231FF31F8
:1041E0005A5CA02001325A545B180222FFF7FAFDF4
:1041F000FCF780FD074A00210020FCF74FFDFCF78B
:10420000EBF9054803F0F8FB0122044B1A6010BDDE
:104210007C520120105B0110B80B000024330120F8
:10422000802110B55022A320024B4901FFF7BAFDAF
:1042300010BDC0467B73012000B595B06B4650227F
:104240000649A120FFF7AEFD80216B4650224901AF
:10425000A220FFF7C7FD15B000BDC046FF2000003B
:10426000F0B5DE46454657464E46E0B583B0FCF70E
:10427000D9FB002500242000012229000134FCF78D
:1042800015FC792CF7D10A35282DF3D1002500240F
:104290002100012228000134FCF708FC1F2CF7D173
:1042A0000A35822DF3D1FA20C00003F0A5FBFCF7FC
:1042B000B9FB00239B468B4B9D2500930193012363
:1042C00001279A4699465B466D007F42AB46002621
:1042D000B8461D00844C310028000022FCF7E6FBA4
:1042E000414650460022FCF7E1FB49465046002279
:1042F000FCF7DCFB414638000022FCF7D7FB4946BF
:1043000038000022FCF7D2FB009A019B94465B44E4
:104310001800A44464216646019305F023FF64213C
:1043200005003000009605F01DFF06000100012287
:104330002800FCF7BBFB6A1C9246721E9046504652
:1043400001224146FCF7B2FB721C91465046012205
:1043500049466F1EFCF7AAFB012241463800FCF7D4
:10436000A5FB012249463800FCF7A0FB019B5F4AF0
:1043700093423BDD5B46D804C01A8000C01AC000DF
:1043800058448001C01A8000C01A594905F0EAFE5D
:10439000009B83461A00C8231B019A4258DDE004A3
:1043A000001B8000001BC00000190001001BC000A2
:1043B00000194F49400005F0D5FE4C4B0400019315
:1043C000C8231B010093FCF707F901F047FE431CCB
:1043D00081D001F019FE012878D0062872D0052876
:1043E0006BD164235B429C46E34474E7009B1A0054
:1043F000C8231B019A4246DDE004001B8000001B1D
:10440000C00000190001001BC0000019384940001D
:1044100005F0A8FE019B04001A0096235B009A4257
:104420005BDA5B46D804C01A8000C01AC00058444A
:104430004001C01A800058442D49400005F092FE0A
:1044400096235B000193C8231B0183460093BAE7C0
:10445000264B0193009B1A0096235B009A42B2DA26
:10446000E004001B8000001BC00000190001001BBD
:10447000C00000191E49400005F074FE96235B0041
:10448000040000939FE7019B1A0096235B009A4269
:10449000E0DA5B46D804C01A8000C01AC000584455
:1044A0004001C01A800058441149400005F05AFEEE
:1044B00096235B0083460193CCE7032800D00AE7EC
:1044C000643408E764239C46E34404E703B03CBC3F
:1044D00090469946A246AB46F0BDC8231B01009307
:1044E00071E7C0468813000041020000D43000008C
:1044F0001027000010B5024B186801F0DDFA10BD5E
:104500001412012010B50B4807F064FC322404207B
:10451000FBF734FF012003F06FFA0420FBF78AFF5A
:10452000013C012003F068FA002CF0D1024807F0AA
:1045300051FC10BD1C5B0110245B0110F0B5DE4680
:1045400057464E464546E0B5BC4893B007F042FC9E
:104550000A2007F097FABA4807F03CFC0A2007F057
:1045600091FAB84807F036FCB74807F033FCB74873
:1045700007F030FCB64807F02DFCB64CFCF752FAB9
:10458000B54B0C930D94002311930023B34C0A9365
:104590000B940023B24C029303940523B14C9B4629
:1045A000B14B0E930F9400231093FCF715F85B4664
:1045B000002B00DC99E00E980F99AC4B002206F01E
:1045C00078F800239A4608900991504606F0EAF8D8
:1045D0000A9E0B9F32003B0004000D0006F042F8DB
:1045E000A34A04900591A34B2000290006F061F82E
:1045F0003B00320006F036F8002300249946984626
:1046000000232500009301941C0006900791049A52
:10461000059B2000290006F025F8069A079B040058
:104620000D000098019906F01DF806000F0020000B
:10463000290006F06FF9009001913000390006F072
:1046400069F902000B000098019906F00BF8009040
:1046500001912000290006F047F904000D00300008
:10466000390006F041F902000B002000290005F096
:10467000F9FF040048460D0006F094F8089A099BDB
:1046800006F078F807000022781E87417A4B200058
:10469000290006F00EF80022784B06F00AF80022F6
:1046A000764B05F0DFFF06F095F8060000980199BB
:1046B0000022714B05F0FDFF029A039B05F0F9FF04
:1046C000029A039B05F0CEFF06F084F83A00310011
:1046D000FCF7ECF901239C46E044D144D84596D13F
:1046E000E2445346642B00D06FE70C9A0D9B0A9866
:1046F0000B9905F0B7FF0A900B9101F0AFFC431C3A
:104700000FD001F081FC012832D0062827D00528DF
:104710000ED1029803990022574B05F0CAFF029070
:104720000391119B002B00D13FE7FCF77BF93CE79D
:104730004E2868D0482862D054285CD02B283ED11F
:10474000109B012B2BD0022B19D001239C46E34454
:1047500059464B4807F03EFB00231093E1E70298CF
:10476000039902000B0005F07DFF02900391D8E74A
:1047700013B03CBC90469946A246AB46F0BD414AB8
:10478000414B0E980F9905F06DFF02000B003F485A
:104790000E920F9307F01EFB02231093C1E7394AD4
:1047A0003B4B0C980D9905F05DFF0A9A0B9B0C9002
:1047B0000D91384807F00EFB01231093B1E72D2827
:1047C00012D1109B012B2BD0022B20D10E980F99C8
:1047D0002C4A2D4B05F03DFF02000B002B480E929A
:1047E0000F9307F0F7FA9CE720289AD10123119A3A
:1047F0005A40119295E7284807F0ECFADCE7274881
:1048000007F0E8FAC8E7264807F0E4FAA4E701232E
:104810005B429C46E3445946194807F0DBFA80E7BF
:104820000C980D99174A1A4B05F013FF0A9A0B9B27
:104830000C900D91174807F0CDFA72E7305B01102C
:10484000505B0110745B0110B45B0110D45B01106C
:10485000EC5B01109999993F9A999999000034401D
:10486000000050406666E63F6666666600407F4030
:104870009A4B2352916305400000E03F0000304016
:10488000105C01107B14AE47E17A943F205C01106C
:10489000E17A743F185C0110285C0110345C01104F
:1048A000405C01107047C0467047C0467047C04624
:1048B0007047C0467047C0467047C046264BF0B5AB
:1048C00047469846C823CE465B010024994680B5EA
:1048D000224E234F234D91B06B4640222100A3204E
:1048E000FFF760FAFCF706FA6B4600211A78002001
:1048F000FCF7E6F96B4600215A1C0520FCF7CEF9BF
:1049000011236B441A0001210020FCF7C7F940462F
:1049100007F060FA6B463800197807F05BFA6B46CF
:104920003000591C07F056FA11236B441900280077
:1049300007F050FAFBF750FE01F090FB431CF9D052
:1049400001F062FB012802D040344C45C4D111B0C3
:104950000CBC90469946F0BD4C5C0110605C0110A7
:10496000545C01106C5C0110F0B599B000236A46EC
:104970001370FCF7BFF9334D00212A000020FCF72B
:104980008DF96846FCF724FA00272026FBF724FE61
:1049900001F064FB431CF9D001F036FB0400012850
:1049A0001CD00D2821D068460BF01CFB1D28EDD82B
:1049B0006B4620221E849B18190068441C700BF063
:1049C00009FBFCF797F92A0000210020FCF766F9A3
:1049D0006A4600210520FCF761F9D7E76B461B7892
:1049E000002B28D1184B186023E0184807F0F2F983
:1049F000002408AD02E00134642C1FD0A6012B0076
:104A000040223100A320FFF7CDF92B782A2BF2D0DA
:104A100021000F4807F0DEF921202A236946684467
:104A20002B700BF0D7FA2B0040223100A220FFF7A9
:104A3000D9F919B0F0BD6B461F70C2E7054807F001
:104A4000C9F9F6E7785C011024330120805C01107D
:104A5000945C0110AC5C0110F0B5DE4657464E4642
:104A60004546E0B5A9B000236A461370FCF742F949
:104A70008D4F00213A000020FCF710F96846FCF742
:104A8000A7F98A4B00249946894B00269A46894B00
:104A90009B46FBF7A1FD01F0E1FA431C00D1A6E023
:104AA00001F0B2FA0500012851D00D2800D192E0A2
:104AB000002E00D17AE07E4B1800984607F08AF964
:104AC000632C03DD52E00134642C4FD0A10118ABFC
:104AD0004022A320FFF766F961236B441900684662
:104AE0000BF034FA0028EED1402218A908A806F0ED
:104AF000BFFE584607F06EF9FCF7FCF83A000021BB
:104B00000020FCF7CBF82122002105206A44FCF7A5
:104B1000C5F83122012100206A440134FCF7BEF8B7
:104B2000FBF75AFD01F09AFA431CF9D001F06CFA38
:104B3000012800D188E00D28F2D1FBF74DFD0126B8
:104B400001F08CFA01F060FA05000128ADD16B4646
:104B50001B78002B00D08FE00122574B1A6029B040
:104B60003CBC90469946A246AB46F0BD484607F08D
:104B700031F900236A461370FCF7BCF83A000021B3
:104B80000020FCF78BF86A4600210520FCF786F828
:104B9000FBF722FD01F062FA431C6AD001F034FAFF
:104BA0000500012878D00D2879D0002420239846CC
:104BB00068460BF017FA1D282DD9FBF70DFD01F003
:104BC0004DFA431C25D001F01FFA002605000128EC
:104BD000BDD00D28ECD15046D04607F0FBF8002E92
:104BE00000D06DE7354807F0F5F800246EE7002E99
:104BF00000D055E7FBF7F0FC01F030FA431C00D081
:104C00004EE7FBF7E9FC01F029FA431C00D047E727
:104C1000F0E700263DE76A4660234146D21811803E
:104C20006A46D318190068441D700BF0D3F9FCF7DD
:104C300061F83A0000210020FCF730F86A460021B4
:104C40000520FCF72BF8B8E700236A461370FCF741
:104C500051F83A0000210020FCF720F86A460021B4
:104C60000520FCF71BF80126FBF7B6FC01F0F6F96E
:104C700068E7002400260CE700236A461370FCF75F
:104C800039F83A0000210020FCF708F86A460021B4
:104C90000520FCF703F8FCE60024002657E7404611
:104CA00007F098F89EE7C046BC5C0110F45C011068
:104CB000C45C0110EC5C011024330120D45C0110B1
:104CC000F0B5C646294B00B598461B68002B24D189
:104CD00001F0C4F9431C02D104BC9046F0BD01F0C0
:104CE00093F9234B1C68237B262BF5D0220000214F
:104CF000183206E00C3213000C3B1B780131262BD6
:104D0000EAD08342F6D14B005918890064186369D0
:104D10009847012342461360DEE7002342461360B2
:104D2000FBF7E8FF124E31680B7B262B1AD00025CB
:104D30000023104F5B199C0009190869FCF77AF8E9
:104D4000336801359C4664442069FCF741F838001B
:104D5000FCF73EF86B0031685A1992008A18127BF2
:104D6000262AE7D18B689847B2E7C0462433012052
:104D700010120120684E011070B504002500FBF7E9
:104D8000B9FF661C002100202278FBF799FF11353E
:104D9000320000210520FBF781FF2A0001210020BD
:104DA000FBF77CFF0B4807F015F821780A4807F05D
:104DB00011F83100094807F00DF82900084807F0FC
:104DC00009F8FBF709FC01F049F9431CF9D001F09F
:104DD0001BF970BD4C5C0110545C0110605C01104B
:104DE0006C5C0110F0B5C64600B598B0FBF782FFC9
:104DF0001B4B002498462D251A4F1B4E220041467E
:104E0000684605F01DF96A4600210020FBF746FFC1
:104E100020226B469B1820001D700A2105F0A2F984
:104E200021230A006B4439001800413205F008F9CB
:104E300031236B4422003100180005F001F9A10173
:104E4000402208ABA220FEF7CDFF013408A8FFF7EF
:104E500093FF642CD2D118B004BC9046F0BDC0467C
:104E6000085D0110105D0110145D01100022044B5B
:104E70001A60044B01321A60034B044A1A607047EF
:104E8000203301202433012010120120641301205B
:104E900010B5FFF715FF10BD1A4B70B51A680A213F
:104EA000501C186005F05EF9174A002910D17B23C9
:104EB000D156164BC80F1860154B5C689D68DE68AC
:104EC0001C601C695D609E60DC601861002907DB66
:104ED0007423D35C002B02D000220E4B1A6070BDED
:104EE000012CF5D13543F3D10A480368013303603F
:104EF000042BEDD108490C600B68002BFCD103603A
:104F0000E6E7C046103401207C5201200C34012019
:104F10001812012014340120202E01200022014B00
:104F20001A607047A83301200122014B1A607047B4
:104F3000C432012070B50D4C0D48216806F04AFFBF
:104F40000C4D0021280006F045FF23681C00303C72
:104F5000392B01DD573B1C002100280006F03AFFE9
:104F6000054B1A6811012143196070BDE032012020
:104F70001C5E0110245E0110A833012010B5010051
:104F8000014806F027FF10BD2C5E0110A522A621C6
:104F900070B5154B15489A5C5E5C1202B618A722D4
:104FA00002319A5C5D5C1202AD18A92202319A5C52
:104FB0005C5C1202A4180E4A0E499A5C595C1202FB
:104FC0008918B6B289B206F005FFADB231000A48C1
:104FD00006F000FFA4B22900084806F0FBFE2100FD
:104FE000074806F0F7FE70BD7C520120405E0110BC
:104FF0006520000066200000505E0110605E011018
:10500000705E011070B50A2006F03CFD074C084D9B
:105010002600403621682800083406F0DBFEB44242
:10502000F8D10A2006F02EFD70BDC046F413012011
:10503000F84F011070B50A2006F024FD0B4C0C4E01
:1050400025008135FF35626813782A2B03D03000A4
:10505000217806F0BFFE0C34AC42F4D1054806F0CE
:10506000B9FE0A2006F00EFD70BDC04634140120C2
:10507000805E01108C5E0110F0B5DE464E4645465E
:1050800057468022E0B5264C0021A54410ABD20043
:10509000A320FEF787FE0A2006F0F4FC002302ADF1
:1050A0002B70204B002499461F4B204E9846204BD6
:1050B0009A460CE05146684604F0C2FF6946280053
:1050C0000AF01CFF80230134DB009C421CD0194BEA
:1050D000E7180F231A0022409346234208D0682184
:1050E0003A78B35C8B43E5D12E236A461380E5E71B
:1050F0002900484606F06EFE5B4602AD21004046A0
:105100002B7006F067FEEAE70A2006F0BBFC0A4BAC
:105110009D443CBC90469946A246AB46F0BDC04675
:10512000BCEFFFFFB05E0110B85E01108D69011089
:105130000C5D01100000181044100000F0B5DE46B0
:105140004E4657464546E0B50A2091B006F09AFC17
:1051500000236A4613728023234E9B003468E318B1
:105160009C4237D2214B224F9846224B9B46224BE2
:105170009A46224B994610E02A004946684604F0B8
:105180005FFF694602A80AF0B9FE802292009446A9
:10519000336801346344A3421CD90F231D0025400A
:1051A00023420CD025784046290006F013FE6822E1
:1051B0007B5D9343E0D12E236A461380E1E702A989
:1051C000584606F007FE6B46210050461D7206F059
:1051D00001FEE7E70A2006F055FC11B03CBC904602
:1051E0009946A246AB46F0BDA8330120205D0110D0
:1051F0008D690110B05E0110C05E01100C5D0110E0
:1052000010B584B001AB1900074A11CA11C110884A
:1052100008809278A3208A70044A11680A22FEF757
:10522000E1FD04B010BDC046C85E0110A8330120E6
:10523000F0B5DE4657464E464546E0B5214B89B0AF
:105240009B461B68002B32DD1F4B002499461F4BE9
:1052500098461F4A6300D55A1E4A1F49165D1F4AC9
:105260001F48125DADB2D2B20692CA5AC75A4B4617
:105270001B5D91B2DBB29A464B46185D0791C0B2F6
:10528000FDF7CAFC53460799069AF6B2BFB20490DE
:105290000393019133002100009240462A000297B7
:1052A00006F098FD5B461B680134A342D1DC0A205E
:1052B00006F0E8FB09B03CBC90469946A246AB46D6
:1052C000F0BDC046B42C012070480120D45E01100E
:1052D000DC360120EC440120103F0120B83C0120C5
:1052E00068410120F0B545464E46DE465746244B00
:1052F000E0B51C68234B00259946234B89B098469E
:10530000224A6300D65A224A2249175D224A23487C
:10531000125DB6B2D2B20692CA5AC35A91B29BB2C9
:105320009A464B461B5D0791DBB29B464B46185D88
:10533000FFB2C0B2FDF770FC5B460393534607997A
:10534000069A0490029301913B0029000092404686
:10535000320006F03FFD9621601C490004F002FF78
:10536000962301350C005B009D42C9D10A2006F04E
:1053700089FB09B03CBC90469946A246AB46F0BDBD
:10538000B82C0120C0430120D45E0110603A0120F6
:10539000E43D0120184601203439012084340120E5
:1053A00010B5044806F016FD01F0F6F9024806F0C3
:1053B00011FD10BD145F0110245F0110002110B514
:1053C000034B0448595606F005FD01F0E5F910BD00
:1053D000E01C0120305F011070B51B211D4806F054
:1053E000F9FC1D4806F0A0FB1B211C4806F0F2FC4E
:1053F0001B4C1C4D236828005A425341236006F081
:10540000E9FC0A2006F03EFB2368002B1FD1164959
:10541000164806F0DFFC0A2006F034FB144806F0BC
:10542000D9FC144806F0D6FC134806F0D3FC134808
:1054300006F0D0FC124806F0CDFC0A2006F022FB54
:10544000280006F0C7FC0A2006F01CFB70BD0D49C1
:10545000DEE7C0464C5F0110545F0110605F011031
:1054600000340120685F0110445F0110945F011057
:10547000AC5F0110C05F0110D05F0110E45F01104C
:10548000FC5F0110405F011070B51B211F4806F042
:10549000A1FC1F4806F048FB1B211E4806F09AFCA1
:1054A0001D4C1E4D236828005A4253411C4A23605C
:1054B000136859424B41136006F08CFC0A2006F039
:1054C000E1FA2368002B1FD11649174806F082FC29
:1054D0000A2006F0D7FA154806F07CFC144806F0BE
:1054E00079FC144806F076FC134806F073FC134868
:1054F00006F070FC0A2006F0C5FA280006F06AFCE7
:105500000A2006F0BFFA70BD0D49DEE74C5F0110BE
:10551000545F01101460011000340120685F011015
:10552000FC330120445F0110945F0110AC5F011057
:10553000C05F0110D05F0110E45F0110FC5F01103B
:10554000405F011070B512488AB006F0EDFA6B4664
:105550000021104DDC1D23000120695602AA00F035
:1055600005FF01280ED10C4E227802A9300006F06A
:1055700031FC002123000020695602AA00F0F6FE4B
:105580000128F1D0054806F025FC0AB070BDC046E0
:1055900020600110E01C012030600110245F011028
:1055A00010B500240A2006F06DFA064B1C5701F0D6
:1055B000E7F821000200044806F00CFC0A2006F07F
:1055C00061FA10BDE01C01203C60011000B587B0FD
:1055D00001AA06490AF0CEFB01A9054806F0FAFB2C
:1055E00001A800F0FDFE07B000BDC0465C600110E0
:1055F0006C60011000B5C3B002AB01AA0A490AF001
:10560000B9FB019A02A9094806F0E4FB019BD8B254
:1056100001F026F802A80AF0E5FC010002A801F05A
:1056200025F843B000BDC0468060011090600110B5
:1056300000B583B001AA07490AF09CFB019B58B250
:1056400001F030F80021044B0448595606F0C2FB23
:1056500003B000BDB0600110E01C0120B860011073
:1056600010B5034804F050FD0021030000209847C6
:1056700055420000324BF0B557469A464546DE4645
:105680004E4600235246E0B513602E4B2E4D9B46EE
:105690002E4B83B099462E4B984600212D4B5846F1
:1056A000595606F097FB6B4620229A8000232B70F8
:1056B000642006F0A1FB0400431CF9D00D2C10D08F
:1056C0001B2C0ED0200006F0DDF928000AF08AFC21
:1056D0004028EDD06B46281801A91C710AF07AFC0D
:1056E000E6E74C46002629002268404606F072FB99
:1056F000276838000AF076FC2900020038000AF01A
:10570000A5FC00280ED001360834082EEBD15346F4
:105710001B68002BC1D003B03CBC90469946A24602
:10572000AB46F0BDF6000C484E4406F053FB7368E0
:105730002800984753461B68002BAED0EBE7C046C5
:10574000C4320120C86001107CA90220F41301209A
:10575000D0600110E01C0120E060011070B512481B
:105760008AB006F0E1F96B460021104DDC1D2300E4
:105770000120695602AA00F0F9FD01280ED10C4E55
:10578000227802A9300006F025FB0021230000202A
:10579000695602AA00F0EAFD0128F1D0054806F09A
:1057A00019FB0AB070BDC04620600110E01C01204A
:1057B00030600110245F011030B5174883B006F047
:1057C000B3F9164806F006FB20236A4693800023AF
:1057D000134D2B70642006F00FFB0400431CF9D01E
:1057E0000D2C10D01B2C0ED0200006F04BF92800F9
:1057F0000AF0F8FB4028EDD06B46281801A91C716F
:105800000AF0E8FBE6E7280000F0EAFD054806F0AC
:10581000E1FA03B030BDC046E8600110FC60011041
:105820007CA90220245F011070B5734D64202C68A0
:10583000002C0DD006F0E0FA0400431C07D06F4E98
:105840003368012B5AD0022B32D0002B1CD070BDF4
:1058500006F0D2FA431CFAD069490B0003E0013488
:105860000C33202CF3D01A788242F8D1654B1860A3
:1058700063001C19A40009198B689847624B6348A0
:10588000196806F0A7FAE2E71B2867D0604D44B21A
:105890002C70631CDBD0FAF79FFE0023EB5601331C
:1058A000D5D0FAF799FE0023EB560133F3D1CEE7BA
:1058B000432856D010DC412846D0422800D07AE058
:1058C0000423534D2B70FAF787FE0023EB56013368
:1058D000F9D100233360BAE744286CD105234C4D3D
:1058E0002B70FAF779FE0023EB560133F1D0FAF76B
:1058F00073FE0023EB560133F3D1EAE76D2850D055
:1059000006DC1B2815D05B2835D1022333609EE7C7
:105910006F2830D13E4D2B70FAF75EFE0023EB5618
:105920000133D6D0FAF758FE0023EB560133F3D1FA
:10593000CFE700231B2137482B60336006F04AFA7B
:10594000354806F047FA82E70323314D2B70FAF70A
:1059500043FE0023EB560133F9D1BAE7013333603C
:1059600075E706232A4D2B70FAF736FE0023EB5617
:105970000133F9D1ADE70023254D2B70013305D05C
:10598000FAF72AFE0023EB560133F9D164B22C70EA
:10599000631C9ED0FAF720FE0023EB560133F9D1A9
:1059A00097E702231A4D2B70FAF716FE0023EB56E9
:1059B0000133F9D18DE70023154D2B70013305D04C
:1059C000FAF70AFE0023EB560133F9D100232B70BE
:1059D000013305D0FAF700FE0023EB560133F9D16D
:1059E00064B22C70631C00D173E7FAF7F5FD002355
:1059F000EB560133F9D16CE7003401201C3401204F
:105A000034140120E0320120A83301202C61011060
:105A1000381A0120106101101861011070B50D4B8A
:105A200005001B680C00160082B0002B01D102B0EB
:105A300070BD1B21084806F0CDF91B21AB1CA21C30
:105A40000096064806F0C6F91B21054806F0C2F983
:105A5000EDE7C04600340120386101103C610110BF
:105A60004861011070B5104B06001B680D00140052
:105A700082B0002B01D102B070BD1B21631E9C417E
:105A80000A4806F0A7F9202364421C402034330062
:105A90001B21EA1D0094064806F09CF91B210548CD
:105AA00006F098F9E7E7C04600340120386101109C
:105AB0003C610110486101102023F0B583B001AEB4
:105AC0004022338000233A4C0700A3544032A354B1
:105AD0004032A3544032A3544032A3544032A35422
