:020000041000EA
:1000000000B5324B212058609868022188439860DF
:10001000D860186158612E4B002199600221596106
:100020000121F02299502B49196001219960352056
:1000300000F044F80222904214D00621196600F024
:1000400034F8196E01211966002018661A6600F04E
:100050002CF8196E196E196E052000F02FF8012189
:100060000842F9D1002199601B49196000215960AB
:100070001A491B48016001219960EB211966A021F2
:10008000196600F012F800219960164914480160C1
:100090000121996001BC002800D000471248134993
:1000A000086003C880F30888084703B5996A0420EC
:1000B0000142FBD001200142F8D103BD02B5186610
:1000C0001866FFF7F2FF186E186E02BD00000240BE
:1000D000000000180000070000035F00212200005C
:1000E000F4000018222000A00001001008ED00E03C
:1000F00000000000000000000000000074B24E7A12
:1001000000200420F7010010C3010010C5010010F9
:10011000C1010010C1010010C1010010C101001097
:10012000C1010010C1010010C1010010C701001081
:10013000C1010010C1010010C9010010CB01001065
:10014000CD010010CD010010CD010010CD01001037
:10015000CD010010CD010010CD010010CD01001027
:10016000CD010010CD010010CD010010CD01001017
:10017000CD010010CD010010CD010010CD01001007
:10018000CD010010CD010010CD010010CD010010F7
:10019000CD010010CD010010CD010010CD010010E7
:1001A000CD010010CD010010CD010010CD010010D7
:1001B000CD010010CD010010CD010010CD010010C7
:1001C00000BE00BE00BE00BE00BE00BE00F04BF888
:1001D000103800BEF2EB88711C86011044860110B5
:1001E0003402001090A31AE700202149086006C8D5
:1001F00081F3088810471F48006800282FD10DA4FC
:100200000ECC002902D000F012F8F9E71A491B4A77
:10021000002000E001C19142FCD1194988471949E9
:1002200088471949884700BEFDE701C901C29A42C3
:10023000FBD3704744860110C0000020F028012045
:1002400074AE0210000004200000042074AE0210FE
:1002500000100420001004200000000070470B482C
:100260000AF032FE0047EFF30580C0B2704700008D
:1002700008ED00E0000000D0F028012068B0022066
:10028000E9900010950700100D92001057560000DD
:1002900006005250ABB3605308780110060052506C
:1002A000861C030218780110060052505422A29DA9
:1002B0002878011005005250DE65F46874AE021013
:1002C000F8B5C0460448054B10B5834203D0044B33
:1002D000002B00D0984710BDF0280120F028012005
:1002E0000000000006480749091A8B10C90FC918F9
:1002F00010B5491003D0044B002B00D0984710BD17
:10030000F0280120F02801200000000010B5074C63
:100310002378002B09D1FFF7D5FF054B002B02D026
:10032000044800E000BF0123237010BD282A0120EB
:100330000000000028590110054B10B5002B03D018
:100340000449054800E000BFFFF7CCFF10BDC046E0
:10035000000000002C2A01202859011010B5064881
:100360000CF018FC0FF0DEFA012008F025FA06F078
:10037000B7F802F01FFEF7E728590110F0B547461D
:10038000CE4680B5294B83B098461A88284B9A42AE
:1003900040D043461B88D0251843434680B218807E
:1003A0001E88802380271B022D0601200021AB61BF
:1003B000FF0408F0E9F91024B946B6B20FE0802333
:1003C000DB016B610120002108F0DEF9013C012016
:1003D00000216F6108F0D8F97600002C0BD04B4655
:1003E0000120AB61002108F0CFF93304E7D480236A
:1003F000DB01AB61E6E7D02380221B0612025A61C3
:1004000043461A880A4B9A420AD003B00CBC904665
:100410009946F0BD00230093009B002BFCD1B8E768
:1004200000230193019B002BFCD1EEE7FE35012058
:1004300009200000F0B5CE46474680B5284B83B072
:10044000984240D0274BD025984642461B888027AB
:1004500083431380802316881B022D060120002170
:10046000AB61FF0408F090F91024B946B6B20FE072
:100470008023DB016B610120002108F085F9013C3C
:10048000012000216F6108F07FF97600002C0BD06D
:100490004B460120AB61002108F076F93304E7D424
:1004A0008023DB01AB61E6E7D02380221B0612022A
:1004B0005A6143461A880A4B9A420AD003B00CBCD0
:1004C00090469946F0BD00230093009B002BFCD181
:1004D000B8E700230193019B002BFCD1EEE7C04657
:1004E00009200000FE350120F0B50124D02584400C
:1004F000C64680272D0600B50120AC610021AC6105
:1005000008F042F97F036C610120002108F03CF9FA
:1005100008260024B8466B686400E4B29B0202D54A
:1005200001231C43E4B2434601200021AB6108F0E3
:100530002BF9013E012000216F6108F025F9002E02
:10054000E9D1200004BC9046F0BDC046F8B5DE46B7
:1005500057464E464546E0B501263300D024834039
:1005600024060D0001200021A36117009B4608F01E
:100570000BF9002F26DD7B1E9E408023DB04B04656
:10058000994600269A4610E08023DB016361012032
:10059000002108F0F9F84B46012000216361013683
:1005A00008F0F2F86D00B7420CD053460120A36169
:1005B000002108F0E9F843461D42E5D18023DB0124
:1005C000A361E4E7D0235A461B065A613CBC90461F
:1005D0009946A246AB46F8BD70B51F4D1F4E2A681E
:1005E000336894469B001E4A63449B009A5804005B
:1005F0006146306800F07EFC00221A4B1A60052C20
:1006000017D00CDD062C1AD0422C04D1164A1368E0
:1006100059424B4113600122144B1A6070BD032CE8
:1006200013D0042CF7D12B68022BF4DC01332B60A0
:10063000F1E73368002BEEDD013B3360EBE7336815
:10064000132BE8DC01333360E5E72B68002BE2DD98
:10065000013B2B60DFE7C046902F012018060020E9
:100660006C380120842F01207C2F012030300120A4
:10067000F8B53F4B1B68002B08D102F00FFF03F0C9
:100680002BFE02F097FC05F045FAF8BD08F082F960
:1006900002000B0014001D0036490E684F68A41BB1
:1006A000BD41354E7068A84219D234480A604B608B
:1006B000334B00241A68046051424A411A601B6897
:1006C000002B16D02F4B1B68002B40D080222E4CC5
:1006D0002E4D52002968206800F00CFCCDE7A8429E
:1006E00002D13068A042E0D324480468002CC4D072
:1006F000DCE7244B1B68002B16D0244D02212A680E
:10070000214E94463368224C9B0063449B00185949
:10071000FF3100F079FD3068296883005B189B0089
:100720001A5900F0E7FBA8E7184C02212268164D81
:1007300094462B68164A9B0063449B009858FF31EF
:1007400000F062FD022228682168FF32E9E70F4DC0
:1007500002212A680C4C944623680D4A9B0063448E
:100760009B009858FF3100F04FFD0222FF32B1E7A5
:10077000802F0120F02801201006002030300120B9
:10078000842F01207C2F012018060020902F0120AB
:100790006C38012010B51B2084B007F0D7F8D024A6
:1007A000802324061B0563620D20636107F0CEF8E9
:1007B0000E2007F0CBF80F2007F0C8F8162007F03E
:1007C000C5F8152007F0C2F81A2007F0BFF813206B
:1007D00007F0BCF8142007F0B9F8122007F0B6F8BB
:1007E000002007F0B3F8012007F0B0F8022007F06E
:1007F000ADF8032007F0AAF8042007F0A7F80520B9
:1008000007F0A4F8062007F0A1F8072007F09EF8EB
:1008100001220021002007F081F80122002101209F
:1008200007F07CF801220021022007F077F801226E
:100830000021032007F072F801220021042007F0B4
:100840006DF801220021052007F068F8012200213F
:10085000062007F063F801220021072007F05EF868
:100860000A2007F073F80B2007F070F80C2007F04F
:100870006DF8112007F06AF8102007F067F80022E1
:100880000121102007F04AF800220121112007F071
:1008900045F880238022DB0192016362A2626362D9
:1008A00080231B0263628023DB03636280239B033C
:1008B000A3628023DB04636280231B0363628022C4
:1008C0008023D2025B03636262628022D200626292
:1008D00080221201626280225201626217486361C3
:1008E00002AA03AB01A906F04BFF00281FD101208B
:1008F000FFF744FD0A2007F05FFF00F04DF80021EC
:100900000F4A002000F054FB00F02EF90CF04EF9D5
:1009100001F05AFC0B480EF0DFFF04F06BFB0A48B5
:100920000BF0E2FF04F078FB05F0F4F8FAE7039A25
:100930000299019806F0E8FED9E7C046A0F7030047
:10094000385901105D0300103C59011000B583B007
:100950006A4680231371793B03405020404218437C
:1009600050710221782001AA03F0ECF803B000BD19
:1009700010B5102482B0030901AA234353700F233A
:100980008021184011709170D0707C39782003F06C
:10099000D9F802B010BDC046F0B580276F4CFA25DB
:1009A000238885B03B439BB223806D4B21881E6812
:1009B0000822300089B2FFF7C9FD7F23ED000395BF
:1009C00022883000134023802188082289B2FFF753
:1009D000BDFD0295238808223B439BB223802188DA
:1009E000300089B2FFF7B2FD019502F0A5FE782034
:1009F00002F00EFF802002F00BFFAE2002F008FF95
:100A0000802002F005FFD52002F002FF802002F0D6
:100A1000FFFEA02002F0FCFE802002F0F9FEA820DC
:100A200002F0F6FE802002F0F3FE1F2002F0F0FE3E
:100A3000802002F0EDFED32002F0EAFE802002F0DA
:100A4000E7FE002002F0E4FE802002F0E1FEAD208F
:100A500002F0DEFE802002F0DBFE8E2002F0D8FEE7
:100A6000802002F0D5FED82002F0D2FE802002F0D5
:100A7000CFFE052002F0CCFE802002F0C9FEA120AE
:100A800002F0C6FE802002F0C3FEC82002F0C0FEC5
:100A9000802002F0BDFEDA2002F0BAFE802002F0D3
:100AA000B7FE122002F0B4FE802002F0B1FE9120C9
:100AB00002F0AEFE802002F0ABFE3F2002F0A8FE66
:100AC000802002F0A5FE3F2002F0A2FE802002F06E
:100AD0009FFE3F2002F09CFE802002F099FE3F2006
:100AE00002F096FE802002F093FE812002F090FE3C
:100AF000802002F08DFE1B4B187802F089FE8020CA
:100B000002F086FED92002F083FE802002F080FEF3
:100B1000D22002F07DFE802002F07AFEDB2002F07F
:100B200077FE802002F074FE342002F071FE8020F7
:100B300002F06EFEA62002F06BFE802002F068FE3E
:100B4000A42002F065FE802002F062FEAF2002F0D9
:100B50005FFE02F021FE05B0F0BDC0460036012068
:100B60005C5901101C0600208023F0B54746CE4694
:100B70009946D03B0025984680B5174F83B001AE0B
:100B80004B463370434632002B430221782073706A
:100B900002F0D8FF320004217820019702F0D2FF42
:100BA00002F0CAFD782002F033FE402002F030FE51
:100BB0008424013C0020E4B202F02AFE002CF8D18B
:100BC0000135EDB202F0E8FD042DD9D103B00CBC23
:100BD00090469946F0BDC04680108000204BF0B58D
:100BE0004746CE469946002380B5502700259846B3
:100BF000802683B001AC7F424B4642465B191A7097
:100C0000EB113B432200022178206370267002F032
:100C100099FF7F2310212B401A090A4362700F228B
:100C20000421134078202200E3702670A67002F0A1
:100C300089FF02F081FD782002F0EAFD402002F0F9
:100C4000E7FD002002F0E4FD02F0A6FD802301355F
:100C5000DB009D42D0D103B00CBC90469946F0BD5C
:100C60007C4E0120F0B54E464546DE465746E0B57F
:100C70000C000600150083B07F2801D81F2906D973
:100C800003B03CBC90469946A246AB46F0BD7F23DC
:100C900007221B1A9846CB1713405B18DB105B42E8
:100CA00003339A468023914652469B4601AF3B70E0
:100CB000D03B134302213A0078207B7002F042FFC0
:100CC00043465A4610210433DBB23A701A090A43EC
:100CD0007A705A46BA70713A134004213A0078206B
:100CE000FB7002F02FFF02F027FD782002F090FD4C
:100CF000402002F08DFD5346DF01164B47449A46D3
:100D0000DB5D9846002D1CD0012D10D0EAB22100E9
:100D1000300005F01DF8404600F01EF8C0B202F0A9
:100D200077FD53464246DA5502F036FDA8E74B46BA
:100D30002A0023409A40130042461343DBB29846F0
:100D4000E4E74B46012223409A40434693439846AA
:100D5000DCE7C0467C4E0120022101234200114005
:100D600042101A401143821049001A400A43C11030
:100D7000194052000A430111520019401143421117
:100D80001A4049001143821149001A400A43C01118
:100D90005200184010437047F0B5134D134C2B68A8
:100DA000134F144E83B00093310023683A68124801
:100DB0000BF0F0FE0023296823604B1C032B0BDC97
:100DC00019002B60002200233A600C48009131008A
:100DD0000BF0E0FE03B0F0BD1323CA1E23605342A4
:100DE0005A411323F0E7C046443501204035012025
:100DF0003C350120D859011064590110A059011047
:100E0000F8B54746CE4615008600354A73189B0054
:100E100080B59D50334B344A99461960431C0400F9
:100E20000F0090461360142B54DC092D52D0002281
:100E3000132B04D14B461A68033A53425A412B4BA9
:100E400039001A602000EAB204F05EFF0320C01BE4
:100E5000C0B2FFF77BFDA01B40007F30C0B2FFF7A0
:100E600087FD02F069FC782002F0D2FC402002F0FD
:100E7000CFFCAA005219012404251D4EB6182200E9
:100E8000735D1A40581020405200024398105200DF
:100E900020401043DA102240400010431A11400055
:100EA0002240024358112040520002439811520040
:100EB000204010434000DB11184302F0A9FC013D23
:100EC000DDD2002002F0A4FC02F066FC0CBC9046CF
:100ED0009946F8BDFFF760FF43461B68A7E7C04689
:100EE0006C38012044350120403501203C3501207B
:100EF00020060020F8B51500D2B20F00040004F05F
:100F000003FF0320C01BC0B2FFF720FDA000201A82
:100F100040007F30C0B2FFF72BFD02F00DFC7820BF
:100F200002F076FC402002F073FCAA005219012462
:100F30000425154EB6182200735D1A405810204043
:100F4000520002439810520020401043DA10224011
:100F5000400010431A114000224002435811204023
:100F60005200024398115200204010434000DB1110
:100F7000184302F04DFC013DDDD2002002F048FC98
:100F800002F00AFCF8BDC0462006002070B515002E
:100F900012780E00002A09D004002D1A200031001A
:100FA0000134FFF72DFF2A5D002AF7D170BDC0463E
:100FB00070B5150012780E00002A09D004002D1A11
:100FC000200031000134FFF71BFF2A5D002AF7D112
:100FD00070BDC04670B584B001AD04000E0028009D
:100FE000084909F00DFF2A78002A08D02D1B20009F
:100FF00031000134FFF704FF2A5D002AF7D104B065
:1010000070BDC046947301100023024A1360024A67
:1010100013607047942F0120982F0120F8B54746A0
:10102000CE4680B5144E154F0278804634683D6830
:10103000002A0BD0031B994620002900FFF7E0FE91
:101040004B4601341A5D002AF6D1346840460FF051
:10105000A9FE2418142C04DC34600CBC904699467C
:10106000F8BD00223B6832600133032B01DD3A609A
:10107000F3E73B60F1E7C046942F0120982F012051
:1010800010B50FF08FFE084B1A6894466044142880
:1010900007D90021054A196013680133032B01DDCC
:1010A000116010BD1360FCE7942F0120982F0120E0
:1010B00070B509480BF06EFD01231D00074AD024CE
:1010C0001268FA2095402406054AA5614000136085
:1010D00007F072FBA56170BDEC5901106059011059
:1010E00070350120394A30B51368040001331360AC
:1010F000B02383B09B0098425FD028D9C0239B00C7
:10110000984236D0403398421FD18021304A314C2A
:101110001088238801407F201180013311889BB201
:10112000238043400B439BB2138011882A4B082233
:10113000186889B2FFF70AFA0220284923884A7DF5
:10114000DB120340824313434B7503B030BD013BB8
:10115000FF3B98421BD040339842F6D1802040009C
:10116000FFF70CF92000FFF709F9642007F024FBD2
:10117000EBE700238022174C2380154B19880A4087
:101180007F211A801A880A431A801988CEE703F053
:1011900095F813480BF0FEFC01231D00114AD024E2
:1011A0001268FA209540019224060F4AA56140007A
:1011B000136007F001FBA561C7E780204000FFF73F
:1011C00039F980208000FFF735F9BEE77C35012032
:1011D00000360120023601205C5901105C570120C5
:1011E000EC59011060590110703501208023044A28
:1011F0005B42517C0B4353740122024B1A707047BF
:101200005C570120980F0020830018188B00591894
:101210001D4BF0B51A18C41CA44614005D182C43CD
:10122000CF1CA4071BD10124614513DD0126B84260
:101230000EDD3443E40712D51468144A59182243CA
:101240002A601B181A7980235B4213430B71F0BD8F
:101250000026EEE700240126B842EADCF8E7802207
:101260001C5C524214435C541818447859181443B7
:101270004C70847814438C7064461C5D1443DC55B8
:1012800003791A430A71E2E72006002080808080FB
:101290000122024B1954024B1A607047F456012088
:1012A00008300120F0B5DE4657464E464546E0B5CB
:1012B000012083B002F03AFA5D4B5E491A68002AB9
:1012C00003D10A68002A00D1A4E000225A4F1A6014
:1012D0003B680A60002B00DAA2E0584B00249946D4
:1012E000574B9B46574B9846574B9A460EE0574BE9
:1012F0002000196809F016FE03002A0008001900F2
:10130000FFF77EFD3B680134A34239DB4B465A466A
:101310001B681B5DD55C424612689342E7D1534679
:101320001B68002BE3D04A4B1B68002B07D0494BAE
:101330001B68002B06D0019580256D00D7E7454B33
:101340001B6801938021AB005B1901950225424A7D
:101350004942D05C414E08439055D3185878404ECE
:101360000843905598783F4E08439055D8780136F9
:10137000084390551B79FF350B433B495354B6E75F
:101380001421200009F0CEFD14218246200009F02E
:10139000C9FD8946354B00269846434631009A5D83
:1013A00014200136FFF72CFD042EF6D16A1EFF3AF9
:1013B0002B00012A26D92E4AD35C682293431FD0E2
:1013C0005346162058434B462A4EEDB235552A4C0B
:1013D0002018C5543D6859462A0028480BF028F9C2
:1013E00000232B22A3541632A35416326375A35440
:1013F000735503B03CBC90469946A246AB46F0BD3F
:101400002025DDE7019D1A4A2B00D35C6822934317
:10141000D6D1F5E70A4B084F9B46164E164CD9E736
:10142000002399469A46064B00249B46B2E7C046E5
:10143000083001208C2F01206C0B0020F856012071
:10144000645802206034012068340120700B0020B1
:10145000882F0120643401202006002005050000AB
:10146000060500000705000009050000F4560120EC
:10147000857A011080530120FC5601207C52012006
:10148000E02330B55B00040083B0984200D123E133
:101490000BD817281FD8022865D9C31E9BB2142B5E
:1014A00057D8A94A9B00D3589F46D0239B00984207
:1014B00041D039D9E8239B00984200D139E126D99F
:1014C000F0239B00984213D10122A04B1A60A04B3D
:1014D000185D03B030BD0300813BFF3B9BB2012B85
:1014E00041D88223FF33984200D00CE10020F0E77E
:1014F000203398422DD1974A1368002B00D107E181
:101500008021C9018C46634400201360E1E7403B21
:10151000984200D110E12033984224D100228B4B15
:101520001A608B4B185DD4E7803B984200D1CDE028
:101530004033984204D12000FFF7D4FD0020C8E7D3
:10154000803B98420FD10420FEF718FF804B185DB6
:10155000BFE7230400D5A8E08023DB019C4202D32F
:101560007D4B1B68E4187A4B185DB2E77B4B18681B
:10157000FEF7BAFF7F2343407E201840D023744CEF
:101580001B0660755B68764A5B0BDB011843022320
:1015900012889843D21213401843607503F040FD3F
:1015A000607D96E7D0226F4B12065068196852682A
:1015B000C8405C680121E2400840C0014008114277
:1015C00001D080221043D022120652689968400848
:1015D000CA40D20703D5802252421043C0B2D02263
:1015E00012065268D9684008CA40D20703D5802243
:1015F00052421043C0B2D022120652681969400804
:10160000CA40D20703D5802252421043C0B2D02232
:101610001206526859694008CA40D20703D5802291
:1016200052421043C0B2D022120652689969400853
:10163000CA40D20703D5802252421043C0B2D02202
:1016400012065268DB694008DA40D30703D58023CD
:101650005B421843C0B29621434A490013688B424B
:1016600000DB36E7E22541495C0065540133091986
:10167000487013602DE73E4B18782AE73D4B1878E9
:1016800027E73D4A1378D9B2012B46D0022900D072
:1016900069E7122800D066E7032313707F222C4BE2
:1016A000597C0A405A74185D13E7C0231B029C4200
:1016B00005D9324B9C466444314B185D09E72F4BEA
:1016C0009C46244B644418682418F5E70420FEF770
:1016D000B1FE1F4B185DFCE602F0F0FD29480BF04F
:1016E00059FA01231D00284AD0241268FA20954097
:1016F00001922406254AA5614000136007F05CF8BA
:101700000020A561E5E6224B18687F231840E0E63B
:1017100080231B0200201360DBE60D4B112800D054
:10172000D6E6597C7F2900D8D2E602211170185DD7
:10173000CFE6094A1368E3E60023074A0020136056
:10174000044A1360C5E6C046FC590110740B002022
:101750005C5701206035012048350120585901109F
:1017600002360120780F0020CC350120845401205E
:101770000F3601200E360120980F00200080FFFF59
:101780009C0F0020EC5901106059011070350120A8
:10179000603401200B4B1A88824206D01A8A82429A
:1017A0000BD01A8C82420AD07047002201210648D1
:1017B00012019B1801605960F6E70122F6E7022248
:1017C000F4E7C0463C0B0020403401200120704764
:1017D0007047C0460022014B1A60704780350120D7
:1017E0007323084AD15C643B0B400749D3188C46ED
:1017F00006496344096819707421535C01335354DA
:101800007047C0465C570120B020000008AB0220A2
:1018100010B50349034802F0FDF9431E984110BD7D
:10182000705C011064A2022010B50349034802F065
:10183000F1F9431E984110BD805C011064A20220A2
:10184000164AF8B5136801331360154B9B69DB0624
:1018500003D5144A1368013313601025104C124E3F
:10186000124FA3691D4211D1A3691D42FCD1236807
:10187000DBB2002BF5D032680D49BB543068013023
:1018800009F050FB3160A3691D42EDD0A3691D42F0
:1018900003D1084A136801331360F8BD48340120AE
:1018A000008003404C340120503401207C88022009
:1018B00088130000443401207047C046F8B50A4E32
:1018C00000243500094F3800296802F0A3F90028E8
:1018D00004D101340835072CF5D1F8BDE4003419E2
:1018E00063689847F9E7C046D81101206C59022077
:1018F0005F4AF0B51368DE4659424B410121574615
:101900004E4645465B428B4318000023E0B55468C1
:1019100097B0584E02AA03AF1375A330337010224C
:101920003B002100019002F0A7FB80239B46524B15
:10193000A3449A460F2398460FE0403902AB5B1848
:101940001A700023013102AA521807A80CA9013409
:1019500013700FF0B3F9A3452AD0454643462540FE
:10196000234266D04246E3171B0FE5181540ED1AD7
:101970007A5D51460CA809F043FA30000FF012FAD4
:101980000CA930180FF076F968217A5D3B4B81463F
:101990009B5C8B43D1D107A80FF004FA07AB9C46A0
:1019A00002223749604401340AF042FEA345D4D1F3
:1019B0000222344948460AF03BFE484607A9023055
:1019C0000FF0E8F9304B314C1A68314B20001968A0
:1019D000330009F015FA20000FF0E4F92D4E2E4BDC
:1019E000020018602D49300009F00AFA3478002C02
:1019F00018D03000002120220D26294B02255D5FE2
:101A0000284B002928D1A5422DD099690A42FCD142
:101A10001C60017801300D394C4261410478C9B233
:101A2000002CEED117B03CBC90469946A246AB467E
:101A3000F0BD230007AA1C490CA809F0E1F90CA984
:101A400030000FF03BF902AB1D7510223B00210066
:101A5000019802F011FB85E799690A42D8D099698B
:101A60000A42F9D1D4E799690A42FCD11E60CCE759
:101A700008AB022024650220A85C0110857A0110C1
:101A8000F85901100C6901109C2F012008710220E7
:101A9000E40F012040AA022020350120B05C011093
:101AA000A0AD022000800340985C0110F0B5D6463E
:101AB0004F464646414BC0B51C68012C08D0022C4D
:101AC0003DD0002C28D01CBC90469946A246F0BDC3
:101AD0003B4B1E68002EF6DD3A4B3B4C9A4619688C
:101AE0003A4B00271B6836199846394B994606E051
:101AF0004A462378013401275355B4425BD00D0088
:101B0000481CFA21890009F00DFA4145F0D1002F57
:101B1000D9D053461D60D6E72E4F2B4E3D0003E033
:101B200001340835082CCED03000296802F072F854
:101B30000028F5D0E4003C1963689847C3E7204BC0
:101B40001D68002DBFDD7423234E1F4AF15C013B4D
:101B5000F05C663B00240F279C46AD180FE03C006C
:101B60000440A1461D4CB144A0464C464444237059
:101B700001240131C9B201320130AA4215D01378D3
:101B80000A2BF8D00D2BF6D0042BE8D1134C3B00D8
:101B9000A04664460340F3184344013101321C70EF
:101BA000C9B201240130AA42E9D1002C00D18AE750
:101BB0007423F15487E75346196084E7242E0120EB
:101BC000B0340120282F01206C5902202C2F012035
:101BD000F46C0220A00F01205C570120B02000000F
:101BE000F0B50E4B0E4D19682B68C6465C1A631C87
:101BF00098460C4F0C4E00B51A00891938000AF0AF
:101C000017FD4246390030000AF012FD0122074B51
:101C10002C601A6004BC9046F0BDC0468C34012094
:101C200038340120AC80022064A20220A4340120B8
:101C3000F0B5C64601221C4B00B5532100201A60A6
:101C40000025FFF725FB194C194E03E001350C3434
:101C5000282D11D02378032BF8D1310060680FF0C4
:101C600055F80028F2D10122124B1D60124B1A6068
:101C7000124A136801331360114D124B124F196849
:101C80002B68124E5C1A631C98461A00891938009A
:101C90000AF0CEFC4246390030000AF0C9FC2C6044
:101CA00004BC9046F0BDC0468C350120F80F0120E1
:101CB000C45C0110F0350120F4350120C435012049
:101CC000383401208C340120AC80022064A2022030
:101CD000F8B5CE4647461A4C80B52368002B1AD07B
:101CE000184B194E19683368184F5D1A6B1C9946CA
:101CF000174B4A4698461800C9190AF099FC4A46FB
:101D0000414638000AF094FC0023356023600CBC87
:101D100090469946F8BD0B4B0B4D19682B680C4F3C
:101D20005C1A631C9846094E1A00891938000AF09B
:101D30007FFC4246390030000AF07AFC2C60E6E76E
:101D4000A43401208C3401203834012064A2022004
:101D5000AC800220F0B5CE46474680B56421022013
:101D600085B0FFF795FA494C4949200001F052FF30
:101D7000002804D105B00CBC90469946F0BD454BF7
:101D8000454E19683368454F5D1A6B1C98461A001A
:101D9000380009190AF04CFC3900424620000AF0CC
:101DA00047FC3F4F35603B6899461D2BE2DC002B1A
:101DB00067DD3C4B2B2598461C004B465D433A4E55
:101DC0004544310020000EF0A1FF0028D2D02B3472
:101DD000A542F6D12B244D464346654331005819A0
:101DE0000EF0D8FF2800314914304D694B680A685D
:101DF00003950D6940440295CD680195896800916D
:101E00002B4908F0FDFF2B4B310018680EF07EFFC8
:101E1000002803D03B6801333B60ABE73B68264EAC
:101E20005C432200143230002449424408F0E8FFA9
:101E30003478002CEED03000002120220D26204BDB
:101E400002255D5F1F4B00290FD1A54214D099696F
:101E50000A42FCD11C60017801300D394C426141CD
:101E60000478C9B2002CEED1D4E799690A42F1D0C6
:101E700099690A42F9D1EDE799690A42FCD11E60DD
:101E8000E5E7084B084E9846A4E7C04664A2022046
:101E9000CC5C01108C34012038340120AC8002204D
:101EA000302F0120D49C022034AC022008AB022049
:101EB0002C5D01109C0F012040AA0220145D01102E
:101EC000A0AD022000800340F0B5C646632101208A
:101ED00000B5FFF7DDF90F4C0F49200001F09AFE25
:101EE000002802D104BC9046F0BD0C4B0C4E196882
:101EF00033680C4F5D1A6B1C98461A00091938009C
:101F00000AF096FB4246390020000AF091FB35604A
:101F1000E8E7C04664A20220405D01108C34012035
:101F200038340120AC800220F0B5C6466321012080
:101F300000B5FFF7ADF90F4C0F49200001F06AFE24
:101F4000002802D104BC9046F0BD0C4B0C4E196821
:101F500033680C4F5D1A6B1C98461A00091938003B
:101F60000AF066FB4246390020000AF061FB35604A
:101F7000E8E7C04664A202204C5D01108C340120C9
:101F800038340120AC800220F0B5C646040072212E
:101F9000012000B5FFF77CF91D4824010419616890
:101FA0001C4C200001F036FE002802D104BC9046F3
:101FB000F0BD194E194B1A4F1968336838005D1A75
:101FC0006B1C98461A0009190AF032FB20004246A1
:101FD00039000AF02DFB3560124C0025124E03E04B
:101FE00001350C34282DE1D02378032BF8D13100B2
:101FF00060680EF08BFE0028F2D101220B4B1D60B1
:102000000B4B1A600B4A136801331360CEE7C046CE
:102010005866011064A20220383401208C3401205B
:10202000AC800220F80F01205C5D0110F03501202A
:10203000F4350120C4350120F0B5C64604006921FD
:10204000012000B5FFF724F9104824010419616844
:102050000F4C200001F0DEFD002802D104BC9046A8
:10206000F0BD0C4B0C4E196833680C4F5D1A6B1C9D
:1020700098461A00091938000AF0DAFA424639007F
:1020800020000AF0D5FA3560E8E7C046586601102E
:1020900064A202208C34012038340120AC8002205C
:1020A000F0B5C64604006E21012000B5FFF7F0F838
:1020B0001248240104196168114C200001F0AAFDA6
:1020C000002802D104BC9046F0BD0E4B0E4E19689C
:1020D00033680E4F5D1A6B1C98461A0009193800B8
:1020E0000AF0A6FA4246390020000AF0A1FA084B8D
:1020F00035601A68074B1A60E4E7C046586601105D
:1021000064A202208C34012038340120AC800220EB
:1021100008AB0220742F0120F0B5C646040043210D
:10212000012000B5FFF7B4F81D48240104196168C7
:102130001C4C200001F06EFD002802D104BC90462A
:10214000F0BD194E194B1A4F1968336838005D1AE3
:102150006B1C98461A0009190AF06AFA20004246D8
:1021600039000AF065FA3560124C0025124E03E082
:1021700001350C34282DE1D02378032BF8D1310020
:1021800060680EF0C3FD0028F2D101220B4B1D60E8
:102190000B4B1A600B4A136801331360CEE7C0463D
:1021A0005866011064A20220383401208C340120CA
:1021B000AC800220F80F0120645D0110F035012091
:1021C000F4350120C435012010B500211F4806F068
:1021D000DBFA0221082005F089FB0221092005F025
:1021E00085FBE1211A4C4902200006F00BFFC022BA
:1021F000236B12021340174A152013601023E26A62
:1022000015491340154A136005F0BCFC0121152047
:1022100005F074FC5023A363626B183B1340104A13
:10222000104813600AF060FB0AF034FC0220FEF74D
:1022300001F9642006F0C0FA0220FEF79FF800239F
:10224000094A1370094A136010BDC04640420F008E
:102250000080034030900340411800102C90034050
:10226000349003406C5D011064A2022038340120D8
:10227000F0B557464E464546DE460023E0B5394F99
:1022800087B003AD2B703B18DB7982460222364EB5
:102290007F2B5BD8300035490AF0CAF95346013329
:1022A00098460424324A334B91469B46B844042C4A
:1022B00011D0434649461A5D280008F0A1FD3000C0
:1022C0000EF070FD290030180EF0D4FC631C24D0F1
:1022D000013C042CEDD153460533FA5C59461209F2
:1022E0002800019308F08CFD30000EF05BFD290002
:1022F00030180EF0BFFC02221F490AF099F90F2294
:10230000019B5946FB5C28001A4008F079FD290022
:1023100030000EF0D3FC013CDBE7032217490AF042
:1023200087F906225744BA56002A14DB494628008A
:1023300008F066FD290030000EF0C0FC300007B048
:102340003CBC90469946A246AB46F0BD30000C49D5
:102350000AF06EF9A2E728000A49524208F050FD3F
:10236000E8E7C0465C570120E0700220A47201102B
:10237000947301108C5D0110F8590110945D0110E7
:10238000885D0110985D01100023F0B50024324EE5
:10239000324D334F91B033702200390006A808F057
:1023A0002FFD06A930000EF089FC2800FFF760FF22
:1023B0000134010030000EF081FC08350A2CEBD10D
:1023C000284B294C1A68294B1968294B0493294B2F
:1023D000180016380290180003932C38423B0190E5
:1023E00000932000330008F00BFD20000EF0DAFC13
:1023F000214A224E1060224A03001268300021490F
:1024000008F0FEFC3478002C18D01F4B3000022559
:102410005D5F202100230D261C4A002B10D1A54210
:1024200015D093691942FCD11460037801300D3B3B
:102430005C4263410478DBB2002CEED111B0F0BDF8
:1024400093691942F0D093691942F9D1ECE7936985
:102450001942FCD11660E4E724650220FF20000049
:10246000A05D01109C2F012008710220E00F0120C7
:1024700064A202203E5701202035012040AA0220FC
:10248000742F0120AC5D0110A0AD0220008003403C
:10249000F8B557464E464546DE463A4BE0B59C46B3
:1024A0001860394B04001960384B0F009A4600231E
:1024B00052461360364B994601234A461360354B0A
:1024C0001860354B98461E68002846DD3200002112
:1024D0000023324D324807E0E95C013CC154013A27
:1024E00001210133002C1CD0002AF5DC002932D058
:1024F0005246E9181360F61A63461C60294C771C93
:102500003A0020000AF094F83A00210028000AF06E
:102510008FF843461E603CBC90469946A246AB46A7
:10252000F8BD51460B6041460A606246F61A1460D7
:10253000721C92461B4CE91820000AF079F85246AA
:10254000210028000AF074F843461E6000234A4622
:102550001360B847DFE72900D0E7731C9B46114B97
:102560000E4D9A4618005A4629000AF061F85A465C
:10257000514628000AF05CF843461E60002CE5D066
:10258000C9E7C046342F012060A20220A8800220A3
:10259000482F0120B03401203834012064A20220E9
:1025A0006C590220AC800220F0B5C64650210220B2
:1025B00000B5FEF76DFE114C1149200001F02AFB19
:1025C000002802D104BC9046F0BD0E4E0E4B0F4FBA
:1025D0001968336838005D1A6B1C98461A0009198F
:1025E0000AF026F83900424620000AF021F8084B8C
:1025F000084958683560FFF74BFFE3E764A2022003
:10260000705C0110383401208C340120AC80022031
:1026100008AB0220BD180010F0B5C64650210220BC
:1026200000B5FEF735FE114C1149200001F0F2FA19
:10263000002802D104BC9046F0BD0E4E0E4B0F4F49
:102640001968336838005D1A6B1C98461A0009191E
:1026500009F0EEFF39004246200009F0E9FF084B7F
:10266000084918683560FFF713FFE3E764A202200A
:10267000C05D0110383401208C340120AC80022070
:1026800008AB0220AD1A001070B51B480EF08AFB93
:102690001A4C1B4B020018601A49200008F0B0FBCE
:1026A0002278002A18D0184B200002255D5F2024D4
:1026B00000230D261549002B17D1954210D08B69A8
:1026C0001C42FCD10A60037801300D3B5A42534151
:1026D0000278DBB2002AEED101220D4B1A6070BDE8
:1026E0008B691C42FCD10E60E9E78B691C42E9D082
:1026F0008B691C42F9D1E5E70871022040AA02204B
:1027000020350120D05D0110A0AD022000800340E3
:102710008035012010B51C220349044809F088FFC8
:10272000FFF7B2FF10BDC046E45D01100871022042
:1027300010B5064B06495A681B680648CA54064934
:1027400008F05EFBFFF7A0FF10BDC04608AB0220FB
:102750005C57012008710220005E01104C4AF0B560
:102760001368454659424B4101215B428B43180097
:10277000484BDE46984657464E465468002342462C
:10278000E0B597B0137003AF02AA1375A3303B00F6
:1027900010222100019001F06FFC80239C46A4448C
:1027A00063460093002399463B4B9B460F239A4672
:1027B00010E0403902AB5B181A700023013102AA05
:1027C000521807A80CA913700EF078FA009B013478
:1027D000A34229D0554653462540234242D00123E7
:1027E0009C464E46E144BA5D59460CA808F008FBE9
:1027F00040460EF0D7FA0CA940440EF03BFA68218F
:10280000BA5D264B05009B5C8B43D2D107A80EF026
:10281000C9FA07AB9C4602222149604409F008FF2F
:10282000009B0134A342D5D1022228001D4909F0A2
:10283000FFFE07A9A81C0EF01DFA03221A49040086
:1028400009F0F6FE4346E21A41460332174809F002
:10285000EFFEFFF719FF17B03CBC90469946A24621
:10286000AB46F0BD230007AA11490CA808F0C8FA2E
:102870000CA940460EF022FA02AB1D7510223B0057
:102880002100019801F0F8FB012300269946AAE7F0
:1028900008AB022024650220A85C0110857A011093
:1028A000F85901100C6901109060011008710220A4
:1028B000145E011000B50A4B0A4985B00291190057
:1028C0002C31019119001A001631163A0091064870
:1028D000064908F095FAFFF7D7FE05B000BDC046DF
:1028E0001257012064A2022008710220205E01100C
:1028F00010B50C4C82B0A268206801AB1A7042423D
:1029000050410122404290436168A33001F0D4FB62
:10291000236862680449054808F072FAFFF7B4FEBC
:1029200002B010BD08AB0220005E01100871022049
:10293000F8B5CE46474680B56D4A1378002B04D1D2
:102940006C4B6D4A1B789B009A586C4C6C4920006C
:1029500008F056FA6B4E210030000EF08BF905009E
:1029600004226949200009F063FE042221002800A6
:1029700009F05EFE654F3B68002B17DD644B0025B8
:102980009946644B98464B461B68581980B2FEF72F
:1029900077FD41460200200008F032FA21003000A5
:1029A0000EF08CF93B680135AB42ECDC5A4D5B49CB
:1029B0002A88200008F024FA210030000EF07EF969
:1029C000AA885749200008F01BFA210030000EF0B9
:1029D00075F9AA795349200008F012FA2100300055
:1029E0000EF06CF9EA795049200008F009FA21004C
:1029F00030000EF063F9EB79AA794C49200008F019
:102A0000FFF9210030000EF059F96A88484920008A
:102A100008F0F6F9210030000EF050F94549464B18
:102A200008682A7A1860888898808979997143495A
:102A30000878FF2835D0104241D18878FF2830D05F
:102A400010423FD10879FF282BD010423DD1887920
:102A5000FF2826D010423BD1087AFF2821D010420F
:102A600001D0487A1871887AFF281AD0104201D014
:102A7000C87A5871087BFF2813D010422BD1887B6D
:102A8000FF280ED0104229D1087CFF2809D01D0054
:102A9000104226D0487C0135E871887C0231FF283D
:102AA000F6D12000264908F0ABF9210030000EF0E5
:102AB00005F9FFF7E9FD0CBC90469946F8BD48784A
:102AC0001870BAE7C8785870BCE748799870BEE7C4
:102AD000C879D870C0E7487B9871D0E7C87BD871B7
:102AE000D2E7887C01350231FF28D1D1D9E7C04631
:102AF000B83401205D580220780B002024650220A4
:102B00003C5E011008710220405E011060580220F6
:102B100068590220445E0110E05601204C5E01100D
:102B2000585E0110645E0110705E01107C5E011041
:102B30008C5E0110AC5E0110EC0F01202C0B00200C
:102B4000985E011070B51A480EF02CF9194C1A4B0A
:102B5000020018601949200008F052F92278002A72
:102B600018D0174B200002255D5F202400230D267E
:102B70001449002B14D195420DD08B691C42FCD115
:102B80000A60037801300D3B5A4253410278DBB2B0
:102B9000002AEED170BD8B691C42FCD10E60ECE7BF
:102BA0008B691C42ECD08B691C42F9D1E8E7C04626
:102BB0000871022040AA022020350120B05C0110DB
:102BC000A0AD02200080034000B5094A094909CAA6
:102BD000094A83B01354094A0968126801900093A6
:102BE0000748084B08F00CF9FFF7ACFF03B000BD35
:102BF00008AB0220E80F01205C5701209C2F012028
:102C000008710220B45E0110F0B54E46DE4657460C
:102C10004546E0B593B000236A46384E13733370CF
:102C2000374B00249846374B9B46374B9A46374BD9
:102C300099460FE06B4648395B181A706A460023C4
:102C40000131521803A808A9013413700EF036F8A8
:102C5000802C26D00F231D00254023423FD0434621
:102C600059461A5D08A81F1908F0CAF830000EF07E
:102C700099F808A930180DF0FDFF68213A78244B27
:102C800005009B5C8B43D5D103A80EF08BF803ABFA
:102C90009C4602221F496044013409F0C9FC802C83
:102CA000D8D1022228001C4909F0C2FC03A9A81CA3
:102CB0000DF0E0FF0322194909F0BAFC184B19483E
:102CC0001A68194B1968330008F09AF8FFF73AFFB1
:102CD00013B03CBC90469946A246AB46F0BD534665
:102CE000494603AA009408A808F08AF8300008A909
:102CF0000DF0E4FF6B461D73B1E7C046246502206A
:102D00005C570120A85C0110BC5E0110C45E01107C
:102D1000857A0110F85901100C69011090600110BA
:102D20009C2F012008710220E40F012010B50F4CE8
:102D300084B0A268206803AB1A704242504101225D
:102D4000404290436168A33001F0B6F9084B09484E
:102D50001A68094B196863680193A3680093074BCD
:102D600008F04EF8FFF7EEFE04B010BD08AB0220ED
:102D70009C2F012008710220E80F0120D05E011075
:102D8000F0B55746DE464E4645460023E0B5354F82
:102D900095B002AA3B70137380339B46324B0400FC
:102DA0009946324B03919A460F23834498460FE08D
:102DB000483902AB5B181A700023013102AA52187D
:102DC00005A80AA9013413700DF078FF5C4526D0E0
:102DD000454643462540234235D04B4651461A5D71
:102DE0000AA81D1908F00CF838000DF0DBFF0AA93D
:102DF00038180DF03FFF68212A781D4B06009B5CB8
:102E00008B43D5D105A80DF0CDFF05AB9C46022222
:102E100018496044013409F00BFC5C45D8D102220A
:102E20003000154909F004FC05A9B01C0DF022FF83
:102E30000322124909F0FCFB15B03CBC90469946B0
:102E4000A246AB46F0BD039B0D4905AA00940AA813
:102E500007F0D6FF38000AA90DF030FF02AB1D7352
:102E6000BBE7C046246502205C570120A85C011026
:102E7000857A0110F85901100C6901109060011059
:102E8000C45E0110084B10B518680849FFF778FFB9
:102E9000074B08481A68084B1968084B07F0B0FF41
:102EA000FFF750FE10BDC04608AB0220BC5E01100B
:102EB0009C2F012008710220E40F012024650220CC
:102EC00010B5064B06491868FFF75AFF0549064832
:102ED00007F096FFFFF7D8FB10BDC04608AB0220F5
:102EE00090600110246502200871022010B52E4B5D
:102EF000020019682D480160998881809B7983714F
:102F00002B4B1978FF2935D00A4234D19978FF2903
:102F100030D00A4232D11979FF292BD00A4230D160
:102F20009979FF2926D00A422ED1197AFF2921D07A
:102F30000A4201D0597A0171997AFF291AD00A42BE
:102F400001D0D97A4171197BFF2913D00A421ED1D1
:102F5000997BFF290ED00A421CD1197CFF2909D088
:102F600004000A4219D0597C0134E171997C023382
:102F7000FF29F6D110BD59780170C7E7D9784170A3
:102F8000C9E759798170CBE7D979C170CDE7597B11
:102F90008171DDE7D97BC171DFE7997C01340233B0
:102FA000FF29DED1E6E7C046AC5E0110EC0F012040
:102FB0002C0B0020F0B5DE4657464E464546002312
:102FC000E0B587B0C64C0593C64B20681B688342AA
:102FD0000BD01122C44B9A56597C002A05DBC34AF8
:102FE000157A10222A4200D1FAE0C14B9A461B689A
:102FF000012B00D1CDE0BF4B0A211A6801321A60C3
:10300000186807F08FFF00290CD1BB4C2368002BF8
:1030100000D098E020210320FEF73AF923685A42B5
:1030200053412360B54DB64E2A6833689A421BD08F
:10303000B44BB54F9946B54B9846202304AA13804C
:103040002B68B3495A1C2A60FC5C04ABE4B22868C4
:103050001C7007F067FF2960142C79D0002C63D115
:103060002A6833689A42E8D1AA4B1C68002C00D029
:10307000C8E0A44BA84A99461B78D35C1B071FD510
:10308000A24B4F469A461D68A44B984601234B44D9
:103090009B465346A2461C002A005946404609F06A
:1030A000C7FA2A004146380009F0C2FA9A4A3B782A
:1030B0006E1ED35C0822350026601A42ECD15446BD
:1030C000974D0DE0022B07D12000AB6898470028F0
:1030D00002D02000EB68984701341035262C0CD024
:1030E0002B78012BEED14846696800F093FD00284B
:1030F000EFD101341035262CF2D18A4B1A68002A00
:1031000040D0894E3268002A00D0D9E0874C884DE3
:103110002068420011188900695C062900D9BAE0CC
:10312000844F890079588F46484604A90DF0C6FDA2
:10313000434642461B68013313602A6833689A424B
:1031400000D07AE790E703205731FEF7A1F865E752
:1031500053461B680321581C07F0E4FE5346764D86
:103160000C0019600C222800744909F061FA012C46
:1031700000D193E0022C00D19CE0002C00D193E020
:10318000FFF782FA07B03CBC90469946A246AB4690
:10319000F0BD6B4B1C68002C00D02CE7694B1E68FF
:1031A000694B196899468E4200D124E7674B7F2707
:1031B0009846614D2C70013D4346481C5B5CFA21EA
:1031C00001343B402B55890007F0ACFE8E42F3D111
:1031D0004B461E60002301352B55FFF755FA0AE7D1
:1031E0000A4200D101E7FA21594A8900125C0130F4
:1031F0009A7407F097FE2160FDF7F8FF5548FEF737
:10320000C9FAF2E6544B99461B68002B2DDD3F4A64
:103210003C4E14680293E31A0193731C92469B463A
:103220003E4F0394002CADDD337822005946380020
:10323000984609F0FDF922003900300009F0F8F94C
:103240005346464A651E1D601368591C116041466D
:10325000434AD154029B039A013B9B1A4A461B19CD
:103260001360019A2C00AA42DCD1002B00D089E720
:10327000284A13603B4B1B68984783E713189B0051
:10328000EB189B689847206843001B189B00EB5C79
:10329000042B00D176E70130206073E7102228006C
:1032A000314909F0C5F96BE7092228002F4909F0D7
:1032B000BFF965E70E2228002D4909F0B9F95FE74B
:1032C00005F068FB2B4A53688B4200D95AE703D1BB
:1032D0001368834200D955E70023336052E7C046A4
:1032E0002C2F0120282F01205C570120E0560120BF
:1032F000242E01209C2F0120F40F012054340120A2
:103300005034012064A202207C880220383401203D
:1033100088130000482F0120857A0110AC8002201C
:1033200058660110F4350120EC350120F0350120FC
:10333000F80F0120145F011008710220D85E0110FF
:10334000803501203C2F0120402F01203C610220CC
:10335000F46C0220F0FF0000342F0120A88002202E
:103360006C59022060A20220F05E0110E45E0110A0
:10337000005F0110202A0120414D2F78002F8AD0B4
:10338000404B0D2102269E5F002398468C4620224A
:1033900041463D4B00290FD1BE4214D099690A42E3
:1033A000FCD11F60297801350D394F4279412F78C2
:1033B000C9B2002FEED16EE799690A42F1D099693E
:1033C0000A42F9D1EDE799690A42FCD161461960D8
:1033D000E4E700221A60D5E62C4B984613189B00B0
:1033E000EB1805AA414658680DF0A4FB0123336091
:1033F00005F0D0FA059A53019B1A9B009B18DB003D
:103400001E00DF1780197941214B18605960414631
:10341000204807F0F5FC36E713181F4F9B00EB1808
:103420003800596807F0ECFC3E78002E00D12AE7FE
:10343000144B380002229B5E002120220D279C465F
:10344000114B00290FD1B44514D099690A42FCD11F
:103450001E60017801300D394E4271410678C9B2C3
:10346000002EEED10FE799690A42F1D099690A421C
:10347000F9D1EDE799690A42FCD11F60E5E7C04642
:1034800008710220A0AD022000800340105F0110EF
:10349000202A012048A2022040AA0220F0B5C646F8
:1034A00000B5954D82B02B68002B1CD1934C23683E
:1034B000002B00D07CE0924C2368002B00D090E0E1
:1034C000904C2368002B00D0A2E08F4C2368002B87
:1034D00000D0B4E08D4D2B68002B00D0E9E002B0A5
:1034E00004BC9046F0BD002398466B46424601ACB2
:1034F0001A7001216A46DE2000F024FB802622009B
:103500000121DF2000F066FA4246237876423343F9
:10351000227002212200DE200D27637000F012FBD2
:103520006B466A460121DE201F7000F00BFB220073
:103530000121DF2000F04EFA2378220033430221DC
:10354000DE206370277000F0FDFA6B466A460121A9
:10355000DE201F7000F0F6FA22000121DF2000F0CB
:1035600039FA237822001E430221DE20667027707C
:10357000072600F0E7FA6B466A460121DE201E703E
:1035800000F0E0FA22000121DF2000F023FA7F237F
:10359000227802211340DE2022006370267000F0A2
:1035A000D1FA4346554C2B602368002B00D182E7AB
:1035B0006B4600256A460121DE2001AE1D7000F039
:1035C000C1FA32000121DF2000F004FA7F233278B3
:1035D000256013404A4C4E4A13602368002B00D1EB
:1035E0006EE701236A460121DE2001AD137000F071
:1035F000A9FA2A000121DF2000F0ECF9454B2A78D6
:103600001A60002323603F4C2368002B00D15CE745
:1036100002236A460121DE2001AD137000F092FA08
:103620002A000121DF2000F0D5F93B4B2A781A60EF
:1036300000232360344C2368002B00D14AE76B46FB
:1036400000266A460121DE201E7000F07BFA01216F
:1036500001AADF2000F0BEF96B461A797F232F4DB7
:1036600013402F4A0121AB5401236A46DE20137018
:1036700000F068FA012101AADF2000F0ABF96B46E7
:103680001A79284B0121EA5402236A46DE2013707E
:1036900000F058FA01AA0121DF2000F09BF96B46E7
:1036A0001A79214B2660EA54184D2B68002B00D163
:1036B00015E70027194E1A4B01ACF35C22000221DA
:1036C000DE206370277000F03DFA0122154B0221C5
:1036D000F35CDE2022702200637000F033FA0222D5
:1036E000114B0221F35CDE2022702200637000F097
:1036F00029FA2F60F3E6C0467435012054350120C5
:10370000503501204C3501207835012070350120DD
:103710006C35012068350120643501205C5701209B
:10372000CA200000C9200000C8200000014B18601A
:103730007047C046101201200123154A84B0126858
:1037400093400192D02212065362936100230393A7
:10375000039B042B05DC039B01330393039B042B86
:10376000F9DD01230B4A126893400192D022120620
:103770005362936100230293029B042B05DC029B9E
:1037800001330293029B042BF9DD04B07047C0465D
:10379000545901105059011001221B4B86B01B686F
:1037A0009A400193D0231B065A629A610023059325
:1037B000059B042B05DC059B01330593059B042B1E
:1037C000F9DD0123114909688B400191D0210906D7
:1037D0008B6200230493049B042B05DC049B0133C0
:1037E0000493049B042BF9DDD0231B069A6200236B
:1037F0000393039B042B05DC039B01330393039B7F
:10380000042BF9DD06B070475459011050590110CE
:10381000012170B50C00324BD0221B6808259C405A
:10382000304B00261B6888B099400193120643B2C2
:10383000002B51DB546294610596059B042B05DC3B
:10384000059B01330593059B042BF9DD91620496DA
:10385000049B042B05DC049B01330493049B042B81
:10386000F9DD516291610396039B042B05DC039BF8
:1038700001330393039B042BF9DD4000013DC0B2EB
:10388000002DD4D1D0231B069C6299620695069B1D
:10389000042B05DC069B01330693069B042BF9DD04
:1038A000D0206423000602E0013B002B16D04268C2
:1038B0002242F9D10120D0231B06596299610023CD
:1038C0000793079B042B05DC079B01330793079B9A
:1038D000042BF9DD08B070BD9462ADE70020EAE783
:1038E0005459011050590110F0B50125374B474686
:1038F000884619682B00D0228B40CE46120680B530
:1039000099469362324B84461B6808279D400024E9
:103910000026012089B001930596059B042B05DC48
:10392000059B01330593059B042BF9DD95620496F5
:10393000049B042B05DC049B01330493049B042BA0
:10394000F9DD53686400CB405562034095610396EE
:103950001C19039B042B05DC039B01330393039B7E
:10396000042BF9DD013F002FD6D14346002B28D090
:10397000D0234A461B065A629A61D0231B069D62D9
:1039800000230793079B042B05DC079B0133079358
:10399000079B042BF9DDD0231B065D629D6100238C
:1039A0000693069B042B05DC069B01330693069BBE
:1039B000042BF9DD63461C7009B00CBC9046994697
:1039C000F0BDD0234A461B069A62D6E7545901102F
:1039D00050590110F0B546464F46D6460123C0B5B2
:1039E0001700564A8AB012680E0093409846D023BA
:1039F000019242461B065A629A6100230293029B7F
:103A0000042B05DC029B01330293029B042BF9DD9E
:103A100001234B4A126893409946D02301924A46AB
:103A20001B065A629A6100230393039B042B05DC57
:103A3000039B01330393039B042BF9DDFFF7E8FE9F
:103A4000002846D0002E0FDD731E9A46002406ADD6
:103A50005346191B4B1E99412800FFF745FF2B7851
:103A60003B550134A642F3D1D02342461B065A628D
:103A70009A6100230793079B042B05DC079B013306
:103A80000793079B042BF9DDD0234A461B069A6255
:103A900000230893089B042B05DC089B0133089343
:103AA000089B042BF9DDD02342461B069A620023B3
:103AB0000993099B042B05DC099B01330993099B9E
:103AC000042BF9DD01200AB01CBC90469946A246A1
:103AD000F0BDD02342461B065A629A610490049BB3
:103AE000042B05DC049B01330493049B042BF9DDB8
:103AF000D0234A461B069A6200230593059B042B9C
:103B000005DC059B01330593059B042BF9DDD023D0
:103B100042461B069A6200230693069B042BD2DCC6
:103B2000069B01330693069B042BCCDC069B0133DA
:103B30000693069B042BF3DDC5E7C04654590110DC
:103B400050590110F0B50125304B89B01B680F00AA
:103B50009D400193D0231B065D629D61002303936A
:103B6000039B1400042B05DC039B01330393039B8D
:103B7000042BF9DD0126264B1B689E400193D023C0
:103B80001B065E629E6100230493049B042B05DCEC
:103B9000049B01330493049B042BF9DDFFF738FEEB
:103BA000002F06DDE71920780134FFF731FEA74228
:103BB000F9D1D0231B065D629D6100230593059B0F
:103BC000042B05DC059B01330593059B042BF9DDD4
:103BD000D0231B069E6200230693069B042B05DC64
:103BE000069B01330693069B042BF9DDD0231B06AD
:103BF0009D6200230793079B042B05DC079B013381
:103C00000793079B042BF9DD09B0F0BD545901104F
:103C100050590110F0B54546DE4657464E46002441
:103C2000E0B50D00BF4B93B01C60BF4B01911C6011
:103C3000BE4B07003C220021BD4898461C6008F09E
:103C4000F1FCBC4B1C701C752B78002B5ED0002245
:103C50000292B94A00240026934639000097097859
:103C60003200002918D0202B21D0252B32D001364C
:103C70000134994213D1434642461B680133136015
:103C8000019B02941B5D002B40D0BA1911000978EA
:103C9000009232000029E6D1202B00D1B7E10020AC
:103CA00013B03CBC90469946A246AB46F0BDA34B30
:103CB00001345B5C1B07E3D5434608211868454681
:103CC000013683199B1A2B60BB5D9C4DEB5C19423E
:103CD000F5D1D5E7019B621C994618009B5C914485
:103CE000002B00D1B0E15B2B7DD011D8252B72D1F8
:103CF00001362529D3D1434642461B68023401339D
:103D00001360019B02941B5D002BBED10120C7E70D
:103D1000642B01D0782B5ED101220020874D0092C8
:103D20001FE0782BBBD14421BB5DEA5C114200D17E
:103D300075E1202206A98A800B711022030100215F
:103D400007A89A460DF022FA5044434642461B68A3
:103D5000013601331360BB5D002B00D136E14B46C9
:103D60001B78642BDDD1754ABB5DD15C04220A420D
:103D700022D12D2B00D121E1002E00D18FE7BB19DC
:103D8000013B1B786D49C95C0A4202D12D2B00D042
:103D900085E7644B63491B685A1C0A6000999B00C5
:103DA000414308006249C8500E2A00DD43E1023455
:103DB000019B02941B5D66E7202206A98A800B7195
:103DC0002D2B0CD083001818430007A89A460BF03F
:103DD00027FE5044B9E71400009902923FE70123FF
:103DE0005B420093B1E7504B00221B6851499A4651
:103DF0009B00029353449B00CA54019B1B199A7861
:103E0000002A00D14BE70198023406A900230731AC
:103E1000001908E0262B00D141E70133CA54C25CE7
:103E2000002A00D13BE7E5185D2AF3D10595262B42
:103E300000D134E7002208ACE254E3185A705B4624
:103E400020001A600CF0AEFF002822D000230125CC
:103E50000396049714E05E1CA15D2D2972D05B4689
:103E6000374F1B68B9465900C9188900CD554944D8
:103E70004A608A605A46013313603300834206D297
:103E8000E25C5E2AE7D1013302258342F8D3039E28
:103E9000049F009B1A78002A3AD02649029B894643
:103EA00053449B0099445B461D683B0007AC574652
:103EB0009A4619E059688A4202DB99688A4220DDF5
:103EC000022F00D1EBE600232100484663702270E8
:103ED0000CF0F4FE434642461B6801360133136082
:103EE00053469A5D002A11D0002D0EDD0020144BA0
:103EF00019780129DED159688A4202DB99688A4221
:103F0000DEDD01300C33A842F2D15346BA461F0021
:103F10005346054A059C013313600134019B02940A
:103F20001B5DB0E688340120903401208C340120E0
:103F300008AB022034AC022094340120857A0110B1
:103F400044AB02209E1CA75DB946002F25D15F46D9
:103F50005B463F681B68B9465B0099444B469B0033
:103F60009946EAB213004F463B4ABB544A4451605B
:103F700091605A461268384F0132914652004A44C5
:103F8000B9469200D3555B464A44516091605A4607
:103F90001B6802331360330070E759462E4F0968DF
:103FA000BC464E007618B600F555664472604A4627
:103FB000B2605A460131116003335FE7202107AA3E
:103FC0001180137001235B420093BEE6019A029BAD
:103FD000944663449B78002B00D060E61F4B1F493A
:103FE0001B685A1C0A6000999B00414308001C4949
:103FF000C85001200E2A00DC52E61A4B1A49002054
:1040000019606146194B1960194B1A6048E6029A0B
:10401000019B9446634458784342584140E6002E41
:1040200000D13CE64422BB19013B1B78EB5C1A42F1
:1040300000D0AEE633E60B4B0B4919600B4B0199F0
:1040400019600B4B1A602AE6064B0A4A1A60074BA6
:104050001860002024E6C04644AB022088340120CA
:1040600008AB022014120120B868011018120120B8
:1040700084340120C4680110F0B5040083B00D48F9
:104080001F0016000D0008F085FD0F20FFF74EFB06
:10409000FE2001AA6DBA158020400221FFF752FDD3
:1040A000012020433A003100C0B2FFF793FC03B077
:1040B000F0BDC046E0680110F8B5070012480E00D8
:1040C00015001C0008F066FD0F20FFF72FFBFFF71F
:1040D00033FBFE203840FFF79BFB3012C0B2FFF7E6
:1040E00097FBF0B2FFF794FB002D06DD65192078F1
:1040F0000134FFF78DFBAC42F9D1FFF74DFB0420F3
:1041000004F05AFBF8BDC046E0680110F8B53B4B1F
:104110004E4699468422574645460023DE46494688
:10412000FF32E0B58B54013A8B54354B4C469A46DE
:1041300080235B02CB4600250027984680345B46EF
:104140001A780133BF18BFB2A342F9D180222900E7
:10415000504608F01FFD0F20FFF7E8FAFFF7ECFAD2
:10416000A020FFF755FB2812C0B2FFF751FBE8B2C1
:10417000FFF74EFB5E4630780136FFF749FBA6425B
:10418000F9D1FFF709FB042004F016FB802334006B
:104190009C468035E34480344545D0D1194BC12439
:1041A0001F8084254B463A0A640021001A55FF35CA
:1041B000022250465F5508F0EDFC0F20FFF7B6FADB
:1041C000FFF7BAFAA020FFF723FB0120FFF720FB3F
:1041D0008220FFF71DFB4B46185DFFF719FB4B468E
:1041E000585DFFF715FBFFF7D7FA042004F0E4FA57
:1041F0003CBC90469946A246AB46F8BD5C570120B0
:10420000E0680110F83501208022F0B5274C944673
:10421000230057464E464546DE466344E0B5994680
:104220001E0000239846224B00259B4680235B02FC
:104230009A4683B001AF80224146584608F0AAFC56
:104240000F20FFF773FA43463A000221A0205BBA21
:104250003B80FFF777FC22008021A120FFF7BAFB0B
:1042600023780134ED18ADB2A642F9D180239C46E3
:10427000E0444C468036D04501D0E144DBE7C12321
:104280000A4A5B00D35C84220849FF32895C1A0227
:104290005B18ED1A0748084B8A1802801D8003B08E
:1042A0003CBC90469946A246AB46F0BD5C57012007
:1042B000E0680110FC350120FA35012000230121BE
:1042C000034A1360034B19601368002BFCD070473E
:1042D000183001201030012010B51C4C2368002B31
:1042E00004D11B4C2368002B19D110BD01210120E2
:1042F000184AFCF75DFEFCF7D5FF00232360FFF7AB
:1043000005FF0122144B01211A600320134AFCF718
:104310004FFEFCF7C7FF0E4C2368002BE5D00121B0
:1043200001200F4AFCF744FEFCF7BCFF002323608A
:10433000FFF76AFF01220B4B01211A6003200A4A92
:10434000FCF736FEFCF7AEFFCFE7C0461030012089
:1043500014300120F86801101830012004690110A0
:10436000106901101C300120206901107047C046FF
:104370000120034B03491A68126808601A607047ED
:104380001C1201209C3401200122034B1A60034BB4
:10439000034A1A607047C0469C3401201C12012059
:1043A000681201200122034B1A60034B034A1A6072
:1043B0007047C0469C3401201C120120A412012029
:1043C0000122034B1A60034B034A1A607047C04630
:1043D0009C3401201C120120641301200122034B94
:1043E0001A60034B034A1A607047C0469C34012090
:1043F0001C120120381201200122034B1A60034BCA
:10440000034A1A607047C0469C3401201C120120E8
:10441000E01201200122034B1A60034B034A1A6089
:104420007047C0469C3401201C1201202813012033
:104430000122014B1A607047783501200122014B9F
:104440001A6070477035012000B5002391B000223A
:104450000021002002F03AFA094802F083FA094BE1
:104460001E211A68684600926A461B791371002360
:10447000002201F00FFD0122034B1A6011B000BDB4
:10448000306901103C6901109C34012000B591B0E5
:104490000923092268460A4906F0B2FC00230022DB
:1044A0000021002002F012FA684602F05BFA02F0E6
:1044B00023FA02F017F90122024B1A6011B000BD75
:1044C000446901109C34012030B589B002F038FAFB
:1044D000002100200F4AFCF76BFD0F4DFCF7C8F8D8
:1044E00002F02AF9431CF9D002F0FCF8290002007E
:1044F00004000300009003A806F082FC01210020C4
:1045000003AAFCF743FD012CE8D1044B1C6009B061
:1045100030BDC0465C6901106C6901109C340120FB
:1045200010B502F00DFA002100200E4AFCF72EFD16
:10453000012100200C4AFCF729FD01230B4C2360CC
:10454000FCF796F802F0F8F8431CF9D002F0CAF82C
:10455000012802D0FCF740F8F2E700232360044B67
:10456000186010BD8069011094690110802F01202E
:104570009C34012010B5FCF79BFD10BD802110B5C7
:104580005022A320024B4901FFF796FD10BDC04603
:104590005B7801208422112110B50E4BFF32995413
:1045A0007231FF315A5CA02001325A545B1802224A
:1045B000FFF782FD02F0C4F9074A00210020FCF752
:1045C000F7FCFCF755F8054804F0F6F80122044B17
:1045D0001A6010BD5C570120A4690110B80B0000DF
:1045E0009C340120802110B55022A320024B4901A8
:1045F000FFF742FD10BDC0465B78012000B595B0C5
:104600006B4650220649A120FFF736FD80216B46FC
:1046100050224901A220FFF74FFD15B000BDC04652
:10462000FF20000010B502F08BF9002300220021CA
:10463000002002F04BF9064802F094F902F00AFF5C
:104640000120044B04491A68126808601A6010BD02
:10465000B06901101C1201209C340120F0B5D6462F
:104660004F4646460023C0B5CAB002AD2B7002F0DB
:1046700067F9444B00211A0000209846FCF798FC8B
:104680002800FCF7CBFC01233F4E012433703F4B45
:104690003F4F9A463F4B9946022C0FD0032C15D022
:1046A000012CF9D1002300224021280001F0F2FB67
:1046B00001283ED00D282BD102233370380008F09A
:1046C00069FA0122344B1A6003233370902002F000
:1046D00031FC280001AA0AA902F066FB041E19D0C9
:1046E00002F0D8FB484608F055FA02F029F90021FB
:1046F00000204246FCF75CFC00210AA802F034F8D6
:10470000012829D0082803D102F0E2F902F0EAFAE0
:104710003478C1E7504608F03DFA01230022337097
:104720004021002328002C70012401F0B3FB012854
:10473000C0D12B78002B17D000232B7002F000F98A
:10474000424600210020FCF733FC2A00002105200E
:10475000FCF72EFC34789FE72B78002B06D0002343
:104760002B7002333370A9E70C4B1C60002300222E
:104770000021002002F0AAF84AB01CBC90469946DD
:10478000A246F0BDC06901105CAC0220E8690110CE
:10479000C8690110E06901102C3001209C3401200F
:1047A00010B588B000236A46137002F0C9F81E4C99
:1047B000002022000021FCF7FBFB6846FCF72EFCE2
:1047C000002300224021684601F064FB012822D02A
:1047D0000D28F5D1902002F0ADFB68460CF0E2FA0E
:1047E0000100684602F03EFD00236A46137002F0A5
:1047F000A7F8220000210020FCF7DAFB6A4600211E
:104800000520FCF7D5FB002300224021684601F07B
:1048100041FB0128DCD16B461B78002BE4D1034B14
:10482000186008B010BDC046FC6901109C3401201E
:10483000F0B5DE46454657464E46E0B583B0FCF738
:10484000CDF9002500242000012229000134FCF7C5
:1048500009FA792CF7D10A35282DF3D10025002447
:104860002100012228000134FCF7FCF91F2CF7D1AC
:104870000A35822DF3D1FA20C00003F09DFFFCF72A
:10488000ADF900239B468B4B9D250093019301239B
:1048900001279A4699465B466D007F42AB4600264B
:1048A000B8461D00844C310028000022FCF7DAF9DC
:1048B000414650460022FCF7D5F9494650460022B1
:1048C000FCF7D0F9414638000022FCF7CBF9494605
:1048D00038000022FCF7C6F9009A019B94465B441D
:1048E0001800A44464216646019306F01BFB642172
:1048F00005003000009606F015FB060001000122BD
:104900002800FCF7AFF96A1C9246721E904650468A
:1049100001224146FCF7A6F9721C9146504601223D
:1049200049466F1EFCF79EF9012241463800FCF70C
:1049300099F9012249463800FCF794F9019B5F4A36
:1049400093423BDD5B46D804C01A8000C01AC00009
:1049500058448001C01A8000C01A594906F0E2FA92
:10496000009B83461A00C8231B019A4258DDE004CD
:10497000001B8000001BC00000190001001BC000CC
:1049800000194F49400006F0CDFA4C4B040001934A
:10499000C8231B010093FBF76BFE01F0CDFE431C07
:1049A00081D001F09FFE012878D0062872D005281A
:1049B0006BD164235B429C46E34474E7009B1A007E
:1049C000C8231B019A4246DDE004001B8000001B47
:1049D000C00000190001001BC00000193849400048
:1049E00006F0A0FA019B04001A0096235B009A428D
:1049F0005BDA5B46D804C01A8000C01AC000584475
:104A00004001C01A800058442D49400006F08AFA3F
:104A100096235B000193C8231B0183460093BAE7EA
:104A2000264B0193009B1A0096235B009A42B2DA50
:104A3000E004001B8000001BC00000190001001BE7
:104A4000C00000191E49400006F06CFA96235B0076
:104A5000040000939FE7019B1A0096235B009A4293
:104A6000E0DA5B46D804C01A8000C01AC00058447F
:104A70004001C01A800058441149400006F052FA23
:104A800096235B0083460193CCE7032800D00AE716
:104A9000643408E764239C46E34404E703B03CBC69
:104AA00090469946A246AB46F0BDC8231B01009331
:104AB00071E7C0468813000041020000D4300000B6
:104AC0001027000010B5024B186801F0C3FA10BDA2
:104AD0002012012010B50B4808F05CF832240420A5
:104AE000FBF74CFC012003F067FE0420FBF7A2FC5F
:104AF000013C012003F060FE002CF0D1024808F0D8
:104B000049F810BD046A01100C6A0110F0B5DE46C8
:104B100057464E464546E0B5BC4893B008F03AF8D3
:104B20000A2007F08FFEBA4808F034F80A2007F090
:104B300089FEB84808F02EF8B74808F02BF8B748B7
:104B400008F028F8B64808F025F8B64CFCF746F807
:104B5000B54B0C930D94002311930023B34C0A938F
:104B60000B940023B24C029303940523B14C9B4653
:104B7000B14B0E930F9400231093FBF779FD5B4626
:104B8000002B00DC99E00E980F99AC4B002206F048
:104B900070FC00239A4608900991504606F0E2FC0A
:104BA0000A9E0B9F32003B0004000D0006F03AFC09
:104BB000A34A04900591A34B2000290006F059FC5C
:104BC0003B00320006F02EFC002300249946984654
:104BD00000232500009301941C0006900791049A7D
:104BE000059B2000290006F01DFC069A079B040087
:104BF0000D000098019906F015FC06000F0020003A
:104C0000290006F067FD009001913000390006F0A0
:104C100061FD02000B000098019906F003FC009072
:104C200001912000290006F03FFD04000D00300036
:104C3000390006F039FD02000B002000290006F0C3
:104C4000F1FB040048460D0006F08CFC089A099B15
:104C500006F070FC07000022781E87417A4B200086
:104C6000290006F006FC0022784B06F002FC002228
:104C7000764B06F0D7FB06F08DFC060000980199F4
:104C80000022714B06F0F5FB029A039B06F0F1FB44
:104C9000029A039B06F0C6FB06F07CFC3A0031004A
:104CA000FBF7E0FF01239C46E044D144D84596D170
:104CB000E2445346642B00D06FE70C9A0D9B0A9890
:104CC0000B9906F0AFFB0A900B9101F035FD431CE8
:104CD0000FD001F007FD012832D0062827D0052883
:104CE0000ED1029803990022574B06F0C2FB0290A6
:104CF0000391119B002B00D13FE7FBF76FFF3CE7CF
:104D00004E2868D0482862D054285CD02B283ED149
:104D1000109B012B2BD0022B19D001239C46E3447E
:104D200059464B4807F036FF00231093E1E70298FD
:104D3000039902000B0006F075FB02900391D8E77F
:104D400013B03CBC90469946A246AB46F0BD414AE2
:104D5000414B0E980F9906F065FB02000B003F488F
:104D60000E920F9307F016FF02231093C1E7394A02
:104D70003B4B0C980D9906F055FB0A9A0B9B0C9037
:104D80000D91384807F006FF01231093B1E72D2855
:104D900012D1109B012B2BD0022B20D10E980F99F2
:104DA0002C4A2D4B06F035FB02000B002B480E92CF
:104DB0000F9307F0EFFE9CE720289AD10123119A68
:104DC0005A40119295E7284807F0E4FEDCE72748AF
:104DD00007F0E0FEC8E7264807F0DCFEA4E7012361
:104DE0005B429C46E3445946194807F0D3FE80E7EE
:104DF0000C980D99174A1A4B06F00BFB0A9A0B9B5D
:104E00000C900D91174807F0C5FE72E7186A011063
:104E1000386A01105C6A01109C6A0110BC6A0110BA
:104E2000D46A01109999993F9A9999990000344050
:104E3000000050406666E63F6666666600407F405A
:104E40009A4B2352916305400000E03F0000304040
:104E5000F86A01107B14AE47E17A943F086B0110A9
:104E6000E17A743F006B0110106B01101C6B011094
:104E7000286B01107047C0467047C0467047C04657
:104E80007047C0467047C0467047C0467047C0462E
:104E9000264BF0B547469846C823CE465B01002412
:104EA000994680B5224E234F234D91B06B46402248
:104EB0002100A320FFF7E0F801F042FD6B4600213E
:104EC0001A780020FCF786F86B4600215A1C052052
:104ED000FCF76EF811236B441A0001210020FCF747
:104EE00067F8404607F056FE6B463800197807F021
:104EF00051FE6B463000591C07F04CFE11236B44E9
:104F00001900280007F046FEFBF7B2FB01F014FC85
:104F1000431CF9D001F0E6FB012802D040344C4597
:104F2000C4D111B00CBC90469946F0BD346B011051
:104F3000486B01103C6B0110546B0110F0B5C64674
:104F4000294B00B598461B68002B24D101F0F4FBD7
:104F5000431C02D104BC9046F0BD01F0C3FB234BBF
:104F60001C68237B262BF5D022000021183206E096
:104F70000C3213000C3B1B780131262BEAD0834204
:104F8000F6D14B00591889006418636998470123CA
:104F900042461360DEE700234246136001F0D0FC76
:104FA000124E31680B7B262B1AD000250023104FA0
:104FB0005B199C0009190869FCF762F83368013530
:104FC0009C4664442069FCF729F83800FCF726F871
:104FD0006B0031685A1992008A18127B262AE7D191
:104FE0008B689847B2E7C0469C3401201C12012010
:104FF000A47201100022044B1A60044B01321A60A3
:10500000034B044A1A607047983401209C340120F5
:105010001C120120D013012010B5FFF78FFF10BD27
:105020001A4B70B51A680A21501C186005F07AFFF7
:10503000174A002910D17B23D156164BC80F186090
:10504000154B5C689D68DE681C601C695D609E6035
:10505000DC601861002907DB7423D35C002B02D0CD
:1050600000220E4B1A6070BD012CF5D13543F3D1EF
:105070000A48036801330360042BEDD108490C6032
:105080000B68002BFCD10360E6E7C0469835012091
:105090005C57012094350120241201209C35012009
:1050A000782F01200022014B1A607047243501201F
:1050B000064B1A6811003039392A01DD573A1100C0
:1050C000034A13681B010B431360704758340120D7
:1050D000243501200122014B1A6070473C34012025
:1050E00010B50100014807F055FD10BD846C01109A
:1050F000A522A62170B5154B15489A5C5E5C12027C
:10510000B618A72202319A5C5D5C1202AD18A92282
:1051100002319A5C5C5C1202A4180E4A0E499A5C39
:10512000595C12028918B6B289B207F033FDADB2EC
:1051300031000A4807F02EFDA4B22900084807F004
:1051400029FD2100074807F025FD70BD5C570120AF
:10515000986C01106520000066200000A86C01100A
:10516000B86C0110C86C011070B50A2007F06AFB1A
:10517000074C084D2600FC366268216828000C3474
:1051800007F008FDB442F7D10A2007F05BFB70BDC1
:1051900060140120D86C011070B50A2007F052FB92
:1051A0000B4C0C4E25008135FF35626813782A2B95
:1051B00003D03000217807F0EDFC0C34AC42F4D180
:1051C000054807F0E7FC0A2007F03CFB70BDC0462D
:1051D0005C150120E46C0110F06C0110F0B5DE46A6
:1051E0004E46454657468022E0B5264C0021A54450
:1051F00010ABD200A320FEF73FFF0A2007F022FBEE
:10520000002302AD2B70204B002499461F4B204EEB
:105210009846204B9A460CE05146684605F0F0FD52
:10522000694628000BF04AFD80230134DB009C42D4
:105230001CD0194BE7180F231A0022409346234233
:1052400008D068213A78B35C8B43E5D12E236A46B7
:105250001380E5E72900484607F09CFC5B4602AD59
:10526000210040462B7007F095FCEAE70A2007F082
:10527000E9FA0A4B9D443CBC90469946A246AB468F
:10528000F0BDC046BCEFFFFF146D01101C6D011096
:10529000857A0110246D01100000181044100000E0
:1052A000F0B5DE464E4657464546E0B50A2091B079
:1052B00007F0C8FA00236A4613728023234E9B002E
:1052C0003468E3189C4237D2214B224F9846224B38
:1052D0009B46224B9A46224B994610E02A004946AB
:1052E000684605F08DFD694602A80BF0E7FC8022B8
:1052F00092009446336801346344A3421CD90F23BF
:105300001D00254023420CD025784046290007F097
:1053100041FC68227B5D9343E0D12E236A461380D3
:10532000E1E702A9584607F035FC6B4621005046DC
:105330001D7207F02FFCE7E70A2007F083FA11B08F
:105340003CBC90469946A246AB46F0BD24350120B0
:10535000306D0110857A0110146D0110286D011057
:10536000246D011010B5034B034A1A60FFF798FF34
:1053700010BDC046243501200000181010B584B0BF
:1053800001AB1900074A11CA11C110880880927830
:10539000A3208A70044A11680A22FEF78DFE04B029
:1053A00010BDC046386D011024350120F0B5DE4631
:1053B00057464E464546E0B5214B89B09B461B6893
:1053C000002B32DD1F4B002499461F4B98461F4A85
:1053D0006300D55A1E4A1F49165D1F4A1F48125DB9
:1053E000ADB2D2B20692CA5AC75A4B461B5D91B2B1
:1053F000DBB29A464B46185D0791C0B2FDF776FDC9
:1054000053460799069AF6B2BFB2049003930191EE
:1054100033002100009240462A00029707F0BAFBB1
:105420005B461B680134A342D1DC0A2007F00AFA6C
:1054300009B03CBC90469946A246AB46F0BDC0467A
:105440000C2E0120504B0120446D0110BC3901206D
:10545000CC470120F0410120983F01204844012021
:10546000F0B545464E46DE465746244BE0B51C682F
:10547000234B00259946234B89B09846224A630066
:10548000D65A224A2249175D224A2348125DB6B2F3
:10549000D2B20692CA5AC35A91B29BB29A464B46AE
:1054A0001B5D0791DBB29B464B46185DFFB2C0B255
:1054B000FDF71CFD5B46039353460799069A04903B
:1054C000029301913B00290000924046320007F010
:1054D00061FB9621601C490005F024FD96230135EF
:1054E0000C005B009D42C9D10A2007F0ABF909B05E
:1054F0003CBC90469946A246AB46F0BD102E01201A
:10550000A0460120446D0110403D0120C44001200F
:10551000F8480120143C01201436012010B504483D
:1055200007F038FB01F096FF024807F033FB10BD8F
:10553000846D0110946D0110002110B5034B0448D7
:10554000595607F027FB01F085FF10BD0D360120ED
:10555000A06D0110002170B5214D8CB06956214815
:10556000413107F017FB03AA02A901A801F0F6FCDC
:10557000039A01991C4807F00DFB6B460021DC1CC7
:105580002300695604AA012001F0C8FA0021230073
:105590000320695604AA01F0C1FA002817D0134E5F
:1055A000207801F0C7FC03AA02A901A801F0D6FCEB
:1055B0002278029B04A9300007F0ECFA00212300B6
:1055C0000420695604AA01F0A9FA0028E8D10021B4
:1055D0002300695604AA022001F0A0FA0CB070BDA5
:1055E0000D360120B06D0110C46D0110EC6D01107D
:1055F00010B5FFF7AFFF10BD70B51B211D4807F0B8
:10560000C9FA1D4807F070F91B211C4807F0C2FABF
:105610001B4C1C4D236828005A425341236007F05D
:10562000B9FA0A2007F00EF92368002B1FD116499A
:10563000164807F0AFFA0A2007F004F9144807F0FB
:10564000A9FA144807F0A6FA134807F0A3FA13487A
:1056500007F0A0FA124807F09DFA0A2007F0F2F8C6
:10566000280007F097FA0A2007F0ECF870BD0D4902
:10567000DEE7C046146E01101C6E0110286E01108A
:1056800088350120306E01100C6E01105C6E011027
:10569000746E0110886E0110986E0110AC6E0110CE
:1056A000C46E0110086E011070B51B211F4807F071
:1056B00071FA1F4807F018F91B211E4807F06AFA13
:1056C0001D4C1E4D236828005A4253411C4A23603A
:1056D000136859424B41136007F05CFA0A2007F047
:1056E000B1F82368002B1FD11649174807F052FA6A
:1056F0000A2007F0A7F8154807F04CFA144807F0FD
:1057000049FA144807F046FA134807F043FA1348D9
:1057100007F040FA0A2007F095F8280007F03AFA57
:105720000A2007F08FF870BD0D49DEE7146E0110F6
:105730001C6E0110DC6E011088350120306E0110E6
:10574000843501200C6E01105C6E0110746E011026
:10575000886E0110986E0110AC6E0110C46E0110BD
:10576000086E011010B59021014801F077FC10BDC2
:10577000E86E011010B500240A2007F063F8064B0C
:105780001C5701F05BFE21000200044807F002FAFA
:105790000A2007F057F810BD0D360120F06E0110F9
:1057A00000B587B001AA0BF0C5F9002101A801F0EE
:1057B00055FC07B000BDC04600B583B001AA0BF090
:1057C000B9F9019BD8B201F0B5FB03B000BDC046EA
:1057D00010B5044B0448196807F0DCF901F082FAAF
:1057E00010BDC0462C300120106F011000B5C3B0B1
:1057F00002AB01AA0A490BF09DF9019A02A90948D6
:1058000007F0C8F9019BD8B201F094FB02A80BF095
:10581000C9FA010002A801F025FD43B000BDC04651
:105820001C6F01102C6F011000B5C3B06A4601ABAC
:1058300007490BF07FF9074B07481A78074B19689F
:1058400007F0A8F902A801F04BFB43B000BDC04629
:105850004C6F011008360120546F01102C300120CC
:1058600010B501F017FB10BD0023F0B5D3B002ADA9
:105870002A002B700BF05EF90B4F0C4E0AE03C68CF
:1058800001F0DCFD2100020012AB300007F082F9CC
:1058900001F000FB280001AA12A901F085FA0028F6
:1058A000EDD153B0F0BDC0462C300120786F01100F
:1058B00000B583B001AA0BF03DF9019B58B201F08D
:1058C00021FD0021034B0448595607F063F903B04A
:1058D00000BDC0460D3601208C6F011000B583B0AD
:1058E00001AA0BF027F9019801F02AFB03B000BDD3
:1058F00010B501F0EDF810BD002310B50B2488B0F1
:105900000593013306931333079306AB05AA00935F
:1059100007AB0BF00FF9079B6C44D8B2207001F075
:1059200009FB059B58B201F0EDFC2200069804AB80
:1059300003A901F0A5FA002813D007990B4807F036
:1059400029F903990A4807F025F90499094807F04D
:1059500021F90021084B0948595607F01BF908B0F6
:1059600010BD074807F016F9F9E7C0469C6F011013
:10597000AC6F0110BC6F01100D3601208C6F01104F
:10598000CC6F011010B5034805F09EFA002103000A
:10599000002098475542000010B5034805F094FADE
:1059A000002103000020984755420000354BF0B518
:1059B0004E4699465746DE46454600234A46E0B5E0
:1059C0001360314B314F9B46314B85B09846314B7C
:1059D0009A460021304B40461A78304B5956534670
:1059E0001B68413100935B461B6807F0D3F86B4698
:1059F00020229A8100233B70642007F0DDF8040028
:105A0000431CF9D00D2C10D01B2C0ED0200006F01A
:105A100019FF38000BF0C6F98028EDD06B46381816
:105A200003A91C730BF0B6F9E6E700241C4E03E053
:105A300001340C36152C1FD0356828000BF0B2F954
:105A40003900020028000BF0E1F90028F0D16300D2
:105A50001C19134BA4009C466444A3683800616879
:105A600098474B461B68002BB3D005B03CBC904612
:105A70009946A246AB46F0BD4B461B68002BA8D00A
:105A8000F3E7C0463C3401202C30012060AC0220FA
:105A9000E06F011028350120083601200D36012065
:105AA0006014012030B5174883B006F01DFF16487A
:105AB00007F070F820236A4693800023134D2B7063
:105AC000642007F079F80400431CF9D00D2C10D0A5
:105AD0001B2C0ED0200006F0B5FE28000BF062F95A
