:020000041000EA
:1000000000B5324B212058609868022188439860DF
:10001000D860186158612E4B002199600221596106
:100020000121F02299502B49196001219960352056
:1000300000F044F80222904214D00621196600F024
:1000400034F8196E01211966002018661A6600F04E
:100050002CF8196E196E196E052000F02FF8012189
:100060000842F9D1002199601B49196000215960AB
:100070001A491B48016001219960EB211966A021F2
:10008000196600F012F800219960164914480160C1
:100090000121996001BC002800D000471248134993
:1000A000086003C880F30888084703B5996A0420EC
:1000B0000142FBD001200142F8D103BD02B5186610
:1000C0001866FFF7F2FF186E186E02BD00000240BE
:1000D000000000180000070000035F00212200005C
:1000E000F4000018222000A00001001008ED00E03C
:1000F00000000000000000000000000074B24E7A12
:1001000000200420F7010010C3010010C5010010F9
:10011000C1010010C1010010C1010010C101001097
:10012000C1010010C1010010C1010010C701001081
:10013000C1010010C1010010C9010010CB01001065
:10014000CD010010CD010010CD010010CD01001037
:10015000CD010010CD010010CD010010CD01001027
:10016000CD010010CD010010CD010010CD01001017
:10017000CD010010CD010010CD010010CD01001007
:10018000CD010010CD010010CD010010CD010010F7
:10019000CD010010CD010010CD010010CD010010E7
:1001A000CD010010CD010010CD010010CD010010D7
:1001B000CD010010CD010010CD010010CD010010C7
:1001C00000BE00BE00BE00BE00BE00BE00F04BF888
:1001D000103800BEF2EB88714C710110747101107F
:1001E0003402001090A31AE700202149086006C8D5
:1001F00081F3088810471F48006800282FD10DA4FC
:100200000ECC002902D000F012F8F9E71A491B4A77
:10021000002000E001C19142FCD1194988471949E9
:1002200088471949884700BEFDE701C901C29A42C3
:10023000FBD3704774710110C000002070270120AB
:1002400024980210000004200000042024980210CA
:1002500000100420001004200000000070470B482C
:1002600009F0A8FD0047EFF30580C0B27047000019
:1002700008ED00E0000000D070270120B0AC0220A3
:10028000D57F0010ED050010F980001057560000D2
:1002900006005250ABB36053386301100600525051
:1002A000861C030248630110060052505422A29D8E
:1002B0005863011005005250DE65F468249802105E
:1002C000F8B5C0460448054B10B5834203D0044B33
:1002D000002B00D0984710BD702701207027012007
:1002E0000000000006480749091A8B10C90FC918F9
:1002F00010B5491003D0044B002B00D0984710BD17
:1003000070270120702701200000000010B5074C65
:100310002378002B09D1FFF7D5FF054B002B02D026
:10032000044800E000BF0123237010BD9028012085
:100330000000000018480110054B10B5002B03D039
:100340000449054800E000BFFFF7CCFF10BDC046E0
:1003500000000000942801201848011010B506483C
:100360000BF08EFB0EF054FA012007F09BF905F01C
:100370005DFC02F0B5FCF7E718480110F0B5474600
:10038000CE4680B5294B83B098461A88284B9A42AE
:1003900040D043461B88D0251843434680B218807E
:1003A0001E88802380271B022D0601200021AB61BF
:1003B000FF0407F05FF91024B946B6B20FE08023BE
:1003C000DB016B610120002107F054F9013C0120A1
:1003D00000216F6107F04EF97600002C0BD04B46E0
:1003E0000120AB61002107F045F93304E7D48023F5
:1003F000DB01AB61E6E7D02380221B0612025A61C3
:1004000043461A880A4B9A420AD003B00CBC904665
:100410009946F0BD00230093009B002BFCD1B8E768
:1004200000230193019B002BFCD1EEE72E34012029
:1004300009200000F0B5CE46474680B5284B83B072
:10044000984240D0274BD025984642461B888027AB
:1004500083431380802316881B022D060120002170
:10046000AB61FF0407F006F91024B946B6B20FE0FD
:100470008023DB016B610120002107F0FBF8013CC8
:10048000012000216F6107F0F5F87600002C0BD0F9
:100490004B460120AB61002107F0ECF83304E7D4B0
:1004A0008023DB01AB61E6E7D02380221B0612022A
:1004B0005A6143461A880A4B9A420AD003B00CBCD0
:1004C00090469946F0BD00230093009B002BFCD181
:1004D000B8E700230193019B002BFCD1EEE7C04657
:1004E000092000002E340120F0B50124D0258440DD
:1004F000C64680272D0600B50120AC610021AC6105
:1005000007F0B8F87F036C610120002107F0B2F812
:1005100008260024B8466B686400E4B29B0202D54A
:1005200001231C43E4B2434601200021AB6107F0E4
:10053000A1F8013E012000216F6107F09BF8002E19
:10054000E9D1200004BC9046F0BDC046F8B5DE46B7
:1005500057464E464546E0B501263300D024834039
:1005600024060D0001200021A36117009B4607F01F
:1005700081F8002F26DD7B1E9E408023DB04B046E1
:10058000994600269A4610E08023DB016361012032
:10059000002107F06FF84B4601200021636101360E
:1005A00007F068F86D00B7420CD053460120A361F4
:1005B000002107F05FF843461D42E5D18023DB01AF
:1005C000A361E4E7D0235A461B065A613CBC90461F
:1005D0009946A246AB46F8BD10B502F0F5FD03F012
:1005E00011FD02F07DFB05F033F810BD10B51B20A6
:1005F00084B006F021F9D024802324061B05636211
:100600000D20636106F018F90E2006F015F90F2091
:1006100006F012F9162006F00FF9152006F00CF975
:100620001A2006F009F9132006F006F9142006F046
:1006300003F9122006F000F9002006F0FDF8012071
:1006400006F0FAF8022006F0F7F8032006F0F4F8B6
:10065000042006F0F1F8052006F0EEF8062006F07A
:10066000EBF8072006F0E8F801220021002006F050
:10067000CBF801220021012006F0C6F8012200215A
:10068000022006F0C1F801220021032006F0BCF888
:1006900001220021042006F0B7F8012200210520E4
:1006A00006F0B2F801220021062006F0ADF8012282
:1006B0000021072006F0A8F80A2006F0BDF80B205C
:1006C00006F0BAF80C2006F0B7F8112006F0B4F8DE
:1006D000102006F0B1F800220121102006F094F855
:1006E00000220121112006F08FF880238022DB01F7
:1006F00092016362A262636280231B0263628023B1
:10070000DB03636280239B03A3628023DB046362B9
:1007100080231B03636280228023D2025B03636217
:1007200062628022D20062628022120162628022B2
:10073000520162621448636102AA03AB01A905F089
:1007400095FF00281AD10120FFF718FE0A2006F0B5
:10075000A9FF00F045F800F02BF90BF09DF901F02E
:10076000C9FB0A480EF02EF804F080FB08480BF095
:1007700031F804F08DFB04F06BFFFAE7039A02995D
:10078000019805F037FFDEE7A0F703005D030010D6
:100790002848011000B583B06A4680231371793B65
:1007A000034050204042184350710221782001AA92
:1007B00003F05EF803B000BD10B5102482B0030949
:1007C00001AA234353700F238021184011709170A8
:1007D000D0707C39782003F04BF802B010BDC046D1
:1007E000F0B580276F4CFA25238885B03B439BB238
:1007F00023806D4B21881E680822300089B2FFF7E4
:10080000A5FE7F23ED00039522883000134023804E
:100810002188082289B2FFF799FE029523880822D1
:100820003B439BB223802188300089B2FFF78EFEC4
:10083000019502F017FE782002F080FE802002F081
:100840007DFEAE2002F07AFE802002F077FED520F9
:1008500002F074FE802002F071FEA02002F06EFE15
:10086000802002F06BFEA82002F068FE802002F0DB
:1008700065FE1F2002F062FE802002F05FFED320A2
:1008800002F05CFE802002F059FE002002F056FECD
:10089000802002F053FEAD2002F050FE802002F0D6
:1008A0004DFE8E2002F04AFE802002F047FED82046
:1008B00002F044FE802002F041FE052002F03EFEE0
:1008C000802002F03BFEA12002F038FE802002F0E2
:1008D00035FEC82002F032FE802002F02FFEDA2022
:1008E00002F02CFE802002F029FE122002F026FEEB
:1008F000802002F023FE912002F020FE802002F0F2
:100900001DFE3F2002F01AFE802002F017FE3F205D
:1009100002F014FE802002F011FE3F2002F00EFED5
:10092000802002F00BFE3F2002F008FE802002F043
:1009300005FE812002F002FE802002F0FFFD1B4B2D
:10094000187802F0FBFD802002F0F8FDD92002F0BB
:10095000F5FD802002F0F2FDD22002F0EFFD8020B4
:1009600002F0ECFDDB2002F0E9FD802002F0E6FD64
:10097000342002F0E3FD802002F0E0FDA62002F02A
:10098000DDFD802002F0DAFDA42002F0D7FD8020FA
:1009900002F0D4FDAF2002F0D1FD02F093FD05B0CE
:1009A000F0BDC04630340120484801101006002038
:1009B0008023F0B54746CE469946D03B0025984661
:1009C00080B5174F83B001AE4B46337043463200BB
:1009D0002B4302217820737002F04AFF3200042179
:1009E0007820019702F044FF02F03CFD782002F0ED
:1009F000A5FD402002F0A2FD8424013C0020E4B2C9
:100A000002F09CFD002CF8D10135EDB202F05AFD48
:100A1000042DD9D103B00CBC90469946F0BDC04618
:100A200080108000204BF0B54746CE469946002303
:100A300080B5502700259846802683B001AC7F42C0
:100A40004B4642465B191A70EB113B4322000221D0
:100A500078206370267002F00BFF7F2310212B405B
:100A60001A090A4362700F220421134078202200E1
:100A7000E3702670A67002F0FBFE02F0F3FC782013
:100A800002F05CFD402002F059FD002002F056FD0E
:100A900002F018FD80230135DB009D42D0D103B068
:100AA0000CBC90469946F0BD58490120F0B54E4621
:100AB0004546DE465746E0B50C000500160083B0FB
:100AC0007F2801D81F2906D903B03CBC904699461F
:100AD000A246AB46F0BD7F2307221B1A9846CB17D0
:100AE00013405B18DB105B4203339A468023914628
:100AF00052469B4601AF3B70D03B134302213A0064
:100B000078207B7002F0B4FE43465A46102104332D
:100B1000DBB23A701A090A437A705A46BA70713ACF
:100B2000134004213A007820FB7002F0A1FE02F08D
:100B300099FC782002F002FD402002F0FFFC5346B1
:100B4000DF01164B47449A46DB5D9846002E1CD0C9
:100B5000012E10D032002100280004F097FE4046FC
:100B600000F01EF8C0B202F0E9FC53464246DA55E6
:100B700002F0A8FCA8E74B46320023409A4013003D
:100B800042461343DBB29846E4E74B46012223403A
:100B90009A40434693439846DCE7C04658490120B3
:100BA000022101234200114042101A4011438210D9
:100BB00049001A400A43C110194052000A4301116A
:100BC00052001940114342111A4049001143821149
:100BD00049001A400A43C0115200184010437047A0
:100BE000F8B51500D2B20F00040004F02BFE03206C
:100BF000C01BC0B2FFF7CEFDA000201A40007F301E
:100C0000C0B2FFF7D9FD02F02DFC782002F096FC6F
:100C1000402002F093FCAA00521901240425154E2D
:100C2000B6182200735D1A4058102040520002434B
:100C30009810520020401043DA1022404000104328
:100C40001A11400022400243581120405200024332
:100C500098115200204010434000DB11184302F06D
:100C60006DFC013DDDD2002002F068FC02F02AFCA0
:100C7000F8BDC0461406002070B5150012780E00AD
:100C8000002A09D004002D1A200031000134FFF79A
:100C9000A7FF2A5D002AF7D170BDC04670B51500C8
:100CA00012780E00002A09D004002D1A200031000D
:100CB0000134FFF795FF2A5D002AF7D170BDC046C9
:100CC00070B584B001AD04000E002800084909F099
:100CD0000DF82A78002A08D02D1B2000310001349D
:100CE000FFF77EFF2A5D002AF7D104B070BDC04631
:100CF00050480110F8B5002345469846314B5746F9
:100D00009A460323DE469B4605234E465B425344E8
:100D1000E0B599467F270124002620223100404675
:100D200004F090FD5B46981BC0B2FFF733FD38001E
:100D3000FFF742FD02F096FB782002F0FFFB402017
:100D400002F0FCFB554622002B78013D1A4058105A
:100D50002040520002439810520020401043DA1005
:100D60002240400010431A11400022400243581113
:100D70002040520002439811520020401043DB11E2
:100D80004000184302F0DAFBA945DCD1002001360F
:100D900002F0D4FB02F096FB042EBED101239C4648
:100DA000E0444346063FFFB2152BB5D10023064A67
:100DB0001360064A13603CBC90469946A246AB4677
:100DC000F8BDC046B8060020EC2D0120F02D012012
:100DD000F8B54746CE4680B5144E154F027880468A
:100DE00034683D68002A0BD0031B99462000290077
:100DF000FFF7F6FE4B4601341A5D002AF6D134683F
:100E000040460EF045FF2418142C04DC34600CBC62
:100E100090469946F8BD00223B6832600133032BAF
:100E200001DD3A60F3E73B60F1E7C046EC2D0120BD
:100E3000F02D012010B50EF02BFF084B1A689446D8
:100E40006044142807D90021054A1960136801334A
:100E5000032B01DD116010BD1360FCE7EC2D0120B8
:100E6000F02D012070B509480AF00AFE01231D008B
:100E7000074AD0241268FA2095402406054AA56145
:100E80004000136006F00EFCA56170BD58480110CB
:100E90004C480110A4330120394A30B513680400CE
:100EA00001331360B02383B09B0098425FD028D9F0
:100EB000C0239B00984236D0403398421FD18021F6
:100EC000304A314C1088238801407F201180013343
:100ED00011889BB2238043400B439BB2138011883F
:100EE0002A4B0822186889B2FFF730FB02202849F4
:100EF00023884A7DDB120340824313434B7503B0C2
:100F000030BD013BFF3B98421BD040339842F6D1A5
:100F100080204000FFF732FA2000FFF72FFA64200C
:100F200006F0C0FBEBE700238022174C2380154B13
:100F300019880A407F211A801A880A431A80198862
:100F4000CEE703F051F813480AF09AFD01231D0083
:100F5000114AD0241268FA209540019224060F4AC3
:100F6000A5614000136006F09DFBA561C7E78020E6
:100F70004000FFF75FFA80208000FFF75BFABEE7D2
:100F8000B0330120303401203234012048480110B0
:100F900038520120584801104C480110A433012058
:100FA0008023044A5B42517C0B4353740122024B61
:100FB0001A707047385201208C0F00200122024B1A
:100FC0001954024B1A607047D0510120602E012045
:100FD000F0B5DE4657464E464546E0B5012083B0A3
:100FE00002F03AFA5D4B5E491A68002A03D10A689A
:100FF000002A00D1A4E000225A4F1A603B680A6020
:10100000002B00DAA2E0584B00249946574B9B4630
:10101000574B9846574B9A460EE0574B200019689D
:1010200008F0F6FE03002A0008001900FFF7D8FDBB
:101030003B680134A34239DB4B465A461B681B5DB3
:10104000D55C424612689342E7D153461B68002B99
:10105000E3D04A4B1B68002B07D0494B1B68002B81
:1010600006D0019580256D00D7E7454B1B6801939D
:101070008021AB005B1901950225424A4942D05CB0
:10108000414E08439055D3185878404E0843905528
:1010900098783F4E08439055D878013608439055CC
:1010A0001B79FF350B433B495354B6E7142120000D
:1010B00008F0AEFE14218246200008F0A9FE894601
:1010C000354B00269846434631009A5D1420013680
:1010D000FFF786FD042EF6D16A1EFF3A2B00012A87
:1010E00026D92E4AD35C682293431FD0534616203C
:1010F00058434B462A4EEDB235552A4C2018C5545C
:101100003D6859462A0028480AF008FA00232B2295
:10111000A3541632A35416326375A354735503B007
:101120003CBC90469946A246AB46F0BD2025DDE783
:10113000019D1A4A2B00D35C68229343D6D1F5E770
:101140000A4B084F9B46164E164CD9E7002399468A
:101150009A46064B00249B46B2E7C046602E01200B
:10116000E82D0120600B0020D451012040530220C3
:10117000A4320120AC320120640B0020E42D0120B8
:10118000A832012014060020050500000605000015
:101190000705000009050000D0510120B5650110C8
:1011A0005C4E0120D8510120584D0120E02330B57C
:1011B0005B00040083B0984200D123E10BD81728CC
:1011C0001FD8022865D9C31E9BB2142B57D8A94A31
:1011D0009B00D3589F46D0239B00984241D039D9D9
:1011E000E8239B00984200D139E126D9F0239B00E7
:1011F000984213D10122A04B1A60A04B185D03B096
:1012000030BD0300813BFF3B9BB2012B41D88223C1
:10121000FF33984200D00CE10020F0E720339842E1
:101220002DD1974A1368002B00D107E18021C90115
:101230008C46634400201360E1E7403B984200D1B4
:1012400010E12033984224D100228B4B1A608B4B43
:10125000185DD4E7803B984200D1CDE040339842FE
:1012600004D12000FFF718FE0020C8E7803B984219
:101270000FD10420FFF782F8804B185DBFE72304ED
:1012800000D5A8E08023DB019C4202D37D4B1B6884
:10129000E4187A4B185DB2E77B4B1868FFF724F926
:1012A0007F2343407E201840D023744C1B0660757A
:1012B0005B68764A5B0BDB01184302231288984374
:1012C000D21213401843607503F0E6FD607D96E787
:1012D000D0226F4B1206506819685268C8405C688B
:1012E0000121E2400840C0014008114201D08022A3
:1012F0001043D0221206526899684008CA40D207AB
:1013000003D5802252421043C0B2D0221206526846
:10131000D9684008CA40D20703D580225242104300
:10132000C0B2D0221206526819694008CA40D207DA
:1013300003D5802252421043C0B2D0221206526816
:1013400059694008CA40D20703D58022524210434F
:10135000C0B2D0221206526899694008CA40D2072A
:1013600003D5802252421043C0B2D02212065268E6
:10137000DB694008DA40D30703D580235B4218437A
:10138000C0B29621434A490013688B4200DB36E71E
:10139000E22541495C006554013309194870136026
:1013A0002DE73E4B18782AE73D4B187827E73D4A52
:1013B0001378D9B2012B46D0022900D069E7122850
:1013C00000D066E7032313707F222C4B597C0A4020
:1013D0005A74185D13E7C0231B029C4205D9324B97
:1013E0009C466444314B185D09E72F4B9C46244BC7
:1013F000644418682418F5E70420FFF71BF81F4B16
:10140000185DFCE602F0F0FD29480AF039FB0123E3
:101410001D00284AD0241268FA2095400192240623
:10142000254AA5614000136006F03CF90020A56143
:10143000E5E6224B18687F231840E0E680231B0274
:1014400000201360DBE60D4B112800D0D6E6597C56
:101450007F2900D8D2E602211170185DCFE6094A33
:101460001368E3E60023074A00201360044A136070
:10147000C5E6C04668480110680B002038520120BC
:10148000943301207C330120444801103234012080
:101490006C0F0020FC330120604F01203D340120FF
:1014A0003C3401208C0F00200080FFFF900F0020B3
:1014B000584801104C480110A4330120A4320120E7
:1014C0000B4B1A88824206D01A8A82420BD01A8CA1
:1014D00082420AD0704700220121064812019B185F
:1014E00001605960F6E70122F6E70222F4E7C04600
:1014F000300B002084320120012070477047C04625
:101500000022014B1A607047B43301207323084A4C
:10151000D15C643B0B400749D3188C4606496344B1
:10152000096819707421535C013353547047C046E5
:1015300038520120B0200000E4A5022010B5034974
:10154000034802F0FDF9431E984110BDDC4A01102A
:10155000409D022010B50349034802F0F1F9431EF3
:10156000984110BDEC4A0110409D0220164AF8B582
:10157000136801331360154B9B69DB0603D5144ACE
:101580001368013313601025104C124E124FA369DB
:101590001D4211D1A3691D42FCD12368DBB2002B8F
:1015A000F5D032680D49BB543068013008F030FC8A
:1015B0003160A3691D42EDD0A3691D4203D1084AE1
:1015C000136801331360F8BD8C32012000800340A2
:1015D00090320120943201205883022088130000A9
:1015E000883201207047C046F8B50A4E0024350005
:1015F000094F3800296802F0A3F9002804D101340A
:101600000835072CF5D1F8BDE40034196368984714
:10161000F9E7C046CC110120485402205F4AF0B5DA
:101620001368DE4659424B41012157464E46454616
:101630005B428B4318000023E0B5546897B0584EC6
:1016400002AA03AF1375A330337010223B002100B0
:10165000019002F0A7FB80239B46524BA3449A467D
:101660000F2398460FE0403902AB5B181A70002335
:10167000013102AA521807A80CA9013413700EF008
:1016800093FAA3452AD0454643462540234266D0D7
:101690004246E3171B0FE5181540ED1A7A5D5146D7
:1016A0000CA808F023FB30000EF0F2FA0CA9301859
:1016B0000EF056FA68217A5D3B4B81469B5C8B436A
:1016C000D1D107A80EF0E4FA07AB9C4602223749B5
:1016D0006044013409F022FFA345D4D102223449E9
:1016E000484609F01BFF484607A902300EF0C8FA29
:1016F000304B314C1A68314B20001968330008F028
:10170000F5FA20000EF0C4FA2D4E2E4B02001860A0
:101710002D49300008F0EAFA3478002C18D0300057
:10172000002120220D26294B02255D5F284B002930
:1017300028D1A5422DD099690A42FCD11C600178BC
:1017400001300D394C4261410478C9B2002CEED110
:1017500017B03CBC90469946A246AB46F0BD23006C
:1017600007AA1C490CA808F0C1FA0CA930000EF019
:101770001BFA02AB1D7510223B002100019802F0FC
:1017800011FB85E799690A42D8D099690A42F9D1D3
:10179000D4E799690A42FCD11E60CCE7E4A5022097
:1017A00000600220144B0110B5650110644801105F
:1017B00078570110F42D0120E46B0220D80F01208E
:1017C0001CA50220603301201C4B0110E8A9022057
:1017D00000800340044B0110F0B5D6464F46464604
:1017E000414BC0B51C68012C08D0022C3DD0002C08
:1017F00028D01CBC90469946A246F0BD3B4B1E68C3
:10180000002EF6DD3A4B3B4C9A4619683A4B0027BE
:101810001B6836199846394B994606E04A462378A4
:10182000013401275355B4425BD00D00481CFA2106
:10183000890008F0EDFA4145F0D1002FD9D0534688
:101840001D60D6E72E4F2B4E3D0003E001340835D6
:10185000082CCED03000296802F072F80028F5D0AC
:10186000E4003C1963689847C3E7204B1D68002DCE
:10187000BFDD7423234E1F4AF15C013BF05C663BE5
:1018800000240F279C46AD180FE03C000440A14601
:101890001D4CB144A0464C46444423700124013100
:1018A000C9B201320130AA4215D013780A2BF8D000
:1018B0000D2BF6D0042BE8D1134C3B00A046644618
:1018C0000340F3184344013101321C70C9B20124B2
:1018D0000130AA42E9D1002C00D18AE77423F154E7
:1018E00087E75346196084E78C2C0120F4320120ED
:1018F000902D012048540220942D0120D067022011
:10190000940F012038520120B0200000F0B50E4B9A
:101910000E4D19682B68C6465C1A631C98460C4F1E
:101920000C4E00B51A008919380009F0F7FD42463F
:101930003900300009F0F2FD0122074B2C601A60DB
:1019400004BC9046F0BDC046D03201208032012058
:10195000887B0220409D0220E8320120F0B5C64677
:1019600001221C4B00B5532100201A600025FFF70F
:1019700025FB194C194E03E001350C34282D11D0EC
:101980002378032BF8D1310060680EF035F9002878
:10199000F2D10122124B1D60124B1A60124A1368D9
:1019A00001331360114D124B124F19682B68124E00
:1019B0005C1A631C98461A008919380009F0AEFDBC
:1019C00042463900300009F0A9FD2C6004BC904665
:1019D000F0BDC046C0330120EC0F0120304B011098
:1019E0002034012024340120F833012080320120EA
:1019F000D0320120887B0220409D0220F8B5CE46DF
:101A000047461A4C80B52368002B1AD0184B194E44
:101A100019683368184F5D1A6B1C9946174B4A4674
:101A200098461800C91909F079FD4A464146380020
:101A300009F074FD0023356023600CBC9046994684
:101A4000F8BD0B4B0B4D19682B680C4F5C1A631CCF
:101A50009846094E1A008919380009F05FFD424680
:101A60003900300009F05AFD2C60E6E7E832012029
:101A7000D032012080320120409D0220887B02204C
:101A8000F0B5CE46474680B56421022085B0FFF709
:101A900095FA494C4949200001F052FF002804D131
:101AA00005B00CBC90469946F0BD454B454E1968B3
:101AB0003368454F5D1A6B1C98461A0038000919A7
:101AC00009F02CFD39004246200009F027FD3F4F68
:101AD00035603B6899461D2BE2DC002B67DD3C4BF3
:101AE0002B2598461C004B465D433A4E4544310039
:101AF00020000EF081F80028D2D02B34A542F6D178
:101B00002B244D4643466543310058190EF0B8F872
:101B10002800314914304D694B680A6803950D69F6
:101B200040440295CD680195896800912B4908F0E1
:101B3000DDF82B4B310018680EF05EF8002803D05A
:101B40003B6801333B60ABE73B68264E5C432200B9
:101B5000143230002449424408F0C8F83478002C8C
:101B6000EED03000002120220D26204B02255D5FA3
:101B70001F4B00290FD1A54214D099690A42FCD10C
:101B80001C60017801300D394C4261410478C9B2C2
:101B9000002CEED1D4E799690A42F1D099690A4242
:101BA000F9D1EDE799690A42FCD11E60E5E7084BDF
:101BB000084E9846A4E7C046409D0220384B0110CD
:101BC000D032012080320120887B0220982D012014
:101BD000B097022010A70220E4A50220984B011024
:101BE000900F01201CA50220804B0110E8A90220C3
:101BF00000800340F0B5C6466321012000B5FFF721
:101C0000DDF90F4C0F49200001F09AFE002802D1A7
:101C100004BC9046F0BD0C4B0C4E196833680C4F59
:101C20005D1A6B1C98461A000919380009F076FCF9
:101C300042463900200009F071FC3560E8E7C046F3
:101C4000409D0220AC4B0110D03201208032012097
:101C5000887B0220F0B5C6466321012000B5FFF75E
:101C6000ADF90F4C0F49200001F06AFE002802D1A7
:101C700004BC9046F0BD0C4B0C4E196833680C4FF9
:101C80005D1A6B1C98461A000919380009F046FCC9
:101C900042463900200009F041FC3560E8E7C046C3
:101CA000409D0220B84B0110D0320120803201202B
:101CB000887B0220F0B5C64604007221012000B5E1
:101CC000FFF77CF91D482401041961681C4C2000B1
:101CD00001F036FE002802D104BC9046F0BD194E3A
:101CE000194B1A4F1968336838005D1A6B1C9846F7
:101CF0001A00091909F012FC20004246390009F0C7
:101D00000DFC3560124C0025124E03E001350C34F9
:101D1000282DE1D02378032BF8D1310060680DF035
:101D20006BFF0028F2D101220B4B1D600B4B1A6098
:101D30000B4A136801331360CEE7C046C454011048
:101D4000409D022080320120D0320120887B022079
:101D5000EC0F0120C84B0110203401202434012055
:101D6000F8330120F0B5C64604006921012000B512
:101D7000FFF724F910482401041961680F4C200072
:101D800001F0DEFD002802D104BC9046F0BD0C4BF2
:101D90000C4E196833680C4F5D1A6B1C98461A007C
:101DA0000919380009F0BAFB42463900200009F051
:101DB000B5FB3560E8E7C046C4540110409D0220E1
:101DC000D032012080320120887B0220F0B5C64647
:101DD00004006E21012000B5FFF7F0F8124824013D
:101DE00004196168114C200001F0AAFD002802D1FD
:101DF00004BC9046F0BD0E4B0E4E196833680E4F72
:101E00005D1A6B1C98461A000919380009F086FB08
:101E100042463900200009F081FB084B35601A6802
:101E2000074B1A60E4E7C046C4540110409D0220ED
:101E3000D032012080320120887B0220E4A50220DC
:101E4000DC2D0120F0B5C64604004321012000B579
:101E5000FFF7B4F81D482401041961681C4C2000E8
:101E600001F06EFD002802D104BC9046F0BD194E71
:101E7000194B1A4F1968336838005D1A6B1C984665
:101E80001A00091909F04AFB20004246390009F0FE
:101E900045FB3560124C0025124E03E001350C3431
:101EA000282DE1D02378032BF8D1310060680DF0A4
:101EB000A3FE0028F2D101220B4B1D600B4B1A60D0
:101EC0000B4A136801331360CEE7C046C4540110B7
:101ED000409D022080320120D0320120887B0220E8
:101EE000EC0F0120D04B01102034012024340120BC
:101EF000F833012010B500211F4805F0BBFB02217B
:101F0000082004F069FC0221092004F065FCE121AD
:101F10001A4C4902200005F0EBFFC022236B12028D
:101F20001340174A152013601023E26A1549134025
:101F3000154A136004F09CFD0121152004F054FDA6
:101F40005023A363626B183B1340104A1048136080
:101F500009F040FC09F014FD0220FEF76BFA642042
:101F600005F0A0FB0220FEF709FA0023094A1370CE
:101F7000094A136010BDC04640420F000080034074
:101F8000309003406D1500102C90034034900340B6
:101F9000D84B0110409D022080320120F0B55746F9
:101FA0004E464546DE460023E0B5394F87B003ADC7
:101FB0002B703B18DB7982460222364E7F2B5BD892
:101FC0003000354909F0AAFA5346013398460424F3
:101FD000324A334B91469B46B844042C11D04346B9
:101FE00049461A5D280007F081FE30000DF050FED2
:101FF000290030180DF0B4FD631C24D0013C042CE2
:10200000EDD153460533FA5C594612092800019375
:1020100007F06CFE30000DF03BFE290030180DF08B
:102020009FFD02221F4909F079FA0F22019B5946B0
:10203000FB5C28001A4007F059FE290030000DF023
:10204000B3FD013CDBE70322174909F067FA0622DA
:102050005744BA56002A14DB4946280007F046FECA
:10206000290030000DF0A0FD300007B03CBC9046C8
:102070009946A246AB46F0BD30000C4909F04EFA35
:10208000A2E728000A49524207F030FEE8E7C046BE
:1020900038520120BC6B0220184B0110504801102F
:1020A000F84B011064480110004C0110F44B011072
:1020B000044C01100023F0B50024324E324D334F52
:1020C00091B033702200390006A807F00FFE06A970
:1020D00030000DF069FD2800FFF760FF01340100BA
:1020E00030000DF061FD08350A2CEBD1284B294C4E
:1020F0001A68294B1968294B0493294B1800163884
:102100000290180003932C38423B0190009320006A
:10211000330007F0EBFD20000DF0BAFD214A224EFE
:102120001060224A030012683000214907F0DEFDEA
:102130003478002C18D01F4B300002255D5F202121
:1021400000230D261C4A002B10D1A54215D09369FF
:102150001942FCD11460037801300D3B5C426341AD
:102160000478DBB2002CEED111B0F0BD93691942B6
:10217000F0D093691942F9D1ECE793691942FCD187
:102180001660E4E700600220FF2000000C4C011004
:10219000F42D0120E46B0220D40F0120409D022089
:1021A0001A520120603301201CA50220DC2D0120E1
:1021B000184C0110E8A9022000800340F8B55746EA
:1021C0004E464546DE463A4BE0B59C461860394BD4
:1021D00004001960384B0F009A46002352461360E2
:1021E000364B994601234A461360354B1860354BF0
:1021F00098461E68002846DD320000210023324D3B
:10220000324807E0E95C013CC154013A0121013345
:10221000002C1CD0002AF5DC002932D05246E918E7
:102220001360F61A63461C60294C771C3A002000A4
:1022300009F074F93A002100280009F06FF94346CB
:102240001E603CBC90469946A246AB46F8BD51463E
:102250000B6041460A606246F61A1460721C924690
:102260001B4CE918200009F059F9524621002800BA
:1022700009F054F943461E6000234A461360B847EC
:10228000DFE72900D0E7731C9B46114B0E4D9A46A1
:1022900018005A46290009F041F95A4651462800CB
:1022A00009F03CF943461E60002CE5D0C9E7C04662
:1022B0009C2D01203C9D0220847B0220B02D01201A
:1022C000F432012080320120409D02204854022037
:1022D000887B0220F0B5C6465021022000B5FEF7EB
:1022E0006DFE114C1149200001F02AFB002802D19B
:1022F00004BC9046F0BD0E4E0E4B0F4F196833686C
:1023000038005D1A6B1C98461A00091909F006F985
:1023100039004246200009F001F9084B0849586885
:102320003560FFF74BFFE3E7409D0220DC4A0110D8
:1023300080320120D0320120887B0220E4A50220D7
:10234000E9150010F0B5C6465021022000B5FEF791
:1023500035FE114C1149200001F0F2FA002802D19B
:1023600004BC9046F0BD0E4E0E4B0F4F19683368FB
:1023700038005D1A6B1C98461A00091909F0CEF84E
:1023800039004246200009F0C9F8084B084918688E
:102390003560FFF713FFE3E7409D02202C4C01104E
:1023A00080320120D0320120887B0220E4A5022067
:1023B000D917001070B51B480DF06AFC1A4C1B4B66
:1023C000020018601A49200007F090FC2278002AC9
:1023D00018D0184B200002255D5F202400230D2615
:1023E0001549002B17D1954210D08B691C42FCD1A6
:1023F0000A60037801300D3B5A4253410278DBB248
:10240000002AEED101220D4B1A6070BD8B691C426F
:10241000FCD10E60E9E78B691C42E9D08B691C4254
:10242000F9D1E5E7E46B02201CA50220603301200E
:102430003C4C0110E8A9022000800340B433012085
:1024400010B51C220349044809F068F8FFF7B2FFF1
:1024500010BDC046504C0110E46B022010B5064B75
:1024600006495A681B680648CA54064907F03EFCEC
:10247000FFF7A0FF10BDC046E4A50220385201209E
:10248000E46B02206C4C01104C4AF0B513684546D1
:1024900059424B4101215B428B431800484BDE46B9
:1024A000984657464E46546800234246E0B597B0DA
:1024B000137003AF02AA1375A3303B001022210052
:1024C000019001F06FFC80239C46A4446346009376
:1024D000002399463B4B9B460F239A4610E0403918
:1024E00002AB5B181A700023013102AA521807A828
:1024F0000CA913700DF058FB009B0134A34229D0A6
:10250000554653462540234242D001239C464E4621
:10251000E144BA5D59460CA807F0E8FB40460DF0CF
:10252000B7FB0CA940440DF01BFB6821BA5D264B9C
:1025300005009B5C8B43D2D107A80DF0A9FB07AB2C
:102540009C4602222149604408F0E8FF009B0134C8
:10255000A342D5D1022228001D4908F0DFFF07A9B8
:10256000A81C0DF0FDFA03221A49040008F0D6FF5A
:102570004346E21A41460332174808F0CFFFFFF7FF
:1025800019FF17B03CBC90469946A246AB46F0BD39
:10259000230007AA11490CA807F0A8FB0CA9404684
:1025A0000DF002FB02AB1D7510223B0021000198CB
:1025B00001F0F8FB012300269946AAE7E4A50220D2
:1025C00000600220144B0110B56501106448011031
:1025D00078570110FC4E0110E46B0220804C011072
:1025E00000B50A4B0A4985B0029119002C310191BE
:1025F00019001A001631163A00910648064907F0EC
:1026000075FBFFF7D7FE05B000BDC046EE510120B7
:10261000409D0220E46B02208C4C011010B50C4C44
:1026200082B0A268206801AB1A7042425041012278
:10263000404290436168A33001F0D4FB2368626894
:102640000449054807F052FBFFF7B4FE02B010BD85
:10265000E4A502206C4C0110E46B0220F8B5CE46D4
:10266000474680B56D4A1378002B04D16C4B6D4AF8
:102670001B789B009A586C4C6C49200007F036FB85
:102680006B4E210030000DF06BFA05000422694901
:10269000200008F043FF04222100280008F03EFF3C
:1026A000654F3B68002B17DD644B00259946644B52
:1026B00098464B461B68581980B2FEF777FD414695
:1026C0000200200007F012FB210030000DF06CFA30
:1026D0003B680135AB42ECDC5A4D5B492A8820004F
:1026E00007F004FB210030000DF05EFAAA8857497C
:1026F000200007F0FBFA210030000DF055FAAA790E
:102700005349200007F0F2FA210030000DF04CFA96
:10271000EA795049200007F0E9FA210030000DF075
:1027200043FAEB79AA794C49200007F0DFFA21003F
:1027300030000DF039FA6A884849200007F0D6FACF
:10274000210030000DF030FA4549464B08682A7ADE
:102750001860888898808979997143490878FF289A
:1027600035D0104241D18878FF2830D010423FD177
:102770000879FF282BD010423DD18879FF2826D038
:1027800010423BD1087AFF2821D0104201D0487A6C
:102790001871887AFF281AD0104201D0C87A58716F
:1027A000087BFF2813D010422BD1887BFF280ED046
:1027B000104229D1087CFF2809D01D00104226D0E4
:1027C000487C0135E871887C0231FF28F6D1200071
:1027D000264907F08BFA210030000DF0E5F9FFF7EC
:1027E000E9FD0CBC90469946F8BD48781870BAE7E8
:1027F000C8785870BCE748799870BEE7C879D87037
:10280000C0E7487B9871D0E7C87BD871D2E7887C55
:1028100001350231FF28D1D1D9E7C046FC32012071
:10282000395302206C0B002000600220A84C0110DC
:10283000E46B0220AC4C01103C53022044540220B3
:10284000B04C0110BC510120B84C0110C44C011017
:10285000D04C0110DC4C0110E84C0110F84C011078
:10286000184D0110E00F0120200B0020044D011035
:1028700070B51A480DF00CFA194C1A4B020018608A
:102880001949200007F032FA2278002A18D0174B95
:10289000200002255D5F202400230D261449002B13
:1028A00014D195420DD08B691C42FCD10A6003788B
:1028B00001300D3B5A4253410278DBB2002AEED17F
:1028C00070BD8B691C42FCD10E60ECE78B691C4229
:1028D000ECD08B691C42F9D1E8E7C046E46B0220DA
:1028E0001CA50220603301201C4B0110E8A9022026
:1028F0000080034000B5094A094909CA094A83B062
:102900001354094A09681268019000930748084B5C
:1029100007F0ECF9FFF7ACFF03B000BDE4A502201F
:10292000DC0F012038520120F42D0120E46B02203D
:10293000204D0110F0B54E46DE4657464546E0B5FF
:1029400093B000236A46384E13733370374B00241C
:102950009846374B9B46374B9A46374B99460FE084
:102960006B4648395B181A706A46002301315218C9
:1029700003A808A9013413700DF016F9802C26D095
:102980000F231D00254023423FD0434659461A5D80
:1029900008A81F1907F0AAF930000DF079F908A965
:1029A00030180DF0DDF868213A78244B05009B5C67
:1029B0008B43D5D103A80DF06BF903AB9C460222E3
:1029C0001F496044013408F0A9FD802CD8D10222AF
:1029D00028001C4908F0A2FD03A9A81C0DF0C0F8AE
:1029E0000322194908F09AFD184B19481A68194B27
:1029F0001968330007F07AF9FFF73AFF13B03CBCCF
:102A000090469946A246AB46F0BD5346494603AAB6
:102A1000009408A807F06AF9300008A90DF0C4F87E
:102A20006B461D73B1E7C04600600220385201209A
:102A3000144B0110284D0110304D0110B5650110E7
:102A40006448011078570110FC4E0110F42D01204C
:102A5000E46B0220D80F012010B50F4C84B0A2689F
:102A6000206803AB1A704242504101224042904319
:102A70006168A33001F0B6F9084B09481A68094BA0
:102A8000196863680193A3680093074B07F02EF958
:102A9000FFF7EEFE04B010BDE4A50220F42D0120E6
:102AA000E46B0220DC0F01203C4D0110F0B55746CD
:102AB000DE464E4645460023E0B5354F95B002AAA6
:102AC0003B70137380339B46324B04009946324B64
:102AD00003919A460F23834498460FE0483902AB8E
:102AE0005B181A700023013102AA521805A80AA91E
:102AF000013413700DF058F85C4526D04546434626
:102B00002540234235D04B4651461A5D0AA81D196F
:102B100007F0ECF838000DF0BBF80AA938180DF0F2
:102B20001FF868212A781D4B06009B5C8B43D5D18A
:102B300005A80DF0ADF805AB9C460222184960448B
:102B4000013408F0EBFC5C45D8D102223000154975
:102B500008F0E4FC05A9B01C0DF002F803221249AC
:102B600008F0DCFC15B03CBC90469946A246AB464A
:102B7000F0BD039B0D4905AA00940AA807F0B6F81A
:102B800038000AA90DF010F802AB1D73BBE7C04670
:102B90000060022038520120144B0110B56501106D
:102BA0006448011078570110FC4E0110304D01109F
:102BB000084B10B518680849FFF778FF074B08481D
:102BC0001A68084B1968084B07F090F8FFF750FE99
:102BD00010BDC046E4A50220284D0110F42D0120AF
:102BE000E46B0220D80F01200060022010B5064BD4
:102BF00006491868FFF75AFF0549064807F076F8B6
:102C0000FFF7D8FB10BDC046E4A50220FC4E011022
:102C100000600220E46B022010B52E4B0200196800
:102C20002D480160998881809B7983712B4B19789D
:102C3000FF2935D00A4234D19978FF2930D00A4291
:102C400032D11979FF292BD00A4230D19979FF2945
:102C500026D00A422ED1197AFF2921D00A4201D06A
:102C6000597A0171997AFF291AD00A4201D0D97A8A
:102C70004171197BFF2913D00A421ED1997BFF298C
:102C80000ED00A421CD1197CFF2909D004000A4247
:102C900019D0597C0134E171997C0233FF29F6D1B6
:102CA00010BD59780170C7E7D9784170C9E75979E3
:102CB0008170CBE7D979C170CDE7597B8171DDE7B0
:102CC000D97BC171DFE7997C01340233FF29DED162
:102CD000E6E7C046184D0110E00F0120200B002050
:102CE000F0B5DE4657464E4645460023E0B587B070
:102CF000C64C0593C64B20681B6883420BD011223B
:102D0000C44B9A56597C002A05DBC34A157A102217
:102D10002A4200D1FAE0C14B9A461B68012B00D130
:102D2000CDE0BF4B0A211A6801321A60186807F01B
:102D30006FF800290CD1BB4C2368002B00D098E021
:102D400020210320FEF73AF923685A4253412360B9
:102D5000B54DB64E2A6833689A421BD0B44BB54F76
:102D60009946B54B9846202304AA13802B68B34993
:102D70005A1C2A60FC5C04ABE4B228681C7007F0A3
:102D800047F82960142C79D0002C63D12A68336865
:102D90009A42E8D1AA4B1C68002C00D0C8E0A44B92
:102DA000A84A99461B78D35C1B071FD5A24B4F46F8
:102DB0009A461D68A44B984601234B449B465346B4
:102DC000A2461C002A005946404608F0A7FB2A00EC
:102DD0004146380008F0A2FB9A4A3B786E1ED35C4D
:102DE0000822350026601A42ECD15446974D0DE07A
:102DF000022B07D12000AB689847002802D02000A2
:102E0000EB68984701341035262C0CD02B78012B19
:102E1000EED14846696800F093FD0028EFD10134F7
:102E20001035262CF2D18A4B1A68002A40D0894EE0
:102E30003268002A00D0D9E0874C884D20684200D3
:102E400011188900695C062900D9BAE0844F89000D
:102E500079588F46484604A90CF0A6FE43464246E0
:102E60001B68013313602A6833689A4200D07AE7FE
:102E700090E703205731FEF7A1F865E753461B683A
:102E80000321581C06F0C4FF5346764D0C00196010
:102E90000C222800744908F041FB012C00D193E07A
:102EA000022C00D19CE0002C00D193E0FFF782FAC5
:102EB00007B03CBC90469946A246AB46F0BD6B4B72
:102EC0001C68002C00D02CE7694B1E68694B196800
:102ED00099468E4200D124E7674B7F279846614D83
:102EE0002C70013D4346481C5B5CFA2101343B4099
:102EF0002B55890006F08CFF8E42F3D14B461E60A5
:102F0000002301352B55FFF755FA0AE70A4200D195
:102F100001E7FA21594A8900125C01309A7406F0DF
:102F200077FF2160FEF73CF85548FEF7C9FAF2E654
:102F3000544B99461B68002B2DDD3F4A3C4E1468CC
:102F40000293E31A0193731C92469B463E4F0394EF
:102F5000002CADDD3378220059463800984608F041
:102F6000DDFA22003900300008F0D8FA5346464A0C
:102F7000651E1D601368591C11604146434AD154B7
:102F8000029B039A013B9B1A4A461B191360019A44
:102F90002C00AA42DCD1002B00D089E7284A13601C
:102FA0003B4B1B68984783E713189B00EB189B6803
:102FB0009847206843001B189B00EB5C042B00D152
:102FC00076E70130206073E710222800314908F0CD
:102FD000A5FA6BE7092228002F4908F09FFA65E758
:102FE0000E2228002D4908F099FA5FE704F048FC0A
:102FF0002B4A53688B4200D95AE703D113688342A6
:1030000000D955E70023336052E7C046942D0120D4
:10301000902D012038520120BC5101208C2C012020
:10302000F42D0120E80F0120983201209432012074
:10303000409D022058830220803201208813000026
:10304000B02D0120B5650110887B0220C454011009
:10305000243401201C34012020340120EC0F0120F5
:10306000804D0110E46B0220444D0110B433012067
:10307000A42D0120A82D0120185C0220D067022079
:10308000F0FF00009C2D0120847B02204854022088
:103090003C9D02205C4D0110504D01106C4D011003
:1030A00088280120414D2F78002F8AD0404B0D21D8
:1030B00002269E5F002398468C46202241463D4BC7
:1030C00000290FD1BE4214D099690A42FCD11F6079
:1030D000297801350D394F4279412F78C9B2002F37
:1030E000EED16EE799690A42F1D099690A42F9D1A5
:1030F000EDE799690A42FCD161461960E4E70022D4
:103100001A60D5E62C4B984613189B00EB1805AABD
:10311000414658680CF084FC0123336004F0B0FB96
:10312000059A53019B1A9B009B18DB001E00DF17BA
:1031300080197941214B186059604146204806F0BA
:10314000D5FD36E713181F4F9B00EB183800596860
:1031500006F0CCFD3E78002E00D12AE7144B380053
:1031600002229B5E002120220D279C46114B002944
:103170000FD1B44514D099690A42FCD11E60017880
:1031800001300D394E4271410678C9B2002EEED1A0
:103190000FE799690A42F1D099690A42F9D1EDE73E
:1031A00099690A42FCD11F60E5E7C046E46B022042
:1031B000E8A90220008003407C4D011088280120EE
:1031C000249D02201CA50220F0B5C64600B5954DF1
:1031D00082B02B68002B1CD1934C2368002B00D0AD
:1031E0007CE0924C2368002B00D090E0904C236848
:1031F000002B00D0A2E08F4C2368002B00D0B4E05D
:103200008D4D2B68002B00D0E9E002B004BC904645
:10321000F0BD002398466B46424601AC1A7001216E
:103220006A46DE2000F024FB802622000121DF20F8
:1032300000F066FA42462378764233432270022138
:103240002200DE200D27637000F012FB6B466A46F9
:103250000121DE201F7000F00BFB22000121DF2086
:1032600000F04EFA2378220033430221DE206370FF
:10327000277000F0FDFA6B466A460121DE201F70C0
:1032800000F0F6FA22000121DF2000F039FA23785D
:1032900022001E430221DE2066702770072600F000
:1032A000E7FA6B466A460121DE201E7000F0E0FA64
:1032B00022000121DF2000F023FA7F23227802215F
:1032C0001340DE2022006370267000F0D1FA4346DE
:1032D000554C2B602368002B00D182E76B460025FC
:1032E0006A460121DE2001AE1D7000F0C1FA3200F5
:1032F0000121DF2000F004FA7F233278256013409B
:103300004A4C4E4A13602368002B00D16EE701231C
:103310006A460121DE2001AD137000F0A9FA2A00EF
:103320000121DF2000F0ECF9454B2A781A600023D8
:1033300023603F4C2368002B00D15CE702236A46E0
:103340000121DE2001AD137000F092FA2A00012164
:10335000DF2000F0D5F93B4B2A781A600023236068
:10336000344C2368002B00D14AE76B4600266A469E
:103370000121DE201E7000F07BFA012101AADF206E
:1033800000F0BEF96B461A797F232F4D13402F4A68
:103390000121AB5401236A46DE20137000F068FA65
:1033A000012101AADF2000F0ABF96B461A79284B06
:1033B0000121EA5402236A46DE20137000F058FA15
:1033C00001AA0121DF2000F09BF96B461A79214BFD
:1033D0002660EA54184D2B68002B00D115E7002712
:1033E000194E1A4B01ACF35C22000221DE206370FF
:1033F000277000F03DFA0122154B0221F35CDE201C
:1034000022702200637000F033FA0222114B022175
:10341000F35CDE2022702200637000F029FA2F6036
:10342000F3E6C046A833012088330120843301200D
:1034300080330120AC330120A4330120A0330120CC
:103440009C3301209833012038520120CA2000000B
:10345000C9200000C8200000014B18607047C0461A
:10346000041201200123154A84B01268934001928E
:10347000D02212065362936100230393039B042B13
:1034800005DC039B01330393039B042BF9DD01232C
:103490000B4A126893400192D02212065362936144
:1034A00000230293029B042B05DC029B0133029351
:1034B000029B042BF9DD04B07047C0464048011060
:1034C0003C48011001221B4B86B01B689A400193B7
:1034D000D0231B065A629A6100230593059B042B97
:1034E00005DC059B01330593059B042BF9DD0123C6
:1034F000114909688B400191D02109068B62002394
:103500000493049B042B05DC049B01330493049B6C
:10351000042BF9DDD0231B069A6200230393039B3F
:10352000042B05DC039B01330393039B042BF9DD80
:1035300006B07047404801103C480110012170B5A9
:103540000C00324BD0221B6808259C40304B0026D3
:103550001B6888B099400193120643B2002B51DBDF
:10356000546294610596059B042B05DC059B013391
:103570000593059B042BF9DD91620496049B042BB3
:1035800005DC049B01330493049B042BF9DD516299
:1035900091610396039B042B05DC039B013303938A
:1035A000039B042BF9DD4000013DC0B2002DD4D1B6
:1035B000D0231B069C6299620695069B042B05DCB2
:1035C000069B01330693069B042BF9DDD020642370
:1035D000000602E0013B002B16D042682242F9D1DE
:1035E0000120D0231B065962996100230793079B92
:1035F000042B05DC079B01330793079B042BF9DDA4
:1036000008B070BD9462ADE70020EAE740480110C1
:103610003C480110F0B50125374B474688461968EC
:103620002B00D0228B40CE46120680B5994693627D
:10363000324B84461B6808279D4000240026012049
:1036400089B001930596059B042B05DC059B01338E
:103650000593059B042BF9DD95620496049B042BCE
:1036600005DC049B01330493049B042BF9DD5368B0
:103670006400CB4055620340956103961C19039B7F
:10368000042B05DC039B01330393039B042BF9DD1F
:10369000013F002FD6D14346002B28D0D0234A46E5
:1036A0001B065A629A61D0231B069D620023079372
:1036B000079B042B05DC079B01330793079B042B17
:1036C000F9DDD0231B065D629D6100230693069BF6
:1036D000042B05DC069B01330693069B042BF9DDC6
:1036E00063461C7009B00CBC90469946F0BDD023CF
:1036F0004A461B069A62D6E7404801103C48011032
:10370000F0B546464F46D6460123C0B51700564A87
:103710008AB012680E0093409846D0230192424628
:103720001B065A629A6100230293029B042B05DC5C
:10373000029B01330293029B042BF9DD01234B4AC8
:10374000126893409946D02301924A461B065A625A
:103750009A6100230393039B042B05DC039B013335
:103760000393039B042BF9DDFFF7E8FE002846D006
:10377000002E0FDD731E9A46002406AD5346191B1A
:103780004B1E99412800FFF745FF2B783B5501342C
:10379000A642F3D1D02342461B065A629A61002307
:1037A0000793079B042B05DC079B01330793079BBB
:1037B000042BF9DDD0234A461B069A6200230893A6
:1037C000089B042B05DC089B01330893089B042B02
:1037D000F9DDD02342461B069A6200230993099B18
:1037E000042B05DC099B01330993099B042BF9DDAC
:1037F00001200AB01CBC90469946A246F0BDD023D9
:1038000042461B065A629A610490049B042B05DC15
:10381000049B01330493049B042BF9DDD0234A4617
:103820001B069A6200230593059B042B05DC059B70
:1038300001330593059B042BF9DDD02342461B067B
:103840009A6200230693069B042BD2DC069B01336D
:103850000693069B042BCCDC069B01330693069B48
:10386000042BF3DDC5E7C046404801103C48011079
:10387000F0B50125304B89B01B680F009D400193C6
:10388000D0231B065D629D6100230393039B1400FC
:10389000042B05DC039B01330393039B042BF9DD0D
:1038A0000126264B1B689E400193D0231B065E62B7
:1038B0009E6100230493049B042B05DC049B0133CD
:1038C0000493049B042BF9DDFFF738FE002F06DD7F
:1038D000E71920780134FFF731FEA742F9D1D02350
:1038E0001B065D629D6100230593059B042B05DC8F
:1038F000059B01330593059B042BF9DDD0231B06A3
:103900009E6200230693069B042B05DC069B013375
:103910000693069B042BF9DDD0231B069D62002332
:103920000793079B042B05DC079B01330793079B39
:10393000042BF9DD09B0F0BD404801103C480110EE
:10394000F0B54546DE4657464E460024E0B50D002C
:10395000BF4B93B01C60BF4B01911C60BE4B070076
:103960003C220021BD4898461C6007F0D1FDBC4BAD
:103970001C701C752B78002B5ED000220292B94A75
:103980000024002693463900009709783200002968
:1039900018D0202B21D0252B32D00136013499426A
:1039A00013D1434642461B6801331360019B0294C6
:1039B0001B5D002B40D0BA1911000978009232002B
:1039C0000029E6D1202B00D1B7E1002013B03CBC88
:1039D00090469946A246AB46F0BDA34B01345B5CD2
:1039E0001B07E3D54346082118684546013683196D
:1039F0009B1A2B60BB5D9C4DEB5C1942F5D1D5E762
:103A0000019B621C994618009B5C9144002B00D1DD
:103A1000B0E15B2B7DD011D8252B72D10136252941
:103A2000D3D1434642461B68023401331360019BE5
:103A300002941B5D002BBED10120C7E7642B01D08F
:103A4000782B5ED101220020874D00921FE0782B59
:103A5000BBD14421BB5DEA5C114200D175E120225B
:103A600006A98A800B7110220301002107A89A463B
:103A70000CF002FB5044434642461B6801360133BA
:103A80001360BB5D002B00D136E14B461B78642BE5
:103A9000DDD1754ABB5DD15C04220A4222D12D2BB7
:103AA00000D121E1002E00D18FE7BB19013B1B782B
:103AB0006D49C95C0A4202D12D2B00D085E7644BC9
:103AC00063491B685A1C0A6000999B004143080027
:103AD0006249C8500E2A00DD43E10234019B029482
:103AE0001B5D66E7202206A98A800B712D2B0CD066
:103AF00083001818430007A89A460AF007FF5044AD
:103B0000B9E71400009902923FE701235B4200935A
:103B1000B1E7504B00221B6851499A469B00029323
:103B200053449B00CA54019B1B199A78002A00D168
:103B30004BE70198023406A900230731001908E079
:103B4000262B00D141E70133CA54C25C002A00D1C0
:103B50003BE7E5185D2AF3D10595262B00D134E724
:103B6000002208ACE254E3185A705B4620001A6049
:103B70000CF08EF8002822D000230125039604972C
:103B800014E05E1CA15D2D2972D05B46374F1B6887
:103B9000B9465900C9188900CD5549444A608A6020
:103BA0005A46013313603300834206D2E25C5E2A38
:103BB000E7D1013302258342F8D3039E049F009B83
:103BC0001A78002A3AD02649029B894653449B0022
:103BD00099445B461D683B0007AC57469A4619E07E
:103BE00059688A4202DB99688A4220DD022F00D19F
:103BF000EBE6002321004846637022700BF0D4FFEF
:103C0000434642461B6801360133136053469A5DB2
:103C1000002A11D0002D0EDD0020144B1978012947
:103C2000DED159688A4202DB99688A42DEDD0130C2
:103C30000C33A842F2D15346BA461F005346054AF8
:103C4000059C013313600134019B02941B5DB0E6B7
:103C5000CC320120D4320120D0320120E4A5022050
:103C600010A70220D8320120B565011020A602203D
:103C70009E1CA75DB946002F25D15F465B463F6875
:103C80001B68B9465B0099444B469B009946EAB2D3
:103C900013004F463B4ABB544A44516091605A4618
:103CA0001268384F0132914652004A44B946920098
:103CB000D3555B464A44516091605A461B680233B3
:103CC0001360330070E759462E4F0968BC464E001A
:103CD0007618B600F555664472604A46B2605A4698
:103CE0000131116003335FE7202107AA11801370AF
:103CF00001235B420093BEE6019A029B9446634413
:103D00009B78002B00D060E61F4B1F491B685A1C94
:103D10000A6000999B00414308001C49C8500120DB
:103D20000E2A00DC52E61A4B1A490020196061463F
:103D3000194B1960194B1A6048E6029A019B944688
:103D4000634458784342584140E6002E00D13CE697
:103D50004422BB19013B1B78EB5C1A4200D0AEE653
:103D600033E60B4B0B4919600B4B019919600B4B58
:103D70001A602AE6064B0A4A1A60074B18600020B0
:103D800024E6C04620A60220CC320120E4A5022071
:103D900008120120245701100C120120C832012002
:103DA00030570110F0B5040083B00D481F00160015
:103DB0000D0007F065FE0F20FFF74EFBFE2001AA65
:103DC0006DBA158020400221FFF752FD01202043EB
:103DD0003A003100C0B2FFF793FC03B0F0BDC0461B
:103DE0004C570110F8B5070012480E0015001C00D2
:103DF00007F046FE0F20FFF72FFBFFF733FBFE20F7
:103E00003840FFF79BFB3012C0B2FFF797FBF0B2D0
:103E1000FFF794FB002D06DD651920780134FFF7CC
:103E20008DFBAC42F9D1FFF74DFB042003F03AFCC7
:103E3000F8BDC0464C570110F8B53B4B4E4699466D
:103E40008422574645460023DE464946FF32E0B508
:103E50008B54013A8B54354B4C469A4680235B0277
:103E6000CB4600250027984680345B461A780133FC
:103E7000BF18BFB2A342F9D180222900504607F0F3
:103E8000FFFD0F20FFF7E8FAFFF7ECFAA020FFF79D
:103E900055FB2812C0B2FFF751FBE8B2FFF74EFB0B
:103EA0005E4630780136FFF749FBA642F9D1FFF7AD
:103EB00009FB042003F0F6FB802334009C46803588
:103EC000E34480344545D0D1194BC1241F8084255B
:103ED0004B463A0A640021001A55FF35022250462B
:103EE0005F5507F0CDFD0F20FFF7B6FAFFF7BAFADE
:103EF000A020FFF723FB0120FFF720FB8220FFF724
:103F00001DFB4B46185DFFF719FB4B46585DFFF74D
:103F100015FBFFF7D7FA042003F0C4FB3CBC904626
:103F20009946A246AB46F8BD385201204C570110C5
:103F3000283401208022F0B5274C944623005746B0
:103F40004E464546DE466344E0B599461E000023D2
:103F50009846224B00259B4680235B029A4683B0FD
:103F600001AF80224146584607F08AFD0F20FFF737
:103F700073FA43463A000221A0205BBA3B80FFF768
:103F800077FC22008021A120FFF7BAFB23780134BF
:103F9000ED18ADB2A642F9D180239C46E0444C46D0
:103FA0008036D04501D0E144DBE7C1230A4A5B00FB
:103FB000D35C84220849FF32895C1A025B18ED1A2F
:103FC0000748084B8A1802801D8003B03CBC90460D
:103FD0009946A246AB46F0BD385201204C5701101D
:103FE0002C3401202A34012000230121034A1360CC
:103FF000034B19601368002BFCD07047702E012012
:10400000682E012010B51C4C2368002B04D11B4CDA
:104010002368002B19D110BD01210120184AFCF79B
:104020003DFEFCF7D5FF00232360FFF705FF0122CB
:10403000144B01211A600320134AFCF72FFEFCF7F2
:10404000C7FF0E4C2368002BE5D0012101200F4A49
:10405000FCF724FEFCF7BCFF00232360FFF76AFF98
:1040600001220B4B01211A6003200A4AFCF716FEBD
:10407000FCF7AEFFCFE7C046682E01206C2E012072
:1040800064570110702E0120705701107C570110E9
:10409000742E01208C5701107047C0460120034B3D
:1040A00003491A68126808601A60704710120120EC
:1040B000E03201200122034B1A60034B034A1A60CD
:1040C0007047C046E0320120101201205C1201202E
:1040D0000122034B1A60034B034A1A607047C04623
:1040E000E0320120101201201C1301200122034B99
:1040F0001A60034B034A1A607047C046E032012041
:10410000101201202C1201200122034B1A60034BD4
:10411000034A1A607047C046E032012010120120A5
:10412000981201200122034B1A60034B034A1A60C4
:104130007047C046E032012010120120E012012039
:104140000122014B1A607047AC3301200122014B60
:104150001A607047A433012030B589B0FCF7CAFD5E
:10416000002100200F4AFCF799FD0F4DFCF734FAAF
:1041700001F088FE431CF9D001F05AFE290002002C
:1041800004000300009003A805F0B0FD0121002009
:1041900003AAFCF771FD012CE8D1044B1C6009B0A7
:1041A00030BDC0469C570110AC570110E0320120D1
:1041B00010B5FCF757FE10BD802110B55022A3208A
:1041C000024B4901FFF70EFE10BDC04637730120B8
:1041D0008422112110B50E4BFF3299547231FF31F8
:1041E0005A5CA02001325A545B180222FFF7FAFDF4
:1041F000FCF780FD074A00210020FCF74FFDFCF78B
:10420000EBF9054803F04EFA0122044B1A6010BD89
:1042100038520120C0570110B80B0000E0320120D5
:10422000802110B55022A320024B4901FFF7BAFDAF
:1042300010BDC0463773012000B595B06B465022C3
:104240000649A120FFF7AEFD80216B4650224901AF
:10425000A220FFF7C7FD15B000BDC046FF2000003B
:10426000F0B5DE46454657464E46E0B583B0FCF70E
:10427000D9FB002500242000012229000134FCF78D
:1042800015FC792CF7D10A35282DF3D1002500240F
:104290002100012228000134FCF708FC1F2CF7D173
:1042A0000A35822DF3D1FA20C00003F0FBF9FCF7A8
:1042B000B9FB00239B468B4B9D2500930193012363
:1042C00001279A4699465B466D007F42AB46002621
:1042D000B8461D00844C310028000022FCF7E6FBA4
:1042E000414650460022FCF7E1FB49465046002279
:1042F000FCF7DCFB414638000022FCF7D7FB4946BF
:1043000038000022FCF7D2FB009A019B94465B44E4
:104310001800A44464216646019305F079FD6421E8
:1043200005003000009605F073FD06000100012233
:104330002800FCF7BBFB6A1C9246721E9046504652
:1043400001224146FCF7B2FB721C91465046012205
:1043500049466F1EFCF7AAFB012241463800FCF7D4
:10436000A5FB012249463800FCF7A0FB019B5F4AF0
:1043700093423BDD5B46D804C01A8000C01AC000DF
:1043800058448001C01A8000C01A594905F040FD08
:10439000009B83461A00C8231B019A4258DDE004A3
:1043A000001B8000001BC00000190001001BC000A2
:1043B00000194F49400005F02BFD4C4B04000193C0
:1043C000C8231B010093FCF707F901F05BFD431CB8
:1043D00081D001F02DFD012878D0062872D0052863
:1043E0006BD164235B429C46E34474E7009B1A0054
:1043F000C8231B019A4246DDE004001B8000001B1D
:10440000C00000190001001BC0000019384940001D
:1044100005F0FEFC019B04001A0096235B009A4203
:104420005BDA5B46D804C01A8000C01AC00058444A
:104430004001C01A800058442D49400005F0E8FCB6
:1044400096235B000193C8231B0183460093BAE7C0
:10445000264B0193009B1A0096235B009A42B2DA26
:10446000E004001B8000001BC00000190001001BBD
:10447000C00000191E49400005F0CAFC96235B00ED
:10448000040000939FE7019B1A0096235B009A4269
:10449000E0DA5B46D804C01A8000C01AC000584455
:1044A0004001C01A800058441149400005F0B0FC9A
:1044B00096235B0083460193CCE7032800D00AE7EC
:1044C000643408E764239C46E34404E703B03CBC3F
:1044D00090469946A246AB46F0BDC8231B01009307
:1044E00071E7C0468813000041020000D43000008C
:1044F0001027000010B5024B186801F0F1F910BD4B
:104500001412012010B50B4807F0BAFA3224042027
:10451000FBF734FF012003F0C5F80420FBF78AFF06
:10452000013C012003F0BEF8002CF0D1024807F056
:10453000A7FA10BDCC570110D4570110F0B5DE46D4
:1045400057464E464546E0B5BC4893B007F098FA4A
:104550000A2007F0EDF8BA4807F092FA0A2007F0AF
:10456000E7F8B84807F08CFAB74807F089FAB74877
:1045700007F086FAB64807F083FAB64CFCF752FA11
:10458000B54B0C930D94002311930023B34C0A9365
:104590000B940023B24C029303940523B14C9B4629
:1045A000B14B0E930F9400231093FCF715F85B4664
:1045B000002B00DC99E00E980F99AC4B002205F01F
:1045C000CEFE00239A4608900991504605F040FF20
:1045D0000A9E0B9F32003B0004000D0005F098FE80
:1045E000A34A04900591A34B2000290005F0B7FED3
:1045F0003B00320005F08CFE0023002499469846CB
:1046000000232500009301941C0006900791049A52
:10461000059B2000290005F07BFE069A079B0400FD
:104620000D000098019905F073FE06000F002000B0
:10463000290005F0C5FF009001913000390005F018
:10464000BFFF02000B000098019905F061FE009089
:1046500001912000290005F09DFF04000D003000AD
:10466000390005F097FF02000B002000290005F03B
:104670004FFE040048460D0005F0EAFE089A099B2B
:1046800005F0CEFE07000022781E87417A4B2000FD
:10469000290005F064FE0022784B05F060FE002240
:1046A000764B05F035FE05F0EBFE0600009801990B
:1046B0000022714B05F053FE029A039B05F04FFE5A
:1046C000029A039B05F024FE05F0DAFE3A00310061
:1046D000FCF7ECF901239C46E044D144D84596D13F
:1046E000E2445346642B00D06FE70C9A0D9B0A9866
:1046F0000B9905F00DFE0A900B9101F0C3FB431CD2
:104700000FD001F095FB012832D0062827D00528CC
:104710000ED1029803990022574B05F020FE02901B
:104720000391119B002B00D13FE7FCF77BF93CE79D
:104730004E2868D0482862D054285CD02B283ED11F
:10474000109B012B2BD0022B19D001239C46E34454
:1047500059464B4807F094F900231093E1E702987B
:10476000039902000B0005F0D3FD02900391D8E7F6
:1047700013B03CBC90469946A246AB46F0BD414AB8
:10478000414B0E980F9905F0C3FD02000B003F4806
:104790000E920F9307F074F902231093C1E7394A80
:1047A0003B4B0C980D9905F0B3FD0A9A0B9B0C90AE
:1047B0000D91384807F064F901231093B1E72D28D3
:1047C00012D1109B012B2BD0022B20D10E980F99C8
:1047D0002C4A2D4B05F093FD02000B002B480E9246
:1047E0000F9307F04DF99CE720289AD10123119AE5
:1047F0005A40119295E7284807F042F9DCE727482C
:1048000007F03EF9C8E7264807F03AF9A4E7012384
:104810005B429C46E3445946194807F031F980E76A
:104820000C980D99174A1A4B05F069FD0A9A0B9BD3
:104830000C900D91174807F023F972E7E05701102B
:1048400000580110245801106458011084580110B8
:104850009C5801109999993F9A9999990000344070
:10486000000050406666E63F6666666600407F4030
:104870009A4B2352916305400000E03F0000304016
:10488000C05801107B14AE47E17A943FD058011014
:10489000E17A743FC8580110D8580110E45801104B
:1048A000F05801107047C0467047C0467047C04678
:1048B0007047C0467047C0467047C046264BF0B5AB
:1048C00047469846C823CE465B010024994680B5EA
:1048D000224E234F234D91B06B4640222100A3204E
:1048E000FFF760FAFCF706FA6B4600211A78002001
:1048F000FCF7E6F96B4600215A1C0520FCF7CEF9BF
:1049000011236B441A0001210020FCF7C7F940462F
:1049100007F0B6F86B463800197807F0B1F86B4627
:104920003000591C07F0ACF811236B441900280023
:1049300007F0A6F8FBF750FE01F0A4FA431CF9D0EB
:1049400001F076FA012802D040344C45C4D111B0B0
:104950000CBC90469946F0BDFC580110105901104E
:10496000045901101C590110F0B599B000236A4692
:104970001370FCF7BFF9334D00212A000020FCF72B
:104980008DF96846FCF724FA00272026FBF724FE61
:1049900001F078FA431CF9D001F04AFA040001282A
:1049A0001CD00D2821D068460BF072F91D28EDD8D7
:1049B0006B4620221E849B18190068441C700BF063
:1049C0005FF9FCF797F92A0000210020FCF766F94F
:1049D0006A4600210520FCF761F9D7E76B461B7892
:1049E000002B28D1184B186023E0184807F048F82E
:1049F000002408AD02E00134642C1FD0A6012B0076
:104A000040223100A320FFF7CDF92B782A2BF2D0DA
:104A100021000F4807F034F821202A236946684412
:104A20002B700BF02DF92B0040223100A220FFF754
:104A3000D9F919B0F0BD6B461F70C2E7054807F001
:104A40001FF8F6E728590110E03201203059011013
:104A5000445901105C590110F0B5DE4657464E46E8
:104A60004546E0B5A9B000236A461370FCF742F949
:104A70008D4F00213A000020FCF710F96846FCF742
:104A8000A7F98A4B00249946894B00269A46894B00
:104A90009B46FBF7A1FD01F0F5F9431C00D1A6E010
:104AA00001F0C6F90500012851D00D2800D192E08F
:104AB000002E00D17AE07E4B1800984606F0E0FF09
:104AC000632C03DD52E00134642C4FD0A10118ABFC
:104AD0004022A320FFF766F961236B441900684662
:104AE0000BF08AF80028EED1402218A908A806F099
:104AF00015FD584606F0C4FFFCF7FCF83A0000210B
:104B00000020FCF7CBF82122002105206A44FCF7A5
:104B1000C5F83122012100206A440134FCF7BEF8B7
:104B2000FBF75AFD01F0AEF9431CF9D001F080F912
:104B3000012800D188E00D28F2D1FBF74DFD0126B8
:104B400001F0A0F901F074F905000128ADD16B4620
:104B50001B78002B00D08FE00122574B1A6029B040
:104B60003CBC90469946A246AB46F0BD484606F08E
:104B700087FF00236A461370FCF7BCF83A00002157
:104B80000020FCF78BF86A4600210520FCF786F828
:104B9000FBF722FD01F076F9431C6AD001F048F9D9
:104BA0000500012878D00D2879D0002420239846CC
:104BB00068460BF06DF81D282DD9FBF70DFD01F0AF
:104BC00061F9431C25D001F033F9002605000128C6
:104BD000BDD00D28ECD15046D04606F051FF002E36
:104BE00000D06DE7354806F04BFF00246EE7002E3D
:104BF00000D055E7FBF7F0FC01F044F9431C00D06E
:104C00004EE7FBF7E9FC01F03DF9431C00D047E714
:104C1000F0E700263DE76A4660234146D21811803E
:104C20006A46D318190068441D700BF029F8FCF788
:104C300061F83A0000210020FCF730F86A460021B4
:104C40000520FCF72BF8B8E700236A461370FCF741
:104C500051F83A0000210020FCF720F86A460021B4
:104C60000520FCF71BF80126FBF7B6FC01F00AF95A
:104C700068E7002400260CE700236A461370FCF75F
:104C800039F83A0000210020FCF708F86A460021B4
:104C90000520FCF703F8FCE60024002657E7404611
:104CA00006F0EEFE9EE7C0466C590110A4590110B3
:104CB000745901109C590110E032012084590110EF
:104CC000F0B5C646294B00B598461B68002B24D189
:104CD00001F0D8F8431C02D104BC9046F0BD01F0AD
:104CE000A7F8234B1C68237B262BF5D0220000213C
:104CF000183206E00C3213000C3B1B780131262BD6
:104D0000EAD08342F6D14B005918890064186369D0
:104D10009847012342461360DEE7002342461360B2
:104D2000FBF7E8FF124E31680B7B262B1AD00025CB
:104D30000023104F5B199C0009190869FCF77AF8E9
:104D4000336801359C4664442069FCF741F838001B
:104D5000FCF73EF86B0031685A1992008A18127BF2
:104D6000262AE7D18B689847B2E7C046E032012097
:104D700010120120184B011070B504002500FBF73C
:104D8000B9FF661C002100202278FBF799FF11353E
:104D9000320000210520FBF781FF2A0001210020BD
:104DA000FBF77CFF0B4806F06BFE21780A4806F003
:104DB00067FE3100094806F063FE2900084806F046
:104DC0005FFEFBF709FC01F05DF8431CF9D001F030
:104DD0002FF870BDFC580110045901101059011032
:104DE0001C590110F0B5C64600B598B0FBF782FF1C
:104DF0001B4B002498462D251A4F1B4E220041467E
:104E0000684604F073FF6A4600210020FBF746FF66
:104E100020226B469B1820001D700A2104F0F8FF29
:104E200021230A006B4439001800413204F05EFF70
:104E300031236B4422003100180004F057FFA10118
:104E4000402208ABA220FEF7CDFF013408A8FFF7EF
:104E500093FF642CD2D118B004BC9046F0BDC0467C
:104E6000B8590110C0590110C45901100022044B57
:104E70001A60044B01321A60034B044A1A607047EF
:104E8000DC320120E03201201012012064130120E5
:104E900010B5FFF715FF10BD1A4B70B51A680A213F
:104EA000501C186004F0B4FF174A002910D17B236E
:104EB000D156164BC80F1860154B5C689D68DE68AC
:104EC0001C601C695D609E60DC601861002907DB66
:104ED0007423D35C002B02D000220E4B1A6070BDED
:104EE000012CF5D13543F3D10A480368013303603F
:104EF000042BEDD108490C600B68002BFCD103603A
:104F0000E6E7C046CC33012038520120C8330120E7
:104F100018120120D0330120E02D01200022014B86
:104F20001A607047643301200E4B10B519680E48A3
:104F300006F0A6FD0D4B0E48196806F0A1FD0D48C0
:104F400006F09EFD0C4806F09BFD0C4C0C48218899
:104F500006F096FD6388E279A1790A4806F090FD93
:104F600010BDC0467C330120CC5A0110943301207F
:104F7000E45A0110FC5A0110105B0110BC510120D1
:104F8000245B0110305B011070B50D4C0D48216899
:104F900006F076FD0C4D0021280006F071FD236817
:104FA0001C00303C392B01DD573B1C002100280040
:104FB00006F066FD054B1A6811012143196070BDAA
:104FC0009C320120505B0110585B011064330120BA
:104FD000A522A62170B5154B15489A5C5E5C12029D
:104FE000B618A72202319A5C5D5C1202AD18A922A4
:104FF00002319A5C5C5C1202A4180E4A0E499A5C5B
:10500000595C12028918B6B289B206F039FDADB208
:1050100031000A4806F034FDA4B22900084806F021
:105020002FFD2100074806F02BFD70BD38520120EE
:10503000605B01106520000066200000705B0110BD
:10504000805B0110905B011070B50A2006F070FBC8
:105050000B4C0C4E25008135FF35626813782A2BE6
:1050600003D03000217806F00BFD0C34AC42F4D1B3
:10507000054806F005FD0A2006F05AFB70BDC04643
:10508000F4130120A05B0110AC5B0110F0B5DE460B
:105090004E46454657468022E0B5264C0021A544A1
:1050A00010ABD200A320FEF77DFE0A2006F040FBE5
:1050B000002302AD2B70204B002499461F4B204E3D
:1050C0009846204B9A460CE05146684604F00EFE86
:1050D000694628000AF068FD80230134DB009C4209
:1050E0001CD0194BE7180F231A0022409346234285
:1050F00008D068213A78B35C8B43E5D12E236A4609
:105100001380E5E72900484606F0BAFC5B4602AD8D
:10511000210040462B7006F0B3FCEAE70A2006F0B7
:1051200007FB0A4B9D443CBC90469946A246AB46C1
:10513000F0BDC046BCEFFFFFD05B0110D85B011093
:10514000B5650110BC590110000018104410000092
:10515000F0B5DE464E4657464546E0B50A2091B0CA
:1051600006F0E6FA00236A4613728023234E9B0062
:105170003468E3189C4237D2214B224F9846224B89
:105180009B46224B9A46224B994610E02A004946FC
:10519000684604F0ABFD694602A80AF005FD8022CE
:1051A00092009446336801346344A3421CD90F2310
:1051B0001D00254023420CD025784046290006F0EA
:1051C0005FFC68227B5D9343E0D12E236A46138007
:1051D000E1E702A9584606F053FC6B462100504611
:1051E0001D7206F04DFCE7E70A2006F0A1FA11B0A7
:1051F0003CBC90469946A246AB46F0BD64330120C4
:10520000D0590110B5650110D05B0110E05B0110B1
:10521000BC59011010B584B001AB1900074A11CA7E
:1052200011C1108808809278A3208A70044A1168FE
:105230000A22FEF7D7FD04B010BDC046E85B01109E
:1052400064330120F0B5DE4657464E464546E0B58C
:10525000214B89B09B461B68002B32DD1F4B00247D
:1052600099461F4B98461F4A6300D55A1E4A1F494C
:10527000165D1F4A1F48125DADB2D2B20692CA5ADD
:10528000C75A4B461B5D91B2DBB29A464B46185D3E
:105290000791C0B2FDF7C0FC53460799069AF6B2D3
:1052A000BFB2049003930191330021000092404665
:1052B0002A00029706F0E4FB5B461B680134A34218
:1052C000D1DC0A2006F034FA09B03CBC904699467D
:1052D000A246AB46F0BDC046742C01202C480120EC
:1052E000F45B011098360120A8440120CC3E012037
:1052F000743C012024410120F0B545464E46DE466F
:105300005746244BE0B51C68234B00259946234B98
:1053100089B09846224A6300D65A224A2249175D2C
:10532000224A2348125DB6B2D2B20692CA5AC35A72
:1053300091B29BB29A464B461B5D0791DBB29B46EE
:105340004B46185DFFB2C0B2FDF766FC5B460393A7
:1053500053460799069A0490029301913B00290055
:1053600000924046320006F08BFB9621601C4900FB
:1053700004F04EFD962301350C005B009D42C9D11F
:105380000A2006F0D5F909B03CBC90469946A246E1
:10539000AB46F0BD782C01207C430120F45B01106A
:1053A0001C3A0120A03D0120D4450120F038012005
:1053B0004034012010B5064806F062FB002000F0E2
:1053C000CBFF01F03FF8034806F05AFB10BDC04682
:1053D000345C0110445C011070B51B211D4806F0BF
:1053E0004FFB1D4806F0F6F91B211C4806F048FB50
:1053F0001B4C1C4D236828005A425341236006F081
:105400003FFB0A2006F094F92368002B1FD11649B0
:10541000164806F035FB0A2006F08AF9144806F013
:105420002FFB144806F02CFB134806F029FB134809
:1054300006F026FB124806F023FB0A2006F078F956
:10544000280006F01DFB0A2006F072F970BD0D4918
:10545000DEE7C0465C5C0110645C0110705C01100A
:10546000BC330120785C0110545C0110A45C011075
:10547000BC5C0110D05C0110E05C0110F45C011018
:105480000C5D0110505C011070B51B211F4806F027
:10549000F7FA1F4806F09EF91B211E4806F0F0FAA5
:1054A0001D4C1E4D236828005A4253411C4A23605C
:1054B000136859424B41136006F0E2FA0A2006F0E5
:1054C00037F92368002B1FD11649174806F0D8FA80
:1054D0000A2006F02DF9154806F0D2FA144806F015
:1054E000CFFA144806F0CCFA134806F0C9FA13486C
:1054F00006F0C6FA0A2006F01BF9280006F0C0FAEA
:105500000A2006F015F970BD0D49DEE75C5C01105C
:10551000645C0110245D0110BC330120785C011033
:10552000B8330120545C0110A45C0110BC5C011074
:10553000D05C0110E05C0110F45C01100C5D011006
:10554000505C011030B512488BB006F043F90020D2
:1055500000F002FF6B46DC1D23000021012002AA9F
:1055600000F096FD01280DD10A4D227802A92800ED
:1055700006F086FA23000021002002AA00F088FD30
:105580000128F2D0044806F07BFA0BB030BDC046CB
:10559000305D0110405D0110445C011010B5002425
:1055A0000A2006F0C5F8064B1C5700F03FFF21000B
:1055B0000200044806F064FA0A2006F0B9F810BDAB
:1055C000981C01204C5D011010B5034804F0F2FB5B
:1055D00000210300002098475542000030B51848CC
:1055E00083B006F0F7F8174806F04AFA20236A4617
:1055F00093800023144D2B70642006F053FA0400AE
:10560000431CF9D00D2C10D01B2C0ED0200006F01E
:105610008FF828000AF03CFB4028EDD06B46281894
:1056200001A91C710AF02CFBE6E7002000F094FEB3
:10563000280000F057FD054806F022FA03B030BDFF
:105640006C5D0110805D011038A90220445C0110DE
:1056500070B5734D64202C68002C0DD006F022FA32
:105660000400431C07D06F4E3368012B5AD0022B25
:1056700032D0002B1CD070BD06F014FA431CFAD0B7
:1056800069490B0003E001340C33202CF3D01A7865
:105690008242F8D1654B186063001C19A4000919F7
:1056A0008B689847624B6348196806F0E9F9E2E7AE
:1056B0001B2867D0604D44B22C70631CDBD0FAF716
:1056C0008BFF0023EB560133D5D0FAF785FF00237B
:1056D000EB560133F3D1CEE7432856D010DC4128F6
:1056E00046D0422800D07AE00423534D2B70FAF7BD
:1056F00073FF0023EB560133F9D100233360BAE77F
:1057000044286CD105234C4D2B70FAF765FF00231C
:10571000EB560133F1D0FAF75FFF0023EB5601336C
:10572000F3D1EAE76D2850D006DC1B2815D05B28A2
:1057300035D1022333609EE76F2830D13E4D2B7068
:10574000FAF74AFF0023EB560133D6D0FAF744FFAD
:105750000023EB560133F3D1CFE700231B21374859
:105760002B60336006F08CF9354806F089F982E742
:105770000323314D2B70FAF72FFF0023EB56013333
:10578000F9D1BAE70133336075E706232A4D2B7050
:10579000FAF722FF0023EB560133F9D1ADE70023DE
:1057A000254D2B70013305D0FAF716FF0023EB5679
:1057B0000133F9D164B22C70631C9ED0FAF70CFF50
:1057C0000023EB560133F9D197E702231A4D2B70D2
:1057D000FAF702FF0023EB560133F9D18DE70023DE
:1057E000154D2B70013305D0FAF7F6FE0023EB566A
:1057F0000133F9D100232B70013305D0FAF7ECFE09
:105800000023EB560133F9D164B22C70631C00D134
:1058100073E7FAF7E1FE0023EB560133F9D16CE7A9
:10582000BC330120D8330120F41301209C32012025
:1058300064330120B05D0110F8190120945D01105E
:105840009C5D011070B50D4B05001B680C00160027
:1058500082B0002B01D102B070BD1B21084806F0B8
:105860000FF91B21AB1CA21C0096064806F008F994
:105870001B21054806F004F9EDE7C046BC330120C2
:10588000BC5D0110C05D0110CC5D011070B5104B06
:1058900006001B680D00140082B0002B01D102B07D
:1058A00070BD1B21631E9C410A4806F0E9F82023C5
:1058B00064421C40203433001B21EA1D009406483A
:1058C00006F0DEF81B21054806F0DAF8E7E7C046E7
:1058D000BC330120BC5D0110C05D0110CC5D011026
:1058E0002023F0B583B001AE4022338000233A4C30
:1058F0000700A3544032A3544032A3544032A3546F
:105900004032A3544032A35440322370A35403784E
:105910000025002B07D114E00135072D57DC7B78DB
:105920000137002B0DD01A00093A012AF4D9A80139
:1059300031002018013733700AF036F93B78002B1C
:10594000F1D126000025254805F044FF244F320000
:1059500029003800013506F093F84036082DF6D1BD
:105960000A2005F0E5FE220000210020FBF784F963
:105970002200012100204032FBF77EF922000221A3
:1059800000208032FBF778F9220003210020C0328A
:10599000FBF772F940270326073D2900E01900F0C4
:1059A00089FA03280FD0042804D00128F5D100205B
:1059B00003B0F0BD01353540AF012900E01900F01A
:1059C00079FA0328EFD1013D0540AF01E5E705492C
:1059D000054806F055F8B4E738A70220C05E01106C
:1059E000D05E0110F05E0110DC5E0110F8B57D4B59
:1059F0004746CE461A685D6890467B4C80B59A60F3
:105A0000DD601A615D619A61DD6103C363682268CC
:105A1000E3609946754BA2601E685F689C469E6075
:105A2000DF602E00434647460E4007402943184397
:105A3000C0436346C943186059603D0030004B467F
:105A400095439843BA43B34311001A002760666038
:105A5000674B684E684C06C36060256033687768A2
:105A60002B433843904320228B4333607060634E56
:105A70001340634F3360AA0769D5002B5ED1614D97
:105A8000012100223B68002B00D00A002B68002B6C
:105A900001D002231A435C4B5C485D491D680160DC
:105AA000AA4200D18AE09D68AA4200D18CE01D691B
:105AB000AA4200D18AE09D69AA4200D188E01D6A0D
:105AC000AA4200D186E09D6AAA4200D184E01D6B03
:105AD000AA4200D182E09D6B954200D180E00B6824
