:020000041000EA
:1000000000B5324B212058609868022188439860DF
:10001000D860186158612E4B002199600221596106
:100020000121F02299502B49196001219960352056
:1000300000F044F80222904214D00621196600F024
:1000400034F8196E01211966002018661A6600F04E
:100050002CF8196E196E196E052000F02FF8012189
:100060000842F9D1002199601B49196000215960AB
:100070001A491B48016001219960EB211966A021F2
:10008000196600F012F800219960164914480160C1
:100090000121996001BC002800D000471248134993
:1000A000086003C880F30888084703B5996A0420EC
:1000B0000142FBD001200142F8D103BD02B5186610
:1000C0001866FFF7F2FF186E186E02BD00000240BE
:1000D000000000180000070000035F00212200005C
:1000E000F4000018222000A00001001008ED00E03C
:1000F00000000000000000000000000074B24E7A12
:1001000000200420F7010010C3010010C5010010F9
:10011000C1010010C1010010C1010010C101001097
:10012000C1010010C1010010C1010010C701001081
:10013000C1010010C1010010C9010010CB01001065
:10014000CD010010CD010010CD010010CD01001037
:10015000CD010010CD010010CD010010CD01001027
:10016000CD010010CD010010CD010010CD01001017
:10017000CD010010CD010010CD010010CD01001007
:10018000CD010010CD010010CD010010CD010010F7
:10019000CD010010CD010010CD010010CD010010E7
:1001A000CD010010CD010010CD010010CD010010D7
:1001B000CD010010CD010010CD010010CD010010C7
:1001C00000BE00BE00BE00BE00BE00BE00F04BF888
:1001D000103800BEF2EB88712C7C0110547C0110A9
:1001E0003402001090A31AE700202149086006C8D5
:1001F00081F3088810471F48006800282FD10DA4FC
:100200000ECC002902D000F012F8F9E71A491B4A77
:10021000002000E001C19142FCD1194988471949E9
:1002200088471949884700BEFDE701C901C29A42C3
:10023000FBD37047547C0110C0000020102801201F
:10024000A4A302100000042000000420A4A30210B4
:1002500000100420001004200000000070470B482C
:100260000AF020FA0047EFF30580C0B270470000A3
:1002700008ED00E0000000D010280120A0AD022011
:10028000C5880010ED050010E989001057560000E0
:1002900006005250ABB36053186E01100600525066
:1002A000861C0302286E0110060052505422A29DA3
:1002B000386E011005005250DE65F468A4A30210E8
:1002C000F8B5C0460448054B10B5834203D0044B33
:1002D000002B00D0984710BD1028012010280120C5
:1002E0000000000006480749091A8B10C90FC918F9
:1002F00010B5491003D0044B002B00D0984710BD17
:1003000010280120102801200000000010B5074C23
:100310002378002B09D1FFF7D5FF054B002B02D026
:10032000044800E000BF0123237010BD30290120E4
:100330000000000008510110054B10B5002B03D040
:100340000449054800E000BFFFF7CCFF10BDC046E0
:1003500000000000342901200851011010B50648A2
:100360000CF006F80EF0CCFE012007F013FE05F0AD
:10037000DBFD02F0B5FCF7E708510110F0B5474688
:10038000CE4680B5294B83B098461A88284B9A42AE
:1003900040D043461B88D0251843434680B218807E
:1003A0001E88802380271B022D0601200021AB61BF
:1003B000FF0407F0D7FD1024B946B6B20FE0802342
:1003C000DB016B610120002107F0CCFD013C012025
:1003D00000216F6107F0C6FD7600002C0BD04B4664
:1003E0000120AB61002107F0BDFD3304E7D4802379
:1003F000DB01AB61E6E7D02380221B0612025A61C3
:1004000043461A880A4B9A420AD003B00CBC904665
:100410009946F0BD00230093009B002BFCD1B8E768
:1004200000230193019B002BFCD1EEE7DA3401207D
:1004300009200000F0B5CE46474680B5284B83B072
:10044000984240D0274BD025984642461B888027AB
:1004500083431380802316881B022D060120002170
:10046000AB61FF0407F07EFD1024B946B6B20FE081
:100470008023DB016B610120002107F073FD013C4B
:10048000012000216F6107F06DFD7600002C0BD07C
:100490004B460120AB61002107F064FD3304E7D433
:1004A0008023DB01AB61E6E7D02380221B0612022A
:1004B0005A6143461A880A4B9A420AD003B00CBCD0
:1004C00090469946F0BD00230093009B002BFCD181
:1004D000B8E700230193019B002BFCD1EEE7C04657
:1004E00009200000DA340120F0B50124D025844031
:1004F000C64680272D0600B50120AC610021AC6105
:1005000007F030FD7F036C610120002107F02AFD18
:1005100008260024B8466B686400E4B29B0202D54A
:1005200001231C43E4B2434601200021AB6107F0E4
:1005300019FD013E012000216F6107F013FD002E1F
:10054000E9D1200004BC9046F0BDC046F8B5DE46B7
:1005500057464E464546E0B501263300D024834039
:1005600024060D0001200021A36117009B4607F01F
:10057000F9FC002F26DD7B1E9E408023DB04B04665
:10058000994600269A4610E08023DB016361012032
:10059000002107F0E7FC4B46012000216361013692
:1005A00007F0E0FC6D00B7420CD053460120A36178
:1005B000002107F0D7FC43461D42E5D18023DB0133
:1005C000A361E4E7D0235A461B065A613CBC90461F
:1005D0009946A246AB46F8BD10B502F0F5FD03F012
:1005E00011FD02F07DFB05F0B1F910BD10B51B2027
:1005F00084B006F099FDD024802324061B05636295
:100600000D20636106F090FD0E2006F08DFD0F2099
:1006100006F08AFD162006F087FD152006F084FD01
:100620001A2006F081FD132006F07EFD142006F04E
:100630007BFD122006F078FD002006F075FD0120FC
:1006400006F072FD022006F06FFD032006F06CFD3F
:10065000042006F069FD052006F066FD062006F080
:1006600063FD072006F060FD01220021002006F056
:1006700043FD01220021012006F03EFD0122002160
:10068000022006F039FD01220021032006F034FD8E
:1006900001220021042006F02FFD01220021052067
:1006A00006F02AFD01220021062006F025FD012288
:1006B0000021072006F020FD0A2006F035FD0B2062
:1006C00006F032FD0C2006F02FFD112006F02CFD67
:1006D000102006F029FD00220121102006F00CFD5B
:1006E00000220121112006F007FD80238022DB017A
:1006F00092016362A262636280231B0263628023B1
:10070000DB03636280239B03A3628023DB046362B9
:1007100080231B03636280228023D2025B03636217
:1007200062628022D20062628022120162628022B2
:10073000520162621448636102AA03AB01A906F088
:100740000DFC00281AD10120FFF718FE0A2007F03F
:1007500021FC00F045F800F02BF90BF015FE01F03C
:10076000C9FB0A480EF0A6FC04F080FB08480BF019
:10077000A9FC04F08DFB05F0E9F8FAE7039A029969
:10078000019806F0AFFBDEE7A0F703005D03001061
:100790001851011000B583B06A4680231371793B6C
:1007A000034050204042184350710221782001AA92
:1007B00003F05EF803B000BD10B5102482B0030949
:1007C00001AA234353700F238021184011709170A8
:1007D000D0707C39782003F04BF802B010BDC046D1
:1007E000F0B580276F4CFA25238885B03B439BB238
:1007F00023806D4B21881E680822300089B2FFF7E4
:10080000A5FE7F23ED00039522883000134023804E
:100810002188082289B2FFF799FE029523880822D1
:100820003B439BB223802188300089B2FFF78EFEC4
:10083000019502F017FE782002F080FE802002F081
:100840007DFEAE2002F07AFE802002F077FED520F9
:1008500002F074FE802002F071FEA02002F06EFE15
:10086000802002F06BFEA82002F068FE802002F0DB
:1008700065FE1F2002F062FE802002F05FFED320A2
:1008800002F05CFE802002F059FE002002F056FECD
:10089000802002F053FEAD2002F050FE802002F0D6
:1008A0004DFE8E2002F04AFE802002F047FED82046
:1008B00002F044FE802002F041FE052002F03EFEE0
:1008C000802002F03BFEA12002F038FE802002F0E2
:1008D00035FEC82002F032FE802002F02FFEDA2022
:1008E00002F02CFE802002F029FE122002F026FEEB
:1008F000802002F023FE912002F020FE802002F0F2
:100900001DFE3F2002F01AFE802002F017FE3F205D
:1009100002F014FE802002F011FE3F2002F00EFED5
:10092000802002F00BFE3F2002F008FE802002F043
:1009300005FE812002F002FE802002F0FFFD1B4B2D
:10094000187802F0FBFD802002F0F8FDD92002F0BB
:10095000F5FD802002F0F2FDD22002F0EFFD8020B4
:1009600002F0ECFDDB2002F0E9FD802002F0E6FD64
:10097000342002F0E3FD802002F0E0FDA62002F02A
:10098000DDFD802002F0DAFDA42002F0D7FD8020FA
:1009900002F0D4FDAF2002F0D1FD02F093FD05B0CE
:1009A000F0BDC046DC340120385101101006002093
:1009B0008023F0B54746CE469946D03B0025984661
:1009C00080B5174F83B001AE4B46337043463200BB
:1009D0002B4302217820737002F04AFF3200042179
:1009E0007820019702F044FF02F03CFD782002F0ED
:1009F000A5FD402002F0A2FD8424013C0020E4B2C9
:100A000002F09CFD002CF8D10135EDB202F05AFD48
:100A1000042DD9D103B00CBC90469946F0BDC04618
:100A200080108000204BF0B54746CE469946002303
:100A300080B5502700259846802683B001AC7F42C0
:100A40004B4642465B191A70EB113B4322000221D0
:100A500078206370267002F00BFF7F2310212B405B
:100A60001A090A4362700F220421134078202200E1
:100A7000E3702670A67002F0FBFE02F0F3FC782013
:100A800002F05CFD402002F059FD002002F056FD0E
:100A900002F018FD80230135DB009D42D0D103B068
:100AA0000CBC90469946F0BD084A0120F0B54E4670
:100AB0004546DE465746E0B50C000500160083B0FB
:100AC0007F2801D81F2906D903B03CBC904699461F
:100AD000A246AB46F0BD7F2307221B1A9846CB17D0
:100AE00013405B18DB105B4203339A468023914628
:100AF00052469B4601AF3B70D03B134302213A0064
:100B000078207B7002F0B4FE43465A46102104332D
:100B1000DBB23A701A090A437A705A46BA70713ACF
:100B2000134004213A007820FB7002F0A1FE02F08D
:100B300099FC782002F002FD402002F0FFFC5346B1
:100B4000DF01164B47449A46DB5D9846002E1CD0C9
:100B5000012E10D032002100280005F015F8404683
:100B600000F01EF8C0B202F0E9FC53464246DA55E6
:100B700002F0A8FCA8E74B46320023409A4013003D
:100B800042461343DBB29846E4E74B46012223403A
:100B90009A40434693439846DCE7C046084A012002
:100BA000022101234200114042101A4011438210D9
:100BB00049001A400A43C110194052000A4301116A
:100BC00052001940114342111A4049001143821149
:100BD00049001A400A43C0115200184010437047A0
:100BE000F8B51500D2B20F00040004F0A9FF0320ED
:100BF000C01BC0B2FFF7CEFDA000201A40007F301E
:100C0000C0B2FFF7D9FD02F02DFC782002F096FC6F
:100C1000402002F093FCAA00521901240425154E2D
:100C2000B6182200735D1A4058102040520002434B
:100C30009810520020401043DA1022404000104328
:100C40001A11400022400243581120405200024332
:100C500098115200204010434000DB11184302F06D
:100C60006DFC013DDDD2002002F068FC02F02AFCA0
:100C7000F8BDC0461406002070B5150012780E00AD
:100C8000002A09D004002D1A200031000134FFF79A
:100C9000A7FF2A5D002AF7D170BDC04670B51500C8
:100CA00012780E00002A09D004002D1A200031000D
:100CB0000134FFF795FF2A5D002AF7D170BDC046C9
:100CC00070B584B001AD04000E002800084909F099
:100CD00085FC2A78002A08D02D1B20003100013421
:100CE000FFF77EFF2A5D002AF7D104B070BDC04631
:100CF00040510110F8B5002345469846314B574600
:100D00009A460323DE469B4605234E465B425344E8
:100D1000E0B599467F270124002620223100404675
:100D200004F00EFF5B46981BC0B2FFF733FD38009E
:100D3000FFF742FD02F096FB782002F0FFFB402017
:100D400002F0FCFB554622002B78013D1A4058105A
:100D50002040520002439810520020401043DA1005
:100D60002240400010431A11400022400243581113
:100D70002040520002439811520020401043DB11E2
:100D80004000184302F0DAFBA945DCD1002001360F
:100D900002F0D4FB02F096FB042EBED101239C4648
:100DA000E0444346063FFFB2152BB5D10023064A67
:100DB0001360064A13603CBC90469946A246AB4677
:100DC000F8BDC046B80600208C2E0120902E0120D0
:100DD000F8B54746CE4680B5144E154F027880468A
:100DE00034683D68002A0BD0031B99462000290077
:100DF000FFF7F6FE4B4601341A5D002AF6D134683F
:100E000040460FF0BDFB2418142C04DC34600CBCED
:100E100090469946F8BD00223B6832600133032BAF
:100E200001DD3A60F3E73B60F1E7C0468C2E01201C
:100E3000902E012010B50FF0A3FB084B1A689446C2
:100E40006044142807D90021054A1960136801334A
:100E5000032B01DD116010BD1360FCE78C2E012017
:100E6000902E012070B509480BF082FA01231D0075
:100E7000074AD0241268FA2095402406054AA56145
:100E80004000136007F086F8A56170BD485101105D
:100E90003C51011050340120394A30B51368040028
:100EA00001331360B02383B09B0098425FD028D9F0
:100EB000C0239B00984236D0403398421FD18021F6
:100EC000304A314C1088238801407F201180013343
:100ED00011889BB2238043400B439BB2138011883F
:100EE0002A4B0822186889B2FFF730FB02202849F4
:100EF00023884A7DDB120340824313434B7503B0C2
:100F000030BD013BFF3B98421BD040339842F6D1A5
:100F100080204000FFF732FA2000FFF72FFA64200C
:100F200007F038F8EBE700238022174C2380154B9D
:100F300019880A407F211A801A880A431A80198862
:100F4000CEE703F051F813480BF012FA01231D000D
:100F5000114AD0241268FA209540019224060F4AC3
:100F6000A5614000136007F015F8A561C7E7802070
:100F70004000FFF75FFA80208000FFF75BFABEE7D2
:100F80005C340120DC340120DE34012038510110B2
:100F9000E8520120485101103C5101105034012009
:100FA0008023044A5B42517C0B4353740122024B61
:100FB0001A707047E85201208C0F00200122024B6A
:100FC0001954024B1A60704780520120002F0120F3
:100FD000F0B5DE4657464E464546E0B5012083B0A3
:100FE00002F03AFA5D4B5E491A68002A03D10A689A
:100FF000002A00D1A4E000225A4F1A603B680A6020
:10100000002B00DAA2E0584B00249946574B9B4630
:10101000574B9846574B9A460EE0574B200019689D
:1010200009F06EFB03002A0008001900FFF7D8FD45
:101030003B680134A34239DB4B465A461B681B5DB3
:10104000D55C424612689342E7D153461B68002B99
:10105000E3D04A4B1B68002B07D0494B1B68002B81
:1010600006D0019580256D00D7E7454B1B6801939D
:101070008021AB005B1901950225424A4942D05CB0
:10108000414E08439055D3185878404E0843905528
:1010900098783F4E08439055D878013608439055CC
:1010A0001B79FF350B433B495354B6E7142120000D
:1010B00009F026FB14218246200009F021FB894615
:1010C000354B00269846434631009A5D1420013680
:1010D000FFF786FD042EF6D16A1EFF3A2B00012A87
:1010E00026D92E4AD35C682293431FD0534616203C
:1010F00058434B462A4EEDB235552A4C2018C5545C
:101100003D6859462A0028480AF080FE00232B2219
:10111000A3541632A35416326375A354735503B007
:101120003CBC90469946A246AB46F0BD2025DDE783
:10113000019D1A4A2B00D35C68229343D6D1F5E770
:101140000A4B084F9B46164E164CD9E7002399468A
:101150009A46064B00249B46B2E7C046002F01206A
:10116000882E0120600B002084520120F0530220C1
:101170004C33012054330120640B0020842E0120C5
:10118000503301201406002005050000060500006C
:10119000070500000905000080520120957001102C
:1011A0000C4F012088520120084E0120E02330B569
:1011B0005B00040083B0984200D123E10BD81728CC
:1011C0001FD8022865D9C31E9BB2142B57D8A94A31
:1011D0009B00D3589F46D0239B00984241D039D9D9
:1011E000E8239B00984200D139E126D9F0239B00E7
:1011F000984213D10122A04B1A60A04B185D03B096
:1012000030BD0300813BFF3B9BB2012B41D88223C1
:10121000FF33984200D00CE10020F0E720339842E1
:101220002DD1974A1368002B00D107E18021C90115
:101230008C46634400201360E1E7403B984200D1B4
:1012400010E12033984224D100228B4B1A608B4B43
:10125000185DD4E7803B984200D1CDE040339842FE
:1012600004D12000FFF718FE0020C8E7803B984219
:101270000FD10420FFF782F8804B185DBFE72304ED
:1012800000D5A8E08023DB019C4202D37D4B1B6884
:10129000E4187A4B185DB2E77B4B1868FFF724F926
:1012A0007F2343407E201840D023744C1B0660757A
:1012B0005B68764A5B0BDB01184302231288984374
:1012C000D21213401843607503F0E6FD607D96E787
:1012D000D0226F4B1206506819685268C8405C688B
:1012E0000121E2400840C0014008114201D08022A3
:1012F0001043D0221206526899684008CA40D207AB
:1013000003D5802252421043C0B2D0221206526846
:10131000D9684008CA40D20703D580225242104300
:10132000C0B2D0221206526819694008CA40D207DA
:1013300003D5802252421043C0B2D0221206526816
:1013400059694008CA40D20703D58022524210434F
:10135000C0B2D0221206526899694008CA40D2072A
:1013600003D5802252421043C0B2D02212065268E6
:10137000DB694008DA40D30703D580235B4218437A
:10138000C0B29621434A490013688B4200DB36E71E
:10139000E22541495C006554013309194870136026
:1013A0002DE73E4B18782AE73D4B187827E73D4A52
:1013B0001378D9B2012B46D0022900D069E7122850
:1013C00000D066E7032313707F222C4B597C0A4020
:1013D0005A74185D13E7C0231B029C4205D9324B97
:1013E0009C466444314B185D09E72F4B9C46244BC7
:1013F000644418682418F5E70420FFF71BF81F4B16
:10140000185DFCE602F0F0FD29480AF0B1FF012367
:101410001D00284AD0241268FA2095400192240623
:10142000254AA5614000136006F0B4FD0020A561C7
:10143000E5E6224B18687F231840E0E680231B0274
:1014400000201360DBE60D4B112800D0D6E6597C56
:101450007F2900D8D2E602211170185DCFE6094A33
:101460001368E3E60023074A00201360044A136070
:10147000C5E6C04658510110680B0020E852012013
:10148000403401202834012034510110DE34012081
:101490006C0F0020A834012010500120EB340120F3
:1014A000EA3401208C0F00200080FFFF900F002005
:1014B000485101103C510110503401204C3301209F
:1014C0000B4B1A88824206D01A8A82420BD01A8CA1
:1014D00082420AD0704700220121064812019B185F
:1014E00001605960F6E70122F6E70222F4E7C04600
:1014F000300B00202C330120012070477047C0467C
:101500000022014B1A607047603401207323084A9F
:10151000D15C643B0B400749D3188C4606496344B1
:10152000096819707421535C013353547047C046E5
:10153000E8520120B020000094A6022010B5034913
:10154000034802F0FDF9431E984110BDCC53011031
:10155000F09D022010B50349034802F0F1F9431E43
:10156000984110BDDC530110F09D0220164AF8B5D9
:10157000136801331360154B9B69DB0603D5144ACE
:101580001368013313601025104C124E124FA369DB
:101590001D4211D1A3691D42FCD12368DBB2002B8F
:1015A000F5D032680D49BB543068013009F0A8F815
:1015B0003160A3691D42EDD0A3691D4203D1084AE1
:1015C000136801331360F8BD3433012000800340F9
:1015D000383301203C3301200884022088130000A6
:1015E000303301207047C046F8B50A4E002435005C
:1015F000094F3800296802F0A3F9002804D101340A
:101600000835072CF5D1F8BDE40034196368984714
:10161000F9E7C046CC110120F85402205F4AF0B52A
:101620001368DE4659424B41012157464E46454616
:101630005B428B4318000023E0B5546897B0584EC6
:1016400002AA03AF1375A330337010223B002100B0
:10165000019002F0A7FB80239B46524BA3449A467D
:101660000F2398460FE0403902AB5B181A70002335
:10167000013102AA521807A80CA9013413700EF008
:101680000BFFA3452AD0454643462540234266D05A
:101690004246E3171B0FE5181540ED1A7A5D5146D7
:1016A0000CA808F09BFF30000EF06AFF0CA9301860
:1016B0000EF0CEFE68217A5D3B4B81469B5C8B43EE
:1016C000D1D107A80EF05CFF07AB9C460222374938
:1016D000604401340AF09AFBA345D4D10222344974
:1016E00048460AF093FB484607A902300EF040FF37
:1016F000304B314C1A68314B20001968330008F028
:101700006DFF20000EF03CFF2D4E2E4B02001860A6
:101710002D49300008F062FF3478002C18D03000DA
:10172000002120220D26294B02255D5F284B002930
:1017300028D1A5422DD099690A42FCD11C600178BC
:1017400001300D394C4261410478C9B2002CEED110
:1017500017B03CBC90469946A246AB46F0BD23006C
:1017600007AA1C490CA808F039FF0CA930000EF09C
:1017700093FE02AB1D7510223B002100019802F080
:1017800011FB85E799690A42D8D099690A42F9D1D3
:10179000D4E799690A42FCD11E60CCE794A60220E6
:1017A000B0600220045401109570011054510110D2
:1017B00068600110942E0120946C0220D80F012043
:1017C000CCA502200C3401200C540110D8AA022010
:1017D00000800340F4530110F0B5D6464F4646460C
:1017E000414BC0B51C68012C08D0022C3DD0002C08
:1017F00028D01CBC90469946A246F0BD3B4B1E68C3
:10180000002EF6DD3A4B3B4C9A4619683A4B0027BE
:101810001B6836199846394B994606E04A462378A4
:10182000013401275355B4425BD00D00481CFA2106
:10183000890008F065FF4145F0D1002FD9D053460B
:101840001D60D6E72E4F2B4E3D0003E001340835D6
:10185000082CCED03000296802F072F80028F5D0AC
:10186000E4003C1963689847C3E7204B1D68002DCE
:10187000BFDD7423234E1F4AF15C013BF05C663BE5
:1018800000240F279C46AD180FE03C000440A14601
:101890001D4CB144A0464C46444423700124013100
:1018A000C9B201320130AA4215D013780A2BF8D000
:1018B0000D2BF6D0042BE8D1134C3B00A046644618
:1018C0000340F3184344013101321C70C9B20124B2
:1018D0000130AA42E9D1002C00D18AE77423F154E7
:1018E00087E75346196084E72C2D01209C330120A3
:1018F000302E0120F8540220342E0120806802206E
:10190000940F0120E8520120B0200000F0B50E4BEA
:101910000E4D19682B68C6465C1A631C98460C4F1E
:101920000C4E00B51A00891938000AF06FFA4246C9
:10193000390030000AF06AFA0122074B2C601A6065
:1019400004BC9046F0BDC04678330120243301200A
:10195000387C0220F09D022090330120F0B5C6466D
:1019600001221C4B00B5532100201A600025FFF70F
:1019700025FB194C194E03E001350C34282D11D0EC
:101980002378032BF8D1310060680EF0ADFD0028FC
:10199000F2D10122124B1D60124B1A60124A1368D9
:1019A00001331360114D124B124F19682B68124E00
:1019B0005C1A631C98461A00891938000AF026FA46
:1019C0004246390030000AF021FA2C6004BC9046EF
:1019D000F0BDC0466C340120EC0F012020540110F2
:1019E000CC340120D0340120A43401202433012040
:1019F00078330120387C0220F09D0220F8B5CE46D5
:101A000047461A4C80B52368002B1AD0184B194E44
:101A100019683368184F5D1A6B1C9946174B4A4674
:101A200098461800C9190AF0F1F94A4641463800AB
:101A30000AF0ECF90023356023600CBC904699460F
:101A4000F8BD0B4B0B4D19682B680C4F5C1A631CCF
:101A50009846094E1A00891938000AF0D7F942460B
:101A6000390030000AF0D2F92C60E6E7903301200B
:101A70007833012024330120F09D0220387C02209D
:101A8000F0B5CE46474680B56421022085B0FFF709
:101A900095FA494C4949200001F052FF002804D131
:101AA00005B00CBC90469946F0BD454B454E1968B3
:101AB0003368454F5D1A6B1C98461A0038000919A7
:101AC0000AF0A4F93900424620000AF09FF93F4F7E
:101AD00035603B6899461D2BE2DC002B67DD3C4BF3
:101AE0002B2598461C004B465D433A4E4544310039
:101AF00020000EF0F9FC0028D2D02B34A542F6D1FC
:101B00002B244D4643466543310058190EF030FDF5
:101B10002800314914304D694B680A6803950D69F6
:101B200040440295CD680195896800912B4908F0E1
:101B300055FD2B4B310018680EF0D6FC002803D061
:101B40003B6801333B60ABE73B68264E5C432200B9
:101B5000143230002449424408F040FD3478002C0F
:101B6000EED03000002120220D26204B02255D5FA3
:101B70001F4B00290FD1A54214D099690A42FCD10C
:101B80001C60017801300D394C4261410478C9B2C2
:101B9000002CEED1D4E799690A42F1D099690A4242
:101BA000F9D1EDE799690A42FCD11E60E5E7084BDF
:101BB000084E9846A4E7C046F09D02202854011024
:101BC0007833012024330120387C0220382E012074
:101BD00060980220C0A7022094A602208854011019
:101BE000900F0120CCA5022070540110D8AA022029
:101BF00000800340F0B5C6466321012000B5FFF721
:101C0000DDF90F4C0F49200001F09AFE002802D1A7
:101C100004BC9046F0BD0C4B0C4E196833680C4F59
:101C20005D1A6B1C98461A00091938000AF0EEF884
:101C30004246390020000AF0E9F83560E8E7C0467E
:101C4000F09D02209C5401107833012024330120A0
:101C5000387C0220F0B5C6466321012000B5FFF7AD
:101C6000ADF90F4C0F49200001F06AFE002802D1A7
:101C700004BC9046F0BD0C4B0C4E196833680C4FF9
:101C80005D1A6B1C98461A00091938000AF0BEF854
:101C90004246390020000AF0B9F83560E8E7C0464E
:101CA000F09D0220A8540110783301202433012034
:101CB000387C0220F0B5C64604007221012000B530
:101CC000FFF77CF91D482401041961681C4C2000B1
:101CD00001F036FE002802D104BC9046F0BD194E3A
:101CE000194B1A4F1968336838005D1A6B1C9846F7
:101CF0001A0009190AF08AF82000424639000AF051
:101D000085F83560124C0025124E03E001350C3485
:101D1000282DE1D02378032BF8D1310060680EF034
:101D2000E3FB0028F2D101220B4B1D600B4B1A6024
:101D30000B4A136801331360CEE7C046B45D01104F
:101D4000F09D02202433012078330120387C0220CA
:101D5000EC0F0120B8540110CC340120D034012004
:101D6000A4340120F0B5C64604006921012000B565
:101D7000FFF724F910482401041961680F4C200072
:101D800001F0DEFD002802D104BC9046F0BD0C4BF2
:101D90000C4E196833680C4F5D1A6B1C98461A007C
:101DA000091938000AF032F84246390020000AF0DA
:101DB0002DF83560E8E7C046B45D0110F09D0220C3
:101DC0007833012024330120387C0220F0B5C64648
:101DD00004006E21012000B5FFF7F0F8124824013D
:101DE00004196168114C200001F0AAFD002802D1FD
:101DF00004BC9046F0BD0E4B0E4E196833680E4F72
:101E00005D1A6B1C98461A000919380009F0FEFF8C
:101E100042463900200009F0F9FF084B35601A6886
:101E2000074B1A60E4E7C046B45D0110F09D022044
:101E30007833012024330120387C022094A602202C
:101E40007C2E0120F0B5C64604004321012000B5D8
:101E5000FFF7B4F81D482401041961681C4C2000E8
:101E600001F06EFD002802D104BC9046F0BD194E71
:101E7000194B1A4F1968336838005D1A6B1C984665
:101E80001A00091909F0C2FF20004246390009F082
:101E9000BDFF3560124C0025124E03E001350C34B5
:101EA000282DE1D02378032BF8D1310060680EF0A3
:101EB0001BFB0028F2D101220B4B1D600B4B1A605B
:101EC0000B4A136801331360CEE7C046B45D0110BE
:101ED000F09D02202433012078330120387C022039
:101EE000EC0F0120C0540110CC340120D03401206B
:101EF000A434012010B500211F4806F033F8022158
:101F0000082005F0E1F80221092005F0DDF8E121C3
:101F10001A4C4902200006F063FCC022236B120217
:101F20001340174A152013601023E26A1549134025
:101F3000154A136005F014FA0121152005F0CCF9BB
:101F40005023A363626B183B1340104A1048136080
:101F50000AF0B8F80AF08CF90220FEF76BFA642058
:101F600006F018F80220FEF709FA0023094A137058
:101F7000094A136010BDC04640420F000080034074
:101F8000309003406D1500102C90034034900340B6
:101F9000C8540110F09D022024330120F0B55746AB
:101FA0004E464546DE460023E0B5394F87B003ADC7
:101FB0002B703B18DB7982460222364E7F2B5BD892
:101FC0003000354909F022FF534601339846042476
:101FD000324A334B91469B46B844042C11D04346B9
:101FE00049461A5D280008F0F9FA30000EF0C8FAE8
:101FF000290030180EF02CFA631C24D0013C042C6C
:10200000EDD153460533FA5C594612092800019375
:1020100008F0E4FA30000EF0B3FA290030180EF0A0
:1020200017FA02221F4909F0F1FE0F22019B5946BF
:10203000FB5C28001A4008F0D1FA290030000EF0AD
:102040002BFA013CDBE70322174909F0DFFE0622E9
:102050005744BA56002A14DB4946280008F0BEFA55
:10206000290030000EF018FA300007B03CBC904652
:102070009946A246AB46F0BD30000C4909F0C6FEB9
:10208000A2E728000A49524208F0A8FAE8E7C04649
:10209000E85201206C6C02200854011040510110DC
:1020A000E854011054510110F0540110E45401108F
:1020B000F45401100023F0B50024324E324D334F5A
:1020C00091B033702200390006A808F087FA06A9FB
:1020D00030000EF0E1F92800FFF760FF0134010045
:1020E00030000EF0D9F908350A2CEBD1284B294CD9
:1020F0001A68294B1968294B0493294B1800163884
:102100000290180003932C38423B0190009320006A
:10211000330008F063FA20000EF032FA214A224E12
:102120001060224A030012683000214908F056FA74
:102130003478002C18D01F4B300002255D5F202121
:1021400000230D261C4A002B10D1A54215D09369FF
:102150001942FCD11460037801300D3B5C426341AD
:102160000478DBB2002CEED111B0F0BD93691942B6
:10217000F0D093691942F9D1ECE793691942FCD187
:102180001660E4E7B0600220FF200000FC5401105C
:10219000942E0120946C0220D40F0120F09D022087
:1021A000CA5201200C340120CCA502207C2E012033
:1021B00008550110D8AA022000800340F8B5574600
:1021C0004E464546DE463A4BE0B59C461860394BD4
:1021D00004001960384B0F009A46002352461360E2
:1021E000364B994601234A461360354B1860354BF0
:1021F00098461E68002846DD320000210023324D3B
:10220000324807E0E95C013CC154013A0121013345
:10221000002C1CD0002AF5DC002932D05246E918E7
:102220001360F61A63461C60294C771C3A002000A4
:1022300009F0ECFD3A002100280009F0E7FD4346D3
:102240001E603CBC90469946A246AB46F8BD51463E
:102250000B6041460A606246F61A1460721C924690
:102260001B4CE918200009F0D1FD5246210028003E
:1022700009F0CCFD43461E6000234A461360B84770
:10228000DFE72900D0E7731C9B46114B0E4D9A46A1
:1022900018005A46290009F0B9FD5A46514628004F
:1022A00009F0B4FD43461E60002CE5D0C9E7C046E6
:1022B0003C2E0120EC9D0220347C0220502E012077
:1022C0009C33012024330120F09D0220F854022089
:1022D000387C0220F0B5C6465021022000B5FEF73A
:1022E0006DFE114C1149200001F02AFB002802D19B
:1022F00004BC9046F0BD0E4E0E4B0F4F196833686C
:1023000038005D1A6B1C98461A00091909F07EFD09
:1023100039004246200009F079FD084B0849586809
:102320003560FFF74BFFE3E7F09D0220CC5301102F
:102330002433012078330120387C022094A6022027
:10234000E9150010F0B5C6465021022000B5FEF791
:1023500035FE114C1149200001F0F2FA002802D19B
:1023600004BC9046F0BD0E4E0E4B0F4F19683368FB
:1023700038005D1A6B1C98461A00091909F046FDD1
:1023800039004246200009F041FD084B0849186811
:102390003560FFF713FFE3E7F09D02201C550110A5
:1023A0002433012078330120387C022094A60220B7
:1023B000D917001070B51B480EF0E2F81A4C1B4BF1
:1023C000020018601A49200008F008F92278002A53
:1023D00018D0184B200002255D5F202400230D2615
:1023E0001549002B17D1954210D08B691C42FCD1A6
:1023F0000A60037801300D3B5A4253410278DBB248
:10240000002AEED101220D4B1A6070BD8B691C426F
:10241000FCD10E60E9E78B691C42E9D08B691C4254
:10242000F9D1E5E7946C0220CCA502200C34012000
:102430002C550110D8AA02200080034060340120EE
:1024400010B51C220349044809F0E0FCFFF7B2FF75
:1024500010BDC04640550110946C022010B5064BCB
:1024600006495A681B680648CA54064908F0B6F877
:10247000FFF7A0FF10BDC04694A60220E85201203D
:10248000946C02205C5501104C4AF0B51368454627
:1024900059424B4101215B428B431800484BDE46B9
:1024A000984657464E46546800234246E0B597B0DA
:1024B000137003AF02AA1375A3303B001022210052
:1024C000019001F06FFC80239C46A4446346009376
:1024D000002399463B4B9B460F239A4610E0403918
:1024E00002AB5B181A700023013102AA521807A828
:1024F0000CA913700DF0D0FF009B0134A34229D02A
:10250000554653462540234242D001239C464E4621
:10251000E144BA5D59460CA808F060F840460EF058
:102520002FF80CA940440DF093FF6821BA5D264BAB
:1025300005009B5C8B43D2D107A80EF021F807ABB6
:102540009C4602222149604409F060FC009B013452
:10255000A342D5D1022228001D4909F057FC07A942
:10256000A81C0DF075FF03221A49040009F04EFC67
:102570004346E21A41460332174809F047FCFFF789
:1025800019FF17B03CBC90469946A246AB46F0BD39
:10259000230007AA11490CA808F020F80CA940460E
:1025A0000DF07AFF02AB1D7510223B00210001984F
:1025B00001F0F8FB012300269946AAE794A6022021
:1025C000B0600220045401109570011054510110A4
:1025D00068600110EC570110946C022070550110D6
:1025E00000B50A4B0A4985B0029119002C310191BE
:1025F00019001A001631163A00910648064907F0EC
:10260000EDFFFFF7D7FE05B000BDC0469E5201208A
:10261000F09D0220946C02207C55011010B50C4CEA
:1026200082B0A268206801AB1A7042425041012278
:10263000404290436168A33001F0D4FB2368626894
:102640000449054807F0CAFFFFF7B4FE02B010BD09
:1026500094A602205C550110946C0220F8B5CE4679
:10266000474680B56D4A1378002B04D16C4B6D4AF8
:102670001B789B009A586C4C6C49200007F0AEFF09
:102680006B4E210030000DF0E3FE05000422694985
:10269000200009F0BBFB04222100280009F0B6FB52
:1026A000654F3B68002B17DD644B00259946644B52
:1026B00098464B461B68581980B2FEF777FD414695
:1026C0000200200007F08AFF210030000DF0E4FE38
:1026D0003B680135AB42ECDC5A4D5B492A8820004F
:1026E00007F07CFF210030000DF0D6FEAA88574984
:1026F000200007F073FF210030000DF0CDFEAA7915
:102700005349200007F06AFF210030000DF0C4FE9D
:10271000EA795049200007F061FF210030000DF0F8
:10272000BBFEEB79AA794C49200007F057FF210046
:1027300030000DF0B1FE6A884849200007F04EFFD6
:10274000210030000DF0A8FE4549464B08682A7A62
:102750001860888898808979997143490878FF289A
:1027600035D0104241D18878FF2830D010423FD177
:102770000879FF282BD010423DD18879FF2826D038
:1027800010423BD1087AFF2821D0104201D0487A6C
:102790001871887AFF281AD0104201D0C87A58716F
:1027A000087BFF2813D010422BD1887BFF280ED046
:1027B000104229D1087CFF2809D01D00104226D0E4
:1027C000487C0135E871887C0231FF28F6D1200071
:1027D000264907F003FF210030000DF05DFEFFF7F2
:1027E000E9FD0CBC90469946F8BD48781870BAE7E8
:1027F000C8785870BCE748799870BEE7C879D87037
:10280000C0E7487B9871D0E7C87BD871D2E7887C55
:1028100001350231FF28D1D1D9E7C046A4330120C8
:10282000E95302206C0B0020B06002209855011083
:10283000946C02209C550110EC530220F4540220A9
:10284000A05501106C520120A8550110B45501107B
:10285000C0550110CC550110D8550110E855011094
:1028600008560110E00F0120200B0020F455011044
:1028700070B51A480DF084FE194C1A4B020018600E
:102880001949200007F0AAFE2278002A18D0174B19
:10289000200002255D5F202400230D261449002B13
:1028A00014D195420DD08B691C42FCD10A6003788B
:1028B00001300D3B5A4253410278DBB2002AEED17F
:1028C00070BD8B691C42FCD10E60ECE78B691C4229
:1028D000ECD08B691C42F9D1E8E7C046946C022029
:1028E000CCA502200C3401200C540110D8AA0220DF
:1028F0000080034000B5094A094909CA094A83B062
:102900001354094A09681268019000930748084B5C
:1029100007F064FEFFF7ACFF03B000BD94A60220F1
:10292000DC0F0120E8520120942E0120946C02203B
:1029300010560110F0B54E46DE4657464546E0B506
:1029400093B000236A46384E13733370374B00241C
:102950009846374B9B46374B9A46374B99460FE084
:102960006B4648395B181A706A46002301315218C9
:1029700003A808A9013413700DF08EFD802C26D019
:102980000F231D00254023423FD0434659461A5D80
:1029900008A81F1907F022FE30000DF0F1FD08A96C
:1029A00030180DF055FD68213A78244B05009B5CEA
:1029B0008B43D5D103A80DF0E3FD03AB9C46022267
:1029C0001F496044013409F021FA802CD8D1022239
:1029D00028001C4909F01AFA03A9A81C0DF038FDBB
:1029E0000322194909F012FA184B19481A68194BB1
:1029F0001968330007F0F2FDFFF73AFF13B03CBC53
:102A000090469946A246AB46F0BD5346494603AAB6
:102A1000009408A807F0E2FD300008A90DF03CFD85
:102A20006B461D73B1E7C046B0600220E85201203A
:102A30000454011018560110205601109570011011
:102A40005451011068600110EC570110942E0120C0
:102A5000946C0220D80F012010B50F4C84B0A268EE
:102A6000206803AB1A704242504101224042904319
:102A70006168A33001F0B6F9084B09481A68094BA0
:102A8000196863680193A3680093074B07F0A6FDDC
:102A9000FFF7EEFE04B010BD94A60220942E012094
:102AA000946C0220DC0F01202C560110F0B5574623
:102AB000DE464E4645460023E0B5354F95B002AAA6
:102AC0003B70137380339B46324B04009946324B64
:102AD00003919A460F23834498460FE0483902AB8E
:102AE0005B181A700023013102AA521805A80AA91E
:102AF000013413700DF0D0FC5C4526D045464346AA
:102B00002540234235D04B4651461A5D0AA81D196F
:102B100007F064FD38000DF033FD0AA938180DF0F8
:102B200097FC68212A781D4B06009B5C8B43D5D10E
:102B300005A80DF025FD05AB9C460222184960440E
:102B4000013409F063F95C45D8D1022230001549FF
:102B500009F05CF905A9B01C0DF07AFC03221249BA
:102B600009F054F915B03CBC90469946A246AB46D4
:102B7000F0BD039B0D4905AA00940AA807F02EFD9D
:102B800038000AA90DF088FC02AB1D73BBE7C046F4
:102B9000B0600220E8520120045401109570011029
:102BA0005451011068600110EC57011020560110BB
:102BB000084B10B518680849FFF778FF074B08481D
:102BC0001A68084B1968084B07F008FDFFF750FE1C
:102BD00010BDC04694A6022018560110942E012064
:102BE000946C0220D80F0120B060022010B5064B73
:102BF00006491868FFF75AFF0549064807F0EEFC3A
:102C0000FFF7D8FB10BDC04694A60220EC57011078
:102C1000B0600220946C022010B52E4B020019689F
:102C20002D480160998881809B7983712B4B19789D
:102C3000FF2935D00A4234D19978FF2930D00A4291
:102C400032D11979FF292BD00A4230D19979FF2945
:102C500026D00A422ED1197AFF2921D00A4201D06A
:102C6000597A0171997AFF291AD00A4201D0D97A8A
:102C70004171197BFF2913D00A421ED1997BFF298C
:102C80000ED00A421CD1197CFF2909D004000A4247
:102C900019D0597C0134E171997C0233FF29F6D1B6
:102CA00010BD59780170C7E7D9784170C9E75979E3
:102CB0008170CBE7D979C170CDE7597B8171DDE7B0
:102CC000D97BC171DFE7997C01340233FF29DED162
:102CD000E6E7C04608560110E00F0120200B002057
:102CE000F0B5DE4657464E4645460023E0B587B070
:102CF000C64C0593C64B20681B6883420BD011223B
:102D0000C44B9A56597C002A05DBC34A157A102217
:102D10002A4200D1FAE0C14B9A461B68012B00D130
:102D2000CDE0BF4B0A211A6801321A60186807F01B
:102D3000E7FC00290CD1BB4C2368002B00D098E0A5
:102D400020210320FEF73AF923685A4253412360B9
:102D5000B54DB64E2A6833689A421BD0B44BB54F76
:102D60009946B54B9846202304AA13802B68B34993
:102D70005A1C2A60FC5C04ABE4B228681C7007F0A3
:102D8000BFFC2960142C79D0002C63D12A683368E9
:102D90009A42E8D1AA4B1C68002C00D0C8E0A44B92
:102DA000A84A99461B78D35C1B071FD5A24B4F46F8
:102DB0009A461D68A44B984601234B449B465346B4
:102DC000A2461C002A005946404609F01FF82A0076
:102DD0004146380009F01AF89A4A3B786E1ED35CD7
:102DE0000822350026601A42ECD15446974D0DE07A
:102DF000022B07D12000AB689847002802D02000A2
:102E0000EB68984701341035262C0CD02B78012B19
:102E1000EED14846696800F093FD0028EFD10134F7
:102E20001035262CF2D18A4B1A68002A40D0894EE0
:102E30003268002A00D0D9E0874C884D20684200D3
:102E400011188900695C062900D9BAE0844F89000D
:102E500079588F46484604A90DF01EFB434642466A
:102E60001B68013313602A6833689A4200D07AE7FE
:102E700090E703205731FEF7A1F865E753461B683A
:102E80000321581C07F03CFC5346764D0C0019609A
:102E90000C222800744908F0B9FF012C00D193E0FE
:102EA000022C00D19CE0002C00D193E0FFF782FAC5
:102EB00007B03CBC90469946A246AB46F0BD6B4B72
:102EC0001C68002C00D02CE7694B1E68694B196800
:102ED00099468E4200D124E7674B7F279846614D83
:102EE0002C70013D4346481C5B5CFA2101343B4099
:102EF0002B55890007F004FC8E42F3D14B461E602F
:102F0000002301352B55FFF755FA0AE70A4200D195
:102F100001E7FA21594A8900125C01309A7407F0DE
:102F2000EFFB2160FEF73CF85548FEF7C9FAF2E6E0
:102F3000544B99461B68002B2DDD3F4A3C4E1468CC
:102F40000293E31A0193731C92469B463E4F0394EF
:102F5000002CADDD3378220059463800984608F041
:102F600055FF22003900300008F050FF5346464A12
:102F7000651E1D601368591C11604146434AD154B7
:102F8000029B039A013B9B1A4A461B191360019A44
:102F90002C00AA42DCD1002B00D089E7284A13601C
:102FA0003B4B1B68984783E713189B00EB189B6803
:102FB0009847206843001B189B00EB5C042B00D152
:102FC00076E70130206073E710222800314908F0CD
:102FD0001DFF6BE7092228002F4908F017FF65E75E
:102FE0000E2228002D4908F011FF5FE705F0C0F818
:102FF0002B4A53688B4200D95AE703D113688342A6
:1030000000D955E70023336052E7C046342E012033
:10301000302E0120E85201206C5201202C2D01207D
:10302000942E0120E80F0120403301203C33012081
:10303000F09D022008840220243301208813000020
:10304000502E012095700110387C0220B45D0110D3
:10305000D0340120C8340120CC340120EC0F0120F1
:1030600070560110946C0220345601106034012017
:10307000442E0120482E0120C85C022080680220D6
:10308000F0FF00003C2E0120347C0220F854022086
:10309000EC9D02204C560110405601105C56011068
:1030A00028290120414D2F78002F8AD0404B0D2137
:1030B00002269E5F002398468C46202241463D4BC7
:1030C00000290FD1BE4214D099690A42FCD11F6079
:1030D000297801350D394F4279412F78C9B2002F37
:1030E000EED16EE799690A42F1D099690A42F9D1A5
:1030F000EDE799690A42FCD161461960E4E70022D4
:103100001A60D5E62C4B984613189B00EB1805AABD
:10311000414658680DF0FCF80123336005F028F8AB
:10312000059A53019B1A9B009B18DB001E00DF17BA
:1031300080197941214B186059604146204807F0B9
:103140004DFA36E713181F4F9B00EB1838005968EB
:1031500007F044FA3E78002E00D12AE7144B3800DD
:1031600002229B5E002120220D279C46114B002944
:103170000FD1B44514D099690A42FCD11E60017880
:1031800001300D394E4271410678C9B2002EEED1A0
:103190000FE799690A42F1D099690A42F9D1EDE73E
:1031A00099690A42FCD11F60E5E7C046946C022091
:1031B000D8AA0220008003406C5601102829012063
:1031C000D49D0220CCA50220F0B5C64600B5954D91
:1031D00082B02B68002B1CD1934C2368002B00D0AD
:1031E0007CE0924C2368002B00D090E0904C236848
:1031F000002B00D0A2E08F4C2368002B00D0B4E05D
:103200008D4D2B68002B00D0E9E002B004BC904645
:10321000F0BD002398466B46424601AC1A7001216E
:103220006A46DE2000F024FB802622000121DF20F8
:1032300000F066FA42462378764233432270022138
:103240002200DE200D27637000F012FB6B466A46F9
:103250000121DE201F7000F00BFB22000121DF2086
:1032600000F04EFA2378220033430221DE206370FF
:10327000277000F0FDFA6B466A460121DE201F70C0
:1032800000F0F6FA22000121DF2000F039FA23785D
:1032900022001E430221DE2066702770072600F000
:1032A000E7FA6B466A460121DE201E7000F0E0FA64
:1032B00022000121DF2000F023FA7F23227802215F
:1032C0001340DE2022006370267000F0D1FA4346DE
:1032D000554C2B602368002B00D182E76B460025FC
:1032E0006A460121DE2001AE1D7000F0C1FA3200F5
:1032F0000121DF2000F004FA7F233278256013409B
:103300004A4C4E4A13602368002B00D16EE701231C
:103310006A460121DE2001AD137000F0A9FA2A00EF
:103320000121DF2000F0ECF9454B2A781A600023D8
:1033300023603F4C2368002B00D15CE702236A46E0
:103340000121DE2001AD137000F092FA2A00012164
:10335000DF2000F0D5F93B4B2A781A600023236068
:10336000344C2368002B00D14AE76B4600266A469E
:103370000121DE201E7000F07BFA012101AADF206E
:1033800000F0BEF96B461A797F232F4D13402F4A68
:103390000121AB5401236A46DE20137000F068FA65
:1033A000012101AADF2000F0ABF96B461A79284B06
:1033B0000121EA5402236A46DE20137000F058FA15
:1033C00001AA0121DF2000F09BF96B461A79214BFD
:1033D0002660EA54184D2B68002B00D115E7002712
:1033E000194E1A4B01ACF35C22000221DE206370FF
:1033F000277000F03DFA0122154B0221F35CDE201C
:1034000022702200637000F033FA0222114B022175
:10341000F35CDE2022702200637000F029FA2F6036
:10342000F3E6C04654340120343401203034012006
:103430002C34012058340120503401204C34012018
:103440004834012044340120E8520120CA20000001
:10345000C9200000C8200000014B18607047C0461A
:10346000041201200123154A84B01268934001928E
:10347000D02212065362936100230393039B042B13
:1034800005DC039B01330393039B042BF9DD01232C
:103490000B4A126893400192D02212065362936144
:1034A00000230293029B042B05DC029B0133029351
:1034B000029B042BF9DD04B07047C0463051011067
:1034C0002C51011001221B4B86B01B689A400193BE
:1034D000D0231B065A629A6100230593059B042B97
:1034E00005DC059B01330593059B042BF9DD0123C6
:1034F000114909688B400191D02109068B62002394
:103500000493049B042B05DC049B01330493049B6C
:10351000042BF9DDD0231B069A6200230393039B3F
:10352000042B05DC039B01330393039B042BF9DD80
:1035300006B07047305101102C510110012170B5B7
:103540000C00324BD0221B6808259C40304B0026D3
:103550001B6888B099400193120643B2002B51DBDF
:10356000546294610596059B042B05DC059B013391
:103570000593059B042BF9DD91620496049B042BB3
:1035800005DC049B01330493049B042BF9DD516299
:1035900091610396039B042B05DC039B013303938A
:1035A000039B042BF9DD4000013DC0B2002DD4D1B6
:1035B000D0231B069C6299620695069B042B05DCB2
:1035C000069B01330693069B042BF9DDD020642370
:1035D000000602E0013B002B16D042682242F9D1DE
:1035E0000120D0231B065962996100230793079B92
:1035F000042B05DC079B01330793079B042BF9DDA4
:1036000008B070BD9462ADE70020EAE730510110C8
:103610002C510110F0B50125374B474688461968F3
:103620002B00D0228B40CE46120680B5994693627D
:10363000324B84461B6808279D4000240026012049
:1036400089B001930596059B042B05DC059B01338E
:103650000593059B042BF9DD95620496049B042BCE
:1036600005DC049B01330493049B042BF9DD5368B0
:103670006400CB4055620340956103961C19039B7F
:10368000042B05DC039B01330393039B042BF9DD1F
:10369000013F002FD6D14346002B28D0D0234A46E5
:1036A0001B065A629A61D0231B069D620023079372
:1036B000079B042B05DC079B01330793079B042B17
:1036C000F9DDD0231B065D629D6100230693069BF6
:1036D000042B05DC069B01330693069B042BF9DDC6
:1036E00063461C7009B00CBC90469946F0BDD023CF
:1036F0004A461B069A62D6E7305101102C51011040
:10370000F0B546464F46D6460123C0B51700564A87
:103710008AB012680E0093409846D0230192424628
:103720001B065A629A6100230293029B042B05DC5C
:10373000029B01330293029B042BF9DD01234B4AC8
:10374000126893409946D02301924A461B065A625A
:103750009A6100230393039B042B05DC039B013335
:103760000393039B042BF9DDFFF7E8FE002846D006
:10377000002E0FDD731E9A46002406AD5346191B1A
:103780004B1E99412800FFF745FF2B783B5501342C
:10379000A642F3D1D02342461B065A629A61002307
:1037A0000793079B042B05DC079B01330793079BBB
:1037B000042BF9DDD0234A461B069A6200230893A6
:1037C000089B042B05DC089B01330893089B042B02
:1037D000F9DDD02342461B069A6200230993099B18
:1037E000042B05DC099B01330993099B042BF9DDAC
:1037F00001200AB01CBC90469946A246F0BDD023D9
:1038000042461B065A629A610490049B042B05DC15
:10381000049B01330493049B042BF9DDD0234A4617
:103820001B069A6200230593059B042B05DC059B70
:1038300001330593059B042BF9DDD02342461B067B
:103840009A6200230693069B042BD2DC069B01336D
:103850000693069B042BCCDC069B01330693069B48
:10386000042BF3DDC5E7C046305101102C51011087
:10387000F0B50125304B89B01B680F009D400193C6
:10388000D0231B065D629D6100230393039B1400FC
:10389000042B05DC039B01330393039B042BF9DD0D
:1038A0000126264B1B689E400193D0231B065E62B7
:1038B0009E6100230493049B042B05DC049B0133CD
:1038C0000493049B042BF9DDFFF738FE002F06DD7F
:1038D000E71920780134FFF731FEA742F9D1D02350
:1038E0001B065D629D6100230593059B042B05DC8F
:1038F000059B01330593059B042BF9DDD0231B06A3
:103900009E6200230693069B042B05DC069B013375
:103910000693069B042BF9DDD0231B069D62002332
:103920000793079B042B05DC079B01330793079B39
:10393000042BF9DD09B0F0BD305101102C510110FC
:10394000F0B54546DE4657464E460024E0B50D002C
:10395000BF4B93B01C60BF4B01911C60BE4B070076
:103960003C220021BD4898461C6008F049FABC4B37
:103970001C701C752B78002B5ED000220292B94A75
:103980000024002693463900009709783200002968
:1039900018D0202B21D0252B32D00136013499426A
:1039A00013D1434642461B6801331360019B0294C6
:1039B0001B5D002B40D0BA1911000978009232002B
:1039C0000029E6D1202B00D1B7E1002013B03CBC88
:1039D00090469946A246AB46F0BDA34B01345B5CD2
:1039E0001B07E3D54346082118684546013683196D
:1039F0009B1A2B60BB5D9C4DEB5C1942F5D1D5E762
:103A0000019B621C994618009B5C9144002B00D1DD
:103A1000B0E15B2B7DD011D8252B72D10136252941
:103A2000D3D1434642461B68023401331360019BE5
:103A300002941B5D002BBED10120C7E7642B01D08F
:103A4000782B5ED101220020874D00921FE0782B59
:103A5000BBD14421BB5DEA5C114200D175E120225B
:103A600006A98A800B7110220301002107A89A463B
:103A70000CF07AFF5044434642461B68013601333E
:103A80001360BB5D002B00D136E14B461B78642BE5
:103A9000DDD1754ABB5DD15C04220A4222D12D2BB7
:103AA00000D121E1002E00D18FE7BB19013B1B782B
:103AB0006D49C95C0A4202D12D2B00D085E7644BC9
:103AC00063491B685A1C0A6000999B004143080027
:103AD0006249C8500E2A00DD43E10234019B029482
:103AE0001B5D66E7202206A98A800B712D2B0CD066
:103AF00083001818430007A89A460BF07FFB504438
:103B0000B9E71400009902923FE701235B4200935A
:103B1000B1E7504B00221B6851499A469B00029323
:103B200053449B00CA54019B1B199A78002A00D168
:103B30004BE70198023406A900230731001908E079
:103B4000262B00D141E70133CA54C25C002A00D1C0
:103B50003BE7E5185D2AF3D10595262B00D134E724
:103B6000002208ACE254E3185A705B4620001A6049
:103B70000CF006FD002822D00023012503960497AF
:103B800014E05E1CA15D2D2972D05B46374F1B6887
:103B9000B9465900C9188900CD5549444A608A6020
:103BA0005A46013313603300834206D2E25C5E2A38
:103BB000E7D1013302258342F8D3039E049F009B83
:103BC0001A78002A3AD02649029B894653449B0022
:103BD00099445B461D683B0007AC57469A4619E07E
:103BE00059688A4202DB99688A4220DD022F00D19F
:103BF000EBE6002321004846637022700CF04CFC79
:103C0000434642461B6801360133136053469A5DB2
:103C1000002A11D0002D0EDD0020144B1978012947
:103C2000DED159688A4202DB99688A42DEDD0130C2
:103C30000C33A842F2D15346BA461F005346054AF8
:103C4000059C013313600134019B02941B5DB0E6B7
:103C5000743301207C3301207833012094A60220A4
:103C6000C0A702208033012095700110D0A6022049
:103C70009E1CA75DB946002F25D15F465B463F6875
:103C80001B68B9465B0099444B469B009946EAB2D3
:103C900013004F463B4ABB544A44516091605A4618
:103CA0001268384F0132914652004A44B946920098
:103CB000D3555B464A44516091605A461B680233B3
:103CC0001360330070E759462E4F0968BC464E001A
:103CD0007618B600F555664472604A46B2605A4698
:103CE0000131116003335FE7202107AA11801370AF
:103CF00001235B420093BEE6019A029B9446634413
:103D00009B78002B00D060E61F4B1F491B685A1C94
:103D10000A6000999B00414308001C49C8500120DB
:103D20000E2A00DC52E61A4B1A490020196061463F
:103D3000194B1960194B1A6048E6029A019B944688
:103D4000634458784342584140E6002E00D13CE697
:103D50004422BB19013B1B78EB5C1A4200D0AEE653
:103D600033E60B4B0B4919600B4B019919600B4B58
:103D70001A602AE6064B0A4A1A60074B18600020B0
:103D800024E6C046D0A602207433012094A6022067
:103D900008120120146001100C1201207033012060
:103DA00020600110F0B5040083B00D481F0016001C
:103DB0000D0008F0DDFA0F20FFF74EFBFE2001AAF0
:103DC0006DBA158020400221FFF752FD01202043EB
:103DD0003A003100C0B2FFF793FC03B0F0BDC0461B
:103DE0003C600110F8B5070012480E0015001C00D9
:103DF00008F0BEFA0F20FFF72FFBFFF733FBFE2082
:103E00003840FFF79BFB3012C0B2FFF797FBF0B2D0
:103E1000FFF794FB002D06DD651920780134FFF7CC
:103E20008DFBAC42F9D1FFF74DFB042004F0B2F852
:103E3000F8BDC0463C600110F8B53B4B4E46994674
:103E40008422574645460023DE464946FF32E0B508
:103E50008B54013A8B54354B4C469A4680235B0277
:103E6000CB4600250027984680345B461A780133FC
:103E7000BF18BFB2A342F9D180222900504608F0F2
:103E800077FA0F20FFF7E8FAFFF7ECFAA020FFF728
:103E900055FB2812C0B2FFF751FBE8B2FFF74EFB0B
:103EA0005E4630780136FFF749FBA642F9D1FFF7AD
:103EB00009FB042004F06EF8802334009C46803512
:103EC000E34480344545D0D1194BC1241F8084255B
:103ED0004B463A0A640021001A55FF35022250462B
:103EE0005F5508F045FA0F20FFF7B6FAFFF7BAFA68
:103EF000A020FFF723FB0120FFF720FB8220FFF724
:103F00001DFB4B46185DFFF719FB4B46585DFFF74D
:103F100015FBFFF7D7FA042004F03CF83CBC9046B0
:103F20009946A246AB46F8BDE85201203C6001101C
:103F3000D43401208022F0B5274C94462300574604
:103F40004E464546DE466344E0B599461E000023D2
:103F50009846224B00259B4680235B029A4683B0FD
:103F600001AF80224146584608F002FA0F20FFF7C1
:103F700073FA43463A000221A0205BBA3B80FFF768
:103F800077FC22008021A120FFF7BAFB23780134BF
:103F9000ED18ADB2A642F9D180239C46E0444C46D0
:103FA0008036D04501D0E144DBE7C1230A4A5B00FB
:103FB000D35C84220849FF32895C1A025B18ED1A2F
:103FC0000748084B8A1802801D8003B03CBC90460D
:103FD0009946A246AB46F0BDE85201203C60011074
:103FE000D8340120D634012000230121034A136074
:103FF000034B19601368002BFCD07047102F012071
:10400000082F012010B51C4C2368002B04D11B4C39
:104010002368002B19D110BD01210120184AFCF79B
:104020003DFEFCF7D5FF00232360FFF705FF0122CB
:10403000144B01211A600320134AFCF72FFEFCF7F2
:10404000C7FF0E4C2368002BE5D0012101200F4A49
:10405000FCF724FEFCF7BCFF00232360FFF76AFF98
:1040600001220B4B01211A6003200A4AFCF716FEBD
:10407000FCF7AEFFCFE7C046082F01200C2F012030
:1040800054600110102F0120606001106C6001105D
:10409000142F01207C6001107047C0460120034BA3
:1040A00003491A68126808601A60704710120120EC
:1040B000883301200122034B1A60034B034A1A6024
:1040C0007047C04688330120101201205C12012085
:1040D0000122034B1A60034B034A1A607047C04623
:1040E00088330120101201201C1301200122034BF0
:1040F0001A60034B034A1A607047C0468833012098
:10410000101201202C1201200122034B1A60034BD4
:10411000034A1A607047C0468833012010120120FC
:10412000981201200122034B1A60034B034A1A60C4
:104130007047C0468833012010120120E012012090
:104140000122014B1A607047583401200122014BB3
:104150001A6070475034012030B589B0FCF7CAFDB1
:10416000002100200F4AFCF799FD0F4DFCF734FAAF
:1041700002F006F8431CF9D001F0D8FF2900020034
:1041800004000300009003A806F028FA0121002093
:1041900003AAFCF771FD012CE8D1044B1C6009B0A7
:1041A00030BDC0468C6001109C6001108833012036
:1041B00010B5FCF757FE10BD802110B55022A3208A
:1041C000024B4901FFF70EFE10BDC046E773012008
:1041D0008422112110B50E4BFF3299547231FF31F8
:1041E0005A5CA02001325A545B180222FFF7FAFDF4
:1041F000FCF780FD074A00210020FCF74FFDFCF78B
:10420000EBF9054803F0C6FE0122044B1A6010BD0D
:10421000E8520120B0600110B80B00008833012083
:10422000802110B55022A320024B4901FFF7BAFDAF
:1042300010BDC046E773012000B595B06B46502213
:104240000649A120FFF7AEFD80216B4650224901AF
:10425000A220FFF7C7FD15B000BDC046FF2000003B
:10426000F0B5DE46454657464E46E0B583B0FCF70E
:10427000D9FB002500242000012229000134FCF78D
:1042800015FC792CF7D10A35282DF3D1002500240F
:104290002100012228000134FCF708FC1F2CF7D173
:1042A0000A35822DF3D1FA20C00003F073FEFCF72B
:1042B000B9FB00239B468B4B9D2500930193012363
:1042C00001279A4699465B466D007F42AB46002621
:1042D000B8461D00844C310028000022FCF7E6FBA4
:1042E000414650460022FCF7E1FB49465046002279
:1042F000FCF7DCFB414638000022FCF7D7FB4946BF
:1043000038000022FCF7D2FB009A019B94465B44E4
:104310001800A44464216646019306F0F1F9642173
:1043200005003000009606F0EBF9060001000122BE
:104330002800FCF7BBFB6A1C9246721E9046504652
:1043400001224146FCF7B2FB721C91465046012205
:1043500049466F1EFCF7AAFB012241463800FCF7D4
:10436000A5FB012249463800FCF7A0FB019B5F4AF0
:1043700093423BDD5B46D804C01A8000C01AC000DF
:1043800058448001C01A8000C01A594906F0B8F993
:10439000009B83461A00C8231B019A4258DDE004A3
:1043A000001B8000001BC00000190001001BC000A2
:1043B00000194F49400006F0A3F94C4B040001934B
:1043C000C8231B010093FCF707F901F0D9FE431C39
:1043D00081D001F0ABFE012878D0062872D00528E4
:1043E0006BD164235B429C46E34474E7009B1A0054
:1043F000C8231B019A4246DDE004001B8000001B1D
:10440000C00000190001001BC0000019384940001D
:1044100006F076F9019B04001A0096235B009A428D
:104420005BDA5B46D804C01A8000C01AC00058444A
:104430004001C01A800058442D49400006F060F940
:1044400096235B000193C8231B0183460093BAE7C0
:10445000264B0193009B1A0096235B009A42B2DA26
:10446000E004001B8000001BC00000190001001BBD
:10447000C00000191E49400006F042F996235B0077
:10448000040000939FE7019B1A0096235B009A4269
:10449000E0DA5B46D804C01A8000C01AC000584455
:1044A0004001C01A800058441149400006F028F924
:1044B00096235B0083460193CCE7032800D00AE7EC
:1044C000643408E764239C46E34404E703B03CBC3F
:1044D00090469946A246AB46F0BDC8231B01009307
:1044E00071E7C0468813000041020000D43000008C
:1044F0001027000010B5024B186801F06FFB10BDCB
:104500001412012010B50B4807F032FF32240420AA
:10451000FBF734FF012003F03DFD0420FBF78AFF89
:10452000013C012003F036FD002CF0D1024807F0D9
:104530001FFF10BDBC600110C4600110F0B5DE4665
:1045400057464E464546E0B5BC4893B007F010FFCD
:104550000A2007F065FDBA4807F00AFF0A2007F0B5
:104560005FFDB84807F004FFB74807F001FFB74800
:1045700007F0FEFEB64807F0FBFEB64CFCF752FA19
:10458000B54B0C930D94002311930023B34C0A9365
:104590000B940023B24C029303940523B14C9B4629
:1045A000B14B0E930F9400231093FCF715F85B4664
:1045B000002B00DC99E00E980F99AC4B002206F01E
:1045C00046FB00239A4608900991504606F0B8FB36
:1045D0000A9E0B9F32003B0004000D0006F010FB0A
:1045E000A34A04900591A34B2000290006F02FFB5D
:1045F0003B00320006F004FB002300249946984655
:1046000000232500009301941C0006900791049A52
:10461000059B2000290006F0F3FA069A079B040088
:104620000D000098019906F0EBFA06000F0020003B
:10463000290006F03DFC009001913000390006F0A1
:1046400037FC02000B000098019906F0D9FA00909F
:1046500001912000290006F015FC04000D00300037
:10466000390006F00FFC02000B002000290006F0C4
:10467000C7FA040048460D0006F062FB089A099B41
:1046800006F046FB07000022781E87417A4B200087
:10469000290006F0DCFA0022784B06F0D8FA002256
:1046A000764B06F0ADFA06F063FB06000098019920
:1046B0000022714B06F0CBFA029A039B06F0C7FA70
:1046C000029A039B06F09CFA06F052FB3A00310076
:1046D000FCF7ECF901239C46E044D144D84596D13F
:1046E000E2445346642B00D06FE70C9A0D9B0A9866
:1046F0000B9906F085FA0A900B9101F041FD431CDD
:104700000FD001F013FD012832D0062827D005284C
:104710000ED1029803990022574B06F098FA0290A6
:104720000391119B002B00D13FE7FCF77BF93CE79D
:104730004E2868D0482862D054285CD02B283ED11F
:10474000109B012B2BD0022B19D001239C46E34454
:1047500059464B4807F00CFE00231093E1E70298FE
:10476000039902000B0006F04BFA02900391D8E780
:1047700013B03CBC90469946A246AB46F0BD414AB8
:10478000414B0E980F9906F03BFA02000B003F4890
:104790000E920F9307F0ECFD02231093C1E7394A04
:1047A0003B4B0C980D9906F02BFA0A9A0B9B0C9038
:1047B0000D91384807F0DCFD01231093B1E72D2857
:1047C00012D1109B012B2BD0022B20D10E980F99C8
:1047D0002C4A2D4B06F00BFA02000B002B480E92D0
:1047E0000F9307F0C5FD9CE720289AD10123119A69
:1047F0005A40119295E7284807F0BAFDDCE72748B0
:1048000007F0B6FDC8E7264807F0B2FDA4E701238C
:104810005B429C46E3445946194807F0A9FD80E7EE
:104820000C980D99174A1A4B06F0E1F90A9A0B9B5E
:104830000C900D91174807F09BFD72E7D0600110B6
:10484000F0600110146101105461011074610110D5
:104850008C6101109999993F9A9999990000344077
:10486000000050406666E63F6666666600407F4030
:104870009A4B2352916305400000E03F0000304016
:10488000B06101107B14AE47E17A943FC061011022
:10489000E17A743FB8610110C8610110D461011060
:1048A000E06101107047C0467047C0467047C0467F
:1048B0007047C0467047C0467047C046264BF0B5AB
:1048C00047469846C823CE465B010024994680B5EA
:1048D000224E234F234D91B06B4640222100A3204E
:1048E000FFF760FAFCF706FA6B4600211A78002001
:1048F000FCF7E6F96B4600215A1C0520FCF7CEF9BF
:1049000011236B441A0001210020FCF7C7F940462F
:1049100007F02EFD6B463800197807F029FD6B462D
:104920003000591C07F024FD11236B4419002800A6
:1049300007F01EFDFBF750FE01F022FC431CF9D0EE
:1049400001F0F4FB012802D040344C45C4D111B031
:104950000CBC90469946F0BDEC610110006201105C
:10496000F46101100C620110F0B599B000236A46A1
:104970001370FCF7BFF9334D00212A000020FCF72B
:104980008DF96846FCF724FA00272026FBF724FE61
:1049900001F0F6FB431CF9D001F0C8FB040001282C
:1049A0001CD00D2821D068460BF0EAFD1D28EDD85B
:1049B0006B4620221E849B18190068441C700BF063
:1049C000D7FDFCF797F92A0000210020FCF766F9D3
:1049D0006A4600210520FCF761F9D7E76B461B7892
:1049E000002B28D1184B186023E0184807F0C0FCB2
:1049F000002408AD02E00134642C1FD0A6012B0076
:104A000040223100A320FFF7CDF92B782A2BF2D0DA
:104A100021000F4807F0ACFC21202A236946684496
:104A20002B700BF0A5FD2B0040223100A220FFF7D8
:104A3000D9F919B0F0BD6B461F70C2E7054807F001
:104A400097FCF6E7186201108833012020620110FC
:104A5000346201104C620110F0B5DE4657464E46F6
:104A60004546E0B5A9B000236A461370FCF742F949
:104A70008D4F00213A000020FCF710F96846FCF742
:104A8000A7F98A4B00249946894B00269A46894B00
:104A90009B46FBF7A1FD01F073FB431C00D1A6E090
:104AA00001F044FB0500012851D00D2800D192E00F
:104AB000002E00D17AE07E4B1800984607F058FC93
:104AC000632C03DD52E00134642C4FD0A10118ABFC
:104AD0004022A320FFF766F961236B441900684662
:104AE0000BF002FD0028EED1402218A908A807F01B
:104AF0008DF9584607F03CFCFCF7FCF83A00002121
:104B00000020FCF7CBF82122002105206A44FCF7A5
:104B1000C5F83122012100206A440134FCF7BEF8B7
:104B2000FBF75AFD01F02CFB431CF9D001F0FEFA13
:104B3000012800D188E00D28F2D1FBF74DFD0126B8
:104B400001F01EFB01F0F2FA05000128ADD16B4621
:104B50001B78002B00D08FE00122574B1A6029B040
:104B60003CBC90469946A246AB46F0BD484607F08D
:104B7000FFFB00236A461370FCF7BCF83A000021E3
:104B80000020FCF78BF86A4600210520FCF786F828
:104B9000FBF722FD01F0F4FA431C6AD001F0C6FADB
:104BA0000500012878D00D2879D0002420239846CC
:104BB00068460BF0E5FC1D282DD9FBF70DFD01F033
:104BC000DFFA431C25D001F0B1FA002605000128C8
:104BD000BDD00D28ECD15046D04607F0C9FB002EC1
:104BE00000D06DE7354807F0C3FB00246EE7002EC8
:104BF00000D055E7FBF7F0FC01F0C2FA431C00D0EF
:104C00004EE7FBF7E9FC01F0BBFA431C00D047E795
:104C1000F0E700263DE76A4660234146D21811803E
:104C20006A46D318190068441D700BF0A1FCFCF70C
:104C300061F83A0000210020FCF730F86A460021B4
:104C40000520FCF72BF8B8E700236A461370FCF741
:104C500051F83A0000210020FCF720F86A460021B4
:104C60000520FCF71BF80126FBF7B6FC01F088FADB
:104C700068E7002400260CE700236A461370FCF75F
:104C800039F83A0000210020FCF708F86A460021B4
:104C90000520FCF703F8FCE60024002657E7404611
:104CA00007F066FB9EE7C0465C620110946201104B
:104CB000646201108C62011088330120746201105B
:104CC000F0B5C646294B00B598461B68002B24D189
:104CD00001F056FA431C02D104BC9046F0BD01F02D
:104CE00025FA234B1C68237B262BF5D022000021BC
:104CF000183206E00C3213000C3B1B780131262BD6
:104D0000EAD08342F6D14B005918890064186369D0
:104D10009847012342461360DEE7002342461360B2
:104D2000FBF7E8FF124E31680B7B262B1AD00025CB
:104D30000023104F5B199C0009190869FCF77AF8E9
:104D4000336801359C4664442069FCF741F838001B
:104D5000FCF73EF86B0031685A1992008A18127BF2
:104D6000262AE7D18B689847B2E7C04688330120EE
:104D7000101201200854011070B504002500FBF743
:104D8000B9FF661C002100202278FBF799FF11353E
:104D9000320000210520FBF781FF2A0001210020BD
:104DA000FBF77CFF0B4807F0E3FA21780A4807F08D
:104DB000DFFA3100094807F0DBFA2900084807F05C
:104DC000D7FAFBF709FC01F0DBF9431CF9D001F03D
:104DD000ADF970BDEC610110F461011000620110C9
:104DE0000C620110F0B5C64600B598B0FBF782FF23
:104DF0001B4B002498462D251A4F1B4E220041467E
:104E0000684605F0EBFB6A4600210020FBF746FFF1
:104E100020226B469B1820001D700A2105F070FCB3
:104E200021230A006B4439001800413205F0D6FBFB
:104E300031236B4422003100180005F0CFFBA101A3
:104E4000402208ABA220FEF7CDFF013408A8FFF7EF
:104E500093FF642CD2D118B004BC9046F0BDC0467C
:104E6000A8620110B0620110B46201100022044B6C
:104E70001A60044B01321A60034B044A1A607047EF
:104E80008433012088330120101201206413012093
:104E900010B5FFF715FF10BD1A4B70B51A680A213F
:104EA000501C186005F02CFC174A002910D17B23F8
:104EB000D156164BC80F1860154B5C689D68DE68AC
:104EC0001C601C695D609E60DC601861002907DB66
:104ED0007423D35C002B02D000220E4B1A6070BDED
:104EE000012CF5D13543F3D10A480368013303603F
:104EF000042BEDD108490C600B68002BFCD103603A
:104F0000E6E7C04678340120E852012074340120DD
:104F1000181201207C340120802E01200022014B38
:104F20001A60704710340120064B1A68110030399E
:104F3000392A01DD573A1100034A13681B010B435C
:104F40001360704744330120103401200122014BCB
:104F50001A6070472833012010B50100014807F09E
:104F600007FA10BDBC630110A522A62170B5154B30
:104F700015489A5C5E5C1202B618A72202319A5C50
:104F80005D5C1202AD18A92202319A5C5C5C1202CF
:104F9000A4180E4A0E499A5C595C12028918B6B2DE
:104FA00089B207F0E5F9ADB231000A4807F0E0F93F
:104FB000A4B22900084807F0DBF92100074807F0F0
:104FC000D7F970BDE8520120D063011065200000C0
:104FD00066200000E0630110F0630110006401101E
:104FE00070B50A2007F01CF8074C084D2600A836BB
:104FF0006268216828000C3407F0BAF9B442F7D18E
:105000000A2007F00DF870BDF413012010640110A0
:1050100070B50A2007F004F80B4C0C4E25008135C2
:10502000FF35626813782A2B03D03000217807F00F
:105030009FF90C34AC42F4D1054807F099F90A20E5
:1050400006F0EEFF70BDC0469C1401201C640110E8
:1050500028640110F0B5DE464E464546574680228C
:10506000E0B5264C0021A54410ABD200A320FEF7EA
:1050700099FE0A2006F0D4FF002302AD2B70204BCE
:10508000002499461F4B204E9846204B9A460CE030
:105090005146684605F0A2FA694628000BF0FCF973
:1050A00080230134DB009C421CD0194BE7180F23EE
:1050B0001A0022409346234208D068213A78B35C14
:1050C0008B43E5D12E236A461380E5E72900484645
:1050D00007F04EF95B4602AD210040462B7007F009
:1050E00047F9EAE70A2006F09BFF0A4B9D443CBCC7
:1050F00090469946A246AB46F0BDC046BCEFFFFFC6
:105100004C6401105464011095700110AC620110E0
:105110000000181044100000F0B5DE464E46574619
:105120004546E0B50A2091B006F07AFF00236A46B2
:1051300013728023234E9B003468E3189C4237D2BD
:10514000214B224F9846224B9B46224B9A46224B9C
:10515000994610E02A004946684605F03FFA69463C
:1051600002A80BF099F9802292009446336801342A
:105170006344A3421CD90F231D00254023420CD0B9
:1051800025784046290007F0F3F868227B5D9343B9
:10519000E0D12E236A461380E1E702A9584607F0C2
:1051A000E7F86B46210050461D7207F0E1F8E7E78B
:1051B0000A2006F035FF11B03CBC90469946A24645
:1051C000AB46F0BD10340120C06201109570011093
:1051D0004C6401105C640110AC62011010B584B025
:1051E00001AB1900074A11CA11C1108808809278D2
:1051F000A3208A70044A11680A22FEF7F3FD04B066
:1052000010BDC0466464011010340120F0B5DE46C4
:1052100057464E464546E0B5214B89B09B461B6834
:10522000002B32DD1F4B002499461F4B98461F4A26
:105230006300D55A1E4A1F49165D1F4A1F48125D5A
:10524000ADB2D2B20692CA5AC75A4B461B5D91B252
:10525000DBB29A464B46185D0791C0B2FDF7DCFC05
:1052600053460799069AF6B2BFB204900393019190
:1052700033002100009240462A00029707F078F898
:105280005B461B680134A342D1DC0A2006F0C8FE4D
:1052900009B03CBC90469946A246AB46F0BDC0461C
:1052A000142D0120DC4801207064011048370120D2
:1052B000584501207C3F0120243D0120D44101209C
:1052C000F0B545464E46DE465746244BE0B51C68D1
:1052D000234B00259946234B89B09846224A630008
:1052E000D65A224A2249175D224A2348125DB6B295
:1052F000D2B20692CA5AC35A91B29BB29A464B4650
:105300001B5D0791DBB29B464B46185DFFB2C0B2F6
:10531000FDF782FC5B46039353460799069A049077
:10532000029301913B00290000924046320007F0B1
:105330001FF89621601C490005F0E2F9962301351B
:105340000C005B009D42C9D10A2006F069FE09B03D
:105350003CBC90469946A246AB46F0BD182D0120B4
:105360002C44012070640110CC3A0120503E0120F1
:1053700084460120A0390120F034012010B50448F2
:1053800006F0F6FF01F0BEFC024806F0F1FF10BD8A
:10539000B0640110C0640110002110B5034B044833
:1053A000595606F0E5FF01F0ADFC10BDE9340120CF
:1053B000CC640110002170B5214D8CB06956214894
:1053C000413106F0D5FF03AA02A901A801F000FBB4
:1053D000039A01991C4806F0CBFF6B460021DC1CA8
:1053E0002300695604AA012001F000F800212300DF
:1053F0000320695604AA00F0F9FF002817D0134EC5
:10540000207801F0D1FA03AA02A901A801F0E0FA7C
:105410002278029B04A9300006F0AAFF0021230095
:105420000420695604AA00F0E1FF0028E8D1002119
:105430002300695604AA022000F0D8FF0CB070BD0A
:10544000E9340120DC640110F064011018650110DA
:1054500010B5FFF7AFFF10BD70B51B211D4806F05A
:1054600087FF1D4806F02EFE1B211C4806F080FF1A
:105470001B4C1C4D236828005A425341236006F000
:1054800077FF0A2006F0CCFD2368002B1FD11649B8
:10549000164806F06DFF0A2006F0C2FD144806F01B
:1054A00067FF144806F064FF134806F061FF1348D5
:1054B00006F05EFF124806F05BFF0A2006F0B0FD22
:1054C000280006F055FF0A2006F0AAFD70BD0D4920
:1054D000DEE7C046406501104865011054650110C3
:1054E000683401205C650110386501108865011081
:1054F000A0650110B4650110C4650110D8650110E4
:10550000F06501103465011070B51B211F4806F0CD
:105510002FFF1F4806F0D6FD1B211E4806F028FF6E
:105520001D4C1E4D236828005A4253411C4A2360DB
:10553000136859424B41136006F01AFF0A2006F027
:105540006FFD2368002B1FD11649174806F010FF86
:105550000A2006F065FD154806F00AFF144806F01B
:1055600007FF144806F004FF134806F001FF134834
:1055700006F0FEFE0A2006F053FD280006F0F8FEB5
:105580000A2006F04DFD70BD0D49DEE740650110B3
:105590004865011008660110683401205C6501103F
:1055A000643401203865011088650110A065011080
:1055B000B4650110C4650110D8650110F0650110D3
:1055C0003465011010B500240A2006F029FD064BB1
:1055D0001C5701F08BFB21000200044806F0C8FEB6
:1055E0000A2006F01DFD10BDE934012014660110EB
:1055F00000B587B001AA0AF08BFE01A800F0DAFF1F
:1056000007B000BD00B583B001AA07490AF080FECB
:10561000019BD8B201F0C8F9044B0548197806F08F
:10562000A7FE03B000BDC04634660110E43401207B
:105630003C66011000B5C3B002AB01AA0A490AF0EA
:1056400067FE019A02A9094806F092FE019BD8B2B2
:1056500001F0AAF902A80AF093FF010002A801F0E4
:1056600037FA43B000BDC0465066011060660110B5
:1056700000B5C3B06A4601AB07490AF049FE074BC3
:1056800007481A78074B196806F072FE02A801F065
:105690006FF943B000BDC04680660110E4340120BC
:1056A000886601101C2F012030B5D3B002AA0AF081
:1056B0002FFE094D094C06E0290012AA200006F031
:1056C00057FE01F031F901AA12A902A801F0C6F8AB
:1056D0000028F1D153B030BD3C690110AC66011017
:1056E00000B583B001AA0AF013FE019B58B201F085
:1056F00059FA0021034B0448595606F039FE03B00D
:1057000000BDC046E9340120BC66011000B583B07D
:1057100001AA0AF0FDFD019801F04CF9034B044881
:10572000196806F025FE03B000BDC0461C2F0120FD
:10573000CC660110002310B50B2488B0059301330B
:1057400006931333079306AB05AA009307AB0AF041
:10575000DFFD079B6C44D8B2207001F025F9059B52
:1057600058B201F01FFA2200069804AB03A900F01A
:10577000F9FF002813D007990B4806F0F9FD0399AB
:105780000A4806F0F5FD0499094806F0F1FD0021EC
:10579000084B0948595606F0EBFD08B010BD074804
:1057A00006F0E6FDF9E7C046E4660110F466011074
:1057B00004670110E9340120BC6601101467011070
:1057C00010B5034804F06EFF002103000020984745
:1057D0005542000010B5034804F064FF00210300A7
:1057E0000020984755420000344BF0B54E4699468C
:1057F0005746DE46454600234A46E0B51360304B27
:10580000304F9B46304B85B09846304B9A4600212E
:105810002F4B40461A782F4B595653461B6841313F
:1058200000935B461B6806F0A3FD6B4620229A811D
:1058300000233B70642006F0ADFD0400431CF9D04A
:105840000D2C10D01B2C0ED0200006F0E9FB3800E8
:105850000AF096FE8028EDD06B46381803A91C7319
:105860000AF086FEE6E700241B4D2E6830000AF0A1
:1058700087FE3900020030000AF0B6FE00280ED084
:1058800001340C350E2CF0D14B461B68002BBED0DA
:1058900005B03CBC90469946A246AB46F0BD6300BD
:1058A0001C190D4BA4009C466444A3683800616831
:1058B00098474B461B68002BA9D0E9E72833012005
:1058C0001C2F0120E8A902202867011014340120B0
:1058D000E4340120E9340120F413012030B51748E5
:1058E00083B006F0EFFB164806F042FD20236A461F
:1058F00093800023134D2B70642006F04BFD0400B1
:10590000431CF9D00D2C10D01B2C0ED0200006F01B
:1059100087FB28000AF034FE8028EDD06B4628185B
:1059200001A91C710AF024FEE6E7280000F042FEFF
:10593000054806F01DFD03B030BDC04648670110A4
:105940005C670110E8A90220C064011070B5734DB6
:1059500064202C68002C0DD006F01CFD0400431CB4
:1059600007D06F4E3368012B5AD0022B32D0002B58
:105970001CD070BD06F00EFD431CFAD069490B0027
:1059800003E001340C33202CF3D01A788242F8D192
:10599000654B186063001C19A40009198B689847AF
:1059A000624B6348196806F0E3FCE2E71B2867D006
:1059B000604D44B22C70631CDBD0FAF70DFE00235F
:1059C000EB560133D5D0FAF707FE0023EB5601332F
:1059D000F3D1CEE7432856D010DC412846D04228E8
:1059E00000D07AE00423534D2B70FAF7F5FD002325
:1059F000EB560133F9D100233360BAE744286CD168
:105A000005234C4D2B70FAF7E7FD0023EB560133CD
:105A1000F1D0FAF7E1FD0023EB560133F3D1EAE7C9
:105A20006D2850D006DC1B2815D05B2835D1022309
:105A300033609EE76F2830D13E4D2B70FAF7CCFDD6
:105A40000023EB560133D6D0FAF7C6FD0023EB5600
:105A50000133F3D1CFE700231B2137482B6033609C
:105A600006F086FC354806F083FC82E70323314DBF
:105A70002B70FAF7B1FD0023EB560133F9D1BAE7E9
:105A80000133336075E706232A4D2B70FAF7A4FD26
:105A90000023EB560133F9D1ADE70023254D2B70E0
:105AA000013305D0FAF798FD0023EB560133F9D105
:105AB00064B22C70631C9ED0FAF78EFD0023EB5667
:105AC0000133F9D197E702231A4D2B70FAF784FDC1
:105AD0000023EB560133F9D18DE70023154D2B70D0
