:020000041000EA
:1000000000B5324B212058609868022188439860DF
:10001000D860186158612E4B002199600221596106
:100020000121F02299502B49196001219960352056
:1000300000F044F80222904214D00621196600F024
:1000400034F8196E01211966002018661A6600F04E
:100050002CF8196E196E196E052000F02FF8012189
:100060000842F9D1002199601B49196000215960AB
:100070001A491B48016001219960EB211966A021F2
:10008000196600F012F800219960164914480160C1
:100090000121996001BC002800D000471248134993
:1000A000086003C880F30888084703B5996A0420EC
:1000B0000142FBD001200142F8D103BD02B5186610
:1000C0001866FFF7F2FF186E186E02BD00000240BE
:1000D000000000180000070000035F00212200005C
:1000E000F4000018222000A00001001008ED00E03C
:1000F00000000000000000000000000074B24E7A12
:1001000000200420F7010010C3010010C5010010F9
:10011000C1010010C1010010C1010010C101001097
:10012000C1010010C1010010C1010010C701001081
:10013000C1010010C1010010C9010010CB01001065
:10014000CD010010CD010010CD010010CD01001037
:10015000CD010010CD010010CD010010CD01001027
:10016000CD010010CD010010CD010010CD01001017
:10017000CD010010CD010010CD010010CD01001007
:10018000CD010010CD010010CD010010CD010010F7
:10019000CD010010CD010010CD010010CD010010E7
:1001A000CD010010CD010010CD010010CD010010D7
:1001B000CD010010CD010010CD010010CD010010C7
:1001C00000BE00BE00BE00BE00BE00BE00F04BF888
:1001D000103800BEF2EB8871EC630110146401105A
:1001E0003402001090A31AE700202149086006C8D5
:1001F00081F3088810471F48006800282FD10DA4FC
:100200000ECC002902D000F012F8F9E71A491B4A77
:10021000002000E001C19142FCD1194988471949E9
:1002200088471949884700BEFDE701C901C29A42C3
:10023000FBD3704714640110C0000020402501204A
:10024000948802100000042000000420948802100A
:1002500000100420001004200000000070470B482C
:1002600009F0E0F90047EFF30580C0B270470000E5
:1002700008ED00E0000000D04025012028AA02205F
:1002800045780010E9050010697900105756000004
:1002900006005250ABB36053D855011006005250BF
:1002A000861C0302E8550110060052505422A29DFC
:1002B000F855011005005250DE65F468948802106C
:1002C000F8B5C0460448054B10B5834203D0044B33
:1002D000002B00D0984710BD40250120402501206B
:1002E0000000000006480749091A8B10C90FC918F9
:1002F00010B5491003D0044B002B00D0984710BD17
:1003000040250120402501200000000010B5074CC9
:100310002378002B09D1FFF7D5FF054B002B02D026
:10032000044800E000BF0123237010BD60260120B7
:1003300000000000303E0110054B10B5002B03D02B
:100340000449054800E000BFFFF7CCFF10BDC046E0
:100350000000000064260120303E011010B5054861
:100360000AF0C6FF012006F0D5FD05F09BFB02F068
:10037000CDFDF7E7303E0110F0B54746CE4680B5DB
:10038000294B83B098461A88284B9A4240D043465E
:100390001B88D0251843434680B218801E888023CE
:1003A00080271B022D0601200021AB61FF0406F00F
:1003B00099FD1024B946B6B20FE08023DB016B61D2
:1003C0000120002106F08EFD013C012000216F611B
:1003D00006F088FD7600002C0BD04B460120AB6167
:1003E000002106F07FFD3304E7D48023DB01AB61FD
:1003F000E6E7D02380221B0612025A6143461A8880
:100400000A4B9A420AD003B00CBC90469946F0BD04
:1004100000230093009B002BFCD1B8E7002301933D
:10042000019B002BFCD1EEE7EE31012009200000FA
:10043000F0B5CE46474680B5284B83B0984240D0B1
:10044000274BD025984642461B888027834313803C
:10045000802316881B022D0601200021AB61FF04BA
:1004600006F040FD1024B946B6B20FE08023DB0150
:100470006B610120002106F035FD013C01200021C7
:100480006F6106F02FFD7600002C0BD04B4601204B
:10049000AB61002106F026FD3304E7D48023DB01A5
:1004A000AB61E6E7D02380221B0612025A61434665
:1004B0001A880A4B9A420AD003B00CBC904699465F
:1004C000F0BD00230093009B002BFCD1B8E7002374
:1004D0000193019B002BFCD1EEE7C04609200000F0
:1004E000EE310120F0B50124D0258440C646802796
:1004F0002D0600B50120AC610021AC6106F0F2FCD4
:100500007F036C610120002106F0ECFC082600242A
:10051000B8466B686400E4B29B0202D501231C4319
:10052000E4B2434601200021AB6106F0DBFC013E52
:10053000012000216F6106F0D5FC002EE9D12000DA
:1005400004BC9046F0BDC046F8B5DE4657464E4660
:100550004546E0B501263300D024834024060D0033
:1005600001200021A36117009B4606F0BBFC002F71
:1005700026DD7B1E9E408023DB04B0469946002684
:100580009A4610E08023DB0163610120002106F020
:10059000A9FC4B46012000216361013606F0A2FC54
:1005A0006D00B7420CD053460120A361002106F034
:1005B00099FC43461D42E5D18023DB01A361E4E7BA
:1005C000D0235A461B065A613CBC90469946A24627
:1005D000AB46F8BD10B502F00DFF03F029FE02F0A6
:1005E00095FC04F079FF10BD10B51B2084B005F018
:1005F00071FDD024802324061B0563620D206361F6
:1006000005F068FD0E2005F065FD0F2005F062FD88
:10061000162005F05FFD152005F05CFD1A2005F0A1
:1006200059FD132005F056FD142005F053FD12204E
:1006300005F050FD002005F04DFD012005F04AFDBC
:10064000022005F047FD032005F044FD042005F0DD
:1006500041FD052005F03EFD062005F03BFD07208D
:1006600005F038FD01220021002005F01BFD0122CC
:100670000021012005F016FD01220021022005F0D5
:1006800011FD01220021032005F00CFD01220021B3
:10069000042005F007FD01220021052005F002FDE0
:1006A00001220021062005F0FDFC01220021072087
:1006B00005F0F8FC0A2005F00DFD0B2005F00AFD01
:1006C0000C2005F007FD112005F004FD102005F0B9
:1006D00001FD00220121102005F0E4FC002201218F
:1006E000112005F0DFFC80238022DB019201636290
:1006F000A262636280231B0263628023DB03636266
:1007000080239B03A3628023DB04636280231B039B
:10071000636280228023D2025B0363626262802272
:10072000D200626280221201626280225201626201
:100730001448636102AA03AB01A905F0E5FB002898
:100740001AD10120FFF718FE0A2006F0E3FB00F0A3
:1007500045F800F02BF90AF0D7FD01F0E1FC0A485A
:100760000DF0D2FB04F0C8FB08480AF06BFC04F063
:10077000D5FB04F0B1FEFAE7039A0299019805F05F
:1007800087FBDEE7A0F703005D030010403E011089
:1007900000B583B06A4680231371793B0340502033
:1007A0004042184350710221782001AA03F076F9E3
:1007B00003B000BD10B5102482B0030901AA234381
:1007C00053700F238021184011709170D0707C39C4
:1007D000782003F063F902B010BDC046F0B5802761
:1007E0006F4CFA25238885B03B439BB223806D4B29
:1007F00021881E680822300089B2FFF7A5FE7F23FA
:10080000ED000395228830001340238021880822C0
:1008100089B2FFF799FE0295238808223B439BB2D9
:1008200023802188300089B2FFF78EFE019502F007
:100830002FFF782002F098FF802002F095FFAE2075
:1008400002F092FF802002F08FFFD52002F08CFF93
:10085000802002F089FFA02002F086FF802002F0B5
:1008600083FFA82002F080FF802002F07DFF1F2080
:1008700002F07AFF802002F077FFD32002F074FFAD
:10088000802002F071FF002002F06EFF802002F055
:100890006BFFAD2002F068FF802002F065FF8E2024
:1008A00002F062FF802002F05FFFD82002F05CFFC0
:1008B000802002F059FF052002F056FF802002F050
:1008C00053FFA12002F050FF802002F04DFFC8200E
:1008D00002F04AFF802002F047FFDA2002F044FFD6
:1008E000802002F041FF122002F03EFF802002F043
:1008F0003BFF912002F038FF802002F035FF3F20BF
:1009000002F032FF802002F02FFF3F2002F02CFF88
:10091000802002F029FF3F2002F026FF802002F015
:1009200023FF3F2002F020FF802002F01DFF8120E6
:1009300002F01AFF802002F017FF1B4B187802F01C
:1009400013FF802002F010FFD92002F00DFF80205D
:1009500002F00AFFD22002F007FF802002F004FF1D
:10096000DB2002F001FF802002F0FEFE342002F0C6
:10097000FBFE802002F0F8FEA62002F0F5FE8020AB
:1009800002F0F2FEA42002F0EFFE802002F0ECFE66
:10099000AF2002F0E9FE02F0ABFE05B0F0BDC046AC
:1009A000F0310120603E0110400400208023F0B5AA
:1009B0004746CE469946D03B0025984680B5174F0E
:1009C00083B001AE4B463370434632002B430221C5
:1009D0007820737003F062F83200042178200197C8
:1009E00003F05CF802F054FE782002F0BDFE4020D7
:1009F00002F0BAFE8424013C0020E4B202F0B4FE0E
:100A0000002CF8D10135EDB202F072FE042DD9D1DF
:100A100003B00CBC90469946F0BDC04680108000E3
:100A2000204BF0B54746CE469946002380B5502767
:100A300000259846802683B001AC7F424B46424653
:100A40005B191A70EB113B4322000221782063707E
:100A5000267003F023F87F2310212B401A090A4344
:100A600062700F220421134078202200E370267068
:100A7000A67003F013F802F00BFE782002F074FE6B
:100A8000402002F071FE002002F06EFE02F030FE07
:100A900080230135DB009D42D0D103B00CBC9046D1
:100AA0009946F0BD18470120CB17F0B557469A4636
:100AB00007234E4699464546534690464A461340BC
:100AC0005B18DB10DE465B42DC1C8023E0B57F2731
:100AD0009B4683B001AD2B702240D03B13433F1A9D
:100AE0002A0078200E0002216B7002F0D7FF5A46D0
:100AF00010213B1DDBB22A701A090A436A705A465C
:100B0000AA70713A134004212A007820EB7002F099
:100B1000C5FF02F0BDFD782002F026FE402002F065
:100B200023FE4346E401E719154CE55D002B1CD07C
:100B3000012B0FD0280000F025F8C0B202F014FEFF
:100B4000E55502F0D5FD03B03CBC90469946A2465F
:100B5000AB46F0BD53464A465B0FF6183240D61AF4
:100B60004246B2401543EDB2E4E753464A465B0FB6
:100B7000F6183240D61A0123B3409D43DAE7C04647
:100B800018470120022101234200114042101A405F
:100B90001143821049001A400A43C1101940520003
:100BA0000A43011152001940114342111A404900F1
:100BB0001143821149001A400A43C01152001840E3
:100BC00010437047032370B5040015005B1AD8B2B8
:100BD000FFF7DEFDA000201A40007F30C0B2FFF713
:100BE000E9FD02F055FD782002F0BEFD402002F044
:100BF000BBFDAA00521901240425154EB618220087
:100C0000735D1A4058102040520002439810520061
:100C100020401043DA102240400010431A114000D7
:100C200022400243581120405200024398115200C2
:100C3000204010434000DB11184302F095FD013DB8
:100C4000DDD2002002F090FD02F052FD70BDC046E2
:100C500044040020F0B54646D6464F46C0B5167847
:100C60009046002E4DD00323591ACBB29946274BFC
:100C700001249A468500451B6D007F35EDB20123A6
:100C80009C4604274846E044FFF782FD2800FFF712
:100C900091FD02F0FDFC782002F066FD402002F09C
:100CA00063FDB3009E1956442200F35D1A405810AC
:100CB0002040520002439810520020401043DA10A6
:100CC0002240400010431A114000224002435811B4
:100CD000204052000243981152002040104340002F
:100CE000DB11184302F040FD013FDDD2002002F08D
:100CF0003BFD02F0FDFC43461E78063DEDB2002EA2
:100D0000BDD11CBC90469946A246F0BD44040020CB
:100D1000F0B54646D6464F46C0B516789046002EEA
:100D20004DD00323591ACBB29946274B01249A463A
:100D30008500451B6D007F35EDB201239C460427DD
:100D40004846E044FFF724FD2800FFF733FD02F09A
:100D50009FFC782002F008FD402002F005FDB30062
:100D60009E1956442200F35D1A405810204052004C
:100D700002439810520020401043DA1022404000F5
:100D800010431A11400022400243581120405200E3
:100D9000024398115200204010434000DB111843D9
:100DA00002F0E2FC013FDDD2002002F0DDFC02F0A7
:100DB0009FFC43461E78063DEDB2002EBDD11CBC03
:100DC00090469946A246F0BD44040020F0B5D646B0
:100DD0004F464646C0B584B001AF04000D00380050
:100DE0002D4908F0BBFB3E78002E4ED00321491B55
:100DF000CBB29946294BA500651BB8469A460124FB
:100E00006D007F35EDB201239C4604274846E0443F
:100E1000FFF7BEFC2800FFF7CDFC02F039FC78207C
:100E200002F0A2FC402002F09FFCB3009E19564441
:100E30002200F35D1A4058102040520002439810DF
:100E4000520020401043DA102240400010431A1193
:100E500040002240024358112040520002439811A2
:100E60005200204010434000DB11184302F07CFC8C
:100E7000013FDDD2002002F077FC02F039FC43464E
:100E80001E78063DEDB2002EBDD104B01CBC9046CC
:100E90009946A246F0BDC046683E011044040020B9
:100EA000F8B5294BCE469946052347465B424B444D
:100EB00080B598467F2701240326F0B2FFF768FC2F
:100EC0003800FFF777FC02F0E3FB782002F04CFCDF
:100ED000402002F049FC4D4622002B78013D1A408B
:100EE00058102040520002439810520020401043F6
:100EF000DA102240400010431A1140002240024301
:100F000058112040520002439811520020401043D3
:100F1000DB114000184302F027FCA845DCD100207B
:100F200002F022FC02F0E4FB013EC6D2063FFFB213
:100F3000012FC1D10023054A1360054A13600CBC80
:100F400090469946F8BDC046E8040020BC2B01201D
:100F5000C02B0120F0B5DE46454657464E46E0B56B
:100F60003C4B05789B461C683B4B83B01A6801904C
:100F7000002D50D003239B1ADBB29946374BA600B5
:100F8000A61B80469A46012476007F36F6B20123DE
:100F90009C4604274846E044FFF7FAFB3000FFF781
:100FA00009FC02F075FB782002F0DEFB402002F025
:100FB000DBFBAB005D1955442200EB5D1A40581075
:100FC0002040520002439810520020401043DA1093
:100FD0002240400010431A114000224002435811A1
:100FE000204052000243981152002040104340001C
:100FF000DB11184302F0B8FB013FDDD2002002F004
:10100000B3FB02F075FB43461D78063EF6B2002D99
:10101000BDD15B461C6801980EF05EF92418142CB3
:1010200008DC5B461C6003B03CBC90469946A24677
:10103000AB46F0BD5B4600221A60074B1B6801936C
:101040000133032B02DD044B1A60ECE7024A136004
:10105000E9E7C046BC2B0120C02B0120440400203E
:1010600010B50EF039F9084B1A68944660441428FC
:1010700007D90021054A196013680133032B01DDEC
:10108000116010BD1360FCE7BC2B0120C02B0120B8
:1010900070B509480AF02CF901231D00074AD02435
:1010A0001268FA2095402406054AA56140001360A5
:1010B00005F030FFA56170BD703E0110643E011067
:1010C00068310120394A30B51368040001331360D8
:1010D000B02383B09B0098425FD028D9C0239B00E7
:1010E000984236D0403398421FD18021304A314C4B
:1010F0001088238801407F201180013311889BB222
:10110000238043400B439BB2138011882A4B082253
:10111000186889B2FFF718FA0220284923884A7D07
:10112000DB120340824313434B7503B030BD013BD8
:10113000FF3B98421BD040339842F6D180204000BC
:10114000FFF71AF92000FFF717F9642005F0E2FE17
:10115000EBE700238022174C2380154B19880A40A7
:101160007F211A801A880A431A801988CEE703F073
:1011700051F813480AF0BCF801231D00114AD0248D
:101180001268FA209540019224060F4AA56140009A
:10119000136005F0BFFEA561C7E780204000FFF7A0
:1011A00047F980208000FFF743F9BEE77431012042
:1011B000F0310120F2310120603E0110F84F012092
:1011C000703E0110643E0110683101208023044A02
:1011D0005B42517C0B4353740122024B1A707047DF
:1011E000F84F0120BC0D00200122024B1954024B84
:1011F0001A607047904F0120302C0120F0B5DE4678
:1012000057464E464546E0B5012083B002F03AFA13
:101210005D4B5E491A68002A03D10A68002A00D192
:10122000A4E000225A4F1A603B680A60002B00DAE3
:10123000A2E0584B00249946574B9B46574B984683
:10124000574B9A460EE0574B2000196808F018FAE1
:1012500003002A0008001900FFF7B4FC3B680134C2
:10126000A34239DB4B465A461B681B5DD55C4246A0
:1012700012689342E7D153461B68002BE3D04A4BD8
:101280001B68002B07D0494B1B68002B06D001952B
:1012900080256D00D7E7454B1B6801938021AB008B
:1012A0005B1901950225424A4942D05C414E0843F0
:1012B0009055D3185878404E0843905598783F4E33
:1012C00008439055D8780136084390551B79FF356F
:1012D0000B433B495354B6E71421200008F0D0F9E2
:1012E00014218246200008F0CBF98946354B0026B0
:1012F0009846434631009A5D14200136FFF762FCA0
:10130000042EF6D16A1EFF3A2B00012A26D92E4A56
:10131000D35C682293431FD05346162058434B4654
:101320002A4EEDB235552A4C2018C5543D68594611
:101330002A00284809F02AFD00232B22A354163244
:10134000A35416326375A354735503B03CBC904646
:101350009946A246AB46F0BD2025DDE7019D1A4A1D
:101360002B00D35C68229343D6D1F5E70A4B084F94
:101370009B46164E164CD9E7002399469A46064BD3
:1013800000249B46B2E7C046302C0120B82B012038
:1013900090090020944F0120005102207430012058
:1013A0007C30012094090020B42B012078300120EA
:1013B00044040020050500000605000007050000A4
:1013C00009050000904F0120555801101C4C0120C8
:1013D000984F0120184B0120E02330B55B0004003A
:1013E00083B0984200D123E10BD817281FD80228D8
:1013F00065D9C31E9BB2142B57D8A94A9B00D3585A
:101400009F46D0239B00984241D039D9E8239B00C6
:10141000984200D139E126D9F0239B00984213D19C
:101420000122A04B1A60A04B185D03B030BD030031
:10143000813BFF3B9BB2012B41D88223FF33984273
:1014400000D00CE10020F0E7203398422DD1974ADC
:101450001368002B00D107E18021C9018C46634449
:1014600000201360E1E7403B984200D110E12033B7
:10147000984224D100228B4B1A608B4B185DD4E725
:10148000803B984200D1CDE04033984204D1200007
:10149000FFF718FE0020C8E7803B98420FD10420D8
:1014A000FEF76AFF804B185DBFE7230400D5A8E074
:1014B0008023DB019C4202D37D4B1B68E4187A4BEE
:1014C000185DB2E77B4B1868FFF70CF87F234340A9
:1014D0007E201840D023744C1B0660755B68764AEA
:1014E0005B0BDB011843022312889843D21213408E
:1014F0001843607503F016FD607D96E7D0226F4BB0
:101500001206506819685268C8405C680121E240C0
:101510000840C0014008114201D080221043D0226F
:101520001206526899684008CA40D20703D5802243
:1015300052421043C0B2D02212065268D968400805
:10154000CA40D20703D5802252421043C0B2D022F3
:101550001206526819694008CA40D20703D5802292
:1015600052421043C0B2D022120652685969400854
:10157000CA40D20703D5802252421043C0B2D022C3
:101580001206526899694008CA40D20703D58022E2
:1015900052421043C0B2D02212065268DB694008A2
:1015A000DA40D30703D580235B421843C0B29621AB
:1015B000434A490013688B4200DB36E7E225414984
:1015C0005C00655401330919487013602DE73E4BE8
:1015D00018782AE73D4B187827E73D4A1378D9B2A7
:1015E000012B46D0022900D069E7122800D066E717
:1015F000032313707F222C4B597C0A405A74185DC8
:1016000013E7C0231B029C4205D9324B9C4664441D
:10161000314B185D09E72F4B9C46244B64441868F6
:101620002418F5E70420FEF703FF1F4B185DFCE6C6
:1016300002F0F0FD294809F05BFE01231D00284A55
:10164000D0241268FA20954001922406254AA5610B
:101650004000136005F05EFC0020A561E5E6224B2A
:1016600018687F231840E0E680231B0200201360E7
:10167000DBE60D4B112800D0D6E6597C7F2900D837
:10168000D2E602211170185DCFE6094A1368E3E63D
:101690000023074A00201360044A1360C5E6C046D1
:1016A000803E011098090020F84F01205831012098
:1016B000403101205C3E0110F23101209C0D0020E0
:1016C000BC310120204D0120FC310120FB310120E3
:1016D000BC0D00200080FFFFC00D0020703E0110F7
:1016E000643E011068310120743001200B4B1A88D0
:1016F000824206D01A8A82420BD01A8C82420AD0C9
:10170000704700220121064812019B1801605960B0
:10171000F6E70122F6E70222F4E7C046600900205E
:1017200054300120012070477047C0460022014B11
:101730001A607047783101207323084AD15C643BFA
:101740000B400749D3188C46064963440968197051
:101750007421535C013353547047C046F84F012045
:10176000B0200000A4A3022010B50349034802F0F2
:10177000FDF9431E984110BDF4400110009B02206A
:1017800010B50349034802F0F1F9431E984110BD1A
:1017900004410110009B0220164AF8B5136801337A
:1017A0001360154B9B69DB0603D5144A136801339C
:1017B00013601025104C124E124FA3691D4211D117
:1017C000A3691D42FCD12368DBB2002BF5D032683F
:1017D0000D49BB543068013007F052FF3160A369F6
:1017E0001D42EDD0A3691D4203D1084A136801339D
:1017F0001360F8BD5C3001200080034060300120A0
:101800006430012018810220881300005830012024
:101810007047C046F8B50A4E00243500094F38001D
:10182000296802F0A3F9002804D101340835072CF7
:10183000F5D1F8BDE400341963689847F9E7C0466C
:10184000FC0F0120085202205F4AF0B51368DE4603
:1018500059424B41012157464E4645465B428B4318
:1018600018000023E0B5546897B0584E02AA03AFA1
:101870001375A330337010223B002100019002F059
:10188000A7FB80239B46524BA3449A460F239846BE
:101890000FE0403902AB5B181A700023013102AA35
:1018A000521807A80CA9013413700DF0A1FCA34530
:1018B0002AD0454643462540234266D04246E31798
:1018C0001B0FE5181540ED1A7A5D51460CA807F07C
:1018D00045FE30000DF000FD0CA930180DF064FC41
:1018E00068217A5D3B4B81469B5C8B43D1D107A835
:1018F0000DF0F2FC07AB9C460222374960440134EC
:1019000009F044FAA345D4D102223449484609F0EB
:101910003DFA484607A902300DF0D6FC304B314C59
:101920001A68314B20001968330007F017FE2000B9
:101930000DF0D2FC2D4E2E4B020018602D493000C8
:1019400007F00CFE3478002C18D030000021202243
:101950000D26294B02255D5F284B002928D1A54281
:101960002DD099690A42FCD11C60017801300D39F3
:101970004C4261410478C9B2002CEED117B03CBC96
:1019800090469946A246AB46F0BD230007AA1C49E3
:101990000CA807F0E3FD0CA930000DF029FC02AB08
:1019A0001D7510223B002100019802F011FB85E714
:1019B00099690A42D8D099690A42F9D1D4E799695C
:1019C0000A42FCD11E60CCE7A4A30220C05D022025
:1019D0002C410110555801107C3E0110904D011012
:1019E000C42B0120A4690220080E0120DCA20220E1
:1019F000283101203441011060A7022000800340FB
:101A00001C410110F0B5D6464F464646414BC0B585
:101A10001C68012C08D0022C3DD0002C28D01CBC06
:101A200090469946A246F0BD3B4B1E68002EF6DD5F
:101A30003A4B3B4C9A4619683A4B00271B683619BB
:101A40009846394B994606E04A46237801340127E7
:101A50005355B4425BD00D00481CFA21890007F0B1
:101A60000FFE4145F0D1002FD9D053461D60D6E777
:101A70002E4F2B4E3D0003E001340835082CCED00C
:101A80003000296802F072F80028F5D0E4003C1913
:101A900063689847C3E7204B1D68002DBFDD7423A2
:101AA000234E1F4AF15C013BF05C663B00240F278C
:101AB0009C46AD180FE03C000440A1461D4CB144CB
:101AC000A0464C464444237001240131C9B201327E
:101AD0000130AA4215D013780A2BF8D00D2BF6D07E
:101AE000042BE8D1134C3B00A04664460340F31896
:101AF0004344013101321C70C9B201240130AA42B1
:101B0000E9D1002C00D18AE77423F15487E75346CA
:101B1000196084E75C2A0120BC300120602B012081
:101B200008520220642B012090650220C40D012080
:101B3000F84F0120B0200000F0B50E4B0E4D196893
:101B40002B68C6465C1A631C98460C4F0C4E00B5B9
:101B50001A008919380009F019F942463900300095
:101B600009F014F90122074B2C601A6004BC90465E
:101B7000F0BDC04698300120503001204879022045
:101B8000009B0220B0300120F0B5C64601221C4B5C
:101B900000B5532100201A600025FFF725FB194CE2
:101BA000194E03E001350C34282D11D02378032B76
:101BB000F8D1310060680DF043FB0028F2D101221A
:101BC000124B1D60124B1A60124A136801331360E6
:101BD000114D124B124F19682B68124E5C1A631C80
:101BE00098461A008919380009F0D0F842463900A1
:101BF000300009F0CBF82C6004BC9046F0BDC04624
:101C0000803101201C0E012048410110E0310120EB
:101C1000E4310120B83101205030012098300120FA
:101C200048790220009B0220F8B5CE4647461A4C60
:101C300080B52368002B1AD0184B194E19683368E9
:101C4000184F5D1A6B1C9946174B4A469846180068
:101C5000C91909F09BF84A464146380009F096F840
:101C60000023356023600CBC90469946F8BD0B4BB1
:101C70000B4D19682B680C4F5C1A631C9846094E73
:101C80001A008919380009F081F8424639003000FD
:101C900009F07CF82C60E6E7B03001209830012094
:101CA00050300120009B022048790220F0B5CE463A
:101CB000474680B56421022085B0FFF795FA494C6C
:101CC0004949200001F052FF002804D105B00CBCA6
:101CD00090469946F0BD454B454E19683368454FCF
:101CE0005D1A6B1C98461A003800091909F04EF865
:101CF00039004246200009F049F83F4F35603B6803
:101D000099461D2BE2DC002B67DD3C4B2B259846CA
:101D10001C004B465D433A4E4544310020000DF017
:101D20008FFA0028D2D02B34A542F6D12B244D4671
:101D300043466543310058190DF0C6FA2800314971
:101D400014304D694B680A6803950D69404402954B
:101D5000CD680195896800912B4907F0FFFB2B4B5B
:101D6000310018680DF06CFA002803D03B6801338D
:101D70003B60ABE73B68264E5C43220014323000E8
:101D80002449424407F0EAFB3478002CEED03000BE
:101D9000002120220D26204B02255D5F1F4B0029CC
:101DA0000FD1A54214D099690A42FCD11C60017878
:101DB00001300D394C4261410478C9B2002CEED19A
:101DC000D4E799690A42F1D099690A42F9D1EDE75D
:101DD00099690A42FCD11E60E5E7084B084E984617
:101DE000A4E7C046009B022050410110983001201A
:101DF0005030012048790220682B01207095022084
:101E0000D0A40220A4A30220B0410110C00D0120E3
:101E1000DCA202209841011060A70220008003404C
:101E2000F0B5C6466321012000B5FFF7DDF90F4C80
:101E30000F49200001F09AFE002802D104BC904610
:101E4000F0BD0C4B0C4E196833680C4F5D1A6B1CBF
:101E500098461A000919380008F098FF42463900E0
:101E6000200008F093FF3560E8E7C046009B0220A1
:101E7000C4410110983001205030012048790220DF
:101E8000F0B5C6466321012000B5FFF7ADF90F4C50
:101E90000F49200001F06AFE002802D104BC9046E0
:101EA000F0BD0C4B0C4E196833680C4F5D1A6B1C5F
:101EB00098461A000919380008F068FF42463900B0
:101EC000200008F063FF3560E8E7C046009B022071
:101ED000D041011098300120503001204879022073
:101EE000F0B5C64604007221012000B5FFF77CF969
:101EF0001D482401041961681C4C200001F036FEC5
:101F0000002802D104BC9046F0BD194E194B1A4F5F
:101F10001968336838005D1A6B1C98461A00091955
:101F200008F034FF20004246390008F02FFF3560EA
:101F3000124C0025124E03E001350C34282DE1D05F
:101F40002378032BF8D1310060680DF079F900286F
:101F5000F2D101220B4B1D600B4B1A600B4A136828
:101F600001331360CEE7C046DC4A0110009B02201B
:101F70005030012098300120487902201C0E0120A9
:101F8000E0410110E0310120E4310120B8310120AD
:101F9000F0B5C64604006921012000B5FFF724F919
:101FA00010482401041961680F4C200001F0DEFD87
:101FB000002802D104BC9046F0BD0C4B0C4E1968B1
:101FC00033680C4F5D1A6B1C98461A0009193800CB
:101FD00008F0DCFE42463900200008F0D7FE3560EC
:101FE000E8E7C046DC4A0110009B0220983001203F
:101FF0005030012048790220F0B5C64604006E2119
:10200000012000B5FFF7F0F81248240104196168B7
:10201000114C200001F0AAFD002802D104BC90461A
:10202000F0BD0E4B0E4E196833680E4F5D1A6B1CD7
:1020300098461A000919380008F0A8FE42463900EF
:10204000200008F0A3FE084B35601A68074B1A60A1
:10205000E4E7C046DC4A0110009B022098300120D2
:102060005030012048790220A4A30220AC2B01208B
:10207000F0B5C64604004321012000B5FFF7B4F8CF
:102080001D482401041961681C4C200001F06EFDFC
:10209000002802D104BC9046F0BD194E194B1A4FCE
:1020A0001968336838005D1A6B1C98461A000919C4
:1020B00008F06CFE20004246390008F067FE3560EB
:1020C000124C0025124E03E001350C34282DE1D0CE
:1020D0002378032BF8D1310060680DF0B1F80028A7
:1020E000F2D101220B4B1D600B4B1A600B4A136897
:1020F00001331360CEE7C046DC4A0110009B02208A
:102100005030012098300120487902201C0E012017
:10211000E8410110E0310120E4310120B831012013
:1021200010B500211F4804F0DDFE0221082003F055
:10213000A1FF0221092003F09DFFE1211A4C490271
:10214000200005F00DFBC022236B12021340174A3A
:10215000152013601023E26A15491340154A1360D5
:1021600004F0BEF80121152004F076F85023A36393
:10217000626B183B1340104A1048136008F062FF6E
:1021800009F036F80220FEF753F9642004F0C2FE8D
:102190000220FEF7F1F80023094A1370094A136080
:1021A00010BDC04640420F00008003403090034005
:1021B000991700102C90034034900340F041011017
:1021C000009B022050300120F0B557464E46454650
:1021D000DE460023E0B5394F87B003AD2B703B18C6
:1021E000DB7982460222364E7F2B5BD830003549A0
:1021F00008F0CCFD5346013398460424324A334B51
:1022000091469B46B844042C11D0434649461A5D7A
:10221000280007F0A3F930000DF05EF8290030180F
:102220000CF0C2FF631C24D0013C042CEDD15346BA
:102230000533FA5C594612092800019307F08EF91C
:1022400030000DF049F8290030180CF0ADFF0222E3
:102250001F4908F09BFD0F22019B5946FB5C28009B
:102260001A4007F07BF9290030000CF0C1FF013C57
:10227000DBE70322174908F089FD06225744BA56C6
:10228000002A14DB4946280007F068F929003000CD
:102290000CF0AEFF300007B03CBC90469946A24619
:1022A000AB46F0BD30000C4908F070FDA2E72800F5
:1022B0000A49524207F052F9E8E7C046F84F0120B8
:1022C0007C69022030410110683E0110104201106B
:1022D0007C3E0110184201100C4201101C420110FA
:1022E0000023F0B50024324E324D334F91B033709D
:1022F0002200390006A807F031F906A930000CF0D9
:1023000077FF2800FFF760FF0134010030000CF078
:102310006FFF08350A2CEBD1284B294C1A68294B42
:102320001968294B0493294B18001638029018009D
:1023300003932C38423B019000932000330007F0B8
:102340000DF920000CF0C8FF214A224E1060224AED
:10235000030012683000214907F000F93478002C9E
:1023600018D01F4B300002255D5F202100230D2671
:102370001C4A002B10D1A54215D093691942FCD1FB
:102380001460037801300D3B5C4263410478DBB29A
:10239000002CEED111B0F0BD93691942F0D09369D1
:1023A0001942F9D1ECE793691942FCD11660E4E7D0
:1023B000C05D0220FF20000024420110C42B012038
:1023C000A4690220040E0120009B0220DA4F0120A4
:1023D00028310120DCA20220AC2B01203042011068
:1023E00060A7022000800340F8B557464E46454698
:1023F000DE463A4BE0B59C461860394B0400196044
:10240000384B0F009A46002352461360364B9946CC
:1024100001234A461360354B1860354B98461E68B9
:10242000002846DD320000210023324D324807E00B
:10243000E95C013CC154013A01210133002C1CD05C
:10244000002AF5DC002932D05246E9181360F61A4A
:1024500063461C60294C771C3A00200008F096FC6B
:102460003A002100280008F091FC43461E603CBC65
:1024700090469946A246AB46F8BD51460B60414690
:102480000A606246F61A1460721C92461B4CE918E8
:10249000200008F07BFC52462100280008F076FC62
:1024A00043461E6000234A461360B847DFE7290011
:1024B000D0E7731C9B46114B0E4D9A4618005A46A6
:1024C000290008F063FC5A465146280008F05EFCDB
:1024D00043461E60002CE5D0C9E7C0466C2B0120A6
:1024E000FC9A022044790220802B0120BC3001207C
:1024F00050300120009B022008520220487902201F
:10250000F0B5C6465021022000B5FEF76DFE114C15
:102510001149200001F02AFB002802D104BC90469A
:10252000F0BD0E4E0E4B0F4F1968336838005D1A20
:102530006B1C98461A00091908F028FC390042461D
:10254000200008F023FC084B084958683560FFF765
:102550004BFFE3E7009B0220F440011050300120C4
:102560009830012048790220A4A3022015180010F9
:10257000F0B5C6465021022000B5FEF735FE114CDD
:102580001149200001F0F2FA002802D104BC904663
:10259000F0BD0E4E0E4B0F4F1968336838005D1AB0
:1025A0006B1C98461A00091908F0F0FB39004246E6
:1025B000200008F0EBFB084B084918683560FFF76E
:1025C00013FFE3E7009B022044420110503001203A
:1025D0009830012048790220A4A30220051A001097
:1025E00070B51B480CF078FE1A4C1B4B02001860AB
:1025F0001A49200006F0B2FF2278002A18D0184BA2
:10260000200002255D5F202400230D261549002BA4
:1026100017D1954210D08B691C42FCD10A60037817
:1026200001300D3B5A4253410278DBB2002AEED111
:1026300001220D4B1A6070BD8B691C42FCD10E60EB
:10264000E9E78B691C42E9D08B691C42F9D1E5E7C7
:10265000A4690220DCA2022028310120544201108A
:1026600060A70220008003407831012010B51C22B1
:102670000349044808F08AFBFFF7B2FF10BDC046CB
:1026800068420110A469022010B5064B06495A6839
:102690001B680648CA54064906F060FFFFF7A0FF12
:1026A00010BDC046A4A30220F84F0120A469022057
:1026B000844201104C4AF0B51368454659424B41DB
:1026C00001215B428B431800484BDE469846574633
:1026D0004E46546800234246E0B597B0137003AFEE
:1026E00002AA1375A3303B0010222100019001F0D3
:1026F0006FFC80239C46A4446346009300239946C4
:102700003B4B9B460F239A4610E0403902AB5B18C7
:102710001A700023013102AA521807A80CA91370DD
:102720000CF066FD009B0134A34229D05546534668
:102730002540234242D001239C464E46E144BA5DE7
:1027400059460CA806F00AFF40460CF0C5FD0CA93E
:1027500040440CF029FD6821BA5D264B05009B5CC6
:102760008B43D2D107A80CF0B7FD07AB9C460222E1
:102770002149604408F00AFB009B0134A342D5D1F3
:10278000022228001D4908F001FB07A9A81C0CF033
:102790000BFD03221A49040008F0F8FA4346E21A36
:1027A00041460332174808F0F1FAFFF719FF17B056
:1027B0003CBC90469946A246AB46F0BD230007AA12
:1027C00011490CA806F0CAFE0CA940460CF010FDF9
:1027D00002AB1D7510223B002100019801F0F8FBAF
:1027E000012300269946AAE7A4A30220C05D022087
:1027F0002C410110555801107C3E0110904D0110E4
:1028000014450110A46902209842011000B50A4B3A
:102810000A4985B0029119002C31019119001A0062
:102820001631163A00910648064906F097FEFFF762
:10283000D7FE05B000BDC046AE4F0120009B022070
:10284000A4690220A442011010B50C4C82B0A26809
:10285000206801AB1A70424250410122404290432D
:102860006168A33001F0D4FB23686268044905481D
:1028700006F074FEFFF7B4FE02B010BDA4A3022060
:1028800084420110A4690220F8B5CE46474680B5BF
:102890006D4A1378002B04D16C4B6D4A1B789B005A
:1028A0009A586C4C6C49200006F058FE6B4E210083
:1028B00030000CF079FC050004226949200008F082
:1028C00065FA04222100280008F060FA654F3B6891
:1028D000002B17DD644B00259946644B98464B4608
:1028E0001B68581980B2FEF777FD414602002000B0
:1028F00006F034FE210030000CF07AFC3B68013514
:10290000AB42ECDC5A4D5B492A88200006F026FEDB
:10291000210030000CF06CFCAA885749200006F01A
:102920001DFE210030000CF063FCAA795349200001
:1029300006F014FE210030000CF05AFCEA795049F0
:10294000200006F00BFE210030000CF051FCEB796A
:10295000AA794C49200006F001FE210030000CF05D
:1029600047FC6A884849200006F0F8FD2100300045
:102970000CF03EFC4549464B08682A7A1860888866
:1029800098808979997143490878FF2835D0104299
:1029900041D18878FF2830D010423FD10879FF28F4
:1029A0002BD010423DD18879FF2826D010423BD150
:1029B000087AFF2821D0104201D0487A1871887A0D
:1029C000FF281AD0104201D0C87A5871087BFF281E
:1029D00013D010422BD1887BFF280ED0104229D172
:1029E000087CFF2809D01D00104226D0487C013504
:1029F000E871887C0231FF28F6D12000264906F0D4
:102A0000ADFD210030000CF0F3FBFFF7E9FD0CBC3D
:102A100090469946F8BD48781870BAE7C87858705B
:102A2000BCE748799870BEE7C879D870C0E7487BA2
:102A30009871D0E7C87BD871D2E7887C0135023124
:102A4000FF28D1D1D9E7C046C4300120F950022077
:102A50009C090020C05D0220C0420110A469022030
:102A6000C4420110FC50022004520220C84201104E
:102A70007C4F0120D0420110DC420110E8420110DD
:102A8000F4420110004301101043011030430110C3
:102A9000100E0120500900201C43011070B51A4887
:102AA0000CF01AFC194C1A4B02001860194920004E
:102AB00006F054FD2278002A18D0174B200002257A
:102AC0005D5F202400230D261449002B14D195426C
:102AD0000DD08B691C42FCD10A60037801300D3B9C
:102AE0005A4253410278DBB2002AEED170BD8B69A5
:102AF0001C42FCD10E60ECE78B691C42ECD08B6968
:102B00001C42F9D1E8E7C046A4690220DCA20220F9
:102B1000283101203441011060A7022000800340C9
:102B200000B5094A094909CA094A83B01354094A38
:102B300009681268019000930748084B06F00EFDE3
:102B4000FFF7ACFF03B000BDA4A302200C0E0120D0
:102B5000F84F0120C42B0120A46902203843011042
:102B6000F0B54E46DE4657464546E0B593B00023E5
:102B70006A46384E13733370374B00249846374BF0
:102B80009B46374B9A46374B99460FE06B46483980
:102B90005B181A706A4600230131521803A808A96D
:102BA000013413700CF024FB802C26D00F231D0061
:102BB000254023423FD0434659461A5D08A81F19B5
:102BC00006F0CCFC30000CF087FB08A930180CF0A4
:102BD000EBFA68213A78244B05009B5C8B43D5D1F6
:102BE00003A80CF079FB03AB9C4602221F4960440A
:102BF000013408F0CBF8802CD8D1022228001C49DF
:102C000008F0C4F803A9A81C0CF0CEFA0322194955
:102C100008F0BCF8184B19481A68194B19683300AA
:102C200006F09CFCFFF73AFF13B03CBC9046994677
:102C3000A246AB46F0BD5346494603AA009408A8F5
:102C400006F08CFC300008A90CF0D2FA6B461D731C
:102C5000B1E7C046C05D0220F84F01202C410110B1
:102C60004043011048430110555801107C3E0110AB
:102C7000904D011014450110C42B0120A4690220BD
:102C8000080E012010B50F4C84B0A268206803AB79
:102C90001A70424250410122404290436168A33081
:102CA00001F0B6F9084B09481A68094B19686368BE
:102CB0000193A3680093074B06F050FCFFF7EEFE6C
:102CC00004B010BDA4A30220C42B0120A4690220DB
:102CD0000C0E012054430110F0B55746DE464E4617
:102CE00045460023E0B5354F95B002AA3B701373FB
:102CF00080339B46324B04009946324B03919A46EF
:102D00000F23834498460FE0483902AB5B181A70D2
:102D10000023013102AA521805A80AA90134137030
:102D20000CF066FA5C4526D04546434625402342D2
:102D300035D04B4651461A5D0AA81D1906F00EFC07
:102D400038000CF0C9FA0AA938180CF02DFA6821DD
:102D50002A781D4B06009B5C8B43D5D105A80CF04F
:102D6000BBFA05AB9C46022218496044013408F0C6
:102D70000DF85C45D8D102223000154908F006F85C
:102D800005A9B01C0CF010FA0322124907F0FEFF4F
:102D900015B03CBC90469946A246AB46F0BD039B9D
:102DA0000D4905AA00940AA806F0D8FB38000AA924
:102DB0000CF01EFA02AB1D73BBE7C046C05D0220DB
:102DC000F84F01202C410110555801107C3E011094
:102DD000904D01101445011048430110084B10B5E7
:102DE00018680849FFF778FF074B08481A68084B2E
:102DF0001968084B06F0B2FBFFF750FE10BDC04645
:102E0000A4A3022040430110C42B0120A469022086
:102E1000080E0120C05D022010B5064B0649186857
:102E2000FFF75AFF0549064806F098FBFFF7D8FB65
:102E300010BDC046A4A3022014450110C05D0220AD
:102E4000A469022010B52E4B020019682D480160BC
:102E5000998881809B7983712B4B1978FF2935D014
:102E60000A4234D19978FF2930D00A4232D11979F7
:102E7000FF292BD00A4230D19979FF2926D00A4266
:102E80002ED1197AFF2921D00A4201D0597A017135
:102E9000997AFF291AD00A4201D0D97A4171197B57
:102EA000FF2913D00A421ED1997BFF290ED00A4276
:102EB0001CD1197CFF2909D004000A4219D0597C81
:102EC0000134E171997C0233FF29F6D110BD5978A4
:102ED0000170C7E7D9784170C9E759798170CBE7AC
:102EE000D979C170CDE7597B8171DDE7D97BC1719B
:102EF000DFE7997C01340233FF29DED1E6E7C046E3
:102F000030430110100E012050090020F0B5DE46BC
:102F100057464E4645460023E0B587B0C64C05935C
:102F2000C64B20681B6883420BD01122C44B9A56B3
:102F3000597C002A05DBC34A157A10222A4200D1A7
:102F4000FAE0C14B9A461B68012B00D1CDE0BF4B84
:102F50000A211A6801321A60186806F091FB0029EC
:102F60000CD1BB4C2368002B00D098E0202103201B
:102F7000FEF73AF923685A4253412360B54DB64EE5
:102F80002A6833689A421BD0B44BB54F9946B54B6B
:102F90009846202304AA13802B68B3495A1C2A6040
:102FA000FC5C04ABE4B228681C7006F069FB296085
:102FB000142C79D0002C63D12A6833689A42E8D166
:102FC000AA4B1C68002C00D0C8E0A44BA84A994624
:102FD0001B78D35C1B071FD5A24B4F469A461D6832
:102FE000A44B984601234B449B465346A2461C00E3
:102FF0002A005946404607F0C9FE2A0041463800DB
:1030000007F0C4FE9A4A3B786E1ED35C0822350056
:1030100026601A42ECD15446974D0DE0022B07D1A1
:103020002000AB689847002802D02000EB68984742
:1030300001341035262C0CD02B78012BEED14846CC
:10304000696800F093FD0028EFD101341035262C7B
:10305000F2D18A4B1A68002A40D0894E3268002A81
:1030600000D0D9E0874C884D2068420011188900B3
:10307000695C062900D9BAE0844F890079588F46E7
:10308000484604A90CF0B4F8434642461B68013395
:1030900013602A6833689A4200D07AE790E70320E9
:1030A0005731FEF7A1F865E753461B680321581C0A
:1030B00006F0E6FA5346764D0C0019600C22280003
:1030C000744907F063FE012C00D193E0022C00D17B
:1030D0009CE0002C00D193E0FFF782FA07B03CBCE3
:1030E00090469946A246AB46F0BD6B4B1C68002C3F
:1030F00000D02CE7694B1E68694B196899468E42CF
:1031000000D124E7674B7F279846614D2C70013D25
:103110004346481C5B5CFA2101343B402B55890037
:1031200006F0AEFA8E42F3D14B461E600023013505
:103130002B55FFF755FA0AE70A4200D101E7FA21B9
:10314000594A8900125C01309A7406F099FA21609C
:10315000FEF73CF85548FEF7C9FAF2E6544B99469B
:103160001B68002B2DDD3F4A3C4E14680293E31A86
:103170000193731C92469B463E4F0394002CADDD99
:103180003378220059463800984607F0FFFD2200A8
:103190003900300007F0FAFD5346464A651E1D60AF
:1031A0001368591C11604146434AD154029B039A4B
:1031B000013B9B1A4A461B191360019A2C00AA4234
:1031C000DCD1002B00D089E7284A13603B4B1B68F9
:1031D000984783E713189B00EB189B689847206873
:1031E00043001B189B00EB5C042B00D176E70130F9
:1031F000206073E710222800314907F0C7FD6BE714
:10320000092228002F4907F0C1FD65E70E2228009A
:103210002D4907F0BBFD5FE703F06AFF2B4A5368B7
:103220008B4200D95AE703D11368834200D955E78E
:103230000023336052E7C046642B0120602B01203D
:10324000F84F01207C4F01205C2A0120C42B012073
:10325000180E01206830012064300120009B0220FC
:10326000188102205030012088130000802B01209B
:103270005558011048790220DC4A0110E431012040
:10328000DC310120E03101201C0E012098430110A7
:10329000A46902205C43011078310120742B0120C5
:1032A000782B0120D859022090650220F0FF000001
:1032B0006C2B01204479022008520220FC9A022043
:1032C0007443011068430110844301105826012003
:1032D000414D2F78002F8AD0404B0D2102269E5F52
:1032E000002398468C46202241463D4B00290FD1B1
:1032F000BE4214D099690A42FCD11F602978013579
:103300000D394F4279412F78C9B2002FEED16EE7C7
:1033100099690A42F1D099690A42F9D1EDE79969B0
:103320000A42FCD161461960E4E700221A60D5E642
:103330002C4B984613189B00EB1805AA4146586879
:103340000BF092FE0123336003F0D2FE059A530185
:103350009B1A9B009B18DB001E00DF178019794128
:10336000214B186059604146204806F0F7F836E7CF
:1033700013181F4F9B00EB183800596806F0EEF841
:103380003E78002E00D12AE7144B380002229B5EC3
:10339000002120220D279C46114B00290FD1B44556
:1033A00014D099690A42FCD11E60017801300D39B0
:1033B0004E4271410678C9B2002EEED10FE79969ED
:1033C0000A42F1D099690A42F9D1EDE799690A42B6
:1033D000FCD11F60E5E7C046A469022060A7022077
:1033E000008003409443011058260120E49A0220F3
:1033F000DCA20220F0B5C64600B5954D82B02B6820
:10340000002B1CD1934C2368002B00D07CE0924C05
:103410002368002B00D090E0904C2368002B00D054
:10342000A2E08F4C2368002B00D0B4E08D4D2B68B8
:10343000002B00D0E9E002B004BC9046F0BD0023B0
:1034400098466B46424601AC1A7001216A46DE205E
:1034500000F024FB802622000121DF2000F066FA24
:103460004246237876423343227002212200DE2036
:103470000D27637000F012FB6B466A460121DE20C7
:103480001F7000F00BFB22000121DF2000F04EFA3C
:103490002378220033430221DE206370277000F07E
:1034A000FDFA6B466A460121DE201F7000F0F6FA35
:1034B00022000121DF2000F039FA237822001E4388
:1034C0000221DE2066702770072600F0E7FA6B46BF
:1034D0006A460121DE201E7000F0E0FA2200012180
:1034E000DF2000F023FA7F23227802211340DE2020
:1034F00022006370267000F0D1FA4346554C2B60D1
:103500002368002B00D182E76B4600256A46012123
:10351000DE2001AE1D7000F0C1FA32000121DF2073
:1035200000F004FA7F233278256013404A4C4E4A5B
:1035300013602368002B00D16EE701236A46012146
:10354000DE2001AD137000F0A9FA2A000121DF206E
:1035500000F0ECF9454B2A781A60002323603F4CB9
:103560002368002B00D15CE702236A460121DE209C
:1035700001AD137000F092FA2A000121DF2000F063
:10358000D5F93B4B2A781A6000232360344C23681A
:10359000002B00D14AE76B4600266A460121DE2057
:1035A0001E7000F07BFA012101AADF2000F0BEF9B5
:1035B0006B461A797F232F4D13402F4A0121AB54BC
:1035C00001236A46DE20137000F068FA012101AA87
:1035D000DF2000F0ABF96B461A79284B0121EA5441
:1035E00002236A46DE20137000F058FA01AA012176
:1035F000DF2000F09BF96B461A79214B2660EA54D4
:10360000184D2B68002B00D115E70027194E1A4BD7
:1036100001ACF35C22000221DE206370277000F011
:103620003DFA0122154B0221F35CDE2022702200BC
:10363000637000F033FA0222114B0221F35CDE20AA
:1036400022702200637000F029FA2F60F3E6C04672
:103650006C3101204C3101204831012044310120DE
:103660007031012068310120643101206031012076
:103670005C310120F84F0120CA200000C920000061
:10368000C8200000014B18607047C046341001206C
:103690000123154A84B0126893400192D022120689
:1036A0005362936100230393039B042B05DC039B6C
:1036B00001330393039B042BF9DD01230B4A1268AA
:1036C00093400192D0221206536293610023029329
:1036D000029B042B05DC029B01330293029B042B0B
:1036E000F9DD04B07047C046583E0110543E011049
:1036F00001221B4B86B01B689A400193D0231B0606
:103700005A629A6100230593059B042B05DC059BF7
:1037100001330593059B042BF9DD01231149096849
:103720008B400191D02109068B6200230493049BF6
:10373000042B05DC049B01330493049B042BF9DD6B
:10374000D0231B069A6200230393039B042B05DC02
:10375000039B01330393039B042BF9DD06B07047F1
:10376000583E0110543E0110012170B50C00324B3F
:10377000D0221B6808259C40304B00261B6888B06F
:1037800099400193120643B2002B51DB54629461BD
:103790000596059B042B05DC059B01330593059BD2
:1037A000042BF9DD91620496049B042B05DC049B39
:1037B00001330493049B042BF9DD5162916103965C
:1037C000039B042B05DC039B01330393039B042B16
:1037D000F9DD4000013DC0B2002DD4D1D0231B063D
:1037E0009C6299620695069B042B05DC069B0133BF
:1037F0000693069B042BF9DDD0206423000602E02B
:10380000013B002B16D042682242F9D10120D0237F
:103810001B065962996100230793079B042B05DC63
:10382000079B01330793079B042BF9DD08B070BD9C
:103830009462ADE70020EAE7583E0110543E0110C3
:10384000F0B50125374B4746884619682B00D02232
:103850008B40CE46120680B599469362324B844621
:103860001B6808279D4000240026012089B0019391
:103870000596059B042B05DC059B01330593059BF1
:10388000042BF9DD95620496049B042B05DC049B54
:1038900001330493049B042BF9DD53686400CB408F
:1038A00055620340956103961C19039B042B05DCAC
:1038B000039B01330393039B042BF9DD013F002F8E
:1038C000D6D14346002B28D0D0234A461B065A6245
:1038D0009A61D0231B069D6200230793079B042B4C
:1038E00005DC079B01330793079B042BF9DDD023ED
:1038F0001B065D629D6100230693069B042B05DC7D
:10390000069B01330693069B042BF9DD63461C706E
:1039100009B00CBC90469946F0BDD0234A461B0620
:103920009A62D6E7583E0110543E0110F0B5464663
:103930004F46D6460123C0B51700564A8AB01268D2
:103940000E0093409846D023019242461B065A62CD
:103950009A6100230293029B042B05DC029B013336
:103960000293029B042BF9DD01234B4A126893401A
:103970009946D02301924A461B065A629A61002357
:103980000393039B042B05DC039B01330393039BED
:10399000042BF9DDFFF7E8FE002846D0002E0FDDEE
:1039A000731E9A46002406AD5346191B4B1E9941BF
:1039B0002800FFF745FF2B783B550134A642F3D191
:1039C000D02342461B065A629A6100230793079B45
:1039D000042B05DC079B01330793079B042BF9DDC0
:1039E000D0234A461B069A6200230893089B042BA7
:1039F00005DC089B01330893089B042BF9DDD023D9
:103A000042461B069A6200230993099B042B05DC9E
:103A1000099B01330993099B042BF9DD01200AB0AE
:103A20001CBC90469946A246F0BDD02342461B06D8
:103A30005A629A610490049B042B05DC049B0133B9
:103A40000493049B042BF9DDD0234A461B069A629B
:103A500000230593059B042B05DC059B013305938F
:103A6000059B042BF9DDD02342461B069A620023F6
:103A70000693069B042BD2DC069B01330693069B20
:103A8000042BCCDC069B01330693069B042BF3DD51
:103A9000C5E7C046583E0110543E0110F0B501255F
:103AA000304B89B01B680F009D400193D0231B064B
:103AB0005D629D6100230393039B1400042B05DCCE
:103AC000039B01330393039B042BF9DD0126264B53
:103AD0001B689E400193D0231B065E629E610023FB
:103AE0000493049B042B05DC049B01330493049B87
:103AF000042BF9DDFFF738FE002F06DDE7192078EB
:103B00000134FFF731FEA742F9D1D0231B065D62D5
:103B10009D6100230593059B042B05DC059B013368
:103B20000593059B042BF9DDD0231B069E62002321
:103B30000693069B042B05DC069B01330693069B2C
:103B4000042BF9DDD0231B069D6200230793079BFE
:103B5000042B05DC079B01330793079B042BF9DD3E
:103B600009B0F0BD583E0110543E0110F0B5454675
:103B7000DE4657464E460024E0B50D00BF4B93B0DD
:103B80001C60BF4B01911C60BE4B07003C22002112
:103B9000BD4898461C6007F0F3F8BC4B1C701C75C0
:103BA0002B78002B5ED000220292B94A0024002616
:103BB00093463900009709783200002918D0202B4D
:103BC00021D0252B32D001360134994213D14346FE
:103BD00042461B6801331360019B02941B5D002B5E
:103BE00040D0BA1911000978009232000029E6D1BC
:103BF000202B00D1B7E1002013B03CBC9046994681
:103C0000A246AB46F0BDA34B01345B5C1B07E3D57A
:103C10004346082118684546013683199B1A2B60D4
:103C2000BB5D9C4DEB5C1942F5D1D5E7019B621C55
:103C3000994618009B5C9144002B00D1B0E15B2BAE
:103C40007DD011D8252B72D101362529D3D14346F9
:103C500042461B68023401331360019B02941B5DD2
:103C6000002BBED10120C7E7642B01D0782B5ED199
:103C700001220020874D00921FE0782BBBD1442108
:103C8000BB5DEA5C114200D175E1202206A98A8061
:103C90000B7110220301002107A89A460BF010FDBA
:103CA0005044434642461B68013601331360BB5DF6
:103CB000002B00D136E14B461B78642BDDD1754AD1
:103CC000BB5DD15C04220A4222D12D2B00D121E11F
:103CD000002E00D18FE7BB19013B1B786D49C95CF1
:103CE0000A4202D12D2B00D085E7644B63491B6843
:103CF0005A1C0A6000999B00414308006249C85061
:103D00000E2A00DD43E10234019B02941B5D66E74D
:103D1000202206A98A800B712D2B0CD08300181845
:103D2000430007A89A460AF015F95044B9E7140071
:103D3000009902923FE701235B420093B1E7504BA9
:103D400000221B6851499A469B00029353449B00F2
:103D5000CA54019B1B199A78002A00D14BE701989D
:103D6000023406A900230731001908E0262B00D1F0
:103D700041E70133CA54C25C002A00D13BE7E51891
:103D80005D2AF3D10595262B00D134E7002208AC3B
:103D9000E254E3185A705B4620001A600BF09CFA5C
:103DA000002822D0002301250396049714E05E1C0E
:103DB000A15D2D2972D05B46374F1B68B94659006B
:103DC000C9188900CD5549444A608A605A46013372
:103DD00013603300834206D2E25C5E2AE7D10133EE
:103DE00002258342F8D3039E049F009B1A78002A81
:103DF0003AD02649029B894653449B0099445B462E
:103E00001D683B0007AC57469A4619E059688A423C
:103E100002DB99688A4220DD022F00D1EBE6002305
:103E200021004846637022700BF0E2F94346424697
:103E30001B6801360133136053469A5D002A11D086
:103E4000002D0EDD0020144B19780129DED15968B0
:103E50008A4202DB99688A42DEDD01300C33A842D7
:103E6000F2D15346BA461F005346054A059C01331A
:103E700013600134019B02941B5DB0E69430012075
:103E80009C30012098300120A4A30220D0A402205D
:103E9000A030012055580110E0A302209E1CA75D10
:103EA000B946002F25D15F465B463F681B68B9467F
:103EB0005B0099444B469B009946EAB213004F467B
:103EC0003B4ABB544A44516091605A461268384F8D
:103ED0000132914652004A44B9469200D3555B469E
:103EE0004A44516091605A461B68023313603300A4
:103EF00070E759462E4F0968BC464E007618B6004A
:103F0000F555664472604A46B2605A460131116006
:103F100003335FE7202107AA1180137001235B425E
:103F20000093BEE6019A029B944663449B78002B63
:103F300000D060E61F4B1F491B685A1C0A6000999D
:103F40009B00414308001C49C85001200E2A00DC98
:103F500052E61A4B1A49002019606146194B196044
:103F6000194B1A6048E6029A019B944663445878BC
:103F70004342584140E6002E00D13CE64422BB19A2
:103F8000013B1B78EB5C1A4200D0AEE633E60B4BEC
:103F90000B4919600B4B019919600B4B1A602AE60B
:103FA000064B0A4A1A60074B1860002024E6C046F8
:103FB000E0A3022094300120A4A3022038100120A5
:103FC0003C4D01103C10012090300120484D011063
:103FD000F0B5040083B00D481F0016000D0007F077
:103FE00087F90F20FFF74EFBFE2001AA6DBA15805E
:103FF00020400221FFF752FD012020433A0031000A
:10400000C0B2FFF793FC03B0F0BDC046644D011091
:10401000F8B5070012480E0015001C0007F068F9FB
:104020000F20FFF72FFBFFF733FBFE203840FFF791
:104030009BFB3012C0B2FFF797FBF0B2FFF794FB87
:10404000002D06DD651920780134FFF78DFBAC42A9
:10405000F9D1FFF74DFB042002F05CFFF8BDC0462C
:10406000644D0110F8B53B4B4E46994684225746A5
:1040700045460023DE464946FF32E0B58B54013AFF
:104080008B54354B4C469A4680235B02CB46002529
:104090000027984680345B461A780133BF18BFB2B8
:1040A000A342F9D180222900504607F021F90F20C0
:1040B000FFF7E8FAFFF7ECFAA020FFF755FB28120C
:1040C000C0B2FFF751FBE8B2FFF74EFB5E46307817
:1040D0000136FFF749FBA642F9D1FFF709FB04209F
:1040E00002F018FF802334009C468035E34480347E
:1040F0004545D0D1194BC1241F8084254B463A0A2F
:10410000640021001A55FF35022250465F5507F022
:10411000EFF80F20FFF7B6FAFFF7BAFAA020FFF783
:1041200023FB0120FFF720FB8220FFF71DFB4B46FE
:10413000185DFFF719FB4B46585DFFF715FBFFF7BE
:10414000D7FA042002F0E6FE3CBC90469946A2460F
:10415000AB46F8BDF84F0120644D0110E831012055
:104160008022F0B5274C9446230057464E464546DC
:10417000DE466344E0B599461E0000239846224B74
:1041800000259B4680235B029A4683B001AF8022C4
:104190004146584607F0ACF80F20FFF773FA434644
:1041A0003A000221A0205BBA3B80FFF777FC220097
:1041B0008021A120FFF7BAFB23780134ED18ADB2BE
:1041C000A642F9D180239C46E0444C468036D04537
:1041D00001D0E144DBE7C1230A4A5B00D35C8422BF
:1041E0000849FF32895C1A025B18ED1A0748084B30
:1041F0008A1802801D8003B03CBC90469946A246B6
:10420000AB46F0BDF84F0120644D0110EC310120A8
:10421000EA31012000230121034A1360034B196096
:104220001368002BFCD07047402C0120382C012053
:1042300010B51C4C2368002B04D11B4C2368002BA9
:1042400019D110BD01210120184AFCF761FDFCF7CE
:10425000D5FF00232360FFF705FF0122144B012146
:104260001A600320134AFCF753FDFCF7C7FF0E4CFE
:104270002368002BE5D0012101200F4AFCF748FDFF
:10428000FCF7BCFF00232360FFF76AFF01220B4B02
:1042900001211A6003200A4AFCF73AFDFCF7AEFF41
:1042A000CFE7C046382C01203C2C01207C4D01106A
:1042B000402C0120884D0110944D0110442C012008
:1042C000A44D01107047C0460120034B03491A68F2
:1042D000126808601A60704740100120A830012061
:1042E0000122034B1A60034B034A1A607047C04611
:1042F000A8300120401001208C1001200122034B26
:104300001A60034B034A1A607047C046A830012068
:10431000401001204C1101200122034B1A60034B75
:10432000034A1A607047C046A8300120401001209F
:104330005C1001200122034B1A60034B034A1A60F0
:104340007047C046A830012040100120C81001204D
:104350000122034B1A60034B034A1A607047C046A0
:10436000A830012040100120101101200122014B32
:104370001A607047703101200122014B1A607047AA
:104380006831012010B5FCF78BFD002100200B4A9D
:10439000FCF7BEFCFCF71EF901F0B0FC431CF9D0A1
:1043A00001F082FC0121040002000320FCF70AFC5A
:1043B000012CEFD1024B1C6010BDC046B44D011062
:1043C000A830012010B5FCF763FE10BD802110B5A8
:1043D0005022A320024B4901FFF71AFE10BDC04630
:1043E000F77001208422112110B50E4BFF32995431
:1043F0007231FF315A5CA02001325A545B180222FC
:10440000FFF706FEFCF74CFD074A00210020FCF7F1
:104410007FFCFCF7DFF8054802F07CFD0122044B2D
:104420001A6010BDF84F0120C44D0110B80B0000F8
:10443000A8300120802110B55022A320024B490151
:10444000FFF7C6FD10BDC046F770012000B595B05E
:104450006B4650220649A120FFF7BAFD80216B462A
:1044600050224901A220FFF7D3FD15B000BDC04680
:10447000FF200000F0B5DE46454657464E46E0B503
:1044800083B0FCF7CDFA002500242000012229008A
:104490000134FCF709FB792CF7D10A35282DF3D12B
:1044A000002500242100012228000134FCF7FCFA39
:1044B0001F2CF7D10A35822DF3D1FA20C00002F06B
:1044C00029FDFCF7ADFA00239B468B4B9D250093FD
:1044D0000193012301279A4699465B466D007F426E
:1044E000AB460026B8461D00844C3100280000224F
:1044F000FCF7DAFA414650460022FCF7D5FA494665
:1045000050460022FCF7D0FA414638000022FCF762
:10451000CBFA494638000022FCF7C6FA009A019B04
:1045200094465B441800A44464216646019305F058
:10453000A7F8642105003000009605F0A1F80600F8
:10454000010001222800FCF7AFFA6A1C9246721E95
:104550009046504601224146FCF7A6FA721C91464D
:104560005046012249466F1EFCF79EFA0122414641
:104570003800FCF799FA012249463800FCF794FA12
:10458000019B5F4A93423BDD5B46D804C01A800022
:10459000C01AC00058448001C01A8000C01A59498E
:1045A00005F06EF8009B83461A00C8231B019A424F
:1045B00058DDE004001B8000001BC0000019000152
:1045C000001BC00000194F49400005F059F84C4B42
:1045D00004000193C8231B010093FBF7FBFF01F0CC
:1045E0008DFB431C81D001F05FFB012878D00628A9
:1045F00072D005286BD164235B429C46E34474E788
:10460000009B1A00C8231B019A4246DDE004001BF0
:104610008000001BC00000190001001BC000001931
:104620003849400005F02CF8019B04001A0096233D
:104630005B009A425BDA5B46D804C01A8000C01A5D
:10464000C00058444001C01A800058442D49400021
:1046500005F016F896235B000193C8231B018346DF
:104660000093BAE7264B0193009B1A0096235B0048
:104670009A42B2DAE004001B8000001BC00000195F
:104680000001001BC00000191E49400004F0F8FFA3
:1046900096235B00040000939FE7019B1A0096237A
:1046A0005B009A42E0DA5B46D804C01A8000C01A68
:1046B000C00058444001C01A8000584411494000CD
:1046C00004F0DEFF96235B0083460193CCE70328CA
:1046D00000D00AE7643408E764239C46E34404E717
:1046E00003B03CBC90469946A246AB46F0BDC823F9
:1046F0001B01009371E7C0468813000041020000CF
:10470000D43000001027000010B5024B186801F0EB
:1047100023F810BD4410012010B50B4806F0E8FD49
:1047200032240420FBF728FE012002F0F3FB0420D2
:10473000FBF77EFE013C012002F0ECFB002CF0D1E7
:10474000024806F0D5FD10BDD04D0110D84D011026
:10475000F0B5DE4657464E464546E0B58BB0FCF711
:104760005FF900230026684F0993099B002B00D0B6
:1047700099E0FBF72FFF0022644B0692079300237A
:1047800000220492059300230893089805F098FAF4
:1047900000239A4614339946029003910298039994
:1047A00022002B0005F0ECF904000D0005F040FBA1
:1047B000009001912000290005F024FB069A079B38
:1047C00005F0DEF901239B46534604000D00142B2F
:1047D00001DC00239B4600224D4B2000290005F000
:1047E000F6F900224B4B05F0F2F90022494B05F097
:1047F000C7F905F07DFA049A059B80460098019957
:1048000005F0BEF90022424B05F0E1F932003B0011
:1048100005F0DDF93B00320005F0B2F905F068FA69
:104820005A464146FCF740F901235B429C46089BEF
:10483000E1449C464B46E244002BAFD16046013038
:104840000890052816D005F03BFA334A334B05F0A3
:10485000BEF90022002305F093F90090019105F0C4
:10486000E7FA049005910098019905F0CBFA0690BB
:1048700007918AE701F042FA431C00D175E701F085
:1048800013FA012839D006281BD005280ED1300094
:1048900039001F4B002205F09AF9099B06000F0012
:1048A000002B00D165E7FCF7BBF862E7032811D1C4
:1048B000200029001A4A1B4B05F062F904000D0084
:1048C00053E732003B003000390005F059F906008B
:1048D0000F004AE7202804D10123099A5A4009927F
:1048E00043E7042800D040E7200029000E4A0F4B80
:1048F00005F03DF904000D0037E70BB03CBC9046D5
:104900009946A246AB46F0BD000050400000F03F83
:104910000000E03F00003040BB89BC02BA609B3F12
:10492000CDCCCCCCCCCC08409A9999999999094096
:104930007047C0467047C0467047C0467047C04683
:104940007047C0467047C046264BF0B5474698466C
:10495000C823CE465B010024994680B5224E234FE2
:10496000234D91B06B4640222100A320FFF730FB7E
:10497000FCF796FA6B4600211A780020FCF726FA1D
:104980006B4600215A1C0520FCF7C2F911236B4429
:104990001A0001210020FCF7BBF9404606F0A8FCF4
:1049A0006B463800197806F0A3FC6B463000591CA2
:1049B00006F09EFC11236B441900280006F098FCB9
:1049C000FBF708FE01F09AF9431CF9D001F06CF9ED
:1049D000012802D040344C45C4D111B00CBC9046E3
:1049E0009946F0BDE44D0110F84D0110EC4D011059
:1049F000044E0110F0B599B000236A461370FCF71D
:104A00004FFA334D00212A000020FCF781F9684657
:104A1000FCF7A0FA00272026FBF7DCFD01F06EF979
:104A2000431CF9D001F040F9040001281CD00D28E6
:104A300021D068460AF050FC1D28EDD86B46202294
:104A40001E849B18190068441C700AF03DFCFCF79A
:104A500027FA2A0000210020FCF75AF96A460021B3
:104A60000520FCF755F9D7E76B461B78002B28D1BA
:104A7000184B186023E0184806F03AFC002408ADF3
:104A800002E00134642C1FD0A6012B00402231002B
:104A9000A320FFF79DFA2B782A2BF2D021000F4894
:104AA00006F026FC21202A23694668442B700AF070
:104AB0000BFC2B0040223100A220FFF7A9FA19B00D
:104AC000F0BD6B461F70C2E7054806F011FCF6E723
:104AD000104E0110A8300120184E01102C4E01106C
:104AE000444E0110F0B5DE4657464E464546E0B509
:104AF000A9B000236A461370FCF7D2F98D4F00214C
:104B00003A000020FCF704F96846FCF723FA8A4BC8
:104B100000249946894B00269A46894B9B46FBF711
:104B200059FD01F0EBF8431C00D1A6E001F0BCF800
:104B30000500012851D00D2800D192E0002E00D1AF
:104B40007AE07E4B1800984606F0D2FB632C03DD1A
:104B500052E00134642C4FD0A10118AB4022A320B5
:104B6000FFF736FA61236B44190068460AF068FBC8
:104B70000028EED1402218A908A806F007F95846E7
:104B800006F0B6FBFCF78CF93A0000210020FCF798
:104B9000BFF82122002105206A44FCF7B9F8312230
:104BA000012100206A440134FCF7B2F8FBF712FD42
:104BB00001F0A4F8431CF9D001F076F8012800D1E7
:104BC00088E00D28F2D1FBF705FD012601F096F8EB
:104BD00001F06AF805000128ADD16B461B78002B67
:104BE00000D08FE00122574B1A6029B03CBC9046A0
:104BF0009946A246AB46F0BD484606F079FB002335
:104C00006A461370FCF74CF93A0000210020FCF7CB
:104C10007FF86A4600210520FCF77AF8FBF7DAFCFA
:104C200001F06CF8431C6AD001F03EF80500012841
:104C300078D00D2879D000242023984668460AF0C1
:104C40004BFB1D282DD9FBF7C5FC01F057F8431C81
:104C500025D001F029F8002605000128BDD00D2837
:104C6000ECD15046D04606F043FB002E00D06DE755
:104C7000354806F03DFB00246EE7002E00D055E7D6
:104C8000FBF7A8FC01F03AF8431C00D04EE7FBF715
:104C9000A1FC01F033F8431C00D047E7F0E7002601
:104CA0003DE76A4660234146D21811806A46D31810
:104CB000190068441D700AF007FBFCF7F1F83A0090
:104CC00000210020FCF724F86A4600210520FCF7AB
:104CD0001FF8B8E700236A461370FCF7E1F83A00C2
:104CE00000210020FCF714F86A4600210520FCF79B
:104CF0000FF80126FBF76EFC01F000F868E70024CE
:104D000000260CE700236A461370FCF7C9F83A0046
:104D100000210020FBF7FCFF6A4600210520FBF77D
:104D2000F7FFFCE60024002657E7404606F0E0FACD
:104D30009EE7C046544E01108C4E01105C4E01108F
:104D4000844E0110A83001206C4E0110F0B5C6460B
:104D5000294B00B598461B68002B24D100F0CEFFEC
:104D6000431C02D104BC9046F0BD00F09DFF234BD4
:104D70001C68237B262BF5D022000021183206E088
:104D80000C3213000C3B1B780131262BEAD08342F6
:104D9000F6D14B00591889006418636998470123BC
:104DA00042461360DEE7002342461360FCF778F8C2
:104DB000124E31680B7B262B1AD000250023104F92
:104DC0005B199C0009190869FCF74AF93368013539
:104DD0009C4664442069FCF7BDF83800FCF7BAF83B
:104DE0006B0031685A1992008A18127B262AE7D183
:104DF0008B689847B2E7C046A830012040100120D8
:104E00003041011070B504002500FCF749F8661C1C
:104E1000002100202278FBF7D9FF11353200002154
:104E20000520FBF775FF2A0001210020FBF770FF2A
:104E30000B4806F05DFA21780A4806F059FA31006D
:104E4000094806F055FA2900084806F051FAFBF720
:104E5000C1FB00F053FF431CF9D000F025FF70BDEB
:104E6000E44D0110EC4D0110F84D0110044E0110FD
:104E7000F0B5C64600B598B0FCF712F81B4B0024FD
:104E800098462D251A4F1B4E22004146684604F0D5
:104E900065FB6A4600210020FBF73AFF20226B46A3
:104EA0009B1820001D700A2104F0EAFB21230A0050
:104EB0006B4439001800413204F050FB31236B443D
:104EC00022003100180004F049FBA101402208AB88
:104ED000A220FFF79DF8013408A8FFF793FF642C88
:104EE000D2D118B004BC9046F0BDC046A04E01100F
:104EF000A84E0110AC4E01100022044B1A60044B66
:104F000001321A60034B044A1A607047A430012032
:104F1000A8300120401001209411012010B5FFF7A6
:104F200015FF10BD1A4B70B51A680A21501C186085
:104F300004F0A6FB174A002910D17B23D156164B4B
:104F4000C80F1860154B5C689D68DE681C601C69A2
:104F50005D609E60DC601861002907DB7423D35C10
:104F6000002B02D000220E4B1A6070BD012CF5D12F
:104F70003543F3D10A48036801330360042BEDD1B4
:104F800008490C600B68002BFCD10360E6E7C046C3
:104F90008C310120F84F0120883101204810012078
:104FA00090310120B02B01200022014B1A60704784
:104FB0002C3101200E4B10B519680E4806F098F9F7
:104FC0000D4B0E48196806F093F90D4806F090F95C
:104FD0000C4806F08DF90C4C0C48218806F088F935
:104FE0006388E279A1790A4806F082F910BDC046CB
:104FF00040310120B44F011058310120CC4F011035
:10500000E44F0110F84F01107C4F01200C500110AB
:105010001850011070B50D4C0D48216806F068F964
:105020000C4D0021280006F063F923681C00303C79
:10503000392B01DD573B1C002100280006F058F9F0
:10504000054B1A6811012143196070BD6C300120B5
:1050500038500110405001102C310120074A10B582
:105060001368594259411160002B04D00449054886
:1050700006F03EF910BD0449F9E7C0467C31012035
:105080004C5001105450011048500110A522A62187
:1050900070B5154B15489A5C5E5C1202B618A722D3
:1050A00002319A5C5D5C1202AD18A92202319A5C51
:1050B0005C5C1202A4180E4A0E499A5C595C1202FA
:1050C0008918B6B289B206F013F9ADB231000A48B8
:1050D00006F00EF9A4B22900084806F009F92100EB
:1050E000074806F005F970BDF84F01206C5001101B
:1050F00065200000662000007C5001108C500110DB
:105100009C50011070B50A2005F04AFF0B4C0C4E64
:1051100025004535FF35626813782A2B03D030000F
:10512000217806F0E5F80C34AC42F4D1054806F0DD
:10513000DFF80A2005F034FF70BDC04624120120BC
:10514000AC500110B8500110F0B5DE4657464E463F
:1051500045468022E0B5284C0021A5440AABD20088
:10516000A320FEF735FF0A2005F01AFF002302AF47
:105170003B70224B00249946214B0AAE9846214BA6
:105180009B46214B9A460EE02A005146684604F0A1
:10519000E5F9694638000AF02BF88023013401361E
:1051A000DB009C421DD007231D00254023420DD06B
:1051B00035784846290006F09BF8434668225B5D37
:1051C0009343E1D12E236A461380E2E73900584623
:1051D00006F08EF802AF21000C483D7006F088F80A
:1051E000E6E70A2005F0DCFE094B9D443CBC9046F6
:1051F0009946A246AB46F0BDD4EFFFFF2C4101100B
:1052000055580110DC500110A44E0110E45001105B
:105210002C100000F0B5DE4657464E464546E0B538
:105220000A208BB005F0BCFE00236A461372324B95
:10523000324E9846324B34689B46324B324F9A4638
:10524000324B99461DE0C0231B029C4243DD304B8C
:10525000E318304A4046D55C290006F049F8682238
:105260007B5D934328D02A0068462B4904F076F9E9
:10527000694602A809F0BCFF33680134FF33A3423A
:105280002FDB07231D002540234219D080231B025A
:105290009C42D8DA80222300D201944202DB1F4BC9
:1052A0001B68E3184A46D55C4046290006F020F802
:1052B00068227B5D9343D6D12E236A461380D7E7BD
:1052C00002A9584606F014F86B46210050461D729C
:1052D00006F00EF8DAE7124B1A680D4BE3189B182C
:1052E000B7E70A2005F05CFE0BB03CBC904699463F
:1052F000A246AB46F0BDC0462C4101102C31012026
:10530000DC500110E450011055580110F84F0120F5
:105310000080FFFFC00D0020A44E0110403101208D
:105320005831012010B584B001AB1900074A11CAE9
:1053300011C1108808809278A3208A70044A1168ED
:105340000A22FEF765FE04B010BDC046EC50011005
:105350002C310120F0B5DE4657464E464546E0B5B5
:10536000214B89B09B461B68002B32DD1F4B00246C
:1053700099461F4B98461F4A6300D55A1E4A1F493B
:10538000165D1F4A1F48125DADB2D2B20692CA5ACC
:10539000C75A4B461B5D91B2DBB29A464B46185D2D
:1053A0000791C0B2FDF74EFD53460799069AF6B233
:1053B000BFB2049003930191330021000092404654
:1053C0002A00029705F094FF5B461B680134A34254
:1053D000D1DC0A2005F0E4FD09B03CBC90469946BA
:1053E000A246AB46F0BDC046442A0120EC45012050
:1053F000F850011058340120684201208C3C0120F3
:10540000343A0120E43E0120F0B545464E46DE46E2
:105410005746244BE0B51C68234B00259946234B87
:1054200089B09846224A6300D65A224A2249175D1B
:10543000224A2348125DB6B2D2B20692CA5AC35A61
:1054400091B29BB29A464B461B5D0791DBB29B46DD
:105450004B46185DFFB2C0B2FDF7F4FC5B46039308
:1054600053460799069A0490029301913B00290044
:1054700000924046320005F03BFF9621601C490037
:1054800004F0FEF8962301350C005B009D42C9D163
:105490000A2005F085FD09B03CBC90469946A2461D
:1054A000AB46F0BD482A01203C410120F8500110D4
:1054B000DC370120603B012094430120B0360120FD
:1054C0000032012010B5034804F0ACF800210300BD
:1054D0000020984755420000F0B5C646904D642024
:1054E0002C6800B5002C07D005F014FF0400431C05
:1054F0001ED104BC9046F0BD05F00CFF431CF8D053
:1055000088490B0003E001340C331B2CF1D01A78CE
:105510008242F8D1844B186063001C19A400091959
:105520008B689847814B8248196805F0E1FEE0E7F7
:105530000100804805F0DCFE7F4E3168012931D042
:1055400002290BD0002903D07C4805F0D1FED0E71A
:105550001B2C6BD1012301313360F5E7784805F04E
:1055600071FD432C00D1C7E048DC412C72D0422CA5
:1055700000D089E00423734D73482B7005F0B8FE0A
:105580000023EB56013305D0FBF724F80023EB563C
:105590000133F9D16D4F380005F0AAFE0023002138
:1055A0003360D1E76A4805F04DFD1B2C64D05B2CBD
:1055B00038D00023634D2B70634B1800984605F0DC
:1055C00097FE0023EB56013305D0FBF703F80023C9
:1055D000EB560133F9D15D4F380005F089FE4046A6
:1055E0002C7005F085FE0023EB560133D3D0FAF77B
:1055F000F1FF0023EB560133F9D1CCE7442C43D122
:105600000523504D50482B7005F072FE0023EB56D9
:105610000133BFD0FAF7DEFF0023EB560133F9D197
:105620004A4FB8E70223022133608DE7454D4648D3
:105630002C7005F05DFE0023EB56013305D0FAF720
:10564000C9FF0023EB560133F9D1404805F050FE65
:10565000316879E703233B4D3B482B7005F048FE4A
:105660000023EB56013395D0FAF7B4FF0023EB5635
:105670000133F9D1354F8EE7002336482B60336074
:1056800005F036FE31685FE700232E4D2B702E4B60
:105690001800984605F02CFE0023EB56013305D088
:1056A000FAF798FF0023EB560133F9D1274F380062
:1056B00005F01EFE002340462B7005F019FE002366
:1056C000EB56013305D0FAF785FF0023EB56013383
:1056D000F9D1380005F00CFE40462C7005F008FEAC
:1056E0000023EB56013300D155E7FAF773FF00238F
:1056F000EB560133F9D14EE70623124D12482B70B9
:1057000005F0F6FD0023EB56013300D142E7FAF72E
:1057100061FF0023EB560133F9D10C4F3BE7C04644
:105720007C310120241201206C3001202C31012019
:10573000905101104C5101109831012080510110FD
:1057400078510110E8170120385101104051011023
:105750005C510110645101102023F0B583B001AEFB
:105760004022338000233A4C0700A3544032A35414
:105770004032A3544032A3544032A3544032A35485
:1057800040322370A35403780025002B07D114E086
:105790000135072D57DC7B780137002B0DD01A001F
:1057A000093A012AF4D9A8013100201801373370D1
:1057B00009F01EFD3B78002BF1D12600002525487D
:1057C00005F040FC244F320029003800013505F077
:1057D0008FFD4036082DF6D10A2005F0E1FB2200AE
:1057E00000210020FBF736FA220001210020403280
:1057F000FBF730FA2200022100208032FBF72AFA60
:10580000220003210020C032FBF724FA40270326A0
:10581000073D2900E01900F089FA03280FD0042879
:1058200004D00128F5D1002003B0F0BD013535408A
:10583000AF012900E01900F079FA0328EFD1013D0A
:105840000540AF01E5E70549054805F051FDB4E71E
:10585000F8A4022054520110645201108452011025
:1058600070520110F8B57D4B4746CE461A685D6808
:1058700090467B4C80B59A60DD601A615D619A61EB
:10588000DD6103C363682268E3609946754BA260DB
:105890001E685F689C469E60DF602E004346474658
:1058A0000E40074029431843C0436346C94318606C
:1058B00059603D0030004B4695439843BA43B3438B
:1058C00011001A0027606660674B684E684C06C37B
:1058D00060602560336877682B433843904320220B
:1058E0008B4333607060634E1340634F3360AA078D
:1058F00069D5002B5ED1614D012100223B68002B50
:1059000000D00A002B68002B01D002231A435C4B05
:105910005C485D491D680160AA4200D18AE09D682B
:10592000AA4200D18CE01D69AA4200D18AE09D699B
:10593000AA4200D188E01D6AAA4200D186E09D6A91
:10594000AA4200D184E01D6BAA4200D182E09D6B87
:10595000954200D180E00B684A681800104348D097
:105960002568646805E00B694A6918001031104326
:105970003FD02B4022401343F5D0444A44480368AB
:1059800015680F220133DC17240F1B1913401B1B52
:10599000AB420BD00C7A03683E49CC540368013308
:1059A000D917090F5B181A40521A02600CBC9046B6
:1059B0009946F8BD396838484B425941396005F07D
:1059C00097FC256833686A0706D42C4D052104220C
:1059D000002B00D092E78FE7284D002B00D18BE7FA
:1059E00029682E484B425941296005F081FC3368F3
:1059F000ECE700252A4845576B1CD7D0234A244999
:105A0000EDB20B6816680F220133DC17240F1B1947
:105A100013401B1BB3420AD00B681E4CE5540B68A5
:105A20000133DC17240F1B191A40121B0A60FF23D5
:105A30000370BBE70022D2009B18596801608AE717
:105A40000122F8E70222F6E70322F4E70422F2E754
:105A50000522F0E70622EEE70722ECE708A702207E
:105A6000F8A6022050A7022038A7022040260120D5
:105A700030A7022094310120702B0120C03001207A
:105A8000EC17012028A7022068130120B83001205C
:105A9000B430012040A7022094520110A4520110FA
:105AA000E8170120F0B5784C83B023680A2B05D0A5
:105AB0000B2B32D0002B18D003B0F0BD734B1868FD
:105AC000FAF710FD2021724B80101860014232D08D
:105AD0008020704D00062E686F6838433200030046
