:020000041000EA
:1000000000B5324B212058609868022188439860DF
:10001000D860186158612E4B002199600221596106
:100020000121F02299502B49196001219960352056
:1000300000F044F80222904214D00621196600F024
:1000400034F8196E01211966002018661A6600F04E
:100050002CF8196E196E196E052000F02FF8012189
:100060000842F9D1002199601B49196000215960AB
:100070001A491B48016001219960EB211966A021F2
:10008000196600F012F800219960164914480160C1
:100090000121996001BC002800D000471248134993
:1000A000086003C880F30888084703B5996A0420EC
:1000B0000142FBD001200142F8D103BD02B5186610
:1000C0001866FFF7F2FF186E186E02BD00000240BE
:1000D000000000180000070000035F00212200005C
:1000E000F4000018222000A00001001008ED00E03C
:1000F00000000000000000000000000074B24E7A12
:1001000000200420F7010010C3010010C5010010F9
:10011000C1010010C1010010C1010010C101001097
:10012000C1010010C1010010C1010010C701001081
:10013000C1010010C1010010C9010010CB01001065
:10014000CD010010CD010010CD010010CD01001037
:10015000CD010010CD010010CD010010CD01001027
:10016000CD010010CD010010CD010010CD01001017
:10017000CD010010CD010010CD010010CD01001007
:10018000CD010010CD010010CD010010CD010010F7
:10019000CD010010CD010010CD010010CD010010E7
:1001A000CD010010CD010010CD010010CD010010D7
:1001B000CD010010CD010010CD010010CD010010C7
:1001C00000BE00BE00BE00BE00BE00BE00F04BF888
:1001D000103800BEF2EB8871644501108C450110A7
:1001E0003402001090A31AE700202149086006C8D5
:1001F00081F3088810471F48006800282FD10DA4FC
:100200000ECC002902D000F012F8F9E71A491B4A77
:10021000002000E001C19142FCD1194988471949E9
:1002200088471949884700BEFDE701C901C29A42C3
:10023000FBD370478C450110C0000020701E0120C8
:100240003C63021000000420000004203C63021004
:1002500000100420001004200000000070470B482C
:1002600007F0F0FF0047EFF30580C0B270470000D1
:1002700008ED00E0000000D0701E0120CCA002209C
:1002800065640010C1050010896500105756000014
:1002900006005250ABB36053503701100600525065
:1002A000861C030260370110060052505422A29DA2
:1002B0007037011005005250DE65F4683C6302108F
:1002C000F8B5C0460448054B10B5834203D0044B33
:1002D000002B00D0984710BD701E0120701E012019
:1002E0000000000006480749091A8B10C90FC918F9
:1002F00010B5491003D0044B002B00D0984710BD17
:10030000701E0120701E01200000000010B5074C77
:100310002378002B09D1FFF7D5FF054B002B02D026
:10032000044800E000BF0123237010BD801F01209E
:100330000000000020220110054B10B5002B03D057
:100340000449054800E000BFFFF7CCFF10BDC046E0
:1003500000000000841F012020220110F0B5474654
:10036000CE4680B5274B83B098461C88264B9C42CE
:100370003CD043460443A4B21C80D026802380276F
:100380001B02360601200021B361FF0405F0BAFB11
:100390001025B9460FE08023DB01736101200021A5
:1003A00005F0B0FB013D01200021776105F0AAFBBB
:1003B0006400002D0BD04B460120B361002105F0F5
:1003C000A1FB2304E7D48023DB01B361E6E7D0235C
:1003D00080221B0612025A6142460B4B12889A4237
:1003E0000AD003B00CBC90469946F0BD00230093A0
:1003F000009B002BFCD1BCE700230193019B002B49
:10040000FCD1EEE7FA2A012009200000F0B5CE4623
:10041000474680B5264B83B098423DD0254BD02629
:100420001C88984684431C80802380271B02360644
:1004300001200021B361FF0405F064FB1025B946DB
:100440000FE08023DB0173610120002105F05AFBDE
:10045000013D01200021776105F054FB6400002D6F
:100460000BD04B460120B361002105F04BFB230468
:10047000E7D48023DB01B361E6E7D02380221B06AB
:1004800012025A6142460A4B12889A420AD003B0BD
:100490000CBC90469946F0BD00230093009B002BB6
:1004A000FCD1BBE700230193019B002BFCD1EEE7BD
:1004B00009200000FA2A0120F0B50124D02584404B
:1004C000C64680272D0600B50120AC610021AC6135
:1004D00005F018FB7F036C610120002105F012FB81
:1004E00008260024B8466B686400E4B29B0202D57B
:1004F00001231C43E4B2434601200021AB6105F017
:1005000001FB013E012000216F6105F0FBFA002E86
:10051000E9D1200004BC9046F0BDC046F8B5DE46E7
:1005200057464E464546E0B501263300D024834069
:1005300024060D0001200021A36117009B4605F051
:10054000E1FA002F26DD7B1E9E408023DB04B046AF
:10055000994600269A4610E08023DB016361012062
:10056000002105F0CFFA4B460120002163610136DE
:1005700005F0C8FA6D00B7420CD053460120A361C4
:10058000002105F0BFFA43461D42E5D18023DB017F
:10059000A361E4E7D0235A461B065A613CBC90464F
:1005A0009946A246AB46F8BD10B503F0CBFE02F06B
:1005B0005BFE03F081FD02F0E3FB04F05DFA10BD89
:1005C00010B51B2084B004F0A1FBD02480232406A6
:1005D0001B0563620D20636104F098FB0E2004F09C
:1005E00095FB0F2004F092FB162004F08FFB1520E2
:1005F00004F08CFB1A2004F089FB132004F086FB26
:10060000142004F083FB122004F080FB002004F08F
:100610007DFB012004F07AFB022004F077FB03202D
:1006200004F074FB042004F071FB052004F06EFB61
:10063000062004F06BFB072004F068FB0122002178
:10064000002004F04BFB01220021012004F046FBB6
:1006500001220021022004F041FB0122002103209D
:1006600004F03CFB01220021042004F037FB0122AE
:100670000021052004F032FB01220021062004F0B5
:100680002DFB01220021072004F028FB0A2004F0A2
:100690003DFB0B2004F03AFB0C2004F037FB11204B
:1006A00004F034FB102004F031FB00220121102063
:1006B00004F014FB00220121112004F00FFB802321
:1006C0008022DB0192016362A262636280231B02CB
:1006D00063628023DB03636280239B03A362802326
:1006E000DB04636280231B03636280228023D202C7
:1006F0005B03636262628022D20062628022120126
:1007000062628022520162621348636102AA03ABF3
:1007100001A904F015FA002817D10120FFF71EFEE9
:100720000A2005F007FA00F041F800F021F909F07D
:1007300053F801F02FFC03F0CFFE084808F0EAFE62
:1007400003F0EAFE04F098F9FAE7039A0299019897
:1007500004F0BAF9E1E7C046A0F703002022011037
:1007600000B583B06A4680231371793B0340502063
:100770004042184350710221782001AA03F0ECF89E
:1007800003B000BD10B5102482B0030901AA2343B1
:1007900053700F238021184011709170D0707C39F4
:1007A000782003F0D9F802B010BDC046F0B580261D
:1007B0006C4C6D4B21881D68314385B0280089B28F
:1007C00008222180FA27FFF7A9FE7F212388FF0056
:1007D00019402800082221800397FFF79FFE2188F7
:1007E0000822314389B2280021800297FFF796FE44
:1007F000019702F087FE782002F0F8FE802002F0D8
:10080000F5FEAE2002F0F2FE802002F0EFFED520D1
:1008100002F0ECFE802002F0E9FEA02002F0E6FEED
:10082000802002F0E3FEA82002F0E0FE802002F02B
:10083000DDFE1F2002F0DAFE802002F0D7FED3207A
:1008400002F0D4FE802002F0D1FE002002F0CEFEA5
:10085000802002F0CBFEAD2002F0C8FE802002F026
:10086000C5FE8E2002F0C2FE802002F0BFFED8201E
:1008700002F0BCFE802002F0B9FE052002F0B6FEB8
:10088000802002F0B3FEA12002F0B0FE802002F032
:10089000ADFEC82002F0AAFE802002F0A7FEDA20FA
:1008A00002F0A4FE802002F0A1FE122002F09EFEC3
:1008B000802002F09BFE912002F098FE802002F042
:1008C00095FE3F2002F092FE802002F08FFE3F2036
:1008D00002F08CFE802002F089FE3F2002F086FEAE
:1008E000802002F083FE3F2002F080FE802002F094
:1008F0007DFE812002F07AFE802002F077FE1B4B05
:10090000187802F073FE802002F070FED92002F009
:100910006DFE802002F06AFED22002F067FE802089
:1009200002F064FEDB2002F061FE802002F05EFE39
:10093000342002F05BFE802002F058FEA62002F078
:1009400055FE802002F052FEA42002F04FFE8020CF
:1009500002F04CFEAF2002F049FE02F007FE05B0A7
:10096000F0BDC046FC2A01204022011040040020B6
:100970008023F0B54746CE469946D03B00259846A1
:1009800080B5174F83B001AE4B46337043463200FB
:100990002B4302217820737002F0DEFF3200042125
:1009A0007820019702F0D8FF02F0ACFD782002F029
:1009B0001DFE402002F01AFE8424013C0020E4B217
:1009C00002F014FE002CF8D10135EDB202F0CEFD9C
:1009D000042DD9D103B00CBC90469946F0BDC04659
:1009E00080108000204BF0B54746CE469946002344
:1009F00080B5502700259846802683B001AC7F4201
:100A00004B4642465B191A70EB113B432200022110
:100A100078206370267002F09FFF7F2310212B4007
:100A20001A090A4362700F22042113407820220021
:100A3000E3702670A67002F08FFF02F063FD78204D
:100A400002F0D4FD402002F0D1FD002002F0CEFDE6
:100A500002F08CFD80230135DB009D42D0D103B034
:100A60000CBC90469946F0BD24400120F0B5DE460E
:100A700057464E464546E0B5040083B00E000A00D6
:100A80000100384808F09CFE7F20031B9846F317AE
:100A900007271C003C40A419E410644203342200E0
:100AA000414631489A4608F08BFE80233A00994629
:100AB00001AD2B702240D03B134302212A00782045
:100AC0006B7002F049FF43464A4610210433DBB203
:100AD0002A701A090A436A704A46AA70713A13408A
:100AE00004212A007820EB7002F036FF02F00AFDA4
:100AF000782002F07BFD402002F078FDE4011B4BE2
:100B0000444499461B5D21009B46194808F058FE55
:100B1000184B59461800984608F052FE53460125D6
:100B2000590F761837407F1A5B46BD401D43EDB222
:100B30002900404608F044FE280000F01DF8C0B22D
:100B400002F054FD4B46290040461D5508F038FE82
:100B500002F00CFD03B03CBC90469946A246AB4661
:100B6000F0BDC0464822011054220110244001204B
:100B70006422011070220110022101234200114061
:100B800042101A401143821049001A400A43C11012
:100B9000194052000A4301115200194011434211F9
:100BA0001A4049001143821149001A400A43C011FA
:100BB0005200184010437047032370B5040015001D
:100BC0005B1AD8B2FFF7CCFDA000201A40007F309E
:100BD000C0B2FFF7D7FD02F095FC782002F006FDC9
:100BE000402002F003FDAA00521901240425154EED
:100BF000B6182200735D1A4058102040520002437C
:100C00009810520020401043DA1022404000104358
:100C10001A11400022400243581120405200024362
:100C200098115200204010434000DB11184302F09D
:100C3000DDFC013DDDD2002002F0D8FC02F096FC84
:100C400070BDC04644040020F0B54646D6464F4627
:100C5000C0B516789046002E4DD00323591ACBB25A
:100C60009946274B01249A468500451B6D007F3528
:100C7000EDB201239C4604274846E044FFF770FD8F
:100C80002800FFF77FFD02F03DFC782002F0AEFC6B
:100C9000402002F0ABFCB3009E1956442200F35DE5
:100CA0001A40581020405200024398105200204031
:100CB0001043DA102240400010431A114000224035
:100CC0000243581120405200024398115200204024
:100CD00010434000DB11184302F088FC013FDDD2D5
:100CE000002002F083FC02F041FC43461E78063DE2
:100CF000EDB2002EBDD11CBC90469946A246F0BD77
:100D000044040020F8B5294BCE46994605234746B2
:100D10005B424B4480B598467F2701240326F0B2FE
:100D2000FFF71EFD3800FFF72DFD02F0EBFB7820EA
:100D300002F05CFC402002F059FC4D4622002B786A
:100D4000013D1A40581020405200024398105200B2
:100D500020401043DA102240400010431A11400096
:100D60002240024358112040520002439811520081
:100D700020401043DB114000184302F037FCA84527
:100D8000DCD1002002F032FC02F0F0FB013EC6D2C2
:100D9000063FFFB2012FC1D10023054A1360054A67
:100DA00013600CBC90469946F8BDC046E80400208C
:100DB000D8240120DC240120F0B5DE464546574604
:100DC0004E46E0B53C4B05789B461C683B4B83B0D8
:100DD0001A680190002D50D003239B1ADBB299466C
:100DE000374BA600A61B80469A46012476007F3624
:100DF000F6B201239C4604274846E044FFF7B0FCC6
:100E00003000FFF7BFFC02F07DFB782002F0EEFB24
:100E1000402002F0EBFBAB005D1955442200EB5D76
:100E20001A405810204052000243981052002040AF
:100E30001043DA102240400010431A1140002240B3
:100E400002435811204052000243981152002040A2
:100E500010434000DB11184302F0C8FB013FDDD214
:100E6000002002F0C3FB02F081FB43461D78063EE2
:100E7000F6B2002DBDD15B461C6801980CF024FC35
:100E80002418142C08DC5B461C6003B03CBC904664
:100E90009946A246AB46F0BD5B4600221A60074B5E
:100EA0001B6801930133032B02DD044B1A60ECE74E
:100EB000024A1360E9E7C046D8240120DC2401205F
:100EC0004404002010B50CF0FFFB084B1A68944650
:100ED0006044142807D90021054A196013680133BA
:100EE000032B01DD116010BD1360FCE7D824012045
:100EF000DC24012070B5094808F062FC01231D00C4
:100F0000074AD0241268FA2095402406054AA561B4
:100F10004000136004F00EFEA56170BD7C2201103C
:100F200044220110782A0120374A30B513680400A2
:100F300001331360B02383B09B0098425AD024D968
:100F4000C0239B00984232D0403398421BD180216D
:100F50002E4A2F4C1088238801407F2001339BB2FA
:100F600023804340194389B211800822294B186815
:100F7000FFF7D4FA0220284923884A7DDB12034078
:100F8000824313434B7503B030BD013BFF3B984296
:100F90001AD040339842F6D180204000FFF7DEF9A6
:100FA0002000FFF7DBF9642004F0C4FDEBE7002329
:100FB0008021174C2380154B1A8811407F22114342
:100FC0001980773A134BD2E703F068F8134808F01A
:100FD000F7FB01231D00124AD0241268FA20954025
:100FE000019224060F4AA5614000136004F0A2FD9F
:100FF000A561C8E780204000FFF708FA8020800044
:10100000FFF704FABFE7C046882A0120FC2A012026
:10101000FE2A012040220110044901207C220110F7
:1010200044220110782A01208023044A5B42517C2B
:101030000B4353740122024B1A707047044901207C
:10104000BC0D00200122024B1954024B1A6070475C
:101050009C4801204C250120F0B5DE4657464E46FF
:101060004546E0B5012083B002F046FA5D4B5E498B
:101070001A68002A03D10A68002A00D1A4E00022DD
:101080005A4F1A603B680A60002B00DAA2E0584B06
:1010900000249946574B9B46574B9846574B9A46C8
:1010A0000EE0574B2000196807F0FAF803002A00F9
:1010B00008001900FFF780FD3B680134A34239DBCB
:1010C0004B465A461B681B5DD55C424612689342EC
:1010D000E7D153461B68002BE3D04A4B1B68002B1B
:1010E00007D0494B1B68002B06D0019580256D0069
:1010F000D7E7454B1B6801938021AB005B19019535
:101100000225424A4942D05C414E08439055D318CB
:101110005878404E0843905598783F4E0843905574
:10112000D8780136084390551B79FF350B433B496E
:101130005354B6E71421200007F0B2F81421824678
:10114000200007F0ADF88946354B00269846434607
:1011500031009A5D14200136FFF72EFD042EF6D1E2
:101160006A1EFF3A2B00012A26D92E4AD35C682238
:1011700093431FD05346162058434B462A4EEDB298
:1011800035552A4C2018C5543D6859462A00284830
:1011900008F064F800232B22A3541632A35416320D
:1011A0006375A354735503B03CBC90469946A24660
:1011B000AB46F0BD2025DDE7019D1A4A2B00D35C2C
:1011C00068229343D6D1F5E70A4B084F9B46164E4B
:1011D000164CD9E7002399469A46064B00249B46B5
:1011E000B2E7C0464C250120D424012090090020FC
:1011F000A04801200C4A02209C290120A42901209A
:1012000094090020D0240120A029012044040020BA
:10121000050500000605000007050000090500009F
:101220009C480120CD39011028450120A448012007
:1012300024440120022210B502490348FF3208F07D
:101240000DF810BD0C4A022004490220E02330B5FD
:101250005B00040083B0984200D123E10BD817282B
:101260001FD8022865D9C31E9BB2142B57D8A94A90
:101270009B00D3589F46D0239B00984241D039D938
:10128000E8239B00984200D139E126D9F0239B0046
:10129000984213D10122A04B1A60A04B185D03B0F5
:1012A00030BD0300813BFF3B9BB2012B41D8822321
:1012B000FF33984200D00CE10020F0E72033984241
:1012C0002DD1974A1368002B00D107E18021C90175
:1012D0008C46634400201360E1E7403B984200D114
:1012E00010E12033984224D100228B4B1A608B4BA3
:1012F000185DD4E7803B984200D1CDE0403398425E
:1013000004D12000FFF710FE0020C8E7803B984280
:101310000FD10420FFF722F8804B185DBFE72304AC
:1013200000D5A8E08023DB019C4202D37D4B1B68E3
:10133000E4187A4B185DB2E77B4B1868FFF7BCF8EE
:101340007F2343407E201840D023744C1B066075D9
:101350005B68764A5B0BDB011843022312889843D3
:10136000D21213401843607503F042F9607D96E78E
:10137000D0226F4B1206506819685268C8405C68EA
:101380000121E2400840C0014008114201D0802202
:101390001043D0221206526899684008CA40D2070A
:1013A00003D5802252421043C0B2D02212065268A6
:1013B000D9684008CA40D20703D580225242104360
:1013C000C0B2D0221206526819694008CA40D2073A
:1013D00003D5802252421043C0B2D0221206526876
:1013E00059694008CA40D20703D5802252421043AF
:1013F000C0B2D0221206526899694008CA40D2078A
:1014000003D5802252421043C0B2D0221206526845
:10141000DB694008DA40D30703D580235B421843D9
:10142000C0B29621434A490013688B4200DB36E77D
:10143000E22541495C006554013309194870136085
:101440002DE73E4B18782AE73D4B187827E73D4AB1
:101450001378D9B2012B46D0022900D069E71228AF
:1014600000D066E7032313707F222C4B597C0A407F
:101470005A74185D13E7C0231B029C4205D9324BF6
:101480009C466444314B185D09E72F4B9C46244B26
:10149000644418682418F5E70420FEF7B7FF1F4BD3
:1014A000185DFCE602F0FAFD294808F089F90123ED
:1014B0001D00284AD0241268FA2095400192240683
:1014C000254AA5614000136004F034FB0020A561AB
:1014D000E5E6224B18687F231840E0E680231B02D4
:1014E00000201360DBE60D4B112800D0D6E6597CB6
:1014F0007F2900D8D2E602211170185DCFE6094A93
:101500001368E3E60023074A00201360044A1360CF
:10151000C5E6C0468C22011098090020044901202C
:10152000682A0120502A01203C220110FE2A0120B5
:101530009C0D0020C82A01202C460120092B0120E7
:10154000082B0120BC0D00200080FFFFC00D0020F3
:101550007C22011044220110782A01209C290120BC
:101560000B4B1A88824206D01A8A82420BD01A8C00
:1015700082420AD0704700220121064812019B18BE
:1015800001605960F6E70122F6E70222F4E7C0465F
:101590006009002074290120012070477047C0466F
:1015A0000022014B1A607047902A01207323084AD9
:1015B000D15C643B0B400749D3188C460649634411
:1015C000096819707421535C013353547047C04645
:1015D00004490120B0200000B09C022010B503494E
:1015E000034802F02DFA431E984110BD002501105A
:1015F0000C94022010B50349034802F021FA431E5F
:10160000984110BD102501100C940220164AF8B51F
:10161000136801331360154B9B69DB0603D5144A2D
:101620001368013313601025104C124E124FA3693A
:101630001D4211D1A3691D42FCD12368DBB2002BEE
:10164000F5D032680D49BB543068013006F028FEF1
:101650003160A3691D42EDD0A3691D4203D1084A40
:10166000136801331360F8BD7C290120008003401A
:101670008029012084290120247A02208813000077
:10168000782901207047C046F8B50A4E002435007D
:10169000094F3800296802F0D3F9002804D1013439
:1016A0000835072CF5D1F8BDE40034196368984774
:1016B000F9E7C046FC0F0120144B02205F4AF0B549
:1016C0001368DE4659424B41012157464E46454676
:1016D0005B428B4318000023E0B5546897B0584E26
:1016E00002AA03AF1375A330337010223B00210010
:1016F000019002F0D7FB80239B46524BA3449A46AD
:101700000F2398460FE0403902AB5B181A70002394
:10171000013102AA521807A80CA9013413700BF06A
:101720005FFFA3452AD0454643462540234266D065
:101730004246E3171B0FE5181540ED1A7A5D514636
:101740000CA806F01BFD30000BF0BEFF0CA93018F2
:101750000BF022FF68217A5D3B4B81469B5C8B43FB
:10176000D1D107A80BF0B0FF07AB9C460222374946
:101770006044013407F072FDA345D4D102223449FC
:10178000484607F06BFD484607A902300BF094FF6E
:10179000304B314C1A68314B20001968330006F089
:1017A000EDFC20000BF090FF2D4E2E4B0200186038
:1017B0002D49300006F0E2FC3478002C18D03000BF
:1017C000002120220D26294B02255D5F284B002990
:1017D00028D1A5422DD099690A42FCD11C6001781C
:1017E00001300D394C4261410478C9B2002CEED170
:1017F00017B03CBC90469946A246AB46F0BD2300CC
:1018000007AA1C490CA806F0B9FC0CA930000BF083
:10181000E7FE02AB1D7510223B002100019802F08B
:1018200041FB85E799690A42D8D099690A42F9D102
:10183000D4E799690A42FCD11E60CCE7B09C022033
:10184000CC56022038250110CD3901108822011014
:101850008C310110E0240120B0620220080E01202A
:10186000E89B0220382A012040250110049E022016
:101870000080034028250110F0B5D6464F46464665
:10188000414BC0B51C68012C08D0022C3DD0002C67
:1018900028D01CBC90469946A246F0BD3B4B1E6822
:1018A000002EF6DD3A4B3B4C9A4619683A4B00271E
:1018B0001B6836199846394B994606E04A46237804
:1018C000013401275355B4425BD00D00481CFA2166
:1018D000890006F0E5FC4145F0D1002FD9D05346F0
:1018E0001D60D6E72E4F2B4E3D0003E00134083536
:1018F000082CCED03000296802F0A2F80028F5D0DC
:10190000E4003C1963689847C3E7204B1D68002D2D
:10191000BFDD7423234E1F4AF15C013BF05C663B44
:1019200000240F279C46AD180FE03C000440A14660
:101930001D4CB144A0464C4644442370012401315F
:10194000C9B201320130AA4215D013780A2BF8D05F
:101950000D2BF6D0042BE8D1134C3B00A046644677
:101960000340F3184344013101321C70C9B2012411
:101970000130AA42E9D1002C00D18AE77423F15446
:1019800087E75346196084E77C230120D029012092
:1019900080240120144B0220842401209C5E02201C
:1019A000C40D012004490120B0200000F0B50E4B09
:1019B0000E4D19682B68C6465C1A631C98460C4F7E
:1019C0000C4E00B51A008919380007F047FC424652
:1019D0003900300007F042FC0122074B2C601A60EE
:1019E00004BC9046F0BDC046B429012070290120F6
:1019F000547202200C940220CC290120F0B5C64676
:101A000001221C4B00B5532100201A600025FFF76E
:101A100019FB194C194E03E001350C34282D11D057
:101A20002378032BF8D1310060680BF001FE002809
:101A3000F2D10122124B1D60124B1A60124A136838
:101A400001331360114D124B124F19682B68124E5F
:101A50005C1A631C98461A008919380007F0FEFBCF
:101A600042463900300007F0F9FB2C6004BC904678
:101A7000F0BDC046942A01201C0E012054250110FF
:101A8000EC2A0120F02A0120C42A0120702901201B
:101A9000B4290120547202200C940220F8B5CE46DD
:101AA00047461A4C80B52368002B1AD0184B194EA4
:101AB00019683368184F5D1A6B1C9946174B4A46D4
:101AC00098461800C91907F0C9FB4A464146380034
:101AD00007F0C4FB0023356023600CBC9046994698
:101AE000F8BD0B4B0B4D19682B680C4F5C1A631C2F
:101AF0009846094E1A008919380007F0AFFB424694
:101B00003900300007F0AAFB2C60E6E7CC29012061
:101B1000B4290120702901200C9402205472022063
:101B2000F0B5CE46474680B56421022085B0FFF768
:101B300089FA494C4949200001F082FF002804D16C
:101B400005B00CBC90469946F0BD454B454E196812
:101B50003368454F5D1A6B1C98461A003800091906
:101B600007F07CFB39004246200007F077FB3F4F2F
:101B700035603B6899461D2BE2DC002B67DD3C4B52
:101B80002B2598461C004B465D433A4E4544310098
:101B900020000BF04DFD0028D2D02B34A542F6D109
:101BA0002B244D4643466543310058190BF084FD04
:101BB0002800314914304D694B680A6803950D6956
:101BC00040440295CD680195896800912B4906F043
:101BD000D5FA2B4B310018680BF02AFD002803D0F2
:101BE0003B6801333B60ABE73B68264E5C43220019
:101BF000143230002449424406F0C0FA3478002CF4
:101C0000EED03000002120220D26204B02255D5F02
:101C10001F4B00290FD1A54214D099690A42FCD16B
:101C20001C60017801300D394C4261410478C9B221
:101C3000002CEED1D4E799690A42F1D099690A42A1
:101C4000F9D1EDE799690A42FCD11E60E5E7084B3E
:101C5000084E9846A4E7C0460C9402205C2501106B
:101C6000B429012070290120547202208824012007
:101C70007C8E0220DC9D0220B09C0220BC2501103D
:101C8000C00D0120E89B0220A4250110049E022023
:101C900000800340F0B5C6466321012000B5FFF780
:101CA000D1F90F4C0F49200001F0CAFE002802D1E3
:101CB00004BC9046F0BD0C4B0C4E196833680C4FB9
:101CC0005D1A6B1C98461A000919380007F0C6FA0D
:101CD00042463900200007F0C1FA3560E8E7C04607
:101CE0000C940220D0250110B42901207029012074
:101CF00054720220F0B5C6466321012000B5FFF7FB
:101D0000A1F90F4C0F49200001F09AFE002802D1E2
:101D100004BC9046F0BD0C4B0C4E196833680C4F58
:101D20005D1A6B1C98461A000919380007F096FADC
:101D300042463900200007F091FA3560E8E7C046D6
:101D40000C940220DC250110B42901207029012007
:101D500054720220F0B5C64604007221012000B57D
:101D6000FFF770F91D482401041961681C4C20001C
:101D700001F066FE002802D104BC9046F0BD194E69
:101D8000194B1A4F1968336838005D1A6B1C984656
:101D90001A00091907F062FA20004246390007F0DC
:101DA0005DFA3560124C0025124E03E001350C340B
:101DB000282DE1D02378032BF8D1310060680BF097
:101DC00037FC0028F2D101220B4B1D600B4B1A602F
:101DD0000B4A136801331360CEE7C046F02E0110A2
:101DE0000C94022070290120B42901205472022091
:101DF0001C0E0120EC250110EC2A0120F02A012004
:101E0000C42A0120F0B5C64604006921012000B5AE
:101E1000FFF718F910482401041961680F4C2000DD
:101E200001F00EFE002802D104BC9046F0BD0C4B20
:101E30000C4E196833680C4F5D1A6B1C98461A00DB
:101E40000919380007F00AFA42463900200007F065
:101E500005FA3560E8E7C046F02E01100C94022028
:101E6000B42901207029012054720220F0B5C64621
:101E700004006E21012000B5FFF7E4F812482401A8
:101E800004196168114C200001F0DAFD002802D12C
:101E900004BC9046F0BD0E4B0E4E196833680E4FD1
:101EA0005D1A6B1C98461A000919380007F0D6F91C
:101EB00042463900200007F0D1F9084B35601A6816
:101EC000074B1A60E4E7C046F02E01100C94022084
:101ED000B42901207029012054720220B09C0220F4
:101EE000C8240120F0B5C64604004321012000B5F6
:101EF000FFF7A8F81D482401041961681C4C200054
:101F000001F09EFD002802D104BC9046F0BD194EA0
:101F1000194B1A4F1968336838005D1A6B1C9846C4
:101F20001A00091907F09AF920004246390007F013
:101F300095F93560124C0025124E03E001350C3442
:101F4000282DE1D02378032BF8D1310060680BF005
:101F50006FFB0028F2D101220B4B1D600B4B1A6066
:101F60000B4A136801331360CEE7C046F02E011010
:101F70000C94022070290120B429012054720220FF
:101F80001C0E0120F4250110EC2A0120F02A01206A
:101F9000C42A012010B500211F4803F0B3FD02211F
:101FA000082002F083FE0221092002F07FFEE121D9
:101FB0001A4C4902200004F0E3F9C022236B1202FC
:101FC0001340174A152013601023E26A1549134085
:101FD000154A136002F094FF0121152002F058FF0A
:101FE0005023A363626B183B1340104A10481360E0
:101FF00007F090FA07F064FB0220FEF707FA64206E
:1020000003F098FD0220FEF7A9F90023094A137096
:10201000094A136010BDC04640420F0000800340D3
:10202000309003400D1600102C9003403490034074
:10203000FC2501100C94022070290120F0B55746B0
:102040004E464546DE460023E0B5394F87B003AD26
:102050002B703B18DB7982460222364E7F2B5BD8F1
:102060003000354907F0FAF8534601339846042406
:10207000324A334B91469B46B844042C11D0434618
:1020800049461A5D280006F079F830000BF01CFB79
:10209000290030180BF080FA631C24D0013C042C7A
:1020A000EDD153460533FA5C5946120928000193D5
:1020B00006F064F830000BF007FB290030180BF035
:1020C0006BFA02221F4907F0C9F80F22019B5946FB
:1020D000FB5C28001A4006F051F8290030000BF094
:1020E0007FFA013CDBE70322174907F0B7F8062225
:1020F0005744BA56002A14DB4946280006F03EF839
:10210000290030000BF06CFA300007B03CBC904660
:102110009946A246AB46F0BD30000C4907F09EF848
:10212000A2E728000A49524206F028F8E8E7C0462C
:1021300004490120886202203C2501102426011058
:102140001C260110882201102C26011018260110CF
:10215000302601100023F0B50024324E324D334FAB
:1021600091B033702200390006A806F007F806A9DE
:1021700030000BF035FA2800FFF760FF0134010052
:1021800030000BF02DFA08350A2CEBD1284B294CE6
:102190001A68294B1968294B0493294B18001638E3
:1021A0000290180003932C38423B019000932000CA
:1021B000330005F0E3FF20000BF086FA214A224E9F
:1021C0001060224A030012683000214905F0D6FF52
:1021D0003478002C18D01F4B300002255D5F202181
:1021E00000230D261C4A002B10D1A54215D093695F
:1021F0001942FCD11460037801300D3B5C4263410D
:102200000478DBB2002CEED111B0F0BD9369194215
:10221000F0D093691942F9D1ECE793691942FCD1E6
:102220001660E4E7CC560220FF200000382601109B
:10223000E0240120B0620220040E01200C94022050
:10224000E6480120382A0120E89B0220C82401200A
:1022500044260110049E022000800340F8B5574632
:102260004E464546DE463A4BE0B59C461860394B33
:1022700004001960384B0F009A4600235246136041
:10228000364B994601234A461360354B1860354B4F
:1022900098461E68002846DD320000210023324D9A
:1022A000324807E0E95C013CC154013A01210133A5
:1022B000002C1CD0002AF5DC002932D05246E91847
:1022C0001360F61A63461C60294C771C3A00200004
:1022D00006F0C4FF3A002100280006F0BFFF434685
:1022E0001E603CBC90469946A246AB46F8BD51469E
:1022F0000B6041460A606246F61A1460721C9246F0
:102300001B4CE918200006F0A9FF524621002800C6
:1023100006F0A4FF43461E6000234A461360B847F8
:10232000DFE72900D0E7731C9B46114B0E4D9A4600
:1023300018005A46290006F091FF5A4651462800D7
:1023400006F08CFF43461E60002CE5D0C9E7C0466E
:102350008C24012008940220507202209C24012029
:10236000D0290120702901200C940220144B022056
:1023700054720220F0B5C6465021022000B5FEF787
:1023800061FE114C1149200001F05AFB002802D1D6
:1023900004BC9046F0BD0E4E0E4B0F4F19683368CB
:1023A00038005D1A6B1C98461A00091906F056FF92
:1023B00039004246200006F051FF084B0849586892
:1023C0003560FFF74BFFE3E70C9402200025011076
:1023D00070290120B429012054720220B09C0220EF
:1023E00089160010F0B5C6465021022000B5FEF750
:1023F00029FE114C1149200001F022FB002802D1D6
:1024000004BC9046F0BD0E4E0E4B0F4F196833685A
:1024100038005D1A6B1C98461A00091906F01EFF59
:1024200039004246200006F019FF084B0849186899
:102430003560FFF713FFE3E70C94022058260110E4
:1024400070290120B429012054720220B09C02207E
:102450007918001070B51B480BF036F91A4C1B4B5D
:10246000020018601A49200005F088FE2278002A30
:1024700018D0184B200002255D5F202400230D2674
:102480001549002B17D1954210D08B691C42FCD105
:102490000A60037801300D3B5A4253410278DBB2A7
:1024A000002AEED101220D4B1A6070BD8B691C42CF
:1024B000FCD10E60E9E78B691C42E9D08B691C42B4
:1024C000F9D1E5E7B0620220E89B0220382A01201A
:1024D00068260110049E022000800340902A0120FB
:1024E00010B51C220349044806F0B8FEFFF7B2FFFE
:1024F00010BDC0467C260110B062022010B5064B0C
:1025000006495A681B680648CA54064905F036FE53
:10251000FFF7A0FF10BDC046B09C02200449012077
:10252000B0620220982601104C4AF0B51368454667
:1025300059424B4101215B428B431800484BDE4618
:10254000984657464E46546800234246E0B597B039
:10255000137003AF02AA1375A3303B0010222100B1
:10256000019001F09FFC80239C46A44463460093A5
:10257000002399463B4B9B460F239A4610E0403977
:1025800002AB5B181A700023013102AA521807A887
:102590000CA913700BF024F8009B0134A34229D03E
:1025A000554653462540234242D001239C464E4681
:1025B000E144BA5D59460CA805F0E0FD40460BF039
:1025C00083F80CA940440AF0E7FF6821BA5D264B66
:1025D00005009B5C8B43D2D107A80BF075F807ABC5
:1025E0009C4602222149604406F038FE009B0134DB
:1025F000A342D5D1022228001D4906F02FFE07A9CB
:10260000A81C0AF0C9FF03221A49040006F026FE9E
:102610004346E21A41460332174806F01FFEFFF711
:1026200019FF17B03CBC90469946A246AB46F0BD98
:10263000230007AA11490CA805F0A0FD0CA94046EB
:102640000AF0CEFF02AB1D7510223B00210001985D
:1026500001F028FC012300269946AAE7B09C02203D
:10266000CC56022038250110CD39011088220110E6
:102670008C31011028290110B0620220AC26011013
:1026800000B50A4B0A4985B0029119002C3101911D
:1026900019001A001631163A00910648064905F04D
:1026A0006DFDFFF7D7FE05B000BDC046BA4801205A
:1026B0000C940220B0620220B826011010B50C4C18
:1026C00082B0A268206801AB1A70424250410122D8
:1026D000404290436168A33001F0FEFB23686268CA
:1026E0000449054805F04AFDFFF7B4FE02B010BDED
:1026F000B09C022098260110B0620220F8B5CE46A8
:10270000474680B56D4A1378002B04D16C4B6D4A57
:102710001B789B009A586C4C6C49200005F02EFDEC
:102720006B4E210030000AF037FF05000422694992
:10273000200006F093FD04222100280006F08EFD03
:10274000654F3B68002B17DD644B00259946644BB1
:1027500098464B461B68581980B2FEF777FD4146F4
:102760000200200005F00AFD210030000AF038FFC9
:102770003B680135AB42ECDC5A4D5B492A882000AE
:1027800005F0FCFC210030000AF02AFFAA88574916
:10279000200005F0F3FC210030000AF021FFAA79A7
:1027A0005349200005F0EAFC210030000AF018FF30
:1027B000EA795049200005F0E1FC210030000AF0E0
:1027C0000FFFEB79AA794C49200005F0D7FC2100D6
:1027D00030000AF005FF6A884849200005F0CEFC69
:1027E000210030000AF0FCFE4549464B08682A7A71
:1027F0001860888898808979997143490878FF28FA
:1028000035D0104241D18878FF2830D010423FD1D6
:102810000879FF282BD010423DD18879FF2826D097
:1028200010423BD1087AFF2821D0104201D0487ACB
:102830001871887AFF281AD0104201D0C87A5871CE
:10284000087BFF2813D010422BD1887BFF280ED0A5
:10285000104229D1087CFF2809D01D00104226D043
:10286000487C0135E871887C0231FF28F6D12000D0
:10287000264905F083FC210030000AF0B1FEFFF785
:10288000E9FD0CBC90469946F8BD48781870BAE747
:10289000C8785870BCE748799870BEE7C879D87096
:1028A000C0E7487B9871D0E7C87BD871D2E7887CB5
:1028B00001350231FF28D1D1D9E7C046D429012002
:1028C000054A02209C090020CC560220D426011083
:1028D000B0620220D8260110084A0220104B0220C4
:1028E000DC26011088480120E4260110F0260110A2
:1028F000FC260110082701101427011024270110BD
:1029000044270110100E012050090020302701102B
:1029100070B51A480AF0D8FE194C1A4B020018601C
:102920001949200005F02AFC2278002A18D0174BFC
:10293000200002255D5F202400230D261449002B72
:1029400014D195420DD08B691C42FCD10A600378EA
:1029500001300D3B5A4253410278DBB2002AEED1DE
:1029600070BD8B691C42FCD10E60ECE78B691C4288
:10297000ECD08B691C42F9D1E8E7C046B062022076
:10298000E89B0220382A012040250110049E0220E5
:102990000080034000B5094A094909CA094A83B0C1
:1029A0001354094A09681268019000930748084BBC
:1029B00005F0E4FBFFF7ACFF03B000BDB09C0220C4
:1029C0000C0E012004490120E0240120B062022005
:1029D0004C270110F0B54E46DE4657464546E0B559
:1029E00093B000236A46384E13733370374B00247C
:1029F0009846374B9B46374B9A46374B99460FE0E4
:102A00006B4648395B181A706A4600230131521828
:102A100003A808A9013413700AF0E2FD802C26D027
:102A20000F231D00254023423FD0434659461A5DDF
:102A300008A81F1905F0A2FB30000AF045FE08A9FE
:102A400030180AF0A9FD68213A78244B05009B5CF8
:102A50008B43D5D103A80AF037FE03AB9C46022274
:102A60001F496044013406F0F9FB802CD8D10222C2
:102A700028001C4906F0F2FB03A9A81C0AF08CFDF3
:102A80000322194906F0EAFB184B19481A68194B3A
:102A90001968330005F072FBFFF73AFF13B03CBC36
:102AA00090469946A246AB46F0BD5346494603AA16
:102AB000009408A805F062FB300008A90AF090FD18
:102AC0006B461D73B1E7C046CC5602200449012075
:102AD00038250110542701105C270110CD39011051
:102AE000882201108C31011028290110E0240120D6
:102AF000B0620220080E012010B50F4C84B0A2680D
:102B0000206803AB1A704242504101224042904378
:102B10006168A33001F0E0F9084B09481A68094BD5
:102B2000196863680193A3680093074B05F026FBBF
:102B3000FFF7EEFE04B010BDB09C0220E02401209F
:102B4000B06202200C0E012068270110F0B5574634
:102B5000DE464E4645460023E0B5354F95B002AA05
:102B60003B70137380339B46324B04009946324BC3
:102B700003919A460F23834498460FE0483902ABED
:102B80005B181A700023013102AA521805A80AA97D
:102B9000013413700AF024FD5C4526D045464346B7
:102BA0002540234235D04B4651461A5D0AA81D19CF
:102BB00005F0E4FA38000AF087FD0AA938180AF08F
:102BC000EBFC68212A781D4B06009B5C8B43D5D11A
:102BD00005A80AF079FD05AB9C460222184960441D
:102BE000013406F03BFB5C45D8D102223000154988
:102BF00006F034FB05A9B01C0AF0CEFC03221249F2
:102C000006F02CFB15B03CBC90469946A246AB465C
:102C1000F0BD039B0D4905AA00940AA805F0AEFA81
:102C200038000AA90AF0DCFC02AB1D73BBE7C04602
:102C3000CC5602200449012038250110CD3901105D
:102C4000882201108C310110282901105C27011005
:102C5000084B10B518680849FFF778FF074B08487C
:102C60001A68084B1968084B05F088FAFFF750FE00
:102C700010BDC046B09C022054270110E024012062
:102C8000B0620220080E0120CC56022010B5064B7F
:102C900006491868FFF75AFF0549064805F06EFA1D
:102CA000FFF7D8FB10BDC046B09C022028290110B8
:102CB000CC560220B062022010B52E4B02001968DB
:102CC0002D480160998881809B7983712B4B1978FD
:102CD000FF2935D00A4234D19978FF2930D00A42F1
:102CE00032D11979FF292BD00A4230D19979FF29A5
:102CF00026D00A422ED1197AFF2921D00A4201D0CA
:102D0000597A0171997AFF291AD00A4201D0D97AE9
:102D10004171197BFF2913D00A421ED1997BFF29EB
:102D20000ED00A421CD1197CFF2909D004000A42A6
:102D300019D0597C0134E171997C0233FF29F6D115
:102D400010BD59780170C7E7D9784170C9E7597942
:102D50008170CBE7D979C170CDE7597B8171DDE70F
:102D6000D97BC171DFE7997C01340233FF29DED1C1
:102D7000E6E7C04644270110100E0120500900204C
:102D8000F0B5DE4657464E4645460023E0B587B0CF
:102D9000C64C0593C64B20681B6883420BD011229A
:102DA000C44B9A56597C002A05DBC34A157A102277
:102DB0002A4200D1FAE0C14B9A461B68012B00D190
:102DC000CDE0BF4B0A211A6801321A60186805F07D
:102DD00067FA00290CD1BB4C2368002B00D098E087
:102DE00020210320FEF72EF923685A425341236025
:102DF000B54DB64E2A6833689A421BD0B44BB54FD6
:102E00009946B54B9846202304AA13802B68B349F2
:102E10005A1C2A60FC5C04ABE4B228681C7005F004
:102E20003FFA2960142C79D0002C63D12A683368CA
:102E30009A42E8D1AA4B1C68002C00D0C8E0A44BF1
:102E4000A84A99461B78D35C1B071FD5A24B4F4657
:102E50009A461D68A44B984601234B449B46534613
:102E6000A2461C002A005946404606F0F7F92A00FF
:102E70004146380006F0F2F99A4A3B786E1ED35C60
:102E80000822350026601A42ECD15446974D0DE0D9
:102E9000022B07D12000AB689847002802D0200001
:102EA000EB68984701341035262C0CD02B78012B79
:102EB000EED14846696800F0C3FD0028EFD1013427
:102EC0001035262CF2D18A4B1A68002A40D0894E40
:102ED0003268002A00D0D9E0874C884D2068420033
:102EE00011188900695C062900D9BAE0844F89006D
:102EF00079588F46484604A90AF072FB4346424679
:102F00001B68013313602A6833689A4200D07AE75D
:102F100090E703205731FEF795F865E753461B68A5
:102F20000321581C05F0BCF95346764D0C0019607E
:102F30000C222800744906F091F9012C00D193E08D
:102F4000022C00D19CE0002C00D193E0FFF782FA24
:102F500007B03CBC90469946A246AB46F0BD6B4BD1
:102F60001C68002C00D02CE7694B1E68694B19685F
:102F700099468E4200D124E7674B7F279846614DE2
:102F80002C70013D4346481C5B5CFA2101343B40F8
:102F90002B55890005F084F98E42F3D14B461E6013
:102FA000002301352B55FFF755FA0AE70A4200D1F5
:102FB00001E7FA21594A8900125C01309A7405F040
:102FC0006FF92160FEF730F85548FEF7C9FAF2E6CE
:102FD000544B99461B68002B2DDD3F4A3C4E14682C
:102FE0000293E31A0193731C92469B463E4F03944F
:102FF000002CADDD3378220059463800984606F0A3
:103000002DF922003900300006F028F95346464ACF
:10301000651E1D601368591C11604146434AD15416
:10302000029B039A013B9B1A4A461B191360019AA3
:103030002C00AA42DCD1002B00D089E7284A13607B
:103040003B4B1B68984783E713189B00EB189B6862
:103050009847206843001B189B00EB5C042B00D1B1
:1030600076E70130206073E710222800314906F02E
:10307000F5F86BE7092228002F4906F0EFF865E71D
:103080000E2228002D4906F0E9F85FE702F040FE25
:103090002B4A53688B4200D95AE703D11368834205
:1030A00000D955E70023336052E7C046842401204D
:1030B0008024012004490120884801207C2301202C
:1030C000E0240120180E01208829012084290120F4
:1030D0000C940220247A0220702901208813000019
:1030E0009C240120CD39011054720220F02E0110D1
:1030F000F02A0120E82A0120EC2A01201C0E0120E0
:10310000AC270110B062022070270110902A012024
:103110009024012094240120E45202209C5E02208D
:10312000F0FF00008C24012050720220144B02207A
:1031300008940220882701107C270110982701108D
:10314000781F0120414D2F78002F8AD0404B0D2150
:1031500002269E5F002398468C46202241463D4B26
:1031600000290FD1BE4214D099690A42FCD11F60D8
:10317000297801350D394F4279412F78C9B2002F96
:10318000EED16EE799690A42F1D099690A42F9D104
:10319000EDE799690A42FCD161461960E4E7002233
:1031A0001A60D5E62C4B984613189B00EB1805AA1D
:1031B000414658680AF050F90123336002F0A8FD37
:1031C000059A53019B1A9B009B18DB001E00DF171A
:1031D00080197941214B186059604146204804F01C
:1031E000CDFF36E713181F4F9B00EB1838005968C6
:1031F00004F0C4FF3E78002E00D12AE7144B3800BB
:1032000002229B5E002120220D279C46114B0029A3
:103210000FD1B44514D099690A42FCD11E600178DF
:1032200001300D394E4271410678C9B2002EEED1FF
:103230000FE799690A42F1D099690A42F9D1EDE79D
:1032400099690A42FCD11F60E5E7C046B0620220DE
:10325000049E022000800340A8270110781F01204F
:10326000F0930220E89B0220F0B5C64600B5954DCC
:1032700082B02B68002B1CD1934C2368002B00D00C
:103280007CE0924C2368002B00D090E0904C2368A7
:10329000002B00D0A2E08F4C2368002B00D0B4E0BC
:1032A0008D4D2B68002B00D0E9E002B004BC9046A5
:1032B000F0BD002398466B46424601AC1A700121CE
:1032C0006A46DE2000F048FB802622000121DF2034
:1032D00000F080FA4246237876423343227002217E
:1032E0002200DE200D27637000F036FB6B466A4635
:1032F0000121DE201F7000F02FFB22000121DF20C2
:1033000000F068FA2378220033430221DE20637044
:10331000277000F021FB6B466A460121DE201F70FA
:1033200000F01AFB22000121DF2000F053FA23787D
:1033300022001E430221DE2066702770072600F05F
:103340000BFB6B466A460121DE201E7000F004FB79
:1033500022000121DF2000F03DFA7F2322780221A4
:103360001340DE2022006370267000F0F5FA434619
:10337000554C2B602368002B00D182E76B4600255B
:103380006A460121DE2001AE1D7000F0E5FA320030
:103390000121DF2000F01EFA7F23327825601340E0
:1033A0004A4C4E4A13602368002B00D16EE701237C
:1033B0006A460121DE2001AD137000F0CDFA2A002B
:1033C0000121DF2000F006FA454B2A781A6000231D
:1033D00023603F4C2368002B00D15CE702236A4640
:1033E0000121DE2001AD137000F0B6FA2A000121A0
:1033F000DF2000F0EFF93B4B2A781A6000232360AE
:10340000344C2368002B00D14AE76B4600266A46FD
:103410000121DE201E7000F09FFA012101AADF20A9
:1034200000F0D8F96B461A797F232F4D13402F4AAD
:103430000121AB5401236A46DE20137000F08CFAA0
:10344000012101AADF2000F0C5F96B461A79284B4B
:103450000121EA5402236A46DE20137000F07CFA50
:1034600001AA0121DF2000F0B5F96B461A79214B42
:103470002660EA54184D2B68002B00D115E7002771
:10348000194E1A4B01ACF35C22000221DE2063705E
:10349000277000F061FA0122154B0221F35CDE2057
:1034A00022702200637000F057FA0222114B0221B1
:1034B000F35CDE2022702200637000F04DFA2F6072
:1034C000F3E6C0467C2A01205C2A0120582A01200C
:1034D000542A0120802A0120782A0120742A012000
:1034E000702A01206C2A012004490120CA20000012
:1034F000C9200000C8200000014B18607047C0467A
:10350000341001200123164A84B0126893400192BE
:10351000D0221206536293610023124A0393039B45
:103520001268934205DA039B01330393039B934292
:10353000F9DB01230C4909688B400191D021090670
:103540004B628B6100230293029B934205DA029B3C
:1035500001330293029B9342F9DB04B07047C046EB
:1035600038220110341001203422011001211C4B9B
:1035700086B01B681B4A99400193D0231B065962F1
:10358000996100230593059B1268934205DA059B18
:1035900001330593059B9342F9DB01231248006830
:1035A00083400190D0200006836200230493049B93
:1035B000934205DA049B01330493049B9342F9DBA5
:1035C000D0231B06996200230393039B934205DAE1
:1035D000039B01330393039B9342F9DB06B07047CF
:1035E000382201103410012034220110F0B50124DA
:1035F0002500334BD0211B6808269D40314B002706
:103600001A68314B89B01B6809069C40019343B28C
:10361000002B51DB4D628D610597059B9A4205DDBC
:10362000059B01330593059B9342F9DB8C6204975C
:10363000049B934205DA049B01330493049B934259
:10364000F9DB4C628C610397039B9A4205DD039B77
:1036500001330393039B9342F9DB4000013EC0B268
:10366000002ED4D1D0231B069D629C620696069B39
:10367000934205DA069B01330693069B9342F9DBDE
:10368000D0206423000602E0013B002B16D04168E5
:103690002942F9D10120D0231B065C629C610023E2
:1036A0000793079B934205DA079B01330793079B18
:1036B0009342F9DB09B0F0BD8D62ADE70020EAE787
:1036C000382201103410012034220110F0B5574681
:1036D0004E464546DE463C4BE0B51B6801269B4600
:1036E00033005A46D02493402406A3629A46374BAF
:1036F00089B01A68364B89461B6880469E40019304
:1037000001230821002500279C460597059B9A4226
:1037100005DD059B01330593059B9342F9DBA6620A
:103720000497049B9A4205DD049B01330493049B98
:103730009342F9DB584663686D00C3406046666299
:103740000340A66103975D19039B9A4205DD039B25
:1037500001330393039B9342F9DB01390029D4D150
:103760004B46002B2AD0D02351461B065962996143
:10377000D0231B069E6200230793079B934205DA22
:10378000079B01330793079B9342F9DBD0231B066A
:103790005E629E6100230693069B934205DA069BB8
:1037A00001330693069B9342F9DB43461D7009B033
:1037B0003CBC90469946A246AB46F0BDD02351464C
:1037C0001B069962D4E7C04638220110341001204C
:1037D00034220110F0B557464E464546DE460123D9
:1037E000E0B51700594A8BB012680E009340984616
:1037F000D023019242461B065A629A610023544A22
:1038000002939246029B1268934205DA029B0133AF
:103810000293029B9342F9DB01234E4909688B40D6
:103820009946D023019149461B06596299610023AC
:103830000393039B934205DA039B01330393039B9A
:103840009342F9DBFFF7D2FE002849D0002E0FDDAE
:10385000731E9B46002406AD5B46191B4B1E994107
:103860002800FFF733FF2B783B550134A642F3D1F4
:10387000D02342461B065A629A61002352460793A0
:10388000079B12689A4205DD079B01330793079B4C
:103890009A42F9DCD02349461B069962002308931B
:1038A000089B9A4205DD089B01330893089B9A42C6
:1038B000F9DCD02341461B06996200230993099B3A
:1038C0009A4205DD099B01330993099B9A42F9DC71
:1038D00001200BB03CBC90469946A246AB46F0BDD9
:1038E000D02342461B065A629A6152460490049BBA
:1038F0001268934205DA049B01330493049B9342BC
:10390000F9DBD02349461B06996200230593059BEA
:103910009A4205DD059B01330593059B9342F9DB34
:10392000D02341461B06996200230693069B9342CF
:10393000CFDA069B01330693069B9342C9DA069BB6
:1039400001330693069B9342F3DBC2E73822011052
:103950003410012034220110F0B5C646012500B50F
:10396000344B88B01B6814009D400193D0231B0684
:103970005D629D610023304A03939046039B126869
:103980000F00934205DA039B01330393039B934299
:10399000F9DB0126294B1B689E400193D0231B06AF
:1039A0005E629E6100230493049B934205DA049BAC
:1039B00001330493049B9342F9DBFFF717FE002FBA
:1039C00006DDE71920780134FFF710FEA742F9D190
:1039D000D0231B065D629D61002342460593059B33
:1039E00012689A4205DD059B01330593059B9A42B7
:1039F000F9DCD0231B069E6200230693069B9A42A5
:103A000005DD069B01330693069B9A42F9DCD02321
:103A10001B069D6200230793079B9A4205DD079BC7
:103A200001330793079B9A42F9DC08B004BC904627
:103A3000F0BDC0463822011034100120342201109C
:103A4000F0B54546DE4657464E460024E0B50D002B
:103A5000BF4B93B01C60BF4B01911C60BE4B070075
:103A60003C220021BD4898461C6005F0F1FBBC4B90
:103A70001C701C752B78002B5ED000220292B94A74
:103A80000024002693463900009709783200002967
:103A900018D0202B21D0252B32D001360134994269
:103AA00013D1434642461B6801331360019B0294C5
:103AB0001B5D002B40D0BA1911000978009232002A
:103AC0000029E6D1202B00D1B7E1002013B03CBC87
:103AD00090469946A246AB46F0BDA34B01345B5CD1
:103AE0001B07E3D54346082118684546013683196C
:103AF0009B1A2B60BB5D9C4DEB5C1942F5D1D5E761
:103B0000019B621C994618009B5C9144002B00D1DC
:103B1000B0E15B2B7DD011D8252B72D10136252940
:103B2000D3D1434642461B68023401331360019BE4
:103B300002941B5D002BBED10120C7E7642B01D08E
:103B4000782B5ED101220020874D00921FE0782B58
:103B5000BBD14421BB5DEA5C114200D175E120225A
:103B600006A98A800B7110220301002107A89A463A
:103B700009F09EFF5044434642461B68013601331C
:103B80001360BB5D002B00D136E14B461B78642BE4
:103B9000DDD1754ABB5DD15C04220A4222D12D2BB6
:103BA00000D121E1002E00D18FE7BB19013B1B782A
:103BB0006D49C95C0A4202D12D2B00D085E7644BC8
:103BC00063491B685A1C0A6000999B004143080026
:103BD0006249C8500E2A00DD43E10234019B029481
:103BE0001B5D66E7202206A98A800B712D2B0CD065
:103BF00083001818430007A89A4608F0A3FB504416
:103C0000B9E71400009902923FE701235B42009359
:103C1000B1E7504B00221B6851499A469B00029322
:103C200053449B00CA54019B1B199A78002A00D167
:103C30004BE70198023406A900230731001908E078
:103C4000262B00D141E70133CA54C25C002A00D1BF
:103C50003BE7E5185D2AF3D10595262B00D134E723
:103C6000002208ACE254E3185A705B4620001A6048
:103C700009F02AFD002822D000230125039604978D
:103C800014E05E1CA15D2D2972D05B46374F1B6886
:103C9000B9465900C9188900CD5549444A608A601F
:103CA0005A46013313603300834206D2E25C5E2A37
:103CB000E7D1013302258342F8D3039E049F009B82
:103CC0001A78002A3AD02649029B894653449B0021
:103CD00099445B461D683B0007AC57469A4619E07D
:103CE00059688A4202DB99688A4220DD022F00D19E
:103CF000EBE60023210048466370227009F070FC57
:103D0000434642461B6801360133136053469A5DB1
:103D1000002A11D0002D0EDD0020144B1978012946
:103D2000DED159688A4202DB99688A42DEDD0130C1
:103D30000C33A842F2D15346BA461F005346054AF7
:103D4000059C013313600134019B02941B5DB0E6B6
:103D5000B0290120B8290120B4290120B09C0220FB
:103D6000DC9D0220BC290120CD390110EC9C0220F1
:103D70009E1CA75DB946002F25D15F465B463F6874
:103D80001B68B9465B0099444B469B009946EAB2D2
:103D900013004F463B4ABB544A44516091605A4617
:103DA0001268384F0132914652004A44B946920097
:103DB000D3555B464A44516091605A461B680233B2
:103DC0001360330070E759462E4F0968BC464E0019
:103DD0007618B600F555664472604A46B2605A4697
:103DE0000131116003335FE7202107AA11801370AE
:103DF00001235B420093BEE6019A029B9446634412
:103E00009B78002B00D060E61F4B1F491B685A1C93
:103E10000A6000999B00414308001C49C8500120DA
:103E20000E2A00DC52E61A4B1A490020196061463E
:103E3000194B1960194B1A6048E6029A019B944687
:103E4000634458784342584140E6002E00D13CE696
:103E50004422BB19013B1B78EB5C1A4200D0AEE652
:103E600033E60B4B0B4919600B4B019919600B4B57
:103E70001A602AE6064B0A4A1A60074B18600020AF
:103E800024E6C046EC9C0220B0290120B09C022010
:103E900038100120503101103C100120AC290120C4
:103EA0005C310110F0B5040083B00D000F201F003D
:103EB0001600FFF721FBFE2001AA6DBA15802040F5
:103EC0000221FFF749FD012020433A003100C0B232
:103ED000FFF780FC03B0F0BDF8B507000F200E001F
:103EE00015001C00FFF708FBFFF70CFBFE20384015
:103EF000FFF77CFB3012C0B2FFF778FBF0B2FFF7A0
:103F000075FB002D06DD651920780134FFF76EFB87
:103F1000AC42F9D1FFF72AFB042001F00BFEF8BDFB
:103F2000344BF0B54646984684224F460023D64689
:103F30004146FF32C0B58B54013A8B54802344462E
:103F40005B02C246002500279946803453461A7802
:103F50000133BF18BFB2A342F9D10F20FFF7CCFA4B
:103F6000FFF7D0FAA020FFF741FB2812C0B2FFF7FD
:103F70003DFBE8B2FFF73AFB564630780136FFF7D3
:103F800035FBA642F9D1FFF7F1FA042001F0D2FD8A
:103F9000802334009C468035E24480344D45D5D1A1
:103FA000154B8424C1251F8043463A0A6D000F201B
:103FB000FF345A551F55FFF79FFAFFF7A3FAA020C9
:103FC000FFF714FB0120FFF711FB8220FFF70EFB28
:103FD0004346585DFFF70AFB4346185DFFF706FBB3
:103FE000FFF7C4FA042001F0A5FD1CBC90469946D9
:103FF000A246F0BD04490120F42A0120244BF0B56B
:104000005746DE469A469B4680234E4645465344D5
:10401000E0B598461D0080235B02002700249946E6
:1040200083B001AE0F20FFF767FA7BBA320002219E
:10403000A0203380FFF790FC5A468021A120FFF793
:10404000C9FB5A4613780132E418A4B29542F9D15B
:104050008037C34680354F4503D080239C46E044DB
:10406000E0E7C12352465B00D35C84225146FF3215
:10407000895C1A025B18E41A0648074B8A1802800A
:104080001C8003B03CBC90469946A246AB46F0BDAE
:1040900004490120F82A0120F62A012000230121E9
:1040A000034A1360034B19601368002BFCD0704760
:1040B0005C2501205425012010B51C4C2368002BE1
:1040C00004D11B4C2368002B19D110BD0121012004
:1040D000184AFCF7B9FDFCF7BFFF00232360FFF788
:1040E0001FFF0122144B01211A600320134AFCF721
:1040F000ABFDFCF7B1FF0E4C2368002BE5D001218E
:1041000001200F4AFCF7A0FDFCF7A6FF0023236067
:10411000FFF774FF01220B4B01211A6003200A4AAA
:10412000FCF792FDFCF798FFCFE7C046542501202D
:1041300058250120783101105C25012084310110BF
:104140009031011060250120A03101107047C04658
:104150000120034B03491A68126808601A6070470F
:1041600040100120C42901200122034B1A60034B97
:10417000034A1A607047C046C4290120401001203C
:10418000581001200122034B1A60034B034A1A60A6
:104190007047C046C429012040100120941001201E
:1041A0000122034B1A60034B034A1A607047C04652
:1041B000C429012040100120DC1001200122014B04
:1041C0001A607047802A01200122014B1A60704753
:1041D000782A012070B50026FCF794FD002100200C
:1041E0000D4AFCF731FD0D4C0D4DFCF7DDF9236850
:1041F000002BFAD03D2201210220FCF7DDFC012139
:1042000003202A78FCF7D8FC2B7826606F2BECD1A2
:104210000122044B1A6070BDB031011068250120E5
:10422000062B0120C429012010B5FCF763FE10BD48
:10423000802110B55022A320024B4901FFF74CFE0C
:1042400010BDC046036A01208422112110B50E4B17
:10425000FF3299547231FF315A5CA02001325A5416
:104260005B180222FFF738FEFCF74CFD074A0021DD
:104270000020FCF7E9FCFCF797F9054801F05AFC2F
:104280000122044B1A6010BD04490120C031011005
:10429000B80B0000C4290120802110B55022A320B2
:1042A000024B4901FFF7FEFD10BDC046036A012025
:1042B00000B595B06B4650220649A120FFF7F2FDEC
:1042C00080216B4650224901A220FFF705FE15B060
:1042D00000BDC046FF20000070B5FCF783FB002541
:1042E00000242000012229000134FCF7BFFB792CB7
:1042F000F7D10A35282DF3D1002500242100012211
:1043000028000134FCF7B2FB1F2CF7D10A35822DAF
:10431000F3D10025054C064EFCF746F92368002B27
:10432000FAD0337825606F2BF6D170BD6825012057
:10433000062B01207047C0467047C0467047C046F4
:104340007047C04670B52A4D2C68002C2FD0012C28
:1043500025D1284B1868FCF7AFF82022264B801097
:10436000186013000340024237D1C20633D0234AFB
:10437000000211680843224910600A0003E001337B
:104380000832232B27D01468A042F8D1DB00CB18C9
:104390001A791C4B2C681A7001221B4B1A600123DE
:1043A0000134E20FA4181C40A41A2C6070BD8021B7
:1043B000164B174C1A881140228811431980154B4F
:1043C00008221868FCF7AAF823680C4A13605B00FF
:1043D0002360802B08D02C68E1E70A4B4F321A701B
:1043E000094B1C602C68DAE7012323602C68D6E7B0
:1043F0008C2A01203C2201108C29012090290120C7
:104400006C110120062B012068250120FC2A0120C7
:104410008412012040220110F0B5C646294B00B598
:1044200098461B68002B25D1274B1A68002A1ED0FE
:1044300000221A60254B1C68237B262B17D0244AA8
:10444000002110782200183206E00C3213000C3BD9
:104450001B780131262B0AD09842F6D14B0059180F
:10446000890064186369984701234246136004BCBD
:104470009046F0BD002342461360FCF743FC134E08
:1044800031680B7B262B1AD000250023114F5B19B6
:104490009C0009190869FCF715FD336801359C4635
:1044A00064442069FCF788FC3800FCF785FC6B004D
:1044B00031685A1992008A18127B262AE7D18B6834
:1044C0009847B1E7C4290120682501204010012048
:1044D000062B01203C250110094B10B51A88094B09
:1044E0001A60FCF7A7FEFCF70DFC0022064B1A60D1
:1044F000064B01321A60064B064A1A6010BDC046D0
:10450000FC2A0120842A0120C0290120C42901207D
:10451000401001201811012070B52B4D2C68002C83
:1045200031D0012C25D1294B1868FBF7C5FF20227B
:10453000274B8010186013000340024239D1C20695
:1045400035D0244A000211680843234910600A004C
:1045500003E001330832232B29D01468A042F8D19C
:10456000DB00CB181A791D4B2C681A7001221C4BEA
:104570001A6001230134E20FA4181C40A41A2C6015
:10458000FFF74AFF70BD8021164B174C1A88114067
:10459000228811431980154B08221868FBF7BEFFCB
:1045A00023680C4A13605B002360802B08D02C68C2
:1045B000DFE70A4B4F321A70094B1C602C68D8E7B2
:1045C000012323602C68D4E78C2A01203C220110AF
:1045D0008C290120902901206C110120062B01203B
:1045E00068250120FC2A01208412012040220110AC
:1045F0001A4B70B51A680A21501C186003F050FE5F
:10460000174A002910D17B23D156164BC80F1860CA
:10461000154B5C689D68DE681C601C695D609E606F
:10462000DC601861002907DB7423D35C002B02D007
:1046300000220E4B1A6070BD012CF5D13543F3D129
:104640000A48036801330360042BEDD108490C606C
:104650000B68002BFCD10360E6E7C046A02A0120CE
:10466000044901209C2A012044100120A42A012091
:10467000CC2401200022014B1A6070473C2A012003
:104680000E4B10B519680E4805F09AF80D4B0E4800
:10469000196805F095F80D4805F092F80C4805F0FA
:1046A0008FF80C4C0C48218805F08AF86388E27971
:1046B000A1790A4805F084F810BDC046502A0120AF
:1046C0003C320110682A0120543201106C32011072
:1046D000803201108848012094320110A03201106C
:1046E00070B50D4C0D48216805F06AF80C4D00219D
:1046F000280005F065F823681C00303C392B01DDEB
:10470000573B1C002100280005F05AF8054B1A6899
:1047100011012143196070BD94290120C03201109C
:10472000C83201103C2A0120A522A62170B5154BE4
:1047300015489A5C5E5C1202B618A72202319A5C98
:104740005D5C1202AD18A92202319A5C5C5C120217
:10475000A4180E4A0E499A5C595C12028918B6B226
:1047600089B205F02DF8ADB231000A4805F028F8FD
:10477000A4B22900084805F023F82100074805F0F5
:104780001FF870BD04490120D032011065200000DF
:1047900066200000E0320110F032011000330110F9
:1047A00070B50A2004F064FE0B4C0C4E2500213538
:1047B000FF35626813782A2B03D03000217804F08B
:1047C000FFFF0C34AC42F4D1054804F0F9FF0A2095
:1047D00004F04EFE70BDC046881201201033011057
:1047E0001C330110F0B5DE4657464E464546E0B54F
:1047F0000A208BB004F03CFE00236A461372324B51
:10480000324E9846324B34689B46324B324F9A4672
:10481000324B99461DE0C0231B029C4243DD304BC6
:10482000E318304A4046D55C290004F0C9FF6822ED
:104830007B5D934328D02A0068462B4903F09EFCF9
:10484000694602A808F0CCFE33680134FF33A34266
:104850002FDB07231D002540234219D080231B0294
:104860009C42D8DA80222300D201944202DB1F4B03
:104870001B68E3184A46D55C4046290004F0A0FFB7
:1048800068227B5D9343D6D12E236A461380D7E7F7
:1048900002A9584604F094FF6B46210050461D7251
:1048A00004F08EFFDAE7124B1A680D4BE3189B18E1
:1048B000B7E70A2004F0DCFD0BB03CBC90469946FB
:1048C000A246AB46F0BDC046382501103C2A012067
:1048D0004033011048330110CD3901100449012043
:1048E0000080FFFFC00D002050330110502A01202E
:1048F000682A0120F0B5DE4657464E464546E0B5EB
:10490000214B89B09B461B68002B32DD1F4B0024D6
:1049100099461F4B98461F4A6300D55A1E4A1F49A5
:10492000165D1F4A1F48125DADB2D2B20692CA5A36
:10493000C75A4B461B5D91B2DBB29A464B46185D97
:104940000791C0B2FEF7B8F953460799069AF6B236
:10495000BFB20490039301913300210000924046BE
:104960002A00029704F02CFF5B461B680134A34227
:10497000D1DC0A2004F07CFD09B03CBC904699468D
:10498000A246AB46F0BDC04664230120F83E01209C
:1049900054330110642D0120743B0120983501200F
:1049A00040330120F0370120F0B545464E46DE4643
:1049B0005746244BE0B51C68234B00259946234BF2
:1049C00089B09846224A6300D65A224A2249175D86
:1049D000224A2348125DB6B2D2B20692CA5AC35ACC
:1049E00091B29BB29A464B461B5D0791DBB29B4648
:1049F0004B46185DFFB2C0B2FEF75EF95B4603930B
:104A000053460799069A0490029301913B002900AE
:104A100000924046320004F0D3FE9621601C49000B
:104A200003F03EFC962301350C005B009D42C9D18A
:104A30000A2004F01DFD09B03CBC90469946A246F0
:104A4000AB46F0BD68230120483A012054330110E1
:104A5000E83001206C340120A03C0120BC2F012053
:104A60000C2B012010B5034803F0ECFB00210300E0
:104A7000002098475542000010B5642004F0B2FEB3
:104A8000431C17D00C4C0023220003E001330C32EE
:104A9000182B0FD011788142F8D1084A10605A00C3
:104AA000D3189B00E418A3689847054B054819687C
:104AB00004F086FE10BDC046881201209429012012
:104AC0003C2A012094330110F0B583B005000E009C
:104AD000140000F0ABF9002801D003B0F0BD154F71
:104AE00001223B0001210097053001F087FD3300D2
:104AF0002A0000940121104801F06EFF21002800D7
:104B0000714303F0F5FB04000C4B002200930221DB
:104B1000042001F073FD23000022012100940520F0
:104B200001F06CFD3B00022200210097062001F0FD
:104B300065FDD2E7006CDC0200800240001BB7007C
:104B4000F0B5DE4657464E464546E0B5070083B011
:104B500004209B460091019201F038FFFA21890060
:104B600003F0C6FB32238246FF3399468600564443
:104B7000B6014C4B4C4AF318072493420BD901233E
:104B80005B429C465346E144F61A4B46002BF0D15B
:104B900000205AE0012421003000614303F0A8FB0B
:104BA000874259D0631E9846012CE8D01D0065430A
:104BB0003000290003F09CFB874251D0A31E984689
:104BC000022CE7D02D1B2900300003F091FB874217
:104BD00049D0E31E9846032C4BD02D1B29003000F2
:104BE00003F086FB874246D0231F9846042C48D00A
:104BF0002D1B2900300003F07BFB874243D0631F4D
:104C00009846052C45D02D1B2900300003F070FB81
:104C1000874240D0062C42D03000E91F03F068FBE9
:104C200006248742B7D10029B5D10123072498462D
:104C300073019B1B9B009E19009BF6001E60019B4D
:104C400042461C605B4601201A6003B03CBC9046A3
:104C50009946A246AB46F0BD0029A3D1A046E7E79E
:104C60000029ABD1E4E70029E2D0E31E9846032CEB
:104C7000B3D102248FE70029DAD0231F9846042CF1
:104C8000B6D1032487E70029D2D0631F9846052CAC
:104C9000B9D104247FE70029CAD0062CBCD1052451
:104CA00079E7C046508EF4FF50F80C00094A8300A3
:104CB00094464022634410B51C68C0006240C02482
:104CC00014408022520113431C60034B9C466044F5
:104CD000416010BD04C00140004001400A4B80000B
:104CE0009C4604236044002901D00C230821002A9B
:104CF00000D10B00026853400C221A4080235B0154
:104D0000184302607047C04604C001400123D0220E
:104D10008340120693629361094A830094464022BD
:104D200063441968C0004A40C021114080225201EA
:104D300013431960034B9C4605236044436070474E
:104D400004C0014000400140F8B5EFF3108772B68F
:104D50000E4E3368002BFCD0BFF35F8FCB08C41816
:104D60000725A446C45C01230D40AB401800204039
:104D7000234208D1624623431370BFF35F8F306034
:104D800087F31088F8BD100001F01AFC2C0100D048
:104D9000F8B5CE4647468C4680B5EFF3108872B61C
:104DA000214D2C68002CFCD0BFF35F8F9A422CD889
:104DB000D4080721055D0619012411408C402C42BE
:104DC0001FD007218946063909E0D408055D061978
:104DD0004C460F001440A7403C002F4211D0013236
:104DE0009342F2D201204042BFF35F8F00220E4B6C
:104DF0001A6088F3108800280FDB0CBC9046994697
:104E0000F8BD2C4310003470EEE7BFF35F8F002332
:104E10002B6088F31088012040426346002BECD0C1
:104E2000089801F0CDFBC0462C0100D0024B186859
:104E30008007C00F7047C04600C006400021044BE9
:104E4000044ABFF35F8F02C39342FAD17047C04652
:104E5000000100D0800100D0044A1078431CDBB26E
:104E6000172B00D9102313707047C046A8130120D8
:104E700000B5054B83B00100009318221F2303489F
:104E8000FFF786FF03B000BD3034011098240120E5
:104E900001238340002904D0034A1360034A1360AE
:104EA0007047034A1360FBE780E200E000E100E0A6
:104EB00080E100E001238340014A13607047C0464F
:104EC00000E200E0084B10309B688000C358002BC4
:104ED00007D0064A00209B1A2F229A424041C0B2B6
:104EE00070470020FCE7C04600ED00E0AC13012055
:104EF000024B10309B688000C058704700ED00E006
:104F000070B50D00EFF3108672B60F4A1368002BD0
:104F1000FCD0BFF35F8F0D4B10309B6884001B5992
:104F20000B4A934203D09D4201D001F061FB074B35
:104F30009B681D51BFF35F8FBFF35F8F0022024B51
:104F40001A6086F3108870BD240100D000ED00E0E7
:104F5000CD010010F0B557464E464546DE46E0B559
:104F6000894683B005001700EFF3108A72B65E4AD7
:104F70001368002BFCD0BFF35F8F00205B4B1856EB
:104F80009B4600286DDB5A464400594E2418A40065
:104F9000331998469B7910351370564BAA009B68BD
:104FA00001929B589C469B1B2F2B29D801226146BE
:104FB0009143CB79BB4208D86BE053009B189B0010
:104FC000F318DD79BD4252D9190006228A56002A0B
:104FD000F3DABD260B1D9B46360243465C46043B76
:104FE0001B1B1B05444C5B0D23438B808871414682
:104FF0008A714A46414B8E800B60CF718A601BE0FC
:105000003F4B9C4542D142463E4B023413803E4BBF
:105010003619043B9E1B3605374B760D1E433B4B22
:1050200056809380FF23D771937143464A469A6016
:10503000012342461A43944661462E4B019A9B68CF
:105040009950BFF35F8FBFF35F8F0022264B1A602A
:105050008AF3108803B03CBC90469946A246AB4602
:10506000F0BD01F0C5FA5B46002018568BE70B1D1A
:105070009B468B8804345B051B155B4436199E1BCD
:10508000E0233605760D1B021E43A6E701F0B0FAB9
:10509000B9E745460B001E489B1B5B415843000D7A
:1050A000184B2B80A31C9C46B4446546164B043415
:1050B000043B5B1B1B05104D5B0DAC462B4345466B
:1050C00036196B800B1F9E1B6346A8714846360538
:1050D000760D1E43094BAE80EF71A8600B6043460E
:1050E00013439C46A8E7C046240100D0042B0120AE
:1050F000AC13012000ED00E000E0FFFF0148804715
:10510000CD01001000A1FFFFDC13012000BDFFFF57
:10511000AAAA0000F0B5DE4657464E464546E0B521
:105120000C0083B0EFF3108A72B65A4A1368002B52
:10513000FCD0BFF35F8F1022914681444A46564B04
:1051400096009B689D59554B98469D4205D0A542B7
:1051500016D0534FEB1B2F2B14D94F4B9B689D51EF
:10516000BFF35F8FBFF35F8F00224A4B1A608AF351
:10517000108803B03CBC90469946A246AB46F0BDB1
:105180001D00EAE7012383409B465A46454B1B68B6
:105190001A4000925A46444B1A60BFF35F8FFBF7E8
:1051A00062F80190002803D0814501D001F020FA77
:1051B00001232A009A4393689C4208D160E04B0087
:1051C0005B189B00FB189968A14211D01A000621B8
:1051D00051560029F3DA009B002B05D05A46334B79
:1051E0001A60304B1A60B8E75A462F4B1A60B4E782
:1051F00006215956002922DB4A00501880003C182D
:105200008046A0689860E079D87106202056987191
:10521000A0797F2824D8A488F81A6405241544446A
:105220000019E0240005400D240220439880521804
:105230001F4B9200BF181A781970BA71CBE7019909
:10524000002910D1FF3191711A49918018490A78CB
:105250009A71194ADB1B5B415A43120D0A70BAE777
:10526000BD200002E2E7154A1549D21A083A500259
:10527000400D01439980134952080A43DA80AAE796
:105280000621515613000029B6DA019A002AEAD104
:105290004546DBE7240100D000ED00E0CD01001021
:1052A000AC13012000E100E080E100E080E200E0DA
:1052B000042B012000BDFFFFAAAA0000E613012075
:1052C00000F0FFFF00F8FFFFF8B5012504000543DB
:1052D000FAF7C9FF0300EFF3108672B621490A6896
:1052E000002AFCD0BFF35F8F1F4A20001F49801A9D
:1052F00040414143090D1E489B00876849B2FF5851
:10530000AF421CD00623D3568B421CD01223D35657
:105310008B4222D01E23D3568B4220D02A23D35631
:1053200003208B4210D0134B1A781970A271BFF36F
:105330005F8F00220B4B1A6086F31088F8BD8268DD
:105340000D48D050EFE7002043001B189B00D218F7
:10535000FF239371094B9380E5E70120F4E70220D6
:10536000F2E7C046240100D0AC130120AAAA000035
:1053700000ED00E0042B0120CD01001000BDFFFF77
:10538000054B064A1360064A136053609360D3606E
:1053900013615361936170478080808000E400E076
:1053A00004E400E0D02300B51B061B680100074899
:1053B00083B0C018064B002200930523FFF7E8FCDA
:1053C000002801DB1F23181A03B000BDE42A0120C6
:1053D0004C340110024B9C466144890001607047C7
:1053E0004000003483680B4810B584466144624431
:1053F000090112019A18591854684B6801209C42FF
:1054000001D802D00020C0B210BD12680B689A42C9
:10541000F9D8F7E7FFFFFF0F0A4B1968EFF3108089
:1054200072B60A68002AFCD0BFF35F8F1B68BFF317
:105430005F8F00221A6080F3108840BF0020002197
:105440007047C046A82A0120F8B557464E46454643
:10545000DE46E0B5434D81468A466A68EFF3108820
:1054600072B61368002BFCD0BFF35F8F2E68B47B3D
:10547000002C3ED0670033683F19033FDA19537898
:10548000B373002B00D1F373002393705370137028
:10549000A968354A8C464946A21812016244116037
:1054A000514651603149D36091603268D21993708E
:1054B00053701370737B9B46002B35D0220019006C
:1054C000B068736898473268002820D05B46584619
:1054D0005B005B44D719033BB870D118D35C002B39
:1054E00000D07B705B460C7073735C451DD000264A
:1054F00026E06B68BFF35F8F1C6088F31088012083
:1055000040423CBC90469946A246AB46F8BD5B463D
:105510005B005B44033BD3189C70D119D25D002A19
:1055200000D05A705B460B7074734A465346287D10
:1055300000F078FC061EDAD02100286800F0B8FEE2
:10554000EB686A681B19013B1B78BFF35F8F002172
:10555000116088F310880020002ED2D11802204359
:10556000CFE7C046F4130120FFFFFF0F19540010CE
:10557000F8B5574645464E46DE46E0B599460CAB73
:1055800019780DAB1B78050090469A4607680029EC
:1055900012D1BE7B002E45D074003B68A419033C99
:1055A0001B195A783100BA73002A00D1FA7300220D
:1055B0009A705A701A7003E00E004C006418033C95
:1055C0002C4B00229C46AB6861449C464346090133
:1055D00061440B604B464B600A9B8B600B9BCB601E
:1055E0003B681B199A705A701A707B7B9B46002B84
:1055F0002CD032005946B8687B6898473A68002832
:1056000017D05B4658465B005B441419033BA070FF
:10561000D118D35C002B00D063705B460E707B7397
:10562000B34514D030003CBC90469946A246AB46E8
:10563000F8BD5B465B005B44033BD3189E701119B9
:10564000125D002A00D05A705B460B707E73424692
:105650004B46287D00F0E6FB041E06D05346002B87
:1056600003D13100286800F023FE0E9B002BD9D017
:105670001C70D7E7FFFFFF0FF0B5DE464E465746DA
:1056800045460023E0B58DB00A936B4B8200D3589A
:105690000B90994600239B464B46079300F038FB3E
:1056A000079C06000F006268EFF3108572B613685E
:1056B000002BFCD022000794BFF35F8F2468637B2C
:1056C0009946002B67D092685C4B90464B441B0177
:1056D000984443461A685B6810001900801BB94162
:1056E00000295FDD0B9800F09DFB00230026984603
:1056F00000279A46079C6368BFF35F8F5A461A607B
:1057000085F310885346002B08D10028C6D10DB070
:105710003CBC90469946A246AB46F0BD0A9B41462A
:1057200018024B461843D047089009916268EFF37E
:10573000108572B61368002BFCD00794BFF35F8FFF
:105740000899099A002A48DB114303D0079B1B697B
:10575000002B5DD1079B1B68DA7B002A07D0510024
:105760008A1819688C4649466244033A51704A4681
:10577000DA734B46079A013BD168CA5C0132CA54BE
:105780005B46079A13615368BFF35F8F5A461A60EE
:1057900085F3108882E700230026984600279A4662
:1057A0000020A7E7002901D100289BD1002120007B
:1057B00000F0E0FC43461E685F689B68079A9A46C3
:1057C0004346DB689846D3684B44013B1B780A93F9
:1057D0001B020343136100208CE72369002BB9D01F
:1057E00033003C005B1A94411A002300A74219D8E9
:1057F0009F421BD0594604910121039149460291D1
:1058000041460191514607980091FFF7B1FEB7E775
:1058100000F07EFA089A099B06000F0092197B415E
:105820009942E5D901225242D317E3E79642E1D9E2
:1058300001225242D317DDE7402A0120FFFFFF0F6C
:1058400010B5124C6368002B04D00A211048FFF7F2
:10585000C1FD10BD23000F4A1021206800F0A8FBF5
:10586000032000F049FA032000F04EFB03200A4910
:1058700000F092FAFFF7F0FA084B9C4603236044CD
:105880002375074B80006060DC60DEE7F4130120C5
:10589000A82A0120E553001079560010400000347A
:1058A000402A012000487047F4130120F0B5574604
:1058B0004546DE464E46E0B585B0019310AB1B78F9
:1058C00000270393002380469A46009243465A6875
:1058D000EFF3108972B61368002BFCD0BFF35F8F13
:1058E00043461D68AC7B002C4FD066002B683619F0
:1058F000033E9B195A78AA73002A00D1EA734246E4
:105900009F705F701F709268524B94460099019A85
:10591000E3181B01634419605A600E9A9A600F9A4B
:10592000DA602B689B199F705F701F706B7B9B46C2
:10593000002B46D022001900A8686B6898472A6897
:10594000002831D05B4658465B005B449619033B08
:10595000B070D118D35C002B00D073705B460C7014
:105960006B735C452ED04346DB681B19013B1878EE
:1059700043465B68BFF35F8F1F6089F3108853460F
:10598000002B2ED10002204307E05B68BFF35F8F3E
:105990001C6089F310880120404205B03CBC904651
:1059A0009946A246AB46F0BD5B465B005B44033BB9
:1059B000D3189C709119925D002A00D05A705B46F2
:1059C0000B706C734346187D009A019B00F02AFA15
:1059D00082460028C7D043462100186800F068FCC2
:1059E000C1E7039B002B32D00E9B00200F999847F4
:1059F000030004000D000B4329D000290DDA0098A4
:105A0000019902000B00121BAB41994215D81AD024
:105A100000920193039B9A4658E700F079F902003F
:105A20000B00A4185D412000290000900191AB42B9
:105A300003D8EFD100998A42ECD901235B42DC17ED
:105A400000930194E6E700999142E1D9F5E700203F
:105A5000A3E7C046FFFFFF0FF0B504000D000626C8
:105A60007642F717C64636196F4100B58F4213D8F4
:105A700010D000F04DF932003B00121A8B41002B80
:105A800014DC002B37D02900200000F075F904BC8D
:105A90009046F0BD8642ECD90026002700F038F988
:105AA00032003B00121A8B41002BEADD3000390036
:105AB000FFF7CAFC0028E6DB00239846BC460F4AE5
:105AC0000F4F7B6A9C4504D8B96A8E42DBD99C454E
:105AD000D9D11168EFF3108072B60B68002BFCD09F
