:020000041000EA
:1000000000B5324B212058609868022188439860DF
:10001000D860186158612E4B002199600221596106
:100020000121F02299502B49196001219960352056
:1000300000F044F80222904214D00621196600F024
:1000400034F8196E01211966002018661A6600F04E
:100050002CF8196E196E196E052000F02FF8012189
:100060000842F9D1002199601B49196000215960AB
:100070001A491B48016001219960EB211966A021F2
:10008000196600F012F800219960164914480160C1
:100090000121996001BC002800D000471248134993
:1000A000086003C880F30888084703B5996A0420EC
:1000B0000142FBD001200142F8D103BD02B5186610
:1000C0001866FFF7F2FF186E186E02BD00000240BE
:1000D000000000180000070000035F00212200005C
:1000E000F4000018222000A00001001008ED00E03C
:1000F00000000000000000000000000074B24E7A12
:1001000000200420F7010010C3010010C5010010F9
:10011000C1010010C1010010C1010010C101001097
:10012000C1010010C1010010C1010010C701001081
:10013000C1010010C1010010C9010010CB01001065
:10014000CD010010CD010010CD010010CD01001037
:10015000CD010010CD010010CD010010CD01001027
:10016000CD010010CD010010CD010010CD01001017
:10017000CD010010CD010010CD010010CD01001007
:10018000CD010010CD010010CD010010CD010010F7
:10019000CD010010CD010010CD010010CD010010E7
:1001A000CD010010CD010010CD010010CD010010D7
:1001B000CD010010CD010010CD010010CD010010C7
:1001C00000BE00BE00BE00BE00BE00BE00F04BF888
:1001D000103800BEF2EB88715C4F0110844F0110A3
:1001E0003402001090A31AE700202149086006C8D5
:1001F00081F3088810471F48006800282FD10DA4FC
:100200000ECC002902D000F012F8F9E71A491B4A77
:10021000002000E001C19142FCD1194988471949E9
:1002200088471949884700BEFDE701C901C29A42C3
:10023000FBD37047844F0110C0000020C01E012076
:10024000846D02100000042000000420846D021060
:1002500000100420001004200000000070470B482C
:1002600008F08CFC0047EFF30580C0B27047000037
:1002700008ED00E0000000D0C01E012024A10220F3
:100280009D6D0010C1050010C16E00105756000092
:1002900006005250ABB36053484101100600525063
:1002A000861C030258410110060052505422A29DA0
:1002B0006841011005005250DE65F468846D02103B
:1002C000F8B5C0460448054B10B5834203D0044B33
:1002D000002B00D0984710BDC01E0120C01E012079
:1002E0000000000006480749091A8B10C90FC918F9
:1002F00010B5491003D0044B002B00D0984710BD17
:10030000C01E0120C01E01200000000010B5074CD7
:100310002378002B09D1FFF7D5FF054B002B02D026
:10032000044800E000BF0123237010BDD01F01204E
:1003300000000000582B0110054B10B5002B03D016
:100340000449054800E000BFFFF7CCFF10BDC046E0
:1003500000000000D41F0120582B0110F0B54746C3
:10036000CE4680B5274B83B098461C88264B9C42CE
:100370003CD043460443A4B21C80D026802380276F
:100380001B02360601200021B361FF0406F056F877
:100390001025B9460FE08023DB01736101200021A5
:1003A00006F04CF8013D01200021776106F046F887
:1003B0006400002D0BD04B460120B361002106F0F4
:1003C0003DF82304E7D48023DB01B361E6E7D023C3
:1003D00080221B0612025A6142460B4B12889A4237
:1003E0000AD003B00CBC90469946F0BD00230093A0
:1003F000009B002BFCD1BCE700230193019B002B49
:10040000FCD1EEE7522B012009200000F0B5CE46CA
:10041000474680B5264B83B098423DD0254BD02629
:100420001C88984684431C80802380271B02360644
:1004300001200021B361FF0406F000F81025B94641
:100440000FE08023DB0173610120002105F0F6FF3E
:10045000013D01200021776105F0F0FF6400002DCF
:100460000BD04B460120B361002105F0E7FF2304C8
:10047000E7D48023DB01B361E6E7D02380221B06AB
:1004800012025A6142460A4B12889A420AD003B0BD
:100490000CBC90469946F0BD00230093009B002BB6
:1004A000FCD1BBE700230193019B002BFCD1EEE7BD
:1004B00009200000522B0120F0B50124D0258440F2
:1004C000C64680272D0600B50120AC610021AC6135
:1004D00005F0B4FF7F036C610120002105F0AEFF41
:1004E00008260024B8466B686400E4B29B0202D57B
:1004F00001231C43E4B2434601200021AB6105F017
:100500009DFF013E012000216F6105F097FF002E45
:10051000E9D1200004BC9046F0BDC046F8B5DE46E7
:1005200057464E464546E0B501263300D024834069
:1005300024060D0001200021A36117009B4605F051
:100540007DFF002F26DD7B1E9E408023DB04B0460E
:10055000994600269A4610E08023DB016361012062
:10056000002105F06BFF4B4601200021636101363D
:1005700005F064FF6D00B7420CD053460120A36123
:10058000002105F05BFF43461D42E5D18023DB01DE
:10059000A361E4E7D0235A461B065A613CBC90464F
:1005A0009946A246AB46F8BD10B504F041FA02F0F8
:1005B000ADFE03F0C9FD02F035FC04F0F9FE10BDFC
:1005C00010B51B2084B005F03DF8D024802324060C
:1005D0001B0563620D20636105F034F80E2005F001
:1005E00031F80F2005F02EF8162005F02BF8152015
:1005F00005F028F81A2005F025F8132005F022F858
:10060000142005F01FF8122005F01CF8002005F05A
:1006100019F8012005F016F8022005F013F8032060
:1006200005F010F8042005F00DF8052005F00AF893
:10063000062005F007F8072005F004F80122002144
:10064000002004F0E7FF01220021012004F0E2FF76
:1006500001220021022004F0DDFF012200210320FD
:1006600004F0D8FF01220021042004F0D3FF01226E
:100670000021052004F0CEFF01220021062004F015
:10068000C9FF01220021072004F0C4FF0A2004F062
:10069000D9FF0B2004F0D6FF0C2004F0D3FF11206B
:1006A00004F0D0FF102004F0CDFF00220121102023
:1006B00004F0B0FF00220121112004F0ABFF8023E1
:1006C0008022DB0192016362A262636280231B02CB
:1006D00063628023DB03636280239B03A362802326
:1006E000DB04636280231B03636280228023D202C7
:1006F0005B03636262628022D20062628022120126
:1007000062628022520162621348636102AA03ABF3
:1007100001A904F0B1FE002817D10120FFF71EFE49
:100720000A2005F0A3FE00F041F800F021F909F0DD
:10073000EFFC01F081FC04F099FA084809F086FB0F
:1007400004F0B4FA04F034FEFAE7039A029901982F
:1007500004F056FEE1E7C046A0F70300582B011055
:1007600000B583B06A4680231371793B0340502063
:100770004042184350710221782001AA03F01AF96F
:1007800003B000BD10B5102482B0030901AA2343B1
:1007900053700F238021184011709170D0707C39F4
:1007A000782003F007F902B010BDC046F0B58026EE
:1007B0006C4C6D4B21881D68314385B0280089B28F
:1007C00008222180FA27FFF7A9FE7F212388FF0056
:1007D00019402800082221800397FFF79FFE2188F7
:1007E0000822314389B2280021800297FFF796FE44
:1007F000019702F0D9FE782002F042FF802002F03B
:100800003FFFAE2002F03CFF802002F039FFD520F0
:1008100002F036FF802002F033FFA02002F030FF0C
:10082000802002F02DFFA82002F02AFF802002F095
:1008300027FF1F2002F024FF802002F021FFD32099
:1008400002F01EFF802002F01BFF002002F018FFC4
:10085000802002F015FFAD2002F012FF802002F090
:100860000FFF8E2002F00CFF802002F009FFD8203D
:1008700002F006FF802002F003FF052002F000FFD7
:10088000802002F0FDFEA12002F0FAFE802002F09E
:10089000F7FEC82002F0F4FE802002F0F1FEDA201C
:1008A00002F0EEFE802002F0EBFE122002F0E8FEE5
:1008B000802002F0E5FE912002F0E2FE802002F0AE
:1008C000DFFE3F2002F0DCFE802002F0D9FE3F2058
:1008D00002F0D6FE802002F0D3FE3F2002F0D0FED0
:1008E000802002F0CDFE3F2002F0CAFE802002F000
:1008F000C7FE812002F0C4FE802002F0C1FE1B4B27
:10090000187802F0BDFE802002F0BAFED92002F075
:10091000B7FE802002F0B4FED22002F0B1FE8020AB
:1009200002F0AEFEDB2002F0ABFE802002F0A8FE5B
:10093000342002F0A5FE802002F0A2FEA62002F0E4
:100940009FFE802002F09CFEA42002F099FE8020F1
:1009500002F096FEAF2002F093FE02F055FE05B0C5
:10096000F0BDC046542B0120782B0110400400201C
:100970008023F0B54746CE469946D03B00259846A1
:1009800080B5174F83B001AE4B46337043463200FB
:100990002B4302217820737003F00CF832000421FD
:1009A0007820019703F006F802F0FEFD782002F0AF
:1009B00067FE402002F064FE8424013C0020E4B283
:1009C00002F05EFE002CF8D10135EDB202F01CFE03
:1009D000042DD9D103B00CBC90469946F0BDC04659
:1009E00080108000204BF0B54746CE469946002344
:1009F00080B5502700259846802683B001AC7F4201
:100A00004B4642465B191A70EB113B432200022110
:100A100078206370267002F0CDFF7F2310212B40D9
:100A20001A090A4362700F22042113407820220021
:100A3000E3702670A67002F0BDFF02F0B5FD7820CD
:100A400002F01EFE402002F01BFE002002F018FE05
:100A500002F0DAFD80230135DB009D42D0D103B0E6
:100A60000CBC90469946F0BD7C400120F0B57F2437
:100A7000231A45469846CB1757469A460723DE4623
:100A80004E469946E0B5534617004A4613405B1858
:100A9000DB105B42DC1C80239B4683B001AD2B70D6
:100AA0002240D03B134378202A000E0002216B70B5
:100AB00002F080FF43465A4610210433DBB22A700D
:100AC0001A090A436A705A46AA70713A13400421FF
:100AD0002A007820EB7002F06DFF02F065FD7820AF
:100AE00002F0CEFD402002F0CBFDE401154B444462
:100AF0001D5D9846002F1BD0012F08D153464A4652
:100B00005B0FF6183240D61AB7403D43EDB22800CD
:100B100000F01AF8C0B202F0B3FD43461D5502F0D2
:100B200073FD03B03CBC90469946A246AB46F0BD6F
:100B300053464A465B0FF6183240D61A0123B3409B
:100B40009D43E4E77C400120022101234200114043
:100B500042101A401143821049001A400A43C11042
:100B6000194052000A430111520019401143421129
:100B70001A4049001143821149001A400A43C0112A
:100B80005200184010437047032370B5040015004D
:100B90005B1AD8B2FFF7E4FDA000201A40007F30B6
:100BA000C0B2FFF7EFFD02F0FFFC782002F068FD15
:100BB000402002F065FDAA00521901240425154EBB
:100BC000B6182200735D1A405810204052000243AC
:100BD0009810520020401043DA1022404000104389
:100BE0001A11400022400243581120405200024393
:100BF00098115200204010434000DB11184302F0CE
:100C00003FFD013DDDD2002002F03AFD02F0FCFC88
:100C100070BDC04644040020F0B54646D6464F4657
:100C2000C0B516789046002E4DD00323591ACBB28A
:100C30009946274B01249A468500451B6D007F3558
:100C4000EDB201239C4604274846E044FFF788FDA7
:100C50002800FFF797FD02F0A7FC782002F010FDB6
:100C6000402002F00DFDB3009E1956442200F35DB2
:100C70001A40581020405200024398105200204061
:100C80001043DA102240400010431A114000224065
:100C90000243581120405200024398115200204054
:100CA00010434000DB11184302F0EAFC013FDDD2A3
:100CB000002002F0E5FC02F0A7FC43461E78063D4A
:100CC000EDB2002EBDD11CBC90469946A246F0BDA7
:100CD00044040020F0B5D6464F464646C0B584B021
:100CE00001AF04000D0038002D4907F0E3FE3E7807
:100CF000002E4ED00321491BCBB29946294BA500AB
:100D0000651BB8469A4601246D007F35EDB201237C
:100D10009C4604274846E044FFF722FD2800FFF7E1
:100D200031FD02F041FC782002F0AAFC402002F0E4
:100D3000A7FCB3009E1956442200F35D1A405810D8
:100D40002040520002439810520020401043DA1015
:100D50002240400010431A11400022400243581123
:100D6000204052000243981152002040104340009E
:100D7000DB11184302F084FC013FDDD2002002F0B9
:100D80007FFC02F041FC43461E78063DEDB2002E8A
:100D9000BDD104B01CBC90469946A246F0BDC046E9
:100DA000802B011044040020F8B5294BCE4699460B
:100DB000052347465B424B4480B598467F27012474
:100DC0000326F0B2FFF7CCFC3800FFF7DBFC02F0A3
:100DD000EBFB782002F054FC402002F051FC4D4621
:100DE00022002B78013D1A40581020405200024347
:100DF0009810520020401043DA1022404000104367
:100E00001A11400022400243581120405200024370
:100E10009811520020401043DB114000184302F0AB
:100E20002FFCA845DCD1002002F02AFC02F0ECFBEC
:100E3000013EC6D2063FFFB2012FC1D10023054AB1
:100E40001360054A13600CBC90469946F8BDC04635
:100E5000E80400202C25012030250120F0B5DE46D5
:100E6000454657464E46E0B53C4B05789B461C68C8
:100E70003B4B83B01A680190002D50D003239B1A7E
:100E8000DBB29946374BA600A61B80469A46012442
:100E900076007F36F6B201239C4604274846E0449C
:100EA000FFF75EFC3000FFF76DFC02F07DFB782061
:100EB00002F0E6FB402002F0E3FBAB005D19554475
:100EC0002200EB5D1A405810204052000243981057
:100ED000520020401043DA102240400010431A1103
:100EE0004000224002435811204052000243981112
:100EF0005200204010434000DB11184302F0C0FBB9
:100F0000013FDDD2002002F0BBFB02F07DFB434637
:100F10001D78063EF6B2002DBDD15B461C680198D7
:100F20000DF06EF82418142C08DC5B461C6003B02E
:100F30003CBC90469946A246AB46F0BD5B460022BB
:100F40001A60074B1B6801930133032B02DD044B2E
:100F50001A60ECE7024A1360E9E7C0462C2501203D
:100F6000302501204404002010B50DF049F8084B4D
:100F70001A6894466044142807D90021054A19606C
:100F800013680133032B01DD116010BD1360FCE712
:100F90002C2501203025012070B5094809F0ACF856
:100FA00001231D00074AD0241268FA209540240628
:100FB000054AA5614000136005F058FAA56170BDAF
:100FC000882B01107C2B0110D02A0120374A30B524
:100FD0001368040001331360B02383B09B00984270
:100FE0005AD024D9C0239B00984232D04033984233
:100FF0001BD180212E4A2F4C1088238801407F204E
:1010000001339BB223804340194389B211800822E7
:10101000294B1868FFF782FA0220284923884A7D65
:10102000DB120340824313434B7503B030BD013BD9
:10103000FF3B98421AD040339842F6D180204000BE
:10104000FFF78CF92000FFF789F9642005F00EFA0C
:10105000EBE700238021174C2380154B1A881140A1
:101060007F2211431980773A134BD2E703F05EF8E1
:10107000134809F041F801231D00124AD0241268D8
:10108000FA209540019224060F4AA56140001360A2
:1010900005F0ECF9A561C8E780204000FFF7B6F93C
:1010A00080208000FFF7B2F9BFE7C046E02A0120A8
:1010B000542B0120562B0120782B01105C49012074
:1010C000882B01107C2B0110D02A01208023044A98
:1010D0005B42517C0B4353740122024B1A707047E0
:1010E0005C490120BC0D00200122024B1954024B27
:1010F0001A607047F4480120A0250120F0B5DE46B3
:1011000057464E464546E0B5012083B002F046FA08
:101110005D4B5E491A68002A03D10A68002A00D193
:10112000A4E000225A4F1A603B680A60002B00DAE4
:10113000A2E0584B00249946574B9B46574B984684
:10114000574B9A460EE0574B2000196807F044FDB4
:1011500003002A0008001900FFF716FD3B68013460
:10116000A34239DB4B465A461B681B5DD55C4246A1
:1011700012689342E7D153461B68002BE3D04A4BD9
:101180001B68002B07D0494B1B68002B06D001952C
:1011900080256D00D7E7454B1B6801938021AB008C
:1011A0005B1901950225424A4942D05C414E0843F1
:1011B0009055D3185878404E0843905598783F4E34
:1011C00008439055D8780136084390551B79FF3570
:1011D0000B433B495354B6E71421200007F0FCFCB5
:1011E00014218246200007F0F7FC8946354B002683
:1011F0009846434631009A5D14200136FFF7C4FC3F
:10120000042EF6D16A1EFF3A2B00012A26D92E4A57
:10121000D35C682293431FD05346162058434B4655
:101220002A4EEDB235552A4C2018C5543D68594612
:101230002A00284808F0AEFC00232B22A3541632C3
:10124000A35416326375A354735503B03CBC904647
:101250009946A246AB46F0BD2025DDE7019D1A4A1E
:101260002B00D35C68229343D6D1F5E70A4B084F95
:101270009B46164E164CD9E7002399469A46064BD4
:1012800000249B46B2E7C046A02501202825012066
:1012900090090020F8480120644A0220F429012026
:1012A000FC2901209409002024250120F82901208F
:1012B00044040020050500000605000007050000A5
:1012C00009050000F4480120C543011080450120B4
:1012D000FC4801207C440120022210B50249034849
:1012E000FF3208F057FC10BD644A02205C4902201E
:1012F000E02330B55B00040083B0984200D123E1C5
:101300000BD817281FD8022865D9C31E9BB2142BEF
:1013100057D8A94A9B00D3589F46D0239B00984298
:1013200041D039D9E8239B00984200D139E126D930
:10133000F0239B00984213D10122A04B1A60A04BCE
:10134000185D03B030BD0300813BFF3B9BB2012B16
:1013500041D88223FF33984200D00CE10020F0E70F
:10136000203398422DD1974A1368002B00D107E112
:101370008021C9018C46634400201360E1E7403BB3
:10138000984200D110E12033984224D100228B4BA7
:101390001A608B4B185DD4E7803B984200D1CDE0BA
:1013A0004033984204D12000FFF710FE0020C8E728
:1013B000803B98420FD10420FEF7D0FF804B185D90
:1013C000BFE7230400D5A8E08023DB019C4202D3C1
:1013D0007D4B1B68E4187A4B185DB2E77B4B1868AD
:1013E000FFF76AF87F2343407E201840D023744CD7
:1013F0001B0660755B68764A5B0BDB0118430223B2
:1014000012889843D21213401843607503F00EFD02
:10141000607D96E7D0226F4B1206506819685268BB
:10142000C8405C680121E2400840C0014008114208
:1014300001D080221043D0221206526899684008D9
:10144000CA40D20703D5802252421043C0B2D022F4
:1014500012065268D9684008CA40D20703D58022D4
:1014600052421043C0B2D022120652681969400895
:10147000CA40D20703D5802252421043C0B2D022C4
:101480001206526859694008CA40D20703D5802223
:1014900052421043C0B2D0221206526899694008E5
:1014A000CA40D20703D5802252421043C0B2D02294
:1014B00012065268DB694008DA40D30703D580235F
:1014C0005B421843C0B29621434A490013688B42DD
:1014D00000DB36E7E22541495C0065540133091918
:1014E000487013602DE73E4B18782AE73D4B18787B
:1014F00027E73D4A1378D9B2012B46D0022900D004
:1015000069E7122800D066E7032313707F222C4B73
:10151000597C0A405A74185D13E7C0231B029C4291
:1015200005D9324B9C466444314B185D09E72F4B7B
:101530009C46244B644418682418F5E70420FEF701
:1015400065FF1F4B185DFCE602F0F0FD294808F02E
:10155000D3FD01231D00284AD0241268FA209540AB
:1015600001922406254AA5614000136004F07EFF25
:101570000020A561E5E6224B18687F231840E0E6CD
:1015800080231B0200201360DBE60D4B112800D0E6
:10159000D6E6597C7F2900D8D2E602211170185D69
:1015A000CFE6094A1368E3E60023074A00201360E8
:1015B000044A1360C5E6C046982B01109809002024
:1015C0005C490120C02A0120A82A0120742B0110A7
:1015D000562B01209C0D0020202B01208446012049
:1015E000612B0120602B0120BC0D00200080FFFF3B
:1015F000C00D0020882B01107C2B0110D02A012067
:10160000F42901200B4B1A88824206D01A8A8242A2
:101610000BD01A8C82420AD0704700220121064862
:1016200012019B1801605960F6E70122F6E70222D9
:10163000F4E7C04660090020C82901200120704756
:101640007047C0460022014B1A607047E82A01200B
:101650007323084AD15C643B0B400749D3188C467E
:1016600006496344096819707421535C013353546B
:101670007047C0465C490120B0200000089D022050
:1016800010B50349034802F0FDF9431E984110BD0F
:101690000C2E01106494022010B50349034802F097
:1016A000F1F9431E984110BD1C2E011064940220D4
:1016B000164AF8B5136801331360154B9B69DB06B6
:1016C00003D5144A1368013313601025104C124ED1
:1016D000124FA3691D4211D1A3691D42FCD1236899
:1016E000DBB2002BF5D032680D49BB5430680130B5
:1016F00007F072FA3160A3691D42EDD0A3691D4263
:1017000003D1084A136801331360F8BDD0290120C2
:1017100000800340D4290120D82901207C7A0220AE
:1017200088130000CC2901207047C046F8B50A4E46
:1017300000243500094F3800296802F0A3F9002879
:1017400004D101340835072CF5D1F8BDE400341973
:1017500063689847F9E7C046FC0F01206C4B0220F4
:101760005F4AF0B51368DE4659424B4101215746A6
:101770004E4645465B428B4318000023E0B5546853
:1017800097B0584E02AA03AF1375A33033701022DE
:101790003B002100019002F0A7FB80239B46524BA7
:1017A000A3449A460F2398460FE0403902AB5B18DA
:1017B0001A700023013102AA521807A80CA901349B
:1017C00013700CF0A9FBA3452AD04546434625409B
:1017D000234266D04246E3171B0FE5181540ED1A69
:1017E0007A5D51460CA807F065F930000CF008FC52
:1017F0000CA930180CF06CFB68217A5D3B4B8146DC
:101800009B5C8B43D1D107A80CF0FAFB07AB9C463D
:10181000022237496044013408F0BCF9A345D4D111
:1018200002223449484608F0B5F9484607A9023073
:101830000CF0DEFB304B314C1A68314B200019683C
:10184000330007F037F920000CF0DAFB2D4E2E4B59
:10185000020018602D49300007F02CF93478002C74
:1018600018D03000002120220D26294B02255D5F73
:10187000284B002928D1A5422DD099690A42FCD1D4
:101880001C60017801300D394C4261410478C9B2C5
:10189000002CEED117B03CBC90469946A246AB4610
:1018A000F0BD230007AA1C490CA807F003F90CA9F6
:1018B00030000CF031FB02AB1D7510223B00210003
:1018C000019802F011FB85E799690A42D8D099691D
:1018D0000A42F9D1D4E799690A42FCD11E60CCE7EB
:1018E000089D022024570220442E0110C5430110F8
:1018F000942B0110A83A011034250120086302201E
:10190000080E0120409C0220902A01204C2E01103C
:101910005C9E022000800340342E0110F0B5D646B4
:101920004F464646414BC0B51C68012C08D0022CDE
:101930003DD0002C28D01CBC90469946A246F0BD54
:101940003B4B1E68002EF6DD3A4B3B4C9A4619681D
:101950003A4B00271B6836199846394B994606E0E2
:101960004A462378013401275355B4425BD00D0019
:10197000481CFA21890007F02FF94145F0D1002FCA
:10198000D9D053461D60D6E72E4F2B4E3D0003E0C5
:1019900001340835082CCED03000296802F072F8E6
:1019A0000028F5D0E4003C1963689847C3E7204B52
:1019B0001D68002DBFDD7423234E1F4AF15C013BDF
:1019C000F05C663B00240F279C46AD180FE03C00FE
:1019D0000440A1461D4CB144A0464C4644442370EB
:1019E00001240131C9B201320130AA4215D0137865
:1019F0000A2BF8D00D2BF6D0042BE8D1134C3B006A
:101A0000A04664460340F3184344013101321C7080
:101A1000C9B201240130AA42E9D1002C00D18AE7E1
:101A20007423F15487E75346196084E7CC230120DF
:101A3000282A0120D02401206C4B0220D42401202C
:101A4000F45E0220C40D01205C490120B02000009A
:101A5000F0B50E4B0E4D19682B68C6465C1A631C18
:101A600098460C4F0C4E00B51A008919380008F042
:101A700091F842463900300008F08CF80122074BFB
:101A80002C601A6004BC9046F0BDC0460C2A0120B0
:101A9000C4290120AC72022064940220242A01206F
:101AA000F0B5C64601221C4B00B5532100201A6038
:101AB0000025FFF719FB194C194E03E001350C34D2
:101AC000282D11D02378032BF8D1310060680CF059
:101AD0004BFA0028F2D10122124B1D60124B1A6002
:101AE000124A136801331360114D124B124F1968DB
:101AF0002B68124E5C1A631C98461A00891938002C
:101B000008F048F842463900300008F043F82C60ED
:101B100004BC9046F0BDC046EC2A01201C0E0120FA
:101B2000602E0110442B0120482B01201C2B01208A
:101B3000C42901200C2A0120AC72022064940220E6
:101B4000F8B5CE4647461A4C80B52368002B1AD00C
:101B5000184B194E19683368184F5D1A6B1C99465B
:101B6000174B4A4698461800C91908F013F84A4618
:101B70004146380008F00EF80023356023600CBCA5
:101B800090469946F8BD0B4B0B4D19682B680C4FCE
:101B90005C1A631C9846094E1A008919380007F030
:101BA000F9FF42463900300007F0F4FF2C60E6E709
:101BB000242A01200C2A0120C42901206494022037
:101BC000AC720220F0B5CE46474680B564210220B3
:101BD00085B0FFF789FA494C4949200001F052FFCE
:101BE000002804D105B00CBC90469946F0BD454B89
:101BF000454E19683368454F5D1A6B1C98461A00AC
:101C00003800091907F0C6FF39004246200007F0E6
:101C1000C1FF3F4F35603B6899461D2BE2DC002B2E
:101C200067DD3C4B2B2598461C004B465D433A4EE6
:101C30004544310020000CF097F90028D2D02B3415
:101C4000A542F6D12B244D46434665433100581931
:101C50000CF0CEF92800314914304D694B680A6800
:101C600003950D6940440295CD68019589680091FE
:101C70002B4906F01FFF2B4B310018680CF074F94C
:101C8000002803D03B6801333B60ABE73B68264E3E
:101C90005C432200143230002449424406F00AFF1B
:101CA0003478002CEED03000002120220D26204B6D
:101CB00002255D5F1F4B00290FD1A54214D0996901
:101CC0000A42FCD11C60017801300D394C4261415F
:101CD0000478C9B2002CEED1D4E799690A42F1D058
:101CE00099690A42F9D1EDE799690A42FCD11E606F
:101CF000E5E7084B084E9846A4E7C04664940220E6
:101D0000682E01100C2A0120C4290120AC72022087
:101D1000D8240120D48E0220349E0220089D022067
:101D2000C82E0110C00D0120409C0220B02E0110D1
:101D30005C9E022000800340F0B5C646632101206E
:101D400000B5FFF7D1F90F4C0F49200001F09AFEC2
:101D5000002802D104BC9046F0BD0C4B0C4E196813
:101D600033680C4F5D1A6B1C98461A00091938002D
:101D700007F010FF42463900200007F00BFF3560E6
:101D8000E8E7C04664940220DC2E01100C2A0120F2
:101D9000C4290120AC720220F0B5C646632101209F
:101DA00000B5FFF7A1F90F4C0F49200001F06AFEC2
:101DB000002802D104BC9046F0BD0C4B0C4E1968B3
:101DC00033680C4F5D1A6B1C98461A0009193800CD
:101DD00007F0E0FE42463900200007F0DBFE3560E8
:101DE000E8E7C04664940220E82E01100C2A012086
:101DF000C4290120AC720220F0B5C646040072214D
:101E0000012000B5FFF770F91D482401041961682D
:101E10001C4C200001F036FE002802D104BC904684
:101E2000F0BD194E194B1A4F1968336838005D1A06
:101E30006B1C98461A00091907F0ACFE20004246B8
:101E4000390007F0A7FE3560124C0025124E03E062
:101E500001350C34282DE1D02378032BF8D1310043
:101E600060680CF081F80028F2D101220B4B1D6054
:101E70000B4B1A600B4A136801331360CEE7C04660
:101E8000F437011064940220C42901200C2A012097
:101E9000AC7202201C0E0120F82E0110442B0120F0
:101EA000482B01201C2B0120F0B5C64604006921F7
:101EB000012000B5FFF718F91048240104196168E2
:101EC0000F4C200001F0DEFD002802D104BC90463A
:101ED000F0BD0C4B0C4E196833680C4F5D1A6B1C2F
:101EE00098461A000919380007F054FE4246390096
:101EF000200007F04FFE3560E8E7C046F4370110D8
:101F0000649402200C2A0120C4290120AC72022012
:101F1000F0B5C64604006E21012000B5FFF7E4F8D5
:101F20001248240104196168114C200001F0AAFD37
:101F3000002802D104BC9046F0BD0E4B0E4E19682D
:101F400033680E4F5D1A6B1C98461A000919380049
:101F500007F020FE42463900200007F01BFE084B28
:101F600035601A68074B1A60E4E7C046F437011081
:101F7000649402200C2A0120C4290120AC720220A2
:101F8000089D022018250120F0B5C6460400432113
:101F9000012000B5FFF7A8F81D4824010419616865
:101FA0001C4C200001F06EFD002802D104BC9046BC
:101FB000F0BD194E194B1A4F1968336838005D1A75
:101FC0006B1C98461A00091907F0E4FD20004246F0
:101FD000390007F0DFFD3560124C0025124E03E09A
:101FE00001350C34282DE1D02378032BF8D13100B2
:101FF00060680BF0B9FF0028F2D101220B4B1D6085
:102000000B4B1A600B4A136801331360CEE7C046CE
:10201000F437011064940220C42901200C2A012005
:10202000AC7202201C0E0120002F0110442B012055
:10203000482B01201C2B012010B500211F4804F063
:10204000FDF90221082003F0CDFA0221092003F056
:10205000C9FAE1211A4C4902200004F02DFEC022E9
:10206000236B12021340174A152013601023E26AF3
:1020700015491340154A136003F0DEFB01211520BA
:1020800003F0A2FB5023A363626B183B1340104A7A
:102090001048136007F0DAFE07F0AEFF0220FEF7EB
:1020A000B5F9642004F0E2F90220FEF757F90023A5
:1020B000094A1370094A136010BDC04640420F0020
:1020C0000080034030900340B11600102C90034074
:1020D00034900340082F011064940220C429012089
:1020E000F0B557464E464546DE460023E0B5394F2B
:1020F00087B003AD2B703B18DB7982460222364E47
:102100007F2B5BD83000354907F044FD534601333F
:1021100098460424324A334B91469B46B844042CDB
:1021200011D0434649461A5D280006F0C3FC300032
:102130000BF066FF290030180BF0CAFE631C24D098
:10214000013C042CEDD153460533FA5C5946120983
:102150002800019306F0AEFC30000BF051FF29007F
:1021600030180BF0B5FE02221F4907F013FD0F22B5
:10217000019B5946FB5C28001A4006F09BFC290095
:1021800030000BF0C9FE013CDBE70322174907F0E2
:1021900001FD06225744BA56002A14DB494628009E
:1021A00006F088FC290030000BF0B6FE300007B0C6
:1021B0003CBC90469946A246AB46F0BD30000C4967
:1021C00007F0E8FCA2E728000A49524206F072FC38
:1021D000E8E7C0465C490120E0620220482E011079
:1021E000802B0110282F0110942B0110302F01108B
:1021F000242F0110342F01100023F0B50024324E9B
:10220000324D334F91B033702200390006A806F0EA
:1022100051FC06A930000BF07FFE2800FFF760FF9D
:102220000134010030000BF077FE08350A2CEBD1A9
:10223000284B294C1A68294B1968294B0493294BC0
:10224000180016380290180003932C38423B019076
:1022500000932000330006F02DFC20000BF0D0FE90
:10226000214A224E1060224A0300126830002149A0
:1022700006F020FC3478002C18D01F4B30000225CB
:102280005D5F202100230D261C4A002B10D1A542A2
:1022900015D093691942FCD11460037801300D3BCD
:1022A0005C4263410478DBB2002CEED111B0F0BD8A
:1022B00093691942F0D093691942F9D1ECE7936917
:1022C0001942FCD11660E4E724570220FF200000E9
:1022D0003C2F01103425012008630220040E012048
:1022E000649402203E490120902A0120409C022053
:1022F00018250120482F01105C9E02200080034019
:10230000F8B557464E464546DE463A4BE0B59C4644
:102310001860394B04001960384B0F009A460023AF
:1023200052461360364B994601234A461360354B9B
:102330001860354B98461E68002846DD32000021A3
:102340000023324D324807E0E95C013CC154013AB8
:1023500001210133002C1CD0002AF5DC002932D0E9
:102360005246E9181360F61A63461C60294C771C24
:102370003A00200007F00EFC3A002100280007F088
:1023800009FC43461E603CBC90469946A246AB46BB
:10239000F8BD51460B6041460A606246F61A146069
:1023A000721C92461B4CE918200007F0F3FB5246C2
:1023B0002100280007F0EEFB43461E6000234A463A
:1023C0001360B847DFE72900D0E7731C9B46114B29
:1023D0000E4D9A4618005A46290007F0DBFB5A4674
:1023E0005146280007F0D6FB43461E60002CE5D07E
:1023F000C9E7C046DC24012060940220A8720220B4
:10240000EC240120282A0120C42901206494022000
:102410006C4B0220AC720220F0B5C646502102205F
:1024200000B5FEF761FE114C1149200001F02AFBB6
:10243000002802D104BC9046F0BD0E4E0E4B0F4F4B
:102440001968336838005D1A6B1C98461A00091920
:1024500007F0A0FB39004246200007F09BFB084B29
:10246000084958683560FFF74BFFE3E764940220A2
:102470000C2E0110C42901200C2A0120AC7202206C
:10248000089D02202D170010F0B5C64650210220ED
:1024900000B5FEF729FE114C1149200001F0F2FAB7
:1024A000002802D104BC9046F0BD0E4E0E4B0F4FDB
:1024B0001968336838005D1A6B1C98461A000919B0
:1024C00007F068FB39004246200007F063FB084B29
:1024D000084918683560FFF713FFE3E764940220AA
:1024E0005C2F0110C42901200C2A0120AC720220AB
:1024F000089D02201D19001070B51B480BF080FDCF
:102500001A4C1B4B020018601A49200006F0D2FA40
:102510002278002A18D0184B200002255D5F202465
:1025200000230D261549002B17D1954210D08B6939
:102530001C42FCD10A60037801300D3B5A425341E2
:102540000278DBB2002AEED101220D4B1A6070BD79
:102550008B691C42FCD10E60E9E78B691C42E9D013
:102560008B691C42F9D1E5E708630220409C0220F8
:10257000902A01206C2F01105C9E022000800340F5
:10258000E82A012010B51C220349044807F002FB89
:10259000FFF7B2FF10BDC046802F01100863022074
:1025A00010B5064B06495A681B680648CA540649C6
:1025B00006F080FAFFF7A0FF10BDC046089D02207C
:1025C0005C490120086302209C2F01104C4AF0B5A1
:1025D0001368454659424B4101215B428B43180029
:1025E000484BDE46984657464E46546800234246BE
:1025F000E0B597B0137003AF02AA1375A3303B0088
:1026000010222100019001F06FFC80239C46A4441D
:1026100063460093002399463B4B9B460F239A4603
:1026200010E0403902AB5B181A700023013102AA96
:10263000521807A80CA913700BF06EFC009B013414
:10264000A34229D0554653462540234242D0012378
:102650009C464E46E144BA5D59460CA806F02AFA5B
:1026600040460BF0CDFC0CA940440BF031FC682136
:10267000BA5D264B05009B5C8B43D2D107A80BF0BB
:10268000BFFC07AB9C4602222149604407F082FA56
:10269000009B0134A342D5D1022228001D4907F036
:1026A00079FA07A9A81C0BF013FC03221A490400AD
:1026B00007F070FA4346E21A41460332174807F022
:1026C00069FAFFF719FF17B03CBC90469946A2463D
:1026D000AB46F0BD230007AA11490CA806F0EAF9A1
:1026E0000CA940460BF018FC02AB1D7510223B00F4
:1026F0002100019801F0F8FB012300269946AAE782
:10270000089D022024570220442E0110C5430110C9
:10271000942B0110A83A01102C32011008630220FA
:10272000B02F011000B50A4B0A4985B0029119007B
:102730002C31019119001A001631163A0091064801
:10274000064906F0B7F9FFF7D7FE05B000BDC04651
:10275000124901206494022008630220BC2F01105A
:1027600010B50C4C82B0A268206801AB1A704242CE
:1027700050410122404290436168A33001F0D4FBF4
:10278000236862680449054806F094F9FFF7B4FE2F
:1027900002B010BD089D02209C2F0110086302208A
:1027A000F8B5CE46474680B56D4A1378002B04D164
:1027B0006C4B6D4A1B789B009A586C4C6C492000FE
:1027C00006F078F96B4E210030000BF081FB05001C
:1027D00004226949200007F0DDF9042221002800C5
:1027E00007F0D8F9654F3B68002B17DD644B0025D7
:1027F0009946644B98464B461B68581980B2FEF7C1
:1028000077FD41460200200006F054F92100300017
:102810000BF082FB3B680135AB42ECDC5A4D5B4967
:102820002A88200006F046F9210030000BF074FBE6
:10283000AA885749200006F03DF9210030000BF02E
:102840006BFBAA795349200006F034F921003000CF
:102850000BF062FBEA795049200006F02BF92100C9
:1028600030000BF059FBEB79AA794C49200006F0B7
:1028700021F9210030000BF04FFB6A884849200005
:1028800006F018F9210030000BF046FB4549464B95
:1028900008682A7A186088889880897999714349EC
:1028A0000878FF2835D0104241D18878FF2830D0F1
:1028B00010423FD10879FF282BD010423DD18879B2
:1028C000FF2826D010423BD1087AFF2821D01042A1
:1028D00001D0487A1871887AFF281AD0104201D0A6
:1028E000C87A5871087BFF2813D010422BD1887BFF
:1028F000FF280ED0104229D1087CFF2809D01D00E6
:10290000104226D0487C0135E871887C0231FF28CE
:10291000F6D12000264906F0CDF8210030000BF05A
:10292000FBFAFFF7E9FD0CBC90469946F8BD4878E4
:102930001870BAE7C8785870BCE748799870BEE755
:10294000C879D870C0E7487B9871D0E7C87BD87148
:10295000D2E7887C01350231FF28D1D1D9E7C046C2
:102960002C2A01205D4A02209C09002024570220C5
:10297000D82F011008630220DC2F0110604A0220CA
:10298000684B0220E02F0110E0480120E82F0110E1
:10299000F42F0110003001100C300110183001101C
:1029A0002830011048300110100E0120500900207D
:1029B0003430011070B51A480BF022FB194C1A4B39
:1029C000020018601949200006F074F82278002AE5
:1029D00018D0174B200002255D5F202400230D2610
:1029E0001449002B14D195420DD08B691C42FCD1A7
:1029F0000A60037801300D3B5A4253410278DBB242
:102A0000002AEED170BD8B691C42FCD10E60ECE750
:102A10008B691C42ECD08B691C42F9D1E8E7C046B7
:102A200008630220409C0220902A01204C2E0110B5
:102A30005C9E02200080034000B5094A094909CA8A
:102A4000094A83B01354094A096812680190009337
:102A50000748084B06F02EF8FFF7ACFF03B000BDA7
:102A6000089D02200C0E01205C4901203425012024
:102A70000863022050300110F0B54E46DE4657463E
:102A80004546E0B593B000236A46384E1373337061
:102A9000374B00249846374B9B46374B9A46374B6B
:102AA00099460FE06B4648395B181A706A46002356
:102AB0000131521803A808A9013413700BF02CFA45
:102AC000802C26D00F231D00254023423FD04346B3
:102AD00059461A5D08A81F1905F0ECFF30000BF0ED
:102AE0008FFA08A930180BF0F3F968213A78244BD3
:102AF00005009B5C8B43D5D103A80BF081FA03AB97
:102B00009C4602221F496044013407F043F8802CA0
:102B1000D8D1022228001C4907F03CF803A9A81CC0
:102B20000BF0D6F90322194907F034F8184B19486D
:102B30001A68194B1968330005F0BCFFFFF73AFF1C
:102B400013B03CBC90469946A246AB46F0BD5346F6
:102B5000494603AA009408A805F0ACFF300008A974
:102B60000BF0DAF96B461D73B1E7C046245702201B
:102B70005C490120442E01105830011060300110D2
:102B8000C5430110942B0110A83A01102C320110FA
:102B90003425012008630220080E012010B50F4CD7
:102BA00084B0A268206803AB1A70424250410122EF
:102BB000404290436168A33001F0B6F9084B0948E0
:102BC0001A68094B196863680193A3680093074B5F
:102BD00005F070FFFFF7EEFE04B010BD089D022067
:102BE00034250120086302200C0E01206C300110F6
:102BF000F0B55746DE464E4645460023E0B5354F14
:102C000095B002AA3B70137380339B46324B04008D
:102C10009946324B03919A460F23834498460FE01E
:102C2000483902AB5B181A700023013102AA52180E
:102C300005A80AA9013413700BF06EF95C4526D083
:102C4000454643462540234235D04B4651461A5D02
:102C50000AA81D1905F02EFF38000BF0D1F90AA9BA
:102C600038180BF035F968212A781D4B06009B5C5B
:102C70008B43D5D105A80BF0C3F905AB9C460222C6
:102C800018496044013406F085FF5C45D8D1022222
:102C90003000154906F07EFF05A9B01C0BF018F9AD
:102CA0000322124906F076FF15B03CBC90469946C7
:102CB000A246AB46F0BD039B0D4905AA00940AA8A5
:102CC00005F0F8FE38000AA90BF026F902AB1D73D7
:102CD000BBE7C046245702205C490120442E011066
:102CE000C5430110942B0110A83A01102C32011099
:102CF00060300110084B10B518680849FFF778FFDD
:102D0000074B08481A68084B1968084B05F0D2FEB3
:102D1000FFF750FE10BDC046089D0220583001103C
:102D20003425012008630220080E012024570220C8
:102D300010B5064B06491868FFF75AFF05490648C3
:102D400005F0B8FEFFF7D8FB10BDC046089D022075
:102D50002C320110245702200863022010B52E4B9C
:102D6000020019682D480160998881809B798371E0
:102D70002B4B1978FF2935D00A4234D19978FF2995
:102D800030D00A4232D11979FF292BD00A4230D1F2
:102D90009979FF2926D00A422ED1197AFF2921D00C
:102DA0000A4201D0597A0171997AFF291AD00A4250
:102DB00001D0D97A4171197BFF2913D00A421ED163
:102DC000997BFF290ED00A421CD1197CFF2909D01A
:102DD00004000A4219D0597C0134E171997C023314
:102DE000FF29F6D110BD59780170C7E7D978417035
:102DF000C9E759798170CBE7D979C170CDE7597BA3
:102E00008171DDE7D97BC171DFE7997C0134023341
:102E1000FF29DED1E6E7C04648300110100E012040
:102E200050090020F0B5DE4657464E464546002381
:102E3000E0B587B0C64C0593C64B20681B6883423B
:102E40000BD01122C44B9A56597C002A05DBC34A89
:102E5000157A10222A4200D1FAE0C14B9A461B682B
:102E6000012B00D1CDE0BF4B0A211A6801321A6054
:102E7000186805F0B1FE00290CD1BB4C2368002B6B
:102E800000D098E020210320FEF72EF923685A4253
:102E900053412360B54DB64E2A6833689A421BD021
:102EA000B44BB54F9946B54B9846202304AA1380DE
:102EB0002B68B3495A1C2A60FC5C04ABE4B2286856
:102EC0001C7005F089FE2960142C79D0002C63D188
:102ED0002A6833689A42E8D1AA4B1C68002C00D0BB
:102EE000C8E0A44BA84A99461B78D35C1B071FD5A2
:102EF000A24B4F469A461D68A44B984601234B446B
:102F00009B465346A2461C002A005946404606F0FE
:102F100041FE2A004146380006F03CFE9A4A3B78C2
:102F20006E1ED35C0822350026601A42ECD154464E
:102F3000974D0DE0022B07D12000AB689847002881
:102F400002D02000EB68984701341035262C0CD0B5
:102F50002B78012BEED14846696800F093FD0028DC
:102F6000EFD101341035262CF2D18A4B1A68002A91
:102F700040D0894E3268002A00D0D9E0874C884D75
:102F80002068420011188900695C062900D9BAE05E
:102F9000844F890079588F46484604A90AF0BCFF3F
:102FA000434642461B68013313602A6833689A42DD
:102FB00000D07AE790E703205731FEF795F865E7F0
:102FC00053461B680321581C05F006FE5346764DF8
:102FD0000C0019600C222800744906F0DBFD012C5E
:102FE00000D193E0022C00D19CE0002C00D193E0B2
:102FF000FFF782FA07B03CBC90469946A246AB4622
:10300000F0BD6B4B1C68002C00D02CE7694B1E6890
:10301000694B196899468E4200D124E7674B7F2798
:103020009846614D2C70013D4346481C5B5CFA217B
:1030300001343B402B55890005F0CEFD8E42F3D183
:103040004B461E60002301352B55FFF755FA0AE762
:103050000A4200D101E7FA21594A8900125C013085
:103060009A7405F0B9FD2160FEF730F85548FEF777
:10307000C9FAF2E6544B99461B68002B2DDD3F4AF6
:103080003C4E14680293E31A0193731C92469B46CC
:103090003E4F0394002CADDD3378220059463800B2
:1030A000984606F077FD22003900300006F072FDE8
:1030B0005346464A651E1D601368591C11604146FF
:1030C000434AD154029B039A013B9B1A4A461B195F
:1030D0001360019A2C00AA42DCD1002B00D089E7B2
:1030E000284A13603B4B1B68984783E713189B00E3
:1030F000EB189B689847206843001B189B00EB5C0B
:10310000042B00D176E70130206073E710222800FD
:10311000314906F03FFD6BE7092228002F4906F0F0
:1031200039FD65E70E2228002D4906F033FD5FE7E3
:1031300003F08AFA2B4A53688B4200D95AE703D12D
:103140001368834200D955E70023336052E7C04635
:10315000D4240120D02401205C490120E048012032
:10316000CC23012034250120180E0120DC29012068
:10317000D8290120649402207C7A0220C4290120ED
:1031800088130000EC240120C5430110AC7202201A
:10319000F4370110482B0120402B0120442B012043
:1031A0001C0E0120B03001100863022074300110A1
:1031B000E82A0120E0240120E42401203C530220DD
:1031C000F45E0220F0FF0000DC240120A87202203F
:1031D0006C4B0220609402208C3001108030011072
:1031E0009C300110C81F0120414D2F78002F8AD03C
:1031F000404B0D2102269E5F002398468C462022DC
:1032000041463D4B00290FD1BE4214D099690A4274
:10321000FCD11F60297801350D394F4279412F7853
:10322000C9B2002FEED16EE799690A42F1D09969CF
:103230000A42F9D1EDE799690A42FCD16146196069
:10324000E4E700221A60D5E62C4B984613189B0041
:10325000EB1805AA414658680AF09AFD012333602D
:1032600003F0F2F9059A53019B1A9B009B18DB00AF
:103270001E00DF1780197941214B186059604146C3
:10328000204805F017FC36E713181F4F9B00EB187A
:103290003800596805F00EFC3E78002E00D12AE770
:1032A000144B380002229B5E002120220D279C46F1
:1032B000114B00290FD1B44514D099690A42FCD1B1
:1032C0001E60017801300D394E4271410678C9B255
:1032D000002EEED10FE799690A42F1D099690A42AE
:1032E000F9D1EDE799690A42FCD11F60E5E7C046D4
:1032F000086302205C9E022000800340AC30011075
:10330000C81F012048940220409C0220F0B5C64608
:1033100000B5954D82B02B68002B1CD1934C2368CF
:10332000002B00D07CE0924C2368002B00D090E072
:10333000904C2368002B00D0A2E08F4C2368002B18
:1033400000D0B4E08D4D2B68002B00D0E9E002B036
:1033500004BC9046F0BD002398466B46424601AC43
:103360001A7001216A46DE2000F024FB802622002C
:103370000121DF2000F066FA42462378764233438B
:10338000227002212200DE200D27637000F012FB64
:103390006B466A460121DE201F7000F00BFB220005
:1033A0000121DF2000F04EFA23782200334302216E
:1033B000DE206370277000F0FDFA6B466A4601213B
:1033C000DE201F7000F0F6FA22000121DF2000F05D
:1033D00039FA237822001E430221DE20667027700E
:1033E000072600F0E7FA6B466A460121DE201E70D0
:1033F00000F0E0FA22000121DF2000F023FA7F2311
:10340000227802211340DE2022006370267000F033
:10341000D1FA4346554C2B602368002B00D182E73C
:103420006B4600256A460121DE2001AE1D7000F0CA
:10343000C1FA32000121DF2000F004FA7F23327844
:10344000256013404A4C4E4A13602368002B00D17C
:103450006EE701236A460121DE2001AD137000F002
:10346000A9FA2A000121DF2000F0ECF9454B2A7867
:103470001A60002323603F4C2368002B00D15CE7D7
:1034800002236A460121DE2001AD137000F092FA9A
:103490002A000121DF2000F0D5F93B4B2A781A6081
:1034A00000232360344C2368002B00D14AE76B468D
:1034B00000266A460121DE201E7000F07BFA012101
:1034C00001AADF2000F0BEF96B461A797F232F4D49
:1034D00013402F4A0121AB5401236A46DE201370AA
:1034E00000F068FA012101AADF2000F0ABF96B4679
:1034F0001A79284B0121EA5402236A46DE20137010
:1035000000F058FA01AA0121DF2000F09BF96B4678
:103510001A79214B2660EA54184D2B68002B00D1F4
:1035200015E70027194E1A4B01ACF35C220002216B
:10353000DE206370277000F03DFA0122154B022156
:10354000F35CDE2022702200637000F033FA022266
:10355000114B0221F35CDE2022702200637000F028
:1035600029FA2F60F3E6C046D42A0120B42A0120AC
:10357000B02A0120AC2A0120D82A0120D02A01201B
:10358000CC2A0120C82A0120C42A01205C4901203C
:10359000CA200000C9200000C8200000014B1860AC
:1035A0007047C046341001200123154A84B01268C8
:1035B00093400192D0221206536293610023039339
:1035C000039B042B05DC039B01330393039B042B18
:1035D000F9DD01230B4A126893400192D0221206B2
:1035E0005362936100230293029B042B05DC029B30
:1035F00001330293029B042BF9DD04B07047C046EF
:10360000702B01106C2B011001221B4B86B01B6824
:103610009A400193D0231B065A629A6100230593B6
:10362000059B042B05DC059B01330593059B042BAF
:10363000F9DD0123114909688B400191D021090668
:103640008B6200230493049B042B05DC049B013351
:103650000493049B042BF9DDD0231B069A620023FC
:103660000393039B042B05DC039B01330393039B10
:10367000042BF9DD06B07047702B01106C2B011084
:10368000012170B50C00324BD0221B6808259C40EC
:10369000304B00261B6888B099400193120643B254
:1036A000002B51DB546294610596059B042B05DCCD
:1036B000059B01330593059B042BF9DD916204966C
:1036C000049B042B05DC049B01330493049B042B13
:1036D000F9DD516291610396039B042B05DC039B8A
:1036E00001330393039B042BF9DD4000013DC0B27D
:1036F000002DD4D1D0231B069C6299620695069BAF
:10370000042B05DC069B01330693069B042BF9DD95
:10371000D0206423000602E0013B002B16D0426853
:103720002242F9D10120D0231B065962996100235E
:103730000793079B042B05DC079B01330793079B2B
:10374000042BF9DD08B070BD9462ADE70020EAE714
:10375000702B01106C2B0110F0B50125374B47463B
:10376000884619682B00D0228B40CE46120680B5C1
:1037700099469362324B84461B6808279D4000247B
:103780000026012089B001930596059B042B05DCDA
:10379000059B01330593059B042BF9DD9562049687
:1037A000049B042B05DC049B01330493049B042B32
:1037B000F9DD53686400CB40556203409561039680
:1037C0001C19039B042B05DC039B01330393039B10
:1037D000042BF9DD013F002FD6D14346002B28D022
:1037E000D0234A461B065A629A61D0231B069D626B
:1037F00000230793079B042B05DC079B01330793EA
:10380000079B042BF9DDD0231B065D629D6100231D
:103810000693069B042B05DC069B01330693069B4F
:10382000042BF9DD63461C7009B00CBC9046994628
:10383000F0BDD0234A461B069A62D6E7702B0110D2
:103840006C2B0110F0B546464F46D6460123C0B555
:103850001700564A8AB012680E0093409846D0234B
:10386000019242461B065A629A6100230293029B10
:10387000042B05DC029B01330293029B042BF9DD30
:1038800001234B4A126893409946D02301924A463D
:103890001B065A629A6100230393039B042B05DCE9
:1038A000039B01330393039B042BF9DDFFF7E8FE31
:1038B000002846D0002E0FDD731E9A46002406AD68
:1038C0005346191B4B1E99412800FFF745FF2B78E3
:1038D0003B550134A642F3D1D02342461B065A621F
:1038E0009A6100230793079B042B05DC079B013398
:1038F0000793079B042BF9DDD0234A461B069A62E7
:1039000000230893089B042B05DC089B01330893D4
:10391000089B042BF9DDD02342461B069A62002344
:103920000993099B042B05DC099B01330993099B2F
:10393000042BF9DD01200AB01CBC90469946A24632
:10394000F0BDD02342461B065A629A610490049B44
:10395000042B05DC049B01330493049B042BF9DD49
:10396000D0234A461B069A6200230593059B042B2D
:1039700005DC059B01330593059B042BF9DDD02362
:1039800042461B069A6200230693069B042BD2DC58
:10399000069B01330693069B042BCCDC069B01336C
:1039A0000693069B042BF3DDC5E7C046702B011080
:1039B0006C2B0110F0B50125304B89B01B680F004E
:1039C0009D400193D0231B065D629D6100230393FC
:1039D000039B1400042B05DC039B01330393039B1F
:1039E000042BF9DD0126264B1B689E400193D02352
:1039F0001B065E629E6100230493049B042B05DC7E
:103A0000049B01330493049B042BF9DDFFF738FE7C
:103A1000002F06DDE71920780134FFF731FEA742B9
:103A2000F9D1D0231B065D629D6100230593059BA0
:103A3000042B05DC059B01330593059B042BF9DD65
:103A4000D0231B069E6200230693069B042B05DCF5
:103A5000069B01330693069B042BF9DDD0231B063E
:103A60009D6200230793079B042B05DC079B013312
:103A70000793079B042BF9DD09B0F0BD702B0110F3
:103A80006C2B0110F0B54546DE4657464E460024E5
:103A9000E0B50D00BF4B93B01C60BF4B01911C60A3
:103AA000BE4B07003C220021BD4898461C6006F032
:103AB0006BF8BC4B1C701C752B78002B5ED0002261
:103AC0000292B94A002400269346390000970978EB
:103AD0003200002918D0202B21D0252B32D00136DE
:103AE0000134994213D1434642461B6801331360A7
:103AF000019B02941B5D002B40D0BA19110009787C
:103B0000009232000029E6D1202B00D1B7E100203D
:103B100013B03CBC90469946A246AB46F0BDA34BC1
:103B200001345B5C1B07E3D5434608211868454612
:103B3000013683199B1A2B60BB5D9C4DEB5C1942CF
:103B4000F5D1D5E7019B621C994618009B5C914416
:103B5000002B00D1B0E15B2B7DD011D8252B72D189
:103B600001362529D3D1434642461B68023401332E
:103B70001360019B02941B5D002BBED10120C7E79F
:103B8000642B01D0782B5ED101220020874D00925A
:103B90001FE0782BBBD14421BB5DEA5C114200D110
:103BA00075E1202206A98A800B71102203010021F1
:103BB00007A89A460AF018FC5044434642461B6840
:103BC000013601331360BB5D002B00D136E14B465B
:103BD0001B78642BDDD1754ABB5DD15C04220A429F
:103BE00022D12D2B00D121E1002E00D18FE7BB196E
:103BF000013B1B786D49C95C0A4202D12D2B00D0D4
:103C000085E7644B63491B685A1C0A6000999B0056
:103C1000414308006249C8500E2A00DD43E10234E6
:103C2000019B02941B5D66E7202206A98A800B7126
:103C30002D2B0CD083001818430007A89A4609F0D2
:103C40001DF85044B9E71400009902923FE70123A0
:103C50005B420093B1E7504B00221B6851499A46E2
:103C60009B00029353449B00CA54019B1B199A78F2
:103C7000002A00D14BE70198023406A9002307313E
:103C8000001908E0262B00D141E70133CA54C25C79
:103C9000002A00D13BE7E5185D2AF3D10595262BD4
:103CA00000D134E7002208ACE254E3185A705B46B6
:103CB00020001A600AF0A4F9002822D00023012570
:103CC0000396049714E05E1CA15D2D2972D05B461B
:103CD000374F1B68B9465900C9188900CD5549446A
:103CE0004A608A605A46013313603300834206D229
:103CF000E25C5E2AE7D1013302258342F8D3039EBA
:103D0000049F009B1A78002A3AD02649029B8946D4
:103D100053449B0099445B461D683B0007AC5746E3
:103D20009A4619E059688A4202DB99688A4220DD86
:103D3000022F00D1EBE60023210048466370227079
:103D40000AF0EAF8434642461B6801360133136025
:103D500053469A5D002A11D0002D0EDD0020144B31
:103D600019780129DED159688A4202DB99688A42B2
:103D7000DEDD01300C33A842F2D15346BA461F00B3
:103D80005346054A059C013313600134019B02949C
:103D90001B5DB0E6082A0120102A01200C2A012010
:103DA000089D0220349E0220142A0120C5430110E0
:103DB000449D02209E1CA75DB946002F25D15F4679
:103DC0005B463F681B68B9465B0099444B469B00C5
:103DD0009946EAB213004F463B4ABB544A445160ED
:103DE00091605A461268384F0132914652004A4457
:103DF000B9469200D3555B464A44516091605A4699
:103E00001B6802331360330070E759462E4F096870
:103E1000BC464E007618B600F555664472604A46B8
:103E2000B2605A460131116003335FE7202107AACF
:103E30001180137001235B420093BEE6019A029B3E
:103E4000944663449B78002B00D060E61F4B1F49CB
:103E50001B685A1C0A6000999B00414308001C49DA
:103E6000C85001200E2A00DC52E61A4B1A490020E5
:103E700019606146194B1960194B1A6048E6029A9D
:103E8000019B9446634458784342584140E6002ED3
:103E900000D13CE64422BB19013B1B78EB5C1A4283
:103EA00000D0AEE633E60B4B0B4919600B4B019982
:103EB00019600B4B1A602AE6064B0A4A1A60074B38
:103EC0001860002024E6C046449D0220082A0120F4
:103ED000089D022038100120543A01103C100120A6
:103EE000042A0120603A0110F0B5040083B00D48A7
:103EF0001F0016000D0006F0FFF80F20FFF74EFB25
:103F0000FE2001AA6DBA158020400221FFF752FD64
:103F1000012020433A003100C0B2FFF793FC03B008
:103F2000F0BDC0467C3A0110F8B5070012480E00FB
:103F300015001C0006F0E0F80F20FFF72FFBFFF73D
:103F400033FBFE203840FFF79BFB3012C0B2FFF777
:103F500097FBF0B2FFF794FB002D06DD6519207882
:103F60000134FFF78DFBAC42F9D1FFF74DFB042084
:103F700002F07CFAF8BDC0467C3A0110F8B53B4B24
:103F80004E4699468422574645460023DE4649461A
:103F9000FF32E0B58B54013A8B54354B4C469A4670
:103FA00080235B02CB4600250027984680345B4681
:103FB0001A780133BF18BFB2A342F9D18022290079
:103FC000504606F099F80F20FFF7E8FAFFF7ECFAF1
:103FD000A020FFF755FB2812C0B2FFF751FBE8B253
:103FE000FFF74EFB5E4630780136FFF749FBA642ED
:103FF000F9D1FFF709FB042002F038FA80233400DE
:104000009C468035E34480344545D0D1194BC124CA
:104010001F8084254B463A0A640021001A55FF355B
:10402000022250465F5506F067F80F20FFF7B6FAF8
:10403000FFF7BAFAA020FFF723FB0120FFF720FBD0
:104040008220FFF71DFB4B46185DFFF719FB4B461F
:10405000585DFFF715FBFFF7D7FA042002F006FAC8
:104060003CBC90469946A246AB46F8BD5C4901204F
:104070007C3A01104C2B01208022F0B5274C94464D
:10408000230057464E464546DE466344E0B5994612
:104090001E0000239846224B00259B4680235B028E
:1040A0009A4683B001AF80224146584606F024F874
:1040B0000F20FFF773FA43463A000221A0205BBAB3
:1040C0003B80FFF777FC22008021A120FFF7BAFB9D
:1040D00023780134ED18ADB2A642F9D180239C4675
:1040E000E0444C468036D04501D0E144DBE7C123B3
:1040F0000A4A5B00D35C84220849FF32895C1A02B9
:104100005B18ED1A0748084B8A1802801D8003B01F
:104110003CBC90469946A246AB46F0BD5C490120A6
:104120007C3A0110502B01204E2B0120002301214D
:10413000034A1360034B19601368002BFCD07047CF
:10414000B0250120A825012010B51C4C2368002BA8
:1041500004D11B4C2368002B19D110BD0121012073
:10416000184AFCF759FDFCF7C9FF00232360FFF74D
:1041700005FF0122144B01211A600320134AFCF7AA
:104180004BFDFCF7BBFF0E4C2368002BE5D0012153
:1041900001200F4AFCF740FDFCF7B0FF002323602D
:1041A000FFF76AFF01220B4B01211A6003200A4A24
:1041B000FCF732FDFCF7A2FFCFE7C046A82501209F
:1041C000AC250120943A0110B0250120A03A01103D
:1041D000AC3A0110B4250120BC3A01107047C0462A
:1041E0000120034B03491A68126808601A6070477F
:1041F000401001201C2A01200122034B1A60034BAE
:10420000034A1A607047C0461C2A01204010012052
:10421000581001200122034B1A60034B034A1A6015
:104220007047C0461C2A0120401001209410012034
:104230000122034B1A60034B034A1A607047C046C1
:104240001C2A012040100120DC1001200122014B1A
:104250001A607047D82A01200122014B1A6070476A
:10426000D02A0120F8B5FCF79FFD00210020264A46
:10427000FCF7D2FC0025254C254F264E05E0002BEF
:104280003BD0237835606F2B23D0FCF78DF93D228E
:1042900001210220FCF778FC012103202278FCF7A1
:1042A00073FC3B680A2B18D00C2BE8D1202201218B
:1042B0000520FCF769FC202201210620FCF764FCA4
:1042C000722201210720FCF75FFC237835606F2BF9
:1042D000DBD10122104B1A60F8BD202201210520FC
:1042E000FCF752FC522201210620FCF74DFC202253
:1042F00001210720FCF748FCC3E7442201210520E7
:10430000FCF742FC2022EEE7CC3A01105E2B0120A4
:10431000E42A0120BC2501201C2A012010B5FCF74D
:104320003BFE10BD802110B55022A320024B490155
:10433000FFF7FAFD10BDC0465B6A012084221121FF
:1043400010B50E4BFF3299547231FF315A5CA020E8
:1043500001325A545B180222FFF7E6FDFCF724FDF8
:10436000074A00210020FCF757FCFCF71DF905481F
:1043700002F07CF80122044B1A6010BD5C49012058
:10438000DC3A0110B80B00001C2A0120802110B576
:104390005022A320024B4901FFF7A6FD10BDC046E5
:1043A0005B6A012000B595B06B4650220649A120FA
:1043B000FFF79AFD80216B4650224901A220FFF7AA
:1043C000B3FD15B000BDC046FF200000F0B5DE46CD
:1043D000454657464E46E0B585B0FCF703FB002541
:1043E00000242000012229000134FCF73FFB792C36
:1043F000F7D10A35282DF3D1002500242100012210
:1044000028000134FCF732FB1F2CF7D10A35822D2E
:10441000F3D1FA20C00002F029F8FCF7E3FA0023F8
:104420009B468C4B01270193029301239A46023B42
:10443000984699463B009D245F4600269B46864D44
:104440006400390030000022FCF710FB4146504662
:104450000022FCF70BFB594650460022FCF706FBF6
:10446000414648460022FCF701FB594648460022D7
:10447000FCF7FCFA029B019A9C46A44463469446CE
:10448000AC4462463100019274483A00029305F050
:1044900033FE6421029804F09FFB6421060001981A
:1044A00004F09AFB0122070001003000FCF7DEFA5D
:1044B000711C8A460122791E50468846FCF7D6FABE
:1044C000791C012250468B46FCF7D0FA711E8946B2
:1044D000012241464846FCF7C9FA5946012248469E
:1044E000FCF7C4FA029B5E498B423BDDE004001BF3
:1044F0008000001BC00000198001001B8000001B11
:10450000584904F069FBC823019A04001B019A4230
:1045100059DDE804401B8000401BC0004019000129
:10452000401BC00040194F49400004F055FB4C4B64
:1045300005000293C8231B010193FCF735F84A4B91
:104540001B680393002B00D17BE70023464A1360CE
:10455000464B1B786F2B71D0722B6DD06C2B66D1B4
:10456000643C6EE7019B1A00C8231B019A4245DD9B
:10457000E804401B8000401BC00040190001401BA4
:10458000C00040193749400004F026FB029B05009B
:104590001A0096235B009A4257DAE004001B800061
:1045A000001BC00000194001001B800000192D49AC
:1045B000400004F011FB96235B000293C8231B010B
:1045C00004000193B9E7264B0293019B1A0096233E
:1045D0005B009A42B1DAE804401B8000401BC00037
:1045E00040190001401BC00040191E49400004F062
:1045F000F3FA96235B00050001939EE7029B1A00E5
:1046000096235B009A42E0DAE004001B8000001B66
:10461000C00000194001001B800000191149400032
:1046200004F0DAFA96235B0004000293CDE7752BC1
:1046300000D006E7643504E7643402E705B03CBC0B
:1046400090469946A246AB46F0BDC8231B01019394
:1046500073E7C0468813000041020000E83A0110E9
:10466000D430000010270000BC2501205E2B012063
:104670007047C0467047C0467047C0467047C04646
:104680007047C046F0B5DE4657464E464546E0B553
:1046900099B0FCF789FB354B00249B46344B354FD2
:1046A0009A46354B354E9946354B08AD9846220013
:1046B0005946684604F0FEF96A4600210020FCF7DE
:1046C000ABFA2A230A2120002B7004F085FA21235B
:1046D0000A006B4451461800413204F0EBF93123D3
:1046E0006B4422004946180004F0E4F92B004022F4
:1046F000A101A220FFF718FCFCF756FB00210020C7
:104700002A78FCF7E7FA21236B441A0000210520E0
:10471000FCF782FA31236B441A0001210020FCF7D8
:104720007BFA404605F0E8FC2978380005F0E4FC07
:1047300021236B441900134805F0DEFC31236B4440
:104740001900114805F0D8FCFBF72EFF3368002B49
:10475000FAD0002301343360642CA8D119B03CBCDA
:1047600090469946A246AB46F0BDC046F03A0110CD
:10477000F83A0110183B0110FC3A0110BC25012049
:10478000103B0110243B0110303B01102A4BF0B5C7
:1047900057469A46294B4E469946294B45469846D8
:1047A000C823DE465B0100249B46E0B5254F264D1D
:1047B000264E91B06B4640222100A320FFF794FBC8
:1047C000FCF7F2FA6B4600211A780020FCF782FA17
:1047D0006B4600215A1C0520FCF71EFA11236B447E
:1047E0001A0001210020FCF717FA504605F084FC5E
:1047F0006B464846197805F07FFC6B464046591CCD
:1048000005F07AFC11236B441900380005F074FCA4
:10481000FBF7CAFE2B68002BFAD000232B603378FD
:104820006F2B02D040345C45C4D111B03CBC9046E3
:104830009946A246AB46F0BD103B0110183B011053
:10484000243B0110303B0110BC2501205E2B0120D0
:10485000F0B5DE464E4645465746E0B5A9B00023C2
:104860006A461370FCF7A0FA694B00211A00002079
:104870009946FCF7D1F96846FCF7F0FA654B00253C
:104880009846654B00249A46644B654E9B46FBF761
:104890008BFE336827001C43F9D04246002314786E
:1048A00033606F2C5CD0782C00D170E0002F65D085
:1048B0005C4805F021FC632D3DDC18AF02E00135BA
:1048C000642D38D03B00A9014022A320FFF70CFB48
:1048D00061236B441900684609F046FB0028EED1BD
:1048E0004022390008A805F055F9584605F004FCA7
:1048F000FCF75AFA4A4600210020FCF78DF92122E4
:10490000002105206A44FCF787F9312201210020AB
:104910006A44FCF781F900240135FBF745FE336852
:10492000002BFAD043461B7834606F2B4FD0782B86
:10493000F3D10124ABE7504605F0DEFB00236A46C5
:104940001370FCF731FA4A4600210020FCF764F9A5
:104950006A4600210520FCF75FF90025002496E750
:104960006A461278002A42D12F4B01321A6029B0D0
:104970003CBC90469946A246AB46F0BD684609F05D
:104980003FFB1D280ED90023002433607FE7254814
:1049900005F0B2FB002F00D08DE7244805F0ACFBFA
:1049A00000258AE7202318AF390068443B803C701B
:1049B00009F01EFBFCF7F8F94A4600210020FCF73D
:1049C0002BF96A4600210520FCF726F9DBE76B4648
:1049D0001C70FCF7E9F94A4600210020FCF71CF99D
:1049E0006A4600210520FCF717F901244FE76A46C3
:1049F0001370FCF7D9F94A4600210020FCF70CF9A6
:104A00006A4600210520FCF707F93C003FE7C04655
:104A10003C3B01105E2B0120743B01106C3B0110EC
:104A2000BC250120443B01101C2A0120543B0110ED
:104A3000F0B5D6464F4646464F4AC0B51368013BCF
:104A40001360002B0CD04D4C23680A2B39D00C2B53
:104A500021D0002B07D01CBC90469946A246F0BD41
:104A600003331360F7E78021454B464D1A88114008
:104A70002A8811431980444B08221868FBF74EFD21
:104A80002B68424A13605B00802B00D101232B600E
:104A90000A232360DFE73E4B1868FBF70DFD3D4B13
:104AA00080101860D7D13C4A1368002BD3D0013B4B
:104AB0001360002BCFD1394A23601360334A13604F
:104AC000C9E7334B1868FBF7F7FC324B80101860CE
:104AD000830608D56F22324B1A70304B6E3A1A603B
:104AE00000232360B7E7C306FAD00027274B000254
:104AF0001A680026104318602A4BBA469C4619686B
:104B0000254B98461D68284B99461A00002303E060
:104B100001330832232B11D01768B842F8D18842EC
:104B200005D00127002501000126BA46F0E70A2D2D
:104B3000EED001350A2D0BD00126E9E75346002BB4
:104B400001D063461960002ECAD043461D60C7E7F6
:104B50005246002A01D0624610600A224146DB001C
:104B60004B440A601A790E4B1A7001220B4B1A60E3
:104B70000C2323606FE7C046B8120120E42A01200D
:104B8000542B0120B4120120782B0110E8290120B8
:104B9000742B0110E0290120E4290120BC2501200B
:104BA0005E2B0120202501209C110120F0B5C64676
:104BB000294B00B598461B68002B25D1274B1A6856
:104BC000002A1ED000221A60254B1C68237B262B4E
:104BD00017D0244A002110782200183206E00C3247
:104BE00013000C3B1B780131262B0AD09842F6D1DA
:104BF0004B0059188900641863699847012342469D
:104C0000136004BC9046F0BD002342461360FCF7DD
:104C1000CBF8134E31680B7B262B1AD000250023CE
:104C2000114F5B199C0009190869FCF79DF933685D
:104C300001359C4664442069FCF710F93800FCF704
:104C40000DF96B0031685A1992008A18127B262AD6
:104C5000E7D18B689847B1E71C2A0120BC250120C9
:104C6000401001205E2B0120482E0110094B10B589
:104C70001A88094B1A60FCF72FFBFCF795F8002205
:104C8000064B1A60064B01321A60064B064A1A6040
:104C900010BDC046542B0120DC2A0120182A012017
:104CA0001C2A01204010012018110120F0B5D64621
:104CB0004F464646504AC0B51368013B1360002B6F
:104CC0000ED04E4C23680A2B3BD00C2B23D0002B4C
:104CD00009D0FFF76BFF1CBC90469946A246F0BD79
:104CE00003331360F5E78021454B464D1A88114088
:104CF0002A8811431980444B08221868FBF70EFCE0
:104D00002B68424A13605B00802B00D101232B608B
:104D10000A232360DDE73E4B1868FBF7CDFB3D4BD4
:104D200080101860D5D13C4A1368002BD1D0013BCC
:104D30001360002BCDD1394A23601360334A1360CE
:104D4000C7E7334B1868FBF7B7FB324B801018608E
:104D5000830608D56F22324B1A70304B6E3A1A60B8
:104D600000232360B5E7C306FAD00027274B0002D3
:104D70001A680026104318602A4BBA469C461968E8
:104D8000254B98461D68284B99461A00002303E0DE
:104D900001330832232B11D01768B842F8D188426A
:104DA00005D00127002501000126BA46F0E70A2DAB
:104DB000EED001350A2D0BD00126E9E75346002B32
:104DC00001D063461960002ECAD043461D60C7E774
:104DD0005246002A01D0624610600A224146DB009A
:104DE0004B440A601A790E4B1A7001220B4B1A6061
:104DF0000C2323606DE7C046B8120120E42A01208D
:104E0000542B0120B4120120782B0110E829012035
:104E1000742B0110E0290120E4290120BC25012088
:104E20005E2B0120202501209C1101201A4B70B51A
:104E30001A680A21501C186003F0CEFE174A002998
:104E400010D17B23D156164BC80F1860154B5C68E8
:104E50009D68DE681C601C695D609E60DC60186196
:104E6000002907DB7423D35C002B02D000220E4BF9
:104E70001A6070BD012CF5D13543F3D10A4803689F
:104E800001330360042BEDD108490C600B68002B43
:104E9000FCD10360E6E7C046F82A01205C49012006
:104EA000F42A012044100120FC2A01201C250120A5
:104EB0000022014B1A607047942A01200E4B10B556
:104EC00019680E4805F018F90D4B0E48196805F0E1
:104ED00013F90D4805F010F90C4805F00DF90C4CCC
:104EE0000C48218805F008F96388E279A1790A481D
:104EF00005F002F910BDC046A82A01200C3C0110A3
:104F0000C02A0120243C01103C3C0110503C0110FF
:104F1000E0480120643C0110703C011070B50D4C5C
:104F20000D48216805F0E8F80C4D0021280005F037
:104F3000E3F823681C00303C392B01DD573B1C0093
:104F40002100280005F0D8F8054B1A68110121430B
:104F5000196070BDEC290120903C0110983C0110B3
:104F6000942A0120A522A62170B5154B15489A5CFC
:104F70005E5C1202B618A72202319A5C5D5C1202D6
:104F8000AD18A92202319A5C5C5C1202A4180E4A88
:104F90000E499A5C595C12028918B6B289B205F0C2
:104FA000ABF8ADB231000A4805F0A6F8A4B229006A
:104FB000084805F0A1F82100074805F09DF870BDEC
:104FC0005C490120A03C0110652000006620000023
:104FD000B03C0110C03C0110D03C011070B50A205B
:104FE00004F0E2FE0B4C0C4E25003935FF356268AB
:104FF00013782A2B03D03000217805F07DF80C348B
:10500000AC42F4D1054805F077F80A2004F0CCFE54
:1050100070BDC046BC120120E03C0110EC3C011008
:10502000F0B5DE4657464E4645468022E0B5284C50
:105030000021A5440AABD200A320FEF755FF0A20A9
:1050400004F0B2FE002302AF3B70224B00249946CD
:10505000214B0AAE9846214B9B46214B9A460EE0C7
:105060002A005146684603F025FD6946380008F0DD
:1050700053FF802301340136DB009C421DD00723FF
:105080001D00254023420DD035784846290005F003
:1050900033F8434668225B5D9343E1D12E236A4691
:1050A0001380E2E73900584605F026F802AF2100E8
:1050B0000C483D7005F020F8E6E70A2004F074FE85
:1050C000094B9D443CBC90469946A246AB46F0BD78
:1050D000D4EFFFFF442E0110C5430110103D011015
:1050E000F43A0110183D01102C100000F0B5DE4616
:1050F00057464E464546E0B50A208BB004F054FEB4
:1051000000236A461372324B324E9846324B346853
:105110009B46324B324F9A46324B99461DE0C02394
:105120001B029C4243DD304BE318304A4046D55CBD
:10513000290004F0E1FF68227B5D934328D02A0018
:1051400068462B4903F0B6FC694602A808F0E4FE65
:1051500033680134FF33A3422FDB07231D002540B2
:10516000234219D080231B029C42D8DA80222300DC
:10517000D201944202DB1F4B1B68E3184A46D55C00
:105180004046290004F0B8FF68227B5D9343D6D1E6
:105190002E236A461380D7E702A9584604F0ACFFD5
:1051A0006B46210050461D7204F0A6FFDAE7124B51
:1051B0001A680D4BE3189B18B7E70A2004F0F4FDBA
:1051C0000BB03CBC90469946A246AB46F0BDC046EB
:1051D000442E0110942A0120103D0110183D0110A9
:1051E000C54301105C4901200080FFFFC00D002075
:1051F000F43A0110A82A0120C02A012010B584B079
:1052000001AB1900074A11CA11C1108808809278B1
:10521000A3208A70044A11680A22FEF785FE04B0B2
:1052200010BDC046203D0110942A0120F0B5DE4695
:1052300057464E464546E0B5214B89B09B461B6814
:10524000002B32DD1F4B002499461F4B98461F4A06
:105250006300D55A1E4A1F49165D1F4A1F48125D3A
:10526000ADB2D2B20692CA5AC75A4B461B5D91B232
:10527000DBB29A464B46185D0791C0B2FDF76EFD52
:1052800053460799069AF6B2BFB204900393019170
:1052900033002100009240462A00029704F02CFFC0
:1052A0005B461B680134A342D1DC0A2004F07CFD7C
:1052B00009B03CBC90469946A246AB46F0BDC046FC
:1052C000B4230120503F01202C3D0110BC2D0120B2
:1052D000CC3B0120F03501209833012048380120D3
:1052E000F0B545464E46DE465746244BE0B51C68B1
:1052F000234B00259946234B89B09846224A6300E8
:10530000D65A224A2249175D224A2348125DB6B274
:10531000D2B20692CA5AC35A91B29BB29A464B462F
:105320001B5D0791DBB29B464B46185DFFB2C0B2D6
:10533000FDF714FD5B46039353460799069A0490C4
:10534000029301913B00290000924046320004F094
:10535000D3FE9621601C490003F03EFC96230135E4
:105360000C005B009D42C9D10A2004F01DFD09B06C
:105370003CBC90469946A246AB46F0BDB8230120FE
:10538000A03A01202C3D011040310120C4340120FD
:10539000F83C012014300120642B012010B5034893
:1053A00003F0ECFB00210300002098475542000069
:1053B00010B5642004F0B2FE431C17D00C4C00233F
:1053C000220003E001330C321A2B0FD011788142F6
:1053D000F8D1084A10605A00D3189B00E418A3685B
:1053E0009847054B0548196804F086FE10BDC04675
:1053F000BC120120EC290120942A01206C3D0110EF
:10540000F0B583B005000E00140000F0ABF90028E1
:1054100001D003B0F0BD154F01223B0001210097E0
:10542000053001F087FD33002A0000940121104867
:1054300001F06EFF21002800714303F0F5FB04002A
:105440000C4B002200930221042001F073FD230085
:10545000002201210094052001F06CFD3B00022296
:1054600000210097062001F065FDD2E7006CDC0208
:1054700000800240001BB700F0B5DE4657464E469E
:105480004546E0B5070083B004209B460091019299
:1054900001F038FFFA21890003F0C6FB322382466F
:1054A000FF33994686005644B6014C4B4C4AF318DC
:1054B000072493420BD901235B429C465346E144A7
:1054C000F61A4B46002BF0D100205AE001242100AF
:1054D0003000614303F0A8FB874259D0631E984611
:1054E000012CE8D01D0065433000290003F09CFB2F
:1054F000874251D0A31E9846022CE7D02D1B2900CD
:10550000300003F091FB874249D0E31E9846032CFC
:105510004BD02D1B2900300003F086FB874246D07C
:10552000231F9846042C48D02D1B2900300003F07F
:105530007BFB874243D0631F9846052C45D02D1B2B
:105540002900300003F070FB874240D0062C42D087
:105550003000E91F03F068FB06248742B7D1002919
:10556000B5D101230724984673019B1B9B009E190C
:10557000009BF6001E60019B42461C605B460120BA
:105580001A6003B03CBC90469946A246AB46F0BDBB
:105590000029A3D1A046E7E70029ABD1E4E7002921
:1055A000E2D0E31E9846032CB3D102248FE70029F2
:1055B000DAD0231F9846042CB6D1032487E70029AC
:1055C000D2D0631F9846052CB9D104247FE7002967
:1055D000CAD0062CBCD1052479E7C046508EF4FF12
:1055E00050F80C00094A830094464022634410B5E9
:1055F0001C68C0006240C024144080225201134342
:105600001C60034B9C466044416010BD04C00140D7
:10561000004001400A4B80009C460423604400295E
:1056200001D00C230821002A00D10B00026853404E
:105630000C221A4080235B01184302607047C04669
:1056400004C001400123D02283401206936293617B
:10565000094A83009446402263441968C0004A40C6
:10566000C02111408022520113431960034B9C4614
:10567000052360444360704704C00140004001407E
:10568000F8B5EFF3108772B60E4E3368002BFCD0DE
:10569000BFF35F8FCB08C4180725A446C45C012361
:1056A0000D40AB4018002040234208D162462343FE
:1056B0001370BFF35F8F306087F31088F8BD100060
:1056C00001F01AFC2C0100D0F8B5CE4647468C46B6
:1056D00080B5EFF3108872B6214D2C68002CFCD0F9
:1056E000BFF35F8F9A422CD8D4080721055D0619B5
:1056F000012411408C402C421FD0072189460639D5
:1057000009E0D408055D06194C460F001440A74077
:105710003C002F4211D001329342F2D2012040428C
:10572000BFF35F8F00220E4B1A6088F310880028A9
:105730000FDB0CBC90469946F8BD2C43100034702A
:10574000EEE7BFF35F8F00232B6088F31088012002
:1057500040426346002BECD0089801F0CDFBC046D8
:105760002C0100D0024B18688007C00F7047C0465C
:1057700000C006400021044B044ABFF35F8F02C300
:105780009342FAD17047C046000100D0800100D09A
:10579000044A1078431CDBB2172B00D91023137076
:1057A0007047C046F413012000B5054B83B00100DB
:1057B000009318221F230348FFF786FF03B000BDA4
:1057C000243E0110E824012001238340002904D055
:1057D000034A1360034A13607047034A1360FBE7F0
:1057E00080E200E000E100E080E100E0012383408E
:1057F000014A13607047C04600E200E0084B1030D9
:105800009B688000C358002B07D0064A00209B1AD3
:105810002F229A424041C0B270470020FCE7C046A8
:1058200000ED00E0F8130120024B10309B6880006F
:10583000C058704700ED00E070B50D00EFF3108622
:1058400072B60F4A1368002BFCD0BFF35F8F0D4B6D
:1058500010309B6884001B590B4A934203D09D4231
:1058600001D001F061FB074B9B681D51BFF35F8FB7
:10587000BFF35F8F0022024B1A6086F3108870BD61
:10588000240100D000ED00E0CD010010F0B5574636
:105890004E464546DE46E0B5894683B00500170012
:1058A000EFF3108A72B65E4A1368002BFCD0BFF388
:1058B0005F8F00205B4B18569B4600286DDB5A46D5
:1058C0004400594E2418A400331998469B7910358A
:1058D0001370564BAA009B6801929B589C469B1BD9
:1058E0002F2B29D8012261469143CB79BB4208D89E
:1058F0006BE053009B189B00F318DD79BD4252D931
:10590000190006228A56002AF3DABD260B1D9B4693
:10591000360243465C46043B1B1B1B05444C5B0D97
:1059200023438B80887141468A714A46414B8E8061
:105930000B60CF718A601BE03F4B9C4542D14246D1
:105940003E4B023413803E4B3619043B9E1B3605FA
:10595000374B760D1E433B4B56809380FF23D77108
:10596000937143464A469A60012342461A4394463D
:1059700061462E4B019A9B689950BFF35F8FBFF32E
:105980005F8F0022264B1A608AF3108803B03CBC5C
:1059900090469946A246AB46F0BD01F0C5FA5B467B
:1059A000002018568BE70B1D9B468B8804345B0543
:1059B0001B155B4436199E1BE0233605760D1B0232
:1059C0001E43A6E701F0B0FAB9E745460B001E48B2
:1059D0009B1B5B415843000D184B2B80A31C9C461E
:1059E000B4446546164B0434043B5B1B1B05104D49
:1059F0005B0DAC462B43454636196B800B1F9E1B37
:105A00006346A87148463605760D1E43094BAE80A5
:105A1000EF71A8600B60434613439C46A8E7C0465D
:105A2000240100D05C2B0120F813012000ED00E0E0
:105A300000E0FFFF01488047CD01001000A1FFFFFB
:105A40002814012000BDFFFFAAAA0000F0B5DE4621
:105A500057464E464546E0B50C0083B0EFF3108A3A
:105A600072B65A4A1368002BFCD0BFF35F8F102226
:105A7000914681444A46564B96009B689D59554B2A
:105A800098469D4205D0A54216D0534FEB1B2F2BB5
:105A900014D94F4B9B689D51BFF35F8FBFF35F8F4E
:105AA00000224A4B1A608AF3108803B03CBC90462F
:105AB0009946A246AB46F0BD1D00EAE701238340AC
:105AC0009B465A46454B1B681A4000925A46444B27
:105AD0001A60BFF35F8FFAF7C6FB0190002803D06E
