:020000041000EA
:1000000000B5324B212058609868022188439860DF
:10001000D860186158612E4B002199600221596106
:100020000121F02299502B49196001219960352056
:1000300000F044F80222904214D00621196600F024
:1000400034F8196E01211966002018661A6600F04E
:100050002CF8196E196E196E052000F02FF8012189
:100060000842F9D1002199601B49196000215960AB
:100070001A491B48016001219960EB211966A021F2
:10008000196600F012F800219960164914480160C1
:100090000121996001BC002800D000471248134993
:1000A000086003C880F30888084703B5996A0420EC
:1000B0000142FBD001200142F8D103BD02B5186610
:1000C0001866FFF7F2FF186E186E02BD00000240BE
:1000D000000000180000070000035F00212200005C
:1000E000F4000018222000A00001001008ED00E03C
:1000F00000000000000000000000000074B24E7A12
:1001000000200420F7010010C3010010C5010010F9
:10011000C1010010C1010010C1010010C101001097
:10012000C1010010C1010010C1010010C701001081
:10013000C1010010C1010010C9010010CB01001065
:10014000CD010010CD010010CD010010CD01001037
:10015000CD010010CD010010CD010010CD01001027
:10016000CD010010CD010010CD010010CD01001017
:10017000CD010010CD010010CD010010CD01001007
:10018000CD010010CD010010CD010010CD010010F7
:10019000CD010010CD010010CD010010CD010010E7
:1001A000CD010010CD010010CD010010CD010010D7
:1001B000CD010010CD010010CD010010CD010010C7
:1001C00000BE00BE00BE00BE00BE00BEEFF3058054
:1001D000103800BEF2EB88717C430110A44301107B
:1001E0003402001090A31AE700201F49086006C8D7
:1001F00081F3088810471D48006800282FD10DA4FE
:100200000ECC002902D000F012F8F9E71849194A7B
:10021000002000E001C19142FCD1174988471749ED
:1002200088471749884700BEFDE701C901C29A42C5
:10023000FBD37047A4430110C000002060290120B7
:10024000446C02100000042000000420446C0210E2
:10025000001004200010042000000000704709482E
:1002600008F0E8F90047000008ED00E0000000D0C9
:1002700060290120C8AB02204D6D0010B1050010AF
:10028000796E00105756000006005250ABB3605311
:100290008C35011006005250861C03029C3501105B
:1002A000060052505422A29DAC3501100500525058
:1002B000DE65F468446C0210F8B5C0460448054B8E
:1002C00010B5834203D0044B002B00D0984710BDDB
:1002D000602901206029012000000000064807492C
:1002E000091A8910CB0F591810B5491003D0044BC7
:1002F000002B00D0984710BD602901206029012003
:100300000000000010B5074C2378002B09D1FFF73F
:10031000D5FF054B002B02D0044800E000BF0123AD
:10032000237010BD702A012000000000B8200110C9
:10033000054B10B5002B03D00449054800E000BF71
:10034000FFF7CCFF10BDC04600000000742A01205A
:10035000B8200110F0B54746CE4680B5274B83B094
:1003600098461C88264B9C423CD043460443A4B28A
:100370001C80D026802380271B023606B361012013
:100380000021FF0405F0D4FB1025B9460FE08023BF
:10039000DB0173610120002105F0CAFB013D77619B
:1003A00001200021640005F0C3FB002D0BD04B465B
:1003B0000120B361002105F0BBFB2304E7D48023B7
:1003C000DB01B361E6E7D02380221B0612025A61EB
:1003D00042460B4B12889A420AD003B00CBC90469E
:1003E0009946F0BD00230093009B002BFCD1BCE795
:1003F00000230193019B002BFCD1EEE7F235012095
:1004000009200000F0B5CE46474680B5264B83B0A4
:1004100098423DD0254BD0261C88984684431C80AA
:10042000802380271B023606B36101200021FF04D0
:1004300005F07EFB1025B9460FE08023DB017361D8
:100440000120002105F074FB013D776101200021AE
:10045000640005F06DFB002D0BD04B460120B3610D
:10046000002105F065FB2304E7D48023DB01B361A1
:10047000E6E7D02380221B0612025A6142460A4B4D
:1004800012889A420AD003B00CBC90469946F0BD3F
:1004900000230093009B002BFCD1BBE700230193BA
:1004A000019B002BFCD1EEE709200000F235012072
:1004B000F0B50124D0258440C64680272D0600B51E
:1004C0000120AC610021AC6105F032FB7F036C615F
:1004D0000120002105F02CFB08260024B8466B689B
:1004E0006400E4B29B0201D501231C434346012072
:1004F000AB61002105F01CFB013E6F610120002172
:1005000005F016FB002EEAD1200004BC9046F0BD99
:10051000F8B5DE46454657464E46E0B501273B0056
:10052000D024834090462406A3610D0001200021C1
:100530009B4605F0FDFA4346002B22DD013B9F4020
:100540008023DB04002699469A460EE06361012071
:10055000002105F0EDFA4B460120636100210136D0
:100560006D0005F0E5FAB0450BD053460120A361BC
:10057000002105F0DDFA8023DB013D42E6D1A361D5
:10058000E5E7D0235A461B065A613CBC9046994683
:10059000A246AB46F8BDC04610B503F071FF02F0AD
:1005A0003DFF03F023FE02F0B9FC04F003FB10BD95
:1005B00010B51B2084B004F041FCD0248023240615
:1005C0001B0563620D20636104F038FC0E2004F00B
:1005D00035FC0F2004F032FC162004F02FFC15200F
:1005E00004F02CFC1A2004F029FC132004F026FC53
:1005F000142004F023FC122004F020FC002004F05E
:100600001DFC012004F01AFC022004F017FC03205A
:1006100004F014FC042004F011FC052004F00EFC8E
:10062000062004F00BFC072004F008FC0122002146
:10063000002004F0EBFB01220021012004F0E6FB86
:1006400001220021022004F0E1FB0122002103200D
:1006500004F0DCFB01220021042004F0D7FB01227E
:100660000021052004F0D2FB01220021062004F025
:10067000CDFB01220021072004F0C8FB0A2004F072
:10068000DDFB0B2004F0DAFB0C2004F0D7FB11207B
:1006900004F0D4FB102004F0D1FB00220121102033
:1006A00004F0B4FB00220121112004F0AFFB8023F1
:1006B0008022DB0192016362A262636280231B02DB
:1006C00063628023DB03636280239B03A362802336
:1006D000DB04636280231B03636280228023D202D7
:1006E0005B03636262628022D20062628022120136
:1006F000626280225201626201A9636102AA03ABB5
:10070000114804F0C1FA002817D10120FFF722FE9A
:100710000A2005F01FFA00F041F800F01FF909F077
:1007200045FA01F0FBFD03F07BFF084809F03CF9B6
:1007300003F096FF04F03EFAFAE7039A0299019853
:1007400004F066FAE1E7C046A0F70300CC200110F0
:10075000802300B583B001AA1370793B0340502079
:100760004042184350700221782003F089F903B009
:1007700000BDC04610B58023102482B001AA010933
:10078000137021439370713B034051707820042112
:10079000D37003F075F902B010BDC046F0B58026E5
:1007A0006B4C6C4B21881D6885B0314328000822B2
:1007B0002180FA27FFF7ACFE7F212388FF00194034
:1007C0002800082221800397FFF7A2FE2188082233
:1007D0003143280021800297FFF79AFE019702F02B
:1007E00069FF782002F0D2FF802002F0CFFFAE2018
:1007F00002F0CCFF802002F0C9FFD52002F0C6FF36
:10080000802002F0C3FFA02002F0C0FF802002F091
:10081000BDFFA82002F0BAFF802002F0B7FF1F2022
:1008200002F0B4FF802002F0B1FFD32002F0AEFF4F
:10083000802002F0ABFF002002F0A8FF802002F031
:10084000A5FFAD2002F0A2FF802002F09FFF8E20C6
:1008500002F09CFF802002F099FFD82002F096FF62
:10086000802002F093FF052002F090FF802002F02C
:100870008DFFA12002F08AFF802002F087FFC820B0
:1008800002F084FF802002F081FFDA2002F07EFF78
:10089000802002F07BFF122002F078FF802002F01F
:1008A00075FF912002F072FF802002F06FFF3F2061
:1008B00002F06CFF802002F069FF3F2002F066FF2B
:1008C000802002F063FF3F2002F060FF802002F0F2
:1008D0005DFF3F2002F05AFF802002F057FF812089
:1008E00002F054FF802002F051FF1B4B187802F0F9
:1008F0004DFF802002F04AFFD92002F047FF802000
:1009000002F044FFD22002F041FF802002F03EFFBF
:10091000DB2002F03BFF802002F038FF342002F0A1
:1009200035FF802002F032FFA62002F02FFF80204A
:1009300002F02CFFA42002F029FF802002F026FF05
:10094000AF2002F023FF02F0E5FE05B0F0BDC04687
:10095000F4350120C4200110100F00208023F0B5D1
:100960004746CE469946D03B0025984680B5174F5E
:1009700083B001AE4B463370434632002B43022115
:100980007820737003F07CF83200042178200197FE
:1009900003F076F802F08EFE782002F0F7FE402099
:1009A00002F0F4FE8424013C0020E4B202F0EEFEEA
:1009B000002CF8D10135EDB202F0ACFE042DD9D1F6
:1009C00003B00CBC90469946F0BDC0468010800034
:1009D000204BF0B54746CE469946002380B55027B8
:1009E00000259846802683B001AC7F424B464246A4
:1009F0005B191A70EB113B432200022178206370CF
:100A0000267003F03DF87F2310212B401A090A437A
:100A100062700F220421134078202200E3702670B8
:100A2000A67003F02DF802F045FE782002F0AEFE2D
:100A3000402002F0ABFE002002F0A8FE02F06AFEA9
:100A400080230135DB009D42D0D103B00CBC904621
:100A50009946F0BD204B0120F0B5D6464F4646469C
:100A60007F25C0B507262B1A994633008846CF1735
:100A70003B404344DB105B42DD1C802332009A463E
:100A800082B001AC23702A40D03B134302212200E4
:100A90007820637002F0F4FF4B4652461021043375
:100AA000DBB222701A090A4362705246A270713A90
:100AB0001340042122007820E37002F0E1FF02F0ED
:100AC000F9FD782002F062FE402002F05FFE43460E
:100AD00001247F0FD9193140C91B8C400A4EED010A
:100AE0004D44735D1C43E4B2200000F00FF8C0B227
:100AF00002F04CFE745502F00DFE02B01CBC904694
:100B00009946A246F0BDC046204B01200221012398
:100B10004200114042101A401143821049001A400D
:100B20000A43C110194052000A43011152001940F2
:100B3000114342111A4049001143821149001A40E1
:100B40000A43C0115200184010437047032370B588
:100B5000150004005B1AD8B2FFF7FAFDAE00A00042
:100B6000201A76190124042540007F30C0B2FFF717
:100B700001FE02F09FFD782002F008FE402002F006
:100B800005FE154B9E192200735D1A405810204037
:100B9000520002439810520020401043DA102240C5
:100BA000400010431A1140002240024358112040D7
:100BB0005200024398115200204010434000DB11C4
:100BC000184302F0E3FD013DDDD2002002F0DEFD1E
:100BD00002F0A0FD70BDC046140F0020F0B54646DF
:100BE000D6464F46C0B515789046002D4DD003230C
:100BF0005B1ADBB29946274B01249A468600861B76
:100C000076007F36F6B201239C4604274846E0442E
:100C1000FFF79EFD3000FFF7ADFD02F04BFD7820A1
:100C200002F0B4FD402002F0B1FDAB005D19554467
:100C30002200EB5D1A4058102040520002439810E9
:100C4000520020401043DA102240400010431A1195
:100C500040002240024358112040520002439811A4
:100C60005200204010434000DB11184302F08EFD7B
:100C7000013FDDD2002002F089FD02F04BFD43462A
:100C80001D78063EF6B2002DBDD11CBC904699469B
:100C9000A246F0BD140F0020F8B5294BCE46994668
:100CA000052347465B424B4480B598467F27012485
:100CB0000326F0B2FFF74CFD3800FFF75BFD02F0B2
:100CC000F9FC782002F062FD402002F05FFD4D4605
:100CD00022002B78013D1A40581020405200024358
:100CE0009810520020401043DA1022404000104378
:100CF0001A11400022400243581120405200024382
:100D00009811520020401043DB114000184302F0BC
:100D10003DFDA845DCD1002002F038FD02F0FAFCD0
:100D2000013EC6D2063FFFB2012FC1D10023054AC2
:100D30001360054A13600CBC90469946F8BDC04646
:100D4000B80F0020C82F0120CC2F0120F0B5DE46BF
:100D5000454657464E46E0B53C4B05789B461C68D9
:100D60003B4B83B001901A68002D50D003239B1A8F
:100D7000DBB29946374BA600A61B80469A46012453
:100D800076007F36F6B201239C4604274846E044AD
:100D9000FFF7DEFC3000FFF7EDFC02F08BFC782063
:100DA00002F0F4FC402002F0F1FCAB005D19554468
:100DB0002200EB5D1A405810204052000243981068
:100DC000520020401043DA102240400010431A1114
:100DD0004000224002435811204052000243981123
:100DE0005200204010434000DB11184302F0CEFCBB
:100DF000013FDDD2002002F0C9FC02F08BFC43462B
:100E00001D78063EF6B2002DBDD15B461C680198E8
:100E10000CF086FB2418142C08DC5B461C6003B025
:100E20003CBC90469946A246AB46F0BD5B460022CC
:100E30001A60074B1B6801930133032B02DC044A41
:100E40001360ECE7024B1A60E9E7C046C82F0120A7
:100E5000CC2F0120140F002010B50CF061FB084BC3
:100E60001A6894466044142807D90021054A19607D
:100E700013680133032B01DD116010BD1360FCE723
:100E8000C82F0120CC2F012070B5094808F082FE40
:100E900001231D00074AD0241268FA209540240639
:100EA000054AA5614000136004F054FEA56170BDC1
:100EB000E0200110C820011074350120374A30B5F8
:100EC000136883B001331360B02304009B00984281
:100ED0005AD023D9C0239B00984231D04033984246
:100EE0001AD180212E4A2F4C1088238801407F2060
:100EF00001339BB2238043401943118008222A48C2
:100F00000068FFF705FB0220284923884A7DDB1291
:100F10000340824313434B7503B030BD013BFF3B9D
:100F200098421BD040339842F6D180204000FFF712
:100F300011FA2000FFF70EFA642004F00BFEEBE735
:100F400000238021174C2380154B1A8811407F22E3
:100F500011431980144B08221868D2E703F038F9BE
:100F6000134808F017FE01231D00124AD02412680E
:100F7000FA209540019224060F4AA56140001360B3
:100F800004F0E8FDA561C7E780204000FFF73AFACA
:100F900080208000FFF736FABEE7C0468435012086
:100FA000F4350120F6350120C42001100054012041
:100FB000E0200110C8200110743501208023044A6C
:100FC0005B42517C0B4353740122024B1A707047F1
:100FD000005401208C1800200122024B1954024BAE
:100FE0001A607047985301203C300120F0B5DE466E
:100FF00057464E464546E0B5012083B002F054FB0B
:10100000764B77491A68002A03D10A68002A00D172
:10101000B0E00022734F1A603B680A60002B00DAD0
:10102000D5E0714B00249A46704B714E9846714B37
:101030009946714B9B460DE03168200007F028FB74
:101040000B002A0001001800FFF780FD3B68013407
:10105000A34219DB534642461B681B5DD55C4A46DA
:1010600012689342E8D15B461B68002BE4D0634BC7
:101070001B68002B48D0624B1B68002B00D17FE01F
:10108000019580256D00D7E71421200007F000FBB3
:1010900014218346200007F0FBFA8A46594B0026AC
:1010A00099464B4631009A5D14200136FFF74EFDFC
:1010B000042EF6D16A1EFF3A2B00012A52D9524A59
:1010C000D35C682293434BD05A461623534352466F
:1010D0004E4EEDB235554E4CE3189D543D68414699
:1010E0002A004C4808F0AAFA00232B22A3541632F7
:1010F000A35416326375A354735503B03CBC904699
:101100009946A246AB46F0BDAB00434A5B19D15CA1
:10111000802252421143404A404894461154802252
:10112000634459785242114362463D480195115437
:10113000802299785242114362463A48022511545E
:101140008022D978524211436246013011548022E4
:1011500061461B7952421343334AFF358B546BE788
:101160002025B1E7019D284A2B00D35C68229343D8
:10117000AAD1F5E71D4B1B4F9846244E244CADE7F2
:101180008021254AAB005B19D05C494208432349C2
:10119000D31850548021587849420843204901957A
:1011A000505480219878494208431E4902255054E2
:1011B0008021D87849420843A121C9005054802198
:1011C0001B7949420B431849FF35535434E7002338
:1011D0009A469B46054B002498465FE73C30012029
:1011E000C42F0120601400209C53012008550220C8
:1011F000641400209034012098340120C02F012075
:101200009434012098530120E53701102450012027
:10121000A0530120204F0120140F002005050000DD
:10122000060500000705000009050000022210B5B0
:10123000FF320249024808F001FA10BD08550220A9
:1012400000540220E02330B55B0083B004009842D4
:1012500000D109E114D8122800D86EE0172800D177
:1012600019E14CD90300813BFF3B9BB2012B38D8DD
:101270008223FF33984200D036E1002003B030BD16
:10128000D8239B00984265D019D8A03B984200D142
:1012900004E10BD9C0239B00984202D0403398420E
:1012A0001FD12000FFF70AFE0020E7E7403B9842ED
:1012B00017D10420FFF74EF89D4B185DDEE7E823B9
:1012C0009B00984246D058D9F0239B0098423ED1CB
:1012D000E0239B009C4200D100E140339C4200D1BE
:1012E000F6E023044ED5C022924B1202E31894423A
:1012F00002D8914A12689B18904AD05CBEE7152824
:10130000EFD18F4B1868FFF7D3F87F2343407E203F
:101310001840D023864C1B0660755B68894A5B0BBE
:10132000DB011843022312889843D212134018435A
:10133000607503F005FA607DA0E7112800D3B3E0E3
:10134000032828D00828CCD17F4B187896E7203383
:101350009842C6D1E8239B009C4200D1C9E04033AB
:101360009C4200D1DAE0803B00209C4200D085E71F
:10137000764B1860704B186080E7203B9842A7D0EE
:101380002304B0D4724B9C4202D9704B1B68E41802
:10139000674B185D72E7D0226E4B120650681968D1
:1013A0005268C8405C680121E2400840C001400822
:1013B000114201D080221043D0221206526899684F
:1013C0004008CA40D20703D5802252421043C0B21F
:1013D000D02212065268D9684008CA40D20703D505
:1013E000802252421043C0B2D022120652681969BC
:1013F0004008CA40D20703D5802252421043C0B2EF
:10140000D0221206526859694008CA40D20703D553
:10141000802252421043C0B2D0221206526899690B
:101420004008CA40D20703D5802252421043C0B2BE
:10143000D02212065268DB694008DA40D30703D590
:1014400080235B421843C0B22C21434AFF3113680A
:101450008B4200DD12E7E22540495C006554013310
:1014600009194870136009E702F0B2FE3C4808F021
:1014700091FB01231D003B4AD0241268FA209540BD
:1014800001922406384AA5614000136004F062FB13
:10149000A5610020F2E6354B1878EFE60420FEF750
:1014A000B1FF234B185DE9E6314A1378DBB2012B1B
:1014B00028D0022B00D014E7122800D011E7032314
:1014C00013707F221A4B597C0A405A74185DD5E676
:1014D0000122284B1A60164B185DCFE60022254BDF
:1014E0001A60134B185DC9E6234B18687F23184018
:1014F000C4E6164A13688021C9018C466344136010
:101500000020BBE6112800D0EBE6094B597C7F296F
:1015100000D8D2E60221185D1170AFE6064A1368C2
:10152000002BE8D180231B0213600020A6E6C046F2
:10153000005401200080FFFF643501209018002036
:10154000C0200110F6350120023601204C35012063
:10155000FF3F00006C180020C435012028510120F5
:10156000E0200110C820011074350120013601204F
:101570008C18002068140020903401200B4B1A882E
:10158000824206D01A8A82420BD01A8C82420AD03A
:10159000704700220121064812019B180160596022
:1015A000F6E70122F6E70222F4E7C04630140020F5
:1015B00068340120012070477047C0460022014B6B
:1015C0001A6070478C3501207323084AD15C643B54
:1015D0000B400749D3188C460649634409681970C3
:1015E0007421535C013353547047C04600540120AA
:1015F000B0200000ACA7022010B50349034802F058
:10160000A7FA431E984110BD10240110089F022024
:1016100010B50349034802F09BFA431E984110BDE0
:1016200020240110089F0220164AF8B513680133E0
:101630001360154B9B69DB0603D5144A136801330D
:1016400013601025104C124E124FA3691D4211D188
:10165000A3691D42FCD12368DBB2002BF5D03268B0
:101660000D49BB543068013007F012F83160A369AE
:101670001D42EDD0A3691D4203D1084A136801330E
:101680001360F8BD703401200080034074340120E1
:101690007834012020850220881300006C3401205A
:1016A0007047C046F8B50A4E00243500094F296836
:1016B000380002F04DFA002804D101340835072C17
:1016C000F5D1F8BDE400341963689847F9E7C046DE
:1016D000CC1A01201056022070B5224A224C09CAA9
:1016E000224A23491354234A82B0126809680190A0
:1016F00000932000204B06F039FF20000BF010FF74
:101700001E4C1F4B020018601E49200006F02EFFE1
:101710002278002A18D01C4B200002255D5F20246F
:1017200000230D261949002B15D195420ED08B6947
:101730001C42FCD10A60037801300D3B5A425341F0
:101740000278DBB2002AEED102B070BD8B691C4278
:10175000FCD10E60EBE78B691C42EBD08B691C421D
:10176000F9D1E7E7ACA70220AC6D022000540120BC
:10177000DC180120D02F0120EC2E0110E4A602205D
:1017800034350120F42E011000A90220008003400E
:1017900070B5284C84B0A268206803AB1A7042422E
:1017A00050410122404290436168A33002F02CFC7A
:1017B000214B224D1A68224B280019686368019357
:1017C000A36800931F4B06F0D1FE28000BF0A8FE83
:1017D0001D4C1E4B020018601D49200006F0C6FE7D
:1017E0002278002A18D01B4B200002255D5F2024A0
:1017F00000230D261849002B15D195420ED08B6978
:101800001C42FCD10A60037801300D3B5A4253411F
:101810000278DBB2002AEED104B070BD8B691C42A5
:10182000FCD10E60EBE78B691C42EBD08B691C424C
:10183000F9D1E7E7ACA70220D02F0120AC6D022040
:10184000DC180120B02E0110E4A60220343501205E
:10185000F42E011000A90220008003405E4AF0B57A
:101860001368454659424B4101215B428B439846E0
:10187000A3239C46594B57464E46DE469946E0B553
:10188000002357684A4697B0E044137003AE02AA9B
:101890001375404633001022390002F09BFB802371
:1018A0000F229C4692464246BC440CAD0192E04653
:1018B00009E00023290007A801372A706B700BF09C
:1018C000BBFD474528D054463C4066D05246FB17E6
:1018D0001B0FFC181440E41A325D4149280006F041
:1018E00045FE48460BF01CFE290048440BF080FDE5
:1018F0006821325D3B4B83469B5C8B43D9D107A863
:101900000BF00EFE07AB9C460222604436490137BD
:1019100007F094FE4745D6D102223449584607F0D5
:101920008DFE584607A902300BF0F2FD304B314CCA
:101930001A68314B200019684B4606F017FE20004C
:101940000BF0EEFD2D4E2E4B020018602D4930009D
:1019500006F00CFE3478002C18D030000021202234
:101960000D26294B02255D5F284B002928D1A54271
:101970002DD099690A42FCD11C60017801300D39E3
:101980004C4261410478C9B2002CEED117B03CBC86
:1019900090469946A246AB46F0BD3B0007AA1C49BB
:1019A000280006F0E3FD290048460BF045FD02AB98
:1019B0001C75102233003900019802F00BFB85E7FB
:1019C00099690A42D8D099690A42F9D1D4E799694C
:1019D0000A42FCD11E60CCE7ACA70220C8610220FD
:1019E000A82E0110E5370110EC2001109C2F0110EA
:1019F000D02F0120AC6D0220D8180120E4A60220CF
:101A000034350120F42E011000A90220008003408B
:101A1000982E0110F8B5DE4657464E464546424BD5
:101A2000E0B51C68012C09D0022C45D0002C30D028
:101A30003CBC90469946A246AB46F8BD3B4B1E685F
:101A4000002EF5DDFA213A4B890099461B68581C97
:101A50009A4606F01DFE374B0D001F68B942E7D0CD
:101A6000354C631E9E19354B984609E0FA21681CD7
:101A7000890006F00DFE0134AA468F4206D00D0003
:101A80004246514623785354B442EFD14B461D6031
:101A9000CEE72B4F284D3E0003E001340836082CDA
:101AA000C6D03168280002F053F80028F5D0E400D1
:101AB0003C1963689847BBE71C4B1B689B46002B8F
:101AC000B6DD73221F489046643A9446023A0023DA
:101AD000194D7426040091460FE041466746415C6B
:101AE000C9183940184F4118BA4651440A70825DEE
:101AF0000132825501339B459AD0EA5C0A2AF9D01B
:101B00000D2AF7D0042AE8D142466146A25CD218D9
:101B10000A400D49A2188A46494652441170A25DF6
:101B20000132A255E6E7C0465C2E0120C4340120F4
:101B3000602F0120642F0120105602209869022096
:101B40009418012000540120B0200000F0B50E4B85
:101B50000E4D19682B68C6465C1A631C98460C4FDC
:101B60000C4E00B589191A00380007F067FD42468F
:101B70003900300007F062FD0122074B2C601A602B
:101B800004BC9046F0BDC046A83401206434012056
:101B9000507D0220089F0220C0340120F0B5C646C7
:101BA00001221C4B00B5532100201A600025FFF7CD
:101BB00013FA194C194E03E001350C34282D11D0BD
:101BC0002378032BF8D1310060680BF05DFC00280E
:101BD000F2D10122124B1D60124B1A60124A136897
:101BE00001331360114D124B124F19682B68124EBE
:101BF0005C1A631C984689191A00380007F01EFD0C
:101C000042463900300007F019FD2C6004BC9046B4
:101C1000F0BDC04690350120EC1801206C24011065
:101C2000E4350120E8350120C0350120643401206D
:101C3000A8340120507D0220089F0220F8B54746B5
:101C4000CE46174B174D1C68174E2B68A1191C1B4D
:101C5000164B80B598461B68671C002B12D0144B9E
:101C60003A009946180007F0E9FC3A00494630006E
:101C700007F0E4FC002342462C6013600CBC904645
:101C80009946F8BD0A4B3A009846180007F0D6FC72
:101C90003A004146300007F0D1FC2C60EEE7C04628
:101CA000A834012064340120089F0220C0340120A0
:101CB000507D022070B51C221B491C4807F0BEFC59
:101CC0001B221B4C1B4B1C4920001A6006F04EFCCB
:101CD0002278002A18D0194B200002255D5F2024AD
:101CE00000230D261649002B17D1954210D08B6981
:101CF0001C42FCD10A60037801300D3B5A4253412B
:101D00000278DBB2002AEED101220E4B1A6070BDC0
:101D10008B691C42FCD10E60E9E78B691C42E9D05B
:101D20008B691C42F9D1E5E754230110AC6D022008
:101D3000E4A60220343501207023011000A90220FE
:101D4000008003408C350120204B70B55A68204C30
:101D50001B6820492000CA541F4906F007FC2000D8
:101D60000BF0DEFB1D4C1E4B020018601D492000CD
:101D700006F0FCFB2278002A18D01B4B200002251D
:101D80005D5F202400230D261849002B17D19542B2
:101D900010D08B691C42FCD10A60037801300D3BE6
:101DA0005A4253410278DBB2002AEED10122104B95
:101DB0001A6070BD8B691C42FCD10E60E9E78B692B
:101DC0001C42E9D08B691C42F9D1E5E7ACA702209F
:101DD000AC6D02200054012084230110E4A60220EF
:101DE000343501207023011000A902200080034037
:101DF0008C35012070B5244B244984B00291190020
:101E00002C31019119001A00214C1631163A00911B
:101E10002000204906F0AAFB20000BF081FB1E4C9D
:101E20001E4B020018601E49200006F09FFB22781E
:101E3000002A18D01B4B200002255D5F20240023C0
:101E40000D261949002B18D1954211D08B691C42DF
:101E5000FCD10A60037801300D3B5A4253410278AD
:101E6000DBB2002AEED10122104B1A6004B070BD23
:101E70008B691C42FCD10E60E8E78B691C42E8D0FC
:101E80008B691C42F9D1E4E7B6530120089F022078
:101E9000AC6D02202C230110E4A602203435012071
:101EA0007023011000A90220008003408C3501201E
:101EB000F0B5C646632100B50120FFF78DF80F4C41
:101EC0000F49200001F044FE002802D104BC9046D6
:101ED000F0BD0C4B0C4E196833680C4F5D1A6B1C2F
:101EE00098461A000919380007F0A8FB4246390045
:101EF000200007F0A3FB3560E8E7C046089F0220FA
:101F00005C240110A834012064340120507D02209B
:101F1000F0B5C646632100B50120FFF75DF80F4C10
:101F20000F49200001F014FE002802D104BC9046A5
:101F3000F0BD0C4B0C4E196833680C4F5D1A6B1CCE
:101F400098461A000919380007F078FB4246390014
:101F5000200007F073FB3560E8E7C046089F0220C9
:101F600048240110A834012064340120507D02204F
:101F7000F0B5C646040000B543210120FFF72CF858
:101F80001D48240100191D4C4168200001F0E0FDAE
:101F9000002802D104BC9046F0BD194E194B1A4FCF
:101FA0001968336838005D1A6B1C984609191A00C5
:101FB00007F044FB20004246390007F03FFB356044
:101FC000124C0025124E03E001350C34282DE1D0CF
:101FD0002378032BF8D1310060680BF055FA002804
:101FE000F2D101220B4B1D600B4B1A600B4A136898
:101FF00001331360CEE7C046F0240110089F022091
:1020000064340120A8340120507D0220EC18012006
:1020100054240110E4350120E8350120C0350120A9
:10202000F0B5C646040000B572210120FEF7D4FFCA
:102030001D48240100191D4C4168200001F088FD55
:10204000002802D104BC9046F0BD194E194B1A4F1E
:102050001968336838005D1A6B1C984609191A0014
:1020600007F0ECFA20004246390007F0E7FA356045
:10207000124C0025124E03E001350C34282DE1D01E
:102080002378032BF8D1310060680BF0FDF90028AC
:10209000F2D101220B4B1D600B4B1A600B4A1368E7
:1020A00001331360CEE7C046F0240110089F0220E0
:1020B00064340120A8340120507D0220EC18012056
:1020C00074240110E4350120E8350120C0350120D9
:1020D000F0B5C646040000B569210120FEF77CFF7B
:1020E000104824010019104C4168200001F030FD17
:1020F000002802D104BC9046F0BD0C4B0C4E196870
:1021000033680C4F5D1A6B1C98461A000919380089
:1021100007F094FA42463900200007F08FFA356044
:10212000E8E7C046F0240110089F0220A8340120EF
:1021300064340120507D0220F0B5C646040000B58D
:102140006E210120FEF748FF124824010019124CAD
:102150004168200001F0FCFC002802D104BC90463C
:10216000F0BD0E4B0E4E196833680E4F5D1A6B1C96
:1021700098461A000919380007F060FA42463900FB
:10218000200007F05BFA084B35601A68074B1A60AD
:10219000E4E7C046F0240110089F0220A834012083
:1021A00064340120507D0220ACA70220B82F01200A
:1021B000F0B5CE46474680B5642185B00220FEF7D3
:1021C0000BFF474C4749200001F0C2FC002804D116
:1021D00005B00CBC90469946F0BD434E434B444F6E
:1021E0001968336838005D1A6B1C98461A00091983
:1021F00007F024FA39004246200007F01FFA3D4F4D
:1022000035603E681D2EE3DC3B4B9846002E64DDB6
:102210002B251C00394B75439946454449462000FF
:102220000BF032F90028D3D02B34A542F6D12B2461
:1022300043466643494698190BF06AF93000304925
:1022400014304D694B680A6803950D694044029546
:10225000CD680195896800912A4906F087F92A4BD3
:10226000494618680BF010F9002803D03B68013389
:102270003B60ADE73B68254E5C432200143242448C
:102280002349300006F072F93478002CEED030008B
:10229000002120220D261F4B02255D5F1E4B0029C9
:1022A0000FD1A54214D099690A42FCD11C60017873
:1022B00001300D394C4261410478C9B2002CEED195
:1022C000D4E799690A42F1D099690A42F9D1EDE758
:1022D00099690A42FCD11E60E5E7084B9946A6E7DA
:1022E000089F02207C24011064340120A8340120BE
:1022F000507D0220682F012078990220D8A8022062
:10230000ACA70220DC24011090180120E4A60220D2
:10231000C424011000A902200080034010B51F480A
:10232000002103F005FC0221082002F057FD0221E4
:10233000092002F053FDE121194C4902200004F06C
:102340003FF9C022236B12021340164A200013608B
:10235000002104F0F9F91449152002F067FE01216B
:10236000152002F02BFE5023A363626B183B134031
:102370000E4A0F48136007F017FB07F0AFFB02206F
:10238000FEF740F8642003F0E5FB0220FDF7E2FFD2
:102390000023084A1370084A136010BD40420F0022
:1023A0000080034030900340291600103490034011
:1023B000082F0110089F022064340120F0B54E461A
:1023C00057464546DE4600238246E0B5374E85B087
:1023D00001AD2B703370364B022299465344DB79A2
:1023E0007F2B58D83349300007F028F94F46052491
:1023F000314B57449846052C10D041463A5D280091
:1024000006F0B4F830000BF08BF8290030180AF011
:10241000EFFF002C27D0013C052CEED105235344BF
:102420009B464B465A469A5C24491209280006F0FE
:102430009DF830000BF074F8290030180AF0D8FF2E
:1024400002221F4907F0FAF85A464B469B5C0F22BE
:102450001A491A40280006F089F8290030000AF0CD
:10246000EBFF013CD8E70322164907F0E7F8062204
:10247000BA56002A14DB4146280006F077F82900F6
:1024800030000AF0D9FF300005B03CBC90469946B8
:10249000A246AB46F0BD0C49300007F0CFF8A5E7E7
:1024A00052420A49280006F061F8E8E7846D0220EC
:1024B00000540120AC2E0110842E01107C2E01103E
:1024C000EC2001108C2E0110782E0110902E01109E
:1024D0000023F0B50024324E324D334F91B03370AB
:1024E0002200390006A806F041F806A930000AF0DB
:1024F000A3FF2800FFF762FF0134010030000AF05B
:102500009BFF08350A2CEBD1284B294C1A68294B24
:102510001968294B0493294B1800163802901800AB
:1025200003932C38423B019000932000330006F0C7
:102530001DF820000AF0F4FF214A224E1060224AC2
:10254000030012682149300006F010F83478002C9E
:1025500018D01F4B300002255D5F202100230D267F
:102560001C4A002B10D1A54215D093691942FCD109
:102570001460037801300D3B5C4263410478DBB2A8
:10258000002CEED111B0F0BD93691942F0D09369DF
:102590001942F9D1ECE793691942FCD11660E4E7DE
:1025A000C8610220FF200000B82E0110D02F0120AA
:1025B000AC6D0220D4180120089F0220E2530120B4
:1025C00034350120E4A60220B82F0120C42E0110CA
:1025D00000A9022000800340F8B54E464546574604
:1025E000DE46324BE0B599461860314B314D1960EB
:1025F000314B06009A460023524613602F4A01339E
:1026000013602F4B884618602C68002845DD002C8D
:1026100047DD020001232B4F2B4803E0591C9C424D
:1026200026D00B00C15CD61AF9549A42F6D1534613
:1026300001301A604B4681461E601118A41A631CB3
:102640009B46224B5A469A46180006F0F7FF5A4618
:102650005146484606F0F2FF2C60002E02D1174B7F
:102660001E60C0473CBC90469946A246AB46F8BDAA
:10267000534601301C604B460119814600241E6000
:10268000124E671C3A00300006F0D8FF3A003100C5
:10269000484606F0D3FF2C60E4E70D4B994619003D
:1026A000CDE70B4B99461900EAE7C0466C2F012095
:1026B000049F0220643401204C7D02208C2F0120D5
:1026C000C43401200F560220079F0220507D0220B3
:1026D000089F0220F0B5C646502100B50220FEF743
:1026E0007BFC114C1149200001F032FA002802D184
:1026F00004BC9046F0BD0E4E0E4B0F4F1968336868
:1027000038005D1A6B1C98461A00091906F096FFEE
:1027100039004246200006F091FF084B08495868EE
:102720003560FFF759FFE3E7089F022010240110EE
:1027300064340120A8340120507D0220ACA702207F
:10274000A5160010F0B5C646502100B50220FEF7D0
:1027500043FC114C1149200001F0FAF9002802D184
:1027600004BC9046F0BD0E4E0E4B0F4F19683368F7
:1027700038005D1A6B1C98461A00091906F05EFFB6
:1027800039004246200006F059FF084B08491868F6
:102790003560FFF721FFE3E7089F0220382401108E
:1027A00064340120A8340120507D0220ACA702200F
:1027B000151A001070B51B480AF0B2FE1A4C1B4BDC
:1027C000020018601A49200005F0D0FE2278002A85
:1027D00018D0184B200002255D5F202400230D2611
:1027E0001549002B17D1954210D08B691C42FCD1A2
:1027F0000A60037801300D3B5A4253410278DBB244
:10280000002AEED101220D4B1A6070BD8B691C426B
:10281000FCD10E60E9E78B691C42E9D08B691C4250
:10282000F9D1E5E7AC6D0220E4A6022034350120A1
:102830007023011000A90220008003408C35012084
:10284000484AF0B513684E4659424B4101215B425C
:102850008B431800444B57469946DE46454654681C
:1028600000234A46E0B597B007AF03AE1370A3301C
:102870003B70102233002100019001F0ABFB80235C
:102880009C46A4446346009300230CAD9A460AE09C
:102890000023290038006B702A700AF0CDFD009BE0
:1028A0000134A34228D00F232340984642D001236D
:1028B0009C46D046E24443462C49F25C280005F091
:1028C00055FE48460AF02CFE290048440AF090FDC7
:1028D00043466821F25C264B83469B5C8B43D7D1F1
:1028E00038000AF01DFE02223818224906F0A6FE22
:1028F000009B0134A342D6D102221F49584606F05C
:102900009DFE5846390002300AF072FD4B46032204
:10291000C41A1A4906F092FEE21C4946184806F00D
:102920008DFEFFF747FF17B03CBC90469946A24684
:10293000AB46F0BD23003A001249280005F016FE10
:10294000290048460AF078FD434610223B702100DA
:102950003300019801F03EFB01239A46002398467C
:10296000A9E7C046ACA70220C8610220A82E01102A
:10297000E5370110EC2001109C2F0110B028011048
:10298000AC6D02204823011010B50C4C82B0A26837
:10299000206801AB1A7042425041012240429043EC
:1029A0006168A33001F030FB236862680449054880
:1029B00005F0DCFDFFF7FEFE02B010BDACA7022063
:1029C00084230110AC6D0220F8B5CE46474680B591
:1029D0006D4A1378002B04D16C4B6D4A1B789B0019
:1029E0009A586C4C6C49200005F0C0FD6B4E2100DC
:1029F00030000AF0FDFC050004226949200006F0C1
:102A00001DFE04222100280006F018FE654F3B68D9
:102A1000002B17DD644B00259946644B98464B46C6
:102A20001B68581980B2FEF70DFC414602002000D9
:102A300005F09CFD210030000AF0FEFC3B680135EA
:102A4000AB42ECDC5A4D5B492A88200005F08EFD34
:102A5000210030000AF0F0FCAA885749200005F058
:102A600085FD210030000AF0E7FCAA7953492000D7
:102A700005F07CFD210030000AF0DEFCEA795049C7
:102A8000200005F073FD210030000AF0D5FCEB7941
:102A9000AA794C49200005F069FD210030000AF0B8
:102AA000CBFC6A884849200005F060FD2100300019
:102AB0000AF0C2FC4549464B08682A7A18608888A3
:102AC00098808979997143490878FF2835D0104258
:102AD00041D18878FF2830D010423FD10879FF28B3
:102AE0002BD010423DD18879FF2826D010423BD10F
:102AF000087AFF2821D0104201D0487A1871887ACC
:102B0000FF281AD0104201D0C87A5871087BFF28DC
:102B100013D0104231D1887BFF280ED010422FD124
:102B2000087CFF2809D01D00104220D0487C0135C8
:102B3000E871887C0231FF28F6D12749200005F092
:102B400015FD210030000AF077FCFFF733FE0CBCC6
:102B500090469946F8BD48781870BAE7C87858701A
:102B6000BCE748799870BEE7C879D870C0E7887C20
:102B700001350231FF28D7D1DFE7487B9871CAE7DA
:102B8000C87BD871CCE7C046D03401200155022063
:102B90006C140020C861022098230110AC6D022043
:102BA0009C230110045502200C560220A023011082
:102BB00084530120A8230110B4230110C023011065
:102BC000CC230110D8230110E823011008240110A0
:102BD000E018012020140020F4230110324BF0B53E
:102BE000454698465746DE464E4600234246E0B5E7
:102BF00095B005AF13703B7080339B462B4B0400A0
:102C0000039183440AAD9A4609E000232900380065
:102C100001342A706B700AF00FFC5C4522D00F263D
:102C2000264034D053461E1932782149280005F039
:102C30009DFC40460AF074FC290040440AF0D8FB91
:102C4000682132781B4B81469B5C8B43DDD1380079
:102C50000AF066FC013438180222174906F0EEFC2F
:102C60005C45DCD102221549484606F0E7FC48469F
:102C7000390002300AF0BCFB0322114906F0DEFCE9
:102C800015B03CBC90469946A246AB46F0BD039BAE
:102C90003A000C490094280005F068FC29004046E1
:102CA0000AF0CAFB3E70BDE7C86102200054012053
:102CB000A82E0110E5370110EC2001109C2F011007
:102CC000B0280110E02E011070B520490020FFF758
:102CD00085FF1F4B1F4C1A681F4B200019681F4BA4
:102CE00005F044FC20000AF01BFC1D4C1D4B0200AB
:102CF00018601D49200005F039FC2278002A18D000
:102D00001A4B200002255D5F202400230D26184960
:102D1000002B14D195420DD08B691C42FCD10A6066
:102D2000037801300D3B5A4253410278DBB2002A4E
:102D3000EED170BD8B691C42FCD10E60ECE78B6953
:102D40001C42ECD08B691C42F9D1E8E7D82E011067
:102D5000D02F0120AC6D0220D8180120C8610220BC
:102D6000E4A6022034350120F42E011000A902202F
:102D700000800340214B70B518682149FFF72EFFF2
:102D8000204B214C1A68214B20001968204B05F07C
:102D9000EDFB20000AF0C4FB1E4C1F4B0200186024
:102DA0001E49200005F0E2FB2278002A18D01C4BB7
:102DB000200002255D5F202400230D261949002BE9
:102DC00014D195420DD08B691C42FCD10A60037866
:102DD00001300D3B5A4253410278DBB2002AEED15A
:102DE00070BD8B691C42FCD10E60ECE78B691C4204
:102DF000ECD08B691C42F9D1E8E7C046ACA70220B1
:102E0000D82E0110D02F0120AC6D0220D81801203F
:102E1000C8610220E4A6022034350120F42E0110FE
:102E200000A902200080034010B5064B064918682F
:102E3000FFF7D4FE0549064805F098FBFFF7BAFCFA
:102E400010BDC046ACA70220B0280110C861022006
:102E5000AC6D022010B52E4B2E4A1968116099886E
:102E600091809B7993712C4B1978FF2935D00842BA
:102E700035D19978FF2930D0084233D11979FF290B
:102E80002BD0084231D19979FF2926D008422FD181
:102E9000197AFF2921D0084201D0597A1171997A03
:102EA000FF291AD0084201D0D97A5171197BFF2924
:102EB00013D0084225D1997BFF290ED0084223D197
:102EC000197CFF2909D01400084214D0597C013420
:102ED000E171997C0233FF29F6D1100010BD5978B9
:102EE0001170C6E7D9785170C8E759799170CAE76F
:102EF000D979D170CCE7997C01340233FF29E3D131
:102F0000EBE7597B9171D6E7D97BD171D8E7C04601
:102F100008240110E018012020140020F0B5DE463E
:102F200057464E4645460023E0B585B00393C94C4D
:102F3000C94B20681B68834219D0C84A537C59B2D8
:102F4000002914DBC6490D7A102129420FD11942FC
:102F50000DD0FA21C34B89001B5C0130937405F03E
:102F600097FB2160FEF72AF8BF48FEF707FBBF4B2F
:102F70009A461B68012B00D1D8E0BD4B0A211A6884
:102F800001321A60186805F083FB002900D19FE028
:102F9000B84DB94E2A6833689A423BD0202302AA22
:102FA00013802B68B54F5A1C2A60FC5C02ABE4B25C
:102FB00028681C70B24905F06BFB2960142C00D105
:102FC00093E0B04B9946B04B984614E02A683368BA
:102FD0009A421FD0202302AA13802B68A8495A1CAA
:102FE0002A60FC5C02ABE4B228681C7005F050FB60
:102FF0002960142C79D0002CE8D002A948460AF0A8
:103000001BFA434642461B68013313602A68336843
:103010009A42DFD19D4B1C68002C00D0B2E0994B46
:103020009B4A99461B789246D35C1B071BD5964B4F
:10303000A34698461D68974B4F461C002A009649A8
:10304000200006F0FBFA2A002100380006F0F6FA0C
:10305000434652466E1E1E603B783500D35C082204
:103060001A42EBD15C468D4D4E460DE0022B07D146
:103070002000AB689847002802D02000EB689847F2
:1030800001341035262C0CD02B78012BEED1696839
:10309000300000F05DFD0028EFD101341035262C02
:1030A000F2D17F4A1368002B39D07E4E3368002B53
:1030B00000D0C0E07C4C7D4D23685900C8188000CA
:1030C000285C062800D9A1E0794F8000385887464F
:1030D000784C2368002B50D057310320FDF77CFF3C
:1030E00023685A425341236052E753461B68032129
:1030F000581C05F0CDFA53466F4D0C0019600C2298
:103100006E49280006F09AFA012C00D181E0022CC9
:1031100000D18AE0002C00D181E0FFF74BFB05B025
:103120003CBC90469946A246AB46F0BD644B1C6839
:10313000002C00D021E7634B1E68634B1968994649
:103140008E4200D119E7614B7F2798465A4D2C706B
:10315000013D4346481C5B5CFA2101343B402B5542
:10316000890005F095FA8E42F3D14B461E6000238C
:1031700001352B55FFF71EFBFFE620210320FDF74D
:103180002BFFADE7524B1D68002D00DC33E13E4BB9
:103190001C689846002CC2DD4E4B9A461B685E1C8C
:1031A000384B99463B4B9B4602E001363C1EB6D05D
:1031B0004B461B78220038495846019306F03EFAE8
:1031C00022005946484606F039FA4246671E176003
:1031D0005246019B1660404A013D93553C4B1D6091
:1031E000002DE2D10023294A13603C4B1B6898470D
:1031F00095E7CB189B00EB189B68984723685A000B
:10320000D2189200AA5C042A00D188E70133236017
:1032100085E710223249280006F010FA7DE70922DE
:103220003049280006F00AFA77E70E222E492800D6
:1032300006F004FA71E702F075FD2C4A53688B42E0
:1032400000D96CE703D11368834200D967E70023F4
:10325000336064E7642F0120602F012000540120B7
:103260008453012098690220F0FF00005C2E0120A9
:10327000D02F01207C3401207834012020850220C9
:1032800088130000089F0220643401208C2F012045
:10329000E5370110507D0220099F0220F024011023
:1032A000E8350120E0350120E4350120EC1801204B
:1032B00010230110E8180120AC6D0220242F01100A
:1032C0008C350120802F0120842F0120E05D022019
:1032D0006C2F01204C7D02200F560220049F0220FB
:1032E0003C2F0110302F01104C2F0110682A0120B3
:1032F00043480778002F89D0424B0D2102269E5F5C
:10330000002398468C46202241463F4B00290FD18E
:10331000BE4214D099690A42FCD11F600178013085
:103320000D394F4279410778C9B2002FEED165E7D8
:1033300099690A42F1D099690A42F9D1EDE7996990
:103340000A42FCD161461960E4E700231360E6E617
:103350002E4ACB1890469B00EB1803AA41465868AA
:1033600009F0A6FF0123336002F0DCFC039A53014D
:103370009B1A9B009B18DB001E00DF178019794108
:10338000234B186059604146224805F0EFF835E7B5
:10339000CB18214F9B00EB185968380005F0E6F870
:1033A0003E78002E00D129E7164B380002229B5EA2
:1033B000002120220D279C46134B00290FD1B44534
:1033C00014D099690A42FCD11E60017801300D3990
:1033D0004E4271410678C9B2002EEED10EE79969CE
:1033E0000A42F1D099690A42F9D1EDE799690A4296
:1033F000FCD11F60E5E7002D00D1F3E68FE6C04663
:10340000AC6D022000A90220008003405C2F011057
:10341000682A0120EC9E0220E4A60220F0B5C646F0
:1034200000B5944D82B02B68002B1CD1924C2368C0
:10343000002B00D07CE0914C2368002B00D090E062
:103440008F4C2368002B00D0A2E08E4C2368002B09
:1034500000D0B4E08C4D2B68002B00D0E7E002B028
:1034600004BC9046F0BD002398466B46424601AC32
:103470001A7001216A46DE2000F002FB802622003D
:103480000121DF2000F0F2F94246237876423343EF
:10349000227002212200DE200D27637000F0F0FA76
:1034A0006B466A460121DE201F7000F0E9FA220017
:1034B0000121DF2000F0DAF92378220033430221D2
:1034C000DE206370277000F0DBFA6B466A4601214C
:1034D000DE201F7000F0D4FA22000121DF2000F06E
:1034E000C5F9237822001E430221DE206670277072
:1034F000072600F0C5FA6B466A460121DE201E70E1
:1035000000F0BEFA22000121DF2000F0AFF97F2396
:10351000227802211340DE2022006370267000F022
:10352000AFFA4346544C2B602368002B00D182E74E
:103530006B4600256A460121DE2001AE1D7000F0B9
:103540009FFA32000121DF2000F090F97F233278CA
:1035500025601340494C4D4A13602368002B00D16D
:103560006EE701236A460121DE2001AD137000F0F1
:1035700087FA2A000121DF2000F078F9444B2A78ED
:103580001A60002323603E4C2368002B00D15CE7C7
:1035900002236A460121DE2001AD137000F070FAAB
:1035A0002A000121DF2000F061F93A4B2A781A60E5
:1035B00000232360334C2368002B00D14AE76B467D
:1035C000002701AD6A460121DE201F7000F058FA85
:1035D0002A000121DF2000F049F97F232A782E4EAE
:1035E00013402E4A0121B35401236A46DE20137092
:1035F00000F046FA2A000121DF2000F037F92A788E
:10360000274B0121F25402236A46DE20137000F09A
:1036100037FA2A000121DF2000F028F92A78214B0F
:10362000194DF2542B682760002B00D117E70027B3
:10363000194E1A4B01ACF35C22000221DE206370AC
:10364000277000F01DFA0122154B0221F35CDE20E9
:1036500022702200637000F013FA0222114B022143
:10366000F35CDE2022702200637000F009FA2F6004
:10367000F5E6C04678350120583501205435012043
:10368000503501207C350120743501207035012032
:103690006C3501206835012000540120CA2000004B
:1036A000C9200000C8200000014B18607047C046C8
:1036B000041B01200123154A84B012689340019233
:1036C000D02212065362936100230393039B042BC1
:1036D00005DC039B01330393039B042BF9DD0123DA
:1036E0000B4A126893400192D022120653629361F2
:1036F00000230293029B042B05DC029B01330293FF
:10370000029B042BF9DD04B07047C046BC200110B9
:10371000B820011001221B4B86B01B6801939A4010
:10372000D0231B065A629A6100230593059B042B44
:1037300005DC059B01330593059B042BF9DD012373
:10374000114909688B400191D02109068B62002341
:103750000493049B042B05DC049B01330493049B1A
:10376000042BF9DDD0231B069A6200230393039BED
:10377000042B05DC039B01330393039B042BF9DD2E
:1037800006B07047BC200110B82001100121F0B52F
:103790000E00344FD0223B6808249E40324B002557
:1037A0001B6889B099400193120643B2002B55DB88
:1037B000566296610595059B042B05DC059B01333C
:1037C0000593059B042BF9DD91620495049B042B62
:1037D00005DC049B01330493049B042BF9DD516247
:1037E00091610395039B042B05DC039B0133039339
:1037F000039B042BF9DD4000013CC0B2002CD4D166
:1038000001203B6801939840D0231B06986299627F
:103810000694069B042B05DC069B01330693069B4E
:10382000042BF9DDD0246423240602E0013B002BA5
:1038300016D062680242F9D10120D0231B065962DA
:10384000996100230793079B042B05DC079B013339
:103850000793079B042BF9DD09B0F0BD9662A9E739
:103860000020EAE7BC200110B8200110F0B54E4658
:1038700057464546DE46E0B501257F4B93B0994655
:103880001B6801929D401F00D0231B065D629D6155
:1038900000230593059B0E00042B05DC059B0133DB
:1038A0000593059B042BF9DD0124744B03931B68DE
:1038B00000939C40D0231B065C629C61002306930E
:1038C000069B042B05DC069B01330693069B042B09
:1038D000F9DDFFF75BFF002800D19BE0731E029328
:1038E0000020002E61DD0123D02200219A46BB4634
:1038F000B44612060827002395620C910C9E042EF4
:1039000005DC0C9E01360C960C9E042EF9DD9462AB
:103910000D910D9E042E05DC0D9E01360D960D9E1B
:10392000042EF9DD5E0000965E465368F34056466D
:103930003340009E5462B04694610E910E9E434403
:10394000042E05DC0E9E01360E960E9E042EF9DD29
:10395000013F002FD1D1029E864259D05562956118
:1039600094620A910A9F042F05DC0A9E01360A968A
:103970000A9E042EF9DD546294610B910B9F042F73
:1039800005DC0B9E01360B960B9E042EF9DD019E85
:10399000335401308445ADD101244B4625001B68CA
:1039A0009D40039B1B689C400093D0231B065D62D7
:1039B0009D6100230F930F9B042B05DC0F9B0133AC
:1039C0000F930F9B042BF9DDD0231B069C62002371
:1039D0001093109B042B05DC109B01331093109B5C
:1039E000042BF9DDD0231B069D6200231193119B4C
:1039F000042B05DC119B01331193119B042BF9DD82
:103A0000012013B03CBC90469946A246AB46F0BD9F
:103A10009562A5E7D0231B065D629D610790079B19
:103A2000042B05DC079B01330793079B042BF9DD6F
:103A3000D0231B069C6200230893089B042B05DC03
:103A4000089B01330893089B042BF9DDD0231B0648
:103A50009D6200230993099B042BD2DC099B01334F
:103A60000993099B042BCCDC099B01330993099B27
:103A7000042BF3DDC5E7C046BC200110B8200110BF
:103A8000F0B50125304B89B01B680F0001939D40B4
:103A9000D0231B065D629D6100230393039B1400EA
:103AA000042B05DC039B01330393039B042BF9DDFB
:103AB0000126264B1B6801939E40D0231B065E62A5
:103AC0009E6100230493049B042B05DC049B0133BB
:103AD0000493049B042BF9DDFFF758FE002F06DD4D
:103AE000E71920780134FFF751FEA742F9D1D0231E
:103AF0001B065D629D6100230593059B042B05DC7D
:103B0000059B01330593059B042BF9DDD0231B0690
:103B10009E6200230693069B042B05DC069B013363
:103B20000693069B042BF9DDD0231B069D62002320
:103B30000793079B042B05DC079B01330793079B27
:103B4000042BF9DD09B0F0BDBC200110B820011034
:103B5000F0B5DE46574645464E460024E0B50D001A
:103B6000B94B97B01C60B94B01911C60B84B3C221B
:103B700080460021B7489A461C6005F059FDB64BB7
:103B8000B64A1C701C7593462B78B54A00270292E2
:103B9000002B19D041460E1930782200002800D1A0
:103BA000F2E0791C202B2AD0252B0FD0013498422B
:103BB00000D081E0534652461B6801331360019BDD
:103BC0005B5C0F00002BE5D1012076E0019B5D18C6
:103BD0002B78002B00D1DDE15B2B00D185E028D8CC
:103BE000252BEED10134252866D1534652461B6859
:103BF000B91C01331360019B0F005B5CE2E7019B82
:103C00005E185B461B5C1B0710D5534608208C468C
:103C100047461D68514601342B199B1A0B605946C3
:103C20003B5DCB5C1842F5D16146B84633780F0056
:103C3000C8E7642B01D0782BC3D1012291464246BC
:103C40000026B8462F0015001CE0782B34D1442103
:103C50002B5D824AD25C114200D171E120220BA877
:103C600002800021103A037009F04EFE36018619D9
:103C7000534652461B680134013313602B5D002B01
:103C800063D03B78642BE0D1744A2B5DD15C042275
:103C90000A4219D12D2B50D04746A846002C0BD0F4
:103CA00043461B19013B1B786C49C95C0A4200D092
:103CB00055E12D2B00D152E1002017B03CBC9046BD
:103CC0009946A246AB46F0BD20220BA802800370A5
:103CD0002D2B06D0B3009E1908F060FA7600361836
:103CE000C6E701235B429946C2E7584B5A491A6816
:103CF000019D9446930003920022089363449B0025
:103D0000CA54B91C6B5C0791002BD5D05D2B00D138
:103D100048E1AC460AA86144033707300D00A446C9
:103D200004E05D2B39D00A002629C5D0511C43542C
:103D30006B5CBC18002BF4D1BEE720210BAA1180CC
:103D4000137001235B42994692E7019B47469C46CC
:103D50006744BB78002BAFD13B4B3B481B68591CD9
:103D600001604846704302003A489B00C25001205F
:103D70000E29A2DD3B4B3C4A00201A6062463B4BB9
:103D80001A603B4B196098E7202B95D1019B9C460C
:103D900067447878434258418FE707946446262960
:103DA00000D189E7023200230CAD6B54AB54029A68
:103DB0002800136009F0B4FB0590002800D18BE0C7
:103DC000012200230692B446099419E06846077E52
:103DD00002980068441C0494AC5C2D2C00D185E052
:103DE00043001B1823489B0081461F544B445960D5
:103DF0009960029B049919601300059A934209D2B5
:103E0000E95C5A1C5E29E1D1022306931300059A4E
:103E10009342F5D366463278099C002A5CD0039918
:103E2000089B8C460C4963449F008C463B006344CE
:103E30001900029B1B680493002B4DDD651C0BAE23
:103E40004446884632E0C046A4340120AC34012008
:103E5000A8340120ACA70220D8A80220E537011021
:103E6000B0340120081B0120602F01100C1B012021
:103E7000A0340120E8A70220914202DC9968914217
:103E800021DA039B022B00D116E7002331004046C4
:103E90007370327009F0D0FA534652461B682F00F7
:103EA00001331360625D002A14D0013500218C4675
:103EB0003E4B6F1E187859680128DDD1914202DC13
:103EC00099689142DDDA012189460499CC440C338A
:103ED0008C45EFD1A0463C00039B354A013307993E
:103EE0001360019B01315B5C0F006BE69A1CAE5CBA
:103EF000002E17D12D49430089461B189B005F54A3
:103F0000411C4B4489465C609C604B0027494B44F4
:103F100089469B005F544B445C609C60029B02306E
:103F2000186069E742001218204892008146175431
:103F30004A44516096600499029A1160DA1C5BE76A
:103F40004746A846002C00D1B6E643461B19013B64
:103F5000184A1B78D35C44221A4200D1ACE6164BB7
:103F6000154A1B68591C11604A4672431600134AD1
:103F70009B00D6500E2904DC019BB91C5B5C0F0032
:103F800020E60F4B0F4A1A600F4B019A1A600F4B35
:103F9000196091E60A4B0E4A00201A600A4B019AFA
:103FA0001A608AE601220021FDE6C046E8A7022049
:103FB000AC340120E5370110A4340120ACA7022065
:103FC000081B0120602F01100C1B0120A0340120D0
:103FD0006C2F0110F0B5040083B00D000F201F00FE
:103FE0001600FFF761FBFE2001AA6DBA1580204084
:103FF0000221FFF745FD012020433A003100C0B205
:10400000FFF734FC03B0F0BDF8B507000F200E0039
:1040100015001C00FFF748FBFFF74CFBFE20384063
:10402000FFF7B4FB3012C0B2FFF7B0FBF0B2FFF7FE
:10403000ADFB002D06DD651920780134FFF7A6FBE6
:10404000AC42F9D1FFF766FB042001F083FDF8BD17
:10405000344BF0B54646984684224F460023D64658
:104060004146FF32C0B58B54013A8B5480234446FD
:104070005B02C246002500279946803453461A78D1
:104080000133BF18BFB2A342F9D10F20FFF70CFBD9
:10409000FFF710FBA020FFF779FB2812C0B2FFF753
:1040A00075FBE8B2FFF772FB564630780136FFF732
:1040B0006DFBA642F9D1FFF72DFB042001F04AFD6C
:1040C000802334009C468035E24480344D45D5D170
:1040D000154B8424C1251F8043463A0A6D00FF34E6
:1040E0000F205A551F55FFF7DFFAFFF7E3FAA0201C
:1040F000FFF74CFB0120FFF749FB8220FFF746FB4F
:104100004346585DFFF742FB4346185DFFF73EFB11
:10411000FFF700FB042001F01DFD1CBC90469946F2
:10412000A246F0BD00540120EC350120254BF0B52E
:104130004546DE4698469B46802357464E465B449E
:10414000E0B599461D0080235B02002600249A46B4
:1041500083B001AF0F20FFF7A7FA73BA3A0002212C
:10416000A0203B80FFF78CFC42468021A120FFF776
:104170007DFB43461A780133A418A4B2AB42F9D1AF
:1041800080338036C8461D00564503D080239C46A8
:10419000E144DFE7C1235A465B00D35C84225946E1
:1041A000FF32895C1A025B18E41A0748074B8A1829
:1041B00002801C8003B03CBC90469946A246AB46A8
:1041C000F0BDC04600540120F0350120EE3501203D
:1041D00000230121034A1360034B19601368002B6D
:1041E000FCD07047503001204830012010B51C4CE5
:1041F0002368002B04D11B4C2368002B19D110BD60
:10420000194A01210120FCF7E9FCFCF7EFFE00232D
:104210002360FFF71DFF0122144B01211A600320C8
:10422000134AFCF7DBFCFCF7E1FE0E4C2368002B85
:10423000E5D0104A01210120FCF7D0FCFCF7D6FEA6
:1042400000232360FFF772FF01220B4B01211A604C
:1042500003200A4AFCF7C2FCFCF7C8FECFE7C046C1
:10426000483001204C300120882F011050300120AF
:10427000942F0110A02F011054300120B02F0110F5
:104280007047C0460121034B1A6812681A60024A3F
:1042900011607047101B0120B83401200122034B2C
:1042A0001A60034B034A1A607047C046B8340120B5
:1042B000101B0120281B01200122034B1A60034B15
:1042C000034A1A607047C046B8340120101B012011
:1042D000641B01200122034B1A60034B034A1A603E
:1042E0007047C046B8340120101B0120AC1B0120D0
:1042F0000122014B1A6070477C3501200122014BDD
:104300001A6070477435012070B50026FCF7C4FCB4
:104310000E4A00210020FCF761FC0D4C0D4DFCF70E
:104320003BF92368002BFAD03D2201210220FCF743
:104330000DFC2A7801210320FCF708FC2B7826606D
:104340006F2BECD10122044B1A6070BDCC2F0110F1
:104350005C300120FE350120B834012010B5FCF797
:1043600093FD10BD802110B5034B50224901A320BD
:10437000FFF74AFE10BDC046FF74012084221121C0
:1043800010B50E4BFF3299547231FF315A5CA020A8
:1043900001325A545B180222FFF736FEFCF77CFC10
:1043A000074A00210020FCF719FCFCF7F5F8054846
:1043B00001F0D0FB0122044B1A6010BD0054012013
:1043C000C02F0110B80B0000B8340120802110B5B7
:1043D000034B50224901A320FFF7FCFD10BDC0464E
:1043E000FF74012000B595B06B4650220649A1200C
:1043F000FFF7F0FD80216B4650224901A220FFF714
:1044000003FE15B000BDC046FF20000070B5FCF7EC
:10441000DFFA002500242000012229000134FCF7E6
:104420001BFB792CF7D10A35282DF3D10025002468
:104430002100012228000134FCF70EFB1F2CF7D1CC
:104440000A35822DF3D10025054C064EFCF7A4F861
:104450002368002BFAD0337825606F2BF6D170BD1E
:104460005C300120FE3501207047C0467047C046D1
:104470007047C0467047C0467047C0467047C04648
:1044800070B52C4D2C68002C30D0012C26D12A4B35
:104490001868FCF70DF8294B8010186083063BD490
:1044A000C30637D0264B00021A681043254A18600D
:1044B000136898423BD01300083303E001340833FB
:1044C000232C27D019688842F8D1E40012191279F8
:1044D0001D4B2C681A7001221C4B1A6001230134F9
:1044E000E20FA4181C40A41A2C6070BD8021184B48
:1044F000184C1A881140228811431980164B082243
:104500001868FCF705F823680D4A13605B00236008
:10451000802B08D02C68E1E76F220B4B1A700B4BF5
:104520001C602C68DAE7012323602C68D6E700249E
:10453000CBE7C04688350120C0200110803401201F
:1045400084340120541C0120FE3501205C30012000
:10455000F43501206C1D0120C4200110F0B5C646C1
:104560002A4B00B598461B68002B1CD1284B1A68B3
:10457000002A15D000221A60264B1C68237B262BAC
:104580000ED0254A1078834235D0230000211833FD
:1045900002E00C3382422FD01A780131262AF8D15A
:1045A00004BC9046F0BD002342461360FCF774FB48
:1045B000184E31680B7B262B1AD000250023174F8D
:1045C0005B199C0009190869FCF746FC3368013542
:1045D0009C4664442069FCF7B9FB3800FCF7B6FB45
:1045E0006B0031685A1992008A18127B262AE7D18B
:1045F0008B689847BAE700214B0059188900641866
:1046000063699847012342461360C9E7B834012023
:104610005C300120101B0120FE350120AC2E011062
:10462000094B10B51A88094B1A60FCF7FFFDFCF71F
:1046300033FB0022064B1A60064B01321A60064B10
:10464000064A1A6010BDC046F435012080350120AD
:10465000B4340120B8340120101B0120E81B0120D4
:1046600070B52D4D2C68002C32D0012C26D12B4B4F
:104670001868FBF71DFF2A4B8010186083063DD495
:10468000C30639D0274B00021A681043264A186027
:10469000136898423DD01300083303E00134083317
:1046A000232C29D019688842F8D1E4001219127914
:1046B0001E4B2C681A7001221D4B1A600123013415
:1046C000E20FA4181C40A41A2C60FFF747FF70BD2E
:1046D0008021184B184C1A881140228811431980E8
:1046E000164B08221868FBF713FF23680D4A136066
:1046F0005B002360802B08D02C68DFE76F220B4B18
:104700001A700B4B1C602C68D8E7012323602C68BF
:10471000D4E70024C9E7C04688350120C020011035
:104720008034012084340120541C0120FE350120F6
:104730005C300120F43501206C1D0120C4200110E3
:104740001A4B70B51A680A21501C186003F0A0FFBC
:10475000174A002910D17B23D156164BC80F186079
:10476000154B5C689D68DE681C601C695D609E601E
:10477000DC601861002907DB7423D35C002B02D0B6
:1047800000220E4B1A6070BD012CF5D13543F3D1D8
:104790000A48036801330360042BEDD108490C601B
:1047A0000B68002BFCD10360E6E7C0469C35012076
:1047B0000054012098350120141B0120A035012050
:1047C000BC2F01200022014B1A60704738350120B0
:1047D0000E4B10B519680E4805F0DCF90D4B0E486C
:1047E000196805F0D7F90D4805F0D4F90C4805F023
:1047F000D1F90C4C0C48218805F0CCF96388E2799A
:10480000A1790A4805F0C6F910BDC0464C35012013
:10481000B830011064350120D0300110E8300110AB
:10482000FC30011084530120103101101C310110A3
:1048300070B50D4C0D48216805F0ACF90C4D002108
:10484000280005F0A7F923681C00303C392B01DD56
:10485000573B1C002100280005F09CF9054B1A6805
:1048600011012143196070BD8834012054300110BA
:104870005C30011038350120A522A62170B5154BFA
:1048800015489A5C5E5C1202B618A72202319A5C47
:104890005D5C1202AD18A92202319A5C5C5C1202C6
:1048A000A4180E4A0E499A5C595C12028918B6B2D5
:1048B00089B205F06FF9ADB231000A4805F06AF926
:1048C000A4B22900084805F065F92100074805F061
:1048D00061F970BD005401206430011065200000B2
:1048E00066200000743001108430011094300110F3
:1048F00070B50A2005F00CF80B4C0C4E2500213544
:10490000FF35626813782A2B03D02178300005F038
:1049100041F90C34AC42F4D1054805F03BF90A20CA
:1049200004F0F6FF70BDC046701D01207C310110FF
:1049300088310110F0B5DE4657464E464546E0B593
:104940000A208BB004F0E4FF002302AE33702E4B3C
:104950002E4F99462E4B3C6898462E4B9B462E4B2D
:104960009A4621E0C0222D4B1202E318944202DC49
:104970002B4A12689B182B4A4846D55C290005F043
:1049800009F9434668225B5D934325D02A002649F6
:10499000684603F0EBFD6946300008F04DFD3B68CA
:1049A0000134FF33A34225DB0725254018D01F4BD8
:1049B0009C42D7DC1E4A2300944202DD1D4B1B683B
:1049C000E3185246D55C4846290005F0E3F8434613
:1049D00068225B5D9343D9D12E236A461380DAE7C0
:1049E0003100584605F0D6F821001348357005F01F
:1049F000D1F8DCE70A2004F08BFF0BB03CBC9046FA
:104A00009946A246AB46F0BDA82E011038350120CC
:104A1000E5370110A4300110005401200080FFFF91
:104A20006435012090180020B4300110FF7F000091
:104A3000FF3F00004C350120AC300110F0B5DE46E0
:104A400057464E464546E0B51F4B89B09B461B680E
:104A5000002B2FDD1D4B002498461D491D4A630085
:104A6000D25A0D5D1C4992B20E5D1C490792CF5A75
:104A70001B49EDB2CB5AF6B29BB2994643461B5D39
:104A8000BFB2DBB29A464346185DC0B2FEF7E2F908
:104A9000534603934B460490029321002B00019749
:104AA0000096079A0F4805F075F85B461B680134BD
:104AB000A342D2DC0A2004F02BFF09B03CBC904694
:104AC0009946A246AB46F0BD442E0120F449012090
:104AD00070460120603801203C3E012094400120B6
:104AE000EC4201203C310110F0B54546DE46574608
:104AF0004E46234BE0B51C68224B0025984689B0F2
:104B00002149224A6300D25A0E5D214992B20F5DBB
:104B100020490792CA5AF6B291B289461E49FFB29D
:104B2000CB5A9BB29A4643461B5DDBB29B4643463B
:104B3000185DC0B2FEF78EF95B46039353460293AD
:104B40004B46290004900193079A330000971348BD
:104B500005F020F89621601C490003F099FD96238A
:104B600001350C005B009D42CAD10A2004F0D0FE42
:104B700009B03CBC90469946A246AB46F0BDC04643
:104B8000482E012044450120683F0120E43B0120DC
:104B9000B83A01209C470120083601203C31011021
:104BA00010B5034803F046FD00210300002098479C
:104BB0005542000010B5642005F000F8431C1BD0DE
:104BC0000F4C2378984218D0220001230C3203E0C6
:104BD00001330C32182B0FD011788142F8D1094AD9
:104BE00010605A00D3189B00E418A3689847064B3E
:104BF0000648196804F0CEFF10BD0023EFE7C04659
:104C0000701D01208834012038350120AC3101109D
:104C1000F0B583B005000E00140000F02DF9002857
:104C200001D003B0F0BD154F01223B0000970121D8
:104C3000053001F0BDFD33002A0000940121104829
:104C400001F0CCFF21002800714303F049FD04006E
:104C50000C4B002200930221042001F0A9FD230047
:104C6000009400220121052001F0A2FD00973B00E5
:104C700002220021062001F09BFDD2E7006CDC023D
:104C800000800240001BB700F0B5DE4657464E4696
:104C90004546E0B585B003934A4B0700994640234B
:104CA000FF339B4601910292474B994500D186E024
:104CB000464E474B4E440624994565D8651C29004D
:104CC0003000694303F00CFD874245D0002C5BD0D7
:104CD00029003000614303F003FD87425CD0631E6E
:104CE0009846002B2FD019003000694303F0F8FCE0
:104CF000874254D0A31E9A46002B24D019003000BE
:104D0000694303F0EDFC87424DD0E31E9A46002B29
:104D100019D019003000694303F0E2FC874246D005
:104D2000231F9A46002B0ED019003000694303F070
:104D3000D7FC87423FD0052C05D02900300003F076
:104D4000CFFC87421CD04446651C290030006943D3
:104D500003F0C6FC8742B9D10029B7D12C005A46CE
:104D600001201C4B5343019A1360029B1D60039B5F
:104D70001C6005B03CBC90469946A246AB46F0BDCF
:104D80000029E0D10124EAE701235B429C46124B53
:104D9000E3449C46E14487E70029A0D1DFE70029EE
:104DA000A8D14446DBE70029AFD15446D7E7002914
:104DB000B6D15446D3E70029BDD15446CFE70020F1
:104DC000D7E7C04670F72E00704DF7FFB0710B00AB
:104DD00050F80C00001BB70020D1FFFF094A8300E8
:104DE00094464022634410B51C68C0006240C02451
:104DF00014408022520113431C60034B9C466044C4
:104E0000416010BD04C00140004001400A4B8000D9
:104E10009C4604236044002901D00C230821002A69
:104E200000D10B00026853400C221A4080235B0122
:104E3000184302607047C04604C001400123D022DD
:104E40008340120693629361094A8300944640228C
:104E500063441968C0004A40C021114080225201B9
:104E600013431960034B9C4605236044436070471D
:104E700004C0014000400140024B18688007C00F89
:104E80007047C04600C00640F8B5EFF3108772B611
:104E90000D4E3368002BFCD0BFF35F8F0725CB0886
:104EA000C01801230D40AB401D000478254007D1F8
:104EB00023430370BFF35F8F356087F31088F8BD1D
:104EC000100001F0F7FFC0462C0100D0F8B5CE4627
:104ED00047468C4680B5EFF3108872B6214D2C689A
:104EE000002CFCD0BFF35F8F9A422CD807210125FC
:104EF00011408D40D4080419267835421FD007216F
:104F00008946063909E04D460F001540AF40D408E8
:104F1000041926783D00374211D001329342F2D273
:104F200001204042BFF35F8F00220E4B1A6088F3CE
:104F3000108800280FDB0CBC90469946F8BD35431D
:104F400025701000EEE7BFF35F8F00232B6088F31E
:104F50001088012040426346002BECD0089801F0F5
:104F6000A9FFC0462C0100D00021044B044ABFF326
:104F70005F8F02C39342FAD17047C046000100D050
:104F8000800100D0044A1078431CDBB2172B00D9F3
:104F9000102313707047C046901E012000B5054BCA
:104FA00083B00100009318221F230348FFF78EFFF0
:104FB00003B000BD48320110882F01200123834037
:104FC000002904D0034A1360034A13607047034A60
:104FD0001360FBE780E200E000E100E080E100E038
:104FE00001238340014A13607047C04600E200E09D
:104FF000084B10309B688000C358002B07D0064A2E
:1050000000209B1A2F229A424041C0B270470020D4
:10501000FCE7C04600ED00E0941E0120024B10307A
:105020009B688000C058704700ED00E070B50D002F
:10503000EFF3108672B60F4A1368002BFCD0BFF353
:105040005F8F0D4B10309B6884001B590B4A9342B5
:1050500003D09D4201D001F045FF074B9B681D51D5
:10506000BFF35F8FBFF35F8F0022024B1A6086F39E
:10507000108870BD240100D000ED00E0CD010010CB
:10508000F8B557464546DE464E468A46E0B5904658
:105090000700EFF3108972B65F4A1368002BFCD04B
:1050A000BFF35F8F00205D4B18569B46002800DA47
:1050B000A2E05A4644005A4D2418A4002E19B37990
:1050C00010371370574BBA009B68934699584B1B87
:1050D0002F2B41D801230A009A43D37994464345A4
:1050E00014D90627D7571300002F06DA8DE00627BC
:1050F000DF571A00002F00DA87E07B00DB199B00E6
:10510000EB18DF794745F2D8002A51D1464A634669
:105110005B1B5B415A43120D444BA11C3380444B33
:105120006918043B5B1A1B0542495B0D0B437380F6
:1051300063460434043B2D195D1B43462D05F37172
:105140006D0D53462943B180B27101216246B360AF
:10515000394B3143136018E0384B994252D1334BED
:1051600002343380324B2D19043B5D1B2D05314B2E
:105170006D0D1D43324B0121B380FF23B3714346B4
:10518000F37153467580B36031435A46254B9B6893
:105190009950BFF35F8FBFF35F8F00221E4B1A60E1
:1051A00089F310883CBC90469946A246AB46F8BDB0
:1051B0000627D757131D9C46002F2BDB04342D19CF
:1051C000E024938824025B051B1563445B1B1B05CD
:1051D0005B0D23436546341F641B2405154D640D88
:1051E0002C4394809071B3804346F3715346124A26
:1051F000B7713260B360C8E701F074FE5B4600200F
:10520000185656E701F06EFEA9E71A1D94461A00DB
:105210000C4BDFE70B4BDDE7240100D0FC35012010
:10522000941E012000ED00E0AAAA000000A1FFFFEB
:10523000C41E012000E0FFFF01488047CD0100109F
:1052400001BDFFFF01BD0000F0B54546DE465746F3
:105250004E46E0B50D0083B0EFF3108972B6584AA0
:105260001368002BFCD0BFF35F8F564B9A68030086
:1052700010339F00D459544A9046944234D0AC42E3
:1052800045D0524EA21B2F2A2ED801228240924690
:1052900051464F4A12681140019151464D4A1160E2
:1052A000BFF35F8FEFF305829346002A35D10123C8
:1052B000220006219A43936851569D420AD16AE022
:1052C0004B005B1806219B00F31898685956A842BA
:1052D00028D01A000029F3DA019B002B19D052467E
:1052E0003D4B1A603A4B1A60364B9B68DC51BFF35A
:1052F0005F8FBFF35F8F0022314B1A6089F31088F4
:1053000003B03CBC90469946A246AB46F0BD1400A3
:10531000EAE752462F4B1A60E6E79342C7D001F006
:10532000E1FDC4E7002921DB4A0050188000351850
:105330008046A8689860E879D87106202856987148
:10534000002826DBAD88F01A6D052D15454440195F
:10535000E0250005400D2D022843988052181F4B70
:105360009200B6181A781970B271B5E7594600293B
:1053700017D1002A22D0FF31917119499180174924
:105380000A789A71174A9B1B5B415A43120D0A70A7
:10539000A2E71548E1E713000029C5DA5A46002ABA
:1053A0000CD0124A1249D21A083A5002400D014359
:1053B0009980104952080A43DA808DE74446DEE7B7
:1053C000240100D000ED00E0CD010010941E01206A
:1053D00000E100E080E100E080E200E0FC35012037
:1053E00001BDFFFFAAAA000001BD0000CE1E0120E2
:1053F00000F0FFFF00F8FFFFF0B5EFF30581012497
:105400000443EFF3108672B6214A1368002BFCD0D8
:10541000BFF35F8F1F4B204A0500ED1A6D416A43B1
:10542000120D1E4D8900AF6852B27F58A7421CD0A2
:105430000621595691421CD012215956914222D030
:105440001E215956914220D02A21595603249142B7
:1054500010D0134B19781A708171BFF35F8F00223F
:105460000B4B1A6086F31088F0BDAB680D4C5C5096
:10547000EFE700246100091989005B18FF21997189
:1054800009499980E5E70124F4E70224F2E7C046E0
:10549000240100D0941E0120AAAA000000ED00E023
:1054A000FC350120CD01001001BDFFFF054B064A70
:1054B0001360064A136053609360D36013615361B5
:1054C000936170478080808000E400E004E400E0A5
:1054D00000B5074B83B00100009300220523054867
:1054E000FFF7F4FC002801DB1F23181A03B000BDEE
:1054F0006432011004360120024B9C46614489004D
:10550000016070474000003410B50400FFF73AFD19
:1055100001002000FFF7F0FFFF232371BFF35F8F2F
:1055200010BDC04610B50400FFF72CFD010020009F
:10553000FFF7E2FFFF23A380BFF35F8F10BDC046DC
:1055400010B504000120FFF729FD044B9C46604480
:1055500080002060BFF35F8F10BDC0464000003464
:10556000034B9C46614489000160BFF35F8F704725
:105570004000003470B506000D00140000291ED054
:10558000002A1ED073688068984763006A001B1960
:105590005219033B033A3168002808D0CB188A1807
:1055A0009D70117800290ED11470280008E08A1827
:1055B000CB1894701978002900D051701D7020000C
:1055C00070BD0800FCE7597028001470F8E7C04669
:1055D00083680B4810B58446614462440901120196
:1055E0009A18591854684B6801209C4201D802D07F
:1055F0000020C0B210BD12680B689A42F9D8F7E7D4
:10560000FFFFFF0F0A4B1968EFF3108072B60A68AC
:10561000002AFCD0BFF35F8F1B68BFF35F8F0022AF
:105620001A6080F3108840BF002000217047C046F8
:10563000A4350120F8B54746CE4680B514001D00BC
:105640000BAA0AAB12781B78804691460768002B9C
:1056500012D1BE7B002E44D0720092193968033AF1
:10566000891848783300B873002800D1F8730020F7
:1056700088704870087003E01E005A00D218033A80
:105680001A4938008C464146896863448C461B01A0
:1056900008996344996009991C605D60D9603B6812
:1056A0009C4600236244937053701370797B3200E0
:1056B000FFF760FF7873B04213D143462200187D94
:1056C0002B0000F0C1FB041E07D04B46002B04D179
:1056D00043463100186800F035FF0C9B002B00D0CA
:1056E0001C7030000CBC90469946F8BDFFFFFF0FC0
:1056F000F0B5DE4657464E4645460023E0B58BB032
:105700000893684B8200D45800239B46099000F010
:1057100009FB6268EFF3108572B61368002BFCD0AA
:10572000BFF35F8F23689C465B7B9946002B00D1BB
:105730006DE0A2685C4B90464B441B019844434685
:105740001E685F6832003B00121A8B41002B00DCA0
:1057500067E032003B00099800F076FB002300224E
:10576000984600230692079300239A466368BFF386
:105770005F8F5A461A6085F310885346002B08D174
:105780000028C4D10BB03CBC90469946A246AB461B
:10579000F0BD089B414618024B461843D04762684B
:1057A00006000F00EFF3108572B61368002BFCD0D3
:1057B000BFF35F8F002F52DB33003B4302D02369DE
:1057C000002B63D12368DA7B002A07D051008A18A6
:1057D00019688C4649466244033A51709A7B002A04
:1057E00001D14A469A734A46DA73E2684B469446B8
:1057F000013B63441A7801321A705B462361636887
:10580000BFF35F8F5A461A6085F310887FE7002345
:1058100000229846002306920793002300209A4610
:10582000A4E7002B02D1002A00D092E700216046B5
:1058300000F0A6FD43461A685B680692079343464C
:105840009B689A464346DB689846E3684B44013BB5
:105850001B7808931B0203432361002086E723691A
:10586000002BAFD0069A079B921BBB41002B15DB88
:105870005946049101210391494602914146019103
:10588000514620000091FFF7D5FEB6E700F04AFA36
:1058900032003B0012184B41002BE9DA0122034B86
:1058A0005242E5E73C350120FFFFFF0FFFFFFF7F7E
:1058B00010B5144C6368002B04D00A211248FFF77E
:1058C0001BFE10BD2300114A1021206800F076FB5A
:1058D000032000F01BFA032000F022FB0C490320F8
:1058E00000F06CFAFFF74EFB0A4B9C46032323752E
:1058F000D0231B061B6860446375074B8000606003
:10590000DC60DAE7DC1E0120A4350120D15500104F
:10591000F1560010400000343C350120004870472B
:10592000DC1E0120F0B54E4657464546DE46E0B542
:1059300083B0009201930EAB1B78070099460023B9
:10594000002698467A68EFF3108A72B61368002B27
:10595000FCD0BFF35F8F3D68AC7B002C00D168E0CA
:1059600063001B192A68033BD2185178A346A97318
:10597000002900D1E973967056701670B968384ADC
:105980008C4600980199A21812016244106051607F
:105990000C99280091600D99D1602A68944663445F
:1059A0009E705E701E70697B2200FFF7E3FD6873D6
:1059B000844244D0FB681B19013B18787B68BFF315
:1059C0005F8F1E608AF31088002C45D04346002B61
:1059D00009D15B460002184303B03CBC904699468F
:1059E000A246AB46F0BD4B46002B26D00C9B0D9932
:1059F0000020984703000B431FD004000D1E09DA56
:105A0000009A019B121BAB4100920193002B09DB12
:105A1000C84697E700F086F924184D410094019597
:105A2000002DF5DA01230F4C5B4200930194C84628
:105A300088E7002300209B46C0E70020CCE7387DA4
:105A4000009A019B00F000FA80460028B2D02100A5
:105A5000386800F077FDADE701204042BCE7C04662
:105A6000FFFFFF0FFFFFFF7F407D7047F0B5040091
:105A70000D0006267642F717C64636196F4100B567
:105A800084B08F4214D811D000F04CF932003B00A2
:105A9000121A8B41002B15DC002B3ED02000290070
:105AA00000F07CF904B004BC9046F0BD8642EBD90E
:105AB0000026002700F036F932003B00121A8B4115
:105AC000002BE9DD002302930193154B3200009374
:105AD00014483B00FFF726FF0028DFDB0023984631
