:020000041000EA
:1000000000B5324B212058609868022188439860DF
:10001000D860186158612E4B002199600221596106
:100020000121F02299502B49196001219960352056
:1000300000F044F80222904214D00621196600F024
:1000400034F8196E01211966002018661A6600F04E
:100050002CF8196E196E196E052000F02FF8012189
:100060000842F9D1002199601B49196000215960AB
:100070001A491B48016001219960EB211966A021F2
:10008000196600F012F800219960164914480160C1
:100090000121996001BC002800D000471248134993
:1000A000086003C880F30888084703B5996A0420EC
:1000B0000142FBD001200142F8D103BD02B5186610
:1000C0001866FFF7F2FF186E186E02BD00000240BE
:1000D000000000180000070000035F00212200005C
:1000E000F4000018222000A00001001008ED00E03C
:1000F00000000000000000000000000074B24E7A12
:1001000000200420F7010010C3010010C5010010F9
:10011000C1010010C1010010C1010010C101001097
:10012000C1010010C1010010C1010010C701001081
:10013000C1010010C1010010C9010010CB01001065
:10014000CD010010CD010010CD010010CD01001037
:10015000CD010010CD010010CD010010CD01001027
:10016000CD010010CD010010CD010010CD01001017
:10017000CD010010CD010010CD010010CD01001007
:10018000CD010010CD010010CD010010CD010010F7
:10019000CD010010CD010010CD010010CD010010E7
:1001A000CD010010CD010010CD010010CD010010D7
:1001B000CD010010CD010010CD010010CD010010C7
:1001C00000BE00BE00BE00BE00BE00BE00F04BF888
:1001D000103800BEF2EB88715C7B0110847B01104B
:1001E0003402001090A31AE700202149086006C8D5
:1001F00081F3088810471F48006800282FD10DA4FC
:100200000ECC002902D000F012F8F9E71A491B4A77
:10021000002000E001C19142FCD1194988471949E9
:1002200088471949884700BEFDE701C901C29A42C3
:10023000FBD37047847B0110C0000020D027012031
:1002400094A20210000004200000042094A20210D6
:1002500000100420001004200000000070470B482C
:100260000AF054F90047EFF30580C0B27047000070
:1002700008ED00E0000000D0D027012058AD02209A
:100280002D870010ED050010518800105756000012
:1002900006005250ABB36053486D01100600525037
:1002A000861C0302586D0110060052505422A29D74
:1002B000686D011005005250DE65F46894A20210CA
:1002C000F8B5C0460448054B10B5834203D0044B33
:1002D000002B00D0984710BDD0270120D027012047
:1002E0000000000006480749091A8B10C90FC918F9
:1002F00010B5491003D0044B002B00D0984710BD17
:10030000D0270120D02701200000000010B5074CA5
:100310002378002B09D1FFF7D5FF054B002B02D026
:10032000044800E000BF0123237010BDF028012025
:1003300000000000704F0110054B10B5002B03D0DA
:100340000449054800E000BFFFF7CCFF10BDC046E0
:1003500000000000F4280120704F011010B506487D
:100360000BF03AFF0EF000FE012007F047FD05F00C
:10037000CDFD02F0B5FCF7E7704F0110F0B5474630
:10038000CE4680B5294B83B098461A88284B9A42AE
:1003900040D043461B88D0251843434680B218807E
:1003A0001E88802380271B022D0601200021AB61BF
:1003B000FF0407F00BFD1024B946B6B20FE080230E
:1003C000DB016B610120002107F000FD013C0120F1
:1003D00000216F6107F0FAFC7600002C0BD04B4631
:1003E0000120AB61002107F0F1FC3304E7D4802346
:1003F000DB01AB61E6E7D02380221B0612025A61C3
:1004000043461A880A4B9A420AD003B00CBC904665
:100410009946F0BD00230093009B002BFCD1B8E768
:1004200000230193019B002BFCD1EEE796340120C1
:1004300009200000F0B5CE46474680B5284B83B072
:10044000984240D0274BD025984642461B888027AB
:1004500083431380802316881B022D060120002170
:10046000AB61FF0407F0B2FC1024B946B6B20FE04E
:100470008023DB016B610120002107F0A7FC013C18
:10048000012000216F6107F0A1FC7600002C0BD049
:100490004B460120AB61002107F098FC3304E7D400
:1004A0008023DB01AB61E6E7D02380221B0612022A
:1004B0005A6143461A880A4B9A420AD003B00CBCD0
:1004C00090469946F0BD00230093009B002BFCD181
:1004D000B8E700230193019B002BFCD1EEE7C04657
:1004E0000920000096340120F0B50124D025844075
:1004F000C64680272D0600B50120AC610021AC6105
:1005000007F064FC7F036C610120002107F05EFCB2
:1005100008260024B8466B686400E4B29B0202D54A
:1005200001231C43E4B2434601200021AB6107F0E4
:100530004DFC013E012000216F6107F047FC002EB9
:10054000E9D1200004BC9046F0BDC046F8B5DE46B7
:1005500057464E464546E0B501263300D024834039
:1005600024060D0001200021A36117009B4607F01F
:100570002DFC002F26DD7B1E9E408023DB04B04631
:10058000994600269A4610E08023DB016361012032
:10059000002107F01BFC4B4601200021636101365E
:1005A00007F014FC6D00B7420CD053460120A36144
:1005B000002107F00BFC43461D42E5D18023DB01FF
:1005C000A361E4E7D0235A461B065A613CBC90461F
:1005D0009946A246AB46F8BD10B502F0F5FD03F012
:1005E00011FD02F07DFB05F0A3F910BD10B51B2035
:1005F00084B006F0CDFCD024802324061B05636262
:100600000D20636106F0C4FC0E2006F0C1FC0F2033
:1006100006F0BEFC162006F0BBFC152006F0B8FC68
:100620001A2006F0B5FC132006F0B2FC142006F0E8
:10063000AFFC122006F0ACFC002006F0A9FC012063
:1006400006F0A6FC022006F0A3FC032006F0A0FCA6
:10065000042006F09DFC052006F09AFC062006F01A
:1006600097FC072006F094FC01220021002006F0F0
:1006700077FC01220021012006F072FC01220021FA
:10068000022006F06DFC01220021032006F068FC28
:1006900001220021042006F063FC01220021052034
:1006A00006F05EFC01220021062006F059FC012222
:1006B0000021072006F054FC0A2006F069FC0B20FC
:1006C00006F066FC0C2006F063FC112006F060FCCE
:1006D000102006F05DFC00220121102006F040FCF5
:1006E00000220121112006F03BFC80238022DB0147
:1006F00092016362A262636280231B0263628023B1
:10070000DB03636280239B03A3628023DB046362B9
:1007100080231B03636280228023D2025B03636217
:1007200062628022D20062628022120162628022B2
:10073000520162621448636102AA03AB01A906F088
:1007400041FB00281AD10120FFF718FE0A2007F00C
:1007500055FB00F045F800F02BF90BF049FD01F0D6
:10076000C9FB0A480EF0DAFB04F080FB08480BF0E6
:10077000DDFB04F08DFB05F0DBF8FAE7039A029944
:10078000019806F0E3FADEE7A0F703005D0300102E
:10079000804F011000B583B06A4680231371793B06
:1007A000034050204042184350710221782001AA92
:1007B00003F05EF803B000BD10B5102482B0030949
:1007C00001AA234353700F238021184011709170A8
:1007D000D0707C39782003F04BF802B010BDC046D1
:1007E000F0B580276F4CFA25238885B03B439BB238
:1007F00023806D4B21881E680822300089B2FFF7E4
:10080000A5FE7F23ED00039522883000134023804E
:100810002188082289B2FFF799FE029523880822D1
:100820003B439BB223802188300089B2FFF78EFEC4
:10083000019502F017FE782002F080FE802002F081
:100840007DFEAE2002F07AFE802002F077FED520F9
:1008500002F074FE802002F071FEA02002F06EFE15
:10086000802002F06BFEA82002F068FE802002F0DB
:1008700065FE1F2002F062FE802002F05FFED320A2
:1008800002F05CFE802002F059FE002002F056FECD
:10089000802002F053FEAD2002F050FE802002F0D6
:1008A0004DFE8E2002F04AFE802002F047FED82046
:1008B00002F044FE802002F041FE052002F03EFEE0
:1008C000802002F03BFEA12002F038FE802002F0E2
:1008D00035FEC82002F032FE802002F02FFEDA2022
:1008E00002F02CFE802002F029FE122002F026FEEB
:1008F000802002F023FE912002F020FE802002F0F2
:100900001DFE3F2002F01AFE802002F017FE3F205D
:1009100002F014FE802002F011FE3F2002F00EFED5
:10092000802002F00BFE3F2002F008FE802002F043
:1009300005FE812002F002FE802002F0FFFD1B4B2D
:10094000187802F0FBFD802002F0F8FDD92002F0BB
:10095000F5FD802002F0F2FDD22002F0EFFD8020B4
:1009600002F0ECFDDB2002F0E9FD802002F0E6FD64
:10097000342002F0E3FD802002F0E0FDA62002F02A
:10098000DDFD802002F0DAFDA42002F0D7FD8020FA
:1009900002F0D4FDAF2002F0D1FD02F093FD05B0CE
:1009A000F0BDC04698340120A04F01101006002071
:1009B0008023F0B54746CE469946D03B0025984661
:1009C00080B5174F83B001AE4B46337043463200BB
:1009D0002B4302217820737002F04AFF3200042179
:1009E0007820019702F044FF02F03CFD782002F0ED
:1009F000A5FD402002F0A2FD8424013C0020E4B2C9
:100A000002F09CFD002CF8D10135EDB202F05AFD48
:100A1000042DD9D103B00CBC90469946F0BDC04618
:100A200080108000204BF0B54746CE469946002303
:100A300080B5502700259846802683B001AC7F42C0
:100A40004B4642465B191A70EB113B4322000221D0
:100A500078206370267002F00BFF7F2310212B405B
:100A60001A090A4362700F220421134078202200E1
:100A7000E3702670A67002F0FBFE02F0F3FC782013
:100A800002F05CFD402002F059FD002002F056FD0E
:100A900002F018FD80230135DB009D42D0D103B068
:100AA0000CBC90469946F0BDC0490120F0B54E46B9
:100AB0004546DE465746E0B50C000500160083B0FB
:100AC0007F2801D81F2906D903B03CBC904699461F
:100AD000A246AB46F0BD7F2307221B1A9846CB17D0
:100AE00013405B18DB105B4203339A468023914628
:100AF00052469B4601AF3B70D03B134302213A0064
:100B000078207B7002F0B4FE43465A46102104332D
:100B1000DBB23A701A090A437A705A46BA70713ACF
:100B2000134004213A007820FB7002F0A1FE02F08D
:100B300099FC782002F002FD402002F0FFFC5346B1
:100B4000DF01164B47449A46DB5D9846002E1CD0C9
:100B5000012E10D032002100280005F007F8404691
:100B600000F01EF8C0B202F0E9FC53464246DA55E6
:100B700002F0A8FCA8E74B46320023409A4013003D
:100B800042461343DBB29846E4E74B46012223403A
:100B90009A40434693439846DCE7C046C04901204B
:100BA000022101234200114042101A4011438210D9
:100BB00049001A400A43C110194052000A4301116A
:100BC00052001940114342111A4049001143821149
:100BD00049001A400A43C0115200184010437047A0
:100BE000F8B51500D2B20F00040004F09BFF0320FB
:100BF000C01BC0B2FFF7CEFDA000201A40007F301E
:100C0000C0B2FFF7D9FD02F02DFC782002F096FC6F
:100C1000402002F093FCAA00521901240425154E2D
:100C2000B6182200735D1A4058102040520002434B
:100C30009810520020401043DA1022404000104328
:100C40001A11400022400243581120405200024332
:100C500098115200204010434000DB11184302F06D
:100C60006DFC013DDDD2002002F068FC02F02AFCA0
:100C7000F8BDC0461406002070B5150012780E00AD
:100C8000002A09D004002D1A200031000134FFF79A
:100C9000A7FF2A5D002AF7D170BDC04670B51500C8
:100CA00012780E00002A09D004002D1A200031000D
:100CB0000134FFF795FF2A5D002AF7D170BDC046C9
:100CC00070B584B001AD04000E002800084909F099
:100CD000B9FB2A78002A08D02D1B200031000134EE
:100CE000FFF77EFF2A5D002AF7D104B070BDC04631
:100CF000A84F0110F8B5002345469846314B57469A
:100D00009A460323DE469B4605234E465B425344E8
:100D1000E0B599467F270124002620223100404675
:100D200004F000FF5B46981BC0B2FFF733FD3800AC
:100D3000FFF742FD02F096FB782002F0FFFB402017
:100D400002F0FCFB554622002B78013D1A4058105A
:100D50002040520002439810520020401043DA1005
:100D60002240400010431A11400022400243581113
:100D70002040520002439811520020401043DB11E2
:100D80004000184302F0DAFBA945DCD1002001360F
:100D900002F0D4FB02F096FB042EBED101239C4648
:100DA000E0444346063FFFB2152BB5D10023064A67
:100DB0001360064A13603CBC90469946A246AB4677
:100DC000F8BDC046B80600204C2E0120502E012050
:100DD000F8B54746CE4680B5144E154F027880468A
:100DE00034683D68002A0BD0031B99462000290077
:100DF000FFF7F6FE4B4601341A5D002AF6D134683F
:100E000040460FF0F1FA2418142C04DC34600CBCBA
:100E100090469946F8BD00223B6832600133032BAF
:100E200001DD3A60F3E73B60F1E7C0464C2E01205C
:100E3000502E012010B50FF0D7FA084B1A689446CF
:100E40006044142807D90021054A1960136801334A
:100E5000032B01DD116010BD1360FCE74C2E012057
:100E6000502E012070B509480BF0B6F901231D0082
:100E7000074AD0241268FA2095402406054AA56145
:100E80004000136006F0BAFFA56170BDB04F0110BD
:100E9000A44F01100C340120394A30B51368040006
:100EA00001331360B02383B09B0098425FD028D9F0
:100EB000C0239B00984236D0403398421FD18021F6
:100EC000304A314C1088238801407F201180013343
:100ED00011889BB2238043400B439BB2138011883F
:100EE0002A4B0822186889B2FFF730FB02202849F4
:100EF00023884A7DDB120340824313434B7503B0C2
:100F000030BD013BFF3B98421BD040339842F6D1A5
:100F100080204000FFF732FA2000FFF72FFA64200C
:100F200006F06CFFEBE700238022174C2380154B63
:100F300019880A407F211A801A880A431A80198862
:100F4000CEE703F051F813480BF046F901231D00DA
:100F5000114AD0241268FA209540019224060F4AC3
:100F6000A5614000136006F049FFA561C7E7802036
:100F70004000FFF75FFA80208000FFF75BFABEE7D2
:100F800018340120983401209A340120A04F011018
:100F9000A0520120B04F0110A44F01100C340120C9
:100FA0008023044A5B42517C0B4353740122024B61
:100FB0001A707047A05201208C0F00200122024BB2
:100FC0001954024B1A60704738520120C02E01207C
:100FD000F0B5DE4657464E464546E0B5012083B0A3
:100FE00002F03AFA5D4B5E491A68002A03D10A689A
:100FF000002A00D1A4E000225A4F1A603B680A6020
:10100000002B00DAA2E0584B00249946574B9B4630
:10101000574B9846574B9A460EE0574B200019689D
:1010200009F0A2FA03002A0008001900FFF7D8FD12
:101030003B680134A34239DB4B465A461B681B5DB3
:10104000D55C424612689342E7D153461B68002B99
:10105000E3D04A4B1B68002B07D0494B1B68002B81
:1010600006D0019580256D00D7E7454B1B6801939D
:101070008021AB005B1901950225424A4942D05CB0
:10108000414E08439055D3185878404E0843905528
:1010900098783F4E08439055D878013608439055CC
:1010A0001B79FF350B433B495354B6E7142120000D
:1010B00009F05AFA14218246200009F055FA8946AF
:1010C000354B00269846434631009A5D1420013680
:1010D000FFF786FD042EF6D16A1EFF3A2B00012A87
:1010E00026D92E4AD35C682293431FD0534616203C
:1010F00058434B462A4EEDB235552A4C2018C5545C
:101100003D6859462A0028480AF0B4FD00232B22E6
:10111000A3541632A35416326375A354735503B007
:101120003CBC90469946A246AB46F0BD2025DDE783
:10113000019D1A4A2B00D35C68229343D6D1F5E770
:101140000A4B084F9B46164E164CD9E7002399468A
:101150009A46064B00249B46B2E7C046C02E0120AB
:10116000482E0120600B00203C520120A853022091
:101170000C33012014330120640B0020442E012085
:1011800010330120140600200505000006050000AC
:10119000070500000905000038520120C56F011045
:1011A000C44E012040520120C04D0120E02330B543
:1011B0005B00040083B0984200D123E10BD81728CC
:1011C0001FD8022865D9C31E9BB2142B57D8A94A31
:1011D0009B00D3589F46D0239B00984241D039D9D9
:1011E000E8239B00984200D139E126D9F0239B00E7
:1011F000984213D10122A04B1A60A04B185D03B096
:1012000030BD0300813BFF3B9BB2012B41D88223C1
:10121000FF33984200D00CE10020F0E720339842E1
:101220002DD1974A1368002B00D107E18021C90115
:101230008C46634400201360E1E7403B984200D1B4
:1012400010E12033984224D100228B4B1A608B4B43
:10125000185DD4E7803B984200D1CDE040339842FE
:1012600004D12000FFF718FE0020C8E7803B984219
:101270000FD10420FFF782F8804B185DBFE72304ED
:1012800000D5A8E08023DB019C4202D37D4B1B6884
:10129000E4187A4B185DB2E77B4B1868FFF724F926
:1012A0007F2343407E201840D023744C1B0660757A
:1012B0005B68764A5B0BDB01184302231288984374
:1012C000D21213401843607503F0E6FD607D96E787
:1012D000D0226F4B1206506819685268C8405C688B
:1012E0000121E2400840C0014008114201D08022A3
:1012F0001043D0221206526899684008CA40D207AB
:1013000003D5802252421043C0B2D0221206526846
:10131000D9684008CA40D20703D580225242104300
:10132000C0B2D0221206526819694008CA40D207DA
:1013300003D5802252421043C0B2D0221206526816
:1013400059694008CA40D20703D58022524210434F
:10135000C0B2D0221206526899694008CA40D2072A
:1013600003D5802252421043C0B2D02212065268E6
:10137000DB694008DA40D30703D580235B4218437A
:10138000C0B29621434A490013688B4200DB36E71E
:10139000E22541495C006554013309194870136026
:1013A0002DE73E4B18782AE73D4B187827E73D4A52
:1013B0001378D9B2012B46D0022900D069E7122850
:1013C00000D066E7032313707F222C4B597C0A4020
:1013D0005A74185D13E7C0231B029C4205D9324B97
:1013E0009C466444314B185D09E72F4B9C46244BC7
:1013F000644418682418F5E70420FFF71BF81F4B16
:10140000185DFCE602F0F0FD29480AF0E5FE012334
:101410001D00284AD0241268FA2095400192240623
:10142000254AA5614000136006F0E8FC0020A56194
:10143000E5E6224B18687F231840E0E680231B0274
:1014400000201360DBE60D4B112800D0D6E6597C56
:101450007F2900D8D2E602211170185DCFE6094A33
:101460001368E3E60023074A00201360044A136070
:10147000C5E6C046C04F0110680B0020A0520120F5
:10148000FC330120E43301209C4F01109A340120E9
:101490006C0F002064340120C84F0120A6340120C5
:1014A000A53401208C0F00200080FFFF900F00204A
:1014B000B04F0110A44F01100C3401200C33012057
:1014C0000B4B1A88824206D01A8A82420BD01A8CA1
:1014D00082420AD0704700220121064812019B185F
:1014E00001605960F6E70122F6E70222F4E7C04600
:1014F000300B0020EC320120012070477047C046BD
:101500000022014B1A6070471C3401207323084AE3
:10151000D15C643B0B400749D3188C4606496344B1
:10152000096819707421535C013353547047C046E5
:10153000A0520120B02000004CA6022010B50349A3
:10154000034802F0FDF9431E984110BD34520110CA
:10155000A89D022010B50349034802F0F1F9431E8B
:10156000984110BD44520110A89D0220164AF8B5BA
:10157000136801331360154B9B69DB0603D5144ACE
:101580001368013313601025104C124E124FA369DB
:101590001D4211D1A3691D42FCD12368DBB2002B8F
:1015A000F5D032680D49BB543068013008F0DCFFDB
:1015B0003160A3691D42EDD0A3691D4203D1084AE1
:1015C000136801331360F8BDF4320120008003403A
:1015D000F8320120FC320120C08302208813000071
:1015E000F03201207047C046F8B50A4E002435009D
:1015F000094F3800296802F0A3F9002804D101340A
:101600000835072CF5D1F8BDE40034196368984714
:10161000F9E7C046CC110120B05402205F4AF0B572
:101620001368DE4659424B41012157464E46454616
:101630005B428B4318000023E0B5546897B0584EC6
:1016400002AA03AF1375A330337010223B002100B0
:10165000019002F0A7FB80239B46524BA3449A467D
:101660000F2398460FE0403902AB5B181A70002335
:10167000013102AA521807A80CA9013413700EF008
:101680003FFEA3452AD0454643462540234266D027
:101690004246E3171B0FE5181540ED1A7A5D5146D7
:1016A0000CA808F0CFFE30000EF09EFE0CA93018FA
:1016B0000EF002FE68217A5D3B4B81469B5C8B43BA
:1016C000D1D107A80EF090FE07AB9C460222374905
:1016D000604401340AF0CEFAA345D4D10222344941
:1016E00048460AF0C7FA484607A902300EF074FED1
:1016F000304B314C1A68314B20001968330008F028
:10170000A1FE20000EF070FE2D4E2E4B0200186040
:101710002D49300008F096FE3478002C18D03000A7
:10172000002120220D26294B02255D5F284B002930
:1017300028D1A5422DD099690A42FCD11C600178BC
:1017400001300D394C4261410478C9B2002CEED110
:1017500017B03CBC90469946A246AB46F0BD23006C
:1017600007AA1C490CA808F06DFE0CA930000EF069
:10177000C7FD02AB1D7510223B002100019802F04D
:1017800011FB85E799690A42D8D099690A42F9D1D3
:10179000D4E799690A42FCD11E60CCE74CA602202E
:1017A000686002206C520110C56F0110BC4F01101F
:1017B000D05E0110542E01204C6C0220D80F012065
:1017C00084A50220C83301207452011090AA02207F
:1017D000008003405C520110F0B5D6464F464646A5
:1017E000414BC0B51C68012C08D0022C3DD0002C08
:1017F00028D01CBC90469946A246F0BD3B4B1E68C3
:10180000002EF6DD3A4B3B4C9A4619683A4B0027BE
:101810001B6836199846394B994606E04A462378A4
:10182000013401275355B4425BD00D00481CFA2106
:10183000890008F099FE4145F0D1002FD9D05346D8
:101840001D60D6E72E4F2B4E3D0003E001340835D6
:10185000082CCED03000296802F072F80028F5D0AC
:10186000E4003C1963689847C3E7204B1D68002DCE
:10187000BFDD7423234E1F4AF15C013BF05C663BE5
:1018800000240F279C46AD180FE03C000440A14601
:101890001D4CB144A0464C46444423700124013100
:1018A000C9B201320130AA4215D013780A2BF8D000
:1018B0000D2BF6D0042BE8D1134C3B00A046644618
:1018C0000340F3184344013101321C70C9B20124B2
:1018D0000130AA42E9D1002C00D18AE77423F154E7
:1018E00087E75346196084E7EC2C01205C33012024
:1018F000F02D0120B0540220F42D01203868022080
:10190000940F0120A0520120B0200000F0B50E4B32
:101910000E4D19682B68C6465C1A631C98460C4F1E
:101920000C4E00B51A00891938000AF0A3F9424696
:10193000390030000AF09EF90122074B2C601A6032
:1019400004BC9046F0BDC04638330120E43201208B
:10195000F07B0220A89D022050330120F0B5C6463E
:1019600001221C4B00B5532100201A600025FFF70F
:1019700025FB194C194E03E001350C34282D11D0EC
:101980002378032BF8D1310060680EF0E1FC0028C9
:10199000F2D10122124B1D60124B1A60124A1368D9
:1019A00001331360114D124B124F19682B68124E00
:1019B0005C1A631C98461A00891938000AF05AF913
:1019C0004246390030000AF055F92C6004BC9046BC
:1019D000F0BDC04628340120EC0F012088520110D0
:1019E000883401208C34012060340120E43201204D
:1019F00038330120F07B0220A89D0220F8B5CE46A6
:101A000047461A4C80B52368002B1AD0184B194E44
:101A100019683368184F5D1A6B1C9946174B4A4674
:101A200098461800C9190AF025F94A464146380077
:101A30000AF020F90023356023600CBC90469946DB
:101A4000F8BD0B4B0B4D19682B680C4F5C1A631CCF
:101A50009846094E1A00891938000AF00BF94246D7
:101A6000390030000AF006F92C60E6E75033012017
:101A700038330120E4320120A89D0220F07B0220AF
:101A8000F0B5CE46474680B56421022085B0FFF709
:101A900095FA494C4949200001F052FF002804D131
:101AA00005B00CBC90469946F0BD454B454E1968B3
:101AB0003368454F5D1A6B1C98461A0038000919A7
:101AC0000AF0D8F83900424620000AF0D3F83F4F18
:101AD00035603B6899461D2BE2DC002B67DD3C4BF3
:101AE0002B2598461C004B465D433A4E4544310039
:101AF00020000EF02DFC0028D2D02B34A542F6D1C8
:101B00002B244D4643466543310058190EF064FCC2
:101B10002800314914304D694B680A6803950D69F6
:101B200040440295CD680195896800912B4908F0E1
:101B300089FC2B4B310018680EF00AFC002803D0FA
:101B40003B6801333B60ABE73B68264E5C432200B9
:101B5000143230002449424408F074FC3478002CDC
:101B6000EED03000002120220D26204B02255D5FA3
:101B70001F4B00290FD1A54214D099690A42FCD10C
:101B80001C60017801300D394C4261410478C9B2C2
:101B9000002CEED1D4E799690A42F1D099690A4242
:101BA000F9D1EDE799690A42FCD11E60E5E7084BDF
:101BB000084E9846A4E7C046A89D02209052011006
:101BC00038330120E4320120F07B0220F82D01207F
:101BD0001898022078A702204CA60220F05201108B
:101BE000900F012084A50220D852011090AA022053
:101BF00000800340F0B5C6466321012000B5FFF721
:101C0000DDF90F4C0F49200001F09AFE002802D1A7
:101C100004BC9046F0BD0C4B0C4E196833680C4F59
:101C20005D1A6B1C98461A00091938000AF022F850
:101C30004246390020000AF01DF83560E8E7C0464A
:101C4000A89D02200453011038330120E432012002
:101C5000F07B0220F0B5C6466321012000B5FFF7F6
:101C6000ADF90F4C0F49200001F06AFE002802D1A7
:101C700004BC9046F0BD0C4B0C4E196833680C4FF9
:101C80005D1A6B1C98461A000919380009F0F2FF1A
:101C900042463900200009F0EDFF3560E8E7C04614
:101CA000A89D02201053011038330120E432012096
:101CB000F07B0220F0B5C64604007221012000B579
:101CC000FFF77CF91D482401041961681C4C2000B1
:101CD00001F036FE002802D104BC9046F0BD194E3A
:101CE000194B1A4F1968336838005D1A6B1C9846F7
:101CF0001A00091909F0BEFF20004246390009F018
:101D0000B9FF3560124C0025124E03E001350C344A
:101D1000282DE1D02378032BF8D1310060680EF034
:101D200017FB0028F2D101220B4B1D600B4B1A60F0
:101D30000B4A136801331360CEE7C0461C5C0110E8
:101D4000A89D0220E432012038330120F07B0220DC
:101D5000EC0F012020530110883401208C34012025
:101D600060340120F0B5C64604006921012000B5A9
:101D7000FFF724F910482401041961680F4C200072
:101D800001F0DEFD002802D104BC9046F0BD0C4BF2
:101D90000C4E196833680C4F5D1A6B1C98461A007C
:101DA0000919380009F066FF42463900200009F0A1
:101DB00061FF3560E8E7C0461C5C0110A89D022069
:101DC00038330120E4320120F07B0220F0B5C64612
:101DD00004006E21012000B5FFF7F0F8124824013D
:101DE00004196168114C200001F0AAFD002802D1FD
:101DF00004BC9046F0BD0E4B0E4E196833680E4F72
:101E00005D1A6B1C98461A000919380009F032FF58
:101E100042463900200009F02DFF084B35601A6852
:101E2000074B1A60E4E7C0461C5C0110A89D022025
:101E300038330120E4320120F07B02204CA602203E
:101E40003C2E0120F0B5C64604004321012000B518
:101E5000FFF7B4F81D482401041961681C4C2000E8
:101E600001F06EFD002802D104BC9046F0BD194E71
:101E7000194B1A4F1968336838005D1A6B1C984665
:101E80001A00091909F0F6FE20004246390009F04F
:101E9000F1FE3560124C0025124E03E001350C3482
:101EA000282DE1D02378032BF8D1310060680EF0A3
:101EB0004FFA0028F2D101220B4B1D600B4B1A6028
:101EC0000B4A136801331360CEE7C0461C5C011057
:101ED000A89D0220E432012038330120F07B02204B
:101EE000EC0F012028530110883401208C3401208C
:101EF0006034012010B500211F4805F067FF022162
:101F0000082005F015F80221092005F011F8E1215B
:101F10001A4C4902200006F097FBC022236B1202E4
:101F20001340174A152013601023E26A1549134025
:101F3000154A136005F048F90121152005F000F954
:101F40005023A363626B183B1340104A1048136080
:101F500009F0ECFF0AF0C0F80220FEF76BFA6420EB
:101F600005F04CFF0220FEF709FA0023094A13701E
:101F7000094A136010BDC04640420F000080034074
:101F8000309003406D1500102C90034034900340B6
:101F900030530110A89D0220E4320120F0B55746CD
:101FA0004E464546DE460023E0B5394F87B003ADC7
:101FB0002B703B18DB7982460222364E7F2B5BD892
:101FC0003000354909F056FE534601339846042443
:101FD000324A334B91469B46B844042C11D04346B9
:101FE00049461A5D280008F02DFA30000EF0FCF981
:101FF000290030180EF060F9631C24D0013C042C39
:10200000EDD153460533FA5C594612092800019375
:1020100008F018FA30000EF0E7F9290030180EF039
:102020004BF902221F4909F025FE0F22019B594658
:10203000FB5C28001A4008F005FA290030000EF079
:102040005FF9013CDBE70322174909F013FE062282
:102050005744BA56002A14DB4946280008F0F2F922
:10206000290030000EF04CF9300007B03CBC90461F
:102070009946A246AB46F0BD30000C4909F0FAFD86
:10208000A2E728000A49524208F0DCF9E8E7C04616
:10209000A0520120246C022070520110A84F0110A0
:1020A00050530110BC4F0110585301104C530110F4
:1020B0005C5301100023F0B50024324E324D334FF3
:1020C00091B033702200390006A808F0BBF906A9C8
:1020D00030000EF015F92800FFF760FF0134010011
:1020E00030000EF00DF908350A2CEBD1284B294CA5
:1020F0001A68294B1968294B0493294B1800163884
:102100000290180003932C38423B0190009320006A
:10211000330008F097F920000EF066F9214A224EAC
:102120001060224A030012683000214908F08AF941
:102130003478002C18D01F4B300002255D5F202121
:1021400000230D261C4A002B10D1A54215D09369FF
:102150001942FCD11460037801300D3B5C426341AD
:102160000478DBB2002CEED111B0F0BD93691942B6
:10217000F0D093691942F9D1ECE793691942FCD187
:102180001660E4E768600220FF200000645301103D
:10219000542E01204C6C0220D40F0120A89D022057
:1021A00082520120C833012084A502203C2E012048
:1021B0007053011090AA022000800340F8B55746E2
:1021C0004E464546DE463A4BE0B59C461860394BD4
:1021D00004001960384B0F009A46002352461360E2
:1021E000364B994601234A461360354B1860354BF0
:1021F00098461E68002846DD320000210023324D3B
:10220000324807E0E95C013CC154013A0121013345
:10221000002C1CD0002AF5DC002932D05246E918E7
:102220001360F61A63461C60294C771C3A002000A4
:1022300009F020FD3A002100280009F01BFD43466B
:102240001E603CBC90469946A246AB46F8BD51463E
:102250000B6041460A606246F61A1460721C924690
:102260001B4CE918200009F005FD5246210028000A
:1022700009F000FD43461E6000234A461360B8473C
:10228000DFE72900D0E7731C9B46114B0E4D9A46A1
:1022900018005A46290009F0EDFC5A46514628001C
:1022A00009F0E8FC43461E60002CE5D0C9E7C046B3
:1022B000FC2D0120A49D0220EC7B0220102E012089
:1022C0005C330120E4320120A89D0220B05402209A
:1022D000F07B0220F0B5C6465021022000B5FEF783
:1022E0006DFE114C1149200001F02AFB002802D19B
:1022F00004BC9046F0BD0E4E0E4B0F4F196833686C
:1023000038005D1A6B1C98461A00091909F0B2FCD6
:1023100039004246200009F0ADFC084B08495868D6
:102320003560FFF74BFFE3E7A89D02203452011010
:10233000E432012038330120F07B02204CA6022039
:10234000E9150010F0B5C6465021022000B5FEF791
:1023500035FE114C1149200001F0F2FA002802D19B
:1023600004BC9046F0BD0E4E0E4B0F4F19683368FB
:1023700038005D1A6B1C98461A00091909F07AFC9E
:1023800039004246200009F075FC084B08491868DE
:102390003560FFF713FFE3E7A89D02208453011087
:1023A000E432012038330120F07B02204CA60220C9
:1023B000D917001070B51B480EF016F81A4C1B4BBD
:1023C000020018601A49200008F03CF82278002A20
:1023D00018D0184B200002255D5F202400230D2615
:1023E0001549002B17D1954210D08B691C42FCD1A6
:1023F0000A60037801300D3B5A4253410278DBB248
:10240000002AEED101220D4B1A6070BD8B691C426F
:10241000FCD10E60E9E78B691C42E9D08B691C4254
:10242000F9D1E5E74C6C022084A50220C8330120D5
:102430009453011090AA0220008003401C34012014
:1024400010B51C220349044809F014FCFFF7B2FF41
:1024500010BDC046A85301104C6C022010B5064BAD
:1024600006495A681B680648CA54064907F0EAFF3D
:10247000FFF7A0FF10BDC0464CA60220A0520120CD
:102480004C6C0220C45301104C4AF0B51368454609
:1024900059424B4101215B428B431800484BDE46B9
:1024A000984657464E46546800234246E0B597B0DA
:1024B000137003AF02AA1375A3303B001022210052
:1024C000019001F06FFC80239C46A4446346009376
:1024D000002399463B4B9B460F239A4610E0403918
:1024E00002AB5B181A700023013102AA521807A828
:1024F0000CA913700DF004FF009B0134A34229D0F6
:10250000554653462540234242D001239C464E4621
:10251000E144BA5D59460CA807F094FF40460DF01F
:1025200063FF0CA940440DF0C7FE6821BA5D264B3D
:1025300005009B5C8B43D2D107A80DF055FF07AB7C
:102540009C4602222149604409F094FB009B01341F
:10255000A342D5D1022228001D4909F08BFB07A90F
:10256000A81C0DF0A9FE03221A49040009F082FB01
:102570004346E21A41460332174809F07BFBFFF756
:1025800019FF17B03CBC90469946A246AB46F0BD39
:10259000230007AA11490CA807F054FF0CA94046D4
:1025A0000DF0AEFE02AB1D7510223B00210001981C
:1025B00001F0F8FB012300269946AAE74CA6022069
:1025C000686002206C520110C56F0110BC4F0110F1
:1025D000D05E0110545601104C6C0220D8530110EB
:1025E00000B50A4B0A4985B0029119002C310191BE
:1025F00019001A001631163A00910648064907F0EC
:1026000021FFFFF7D7FE05B000BDC046565201209E
:10261000A89D02204C6C0220E453011010B50C4C14
:1026200082B0A268206801AB1A7042425041012278
:10263000404290436168A33001F0D4FB2368626894
:102640000449054807F0FEFEFFF7B4FE02B010BDD6
:102650004CA60220C45301104C6C0220F8B5CE46A3
:10266000474680B56D4A1378002B04D16C4B6D4AF8
:102670001B789B009A586C4C6C49200007F0E2FED6
:102680006B4E210030000DF017FE05000422694951
:10269000200009F0EFFA04222100280009F0EAFAEC
:1026A000654F3B68002B17DD644B00259946644B52
:1026B00098464B461B68581980B2FEF777FD414695
:1026C0000200200007F0BEFE210030000DF018FED1
:1026D0003B680135AB42ECDC5A4D5B492A8820004F
:1026E00007F0B0FE210030000DF00AFEAA8857491D
:1026F000200007F0A7FE210030000DF001FEAA79AE
:102700005349200007F09EFE210030000DF0F8FD37
:10271000EA795049200007F095FE210030000DF0C5
:10272000EFFDEB79AA794C49200007F08BFE2100E0
:1027300030000DF0E5FD6A884849200007F082FE70
:10274000210030000DF0DCFD4549464B08682A7A2F
:102750001860888898808979997143490878FF289A
:1027600035D0104241D18878FF2830D010423FD177
:102770000879FF282BD010423DD18879FF2826D038
:1027800010423BD1087AFF2821D0104201D0487A6C
:102790001871887AFF281AD0104201D0C87A58716F
:1027A000087BFF2813D010422BD1887BFF280ED046
:1027B000104229D1087CFF2809D01D00104226D0E4
:1027C000487C0135E871887C0231FF28F6D1200071
:1027D000264907F037FE210030000DF091FDFFF78C
:1027E000E9FD0CBC90469946F8BD48781870BAE7E8
:1027F000C8785870BCE748799870BEE7C879D87037
:10280000C0E7487B9871D0E7C87BD871D2E7887C55
:1028100001350231FF28D1D1D9E7C0466433012008
:10282000A15302206C0B00206860022000540110AC
:102830004C6C022004540110A4530220AC5402201A
:102840000854011024520120105401101C5401108E
:1028500028540110345401104054011050540110F8
:1028600070540110E00F0120200B00205C54011077
:1028700070B51A480DF0B8FD194C1A4B02001860DB
:102880001949200007F0DEFD2278002A18D0174BE6
:10289000200002255D5F202400230D261449002B13
:1028A00014D195420DD08B691C42FCD10A6003788B
:1028B00001300D3B5A4253410278DBB2002AEED17F
:1028C00070BD8B691C42FCD10E60ECE78B691C4229
:1028D000ECD08B691C42F9D1E8E7C0464C6C022071
:1028E00084A50220C83301207452011090AA02204E
:1028F0000080034000B5094A094909CA094A83B062
:102900001354094A09681268019000930748084B5C
:1029100007F098FDFFF7ACFF03B000BD4CA6022006
:10292000DC0F0120A0520120542E01204C6C02200B
:1029300078540110F0B54E46DE4657464546E0B5A0
:1029400093B000236A46384E13733370374B00241C
:102950009846374B9B46374B9A46374B99460FE084
:102960006B4648395B181A706A46002301315218C9
:1029700003A808A9013413700DF0C2FC802C26D0E6
:102980000F231D00254023423FD0434659461A5D80
:1029900008A81F1907F056FD30000DF025FD08A905
:1029A00030180DF089FC68213A78244B05009B5CB7
:1029B0008B43D5D103A80DF017FD03AB9C46022233
:1029C0001F496044013409F055F9802CD8D1022206
:1029D00028001C4909F04EF903A9A81C0DF06CFC55
:1029E0000322194909F046F9184B19481A68194B7E
:1029F0001968330007F026FDFFF73AFF13B03CBC1F
:102A000090469946A246AB46F0BD5346494603AAB6
:102A1000009408A807F016FD300008A90DF070FC1E
:102A20006B461D73B1E7C04668600220A0520120CA
:102A30006C5201108054011088540110C56F0110B0
:102A4000BC4F0110D05E011054560110542E0120CD
:102A50004C6C0220D80F012010B50F4C84B0A26836
:102A6000206803AB1A704242504101224042904319
:102A70006168A33001F0B6F9084B09481A68094BA0
:102A8000196863680193A3680093074B07F0DAFCA9
:102A9000FFF7EEFE04B010BD4CA60220542E01201C
:102AA0004C6C0220DC0F012094540110F0B5574605
:102AB000DE464E4645460023E0B5354F95B002AAA6
:102AC0003B70137380339B46324B04009946324B64
:102AD00003919A460F23834498460FE0483902AB8E
:102AE0005B181A700023013102AA521805A80AA91E
:102AF000013413700DF004FC5C4526D04546434676
:102B00002540234235D04B4651461A5D0AA81D196F
:102B100007F098FC38000DF067FC0AA938180DF092
:102B2000CBFB68212A781D4B06009B5C8B43D5D1DB
:102B300005A80DF059FC05AB9C46022218496044DB
:102B4000013409F097F85C45D8D1022230001549CC
:102B500009F090F805A9B01C0DF0AEFB0322124954
:102B600009F088F815B03CBC90469946A246AB46A1
:102B7000F0BD039B0D4905AA00940AA807F062FC6A
:102B800038000AA90DF0BCFB02AB1D73BBE7C046C1
:102B900068600220A05201206C520110C56F011024
:102BA000BC4F0110D05E0110545601108854011022
:102BB000084B10B518680849FFF778FF074B08481D
:102BC0001A68084B1968084B07F03CFCFFF750FEE9
:102BD00010BDC0464CA6022080540110542E012086
:102BE0004C6C0220D80F01206860022010B5064B03
:102BF00006491868FFF75AFF0549064807F022FC06
:102C0000FFF7D8FB10BDC0464CA602205456011059
:102C1000686002204C6C022010B52E4B020019682F
:102C20002D480160998881809B7983712B4B19789D
:102C3000FF2935D00A4234D19978FF2930D00A4291
:102C400032D11979FF292BD00A4230D19979FF2945
:102C500026D00A422ED1197AFF2921D00A4201D06A
:102C6000597A0171997AFF291AD00A4201D0D97A8A
:102C70004171197BFF2913D00A421ED1997BFF298C
:102C80000ED00A421CD1197CFF2909D004000A4247
:102C900019D0597C0134E171997C0233FF29F6D1B6
:102CA00010BD59780170C7E7D9784170C9E75979E3
:102CB0008170CBE7D979C170CDE7597B8171DDE7B0
:102CC000D97BC171DFE7997C01340233FF29DED162
:102CD000E6E7C04670540110E00F0120200B0020F1
:102CE000F0B5DE4657464E4645460023E0B587B070
:102CF000C64C0593C64B20681B6883420BD011223B
:102D0000C44B9A56597C002A05DBC34A157A102217
:102D10002A4200D1FAE0C14B9A461B68012B00D130
:102D2000CDE0BF4B0A211A6801321A60186807F01B
:102D30001BFC00290CD1BB4C2368002B00D098E071
:102D400020210320FEF73AF923685A4253412360B9
:102D5000B54DB64E2A6833689A421BD0B44BB54F76
:102D60009946B54B9846202304AA13802B68B34993
:102D70005A1C2A60FC5C04ABE4B228681C7007F0A3
:102D8000F3FB2960142C79D0002C63D12A683368B6
:102D90009A42E8D1AA4B1C68002C00D0C8E0A44B92
:102DA000A84A99461B78D35C1B071FD5A24B4F46F8
:102DB0009A461D68A44B984601234B449B465346B4
:102DC000A2461C002A005946404608F053FF2A003C
:102DD0004146380008F04EFF9A4A3B786E1ED35C9D
:102DE0000822350026601A42ECD15446974D0DE07A
:102DF000022B07D12000AB689847002802D02000A2
:102E0000EB68984701341035262C0CD02B78012B19
:102E1000EED14846696800F093FD0028EFD10134F7
:102E20001035262CF2D18A4B1A68002A40D0894EE0
:102E30003268002A00D0D9E0874C884D20684200D3
:102E400011188900695C062900D9BAE0844F89000D
:102E500079588F46484604A90DF052FA4346424637
:102E60001B68013313602A6833689A4200D07AE7FE
:102E700090E703205731FEF7A1F865E753461B683A
:102E80000321581C07F070FB5346764D0C00196067
:102E90000C222800744908F0EDFE012C00D193E0CB
:102EA000022C00D19CE0002C00D193E0FFF782FAC5
:102EB00007B03CBC90469946A246AB46F0BD6B4B72
:102EC0001C68002C00D02CE7694B1E68694B196800
:102ED00099468E4200D124E7674B7F279846614D83
:102EE0002C70013D4346481C5B5CFA2101343B4099
:102EF0002B55890007F038FB8E42F3D14B461E60FC
:102F0000002301352B55FFF755FA0AE70A4200D195
:102F100001E7FA21594A8900125C01309A7407F0DE
:102F200023FB2160FEF73CF85548FEF7C9FAF2E6AC
:102F3000544B99461B68002B2DDD3F4A3C4E1468CC
:102F40000293E31A0193731C92469B463E4F0394EF
:102F5000002CADDD3378220059463800984608F041
:102F600089FE22003900300008F084FE5346464AAC
:102F7000651E1D601368591C11604146434AD154B7
:102F8000029B039A013B9B1A4A461B191360019A44
:102F90002C00AA42DCD1002B00D089E7284A13601C
:102FA0003B4B1B68984783E713189B00EB189B6803
:102FB0009847206843001B189B00EB5C042B00D152
:102FC00076E70130206073E710222800314908F0CD
:102FD00051FE6BE7092228002F4908F04BFE65E7F8
:102FE0000E2228002D4908F045FE5FE704F0F4FFAB
:102FF0002B4A53688B4200D95AE703D113688342A6
:1030000000D955E70023336052E7C046F42D012074
:10301000F02D0120A052012024520120EC2C01208F
:10302000542E0120E80F012000330120FC32012042
:10303000A89D0220C0830220E432012088130000F2
:10304000102E0120C56F0110F07B02201C5C0110C6
:103050008C3401208434012088340120EC0F0120BD
:10306000D85401104C6C02209C5401101C340120D7
:10307000042E0120082E0120805C022038680220E6
:10308000F0FF0000FC2D0120EC7B0220B054022058
:10309000A49D0220B4540110A8540110C45401107E
:1030A000E8280120414D2F78002F8AD0404B0D2178
:1030B00002269E5F002398468C46202241463D4BC7
:1030C00000290FD1BE4214D099690A42FCD11F6079
:1030D000297801350D394F4279412F78C9B2002F37
:1030E000EED16EE799690A42F1D099690A42F9D1A5
:1030F000EDE799690A42FCD161461960E4E70022D4
:103100001A60D5E62C4B984613189B00EB1805AABD
:10311000414658680DF030F80123336004F05CFF3D
:10312000059A53019B1A9B009B18DB001E00DF17BA
:1031300080197941214B186059604146204807F0B9
:1031400081F936E713181F4F9B00EB1838005968B8
:1031500007F078F93E78002E00D12AE7144B3800AA
:1031600002229B5E002120220D279C46114B002944
:103170000FD1B44514D099690A42FCD11E60017880
:1031800001300D394E4271410678C9B2002EEED1A0
:103190000FE799690A42F1D099690A42F9D1EDE73E
:1031A00099690A42FCD11F60E5E7C0464C6C0220D9
:1031B00090AA022000800340D4540110E828012086
:1031C0008C9D022084A50220F0B5C64600B5954D21
:1031D00082B02B68002B1CD1934C2368002B00D0AD
:1031E0007CE0924C2368002B00D090E0904C236848
:1031F000002B00D0A2E08F4C2368002B00D0B4E05D
:103200008D4D2B68002B00D0E9E002B004BC904645
:10321000F0BD002398466B46424601AC1A7001216E
:103220006A46DE2000F024FB802622000121DF20F8
:1032300000F066FA42462378764233432270022138
:103240002200DE200D27637000F012FB6B466A46F9
:103250000121DE201F7000F00BFB22000121DF2086
:1032600000F04EFA2378220033430221DE206370FF
:10327000277000F0FDFA6B466A460121DE201F70C0
:1032800000F0F6FA22000121DF2000F039FA23785D
:1032900022001E430221DE2066702770072600F000
:1032A000E7FA6B466A460121DE201E7000F0E0FA64
:1032B00022000121DF2000F023FA7F23227802215F
:1032C0001340DE2022006370267000F0D1FA4346DE
:1032D000554C2B602368002B00D182E76B460025FC
:1032E0006A460121DE2001AE1D7000F0C1FA3200F5
:1032F0000121DF2000F004FA7F233278256013409B
:103300004A4C4E4A13602368002B00D16EE701231C
:103310006A460121DE2001AD137000F0A9FA2A00EF
:103320000121DF2000F0ECF9454B2A781A600023D8
:1033300023603F4C2368002B00D15CE702236A46E0
:103340000121DE2001AD137000F092FA2A00012164
:10335000DF2000F0D5F93B4B2A781A600023236068
:10336000344C2368002B00D14AE76B4600266A469E
:103370000121DE201E7000F07BFA012101AADF206E
:1033800000F0BEF96B461A797F232F4D13402F4A68
:103390000121AB5401236A46DE20137000F068FA65
:1033A000012101AADF2000F0ABF96B461A79284B06
:1033B0000121EA5402236A46DE20137000F058FA15
:1033C00001AA0121DF2000F09BF96B461A79214BFD
:1033D0002660EA54184D2B68002B00D115E7002712
:1033E000194E1A4B01ACF35C22000221DE206370FF
:1033F000277000F03DFA0122154B0221F35CDE201C
:1034000022702200637000F033FA0222114B022175
:10341000F35CDE2022702200637000F029FA2F6036
:10342000F3E6C04610340120F0330120EC330120D4
:10343000E8330120143401200C3401200834012029
:103440000434012000340120A0520120CA200000D1
:10345000C9200000C8200000014B18607047C0461A
:10346000041201200123154A84B01268934001928E
:10347000D02212065362936100230393039B042B13
:1034800005DC039B01330393039B042BF9DD01232C
:103490000B4A126893400192D02212065362936144
:1034A00000230293029B042B05DC029B0133029351
:1034B000029B042BF9DD04B07047C046984F011001
:1034C000944F011001221B4B86B01B689A40019358
:1034D000D0231B065A629A6100230593059B042B97
:1034E00005DC059B01330593059B042BF9DD0123C6
:1034F000114909688B400191D02109068B62002394
:103500000493049B042B05DC049B01330493049B6C
:10351000042BF9DDD0231B069A6200230393039B3F
:10352000042B05DC039B01330393039B042BF9DD80
:1035300006B07047984F0110944F0110012170B5EB
:103540000C00324BD0221B6808259C40304B0026D3
:103550001B6888B099400193120643B2002B51DBDF
:10356000546294610596059B042B05DC059B013391
:103570000593059B042BF9DD91620496049B042BB3
:1035800005DC049B01330493049B042BF9DD516299
:1035900091610396039B042B05DC039B013303938A
:1035A000039B042BF9DD4000013DC0B2002DD4D1B6
:1035B000D0231B069C6299620695069B042B05DCB2
:1035C000069B01330693069B042BF9DDD020642370
:1035D000000602E0013B002B16D042682242F9D1DE
:1035E0000120D0231B065962996100230793079B92
:1035F000042B05DC079B01330793079B042BF9DDA4
:1036000008B070BD9462ADE70020EAE7984F011062
:10361000944F0110F0B50125374B4746884619688D
:103620002B00D0228B40CE46120680B5994693627D
:10363000324B84461B6808279D4000240026012049
:1036400089B001930596059B042B05DC059B01338E
:103650000593059B042BF9DD95620496049B042BCE
:1036600005DC049B01330493049B042BF9DD5368B0
:103670006400CB4055620340956103961C19039B7F
:10368000042B05DC039B01330393039B042BF9DD1F
:10369000013F002FD6D14346002B28D0D0234A46E5
:1036A0001B065A629A61D0231B069D620023079372
:1036B000079B042B05DC079B01330793079B042B17
:1036C000F9DDD0231B065D629D6100230693069BF6
:1036D000042B05DC069B01330693069B042BF9DDC6
:1036E00063461C7009B00CBC90469946F0BDD023CF
:1036F0004A461B069A62D6E7984F0110944F011074
:10370000F0B546464F46D6460123C0B51700564A87
:103710008AB012680E0093409846D0230192424628
:103720001B065A629A6100230293029B042B05DC5C
:10373000029B01330293029B042BF9DD01234B4AC8
:10374000126893409946D02301924A461B065A625A
:103750009A6100230393039B042B05DC039B013335
:103760000393039B042BF9DDFFF7E8FE002846D006
:10377000002E0FDD731E9A46002406AD5346191B1A
:103780004B1E99412800FFF745FF2B783B5501342C
:10379000A642F3D1D02342461B065A629A61002307
:1037A0000793079B042B05DC079B01330793079BBB
:1037B000042BF9DDD0234A461B069A6200230893A6
:1037C000089B042B05DC089B01330893089B042B02
:1037D000F9DDD02342461B069A6200230993099B18
:1037E000042B05DC099B01330993099B042BF9DDAC
:1037F00001200AB01CBC90469946A246F0BDD023D9
:1038000042461B065A629A610490049B042B05DC15
:10381000049B01330493049B042BF9DDD0234A4617
:103820001B069A6200230593059B042B05DC059B70
:1038300001330593059B042BF9DDD02342461B067B
:103840009A6200230693069B042BD2DC069B01336D
:103850000693069B042BCCDC069B01330693069B48
:10386000042BF3DDC5E7C046984F0110944F0110BB
:10387000F0B50125304B89B01B680F009D400193C6
:10388000D0231B065D629D6100230393039B1400FC
:10389000042B05DC039B01330393039B042BF9DD0D
:1038A0000126264B1B689E400193D0231B065E62B7
:1038B0009E6100230493049B042B05DC049B0133CD
:1038C0000493049B042BF9DDFFF738FE002F06DD7F
:1038D000E71920780134FFF731FEA742F9D1D02350
:1038E0001B065D629D6100230593059B042B05DC8F
:1038F000059B01330593059B042BF9DDD0231B06A3
:103900009E6200230693069B042B05DC069B013375
:103910000693069B042BF9DDD0231B069D62002332
:103920000793079B042B05DC079B01330793079B39
:10393000042BF9DD09B0F0BD984F0110944F011030
:10394000F0B54546DE4657464E460024E0B50D002C
:10395000BF4B93B01C60BF4B01911C60BE4B070076
:103960003C220021BD4898461C6008F07DF9BC4B04
:103970001C701C752B78002B5ED000220292B94A75
:103980000024002693463900009709783200002968
:1039900018D0202B21D0252B32D00136013499426A
:1039A00013D1434642461B6801331360019B0294C6
:1039B0001B5D002B40D0BA1911000978009232002B
:1039C0000029E6D1202B00D1B7E1002013B03CBC88
:1039D00090469946A246AB46F0BDA34B01345B5CD2
:1039E0001B07E3D54346082118684546013683196D
:1039F0009B1A2B60BB5D9C4DEB5C1942F5D1D5E762
:103A0000019B621C994618009B5C9144002B00D1DD
:103A1000B0E15B2B7DD011D8252B72D10136252941
:103A2000D3D1434642461B68023401331360019BE5
:103A300002941B5D002BBED10120C7E7642B01D08F
:103A4000782B5ED101220020874D00921FE0782B59
:103A5000BBD14421BB5DEA5C114200D175E120225B
:103A600006A98A800B7110220301002107A89A463B
:103A70000CF0AEFE5044434642461B68013601330B
:103A80001360BB5D002B00D136E14B461B78642BE5
:103A9000DDD1754ABB5DD15C04220A4222D12D2BB7
:103AA00000D121E1002E00D18FE7BB19013B1B782B
:103AB0006D49C95C0A4202D12D2B00D085E7644BC9
:103AC00063491B685A1C0A6000999B004143080027
:103AD0006249C8500E2A00DD43E10234019B029482
:103AE0001B5D66E7202206A98A800B712D2B0CD066
:103AF00083001818430007A89A460BF0B3FA504405
:103B0000B9E71400009902923FE701235B4200935A
:103B1000B1E7504B00221B6851499A469B00029323
:103B200053449B00CA54019B1B199A78002A00D168
:103B30004BE70198023406A900230731001908E079
:103B4000262B00D141E70133CA54C25C002A00D1C0
:103B50003BE7E5185D2AF3D10595262B00D134E724
:103B6000002208ACE254E3185A705B4620001A6049
:103B70000CF03AFC002822D000230125039604977C
:103B800014E05E1CA15D2D2972D05B46374F1B6887
:103B9000B9465900C9188900CD5549444A608A6020
:103BA0005A46013313603300834206D2E25C5E2A38
:103BB000E7D1013302258342F8D3039E049F009B83
:103BC0001A78002A3AD02649029B894653449B0022
:103BD00099445B461D683B0007AC57469A4619E07E
:103BE00059688A4202DB99688A4220DD022F00D19F
:103BF000EBE6002321004846637022700CF080FB46
:103C0000434642461B6801360133136053469A5DB2
:103C1000002A11D0002D0EDD0020144B1978012947
:103C2000DED159688A4202DB99688A42DEDD0130C2
:103C30000C33A842F2D15346BA461F005346054AF8
:103C4000059C013313600134019B02941B5DB0E6B7
:103C5000343301203C330120383301204CA60220AC
:103C600078A7022040330120C56F011088A60220EA
:103C70009E1CA75DB946002F25D15F465B463F6875
:103C80001B68B9465B0099444B469B009946EAB2D3
:103C900013004F463B4ABB544A44516091605A4618
:103CA0001268384F0132914652004A44B946920098
:103CB000D3555B464A44516091605A461B680233B3
:103CC0001360330070E759462E4F0968BC464E001A
:103CD0007618B600F555664472604A46B2605A4698
:103CE0000131116003335FE7202107AA11801370AF
:103CF00001235B420093BEE6019A029B9446634413
:103D00009B78002B00D060E61F4B1F491B685A1C94
:103D10000A6000999B00414308001C49C8500120DB
:103D20000E2A00DC52E61A4B1A490020196061463F
:103D3000194B1960194B1A6048E6029A019B944688
:103D4000634458784342584140E6002E00D13CE697
:103D50004422BB19013B1B78EB5C1A4200D0AEE653
:103D600033E60B4B0B4919600B4B019919600B4B58
:103D70001A602AE6064B0A4A1A60074B18600020B0
:103D800024E6C04688A60220343301204CA6022037
:103D9000081201207C5E01100C120120303301203A
:103DA000885E0110F0B5040083B00D481F001600B6
:103DB0000D0008F011FA0F20FFF74EFBFE2001AABC
:103DC0006DBA158020400221FFF752FD01202043EB
:103DD0003A003100C0B2FFF793FC03B0F0BDC0461B
:103DE000A45E0110F8B5070012480E0015001C0073
:103DF00008F0F2F90F20FFF72FFBFFF733FBFE204F
:103E00003840FFF79BFB3012C0B2FFF797FBF0B2D0
:103E1000FFF794FB002D06DD651920780134FFF7CC
:103E20008DFBAC42F9D1FFF74DFB042003F0E6FF18
:103E3000F8BDC046A45E0110F8B53B4B4E4699460E
:103E40008422574645460023DE464946FF32E0B508
:103E50008B54013A8B54354B4C469A4680235B0277
:103E6000CB4600250027984680345B461A780133FC
:103E7000BF18BFB2A342F9D180222900504608F0F2
:103E8000ABF90F20FFF7E8FAFFF7ECFAA020FFF7F5
:103E900055FB2812C0B2FFF751FBE8B2FFF74EFB0B
:103EA0005E4630780136FFF749FBA642F9D1FFF7AD
:103EB00009FB042003F0A2FF802334009C468035D8
:103EC000E34480344545D0D1194BC1241F8084255B
:103ED0004B463A0A640021001A55FF35022250462B
:103EE0005F5508F079F90F20FFF7B6FAFFF7BAFA35
:103EF000A020FFF723FB0120FFF720FB8220FFF724
:103F00001DFB4B46185DFFF719FB4B46585DFFF74D
:103F100015FBFFF7D7FA042003F070FF3CBC904676
:103F20009946A246AB46F8BDA0520120A45E0110FE
:103F3000903401208022F0B5274C94462300574648
:103F40004E464546DE466344E0B599461E000023D2
:103F50009846224B00259B4680235B029A4683B0FD
:103F600001AF80224146584608F036F90F20FFF78E
:103F700073FA43463A000221A0205BBA3B80FFF768
:103F800077FC22008021A120FFF7BAFB23780134BF
:103F9000ED18ADB2A642F9D180239C46E0444C46D0
:103FA0008036D04501D0E144DBE7C1230A4A5B00FB
:103FB000D35C84220849FF32895C1A025B18ED1A2F
:103FC0000748084B8A1802801D8003B03CBC90460D
:103FD0009946A246AB46F0BDA0520120A45E011056
:103FE000943401209234012000230121034A1360FC
:103FF000034B19601368002BFCD07047D02E0120B2
:10400000C82E012010B51C4C2368002B04D11B4C7A
:104010002368002B19D110BD01210120184AFCF79B
:104020003DFEFCF7D5FF00232360FFF705FF0122CB
:10403000144B01211A600320134AFCF72FFEFCF7F2
:10404000C7FF0E4C2368002BE5D0012101200F4A49
:10405000FCF724FEFCF7BCFF00232360FFF76AFF98
:1040600001220B4B01211A6003200A4AFCF716FEBD
:10407000FCF7AEFFCFE7C046C82E0120CC2E0120B2
:10408000BC5E0110D02E0120C85E0110D45E01106C
:10409000D42E0120E45E01107047C0460120034B7E
:1040A00003491A68126808601A60704710120120EC
:1040B000483301200122034B1A60034B034A1A6064
:1040C0007047C04648330120101201205C120120C5
:1040D0000122034B1A60034B034A1A607047C04623
:1040E00048330120101201201C1301200122034B30
:1040F0001A60034B034A1A607047C04648330120D8
:10410000101201202C1201200122034B1A60034BD4
:10411000034A1A607047C04648330120101201203C
:10412000981201200122034B1A60034B034A1A60C4
:104130007047C0464833012010120120E0120120D0
:104140000122014B1A607047143401200122014BF7
:104150001A6070470C34012030B589B0FCF7CAFDF5
:10416000002100200F4AFCF799FD0F4DFCF734FAAF
:1041700001F0F8FF431CF9D001F0CAFF290002004A
:1041800004000300009003A806F05CF90121002060
:1041900003AAFCF771FD012CE8D1044B1C6009B0A7
:1041A00030BDC046F45E0110045F011048330120A9
:1041B00010B5FCF757FE10BD802110B55022A3208A
:1041C000024B4901FFF70EFE10BDC0469F73012050
:1041D0008422112110B50E4BFF3299547231FF31F8
:1041E0005A5CA02001325A545B180222FFF7FAFDF4
:1041F000FCF780FD074A00210020FCF74FFDFCF78B
:10420000EBF9054803F0FAFD0122044B1A6010BDDA
:10421000A0520120185F0110B80B000048330120A4
:10422000802110B55022A320024B4901FFF7BAFDAF
:1042300010BDC0469F73012000B595B06B4650225B
:104240000649A120FFF7AEFD80216B4650224901AF
:10425000A220FFF7C7FD15B000BDC046FF2000003B
:10426000F0B5DE46454657464E46E0B583B0FCF70E
:10427000D9FB002500242000012229000134FCF78D
:1042800015FC792CF7D10A35282DF3D1002500240F
:104290002100012228000134FCF708FC1F2CF7D173
:1042A0000A35822DF3D1FA20C00003F0A7FDFCF7F8
:1042B000B9FB00239B468B4B9D2500930193012363
:1042C00001279A4699465B466D007F42AB46002621
:1042D000B8461D00844C310028000022FCF7E6FBA4
:1042E000414650460022FCF7E1FB49465046002279
:1042F000FCF7DCFB414638000022FCF7D7FB4946BF
:1043000038000022FCF7D2FB009A019B94465B44E4
:104310001800A44464216646019306F025F964213F
:1043200005003000009606F01FF90600010001228A
:104330002800FCF7BBFB6A1C9246721E9046504652
:1043400001224146FCF7B2FB721C91465046012205
:1043500049466F1EFCF7AAFB012241463800FCF7D4
:10436000A5FB012249463800FCF7A0FB019B5F4AF0
:1043700093423BDD5B46D804C01A8000C01AC000DF
:1043800058448001C01A8000C01A594906F0ECF860
:10439000009B83461A00C8231B019A4258DDE004A3
:1043A000001B8000001BC00000190001001BC000A2
:1043B00000194F49400006F0D7F84C4B0400019318
:1043C000C8231B010093FCF707F901F0CBFE431C47
:1043D00081D001F09DFE012878D0062872D00528F2
:1043E0006BD164235B429C46E34474E7009B1A0054
:1043F000C8231B019A4246DDE004001B8000001B1D
:10440000C00000190001001BC0000019384940001D
:1044100006F0AAF8019B04001A0096235B009A425A
:104420005BDA5B46D804C01A8000C01AC00058444A
:104430004001C01A800058442D49400006F094F80D
:1044400096235B000193C8231B0183460093BAE7C0
:10445000264B0193009B1A0096235B009A42B2DA26
:10446000E004001B8000001BC00000190001001BBD
:10447000C00000191E49400006F076F896235B0044
:10448000040000939FE7019B1A0096235B009A4269
:10449000E0DA5B46D804C01A8000C01AC000584455
:1044A0004001C01A800058441149400006F05CF8F1
:1044B00096235B0083460193CCE7032800D00AE7EC
:1044C000643408E764239C46E34404E703B03CBC3F
:1044D00090469946A246AB46F0BDC8231B01009307
:1044E00071E7C0468813000041020000D43000008C
:1044F0001027000010B5024B186801F061FB10BDD9
:104500001412012010B50B4807F066FE3224042077
:10451000FBF734FF012003F071FC0420FBF78AFF56
:10452000013C012003F06AFC002CF0D1024807F0A6
:1045300053FE10BD245F01102C5F0110F0B5DE4664
:1045400057464E464546E0B5BC4893B007F044FE9A
:104550000A2007F099FCBA4807F03EFE0A2007F04F
:1045600093FCB84807F038FEB74807F035FEB74867
:1045700007F032FEB64807F02FFEB64CFCF752FAB1
:10458000B54B0C930D94002311930023B34C0A9365
:104590000B940023B24C029303940523B14C9B4629
:1045A000B14B0E930F9400231093FCF715F85B4664
:1045B000002B00DC99E00E980F99AC4B002206F01E
:1045C0007AFA00239A4608900991504606F0ECFAD0
:1045D0000A9E0B9F32003B0004000D0006F044FAD7
:1045E000A34A04900591A34B2000290006F063FA2A
:1045F0003B00320006F038FA002300249946984622
:1046000000232500009301941C0006900791049A52
:10461000059B2000290006F027FA069A079B040054
:104620000D000098019906F01FFA06000F00200007
:10463000290006F071FB009001913000390006F06E
:104640006BFB02000B000098019906F00DFA009038
:1046500001912000290006F049FB04000D00300004
:10466000390006F043FB02000B002000290006F091
:10467000FBF9040048460D0006F096FA089A099BDB
:1046800006F07AFA07000022781E87417A4B200054
:10469000290006F010FA0022784B06F00CFA0022EE
:1046A000764B06F0E1F906F097FA060000980199BA
:1046B0000022714B06F0FFF9029A039B06F0FBF90A
:1046C000029A039B06F0D0F906F086FA3A00310010
:1046D000FCF7ECF901239C46E044D144D84596D13F
:1046E000E2445346642B00D06FE70C9A0D9B0A9866
:1046F0000B9906F0B9F90A900B9101F033FD431CB8
:104700000FD001F005FD012832D0062827D005285A
:104710000ED1029803990022574B06F0CCF9029073
:104720000391119B002B00D13FE7FCF77BF93CE79D
:104730004E2868D0482862D054285CD02B283ED11F
:10474000109B012B2BD0022B19D001239C46E34454
:1047500059464B4807F040FD00231093E1E70298CB
:10476000039902000B0006F07FF902900391D8E74D
:1047700013B03CBC90469946A246AB46F0BD414AB8
:10478000414B0E980F9906F06FF902000B003F485D
:104790000E920F9307F020FD02231093C1E7394AD0
:1047A0003B4B0C980D9906F05FF90A9A0B9B0C9005
:1047B0000D91384807F010FD01231093B1E72D2823
:1047C00012D1109B012B2BD0022B20D10E980F99C8
:1047D0002C4A2D4B06F03FF902000B002B480E929D
:1047E0000F9307F0F9FC9CE720289AD10123119A36
:1047F0005A40119295E7284807F0EEFCDCE727487D
:1048000007F0EAFCC8E7264807F0E6FCA4E7012326
:104810005B429C46E3445946194807F0DDFC80E7BB
:104820000C980D99174A1A4B06F015F90A9A0B9B2A
:104830000C900D91174807F0CFFC72E7385F01101C
:10484000585F01107C5F0110BC5F0110DC5F01103C
:10485000F45F01109999993F9A9999990000344011
:10486000000050406666E63F6666666600407F4030
:104870009A4B2352916305400000E03F0000304016
:10488000186001107B14AE47E17A943F2860011054
:10489000E17A743F20600110306001103C6001102B
:1048A000486001107047C0467047C0467047C04618
:1048B0007047C0467047C0467047C046264BF0B5AB
:1048C00047469846C823CE465B010024994680B5EA
:1048D000224E234F234D91B06B4640222100A3204E
:1048E000FFF760FAFCF706FA6B4600211A78002001
:1048F000FCF7E6F96B4600215A1C0520FCF7CEF9BF
:1049000011236B441A0001210020FCF7C7F940462F
:1049100007F062FC6B463800197807F05DFC6B46C7
:104920003000591C07F058FC11236B441900280073
:1049300007F052FCFBF750FE01F014FC431CF9D0C9
:1049400001F0E6FB012802D040344C45C4D111B03F
:104950000CBC90469946F0BD54600110686001108F
:104960005C60011074600110F0B599B000236A46D4
:104970001370FCF7BFF9334D00212A000020FCF72B
:104980008DF96846FCF724FA00272026FBF724FE61
:1049900001F0E8FB431CF9D001F0BAFB0400012848
:1049A0001CD00D2821D068460BF01EFD1D28EDD827
:1049B0006B4620221E849B18190068441C700BF063
:1049C0000BFDFCF797F92A0000210020FCF766F99F
:1049D0006A4600210520FCF761F9D7E76B461B7892
:1049E000002B28D1184B186023E0184807F0F4FB7F
:1049F000002408AD02E00134642C1FD0A6012B0076
:104A000040223100A320FFF7CDF92B782A2BF2D0DA
:104A100021000F4807F0E0FB21202A236946684463
:104A20002B700BF0D9FC2B0040223100A220FFF7A5
:104A3000D9F919B0F0BD6B461F70C2E7054807F001
:104A4000CBFBF6E78060011048330120886001103D
:104A50009C600110B4600110F0B5DE4657464E462A
:104A60004546E0B5A9B000236A461370FCF742F949
:104A70008D4F00213A000020FCF710F96846FCF742
:104A8000A7F98A4B00249946894B00269A46894B00
:104A90009B46FBF7A1FD01F065FB431C00D1A6E09E
:104AA00001F036FB0500012851D00D2800D192E01D
:104AB000002E00D17AE07E4B1800984607F08CFB60
:104AC000632C03DD52E00134642C4FD0A10118ABFC
:104AD0004022A320FFF766F961236B441900684662
:104AE0000BF036FC0028EED1402218A908A807F0E8
:104AF000C1F8584607F070FBFCF7FCF83A000021BB
:104B00000020FCF7CBF82122002105206A44FCF7A5
:104B1000C5F83122012100206A440134FCF7BEF8B7
:104B2000FBF75AFD01F01EFB431CF9D001F0F0FA2F
:104B3000012800D188E00D28F2D1FBF74DFD0126B8
:104B400001F010FB01F0E4FA05000128ADD16B463D
:104B50001B78002B00D08FE00122574B1A6029B040
:104B60003CBC90469946A246AB46F0BD484607F08D
:104B700033FB00236A461370FCF7BCF83A000021AF
:104B80000020FCF78BF86A4600210520FCF786F828
:104B9000FBF722FD01F0E6FA431C6AD001F0B8FAF7
:104BA0000500012878D00D2879D0002420239846CC
:104BB00068460BF019FC1D282DD9FBF70DFD01F0FF
:104BC000D1FA431C25D001F0A3FA002605000128E4
:104BD000BDD00D28ECD15046D04607F0FDFA002E8E
:104BE00000D06DE7354807F0F7FA00246EE7002E95
:104BF00000D055E7FBF7F0FC01F0B4FA431C00D0FD
:104C00004EE7FBF7E9FC01F0ADFA431C00D047E7A3
:104C1000F0E700263DE76A4660234146D21811803E
:104C20006A46D318190068441D700BF0D5FBFCF7D9
:104C300061F83A0000210020FCF730F86A460021B4
:104C40000520FCF72BF8B8E700236A461370FCF741
:104C500051F83A0000210020FCF720F86A460021B4
:104C60000520FCF71BF80126FBF7B6FC01F07AFAE9
:104C700068E7002400260CE700236A461370FCF75F
:104C800039F83A0000210020FCF708F86A460021B4
:104C90000520FCF703F8FCE60024002657E7404611
:104CA00007F09AFA9EE7C046C4600110FC6001104C
:104CB000CC600110F460011048330120DC60011069
:104CC000F0B5C646294B00B598461B68002B24D189
:104CD00001F048FA431C02D104BC9046F0BD01F03B
:104CE00017FA234B1C68237B262BF5D022000021CA
:104CF000183206E00C3213000C3B1B780131262BD6
:104D0000EAD08342F6D14B005918890064186369D0
:104D10009847012342461360DEE7002342461360B2
:104D2000FBF7E8FF124E31680B7B262B1AD00025CB
:104D30000023104F5B199C0009190869FCF77AF8E9
:104D4000336801359C4664442069FCF741F838001B
:104D5000FCF73EF86B0031685A1992008A18127BF2
:104D6000262AE7D18B689847B2E7C046483301202E
:104D7000101201207052011070B504002500FBF7DD
:104D8000B9FF661C002100202278FBF799FF11353E
:104D9000320000210520FBF781FF2A0001210020BD
:104DA000FBF77CFF0B4807F017FA21780A4807F059
:104DB00013FA3100094807F00FFA2900084807F0F4
:104DC0000BFAFBF709FC01F0CDF9431CF9D001F017
:104DD0009FF970BD546001105C60011068600110A3
:104DE00074600110F0B5C64600B598B0FBF782FFBD
:104DF0001B4B002498462D251A4F1B4E220041467E
:104E0000684605F01FFB6A4600210020FBF746FFBD
:104E100020226B469B1820001D700A2105F0A4FB80
:104E200021230A006B4439001800413205F00AFBC7
:104E300031236B4422003100180005F003FBA1016F
:104E4000402208ABA220FEF7CDFF013408A8FFF7EF
:104E500093FF642CD2D118B004BC9046F0BDC0467C
:104E600010610110186101101C6101100022044B37
:104E70001A60044B01321A60034B044A1A607047EF
:104E80004433012048330120101201206413012013
:104E900010B5FFF715FF10BD1A4B70B51A680A213F
:104EA000501C186005F060FB174A002910D17B23C5
:104EB000D156164BC80F1860154B5C689D68DE68AC
:104EC0001C601C695D609E60DC601861002907DB66
:104ED0007423D35C002B02D000220E4B1A6070BDED
:104EE000012CF5D13543F3D10A480368013303603F
:104EF000042BEDD108490C600B68002BFCD103603A
:104F0000E6E7C04634340120A052012030340120AD
:104F10001812012038340120402E01200022014BBC
:104F20001A607047CC330120064B1A6811003039E3
:104F3000392A01DD573A1100034A13681B010B435C
:104F40001360704704330120CC3301200122014B50
:104F50001A607047E832012010B50100014807F0DF
:104F60003BF910BD24620110A522A62170B5154B96
:104F700015489A5C5E5C1202B618A72202319A5C50
:104F80005D5C1202AD18A92202319A5C5C5C1202CF
:104F9000A4180E4A0E499A5C595C12028918B6B2DE
:104FA00089B207F019F9ADB231000A4807F014F9D7
:104FB000A4B22900084807F00FF92100074807F0BC
:104FC0000BF970BDA052012038620110652000006D
:104FD00066200000486201105862011068620110EA
:104FE00070B50A2006F050FF074C084D26006036C9
:104FF00021682800083407F0EFF8B442F8D10A20FD
:1050000006F042FF70BDC046F413012000540110A9
:1050100070B50A2006F038FF0B4C0C4E2500813588
:10502000FF35626813782A2B03D03000217807F00F
:10503000D3F80C34AC42F4D1054807F0CDF80A207F
:1050400006F022FF70BDC0465414012078620110A2
:1050500084620110F0B5DE464E4645465746802232
:10506000E0B5264C0021A54410ABD200A320FEF7EA
:1050700099FE0A2006F008FF002302AD2B70204B9A
:10508000002499461F4B204E9846204B9A460CE030
:105090005146684605F0D6F9694628000BF030F90C
:1050A00080230134DB009C421CD0194BE7180F23EE
:1050B0001A0022409346234208D068213A78B35C14
:1050C0008B43E5D12E236A461380E5E72900484645
:1050D00007F082F85B4602AD210040462B7007F0D6
:1050E0007BF8EAE70A2006F0CFFE0A4B9D443CBC61
:1050F00090469946A246AB46F0BDC046BCEFFFFFC6
:10510000A8620110B0620110C56F01101461011096
:105110000000181044100000F0B5DE464E46574619
:105120004546E0B50A2091B006F0AEFE00236A467F
:1051300013728023234E9B003468E3189C4237D2BD
:10514000214B224F9846224B9B46224B9A46224B9C
:10515000994610E02A004946684605F073F9694609
:1051600002A80BF0CDF880229200944633680134F7
:105170006344A3421CD90F231D00254023420CD0B9
:1051800025784046290007F027F868227B5D934385
:10519000E0D12E236A461380E1E702A9584607F0C2
:1051A0001BF86B46210050461D7207F015F8E7E723
:1051B0000A2006F069FE11B03CBC90469946A24612
:1051C000AB46F0BDCC33012028610110C56F011042
:1051D000A8620110B86201101461011010B584B00A
:1051E00001AB1900074A11CA11C1108808809278D2
:1051F000A3208A70044A11680A22FEF7F3FD04B066
:1052000010BDC046C0620110CC330120F0B5DE46AF
:1052100057464E464546E0B5214B89B09B461B6834
:10522000002B32DD1F4B002499461F4B98461F4A26
:105230006300D55A1E4A1F49165D1F4A1F48125D5A
:10524000ADB2D2B20692CA5AC75A4B461B5D91B252
:10525000DBB29A464B46185D0791C0B2FDF7DCFC05
:1052600053460799069AF6B2BFB204900393019190
:1052700033002100009240462A00029706F0ACFF5E
:105280005B461B680134A342D1DC0A2006F0FCFD1A
:1052900009B03CBC90469946A246AB46F0BDC0461C
:1052A000D42C012094480120CC6201100037012049
:1052B00010450120343F0120DC3C01208C410120BD
:1052C000F0B545464E46DE465746244BE0B51C68D1
:1052D000234B00259946234B89B09846224A630008
:1052E000D65A224A2249175D224A2348125DB6B295
:1052F000D2B20692CA5AC35A91B29BB29A464B4650
:105300001B5D0791DBB29B464B46185DFFB2C0B2F6
:10531000FDF782FC5B46039353460799069A049077
:10532000029301913B00290000924046320006F0B2
:1053300053FF9621601C490005F016F996230135AC
:105340000C005B009D42C9D10A2006F09DFD09B00A
:105350003CBC90469946A246AB46F0BDD82C0120F5
:10536000E4430120CC620110843A0120083E012070
:105370003C46012058390120A834012010B50448CA
:1053800006F02AFF01F0AAFB024806F025FF10BD37
:105390000C6301101C630110002110B5034B04487D
:1053A000595606F019FF01F099FB10BD001D0120B0
:1053B0002863011070B51B211D4806F00DFF1D4824
:1053C00006F0B4FD1B211C4806F006FF1B4C1C4DCB
:1053D000236828005A425341236006F0FDFE0A204C
:1053E00006F052FD2368002B1FD11649164806F01F
:1053F000F3FE0A2006F048FD144806F0EDFE1448BE
:1054000006F0EAFE134806F0E7FE134806F0E4FE55
:10541000124806F0E1FE0A2006F036FD280006F0EC
:10542000DBFE0A2006F030FD70BD0D49DEE7C04608
:10543000446301104C6301105863011024340120AF
:10544000606301103C6301108C630110A4630110C0
:10545000B8630110C8630110DC630110F46301102C
:105460003863011070B51B211F4806F0B5FE1F48B8
:1054700006F05CFD1B211E4806F0AEFE1D4C1E4DC5
:10548000236828005A4253411C4A2360136859423A
:105490004B41136006F0A0FE0A2006F0F5FC2368DD
:1054A000002B1FD11649174806F096FE0A2006F079
:1054B000EBFC154806F090FE144806F08DFE1448EB
:1054C00006F08AFE134806F087FE134806F084FEB5
:1054D0000A2006F0D9FC280006F07EFE0A2006F01D
:1054E000D3FC70BD0D49DEE7446301104C6301102D
:1054F0000C64011024340120606301102034012069
:105500003C6301108C630110A4630110B8630110A7
:10551000C8630110DC630110F463011038630110EB
:1055200070B512488AB006F001FD6B460021104D9F
:10553000DC1D23000120695602AA01F029F8012888
:105540000ED10C4E227802A9300006F045FE002153
:1055500023000020695602AA01F01AF80128F1D0B0
:10556000054806F039FE0AB070BDC0461864011047
:10557000001D0120286401101C63011010B50024D7
:105580000A2006F081FC064B1C5701F09BFA210013
:105590000200044806F020FE0A2006F075FC10BD4B
:1055A000001D01203464011000B587B001AA06492E
:1055B0000AF0E2FD01A9054806F00EFE01A801F07F
:1055C0003BF807B000BDC04654640110646401108C
:1055D00000B5C3B002AB01AA0A490AF0CDFD019A99
:1055E00002A9094806F0F8FD019BD8B201F076F94E
:1055F00002A80AF0F9FE010002A801F083F943B005
:1056000000BDC046786401108864011000B583B005
:1056100001AA06490AF0B0FD019801F065F9044BB2
:105620000448196806F0D8FD03B000BDA864011055
:10563000DC2E0120B464011000B5C3B001AB6A4692
:1056400009490AF099FD019A0099084806F0C4FD3D
:10565000019BD8B201F042F9009801F045F902A887
:1056600001F014F943B000BDCC640110D8640110FE
:1056700000B583B001AA07490AF07EFD019B58B22C
:1056800001F07CF90021044B0448595606F0A4FDB2
:1056900003B000BDFC640110001D01200465011071
:1056A000002310B5040088B0059301331F49069309
:1056B0001F481333079306F08FFD20000B2406AB21
:1056C0001C4905AA009307AB0AF056FD079B6C44E2
:1056D000D8B2207001F002F9079A0599069B164886
:1056E00006F07AFD059B58B201F048F922000698B1
:1056F00004AB03A901F070F8002813D007990F48F4
:1057000006F06AFD03990E4806F066FD04990D48FF
:1057100006F062FD00210C4B0C48595606F05CFD6A
:1057200008B010BD0A4806F057FDF9E75C670110A4
:10573000146501101C6501102C65011048650110ED
:105740005865011068650110001D012004650110F5
:105750007865011010B5034804F0D8FE002103005D
:10576000002098475542000010B5034804F0CEFED3
:10577000002103000020984755420000324BF0B54D
:1057800057469A464546DE464E4600235246E0B509
:1057900013602E4B2E4D9B462E4B83B099462E4BBD
:1057A000984600212D4B5846595606F015FD6B467C
:1057B00020229A8000232B70642006F01FFD040035
:1057C000431CF9D00D2C10D01B2C0ED0200006F05D
:1057D0005BFB28000AF008FE8028EDD06B462818F5
:1057E00001A91C710AF0F8FDE6E74C4600262900E5
:1057F0002268404606F0F0FC276838000AF0F4FD05
:105800002900020038000AF023FE00280ED00136DD
:1058100008340C2EEBD153461B68002BC1D003B0CB
:105820003CBC90469946A246AB46F0BDF6000C48FB
:105830004E4406F0D1FC73682800984753461B6815
:10584000002BAED0EBE7C046E83201208C6501109A
:10585000A0A90220F413012094650110001D01206D
:10586000A465011070B512488AB006F05FFB6B4664
:105870000021104DDC1D23000120695602AA00F012
:1058800087FE01280ED10C4E227802A9300006F0C6
:10589000A3FC002123000020695602AA00F078FE34
:1058A0000128F1D0054806F097FC0AB070BDC0464B
:1058B00018640110001D0120286401101C630110F0
:1058C00030B5174883B006F031FB164806F084FC6B
:1058D00020236A4693800023134D2B70642006F02A
:1058E0008DFC0400431CF9D00D2C10D01B2C0ED0C5
:1058F000200006F0C9FA28000AF076FD8028EDD0D5
:105900006B46281801A91C710AF066FDE6E728001D
:1059100000F092FE054806F05FFC03B030BDC046C3
:10592000AC650110C0650110A0A902201C63011024
:1059300070B5734D64202C68002C0DD006F05EFC11
:105940000400431C07D06F4E3368012B5AD0022B42
:1059500032D0002B1CD070BD06F050FC431CFAD096
:1059600069490B0003E001340C33202CF3D01A7882
:105970008242F8D1654B186063001C19A400091914
:105980008B689847624B6348196806F025FCE2E78C
:105990001B2867D0604D44B22C70631CDBD0FAF733
:1059A0001BFE0023EB560133D5D0FAF715FE00237A
:1059B000EB560133F3D1CEE7432856D010DC412813
:1059C00046D0422800D07AE00423534D2B70FAF7DA
:1059D00003FE0023EB560133F9D100233360BAE70D
:1059E00044286CD105234C4D2B70FAF7F5FD0023AC
:1059F000EB560133F1D0FAF7EFFD0023EB560133FC
:105A0000F3D1EAE76D2850D006DC1B2815D05B28BF
:105A100035D1022333609EE76F2830D13E4D2B7085
:105A2000FAF7DAFD0023EB560133D6D0FAF7D4FDAE
:105A30000023EB560133F3D1CFE700231B21374876
:105A40002B60336006F0C8FB354806F0C5FB82E7E3
:105A50000323314D2B70FAF7BFFD0023EB560133C2
:105A6000F9D1BAE70133336075E706232A4D2B706D
:105A7000FAF7B2FD0023EB560133F9D1ADE700236D
:105A8000254D2B70013305D0FAF7A6FD0023EB5608
:105A90000133F9D164B22C70631C9ED0FAF79CFDDF
:105AA0000023EB560133F9D197E702231A4D2B70EF
:105AB000FAF792FD0023EB560133F9D18DE700236D
:105AC000154D2B70013305D0FAF786FD0023EB56F8
:105AD0000133F9D100232B70013305D0FAF77CFD97
