:020000041000EA
:1000000000B5324B212058609868022188439860DF
:10001000D860186158612E4B002199600221596106
:100020000121F02299502B49196001219960352056
:1000300000F044F80222904214D00621196600F024
:1000400034F8196E01211966002018661A6600F04E
:100050002CF8196E196E196E052000F02FF8012189
:100060000842F9D1002199601B49196000215960AB
:100070001A491B48016001219960EB211966A021F2
:10008000196600F012F800219960164914480160C1
:100090000121996001BC002800D000471248134993
:1000A000086003C880F30888084703B5996A0420EC
:1000B0000142FBD001200142F8D103BD02B5186610
:1000C0001866FFF7F2FF186E186E02BD00000240BE
:1000D000000000180000070000035F00212200005C
:1000E000F4000018222000A00001001008ED00E03C
:1000F00000000000000000000000000074B24E7A12
:1001000000200420F7010010C3010010C5010010F9
:10011000C1010010C1010010C1010010C101001097
:10012000C1010010C1010010C1010010C701001081
:10013000C1010010C1010010C9010010CB01001065
:10014000CD010010CD010010CD010010CD01001037
:10015000CD010010CD010010CD010010CD01001027
:10016000CD010010CD010010CD010010CD01001017
:10017000CD010010CD010010CD010010CD01001007
:10018000CD010010CD010010CD010010CD010010F7
:10019000CD010010CD010010CD010010CD010010E7
:1001A000CD010010CD010010CD010010CD010010D7
:1001B000CD010010CD010010CD010010CD010010C7
:1001C00000BE00BE00BE00BE00BE00BE00F04BF888
:1001D000103800BEF2EB8871F48901101C8A0110FE
:1001E0003402001090A31AE700202149086006C8D5
:1001F00081F3088810471F48006800282FD10DA4FC
:100200000ECC002902D000F012F8F9E71A491B4A77
:10021000002000E001C19142FCD1194988471949E9
:1002200088471949884700BEFDE701C901C29A42C3
:10023000FBD370471C8A0110C0000020C028012099
:100240001CB2021000000420000004201CB20210A6
:1002500000100420001004200000000070470B482C
:100260000BF096F80047EFF30580C0B2704700002E
:1002700008ED00E0000000D0C028012038B00220C6
:10028000B195001095070010D59600105756000044
:1002900006005250ABB36053E07B01100600525091
:1002A000861C0302F07B0110060052505422A29DCE
:1002B000007C011005005250DE65F4681CB202108B
:1002C000F8B5C0460448054B10B5834203D0044B33
:1002D000002B00D0984710BDC0280120C028012065
:1002E0000000000006480749091A8B10C90FC918F9
:1002F00010B5491003D0044B002B00D0984710BD17
:10030000C0280120C02801200000000010B5074CC3
:100310002378002B09D1FFF7D5FF054B002B02D026
:10032000044800E000BF0123237010BDF82901201C
:1003300000000000F05D0110054B10B5002B03D04C
:100340000449054800E000BFFFF7CCFF10BDC046E0
:1003500000000000FC290120F05D011010B50648E6
:100360000CF07CFE0FF042FD012008F089FC06F045
:1003700099FB02F0C7FEF7E7F05D0110F0B54746C4
:10038000CE4680B5294B83B098461A88284B9A42AE
:1003900040D043461B88D0251843434680B218807E
:1003A0001E88802380271B022D0601200021AB61BF
:1003B000FF0408F04DFC1024B946B6B20FE08023CC
:1003C000DB016B610120002108F042FC013C0120AF
:1003D00000216F6108F03CFC7600002C0BD04B46EE
:1003E0000120AB61002108F033FC3304E7D4802303
:1003F000DB01AB61E6E7D02380221B0612025A61C3
:1004000043461A880A4B9A420AD003B00CBC904665
:100410009946F0BD00230093009B002BFCD1B8E768
:1004200000230193019B002BFCD1EEE7CE35012088
:1004300009200000F0B5CE46474680B5284B83B072
:10044000984240D0274BD025984642461B888027AB
:1004500083431380802316881B022D060120002170
:10046000AB61FF0408F0F4FB1024B946B6B20FE00C
:100470008023DB016B610120002108F0E9FB013CD6
:10048000012000216F6108F0E3FB7600002C0BD007
:100490004B460120AB61002108F0DAFB3304E7D4BE
:1004A0008023DB01AB61E6E7D02380221B0612022A
:1004B0005A6143461A880A4B9A420AD003B00CBCD0
:1004C00090469946F0BD00230093009B002BFCD181
:1004D000B8E700230193019B002BFCD1EEE7C04657
:1004E00009200000CE350120F0B50124D02584403C
:1004F000C64680272D0600B50120AC610021AC6105
:1005000008F0A6FB7F036C610120002108F0A0FB2E
:1005100008260024B8466B686400E4B29B0202D54A
:1005200001231C43E4B2434601200021AB6108F0E3
:100530008FFB013E012000216F6108F089FB002E36
:10054000E9D1200004BC9046F0BDC046F8B5DE46B7
:1005500057464E464546E0B501263300D024834039
:1005600024060D0001200021A36117009B4608F01E
:100570006FFB002F26DD7B1E9E408023DB04B046F0
:10058000994600269A4610E08023DB016361012032
:10059000002108F05DFB4B4601200021636101361C
:1005A00008F056FB6D00B7420CD053460120A36102
:1005B000002108F04DFB43461D42E5D18023DB01BD
:1005C000A361E4E7D0235A461B065A613CBC90461F
:1005D0009946A246AB46F8BD70B51F4D1F4E2A681E
:1005E000336894469B001E4A63449B009A5804005B
:1005F0006146306800F018FD00221A4B1A60052C85
:1006000017D00CDD062C1AD0422C04D1164A1368E0
:1006100059424B4113600122144B1A6070BD032CE8
:1006200013D0042CF7D12B68022BF4DC01332B60A0
:10063000F1E73368002BEEDD013B3360EBE7336815
:10064000132BE8DC01333360E5E72B68002BE2DD98
:10065000013B2B60DFE7C046602F01201806002019
:100660003C380120542F01204C2F01200030012064
:10067000F8B53F4B1B68002B08D102F0B7FF03F021
:10068000D3FE02F03FFD05F0B9FDF8BD08F0E6FB32
:1006900002000B0014001D0036490E684F68A41BB1
:1006A000BD41354E7068A84218D2344800240A6013
:1006B0004B60334A04601368594259411160002B62
:1006C00016D1304B1B68002B40D080222E4C2F4D72
:1006D00052002968206800F0A7FCCEE7A84202D1AA
:1006E0003068A042E1D325480468002CC5D0DDE77E
:1006F000244B1B68002B16D0244D02212A68224E61
:1007000094463368224C9B0063449B001859FF3188
:1007100000F022FE3068296883005B189B001A599C
:1007200000F082FCA9E7194C02212268164D94467C
:100730002B68174A9B0063449B009858FF3100F0D8
:100740000BFE022228682168FF32E9E70F4D0221E3
:100750002A680D4C944623680D4A9B0063449B0015
:100760009858FF3100F0F8FD0222FF32B1E7C04691
:10077000502F0120C0280120100600200030012049
:10078000542F01204C2F012018060020602F01203B
:100790003C38012010B51B2084B007F03BFBD0246F
:1007A000802324061B0563620D20636107F032FB82
:1007B0000E2007F02FFB0F2007F02CFB162007F070
:1007C00029FB152007F026FB1A2007F023FB132036
:1007D00007F020FB142007F01DFB122007F01AFB86
:1007E000002007F017FB012007F014FB022007F0A0
:1007F00011FB032007F00EFB042007F00BFB052084
:1008000007F008FB062007F005FB072007F002FBB6
:1008100001220021002007F0E5FA01220021012039
:1008200007F0E0FA01220021022007F0DBFA0122A2
:100830000021032007F0D6FA01220021042007F04E
:10084000D1FA01220021052007F0CCFA0122002173
:10085000062007F0C7FA01220021072007F0C2FA9C
:100860000A2007F0D7FA0B2007F0D4FA0C2007F083
:10087000D1FA112007F0CEFA102007F0CBFA0022AF
:100880000121102007F0AEFA00220121112007F00B
:10089000A9FA80238022DB0192016362A262636273
:1008A00080231B0263628023DB03636280239B033C
:1008B000A3628023DB04636280231B0363628022C4
:1008C0008023D2025B03636262628022D200626292
:1008D00080221201626280225201626217486361C3
:1008E00002AA03AB01A907F0AFF900281FD101202C
:1008F000FFF744FD0A2008F0C3F900F04DF800218D
:100900000F4A002000F0EEFB00F02EF90CF0B2FBD5
:1009100001F002FD0B480FF043FA04F0DFFE0A4835
:100920000CF046FA04F0ECFE05F068FCFAE7039AD6
:100930000299019807F04CF9D9E7C046A0F70300E7
:10094000005E01105D030010045E011000B583B06D
:100950006A4680231371793B03405020404218437C
:1009600050710221782001AA03F094F903B000BD70
:1009700010B5102482B0030901AA234353700F233A
:100980008021184011709170D0707C39782003F06C
:1009900081F902B010BDC046F0B580276F4CFA2532
:1009A000238885B03B439BB223806D4B21881E6812
:1009B0000822300089B2FFF7C9FD7F23ED000395BF
:1009C00022883000134023802188082289B2FFF753
:1009D000BDFD0295238808223B439BB223802188DA
:1009E000300089B2FFF7B2FD019502F04DFF78208B
:1009F00002F0B6FF802002F0B3FFAE2002F0B0FF9D
:100A0000802002F0ADFFD52002F0AAFF802002F086
:100A1000A7FFA02002F0A4FF802002F0A1FFA820E1
:100A200002F09EFF802002F09BFF1F2002F098FF43
:100A3000802002F095FFD32002F092FF802002F088
:100A40008FFF002002F08CFF802002F089FFAD2094
:100A500002F086FF802002F083FF8E2002F080FFEC
:100A6000802002F07DFFD82002F07AFF802002F083
:100A700077FF052002F074FF802002F071FFA120B3
:100A800002F06EFF802002F06BFFC82002F068FFCA
:100A9000802002F065FFDA2002F062FF802002F081
:100AA0005FFF122002F05CFF802002F059FF9120CE
:100AB00002F056FF802002F053FF3F2002F050FF6B
:100AC000802002F04DFF3F2002F04AFF802002F01C
:100AD00047FF3F2002F044FF802002F041FF3F200B
:100AE00002F03EFF802002F03BFF812002F038FF41
:100AF000802002F035FF1B4B187802F031FF802078
:100B000002F02EFFD92002F02BFF802002F028FFF8
:100B1000D22002F025FF802002F022FFDB2002F02D
:100B20001FFF802002F01CFF342002F019FF8020FC
:100B300002F016FFA62002F013FF802002F010FF43
:100B4000A42002F00DFF802002F00AFFAF2002F087
:100B500007FF02F0C9FE05B0F0BDC046D035012048
:100B6000245E01101C0600208023F0B54746CE46C7
:100B70009946D03B0025984680B5174F83B001AE0B
:100B80004B463370434632002B430221782073706A
:100B900003F080F8320004217820019703F07AF8FE
:100BA00002F072FE782002F0DBFE402002F0D8FE58
:100BB0008424013C0020E4B202F0D2FE002CF8D1E3
:100BC0000135EDB202F090FE042DD9D103B00CBC7A
:100BD00090469946F0BDC04680108000204BF0B58D
:100BE0004746CE469946002380B5502700259846B3
:100BF000802683B001AC7F424B4642465B191A7097
:100C0000EB113B432200022178206370267003F031
:100C100041F87F2310212B401A090A4362700F22EA
:100C20000421134078202200E3702670A67003F0A0
:100C300031F802F029FE782002F092FE402002F006
:100C40008FFE002002F08CFE02F04EFE8023013564
:100C5000DB009D42D0D103B00CBC90469946F0BD5C
:100C60004C4E0120F0B54E464546DE465746E0B5AF
:100C70000C000600150083B07F2801D81F2906D973
:100C800003B03CBC90469946A246AB46F0BD7F23DC
:100C900007221B1A9846CB1713405B18DB105B42E8
:100CA00003339A468023914652469B4601AF3B70E0
:100CB000D03B134302213A0078207B7002F0EAFF18
:100CC00043465A4610210433DBB23A701A090A43EC
:100CD0007A705A46BA70713A134004213A0078206B
:100CE000FB7002F0D7FF02F0CFFD782002F038FE53
:100CF000402002F035FE5346DF01164B47449A462A
:100D0000DB5D9846002D1CD0012D10D0EAB22100E9
:100D1000300005F091FB404600F090F8C0B202F0C0
:100D20001FFE53464246DA5502F0DEFDA8E74B4669
:100D30002A0023409A40130042461343DBB29846F0
:100D4000E4E74B46012223409A40434693439846AA
:100D5000DCE7C0464C4E012070B586000D007318CC
:100D60002021314A9B009950304A431C04001560F1
:100D7000142B45DC2E4A136029002022200005F0A8
:100D800037FB0320401BC0B2FFF7E0FDA01B01248E
:100D900040007F30C0B2FFF7EBFD02F075FD782018
:100DA00002F0DEFD402002F0DBFD224D6E1F22002E
:100DB0002B78013D1A4058102040520002439810F1
:100DC000520020401043DA102240400010431A1114
:100DD0004000224002435811204052000243981123
:100DE000520020401043DB114000184302F0B8FDD0
:100DF000AE42DCD1002002F0B3FD02F075FD70BD03
:100E000000230B490B606B1C032B07DD13230B60C6
:100E1000032D04D10122084B1A60ADE713600022B4
:100E2000054B1A60A8E7C0463C3801201435012064
:100E300010350120C40600200C35012002210123B9
:100E40004200114042101A401143821049001A40DA
:100E50000A43C110194052000A43011152001940BF
:100E6000114342111A4049001143821149001A40AE
:100E70000A43C0115200184010437047F8B51600DD
:100E80008700334A7B189B009E50324A431C040063
:100E90000D001160142B47DC2F4A1360F2B22900B9
:100EA000200005F0A5FA0320401BC0B2FFF74EFD5D
:100EB0000425E01B012440007F30C0B2FFF758FD3D
:100EC00002F0E2FC782002F04BFD402002F048FDE9
:100ED000B2009619214A96192200735D1A405810E3
:100EE0002040520002439810520020401043DA1074
:100EF0002240400010431A11400022400243581182
:100F000020405200024398115200204010434000FC
:100F1000DB11184302F024FD013DDDD2002002F078
:100F20001FFD02F0E1FCF8BD00230B490B606B1CB8
:100F3000032B07DD13230B60032D04D10122084B83
:100F40001A60ABE713600022054B1A60A6E7C046A3
:100F50003C380120143501201035012020060020E6
:100F60000C350120F8B5CE46474680B5027804001E
:100F7000002A23D0184B002798469946174E184D43
:100F800007E0306829680134FFF778FF2278002AEB
:100F900014D0092AF5D1296837604B1C032B11DDC9
:100FA000132313203360032910D043461F60227897
:100FB0000134FFF763FF2278002AEAD10CBC904687
:100FC0009946F8BD190000202B60EEE74A46123B17
:100FD00013602278D7E7C0460C3501201035012078
:100FE00014350120F0B5C6460C4D0D4E2B680D4C46
:100FF0009846336800B52768002B09D13900404670
:1010000001E028682168FFF7A7FE3368002BF8D0BD
:10101000434627602B6004BC9046F0BD103501208C
:101020000C35012014350120F8B51500D2B20F009F
:10103000040005F0DDF90320C01BC0B2FFF786FCF9
:10104000A000201A40007F30C0B2FFF791FC02F0F0
:101050001BFC782002F084FC402002F081FCAA00F6
:10106000521901240425154EB6182200735D1A404A
:101070005810204052000243981052002040104364
:10108000DA102240400010431A114000224002436F
:101090005811204052000243981152002040104342
:1010A0004000DB11184302F05BFC013DDDD2002063
:1010B00002F056FC02F018FCF8BDC04620060020E5
:1010C00070B5150012780E00002A09D004002D1A00
:1010D000200031000134FFF7D1FE2A5D002AF7D14C
:1010E00070BDC04670B5150012780E00002A09D0F8
:1010F00004002D1A200031000134FFF7BFFE2A5DE5
:10110000002AF7D170BDC04670B584B001AD0400AF
:101110000E00280008490AF0D7F82A78002A08D0DB
:101120002D1B200031000134FFF7A8FE2A5D002AA4
:10113000F7D104B070BDC0467077011070B50025BE
:101140000024210028000134FFF706FE042CF8D10A
:101150000135152DF4D10023024A1360024A1360B1
:1011600070BDC046642F0120682F0120F8B54746A6
:10117000CE4680B5144E154F0278804634683D68DF
:10118000002A0BD0031B994620002900FFF776FEAA
:101190004B4601341A5D002AF6D13468404610F0FF
:1011A00065F82418142C04DC34600CBC9046994675
:1011B000F8BD00223B6832600133032B01DD3A6049
:1011C000F3E73B60F1E7C046642F0120682F012060
:1011D00010B510F04BF8084B1A6894466044142878
:1011E00007D90021054A196013680133032B01DD7B
:1011F000116010BD1360FCE7642F0120682F0120EF
:1012000070B509480BF02AFF01231D00074AD024BE
:101210001268FA2095402406054AA5614000136033
:1012200007F02EFDA56170BD2C5E0110285E011037
:1012300040350120394A30B513680400013313608A
:10124000B02383B09B0098425FD028D9C0239B0075
:10125000984236D0403398421FD18021304A314CD9
:101260001088238801407F201180013311889BB2B0
:10127000238043400B439BB2138011882A4B0822E2
:10128000186889B2FFF762F90220284923884A7D4D
:10129000DB120340824313434B7503B030BD013B67
:1012A000FF3B98421BD040339842F6D1802040004B
:1012B000FFF764F82000FFF761F8642007F0E0FC16
:1012C000EBE700238022174C2380154B19880A4036
:1012D0007F211A801A880A431A801988CEE703F002
:1012E00095F813480BF0BAFE01231D00114AD024D3
:1012F0001268FA209540019224060F4AA561400029
:10130000136007F0BDFCA561C7E780204000FFF730
:1013100091F880208000FFF78DF8BEE74C35012062
:10132000D0350120D2350120245E01102C57012038
:101330002C5E0110285E0110403501208023044AF4
:101340005B42517C0B4353740122024B1A7070476D
:101350002C570120980F0020830018188B00591873
:101360001D4BF0B51A18C41CA44614005D182C437C
:10137000CF1CA4071BD10124614513DD0126B8420F
:101380000EDD3443E40712D51468144A5918224379
:101390002A601B181A7980235B4213430B71F0BD3E
:1013A0000026EEE700240126B842EADCF8E78022B6
:1013B0001C5C524214435C54181844785918144366
:1013C0004C70847814438C7064461C5D1443DC5567
:1013D00003791A430A71E2E72006002080808080AA
:1013E0000122024B1954024B1A607047C456012067
:1013F000D82F0120F0B5DE4657464E464546E0B5AB
:10140000012083B002F03AFA5D4B5E491A68002A67
:1014100003D10A68002A00D1A4E000225A4F1A60C2
:101420003B680A60002B00DAA2E0584B0024994682
:10143000574B9B46574B9846574B9A460EE0574B97
:101440002000196809F0D2FF03002A0008001900E3
:10145000FFF714FD3B680134A34239DB4B465A4683
:101460001B681B5DD55C424612689342E7D1534628
:101470001B68002BE3D04A4B1B68002B07D0494B5D
:101480001B68002B06D0019580256D00D7E7454BE2
:101490001B6801938021AB005B1901950225424A2C
:1014A0004942D05C414E08439055D3185878404E7D
:1014B0000843905598783F4E08439055D8780136A8
:1014C000084390551B79FF350B433B495354B6E70E
:1014D0001421200009F08AFF14218246200009F01F
:1014E00085FF8946354B00269846434631009A5D74
:1014F00014200136FFF7C2FC042EF6D16A1EFF3A13
:101500002B00012A26D92E4AD35C682293431FD090
:101510005346162058434B462A4EEDB235552A4CB9
:101520002018C5543D6859462A0028480BF0E4FAB3
:1015300000232B22A3541632A35416326375A354EE
:10154000735503B03CBC90469946A246AB46F0BDED
:101550002025DDE7019D1A4A2B00D35C68229343C6
:10156000D6D1F5E70A4B084F9B46164E164CD9E7E5
:10157000002399469A46064B00249B46B2E7C04694
:10158000D82F01205C2F01206C0B0020C8560120B1
:10159000345802203034012038340120700B0020F0
:1015A000582F0120343401202006002005050000BA
:1015B000060500000705000009050000C4560120CB
:1015C0005D7E011050530120CC5601204C52012069
:1015D000E02330B55B00040083B0984200D123E1E2
:1015E0000BD817281FD8022865D9C31E9BB2142B0D
:1015F00057D8A94A9B00D3589F46D0239B009842B6
:1016000041D039D9E8239B00984200D139E126D94D
:10161000F0239B00984213D10122A04B1A60A04BEB
:10162000185D03B030BD0300813BFF3B9BB2012B33
:1016300041D88223FF33984200D00CE10020F0E72C
:10164000203398422DD1974A1368002B00D107E12F
:101650008021C9018C46634400201360E1E7403BD0
:10166000984200D110E12033984224D100228B4BC4
:101670001A608B4B185DD4E7803B984200D1CDE0D7
:101680004033984204D12000FFF7D4FD0020C8E782
:10169000803B98420FD10420FEF770FE804B185D0E
:1016A000BFE7230400D5A8E08023DB019C4202D3DE
:1016B0007D4B1B68E4187A4B185DB2E77B4B1868CA
:1016C000FEF712FF7F2343407E201840D023744C46
:1016D0001B0660755B68764A5B0BDB0118430223CF
:1016E00012889843D21213401843607504F00CF826
:1016F000607D96E7D0226F4B1206506819685268D9
:10170000C8405C680121E2400840C0014008114225
:1017100001D080221043D0221206526899684008F6
:10172000CA40D20703D5802252421043C0B2D02211
:1017300012065268D9684008CA40D20703D58022F1
:1017400052421043C0B2D0221206526819694008B2
:10175000CA40D20703D5802252421043C0B2D022E1
:101760001206526859694008CA40D20703D5802240
:1017700052421043C0B2D022120652689969400802
:10178000CA40D20703D5802252421043C0B2D022B1
:1017900012065268DB694008DA40D30703D580237C
:1017A0005B421843C0B29621434A490013688B42FA
:1017B00000DB36E7E22541495C0065540133091935
:1017C000487013602DE73E4B18782AE73D4B187898
:1017D00027E73D4A1378D9B2012B46D0022900D021
:1017E00069E7122800D066E7032313707F222C4B91
:1017F000597C0A405A74185D13E7C0231B029C42AF
:1018000005D9324B9C466444314B185D09E72F4B98
:101810009C46244B644418682418F5E70420FEF71E
:1018200009FE1F4B185DFCE602F0F0FD29480BF0A5
:1018300015FC01231D00284AD0241268FA20954087
:1018400001922406254AA5614000136007F018FAAA
:101850000020A561E5E6224B18687F231840E0E6EA
:1018600080231B0200201360DBE60D4B112800D003
:10187000D6E6597C7F2900D8D2E602211170185D86
:10188000CFE6094A1368E3E60023074A0020136005
:10189000044A1360C5E6C0463C5E0110740B00208C
:1018A0002C5701203035012018350120205E011011
:1018B000D2350120780F00209C350120545401209E
:1018C000DF350120DE350120980F00200080FFFF6A
:1018D0009C0F00202C5E0110285E01104035012075
:1018E000303401200B4B1A88824206D01A8A824279
:1018F0000BD01A8C82420AD0704700220121064880
:1019000012019B1801605960F6E70122F6E70222F6
:10191000F4E7C0463C0B0020103401200120704742
:101920007047C0460022014B1A60704750350120B5
:101930007323084AD15C643B0B400749D3188C469B
:1019400006496344096819707421535C0133535488
:101950007047C0462C570120B0200000D8AA0220B2
:1019600010B50349034802F0FDF9431E984110BD2C
:10197000B060011034A2022010B50349034802F000
:10198000F1F9431E984110BDC060011034A202203D
:10199000164AF8B5136801331360154B9B69DB06D3
:1019A00003D5144A1368013313601025104C124EEE
:1019B000124FA3691D4211D1A3691D42FCD12368B6
:1019C000DBB2002BF5D032680D49BB5430680130D2
:1019D00009F00CFD3160A3691D42EDD0A3691D42E1
:1019E00003D1084A136801331360F8BD183401208D
:1019F000008003401C340120203401204C88022048
:101A000088130000143401207047C046F8B50A4E10
:101A100000243500094F3800296802F0A3F9002896
:101A200004D101340835072CF5D1F8BDE400341990
:101A300063689847F9E7C046D81101203C59022055
:101A40005F4AF0B51368DE4659424B4101215746C3
:101A50004E4645465B428B4318000023E0B5546870
:101A600097B0584E02AA03AF1375A33033701022FB
:101A70003B002100019002F0A7FB80239B46524BC4
:101A8000A3449A460F2398460FE0403902AB5B18F7
:101A90001A700023013102AA521807A80CA90134B8
:101AA00013700FF06FFBA3452AD0454643462540EF
:101AB000234266D04246E3171B0FE5181540ED1A86
:101AC0007A5D51460CA809F0FFFB30000FF0CEFB09
:101AD0000CA930180FF032FB68217A5D3B4B814630
:101AE0009B5C8B43D1D107A80FF0C0FB07AB9C4692
:101AF00002223749604401340AF0FEFFA345D4D1E5
:101B00000222344948460AF0F7FF484607A9023046
:101B10000FF0A4FB304B314C1A68314B2000196890
:101B2000330009F0D1FB20000FF0A0FB2D4E2E4B0F
:101B3000020018602D49300009F0C6FB3478002CF3
:101B400018D03000002120220D26294B02255D5F90
:101B5000284B002928D1A5422DD099690A42FCD1F1
:101B60001C60017801300D394C4261410478C9B2E2
:101B7000002CEED117B03CBC90469946A246AB462D
:101B8000F0BD230007AA1C490CA809F09DFB0CA975
:101B900030000FF0F7FA02AB1D7510223B00210058
:101BA000019802F011FB85E799690A42D8D099693A
:101BB0000A42F9D1D4E799690A42FCD11E60CCE708
:101BC000D8AA0220F4640220E86001105D7E0110B2
:101BD000385E01104C6D01106C2F0120D87002206E
:101BE000E40F012010AA0220F0340120F06001105F
:101BF00070AD022000800340D8600110F0B5D646D9
:101C00004F464646414BC0B51C68012C08D0022CFB
:101C10003DD0002C28D01CBC90469946A246F0BD71
:101C20003B4B1E68002EF6DD3A4B3B4C9A4619683A
:101C30003A4B00271B6836199846394B994606E0FF
:101C40004A462378013401275355B4425BD00D0036
:101C5000481CFA21890009F0C9FB4145F0D1002F49
:101C6000D9D053461D60D6E72E4F2B4E3D0003E0E2
:101C700001340835082CCED03000296802F072F803
:101C80000028F5D0E4003C1963689847C3E7204B6F
:101C90001D68002DBFDD7423234E1F4AF15C013BFC
:101CA000F05C663B00240F279C46AD180FE03C001B
:101CB0000440A1461D4CB144A0464C464444237008
:101CC00001240131C9B201320130AA4215D0137882
:101CD0000A2BF8D00D2BF6D0042BE8D1134C3B0087
:101CE000A04664460340F3184344013101321C709E
:101CF000C9B201240130AA42E9D1002C00D18AE7FF
:101D00007423F15487E75346196084E7F42D0120CA
:101D100080340120F82E01203C590220FC2E0120A5
:101D2000C46C0220A00F01202C570120B02000001D
:101D3000F0B50E4B0E4D19682B68C6465C1A631C35
:101D400098460C4F0C4E00B51A00891938000AF05D
:101D5000D3FE4246390030000AF0CEFE0122074B86
:101D60002C601A6004BC9046F0BDC0465C34012073
:101D7000083401207C80022034A202207434012027
:101D8000F0B5C64601221C4B00B5532100201A6055
:101D90000025FFF725FB194C194E03E001350C34E3
:101DA000282D11D02378032BF8D1310060680FF073
:101DB00011FA0028F2D10122124B1D60124B1A6059
:101DC000124A136801331360114D124B124F1968F8
:101DD0002B68124E5C1A631C98461A008919380049
:101DE0000AF08AFE4246390030000AF085FE2C6077
:101DF00004BC9046F0BDC0465C350120F80F0120C0
:101E000004610110C0350120C43501209435012042
:101E1000083401205C3401207C80022034A202209E
:101E2000F8B5CE4647461A4C80B52368002B1AD029
:101E3000184B194E19683368184F5D1A6B1C994678
:101E4000174B4A4698461800C9190AF055FE4A46EB
:101E5000414638000AF050FE0023356023600CBC78
:101E600090469946F8BD0B4B0B4D19682B680C4FEB
:101E70005C1A631C9846094E1A00891938000AF04A
:101E80003BFE4246390030000AF036FE2C60E6E7A1
:101E9000743401205C3401200834012034A2022073
:101EA0007C800220F0B5CE46474680B564210220F2
:101EB00085B0FFF795FA494C4949200001F052FFDF
:101EC000002804D105B00CBC90469946F0BD454BA6
:101ED000454E19683368454F5D1A6B1C98461A00C9
:101EE000380009190AF008FE3900424620000AF0BD
:101EF00003FE3F4F35603B6899461D2BE2DC002B0B
:101F000067DD3C4B2B2598461C004B465D433A4E03
:101F10004544310020000FF05DF90028D2D02B3469
:101F2000A542F6D12B244D4643466543310058194E
:101F30000FF094F92800314914304D694B680A6854
:101F400003950D6940440295CD680195896800911B
:101F50002B4909F0B9F92B4B310018680FF03AF909
:101F6000002803D03B6801333B60ABE73B68264E5B
:101F70005C432200143230002449424409F0A4F9A1
:101F80003478002CEED03000002120220D26204B8A
:101F900002255D5F1F4B00290FD1A54214D099691E
:101FA0000A42FCD11C60017801300D394C4261417C
:101FB0000478C9B2002CEED1D4E799690A42F1D075
:101FC00099690A42F9D1EDE799690A42FCD11E608C
:101FD000E5E7084B084E9846A4E7C04634A2022025
:101FE0000C6101105C340120083401207C80022047
:101FF000002F0120A49C022004AC0220D8AA0220B9
:102000006C6101109C0F012010AA02205461011084
:1020100070AD022000800340F0B5C6466321012068
:1020200000B5FFF7DDF90F4C0F49200001F09AFED3
:10203000002802D104BC9046F0BD0C4B0C4E196830
:1020400033680C4F5D1A6B1C98461A00091938004A
:102050000AF052FD4246390020000AF04DFD35607D
:10206000E8E7C04634A20220806101105C34012000
:10207000083401207C800220F0B5C646632101208F
:1020800000B5FFF7ADF90F4C0F49200001F06AFED3
:10209000002802D104BC9046F0BD0C4B0C4E1968D0
:1020A00033680C4F5D1A6B1C98461A0009193800EA
:1020B0000AF022FD4246390020000AF01DFD35607D
:1020C000E8E7C04634A202208C6101105C34012094
:1020D000083401207C800220F0B5C646040072213D
:1020E000012000B5FFF77CF91D482401041961683F
:1020F0001C4C200001F036FE002802D104BC9046A2
:10210000F0BD194E194B1A4F1968336838005D1A23
:102110006B1C98461A0009190AF0EEFC2000424692
:1021200039000AF0E9FC3560124C0025124E03E03C
:1021300001350C34282DE1D02378032BF8D1310060
:1021400060680FF047F80028F2D101220B4B1D60A8
:102150000B4B1A600B4A136801331360CEE7C0467D
:10216000986A011034A20220083401205C34012056
:102170007C800220F80F01209C610110C0350120F5
:10218000C435012094350120F0B5C646040069210C
:10219000012000B5FFF724F91048240104196168F3
:1021A0000F4C200001F0DEFD002802D104BC904657
:1021B000F0BD0C4B0C4E196833680C4F5D1A6B1C4C
:1021C00098461A00091938000AF096FC4246390070
:1021D00020000AF091FC3560E8E7C046986A0110DB
:1021E00034A202205C340120083401207C800220CB
:1021F000F0B5C64604006E21012000B5FFF7F0F8E7
:102200001248240104196168114C200001F0AAFD54
:10221000002802D104BC9046F0BD0E4B0E4E19684A
:1022200033680E4F5D1A6B1C98461A000919380066
:102230000AF062FC4246390020000AF05DFC084BBF
:1022400035601A68074B1A60E4E7C046986A0110C7
:1022500034A202205C340120083401207C8002205A
:10226000D8AA0220442F0120F0B5C646040043211D
:10227000012000B5FFF7B4F81D4824010419616876
:102280001C4C200001F06EFD002802D104BC9046D9
:10229000F0BD194E194B1A4F1968336838005D1A92
:1022A0006B1C98461A0009190AF026FC20004246C9
:1022B00039000AF021FC3560124C0025124E03E073
:1022C00001350C34282DE1D02378032BF8D13100CF
:1022D00060680EF07FFF0028F2D101220B4B1D60D9
:1022E0000B4B1A600B4A136801331360CEE7C046EC
:1022F000986A011034A20220083401205C340120C5
:102300007C800220F80F0120A4610110C03501205B
:10231000C43501209435012010B500211F4806F076
:1023200097FC0221082005F045FD0221092005F057
:1023300041FDE1211A4C4902200007F0C7F8C022F4
:10234000236B12021340174A152013601023E26A10
:1023500015491340154A136005F078FE0121152038
:1023600005F030FE5023A363626B183B1340104A04
:10237000104813600AF01CFD0AF0F0FD0220FEF781
:1023800059F8642006F07CFC0220FDF7F7FF0023DB
:10239000094A1370094A136010BDC04640420F003D
:1023A0000080034030900340911900102C900340AE
:1023B00034900340AC61011034A2022008340120A3
:1023C000F0B557464E464546DE460023E0B5394F48
:1023D00087B003AD2B703B18DB7982460222364E64
:1023E0007F2B5BD8300035490AF086FB534601331A
:1023F00098460424324A334B91469B46B844042CF9
:1024000011D0434649461A5D280008F05DFF3000B0
:102410000EF02CFF290030180EF090FE631C24D023
:10242000013C042CEDD153460533FA5C59461209A0
:102430002800019308F048FF30000EF017FF290034
:1024400030180EF07BFE02221F490AF055FB0F22C6
:10245000019B5946FB5C28001A4008F035FF290013
:1024600030000EF08FFE013CDBE7032217490AF033
:1024700043FB06225744BA56002A14DB494628007B
:1024800008F022FF290030000EF07CFE300007B07B
:102490003CBC90469946A246AB46F0BD30000C4984
:1024A0000AF02AFBA2E728000A49524208F00CFF72
:1024B000E8E7C0462C570120B0700220306E0110B2
:1024C00070770110CC610110385E0110D4610110E9
:1024D000C8610110D86101100023F0B50024324E0C
:1024E000324D334F91B033702200390006A808F006
:1024F000EBFE06A930000EF045FE2800FFF760FF56
:102500000134010030000EF03DFE08350A2CEBD1FD
:10251000284B294C1A68294B1968294B0493294BDD
:10252000180016380290180003932C38423B019093
:1025300000932000330008F0C7FE20000EF096FE46
:10254000214A224E1060224A0300126830002149BD
:1025500008F0BAFE3478002C18D01F4B300002254A
:102560005D5F202100230D261C4A002B10D1A542BF
:1025700015D093691942FCD11460037801300D3BEA
:102580005C4263410478DBB2002CEED111B0F0BDA7
:1025900093691942F0D093691942F9D1ECE7936934
:1025A0001942FCD11660E4E7F4640220FF20000029
:1025B000E06101106C2F0120D8700220E00F012093
:1025C00034A202200E570120F034012010AA02206C
:1025D000442F0120EC61011070AD02200080034007
:1025E000F8B557464E464546DE463A4BE0B59C4662
:1025F0001860394B04001960384B0F009A460023CD
:1026000052461360364B994601234A461360354BB8
:102610001860354B98461E68002846DD32000021C0
:102620000023324D324807E0E95C013CC154013AD5
:1026300001210133002C1CD0002AF5DC002932D006
:102640005246E9181360F61A63461C60294C771C41
:102650003A0020000AF050FA3A00210028000AF05F
:102660004BFA43461E603CBC90469946A246AB4698
:10267000F8BD51460B6041460A606246F61A146086
:10268000721C92461B4CE91820000AF035FA52469B
:10269000210028000AF030FA43461E6000234A4613
:1026A0001360B847DFE72900D0E7731C9B46114B46
:1026B0000E4D9A4618005A4629000AF01DFA5A464D
:1026C000514628000AF018FA43461E60002CE5D057
:1026D000C9E7C046042F012030A2022078800220E2
:1026E000182F0120803401200834012034A2022058
:1026F0003C5902207C800220F0B5C64650210220C1
:1027000000B5FEF76DFE114C1149200001F02AFBC7
:10271000002802D104BC9046F0BD0E4E0E4B0F4F68
:102720001968336838005D1A6B1C98461A0009193D
:102730000AF0E2F93900424620000AF0DDF9084BC0
:10274000084958683560FFF74BFFE3E734A20220E1
:10275000B0600110083401205C3401207C8002202C
:10276000D8AA02200D1A0010F0B5C646502102204A
:1027700000B5FEF735FE114C1149200001F0F2FAC8
:10278000002802D104BC9046F0BD0E4E0E4B0F4FF8
:102790001968336838005D1A6B1C98461A000919CD
:1027A0000AF0AAF93900424620000AF0A5F9084BC0
:1027B000084918683560FFF713FFE3E734A20220E9
:1027C00000620110083401205C3401207C8002206A
:1027D000D8AA0220FD1B001070B51B480EF046FD64
:1027E0001A4C1B4B020018601A49200008F06CFDBF
:1027F0002278002A18D0184B200002255D5F202483
:1028000000230D261549002B17D1954210D08B6956
:102810001C42FCD10A60037801300D3B5A425341FF
:102820000278DBB2002AEED101220D4B1A6070BD96
:102830008B691C42FCD10E60E9E78B691C42E9D030
:102840008B691C42F9D1E5E7D870022010AA02205A
:10285000F03401201062011070AD022000800340AE
:102860005035012010B51C22034904480AF044F9F0
:10287000FFF7B2FF10BDC04624620110D8700220DD
:1028800010B5064B06495A681B680648CA540649E3
:1028900008F01AFDFFF7A0FF10BDC046D8AA02201D
:1028A0002C570120D8700220406201104C4AF0B52C
:1028B0001368454659424B4101215B428B43180046
:1028C000484BDE46984657464E46546800234246DB
:1028D000E0B597B0137003AF02AA1375A3303B00A5
:1028E00010222100019001F06FFC80239C46A4443B
:1028F00063460093002399463B4B9B460F239A4621
:1029000010E0403902AB5B181A700023013102AAB3
:10291000521807A80CA913700EF034FC009B013468
:10292000A34229D0554653462540234242D0012395
:102930009C464E46E144BA5D59460CA808F0C4FCDA
:1029400040460EF093FC0CA940440EF0F7FB6821C2
:10295000BA5D264B05009B5C8B43D2D107A80EF0D5
:1029600085FC07AB9C460222214960440AF0C4F86A
:10297000009B0134A342D5D1022228001D490AF050
:10298000BBF807A9A81C0EF0D9FB03221A490400C2
:102990000AF0B2F84346E21A4146033217480AF0F9
:1029A000ABF8FFF719FF17B03CBC90469946A2461A
:1029B000AB46F0BD230007AA11490CA808F084FC1F
:1029C0000CA940460EF0DEFB02AB1D7510223B0049
:1029D0002100019801F0F8FB012300269946AAE79F
:1029E000D8AA0220F4640220E86001105D7E011084
:1029F000385E01104C6D0110D0640110D8700220B7
:102A00005462011000B50A4B0A4985B002911900C1
:102A10002C31019119001A001631163A009106481E
:102A2000064908F051FCFFF7D7FE05B000BDC046CF
:102A3000E256012034A20220D87002206062011008
:102A400010B50C4C82B0A268206801AB1A704242EB
:102A500050410122404290436168A33001F0D4FB11
:102A6000236862680449054808F02EFCFFF7B4FEAD
:102A700002B010BDD8AA022040620110D870022016
:102A8000F8B5CE46474680B56D4A1378002B04D181
:102A90006C4B6D4A1B789B009A586C4C6C4920001B
:102AA00008F012FC6B4E210030000EF047FB0500D1
:102AB0000422694920000AF01FF80422210028009E
:102AC0000AF01AF8654F3B68002B17DD644B0025B0
:102AD0009946644B98464B461B68581980B2FEF7DE
:102AE00077FD41460200200008F0EEFB2100300097
:102AF0000EF048FB3B680135AB42ECDC5A4D5B49BC
:102B00002A88200008F0E0FB210030000EF03AFB9C
:102B1000AA885749200008F0D7FB210030000EF0AA
:102B200031FBAA795349200008F0CEFB2100300088
:102B30000EF028FBEA795049200008F0C5FB21007F
:102B400030000EF01FFBEB79AA794C49200008F009
:102B5000BBFB210030000EF015FB6A8848492000BD
:102B600008F0B2FB210030000EF00CFB4549464B4B
:102B700008682A7A18608888988089799971434909
:102B80000878FF2835D0104241D18878FF2830D00E
:102B900010423FD10879FF282BD010423DD18879CF
:102BA000FF2826D010423BD1087AFF2821D01042BE
:102BB00001D0487A1871887AFF281AD0104201D0C3
:102BC000C87A5871087BFF2813D010422BD1887B1C
:102BD000FF280ED0104229D1087CFF2809D01D0003
:102BE000104226D0487C0135E871887C0231FF28EC
:102BF000F6D12000264908F067FB210030000EF0D6
:102C0000C1FAFFF7E9FD0CBC90469946F8BD48783B
:102C10001870BAE7C8785870BCE748799870BEE772
:102C2000C879D870C0E7487B9871D0E7C87BD87165
:102C3000D2E7887C01350231FF28D1D1D9E7C046DF
:102C4000883401202D580220780B0020F4640220E3
:102C50007C620110D870022080620110305802207E
:102C60003859022084620110B05601208C62011094
:102C700098620110A4620110B0620110BC620110E0
:102C8000CC620110EC620110EC0F01202C0B002033
:102C9000D862011070B51A480EF0E8FA194C1A4BB8
:102CA000020018601949200008F00EFB2278002A63
:102CB00018D0174B200002255D5F202400230D262D
:102CC0001449002B14D195420DD08B691C42FCD1C4
:102CD0000A60037801300D3B5A4253410278DBB25F
:102CE000002AEED170BD8B691C42FCD10E60ECE76E
:102CF0008B691C42ECD08B691C42F9D1E8E7C046D5
:102D0000D870022010AA0220F0340120F0600110D7
:102D100070AD02200080034000B5094A094909CA84
:102D2000094A83B01354094A096812680190009354
:102D30000748084B08F0C8FAFFF7ACFF03B000BD26
:102D4000D8AA0220E80F01202C5701206C2F012067
:102D5000D8700220F4620110F0B54E46DE465746A8
:102D60004546E0B593B000236A46384E137333707E
:102D7000374B00249846374B9B46374B9A46374B88
:102D800099460FE06B4648395B181A706A46002373
:102D90000131521803A808A9013413700EF0F2F99A
:102DA000802C26D00F231D00254023423FD04346D0
:102DB00059461A5D08A81F1908F086FA30000EF06F
:102DC00055FA08A930180EF0B9F968213A78244B61
:102DD00005009B5C8B43D5D103A80EF047FA03ABEB
:102DE0009C4602221F496044013409F085FE802C74
:102DF000D8D1022228001C4909F07EFE03A9A81C94
:102E00000EF09CF90322194909F076FE184B194877
:102E10001A68194B1968330008F056FAFFF73AFFA1
:102E200013B03CBC90469946A246AB46F0BD534613
:102E3000494603AA009408A808F046FA300008A9F9
:102E40000EF0A0F96B461D73B1E7C046F464022092
:102E50002C570120E8600110FC620110046301108E
:102E60005D7E0110385E01104C6D0110D0640110C0
:102E70006C2F0120D8700220E40F012010B50F4CF8
:102E800084B0A268206803AB1A704242504101220C
:102E9000404290436168A33001F0B6F9084B0948FD
:102EA0001A68094B196863680193A3680093074B7C
:102EB00008F00AFAFFF7EEFE04B010BDD8AA02200F
:102EC0006C2F0120D8700220E80F01201063011040
:102ED000F0B55746DE464E4645460023E0B5354F31
:102EE00095B002AA3B70137380339B46324B0400AB
:102EF0009946324B03919A460F23834498460FE03C
:102F0000483902AB5B181A700023013102AA52182B
:102F100005A80AA9013413700EF034F95C4526D0D7
:102F2000454643462540234235D04B4651461A5D1F
:102F30000AA81D1908F0C8F938000EF097F90AA977
:102F400038180EF0FBF868212A781D4B06009B5CB0
:102F50008B43D5D105A80EF089F905AB9C4602221A
:102F600018496044013409F0C7FD5C45D8D10222FC
:102F70003000154909F0C0FD05A9B01C0EF0DEF8BF
:102F80000322124909F0B8FD15B03CBC90469946A1
:102F9000A246AB46F0BD039B0D4905AA00940AA8C2
:102FA00008F092F938000AA90EF0ECF802AB1D7394
:102FB000BBE7C046F46402202C570120E8600110F2
:102FC0005D7E0110385E01104C6D0110D06401105F
:102FD00004630110084B10B518680849FFF778FF23
:102FE000074B08481A68084B1968084B08F06CF939
:102FF000FFF750FE10BDC046D8AA0220FC620110A7
:103000006C2F0120D8700220E40F0120F46402200C
:1030100010B5064B06491868FFF75AFF05490648E0
:1030200008F052F9FFF7D8FB10BDC046D8AA02201D
:10303000D0640110F4640220D870022010B52E4B29
:10304000020019682D480160998881809B798371FD
:103050002B4B1978FF2935D00A4234D19978FF29B2
:1030600030D00A4232D11979FF292BD00A4230D10F
:103070009979FF2926D00A422ED1197AFF2921D029
:103080000A4201D0597A0171997AFF291AD00A426D
:1030900001D0D97A4171197BFF2913D00A421ED180
:1030A000997BFF290ED00A421CD1197CFF2909D037
:1030B00004000A4219D0597C0134E171997C023331
:1030C000FF29F6D110BD59780170C7E7D978417052
:1030D000C9E759798170CBE7D979C170CDE7597BC0
:1030E0008171DDE7D97BC171DFE7997C013402335F
:1030F000FF29DED1E6E7C046EC620110EC0F0120AB
:103100002C0B0020F0B5DE4657464E4645460023C0
:10311000E0B587B0C64C0593C64B20681B68834258
:103120000BD01122C44B9A56597C002A05DBC34AA6
:10313000157A10222A4200D1FAE0C14B9A461B6848
:10314000012B00D1CDE0BF4B0A211A6801321A6071
:10315000186808F04BF900290CD1BB4C2368002BF0
:1031600000D098E020210320FEF73AF923685A4264
:1031700053412360B54DB64E2A6833689A421BD03E
:10318000B44BB54F9946B54B9846202304AA1380FB
:103190002B68B3495A1C2A60FC5C04ABE4B2286873
:1031A0001C7008F023F92960142C79D0002C63D10D
:1031B0002A6833689A42E8D1AA4B1C68002C00D0D8
:1031C000C8E0A44BA84A99461B78D35C1B071FD5BF
:1031D000A24B4F469A461D68A44B984601234B4488
:1031E0009B465346A2461C002A005946404609F019
:1031F00083FC2A004146380009F07EFC9A4A3B785D
:103200006E1ED35C0822350026601A42ECD154466B
:10321000974D0DE0022B07D12000AB68984700289E
:1032200002D02000EB68984701341035262C0CD0D2
:103230002B78012BEED14846696800F093FD0028F9
:10324000EFD101341035262CF2D18A4B1A68002AAE
:1032500040D0894E3268002A00D0D9E0874C884D92
:103260002068420011188900695C062900D9BAE07B
:10327000844F890079588F46484604A90DF082FF93
:10328000434642461B68013313602A6833689A42FA
:1032900000D07AE790E703205731FEF7A1F865E701
:1032A00053461B680321581C08F0A0F85346764D7E
:1032B0000C0019600C222800744909F01DFC012C37
:1032C00000D193E0022C00D19CE0002C00D193E0CF
:1032D000FFF782FA07B03CBC90469946A246AB463F
:1032E000F0BD6B4B1C68002C00D02CE7694B1E68AE
:1032F000694B196899468E4200D124E7674B7F27B6
:103300009846614D2C70013D4346481C5B5CFA2198
:1033100001343B402B55890008F068F88E42F3D108
:103320004B461E60002301352B55FFF755FA0AE77F
:103330000A4200D101E7FA21594A8900125C0130A2
:103340009A7408F053F82160FDF7F8FF5548FEF72E
:10335000C9FAF2E6544B99461B68002B2DDD3F4A13
:103360003C4E14680293E31A0193731C92469B46E9
:103370003E4F0394002CADDD3378220059463800CF
:10338000984609F0B9FB22003900300009F0B4FB7F
:103390005346464A651E1D601368591C116041461C
:1033A000434AD154029B039A013B9B1A4A461B197C
:1033B0001360019A2C00AA42DCD1002B00D089E7CF
:1033C000284A13603B4B1B68984783E713189B0000
:1033D000EB189B689847206843001B189B00EB5C28
:1033E000042B00D176E70130206073E7102228001B
:1033F000314909F081FB6BE7092228002F4909F0C8
:103400007BFB65E70E2228002D4909F075FB5FE77D
:1034100005F024FD2B4A53688B4200D95AE703D1AB
:103420001368834200D955E70023336052E7C04652
:10343000FC2E0120F82E01202C570120B05601202F
:10344000F42D01206C2F0120F40F012024340120E1
:103450002034012034A202204C88022008340120AC
:1034600088130000182F01205D7E01107C8002204F
:10347000986A0110C4350120BC350120C0350120F7
:10348000F80F012054630110D87002201863011056
:10349000503501200C2F0120102F01200C6102203B
:1034A000C46C0220F0FF0000042F0120788002206D
:1034B0003C59022030A20220306301102463011025
:1034C00040630110F0290120414D2F78002F8AD050
:1034D000404B0D2102269E5F002398468C462022F9
:1034E00041463D4B00290FD1BE4214D099690A4292
:1034F000FCD11F60297801350D394F4279412F7871
:10350000C9B2002FEED16EE799690A42F1D09969EC
:103510000A42F9D1EDE799690A42FCD16146196086
:10352000E4E700221A60D5E62C4B984613189B005E
:10353000EB1805AA414658680DF060FD0123336081
:1035400005F08CFC059A53019B1A9B009B18DB002D
:103550001E00DF1780197941214B186059604146E0
:10356000204807F0B1FE36E713181F4F9B00EB18F9
:103570003800596807F0A8FE3E78002E00D12AE7EF
:10358000144B380002229B5E002120220D279C460E
:10359000114B00290FD1B44514D099690A42FCD1CE
:1035A0001E60017801300D394E4271410678C9B272
:1035B000002EEED10FE799690A42F1D099690A42CB
:1035C000F9D1EDE799690A42FCD11F60E5E7C046F1
:1035D000D870022070AD02200080034050630110BB
:1035E000F029012018A2022010AA0220F0B5C64638
:1035F00000B5954D82B02B68002B1CD1934C2368ED
:10360000002B00D07CE0924C2368002B00D090E08F
:10361000904C2368002B00D0A2E08F4C2368002B35
:1036200000D0B4E08D4D2B68002B00D0E9E002B053
:1036300004BC9046F0BD002398466B46424601AC60
:103640001A7001216A46DE2000F024FB8026220049
:103650000121DF2000F066FA4246237876423343A8
:10366000227002212200DE200D27637000F012FB81
:103670006B466A460121DE201F7000F00BFB220022
:103680000121DF2000F04EFA23782200334302218B
:10369000DE206370277000F0FDFA6B466A46012158
:1036A000DE201F7000F0F6FA22000121DF2000F07A
:1036B00039FA237822001E430221DE20667027702B
:1036C000072600F0E7FA6B466A460121DE201E70ED
:1036D00000F0E0FA22000121DF2000F023FA7F232E
:1036E000227802211340DE2022006370267000F051
:1036F000D1FA4346554C2B602368002B00D182E75A
:103700006B4600256A460121DE2001AE1D7000F0E7
:10371000C1FA32000121DF2000F004FA7F23327861
:10372000256013404A4C4E4A13602368002B00D199
:103730006EE701236A460121DE2001AD137000F01F
:10374000A9FA2A000121DF2000F0ECF9454B2A7884
:103750001A60002323603F4C2368002B00D15CE7F4
:1037600002236A460121DE2001AD137000F092FAB7
:103770002A000121DF2000F0D5F93B4B2A781A609E
:1037800000232360344C2368002B00D14AE76B46AA
:1037900000266A460121DE201E7000F07BFA01211E
:1037A00001AADF2000F0BEF96B461A797F232F4D66
:1037B00013402F4A0121AB5401236A46DE201370C7
:1037C00000F068FA012101AADF2000F0ABF96B4696
:1037D0001A79284B0121EA5402236A46DE2013702D
:1037E00000F058FA01AA0121DF2000F09BF96B4696
:1037F0001A79214B2660EA54184D2B68002B00D112
:1038000015E70027194E1A4B01ACF35C2200022188
:10381000DE206370277000F03DFA0122154B022173
:10382000F35CDE2022702200637000F033FA022283
:10383000114B0221F35CDE2022702200637000F045
:1038400029FA2F60F3E6C0464435012024350120D3
:10385000203501201C35012048350120403501204C
:103860003C35012038350120343501202C5701200A
:10387000CA200000C9200000C8200000014B1860C9
:103880007047C046101201200123154A84B0126807
:1038900093400192D0221206536293610023039356
:1038A000039B042B05DC039B01330393039B042B35
:1038B000F9DD01230B4A126893400192D0221206CF
:1038C0005362936100230293029B042B05DC029B4D
:1038D00001330293029B042BF9DD04B07047C0460C
:1038E0001C5E0110185E011001221B4B86B01B6884
:1038F0009A400193D0231B065A629A6100230593D4
:10390000059B042B05DC059B01330593059B042BCC
:10391000F9DD0123114909688B400191D021090685
:103920008B6200230493049B042B05DC049B01336E
:103930000493049B042BF9DDD0231B069A62002319
:103940000393039B042B05DC039B01330393039B2D
:10395000042BF9DD06B070471C5E0110185E0110E3
:10396000012170B50C00324BD0221B6808259C4009
:10397000304B00261B6888B099400193120643B271
:10398000002B51DB546294610596059B042B05DCEA
:10399000059B01330593059B042BF9DD9162049689
:1039A000049B042B05DC049B01330493049B042B30
:1039B000F9DD516291610396039B042B05DC039BA7
:1039C00001330393039B042BF9DD4000013DC0B29A
:1039D000002DD4D1D0231B069C6299620695069BCC
:1039E000042B05DC069B01330693069B042BF9DDB3
:1039F000D0206423000602E0013B002B16D0426871
:103A00002242F9D10120D0231B065962996100237B
:103A10000793079B042B05DC079B01330793079B48
:103A2000042BF9DD08B070BD9462ADE70020EAE731
:103A30001C5E0110185E0110F0B50125374B47469A
:103A4000884619682B00D0228B40CE46120680B5DE
:103A500099469362324B84461B6808279D40002498
:103A60000026012089B001930596059B042B05DCF7
:103A7000059B01330593059B042BF9DD95620496A4
:103A8000049B042B05DC049B01330493049B042B4F
:103A9000F9DD53686400CB4055620340956103969D
:103AA0001C19039B042B05DC039B01330393039B2D
:103AB000042BF9DD013F002FD6D14346002B28D03F
:103AC000D0234A461B065A629A61D0231B069D6288
:103AD00000230793079B042B05DC079B0133079307
:103AE000079B042BF9DDD0231B065D629D6100233B
:103AF0000693069B042B05DC069B01330693069B6D
:103B0000042BF9DD63461C7009B00CBC9046994645
:103B1000F0BDD0234A461B069A62D6E71C5E011010
:103B2000185E0110F0B546464F46D6460123C0B593
:103B30001700564A8AB012680E0093409846D02368
:103B4000019242461B065A629A6100230293029B2D
:103B5000042B05DC029B01330293029B042BF9DD4D
:103B600001234B4A126893409946D02301924A465A
:103B70001B065A629A6100230393039B042B05DC06
:103B8000039B01330393039B042BF9DDFFF7E8FE4E
:103B9000002846D0002E0FDD731E9A46002406AD85
:103BA0005346191B4B1E99412800FFF745FF2B7800
:103BB0003B550134A642F3D1D02342461B065A623C
:103BC0009A6100230793079B042B05DC079B0133B5
:103BD0000793079B042BF9DDD0234A461B069A6204
:103BE00000230893089B042B05DC089B01330893F2
:103BF000089B042BF9DDD02342461B069A62002362
:103C00000993099B042B05DC099B01330993099B4C
:103C1000042BF9DD01200AB01CBC90469946A2464F
:103C2000F0BDD02342461B065A629A610490049B61
:103C3000042B05DC049B01330493049B042BF9DD66
:103C4000D0234A461B069A6200230593059B042B4A
:103C500005DC059B01330593059B042BF9DDD0237F
:103C600042461B069A6200230693069B042BD2DC75
:103C7000069B01330693069B042BCCDC069B013389
:103C80000693069B042BF3DDC5E7C0461C5E0110BE
:103C9000185E0110F0B50125304B89B01B680F008C
:103CA0009D400193D0231B065D629D610023039319
:103CB000039B1400042B05DC039B01330393039B3C
:103CC000042BF9DD0126264B1B689E400193D0236F
:103CD0001B065E629E6100230493049B042B05DC9B
:103CE000049B01330493049B042BF9DDFFF738FE9A
:103CF000002F06DDE71920780134FFF731FEA742D7
:103D0000F9D1D0231B065D629D6100230593059BBD
:103D1000042B05DC059B01330593059B042BF9DD82
:103D2000D0231B069E6200230693069B042B05DC12
:103D3000069B01330693069B042BF9DDD0231B065B
:103D40009D6200230793079B042B05DC079B01332F
:103D50000793079B042BF9DD09B0F0BD1C5E011031
:103D6000185E0110F0B54546DE4657464E46002423
:103D7000E0B50D00BF4B93B01C60BF4B01911C60C0
:103D8000BE4B07003C220021BD4898461C6008F04D
:103D9000ADFEBC4B1C701C752B78002B5ED0002236
:103DA0000292B94A00240026934639000097097808
:103DB0003200002918D0202B21D0252B32D00136FB
:103DC0000134994213D1434642461B6801331360C4
:103DD000019B02941B5D002B40D0BA191100097899
:103DE000009232000029E6D1202B00D1B7E100205B
:103DF00013B03CBC90469946A246AB46F0BDA34BDF
:103E000001345B5C1B07E3D543460821186845462F
:103E1000013683199B1A2B60BB5D9C4DEB5C1942EC
:103E2000F5D1D5E7019B621C994618009B5C914433
:103E3000002B00D1B0E15B2B7DD011D8252B72D1A6
:103E400001362529D3D1434642461B68023401334B
:103E50001360019B02941B5D002BBED10120C7E7BC
:103E6000642B01D0782B5ED101220020874D009277
:103E70001FE0782BBBD14421BB5DEA5C114200D12D
:103E800075E1202206A98A800B711022030100210E
:103E900007A89A460DF0DEFB5044434642461B6895
:103EA000013601331360BB5D002B00D136E14B4678
:103EB0001B78642BDDD1754ABB5DD15C04220A42BC
:103EC00022D12D2B00D121E1002E00D18FE7BB198B
:103ED000013B1B786D49C95C0A4202D12D2B00D0F1
:103EE00085E7644B63491B685A1C0A6000999B0074
:103EF000414308006249C8500E2A00DD43E1023404
:103F0000019B02941B5D66E7202206A98A800B7143
:103F10002D2B0CD083001818430007A89A460BF0ED
:103F2000E3FF5044B9E71400009902923FE70123F0
:103F30005B420093B1E7504B00221B6851499A46FF
:103F40009B00029353449B00CA54019B1B199A780F
:103F5000002A00D14BE70198023406A9002307315B
:103F6000001908E0262B00D141E70133CA54C25C96
:103F7000002A00D13BE7E5185D2AF3D10595262BF1
:103F800000D134E7002208ACE254E3185A705B46D3
:103F900020001A600DF06AF9002822D000230125C4
:103FA0000396049714E05E1CA15D2D2972D05B4638
:103FB000374F1B68B9465900C9188900CD55494487
:103FC0004A608A605A46013313603300834206D246
:103FD000E25C5E2AE7D1013302258342F8D3039ED7
:103FE000049F009B1A78002A3AD02649029B8946F2
:103FF00053449B0099445B461D683B0007AC574601
:104000009A4619E059688A4202DB99688A4220DDA3
:10401000022F00D1EBE60023210048466370227096
:104020000DF0B0F8434642461B6801360133136079
:1040300053469A5D002A11D0002D0EDD0020144B4E
:1040400019780129DED159688A4202DB99688A42CF
:10405000DEDD01300C33A842F2D15346BA461F00D0
:104060005346054A059C013313600134019B0294B9
:104070001B5DB0E658340120603401205C3401201F
:10408000D8AA022004AC0220643401205D7E011015
:1040900014AB02209E1CA75DB946002F25D15F46B8
:1040A0005B463F681B68B9465B0099444B469B00E2
:1040B0009946EAB213004F463B4ABB544A4451600A
:1040C00091605A461268384F0132914652004A4474
:1040D000B9469200D3555B464A44516091605A46B6
:1040E0001B6802331360330070E759462E4F09688E
:1040F000BC464E007618B600F555664472604A46D6
:10410000B2605A460131116003335FE7202107AAEC
:104110001180137001235B420093BEE6019A029B5B
:10412000944663449B78002B00D060E61F4B1F49E8
:104130001B685A1C0A6000999B00414308001C49F7
:10414000C85001200E2A00DC52E61A4B1A49002002
:1041500019606146194B1960194B1A6048E6029ABA
:10416000019B9446634458784342584140E6002EF0
:1041700000D13CE64422BB19013B1B78EB5C1A42A0
:1041800000D0AEE633E60B4B0B4919600B4B01999F
:1041900019600B4B1A602AE6064B0A4A1A60074B55
:1041A0001860002024E6C04614AB022058340120D9
:1041B000D8AA022014120120F86C01101812012054
:1041C00054340120046D0110F0B5040083B00D4893
:1041D0001F0016000D0008F041FF0F20FFF74EFBF7
:1041E000FE2001AA6DBA158020400221FFF752FD82
:1041F000012020433A003100C0B2FFF793FC03B026
:10420000F0BDC046206D0110F8B5070012480E0041
:1042100015001C0008F022FF0F20FFF72FFBFFF70F
:1042200033FBFE203840FFF79BFB3012C0B2FFF794
:1042300097FBF0B2FFF794FB002D06DD651920789F
:104240000134FFF78DFBAC42F9D1FFF74DFB0420A1
:1042500004F016FDF8BDC046206D0110F8B53B4BCB
:104260004E4699468422574645460023DE46494637
:10427000FF32E0B58B54013A8B54354B4C469A468D
:1042800080235B02CB4600250027984680345B469E
:104290001A780133BF18BFB2A342F9D18022290096
:1042A000504608F0DBFE0F20FFF7E8FAFFF7ECFAC4
:1042B000A020FFF755FB2812C0B2FFF751FBE8B270
:1042C000FFF74EFB5E4630780136FFF749FBA6420A
:1042D000F9D1FFF709FB042004F0D2FC802334005D
:1042E0009C468035E34480344545D0D1194BC124E8
:1042F0001F8084254B463A0A640021001A55FF3579
:10430000022250465F5508F0A9FE0F20FFF7B6FACB
:10431000FFF7BAFAA020FFF723FB0120FFF720FBED
:104320008220FFF71DFB4B46185DFFF719FB4B463C
:10433000585DFFF715FBFFF7D7FA042004F0A0FC47
:104340003CBC90469946A246AB46F8BD2C5701208E
:10435000206D0110C83501208022F0B5274C94460D
:10436000230057464E464546DE466344E0B599462F
:104370001E0000239846224B00259B4680235B02AB
:104380009A4683B001AF80224146584608F066FE47
:104390000F20FFF773FA43463A000221A0205BBAD0
:1043A0003B80FFF777FC22008021A120FFF7BAFBBA
:1043B00023780134ED18ADB2A642F9D180239C4692
:1043C000E0444C468036D04501D0E144DBE7C123D0
:1043D0000A4A5B00D35C84220849FF32895C1A02D6
:1043E0005B18ED1A0748084B8A1802801D8003B03D
:1043F0003CBC90469946A246AB46F0BD2C570120E6
:10440000206D0110CC350120CA3501200023012187
:10441000034A1360034B19601368002BFCD07047EC
:10442000E82F0120E02F012010B51C4C2368002B41
:1044300004D11B4C2368002B19D110BD0121012090
:10444000184AFCF74FFEFCF7D5FF00232360FFF767
:1044500005FF0122144B01211A600320134AFCF7C7
:1044600041FEFCF7C7FF0E4C2368002BE5D001216D
:1044700001200F4AFCF736FEFCF7BCFF0023236047
:10448000FFF76AFF01220B4B01211A6003200A4A41
:10449000FCF728FEFCF7AEFFCFE7C046E02F012077
:1044A000E42F0120386D0110E82F0120446D011028
:1044B000506D0110EC2F0120606D01107047C04657
:1044C0000120034B03491A68126808601A6070479C
:1044D0001C1201206C3401200122034B1A60034B93
:1044E000034A1A607047C0466C3401201C12012038
:1044F000681201200122034B1A60034B034A1A6021
:104500007047C0466C3401201C120120401301206A
:104510000122034B1A60034B034A1A607047C046DE
:104520006C3401201C120120381201200122034B9F
:104530001A60034B034A1A607047C0466C3401206E
:104540001C120120BC1201200122034B1A60034BF4
:10455000034A1A607047C0466C3401201C120120C7
:10456000041301200122014B1A60704748350120D5
:104570000122014B1A6070474035012000B500212F
:1045800091B00C4A0020FCF79BFD0B48FCF7EAFCBD
:104590000A4B1E211A68684600926A461B791371FD
:1045A0000023002201F072FF0122054B1A6011B0B6
:1045B00000BDC04614640110706D0110786D0110CB
:1045C0006C34012030B589B0FCF7B8FD0021002023
:1045D0000F4AFCF787FD0F4DFCF74AF802F08EFBFF
:1045E000431CF9D002F060FB290002000400030024
:1045F000009003A806F068FE0121002003AAFCF742
:104600005FFD012CE8D1044B1C6009B030BDC046F1
:10461000806D0110906D01106C34012010B5FCF715
:104620008DFD002100200E4AFCF74AFD01210020EB
:104630000C4AFCF745FD01230B4C2360FCF718F8EE
:1046400002F05CFB431CF9D002F02EFB012802D0E3
:10465000FBF7C2FFF2E700232360044B186010BD94
:10466000A46D0110B86D0110502F01206C34012091
:1046700010B5FCF7C5FD10BD802110B55022A32058
:10468000024B4901FFF7C0FD10BDC0462B78012049
:104690008422112110B50E4BFF3299547231FF3133
:1046A0005A5CA02001325A545B180222FFF7ACFD7D
:1046B000FCF744FD074A00210020FCF713FDFBF73F
:1046C000D7FF054804F0DCFA0122044B1A6010BD44
:1046D0002C570120C86D0110B80B00006C3401206C
:1046E000802110B55022A320024B4901FFF76CFD39
:1046F00010BDC0462B78012000B595B06B46502206
:104700000649A120FFF760FD80216B465022490138
:10471000A220FFF779FD15B000BDC046FF200000C4
:10472000F0B5DE4657464E4645460023E0B5CBB0D1
:1047300002AC2370FCF702FDA84E002132000020DD
:10474000FCF7D0FC2000FCF711FDA54B00279A4692
:10475000A44B9B46FBF78CFF02F0D0FA431C00D120
:10476000E0E002F0A1FA0500012800D1B4E00D2834
:1047700067D0002F2FD09C4B994601AB98460AAFCB
:10478000484608F06BFC902002F038FE42463900A3
:10479000200002F06DFD051E65D1504608F05EFC5C
:1047A0002570FCF7CBFC320000210020FCF79AFCBE
:1047B000220000210520FCF795FCFBF759FF02F0D1
:1047C0009DFA431C2FD002F06FFA0500012800D19A
:1047D0008FE00D281DD0202398462000082D00D101
:1047E000E1E00CF043FD1D2800D8AEE0FBF740FFF0
:1047F00002F084FA431C16D002F056FA0500012894
:1048000000D176E00D28E8D1774B0AAF994601AB8D
:104810009846484608F022FC1EE0FBF729FF02F00C
:104820006DFA431C05D1FBF723FF02F067FA431C26
:10483000F3D002F039FA0027050001284CD00D28EA
:10484000C9D1694B1800994608F008FC01AB98469D
:10485000002F00D077E00AAF584608F0FFFB012296
:10486000624B1A608FE702F079FD614808F0F6FBB1
:10487000FCF764FC320000210020FCF733FC3A0016
:1048800000210520FCF72EFCFBF7F2FE02F036FAC1
:10489000431CF9D002F008FA082800D17EE00D2868
:1048A00010D00128F0D100232370FCF747FC02ACA4
:1048B000320000210020FCF715FC22000021052019
:1048C000FCF710FCFBF7D4FE02F018FA02F0ECF94A
:1048D000012800D054E701272378002B0DD10122B5
:1048E000444B1A604BB03CBC90469946A246AB463E
:1048F000F0BD23780027002BF1D000232370FCF7B4
:104900001DFC320000210020FCF7ECFB22000021FE
:104910000520FCF7E7FBFBF7ABFE02F0EFF9431CC9
:1049200000D01EE7002F00D177E702F0BDF9012883
:10493000D2D02D4B99460D2800D01EE7180008F064
:104940008DFB01AB98460AAF1DE76B4642460AAFA6
:10495000390020181A853D700CF080FCFCF7EEFB46
:10496000320000210020FCF7BDFB220000210520C1
:10497000FCF7B8FBFBF77CFE02F0C0F9431C00D14A
:1049800051E702F091F905000128B2D00D2800D0BE
:1049900023E7154B994601AB98463AE702F0FCFA3B
:1049A00002F004FC70E70CF061FC002320180138D1
:1049B0000370220000210520FCF794FB20000CF07E
:1049C00055FC00210C4A0530FCF78CFBFBF750FE30
:1049D00002F094F9431C00D00EE724E7D46D0110D7
:1049E0000C6E0110EC6D0110DC6D0110FC2F01202C
:1049F000046E01106C340120206E0110F0B58BB0F4
:104A000000236A4600261372FCF798FB2D4D002107
:104A10002A000020FCF766FB02A8FCF7A7FB2A4F40
:104A2000FBF726FE02F06AF9431CF9D002F03CF9CC
:104A3000040008281FD00D2836D001282CD002A849
:104A40000CF014FC1D28EBD820236A46938002AB9F
:104A50009C4601A9604414710CF000FCFCF76EFB4D
:104A60002A0000210020FCF73DFB0021052002AABE
:104A7000FCF738FBD4E702A80CF0F8FB02AB9C462D
:104A800060440138067018000CF0F0FB3A00002179
:104A90000530FCF727FBC3E76B461B7A002B0ED1D2
:104AA0000A4B18600BB0F0BD902002F0A7FC02A8E2
:104AB0000CF0DCFB010002A802F038FEB0E76B4608
:104AC0001E72CBE7346E0110206E01106C34012091
:104AD000F0B5DE46454657464E46E0B583B0FCF796
:104AE0007DF8002500242000012229000134FCF774
:104AF000B9F8792CF7D10A35282DF3D100250024F7
:104B00002100012228000134FCF7ACF81F2CF7D15A
:104B10000A35822DF3D1FA20C00004F0B1F8FCF779
:104B20005DF800239B468B4B9D2500930193012349
:104B300001279A4699465B466D007F42AB460026A8
:104B4000B8461D00844C310028000022FCF78AF88A
:104B5000414650460022FCF785F84946504600225F
:104B6000FCF780F8414638000022FCF77BF8494604
:104B700038000022FCF776F8009A019B94465B44CB
:104B80001800A44464216646019306F02FFC6421BA
:104B900005003000009606F029FC06000100012205
:104BA0002800FCF75FF86A1C9246721E9046504639
:104BB00001224146FCF756F8721C914650460122EC
:104BC00049466F1EFCF74EF8012241463800FCF7BB
:104BD00049F8012249463800FCF744F8019B5F4A36
:104BE00093423BDD5B46D804C01A8000C01AC00067
:104BF00058448001C01A8000C01A594906F0F6FBDB
:104C0000009B83461A00C8231B019A4258DDE0042A
:104C1000001B8000001BC00000190001001BC00029
:104C200000194F49400006F0E1FB4C4B0400019392
:104C3000C8231B010093FBF71BFD02F05FF8431C28
:104C400081D002F031F8012878D0062872D00528EA
:104C50006BD164235B429C46E34474E7009B1A00DB
:104C6000C8231B019A4246DDE004001B8000001BA4
:104C7000C00000190001001BC000001938494000A5
:104C800006F0B4FB019B04001A0096235B009A42D5
:104C90005BDA5B46D804C01A8000C01AC0005844D2
:104CA0004001C01A800058442D49400006F09EFB88
:104CB00096235B000193C8231B0183460093BAE748
:104CC000264B0193009B1A0096235B009A42B2DAAE
:104CD000E004001B8000001BC00000190001001B45
:104CE000C00000191E49400006F080FB96235B00BF
:104CF000040000939FE7019B1A0096235B009A42F1
:104D0000E0DA5B46D804C01A8000C01AC0005844DC
:104D10004001C01A800058441149400006F066FB6B
:104D200096235B0083460193CCE7032800D00AE773
:104D3000643408E764239C46E34404E703B03CBCC6
:104D400090469946A246AB46F0BDC8231B0100938E
:104D500071E7C0468813000041020000D430000013
:104D60001027000010B5024B186801F055FC10BD6B
:104D70002012012010B50B4808F070F932240420ED
:104D8000FBF7FCFA012003F07BFF0420FBF752FB4A
:104D9000013C012003F074FF002CF0D1024808F020
:104DA0005DF910BD3C6E0110446E0110F0B5DE4699
:104DB00057464E464546E0B5BC4893B008F04EF91C
:104DC0000A2007F0A3FFBA4808F048F90A2007F0C4
:104DD0009DFFB84808F042F9B74808F03FF9B748D6
:104DE00008F03CF9B64808F039F9B64CFBF7F6FE86
:104DF000B54B0C930D94002311930023B34C0A93ED
:104E00000B940023B24C029303940523B14C9B46B0
:104E1000B14B0E930F9400231093FBF729FC5B46D4
:104E2000002B00DC99E00E980F99AC4B002206F0A5
:104E300084FD00239A4608900991504606F0F6FD3D
:104E40000A9E0B9F32003B0004000D0006F04EFD51
:104E5000A34A04900591A34B2000290006F06DFDA4
:104E60003B00320006F042FD00230024994698469C
:104E700000232500009301941C0006900791049ADA
:104E8000059B2000290006F031FD069A079B0400CF
:104E90000D000098019906F029FD06000F00200082
:104EA000290006F07BFE009001913000390006F0E9
:104EB00075FE02000B000098019906F017FD0090A6
:104EC00001912000290006F053FE04000D0030007F
:104ED000390006F04DFE02000B002000290006F00C
:104EE00005FD040048460D0006F0A0FD089A099B48
:104EF00006F084FD07000022781E87417A4B2000CF
:104F0000290006F01AFD0022784B06F016FD00225B
:104F1000764B06F0EBFC06F0A1FD06000098019927
:104F20000022714B06F009FD029A039B06F005FD75
:104F3000029A039B06F0DAFC06F090FD3A0031007D
:104F4000FBF790FE01239C46E044D144D84596D11E
:104F5000E2445346642B00D06FE70C9A0D9B0A98ED
:104F60000B9906F0C3FC0A900B9101F0C7FE431C9D
:104F70000FD001F099FE012832D0062827D005284D
:104F80000ED1029803990022574B06F0D6FC0290EE
:104F90000391119B002B00D13FE7FBF71FFE3CE77D
:104FA0004E2868D0482862D054285CD02B283ED1A7
:104FB000109B012B2BD0022B19D001239C46E344DC
:104FC00059464B4808F04AF800231093E1E702984D
:104FD000039902000B0006F089FC02900391D8E7C8
:104FE00013B03CBC90469946A246AB46F0BD414A40
:104FF000414B0E980F9906F079FC02000B003F48D8
:105000000E920F9308F02AF802231093C1E7394A51
:105010003B4B0C980D9906F069FC0A9A0B9B0C907F
:105020000D91384808F01AF801231093B1E72D28A4
:1050300012D1109B012B2BD0022B20D10E980F994F
:105040002C4A2D4B06F049FC02000B002B480E9217
:105050000F9308F003F89CE720289AD10123119AB6
:105060005A40119295E7284807F0F8FFDCE72748F7
:1050700007F0F4FFC8E7264807F0F0FFA4E7012394
:105080005B429C46E3445946194807F0E7FF80E736
:105090000C980D99174A1A4B06F01FFC0A9A0B9BA5
:1050A0000C900D91174807F0D9FF72E7506E011070
:1050B000706E0110946E0110D46E0110F46E011028
:1050C0000C6F01109999993F9A9999990000344071
:1050D000000050406666E63F6666666600407F40B8
:1050E0009A4B2352916305400000E03F000030409E
:1050F000306F01107B14AE47E17A943F406F01108E
:10510000E17A743F386F0110486F0110546F01103D
:10511000606F01107047C0467047C0467047C04678
:105120007047C0467047C0467047C046264BF0B532
:1051300047469846C823CE465B010024994680B571
:10514000224E234F234D91B06B4640222100A320D5
:10515000FFF73AF8FBF7F2FF6B4600211A780020C0
:10516000FBF7D2FF6B4600215A1C0520FBF7BAFF64
:1051700011236B441A0001210020FBF7B3FF4046C6
:1051800007F06CFF6B463800197807F067FF6B4635
:105190003000591C07F062FF11236B4419002800EE
:1051A00007F05CFFFBF764FA01F0A8FD431CF9D09F
:1051B00001F07AFD012802D040344C45C4D111B031
:1051C0000CBC90469946F0BD6C6F0110806F0110C9
:1051D000746F01108C6F0110F0B599B000236A460E
:1051E0001370FBF7ABFF334D00212A000020FBF7C3
:1051F00079FF6846FBF7BAFF00272026FBF738FA4D
:1052000001F07CFD431CF9D001F04EFD04000128A3
:105210001CD00D2821D068460CF028F81D28EDD8A8
:105220006B4620221E849B18190068441C700CF0E9
:1052300015F8FBF783FF2A0000210020FBF752FF3F
:105240006A4600210520FBF74DFFD7E76B461B7828
:10525000002B28D1184B186023E0184807F0FEFEF9
:10526000002408AD02E00134642C1FD0A6012B00FD
:1052700040223100A320FEF7A7FF2B782A2BF2D083
:1052800021000F4807F0EAFE21202A2369466844DE
:105290002B700BF0E3FF2B0040223100A220FEF721
:1052A000B3FF19B0F0BD6B461F70C2E7054807F0A9
:1052B000D5FEF6E7346E01106C340120986F0110B2
:1052C000AC6F0110C46F0110F0B5DE4657464E4674
:1052D0004546E0B5A9B000236A461370FBF72EFFE0
:1052E0008D4F00213A000020FBF7FCFE6846FBF7DB
:1052F0003DFF8A4B00249946894B00269A46894BEC
:105300009B46FBF7B5F901F0F9FC431C00D1A6E080
:1053100001F0CAFC0500012851D00D2800D192E00F
:10532000002E00D17AE07E4B1800984607F096FEDA
:10533000632C03DD52E00134642C4FD0A10118AB83
:105340004022A320FEF740FF61236B44190068460A
:105350000BF040FF0028EED1402218A908A807F062
:10536000CBFB584607F07AFEFBF7E8FE3A00002137
:105370000020FBF7B7FE2122002105206A44FBF73D
:10538000B1FE3122012100206A440134FBF7AAFE5C
:10539000FBF76EF901F0B2FC431CF9D001F084FC7C
:1053A000012800D188E00D28F2D1FBF761F9012630
:1053B00001F0A4FC01F078FC05000128ADD16B469A
:1053C0001B78002B00D08FE00122574B1A6029B0C8
:1053D0003CBC90469946A246AB46F0BD484607F015
:1053E0003DFE00236A461370FBF7A8FE3A00002139
:1053F0000020FBF777FE6A4600210520FBF772FECE
:10540000FBF736F901F07AFC431C6AD001F04CFC42
:105410000500012878D00D2879D000242023984653
:1054200068460BF023FF1D282DD9FBF721F901F069
:1054300065FC431C25D001F037FC0026050001283F
:10544000BDD00D28ECD15046D04607F007FE002E07
:1054500000D06DE7354807F001FE00246EE7002E0E
:1054600000D055E7FBF704F901F048FC431C00D0DD
:105470004EE7FBF7FDF801F041FC431C00D047E785
:10548000F0E700263DE76A4660234146D2181180C6
:105490006A46D318190068441D700BF0DFFEFBF755
:1054A0004DFE3A0000210020FBF71CFE6A46002159
:1054B0000520FBF717FEB8E700236A461370FBF7D9
:1054C0003DFE3A0000210020FBF70CFE6A46002159
:1054D0000520FBF707FE0126FBF7CAF801F00EFCDA
:1054E00068E7002400260CE700236A461370FBF7E8
:1054F00025FE3A0000210020FBF7F4FD6A4600215A
:105500000520FBF7EFFDFCE60024002657E74046A8
:1055100007F0A4FD9EE7C046D46D01100C6E01108B
:10552000DC6D0110046E01106C340120EC6D011073
:10553000F0B5C646294B00B598461B68002B24D110
:1055400001F0DCFB431C02D104BC9046F0BD01F02D
:10555000ABFB234B1C68237B262BF5D022000021BC
:10556000183206E00C3213000C3B1B780131262B5D
:10557000EAD08342F6D14B00591889006418636958
:105580009847012342461360DEE70023424613603A
:10559000FBF7D4FD124E31680B7B262B1AD0002569
:1055A0000023104F5B199C0009190869FBF710FED6
:1055B000336801359C4664442069FBF7D7FD380009
:1055C000FBF7D4FD6B0031685A1992008A18127BE0
:1055D000262AE7D18B689847B2E7C0466C34012091
:1055E0001C120120306E011070B504002500FBF77D
:1055F000A5FD661C002100202278FBF785FD1135F2
:10560000320000210520FBF76DFD2A00012100205A
:10561000FBF768FD0B4807F021FD21780A4807F0E9
:105620001DFD3100094807F019FD2900084807F061
:1056300015FDFBF71DF801F061FB431CF9D001F0EB
:1056400033FB70BD6C6F0110746F0110806F01101F
:105650008C6F0110F0B5C64600B598B0FBF76EFD33
:105660001B4B002498462D251A4F1B4E2200414605
:10567000684605F029FE6A4600210020FBF732FD4E
:1056800020226B469B1820001D700A2105F0AEFEFB
:1056900021230A006B4439001800413205F014FE42
:1056A00031236B4422003100180005F00DFEA101EA
:1056B000402208ABA220FEF7A7FD013408A8FFF79F
:1056C00093FF642CD2D118B004BC9046F0BDC04604
:1056D000D46F0110DC6F0110E06F01100022044B49
:1056E0001A60044B01321A60034B044A1A60704777
:1056F000683401206C3401201C120120A013012009
:1057000010B5FFF715FF10BD1A4B70B51A680A21C6
:10571000501C186005F06AFE174A002910D17B233F
:10572000D156164BC80F1860154B5C689D68DE6833
:105730001C601C695D609E60DC601861002907DBED
:105740007423D35C002B02D000220E4B1A6070BD74
:10575000012CF5D13543F3D10A48036801330360C6
:10576000042BEDD108490C600B68002BFCD10360C1
:10577000E6E7C046683501202C570120643501203A
:10578000241201206C350120482F01200022014BFA
:105790001A607047F4340120064B1A681100303942
:1057A000392A01DD573A1100034A13681B010B43E4
:1057B0001360704728340120F43401200122014B8A
:1057C0001A6070470C34012010B50100014807F041
:1057D00045FC10BDF8700110A522A62170B5154B2F
:1057E00015489A5C5E5C1202B618A72202319A5CD8
:1057F0005D5C1202AD18A92202319A5C5C5C120257
:10580000A4180E4A0E499A5C595C12028918B6B265
:1058100089B207F023FCADB231000A4807F01EFC44
:10582000A4B22900084807F019FC2100074807F036
:1058300015FC70BD2C5701200C7101106520000073
:10584000662000001C7101102C7101103C710110C8
:1058500070B50A2007F05AFA074C084D2600FC36AE
:105860006268216828000C3407F0F8FBB442F7D1D5
:105870000A2007F04BFA70BD301401204C71011062
:1058800070B50A2007F042FA0B4C0C4E250081350A
:10589000FF35626813782A2B03D03000217807F097
:1058A000DDFB0C34AC42F4D1054807F0D7FB0A20ED
:1058B00007F02CFA70BDC0462C150120587101105C
:1058C00064710110F0B5DE464E46454657468022CB
:1058D000E0B5264C0021A54410ABD200A320FEF772
:1058E00073FC0A2007F012FA002302AD2B70204B44
:1058F000002499461F4B204E9846204B9A460CE0B8
:105900005146684605F0E0FC694628000BF03AFC79
:1059100080230134DB009C421CD0194BE7180F2375
:105920001A0022409346234208D068213A78B35C9B
:105930008B43E5D12E236A461380E5E729004846CC
:1059400007F08CFB5B4602AD210040462B7007F050
:1059500085FBEAE70A2007F0D9F90A4B9D443CBCD5
:1059600090469946A246AB46F0BDC046BCEFFFFF4D
:1059700088710110907101105D7E0110D86F0110C7
:105980000000181044100000F0B5DE464E465746A1
:105990004546E0B50A2091B007F0B8F900236A4601
:1059A00013728023234E9B003468E3189C4237D245
:1059B000214B224F9846224B9B46224B9A46224B24
:1059C000994610E02A004946684605F07DFC694684
:1059D00002A80BF0D7FB8022920094463368013472
:1059E0006344A3421CD90F231D00254023420CD041
:1059F00025784046290007F031FB68227B5D934300
:105A0000E0D12E236A461380E1E702A9584607F049
:105A100025FB6B46210050461D7207F01FFBE7E790
:105A20000A2007F073F911B03CBC90469946A24693
:105A3000AB46F0BDF4340120EC6F01105D7E011027
:105A40008871011098710110D86F011010B5034BC7
:105A5000034A1A60FFF798FF10BDC046F4340120D6
:105A60000000181010B584B001AB1900074A11CA24
:105A700011C1108808809278A3208A70044A1168A6
:105A80000A22FEF7C1FB04B010BDC046A071011090
:105A9000F4340120F0B5DE4657464E464546E0B5A3
:105AA000214B89B09B461B68002B32DD1F4B002425
:105AB00099461F4B98461F4A6300D55A1E4A1F49F4
:105AC000165D1F4A1F48125DADB2D2B20692CA5A85
:105AD000C75A4B461B5D91B2DBB29A464B46185DE6
